{
	"data": {
		"bytecode": {
			"linkReferences": {},
			"object": "608060405260006003553480156200001657600080fd5b5060405162001dfb38038062001dfb83398181016040528101906200003c919062000208565b6200005c62000050620000be60201b60201c565b620000c660201b60201c565b60008060146101000a81548160ff02191690831515021790555080600260006101000a81548173ffffffffffffffffffffffffffffffffffffffff021916908373ffffffffffffffffffffffffffffffffffffffff160217905550506200023a565b600033905090565b60008060009054906101000a900473ffffffffffffffffffffffffffffffffffffffff169050816000806101000a81548173ffffffffffffffffffffffffffffffffffffffff021916908373ffffffffffffffffffffffffffffffffffffffff1602179055508173ffffffffffffffffffffffffffffffffffffffff168173ffffffffffffffffffffffffffffffffffffffff167f8be0079c531659141344cd1fd0a4f28419497f9722a3daafe3b4186f6b6457e060405160405180910390a35050565b600080fd5b600073ffffffffffffffffffffffffffffffffffffffff82169050919050565b6000620001bc826200018f565b9050919050565b6000620001d082620001af565b9050919050565b620001e281620001c3565b8114620001ee57600080fd5b50565b6000815190506200020281620001d7565b92915050565b6000602082840312156200022157620002206200018a565b5b60006200023184828501620001f1565b91505092915050565b611bb1806200024a6000396000f3fe608060405234801561001057600080fd5b50600436106100ea5760003560e01c8063715018a61161008c578063a065b0bd11610066578063a065b0bd1461023b578063aa880dc414610259578063b60d428814610289578063f2fde38b146102a7576100ea565b8063715018a6146101f75780637cb64759146102015780638da5cb5b1461021d576100ea565b80634b319713116100c85780634b3197131461016d5780635195bd291461018b5780635c975abb146101a95780636092dfcb146101c7576100ea565b806302438b2d146100ef5780630aab8ba51461010d5780632f3845231461013d575b600080fd5b6100f76102c3565b60405161010491906110e0565b60405180910390f35b61012760048036038101906101229190611131565b6102c9565b6040516101349190611177565b60405180910390f35b61015760048036038101906101529190611131565b610362565b60405161016491906111ad565b60405180910390f35b6101756105eb565b60405161018291906110e0565b60405180910390f35b6101936105f1565b6040516101a091906110e0565b60405180910390f35b6101b1610694565b6040516101be91906111ad565b60405180910390f35b6101e160048036038101906101dc919061122d565b6106aa565b6040516101ee91906111ad565b60405180910390f35b6101ff6109cf565b005b61021b600480360381019061021691906112cd565b610a57565b005b610225610b4a565b604051610232919061133b565b60405180910390f35b610243610b73565b60405161025091906113b5565b60405180910390f35b610273600480360381019061026e91906113fc565b610b99565b60405161028091906111ad565b60405180910390f35b610291610bb9565b60405161029e91906111ad565b60405180910390f35b6102c160048036038101906102bc91906113fc565b610e35565b005b60035481565b60006102d3610f2c565b73ffffffffffffffffffffffffffffffffffffffff166102f1610b4a565b73ffffffffffffffffffffffffffffffffffffffff1614610347576040517f08c379a000000000000000000000000000000000000000000000000000000000815260040161033e90611486565b60405180910390fd5b60056000838152602001908152602001600020549050919050565b600061036c610f2c565b73ffffffffffffffffffffffffffffffffffffffff1661038a610b4a565b73ffffffffffffffffffffffffffffffffffffffff16146103e0576040517f08c379a00000000000000000000000000000000000000000000000000000000081526004016103d790611486565b60405180910390fd5b6000600260009054906101000a900473ffffffffffffffffffffffffffffffffffffffff1673ffffffffffffffffffffffffffffffffffffffff166370a08231306040518263ffffffff1660e01b815260040161043d919061133b565b602060405180830381865afa15801561045a573d6000803e3d6000fd5b505050506040513d601f19601f8201168201806040525081019061047e91906114bb565b90506000600154826104909190611517565b9050838110156104d5576040517f08c379a00000000000000000000000000000000000000000000000000000000081526004016104cc90611597565b60405180910390fd5b600260009054906101000a900473ffffffffffffffffffffffffffffffffffffffff1673ffffffffffffffffffffffffffffffffffffffff1663a9059cbb33866040518363ffffffff1660e01b81526004016105329291906115b7565b6020604051808303816000875af1158015610551573d6000803e3d6000fd5b505050506040513d601f19601f82011682018060405250810190610575919061160c565b61057e57600080fd5b3373ffffffffffffffffffffffffffffffffffffffff167f2d2c22b12ce2c4142ec672b74a307ec23572019efd8c9a930a8fc19f0fcd6c86856105ca8785610f3490919063ffffffff16565b6040516105d8929190611639565b60405180910390a2600192505050919050565b60015481565b6000600260009054906101000a900473ffffffffffffffffffffffffffffffffffffffff1673ffffffffffffffffffffffffffffffffffffffff166370a08231306040518263ffffffff1660e01b815260040161064e919061133b565b602060405180830381865afa15801561066b573d6000803e3d6000fd5b505050506040513d601f19601f8201168201806040525081019061068f91906114bb565b905090565b60008060149054906101000a900460ff16905090565b60006106b4610694565b156106f4576040517f08c379a00000000000000000000000000000000000000000000000000000000081526004016106eb906116ae565b60405180910390fd5b600460003373ffffffffffffffffffffffffffffffffffffffff1673ffffffffffffffffffffffffffffffffffffffff16815260200190815260200160002060009054906101000a900460ff1615610781576040517f08c379a000000000000000000000000000000000000000000000000000000000815260040161077890611740565b60405180910390fd5b600060056000848152602001908152602001600020549050600033876040516020016107ae9291906117c9565b6040516020818303038152906040528051906020012090506000610814878780806020026020016040519081016040528093929190818152602001838360200280828437600081840152601f19601f820116905080830192505050505050508484610f4a565b905080610856576040517f08c379a000000000000000000000000000000000000000000000000000000000815260040161084d90611867565b60405180910390fd5b6001600460003373ffffffffffffffffffffffffffffffffffffffff1673ffffffffffffffffffffffffffffffffffffffff16815260200190815260200160002060006101000a81548160ff0219169083151502179055506108c388600154610f6190919063ffffffff16565b600181905550600260009054906101000a900473ffffffffffffffffffffffffffffffffffffffff1673ffffffffffffffffffffffffffffffffffffffff1663a9059cbb338a6040518363ffffffff1660e01b81526004016109269291906115b7565b6020604051808303816000875af1158015610945573d6000803e3d6000fd5b505050506040513d601f19601f82011682018060405250810190610969919061160c565b61097257600080fd5b3373ffffffffffffffffffffffffffffffffffffffff167f7084f5476618d8e60b11ef0d7d3f06914655adb8793e28ff7f018d4c76d505d5896040516109b891906110e0565b60405180910390a260019350505050949350505050565b6109d7610f2c565b73ffffffffffffffffffffffffffffffffffffffff166109f5610b4a565b73ffffffffffffffffffffffffffffffffffffffff1614610a4b576040517f08c379a0000000000000000000000000000000000000000000000000000000008152600401610a4290611486565b60405180910390fd5b610a556000610f77565b565b610a5f610f2c565b73ffffffffffffffffffffffffffffffffffffffff16610a7d610b4a565b73ffffffffffffffffffffffffffffffffffffffff1614610ad3576040517f08c379a0000000000000000000000000000000000000000000000000000000008152600401610aca90611486565b60405180910390fd5b6000801b8103610b18576040517f08c379a0000000000000000000000000000000000000000000000000000000008152600401610b0f906118f9565b60405180910390fd5b6001600354610b279190611919565b600381905550806005600060035481526020019081526020016000208190555050565b60008060009054906101000a900473ffffffffffffffffffffffffffffffffffffffff16905090565b600260009054906101000a900473ffffffffffffffffffffffffffffffffffffffff1681565b60046020528060005260406000206000915054906101000a900460ff1681565b6000610bc3610f2c565b73ffffffffffffffffffffffffffffffffffffffff16610be1610b4a565b73ffffffffffffffffffffffffffffffffffffffff1614610c37576040517f08c379a0000000000000000000000000000000000000000000000000000000008152600401610c2e90611486565b60405180910390fd5b6000600260009054906101000a900473ffffffffffffffffffffffffffffffffffffffff1673ffffffffffffffffffffffffffffffffffffffff1663dd62ed3e33306040518363ffffffff1660e01b8152600401610c9692919061196f565b602060405180830381865afa158015610cb3573d6000803e3d6000fd5b505050506040513d601f19601f82011682018060405250810190610cd791906114bb565b905060008111610d1c576040517f08c379a0000000000000000000000000000000000000000000000000000000008152600401610d13906119e4565b60405180910390fd5b6000610d266105f1565b9050600260009054906101000a900473ffffffffffffffffffffffffffffffffffffffff1673ffffffffffffffffffffffffffffffffffffffff166323b872dd3330856040518463ffffffff1660e01b8152600401610d8793929190611a04565b6020604051808303816000875af1158015610da6573d6000803e3d6000fd5b505050506040513d601f19601f82011682018060405250810190610dca919061160c565b610dd357600080fd5b3373ffffffffffffffffffffffffffffffffffffffff167f26b27e83d0b82c44eb17d6f11776a8c600332d2ed7d9febfe585848bcfadf52d8383610e156105f1565b604051610e2493929190611a3b565b60405180910390a260019250505090565b610e3d610f2c565b73ffffffffffffffffffffffffffffffffffffffff16610e5b610b4a565b73ffffffffffffffffffffffffffffffffffffffff1614610eb1576040517f08c379a0000000000000000000000000000000000000000000000000000000008152600401610ea890611486565b60405180910390fd5b600073ffffffffffffffffffffffffffffffffffffffff168173ffffffffffffffffffffffffffffffffffffffff1603610f20576040517f08c379a0000000000000000000000000000000000000000000000000000000008152600401610f1790611ae4565b60405180910390fd5b610f2981610f77565b50565b600033905090565b60008183610f429190611517565b905092915050565b600082610f57858461103b565b1490509392505050565b60008183610f6f9190611919565b905092915050565b60008060009054906101000a900473ffffffffffffffffffffffffffffffffffffffff169050816000806101000a81548173ffffffffffffffffffffffffffffffffffffffff021916908373ffffffffffffffffffffffffffffffffffffffff1602179055508173ffffffffffffffffffffffffffffffffffffffff168173ffffffffffffffffffffffffffffffffffffffff167f8be0079c531659141344cd1fd0a4f28419497f9722a3daafe3b4186f6b6457e060405160405180910390a35050565b60008082905060005b84518110156110a557600085828151811061106257611061611b04565b5b602002602001015190508083116110845761107d83826110b0565b9250611091565b61108e81846110b0565b92505b50808061109d90611b33565b915050611044565b508091505092915050565b600082600052816020526040600020905092915050565b6000819050919050565b6110da816110c7565b82525050565b60006020820190506110f560008301846110d1565b92915050565b600080fd5b600080fd5b61110e816110c7565b811461111957600080fd5b50565b60008135905061112b81611105565b92915050565b600060208284031215611147576111466110fb565b5b60006111558482850161111c565b91505092915050565b6000819050919050565b6111718161115e565b82525050565b600060208201905061118c6000830184611168565b92915050565b60008115159050919050565b6111a781611192565b82525050565b60006020820190506111c2600083018461119e565b92915050565b600080fd5b600080fd5b600080fd5b60008083601f8401126111ed576111ec6111c8565b5b8235905067ffffffffffffffff81111561120a576112096111cd565b5b602083019150836020820283011115611226576112256111d2565b5b9250929050565b60008060008060608587031215611247576112466110fb565b5b60006112558782880161111c565b945050602085013567ffffffffffffffff81111561127657611275611100565b5b611282878288016111d7565b935093505060406112958782880161111c565b91505092959194509250565b6112aa8161115e565b81146112b557600080fd5b50565b6000813590506112c7816112a1565b92915050565b6000602082840312156112e3576112e26110fb565b5b60006112f1848285016112b8565b91505092915050565b600073ffffffffffffffffffffffffffffffffffffffff82169050919050565b6000611325826112fa565b9050919050565b6113358161131a565b82525050565b6000602082019050611350600083018461132c565b92915050565b6000819050919050565b600061137b611376611371846112fa565b611356565b6112fa565b9050919050565b600061138d82611360565b9050919050565b600061139f82611382565b9050919050565b6113af81611394565b82525050565b60006020820190506113ca60008301846113a6565b92915050565b6113d98161131a565b81146113e457600080fd5b50565b6000813590506113f6816113d0565b92915050565b600060208284031215611412576114116110fb565b5b6000611420848285016113e7565b91505092915050565b600082825260208201905092915050565b7f4f776e61626c653a2063616c6c6572206973206e6f7420746865206f776e6572600082015250565b6000611470602083611429565b915061147b8261143a565b602082019050919050565b6000602082019050818103600083015261149f81611463565b9050919050565b6000815190506114b581611105565b92915050565b6000602082840312156114d1576114d06110fb565b5b60006114df848285016114a6565b91505092915050565b7f4e487b7100000000000000000000000000000000000000000000000000000000600052601160045260246000fd5b6000611522826110c7565b915061152d836110c7565b9250828210156115405761153f6114e8565b5b828203905092915050565b7f616d6f756e7420697320677261746572207468616e2062616c616e6163650000600082015250565b6000611581601e83611429565b915061158c8261154b565b602082019050919050565b600060208201905081810360008301526115b081611574565b9050919050565b60006040820190506115cc600083018561132c565b6115d960208301846110d1565b9392505050565b6115e981611192565b81146115f457600080fd5b50565b600081519050611606816115e0565b92915050565b600060208284031215611622576116216110fb565b5b6000611630848285016115f7565b91505092915050565b600060408201905061164e60008301856110d1565b61165b60208301846110d1565b9392505050565b7f5061757361626c653a2070617573656400000000000000000000000000000000600082015250565b6000611698601083611429565b91506116a382611662565b602082019050919050565b600060208201905081810360008301526116c78161168b565b9050919050565b7f56657374696e673a2056657374696e6720686173206265656e20636c61696d6560008201527f6421000000000000000000000000000000000000000000000000000000000000602082015250565b600061172a602283611429565b9150611735826116ce565b604082019050919050565b600060208201905081810360008301526117598161171d565b9050919050565b60008160601b9050919050565b600061177882611760565b9050919050565b600061178a8261176d565b9050919050565b6117a261179d8261131a565b61177f565b82525050565b6000819050919050565b6117c36117be826110c7565b6117a8565b82525050565b60006117d58285611791565b6014820191506117e582846117b2565b6020820191508190509392505050565b7f56657374696e673a204164647265737320686173206e6f2056657374696e672060008201527f616c6c6f636174696f6e21000000000000000000000000000000000000000000602082015250565b6000611851602b83611429565b915061185c826117f5565b604082019050919050565b6000602082019050818103600083015261188081611844565b9050919050565b7f56657374696e673a20496e76616c6964206e6577206d65726b6c6520726f6f7460008201527f2076616c75652100000000000000000000000000000000000000000000000000602082015250565b60006118e3602783611429565b91506118ee82611887565b604082019050919050565b60006020820190508181036000830152611912816118d6565b9050919050565b6000611924826110c7565b915061192f836110c7565b9250827fffffffffffffffffffffffffffffffffffffffffffffffffffffffffffffffff03821115611964576119636114e8565b5b828201905092915050565b6000604082019050611984600083018561132c565b611991602083018461132c565b9392505050565b7f4e6f7468696e6720746f2066756e642e00000000000000000000000000000000600082015250565b60006119ce601083611429565b91506119d982611998565b602082019050919050565b600060208201905081810360008301526119fd816119c1565b9050919050565b6000606082019050611a19600083018661132c565b611a26602083018561132c565b611a3360408301846110d1565b949350505050565b6000606082019050611a5060008301866110d1565b611a5d60208301856110d1565b611a6a60408301846110d1565b949350505050565b7f4f776e61626c653a206e6577206f776e657220697320746865207a65726f206160008201527f6464726573730000000000000000000000000000000000000000000000000000602082015250565b6000611ace602683611429565b9150611ad982611a72565b604082019050919050565b60006020820190508181036000830152611afd81611ac1565b9050919050565b7f4e487b7100000000000000000000000000000000000000000000000000000000600052603260045260246000fd5b6000611b3e826110c7565b91507fffffffffffffffffffffffffffffffffffffffffffffffffffffffffffffffff8203611b7057611b6f6114e8565b5b60018201905091905056fea26469706673582212201e0bba80b6db26991809fb56864c9dc0b3f1e1570ef1058c5a9d2552a0eea4f964736f6c634300080d0033",
			"opcodes": "PUSH1 0x80 PUSH1 0x40 MSTORE PUSH1 0x0 PUSH1 0x3 SSTORE CALLVALUE DUP1 ISZERO PUSH3 0x16 JUMPI PUSH1 0x0 DUP1 REVERT JUMPDEST POP PUSH1 0x40 MLOAD PUSH3 0x1DFB CODESIZE SUB DUP1 PUSH3 0x1DFB DUP4 CODECOPY DUP2 DUP2 ADD PUSH1 0x40 MSTORE DUP2 ADD SWAP1 PUSH3 0x3C SWAP2 SWAP1 PUSH3 0x208 JUMP JUMPDEST PUSH3 0x5C PUSH3 0x50 PUSH3 0xBE PUSH1 0x20 SHL PUSH1 0x20 SHR JUMP JUMPDEST PUSH3 0xC6 PUSH1 0x20 SHL PUSH1 0x20 SHR JUMP JUMPDEST PUSH1 0x0 DUP1 PUSH1 0x14 PUSH2 0x100 EXP DUP2 SLOAD DUP2 PUSH1 0xFF MUL NOT AND SWAP1 DUP4 ISZERO ISZERO MUL OR SWAP1 SSTORE POP DUP1 PUSH1 0x2 PUSH1 0x0 PUSH2 0x100 EXP DUP2 SLOAD DUP2 PUSH20 0xFFFFFFFFFFFFFFFFFFFFFFFFFFFFFFFFFFFFFFFF MUL NOT AND SWAP1 DUP4 PUSH20 0xFFFFFFFFFFFFFFFFFFFFFFFFFFFFFFFFFFFFFFFF AND MUL OR SWAP1 SSTORE POP POP PUSH3 0x23A JUMP JUMPDEST PUSH1 0x0 CALLER SWAP1 POP SWAP1 JUMP JUMPDEST PUSH1 0x0 DUP1 PUSH1 0x0 SWAP1 SLOAD SWAP1 PUSH2 0x100 EXP SWAP1 DIV PUSH20 0xFFFFFFFFFFFFFFFFFFFFFFFFFFFFFFFFFFFFFFFF AND SWAP1 POP DUP2 PUSH1 0x0 DUP1 PUSH2 0x100 EXP DUP2 SLOAD DUP2 PUSH20 0xFFFFFFFFFFFFFFFFFFFFFFFFFFFFFFFFFFFFFFFF MUL NOT AND SWAP1 DUP4 PUSH20 0xFFFFFFFFFFFFFFFFFFFFFFFFFFFFFFFFFFFFFFFF AND MUL OR SWAP1 SSTORE POP DUP2 PUSH20 0xFFFFFFFFFFFFFFFFFFFFFFFFFFFFFFFFFFFFFFFF AND DUP2 PUSH20 0xFFFFFFFFFFFFFFFFFFFFFFFFFFFFFFFFFFFFFFFF AND PUSH32 0x8BE0079C531659141344CD1FD0A4F28419497F9722A3DAAFE3B4186F6B6457E0 PUSH1 0x40 MLOAD PUSH1 0x40 MLOAD DUP1 SWAP2 SUB SWAP1 LOG3 POP POP JUMP JUMPDEST PUSH1 0x0 DUP1 REVERT JUMPDEST PUSH1 0x0 PUSH20 0xFFFFFFFFFFFFFFFFFFFFFFFFFFFFFFFFFFFFFFFF DUP3 AND SWAP1 POP SWAP2 SWAP1 POP JUMP JUMPDEST PUSH1 0x0 PUSH3 0x1BC DUP3 PUSH3 0x18F JUMP JUMPDEST SWAP1 POP SWAP2 SWAP1 POP JUMP JUMPDEST PUSH1 0x0 PUSH3 0x1D0 DUP3 PUSH3 0x1AF JUMP JUMPDEST SWAP1 POP SWAP2 SWAP1 POP JUMP JUMPDEST PUSH3 0x1E2 DUP2 PUSH3 0x1C3 JUMP JUMPDEST DUP2 EQ PUSH3 0x1EE JUMPI PUSH1 0x0 DUP1 REVERT JUMPDEST POP JUMP JUMPDEST PUSH1 0x0 DUP2 MLOAD SWAP1 POP PUSH3 0x202 DUP2 PUSH3 0x1D7 JUMP JUMPDEST SWAP3 SWAP2 POP POP JUMP JUMPDEST PUSH1 0x0 PUSH1 0x20 DUP3 DUP5 SUB SLT ISZERO PUSH3 0x221 JUMPI PUSH3 0x220 PUSH3 0x18A JUMP JUMPDEST JUMPDEST PUSH1 0x0 PUSH3 0x231 DUP5 DUP3 DUP6 ADD PUSH3 0x1F1 JUMP JUMPDEST SWAP2 POP POP SWAP3 SWAP2 POP POP JUMP JUMPDEST PUSH2 0x1BB1 DUP1 PUSH3 0x24A PUSH1 0x0 CODECOPY PUSH1 0x0 RETURN INVALID PUSH1 0x80 PUSH1 0x40 MSTORE CALLVALUE DUP1 ISZERO PUSH2 0x10 JUMPI PUSH1 0x0 DUP1 REVERT JUMPDEST POP PUSH1 0x4 CALLDATASIZE LT PUSH2 0xEA JUMPI PUSH1 0x0 CALLDATALOAD PUSH1 0xE0 SHR DUP1 PUSH4 0x715018A6 GT PUSH2 0x8C JUMPI DUP1 PUSH4 0xA065B0BD GT PUSH2 0x66 JUMPI DUP1 PUSH4 0xA065B0BD EQ PUSH2 0x23B JUMPI DUP1 PUSH4 0xAA880DC4 EQ PUSH2 0x259 JUMPI DUP1 PUSH4 0xB60D4288 EQ PUSH2 0x289 JUMPI DUP1 PUSH4 0xF2FDE38B EQ PUSH2 0x2A7 JUMPI PUSH2 0xEA JUMP JUMPDEST DUP1 PUSH4 0x715018A6 EQ PUSH2 0x1F7 JUMPI DUP1 PUSH4 0x7CB64759 EQ PUSH2 0x201 JUMPI DUP1 PUSH4 0x8DA5CB5B EQ PUSH2 0x21D JUMPI PUSH2 0xEA JUMP JUMPDEST DUP1 PUSH4 0x4B319713 GT PUSH2 0xC8 JUMPI DUP1 PUSH4 0x4B319713 EQ PUSH2 0x16D JUMPI DUP1 PUSH4 0x5195BD29 EQ PUSH2 0x18B JUMPI DUP1 PUSH4 0x5C975ABB EQ PUSH2 0x1A9 JUMPI DUP1 PUSH4 0x6092DFCB EQ PUSH2 0x1C7 JUMPI PUSH2 0xEA JUMP JUMPDEST DUP1 PUSH4 0x2438B2D EQ PUSH2 0xEF JUMPI DUP1 PUSH4 0xAAB8BA5 EQ PUSH2 0x10D JUMPI DUP1 PUSH4 0x2F384523 EQ PUSH2 0x13D JUMPI JUMPDEST PUSH1 0x0 DUP1 REVERT JUMPDEST PUSH2 0xF7 PUSH2 0x2C3 JUMP JUMPDEST PUSH1 0x40 MLOAD PUSH2 0x104 SWAP2 SWAP1 PUSH2 0x10E0 JUMP JUMPDEST PUSH1 0x40 MLOAD DUP1 SWAP2 SUB SWAP1 RETURN JUMPDEST PUSH2 0x127 PUSH1 0x4 DUP1 CALLDATASIZE SUB DUP2 ADD SWAP1 PUSH2 0x122 SWAP2 SWAP1 PUSH2 0x1131 JUMP JUMPDEST PUSH2 0x2C9 JUMP JUMPDEST PUSH1 0x40 MLOAD PUSH2 0x134 SWAP2 SWAP1 PUSH2 0x1177 JUMP JUMPDEST PUSH1 0x40 MLOAD DUP1 SWAP2 SUB SWAP1 RETURN JUMPDEST PUSH2 0x157 PUSH1 0x4 DUP1 CALLDATASIZE SUB DUP2 ADD SWAP1 PUSH2 0x152 SWAP2 SWAP1 PUSH2 0x1131 JUMP JUMPDEST PUSH2 0x362 JUMP JUMPDEST PUSH1 0x40 MLOAD PUSH2 0x164 SWAP2 SWAP1 PUSH2 0x11AD JUMP JUMPDEST PUSH1 0x40 MLOAD DUP1 SWAP2 SUB SWAP1 RETURN JUMPDEST PUSH2 0x175 PUSH2 0x5EB JUMP JUMPDEST PUSH1 0x40 MLOAD PUSH2 0x182 SWAP2 SWAP1 PUSH2 0x10E0 JUMP JUMPDEST PUSH1 0x40 MLOAD DUP1 SWAP2 SUB SWAP1 RETURN JUMPDEST PUSH2 0x193 PUSH2 0x5F1 JUMP JUMPDEST PUSH1 0x40 MLOAD PUSH2 0x1A0 SWAP2 SWAP1 PUSH2 0x10E0 JUMP JUMPDEST PUSH1 0x40 MLOAD DUP1 SWAP2 SUB SWAP1 RETURN JUMPDEST PUSH2 0x1B1 PUSH2 0x694 JUMP JUMPDEST PUSH1 0x40 MLOAD PUSH2 0x1BE SWAP2 SWAP1 PUSH2 0x11AD JUMP JUMPDEST PUSH1 0x40 MLOAD DUP1 SWAP2 SUB SWAP1 RETURN JUMPDEST PUSH2 0x1E1 PUSH1 0x4 DUP1 CALLDATASIZE SUB DUP2 ADD SWAP1 PUSH2 0x1DC SWAP2 SWAP1 PUSH2 0x122D JUMP JUMPDEST PUSH2 0x6AA JUMP JUMPDEST PUSH1 0x40 MLOAD PUSH2 0x1EE SWAP2 SWAP1 PUSH2 0x11AD JUMP JUMPDEST PUSH1 0x40 MLOAD DUP1 SWAP2 SUB SWAP1 RETURN JUMPDEST PUSH2 0x1FF PUSH2 0x9CF JUMP JUMPDEST STOP JUMPDEST PUSH2 0x21B PUSH1 0x4 DUP1 CALLDATASIZE SUB DUP2 ADD SWAP1 PUSH2 0x216 SWAP2 SWAP1 PUSH2 0x12CD JUMP JUMPDEST PUSH2 0xA57 JUMP JUMPDEST STOP JUMPDEST PUSH2 0x225 PUSH2 0xB4A JUMP JUMPDEST PUSH1 0x40 MLOAD PUSH2 0x232 SWAP2 SWAP1 PUSH2 0x133B JUMP JUMPDEST PUSH1 0x40 MLOAD DUP1 SWAP2 SUB SWAP1 RETURN JUMPDEST PUSH2 0x243 PUSH2 0xB73 JUMP JUMPDEST PUSH1 0x40 MLOAD PUSH2 0x250 SWAP2 SWAP1 PUSH2 0x13B5 JUMP JUMPDEST PUSH1 0x40 MLOAD DUP1 SWAP2 SUB SWAP1 RETURN JUMPDEST PUSH2 0x273 PUSH1 0x4 DUP1 CALLDATASIZE SUB DUP2 ADD SWAP1 PUSH2 0x26E SWAP2 SWAP1 PUSH2 0x13FC JUMP JUMPDEST PUSH2 0xB99 JUMP JUMPDEST PUSH1 0x40 MLOAD PUSH2 0x280 SWAP2 SWAP1 PUSH2 0x11AD JUMP JUMPDEST PUSH1 0x40 MLOAD DUP1 SWAP2 SUB SWAP1 RETURN JUMPDEST PUSH2 0x291 PUSH2 0xBB9 JUMP JUMPDEST PUSH1 0x40 MLOAD PUSH2 0x29E SWAP2 SWAP1 PUSH2 0x11AD JUMP JUMPDEST PUSH1 0x40 MLOAD DUP1 SWAP2 SUB SWAP1 RETURN JUMPDEST PUSH2 0x2C1 PUSH1 0x4 DUP1 CALLDATASIZE SUB DUP2 ADD SWAP1 PUSH2 0x2BC SWAP2 SWAP1 PUSH2 0x13FC JUMP JUMPDEST PUSH2 0xE35 JUMP JUMPDEST STOP JUMPDEST PUSH1 0x3 SLOAD DUP2 JUMP JUMPDEST PUSH1 0x0 PUSH2 0x2D3 PUSH2 0xF2C JUMP JUMPDEST PUSH20 0xFFFFFFFFFFFFFFFFFFFFFFFFFFFFFFFFFFFFFFFF AND PUSH2 0x2F1 PUSH2 0xB4A JUMP JUMPDEST PUSH20 0xFFFFFFFFFFFFFFFFFFFFFFFFFFFFFFFFFFFFFFFF AND EQ PUSH2 0x347 JUMPI PUSH1 0x40 MLOAD PUSH32 0x8C379A000000000000000000000000000000000000000000000000000000000 DUP2 MSTORE PUSH1 0x4 ADD PUSH2 0x33E SWAP1 PUSH2 0x1486 JUMP JUMPDEST PUSH1 0x40 MLOAD DUP1 SWAP2 SUB SWAP1 REVERT JUMPDEST PUSH1 0x5 PUSH1 0x0 DUP4 DUP2 MSTORE PUSH1 0x20 ADD SWAP1 DUP2 MSTORE PUSH1 0x20 ADD PUSH1 0x0 KECCAK256 SLOAD SWAP1 POP SWAP2 SWAP1 POP JUMP JUMPDEST PUSH1 0x0 PUSH2 0x36C PUSH2 0xF2C JUMP JUMPDEST PUSH20 0xFFFFFFFFFFFFFFFFFFFFFFFFFFFFFFFFFFFFFFFF AND PUSH2 0x38A PUSH2 0xB4A JUMP JUMPDEST PUSH20 0xFFFFFFFFFFFFFFFFFFFFFFFFFFFFFFFFFFFFFFFF AND EQ PUSH2 0x3E0 JUMPI PUSH1 0x40 MLOAD PUSH32 0x8C379A000000000000000000000000000000000000000000000000000000000 DUP2 MSTORE PUSH1 0x4 ADD PUSH2 0x3D7 SWAP1 PUSH2 0x1486 JUMP JUMPDEST PUSH1 0x40 MLOAD DUP1 SWAP2 SUB SWAP1 REVERT JUMPDEST PUSH1 0x0 PUSH1 0x2 PUSH1 0x0 SWAP1 SLOAD SWAP1 PUSH2 0x100 EXP SWAP1 DIV PUSH20 0xFFFFFFFFFFFFFFFFFFFFFFFFFFFFFFFFFFFFFFFF AND PUSH20 0xFFFFFFFFFFFFFFFFFFFFFFFFFFFFFFFFFFFFFFFF AND PUSH4 0x70A08231 ADDRESS PUSH1 0x40 MLOAD DUP3 PUSH4 0xFFFFFFFF AND PUSH1 0xE0 SHL DUP2 MSTORE PUSH1 0x4 ADD PUSH2 0x43D SWAP2 SWAP1 PUSH2 0x133B JUMP JUMPDEST PUSH1 0x20 PUSH1 0x40 MLOAD DUP1 DUP4 SUB DUP2 DUP7 GAS STATICCALL ISZERO DUP1 ISZERO PUSH2 0x45A JUMPI RETURNDATASIZE PUSH1 0x0 DUP1 RETURNDATACOPY RETURNDATASIZE PUSH1 0x0 REVERT JUMPDEST POP POP POP POP PUSH1 0x40 MLOAD RETURNDATASIZE PUSH1 0x1F NOT PUSH1 0x1F DUP3 ADD AND DUP3 ADD DUP1 PUSH1 0x40 MSTORE POP DUP2 ADD SWAP1 PUSH2 0x47E SWAP2 SWAP1 PUSH2 0x14BB JUMP JUMPDEST SWAP1 POP PUSH1 0x0 PUSH1 0x1 SLOAD DUP3 PUSH2 0x490 SWAP2 SWAP1 PUSH2 0x1517 JUMP JUMPDEST SWAP1 POP DUP4 DUP2 LT ISZERO PUSH2 0x4D5 JUMPI PUSH1 0x40 MLOAD PUSH32 0x8C379A000000000000000000000000000000000000000000000000000000000 DUP2 MSTORE PUSH1 0x4 ADD PUSH2 0x4CC SWAP1 PUSH2 0x1597 JUMP JUMPDEST PUSH1 0x40 MLOAD DUP1 SWAP2 SUB SWAP1 REVERT JUMPDEST PUSH1 0x2 PUSH1 0x0 SWAP1 SLOAD SWAP1 PUSH2 0x100 EXP SWAP1 DIV PUSH20 0xFFFFFFFFFFFFFFFFFFFFFFFFFFFFFFFFFFFFFFFF AND PUSH20 0xFFFFFFFFFFFFFFFFFFFFFFFFFFFFFFFFFFFFFFFF AND PUSH4 0xA9059CBB CALLER DUP7 PUSH1 0x40 MLOAD DUP4 PUSH4 0xFFFFFFFF AND PUSH1 0xE0 SHL DUP2 MSTORE PUSH1 0x4 ADD PUSH2 0x532 SWAP3 SWAP2 SWAP1 PUSH2 0x15B7 JUMP JUMPDEST PUSH1 0x20 PUSH1 0x40 MLOAD DUP1 DUP4 SUB DUP2 PUSH1 0x0 DUP8 GAS CALL ISZERO DUP1 ISZERO PUSH2 0x551 JUMPI RETURNDATASIZE PUSH1 0x0 DUP1 RETURNDATACOPY RETURNDATASIZE PUSH1 0x0 REVERT JUMPDEST POP POP POP POP PUSH1 0x40 MLOAD RETURNDATASIZE PUSH1 0x1F NOT PUSH1 0x1F DUP3 ADD AND DUP3 ADD DUP1 PUSH1 0x40 MSTORE POP DUP2 ADD SWAP1 PUSH2 0x575 SWAP2 SWAP1 PUSH2 0x160C JUMP JUMPDEST PUSH2 0x57E JUMPI PUSH1 0x0 DUP1 REVERT JUMPDEST CALLER PUSH20 0xFFFFFFFFFFFFFFFFFFFFFFFFFFFFFFFFFFFFFFFF AND PUSH32 0x2D2C22B12CE2C4142EC672B74A307EC23572019EFD8C9A930A8FC19F0FCD6C86 DUP6 PUSH2 0x5CA DUP8 DUP6 PUSH2 0xF34 SWAP1 SWAP2 SWAP1 PUSH4 0xFFFFFFFF AND JUMP JUMPDEST PUSH1 0x40 MLOAD PUSH2 0x5D8 SWAP3 SWAP2 SWAP1 PUSH2 0x1639 JUMP JUMPDEST PUSH1 0x40 MLOAD DUP1 SWAP2 SUB SWAP1 LOG2 PUSH1 0x1 SWAP3 POP POP POP SWAP2 SWAP1 POP JUMP JUMPDEST PUSH1 0x1 SLOAD DUP2 JUMP JUMPDEST PUSH1 0x0 PUSH1 0x2 PUSH1 0x0 SWAP1 SLOAD SWAP1 PUSH2 0x100 EXP SWAP1 DIV PUSH20 0xFFFFFFFFFFFFFFFFFFFFFFFFFFFFFFFFFFFFFFFF AND PUSH20 0xFFFFFFFFFFFFFFFFFFFFFFFFFFFFFFFFFFFFFFFF AND PUSH4 0x70A08231 ADDRESS PUSH1 0x40 MLOAD DUP3 PUSH4 0xFFFFFFFF AND PUSH1 0xE0 SHL DUP2 MSTORE PUSH1 0x4 ADD PUSH2 0x64E SWAP2 SWAP1 PUSH2 0x133B JUMP JUMPDEST PUSH1 0x20 PUSH1 0x40 MLOAD DUP1 DUP4 SUB DUP2 DUP7 GAS STATICCALL ISZERO DUP1 ISZERO PUSH2 0x66B JUMPI RETURNDATASIZE PUSH1 0x0 DUP1 RETURNDATACOPY RETURNDATASIZE PUSH1 0x0 REVERT JUMPDEST POP POP POP POP PUSH1 0x40 MLOAD RETURNDATASIZE PUSH1 0x1F NOT PUSH1 0x1F DUP3 ADD AND DUP3 ADD DUP1 PUSH1 0x40 MSTORE POP DUP2 ADD SWAP1 PUSH2 0x68F SWAP2 SWAP1 PUSH2 0x14BB JUMP JUMPDEST SWAP1 POP SWAP1 JUMP JUMPDEST PUSH1 0x0 DUP1 PUSH1 0x14 SWAP1 SLOAD SWAP1 PUSH2 0x100 EXP SWAP1 DIV PUSH1 0xFF AND SWAP1 POP SWAP1 JUMP JUMPDEST PUSH1 0x0 PUSH2 0x6B4 PUSH2 0x694 JUMP JUMPDEST ISZERO PUSH2 0x6F4 JUMPI PUSH1 0x40 MLOAD PUSH32 0x8C379A000000000000000000000000000000000000000000000000000000000 DUP2 MSTORE PUSH1 0x4 ADD PUSH2 0x6EB SWAP1 PUSH2 0x16AE JUMP JUMPDEST PUSH1 0x40 MLOAD DUP1 SWAP2 SUB SWAP1 REVERT JUMPDEST PUSH1 0x4 PUSH1 0x0 CALLER PUSH20 0xFFFFFFFFFFFFFFFFFFFFFFFFFFFFFFFFFFFFFFFF AND PUSH20 0xFFFFFFFFFFFFFFFFFFFFFFFFFFFFFFFFFFFFFFFF AND DUP2 MSTORE PUSH1 0x20 ADD SWAP1 DUP2 MSTORE PUSH1 0x20 ADD PUSH1 0x0 KECCAK256 PUSH1 0x0 SWAP1 SLOAD SWAP1 PUSH2 0x100 EXP SWAP1 DIV PUSH1 0xFF AND ISZERO PUSH2 0x781 JUMPI PUSH1 0x40 MLOAD PUSH32 0x8C379A000000000000000000000000000000000000000000000000000000000 DUP2 MSTORE PUSH1 0x4 ADD PUSH2 0x778 SWAP1 PUSH2 0x1740 JUMP JUMPDEST PUSH1 0x40 MLOAD DUP1 SWAP2 SUB SWAP1 REVERT JUMPDEST PUSH1 0x0 PUSH1 0x5 PUSH1 0x0 DUP5 DUP2 MSTORE PUSH1 0x20 ADD SWAP1 DUP2 MSTORE PUSH1 0x20 ADD PUSH1 0x0 KECCAK256 SLOAD SWAP1 POP PUSH1 0x0 CALLER DUP8 PUSH1 0x40 MLOAD PUSH1 0x20 ADD PUSH2 0x7AE SWAP3 SWAP2 SWAP1 PUSH2 0x17C9 JUMP JUMPDEST PUSH1 0x40 MLOAD PUSH1 0x20 DUP2 DUP4 SUB SUB DUP2 MSTORE SWAP1 PUSH1 0x40 MSTORE DUP1 MLOAD SWAP1 PUSH1 0x20 ADD KECCAK256 SWAP1 POP PUSH1 0x0 PUSH2 0x814 DUP8 DUP8 DUP1 DUP1 PUSH1 0x20 MUL PUSH1 0x20 ADD PUSH1 0x40 MLOAD SWAP1 DUP2 ADD PUSH1 0x40 MSTORE DUP1 SWAP4 SWAP3 SWAP2 SWAP1 DUP2 DUP2 MSTORE PUSH1 0x20 ADD DUP4 DUP4 PUSH1 0x20 MUL DUP1 DUP3 DUP5 CALLDATACOPY PUSH1 0x0 DUP2 DUP5 ADD MSTORE PUSH1 0x1F NOT PUSH1 0x1F DUP3 ADD AND SWAP1 POP DUP1 DUP4 ADD SWAP3 POP POP POP POP POP POP POP DUP5 DUP5 PUSH2 0xF4A JUMP JUMPDEST SWAP1 POP DUP1 PUSH2 0x856 JUMPI PUSH1 0x40 MLOAD PUSH32 0x8C379A000000000000000000000000000000000000000000000000000000000 DUP2 MSTORE PUSH1 0x4 ADD PUSH2 0x84D SWAP1 PUSH2 0x1867 JUMP JUMPDEST PUSH1 0x40 MLOAD DUP1 SWAP2 SUB SWAP1 REVERT JUMPDEST PUSH1 0x1 PUSH1 0x4 PUSH1 0x0 CALLER PUSH20 0xFFFFFFFFFFFFFFFFFFFFFFFFFFFFFFFFFFFFFFFF AND PUSH20 0xFFFFFFFFFFFFFFFFFFFFFFFFFFFFFFFFFFFFFFFF AND DUP2 MSTORE PUSH1 0x20 ADD SWAP1 DUP2 MSTORE PUSH1 0x20 ADD PUSH1 0x0 KECCAK256 PUSH1 0x0 PUSH2 0x100 EXP DUP2 SLOAD DUP2 PUSH1 0xFF MUL NOT AND SWAP1 DUP4 ISZERO ISZERO MUL OR SWAP1 SSTORE POP PUSH2 0x8C3 DUP9 PUSH1 0x1 SLOAD PUSH2 0xF61 SWAP1 SWAP2 SWAP1 PUSH4 0xFFFFFFFF AND JUMP JUMPDEST PUSH1 0x1 DUP2 SWAP1 SSTORE POP PUSH1 0x2 PUSH1 0x0 SWAP1 SLOAD SWAP1 PUSH2 0x100 EXP SWAP1 DIV PUSH20 0xFFFFFFFFFFFFFFFFFFFFFFFFFFFFFFFFFFFFFFFF AND PUSH20 0xFFFFFFFFFFFFFFFFFFFFFFFFFFFFFFFFFFFFFFFF AND PUSH4 0xA9059CBB CALLER DUP11 PUSH1 0x40 MLOAD DUP4 PUSH4 0xFFFFFFFF AND PUSH1 0xE0 SHL DUP2 MSTORE PUSH1 0x4 ADD PUSH2 0x926 SWAP3 SWAP2 SWAP1 PUSH2 0x15B7 JUMP JUMPDEST PUSH1 0x20 PUSH1 0x40 MLOAD DUP1 DUP4 SUB DUP2 PUSH1 0x0 DUP8 GAS CALL ISZERO DUP1 ISZERO PUSH2 0x945 JUMPI RETURNDATASIZE PUSH1 0x0 DUP1 RETURNDATACOPY RETURNDATASIZE PUSH1 0x0 REVERT JUMPDEST POP POP POP POP PUSH1 0x40 MLOAD RETURNDATASIZE PUSH1 0x1F NOT PUSH1 0x1F DUP3 ADD AND DUP3 ADD DUP1 PUSH1 0x40 MSTORE POP DUP2 ADD SWAP1 PUSH2 0x969 SWAP2 SWAP1 PUSH2 0x160C JUMP JUMPDEST PUSH2 0x972 JUMPI PUSH1 0x0 DUP1 REVERT JUMPDEST CALLER PUSH20 0xFFFFFFFFFFFFFFFFFFFFFFFFFFFFFFFFFFFFFFFF AND PUSH32 0x7084F5476618D8E60B11EF0D7D3F06914655ADB8793E28FF7F018D4C76D505D5 DUP10 PUSH1 0x40 MLOAD PUSH2 0x9B8 SWAP2 SWAP1 PUSH2 0x10E0 JUMP JUMPDEST PUSH1 0x40 MLOAD DUP1 SWAP2 SUB SWAP1 LOG2 PUSH1 0x1 SWAP4 POP POP POP POP SWAP5 SWAP4 POP POP POP POP JUMP JUMPDEST PUSH2 0x9D7 PUSH2 0xF2C JUMP JUMPDEST PUSH20 0xFFFFFFFFFFFFFFFFFFFFFFFFFFFFFFFFFFFFFFFF AND PUSH2 0x9F5 PUSH2 0xB4A JUMP JUMPDEST PUSH20 0xFFFFFFFFFFFFFFFFFFFFFFFFFFFFFFFFFFFFFFFF AND EQ PUSH2 0xA4B JUMPI PUSH1 0x40 MLOAD PUSH32 0x8C379A000000000000000000000000000000000000000000000000000000000 DUP2 MSTORE PUSH1 0x4 ADD PUSH2 0xA42 SWAP1 PUSH2 0x1486 JUMP JUMPDEST PUSH1 0x40 MLOAD DUP1 SWAP2 SUB SWAP1 REVERT JUMPDEST PUSH2 0xA55 PUSH1 0x0 PUSH2 0xF77 JUMP JUMPDEST JUMP JUMPDEST PUSH2 0xA5F PUSH2 0xF2C JUMP JUMPDEST PUSH20 0xFFFFFFFFFFFFFFFFFFFFFFFFFFFFFFFFFFFFFFFF AND PUSH2 0xA7D PUSH2 0xB4A JUMP JUMPDEST PUSH20 0xFFFFFFFFFFFFFFFFFFFFFFFFFFFFFFFFFFFFFFFF AND EQ PUSH2 0xAD3 JUMPI PUSH1 0x40 MLOAD PUSH32 0x8C379A000000000000000000000000000000000000000000000000000000000 DUP2 MSTORE PUSH1 0x4 ADD PUSH2 0xACA SWAP1 PUSH2 0x1486 JUMP JUMPDEST PUSH1 0x40 MLOAD DUP1 SWAP2 SUB SWAP1 REVERT JUMPDEST PUSH1 0x0 DUP1 SHL DUP2 SUB PUSH2 0xB18 JUMPI PUSH1 0x40 MLOAD PUSH32 0x8C379A000000000000000000000000000000000000000000000000000000000 DUP2 MSTORE PUSH1 0x4 ADD PUSH2 0xB0F SWAP1 PUSH2 0x18F9 JUMP JUMPDEST PUSH1 0x40 MLOAD DUP1 SWAP2 SUB SWAP1 REVERT JUMPDEST PUSH1 0x1 PUSH1 0x3 SLOAD PUSH2 0xB27 SWAP2 SWAP1 PUSH2 0x1919 JUMP JUMPDEST PUSH1 0x3 DUP2 SWAP1 SSTORE POP DUP1 PUSH1 0x5 PUSH1 0x0 PUSH1 0x3 SLOAD DUP2 MSTORE PUSH1 0x20 ADD SWAP1 DUP2 MSTORE PUSH1 0x20 ADD PUSH1 0x0 KECCAK256 DUP2 SWAP1 SSTORE POP POP JUMP JUMPDEST PUSH1 0x0 DUP1 PUSH1 0x0 SWAP1 SLOAD SWAP1 PUSH2 0x100 EXP SWAP1 DIV PUSH20 0xFFFFFFFFFFFFFFFFFFFFFFFFFFFFFFFFFFFFFFFF AND SWAP1 POP SWAP1 JUMP JUMPDEST PUSH1 0x2 PUSH1 0x0 SWAP1 SLOAD SWAP1 PUSH2 0x100 EXP SWAP1 DIV PUSH20 0xFFFFFFFFFFFFFFFFFFFFFFFFFFFFFFFFFFFFFFFF AND DUP2 JUMP JUMPDEST PUSH1 0x4 PUSH1 0x20 MSTORE DUP1 PUSH1 0x0 MSTORE PUSH1 0x40 PUSH1 0x0 KECCAK256 PUSH1 0x0 SWAP2 POP SLOAD SWAP1 PUSH2 0x100 EXP SWAP1 DIV PUSH1 0xFF AND DUP2 JUMP JUMPDEST PUSH1 0x0 PUSH2 0xBC3 PUSH2 0xF2C JUMP JUMPDEST PUSH20 0xFFFFFFFFFFFFFFFFFFFFFFFFFFFFFFFFFFFFFFFF AND PUSH2 0xBE1 PUSH2 0xB4A JUMP JUMPDEST PUSH20 0xFFFFFFFFFFFFFFFFFFFFFFFFFFFFFFFFFFFFFFFF AND EQ PUSH2 0xC37 JUMPI PUSH1 0x40 MLOAD PUSH32 0x8C379A000000000000000000000000000000000000000000000000000000000 DUP2 MSTORE PUSH1 0x4 ADD PUSH2 0xC2E SWAP1 PUSH2 0x1486 JUMP JUMPDEST PUSH1 0x40 MLOAD DUP1 SWAP2 SUB SWAP1 REVERT JUMPDEST PUSH1 0x0 PUSH1 0x2 PUSH1 0x0 SWAP1 SLOAD SWAP1 PUSH2 0x100 EXP SWAP1 DIV PUSH20 0xFFFFFFFFFFFFFFFFFFFFFFFFFFFFFFFFFFFFFFFF AND PUSH20 0xFFFFFFFFFFFFFFFFFFFFFFFFFFFFFFFFFFFFFFFF AND PUSH4 0xDD62ED3E CALLER ADDRESS PUSH1 0x40 MLOAD DUP4 PUSH4 0xFFFFFFFF AND PUSH1 0xE0 SHL DUP2 MSTORE PUSH1 0x4 ADD PUSH2 0xC96 SWAP3 SWAP2 SWAP1 PUSH2 0x196F JUMP JUMPDEST PUSH1 0x20 PUSH1 0x40 MLOAD DUP1 DUP4 SUB DUP2 DUP7 GAS STATICCALL ISZERO DUP1 ISZERO PUSH2 0xCB3 JUMPI RETURNDATASIZE PUSH1 0x0 DUP1 RETURNDATACOPY RETURNDATASIZE PUSH1 0x0 REVERT JUMPDEST POP POP POP POP PUSH1 0x40 MLOAD RETURNDATASIZE PUSH1 0x1F NOT PUSH1 0x1F DUP3 ADD AND DUP3 ADD DUP1 PUSH1 0x40 MSTORE POP DUP2 ADD SWAP1 PUSH2 0xCD7 SWAP2 SWAP1 PUSH2 0x14BB JUMP JUMPDEST SWAP1 POP PUSH1 0x0 DUP2 GT PUSH2 0xD1C JUMPI PUSH1 0x40 MLOAD PUSH32 0x8C379A000000000000000000000000000000000000000000000000000000000 DUP2 MSTORE PUSH1 0x4 ADD PUSH2 0xD13 SWAP1 PUSH2 0x19E4 JUMP JUMPDEST PUSH1 0x40 MLOAD DUP1 SWAP2 SUB SWAP1 REVERT JUMPDEST PUSH1 0x0 PUSH2 0xD26 PUSH2 0x5F1 JUMP JUMPDEST SWAP1 POP PUSH1 0x2 PUSH1 0x0 SWAP1 SLOAD SWAP1 PUSH2 0x100 EXP SWAP1 DIV PUSH20 0xFFFFFFFFFFFFFFFFFFFFFFFFFFFFFFFFFFFFFFFF AND PUSH20 0xFFFFFFFFFFFFFFFFFFFFFFFFFFFFFFFFFFFFFFFF AND PUSH4 0x23B872DD CALLER ADDRESS DUP6 PUSH1 0x40 MLOAD DUP5 PUSH4 0xFFFFFFFF AND PUSH1 0xE0 SHL DUP2 MSTORE PUSH1 0x4 ADD PUSH2 0xD87 SWAP4 SWAP3 SWAP2 SWAP1 PUSH2 0x1A04 JUMP JUMPDEST PUSH1 0x20 PUSH1 0x40 MLOAD DUP1 DUP4 SUB DUP2 PUSH1 0x0 DUP8 GAS CALL ISZERO DUP1 ISZERO PUSH2 0xDA6 JUMPI RETURNDATASIZE PUSH1 0x0 DUP1 RETURNDATACOPY RETURNDATASIZE PUSH1 0x0 REVERT JUMPDEST POP POP POP POP PUSH1 0x40 MLOAD RETURNDATASIZE PUSH1 0x1F NOT PUSH1 0x1F DUP3 ADD AND DUP3 ADD DUP1 PUSH1 0x40 MSTORE POP DUP2 ADD SWAP1 PUSH2 0xDCA SWAP2 SWAP1 PUSH2 0x160C JUMP JUMPDEST PUSH2 0xDD3 JUMPI PUSH1 0x0 DUP1 REVERT JUMPDEST CALLER PUSH20 0xFFFFFFFFFFFFFFFFFFFFFFFFFFFFFFFFFFFFFFFF AND PUSH32 0x26B27E83D0B82C44EB17D6F11776A8C600332D2ED7D9FEBFE585848BCFADF52D DUP4 DUP4 PUSH2 0xE15 PUSH2 0x5F1 JUMP JUMPDEST PUSH1 0x40 MLOAD PUSH2 0xE24 SWAP4 SWAP3 SWAP2 SWAP1 PUSH2 0x1A3B JUMP JUMPDEST PUSH1 0x40 MLOAD DUP1 SWAP2 SUB SWAP1 LOG2 PUSH1 0x1 SWAP3 POP POP POP SWAP1 JUMP JUMPDEST PUSH2 0xE3D PUSH2 0xF2C JUMP JUMPDEST PUSH20 0xFFFFFFFFFFFFFFFFFFFFFFFFFFFFFFFFFFFFFFFF AND PUSH2 0xE5B PUSH2 0xB4A JUMP JUMPDEST PUSH20 0xFFFFFFFFFFFFFFFFFFFFFFFFFFFFFFFFFFFFFFFF AND EQ PUSH2 0xEB1 JUMPI PUSH1 0x40 MLOAD PUSH32 0x8C379A000000000000000000000000000000000000000000000000000000000 DUP2 MSTORE PUSH1 0x4 ADD PUSH2 0xEA8 SWAP1 PUSH2 0x1486 JUMP JUMPDEST PUSH1 0x40 MLOAD DUP1 SWAP2 SUB SWAP1 REVERT JUMPDEST PUSH1 0x0 PUSH20 0xFFFFFFFFFFFFFFFFFFFFFFFFFFFFFFFFFFFFFFFF AND DUP2 PUSH20 0xFFFFFFFFFFFFFFFFFFFFFFFFFFFFFFFFFFFFFFFF AND SUB PUSH2 0xF20 JUMPI PUSH1 0x40 MLOAD PUSH32 0x8C379A000000000000000000000000000000000000000000000000000000000 DUP2 MSTORE PUSH1 0x4 ADD PUSH2 0xF17 SWAP1 PUSH2 0x1AE4 JUMP JUMPDEST PUSH1 0x40 MLOAD DUP1 SWAP2 SUB SWAP1 REVERT JUMPDEST PUSH2 0xF29 DUP2 PUSH2 0xF77 JUMP JUMPDEST POP JUMP JUMPDEST PUSH1 0x0 CALLER SWAP1 POP SWAP1 JUMP JUMPDEST PUSH1 0x0 DUP2 DUP4 PUSH2 0xF42 SWAP2 SWAP1 PUSH2 0x1517 JUMP JUMPDEST SWAP1 POP SWAP3 SWAP2 POP POP JUMP JUMPDEST PUSH1 0x0 DUP3 PUSH2 0xF57 DUP6 DUP5 PUSH2 0x103B JUMP JUMPDEST EQ SWAP1 POP SWAP4 SWAP3 POP POP POP JUMP JUMPDEST PUSH1 0x0 DUP2 DUP4 PUSH2 0xF6F SWAP2 SWAP1 PUSH2 0x1919 JUMP JUMPDEST SWAP1 POP SWAP3 SWAP2 POP POP JUMP JUMPDEST PUSH1 0x0 DUP1 PUSH1 0x0 SWAP1 SLOAD SWAP1 PUSH2 0x100 EXP SWAP1 DIV PUSH20 0xFFFFFFFFFFFFFFFFFFFFFFFFFFFFFFFFFFFFFFFF AND SWAP1 POP DUP2 PUSH1 0x0 DUP1 PUSH2 0x100 EXP DUP2 SLOAD DUP2 PUSH20 0xFFFFFFFFFFFFFFFFFFFFFFFFFFFFFFFFFFFFFFFF MUL NOT AND SWAP1 DUP4 PUSH20 0xFFFFFFFFFFFFFFFFFFFFFFFFFFFFFFFFFFFFFFFF AND MUL OR SWAP1 SSTORE POP DUP2 PUSH20 0xFFFFFFFFFFFFFFFFFFFFFFFFFFFFFFFFFFFFFFFF AND DUP2 PUSH20 0xFFFFFFFFFFFFFFFFFFFFFFFFFFFFFFFFFFFFFFFF AND PUSH32 0x8BE0079C531659141344CD1FD0A4F28419497F9722A3DAAFE3B4186F6B6457E0 PUSH1 0x40 MLOAD PUSH1 0x40 MLOAD DUP1 SWAP2 SUB SWAP1 LOG3 POP POP JUMP JUMPDEST PUSH1 0x0 DUP1 DUP3 SWAP1 POP PUSH1 0x0 JUMPDEST DUP5 MLOAD DUP2 LT ISZERO PUSH2 0x10A5 JUMPI PUSH1 0x0 DUP6 DUP3 DUP2 MLOAD DUP2 LT PUSH2 0x1062 JUMPI PUSH2 0x1061 PUSH2 0x1B04 JUMP JUMPDEST JUMPDEST PUSH1 0x20 MUL PUSH1 0x20 ADD ADD MLOAD SWAP1 POP DUP1 DUP4 GT PUSH2 0x1084 JUMPI PUSH2 0x107D DUP4 DUP3 PUSH2 0x10B0 JUMP JUMPDEST SWAP3 POP PUSH2 0x1091 JUMP JUMPDEST PUSH2 0x108E DUP2 DUP5 PUSH2 0x10B0 JUMP JUMPDEST SWAP3 POP JUMPDEST POP DUP1 DUP1 PUSH2 0x109D SWAP1 PUSH2 0x1B33 JUMP JUMPDEST SWAP2 POP POP PUSH2 0x1044 JUMP JUMPDEST POP DUP1 SWAP2 POP POP SWAP3 SWAP2 POP POP JUMP JUMPDEST PUSH1 0x0 DUP3 PUSH1 0x0 MSTORE DUP2 PUSH1 0x20 MSTORE PUSH1 0x40 PUSH1 0x0 KECCAK256 SWAP1 POP SWAP3 SWAP2 POP POP JUMP JUMPDEST PUSH1 0x0 DUP2 SWAP1 POP SWAP2 SWAP1 POP JUMP JUMPDEST PUSH2 0x10DA DUP2 PUSH2 0x10C7 JUMP JUMPDEST DUP3 MSTORE POP POP JUMP JUMPDEST PUSH1 0x0 PUSH1 0x20 DUP3 ADD SWAP1 POP PUSH2 0x10F5 PUSH1 0x0 DUP4 ADD DUP5 PUSH2 0x10D1 JUMP JUMPDEST SWAP3 SWAP2 POP POP JUMP JUMPDEST PUSH1 0x0 DUP1 REVERT JUMPDEST PUSH1 0x0 DUP1 REVERT JUMPDEST PUSH2 0x110E DUP2 PUSH2 0x10C7 JUMP JUMPDEST DUP2 EQ PUSH2 0x1119 JUMPI PUSH1 0x0 DUP1 REVERT JUMPDEST POP JUMP JUMPDEST PUSH1 0x0 DUP2 CALLDATALOAD SWAP1 POP PUSH2 0x112B DUP2 PUSH2 0x1105 JUMP JUMPDEST SWAP3 SWAP2 POP POP JUMP JUMPDEST PUSH1 0x0 PUSH1 0x20 DUP3 DUP5 SUB SLT ISZERO PUSH2 0x1147 JUMPI PUSH2 0x1146 PUSH2 0x10FB JUMP JUMPDEST JUMPDEST PUSH1 0x0 PUSH2 0x1155 DUP5 DUP3 DUP6 ADD PUSH2 0x111C JUMP JUMPDEST SWAP2 POP POP SWAP3 SWAP2 POP POP JUMP JUMPDEST PUSH1 0x0 DUP2 SWAP1 POP SWAP2 SWAP1 POP JUMP JUMPDEST PUSH2 0x1171 DUP2 PUSH2 0x115E JUMP JUMPDEST DUP3 MSTORE POP POP JUMP JUMPDEST PUSH1 0x0 PUSH1 0x20 DUP3 ADD SWAP1 POP PUSH2 0x118C PUSH1 0x0 DUP4 ADD DUP5 PUSH2 0x1168 JUMP JUMPDEST SWAP3 SWAP2 POP POP JUMP JUMPDEST PUSH1 0x0 DUP2 ISZERO ISZERO SWAP1 POP SWAP2 SWAP1 POP JUMP JUMPDEST PUSH2 0x11A7 DUP2 PUSH2 0x1192 JUMP JUMPDEST DUP3 MSTORE POP POP JUMP JUMPDEST PUSH1 0x0 PUSH1 0x20 DUP3 ADD SWAP1 POP PUSH2 0x11C2 PUSH1 0x0 DUP4 ADD DUP5 PUSH2 0x119E JUMP JUMPDEST SWAP3 SWAP2 POP POP JUMP JUMPDEST PUSH1 0x0 DUP1 REVERT JUMPDEST PUSH1 0x0 DUP1 REVERT JUMPDEST PUSH1 0x0 DUP1 REVERT JUMPDEST PUSH1 0x0 DUP1 DUP4 PUSH1 0x1F DUP5 ADD SLT PUSH2 0x11ED JUMPI PUSH2 0x11EC PUSH2 0x11C8 JUMP JUMPDEST JUMPDEST DUP3 CALLDATALOAD SWAP1 POP PUSH8 0xFFFFFFFFFFFFFFFF DUP2 GT ISZERO PUSH2 0x120A JUMPI PUSH2 0x1209 PUSH2 0x11CD JUMP JUMPDEST JUMPDEST PUSH1 0x20 DUP4 ADD SWAP2 POP DUP4 PUSH1 0x20 DUP3 MUL DUP4 ADD GT ISZERO PUSH2 0x1226 JUMPI PUSH2 0x1225 PUSH2 0x11D2 JUMP JUMPDEST JUMPDEST SWAP3 POP SWAP3 SWAP1 POP JUMP JUMPDEST PUSH1 0x0 DUP1 PUSH1 0x0 DUP1 PUSH1 0x60 DUP6 DUP8 SUB SLT ISZERO PUSH2 0x1247 JUMPI PUSH2 0x1246 PUSH2 0x10FB JUMP JUMPDEST JUMPDEST PUSH1 0x0 PUSH2 0x1255 DUP8 DUP3 DUP9 ADD PUSH2 0x111C JUMP JUMPDEST SWAP5 POP POP PUSH1 0x20 DUP6 ADD CALLDATALOAD PUSH8 0xFFFFFFFFFFFFFFFF DUP2 GT ISZERO PUSH2 0x1276 JUMPI PUSH2 0x1275 PUSH2 0x1100 JUMP JUMPDEST JUMPDEST PUSH2 0x1282 DUP8 DUP3 DUP9 ADD PUSH2 0x11D7 JUMP JUMPDEST SWAP4 POP SWAP4 POP POP PUSH1 0x40 PUSH2 0x1295 DUP8 DUP3 DUP9 ADD PUSH2 0x111C JUMP JUMPDEST SWAP2 POP POP SWAP3 SWAP6 SWAP2 SWAP5 POP SWAP3 POP JUMP JUMPDEST PUSH2 0x12AA DUP2 PUSH2 0x115E JUMP JUMPDEST DUP2 EQ PUSH2 0x12B5 JUMPI PUSH1 0x0 DUP1 REVERT JUMPDEST POP JUMP JUMPDEST PUSH1 0x0 DUP2 CALLDATALOAD SWAP1 POP PUSH2 0x12C7 DUP2 PUSH2 0x12A1 JUMP JUMPDEST SWAP3 SWAP2 POP POP JUMP JUMPDEST PUSH1 0x0 PUSH1 0x20 DUP3 DUP5 SUB SLT ISZERO PUSH2 0x12E3 JUMPI PUSH2 0x12E2 PUSH2 0x10FB JUMP JUMPDEST JUMPDEST PUSH1 0x0 PUSH2 0x12F1 DUP5 DUP3 DUP6 ADD PUSH2 0x12B8 JUMP JUMPDEST SWAP2 POP POP SWAP3 SWAP2 POP POP JUMP JUMPDEST PUSH1 0x0 PUSH20 0xFFFFFFFFFFFFFFFFFFFFFFFFFFFFFFFFFFFFFFFF DUP3 AND SWAP1 POP SWAP2 SWAP1 POP JUMP JUMPDEST PUSH1 0x0 PUSH2 0x1325 DUP3 PUSH2 0x12FA JUMP JUMPDEST SWAP1 POP SWAP2 SWAP1 POP JUMP JUMPDEST PUSH2 0x1335 DUP2 PUSH2 0x131A JUMP JUMPDEST DUP3 MSTORE POP POP JUMP JUMPDEST PUSH1 0x0 PUSH1 0x20 DUP3 ADD SWAP1 POP PUSH2 0x1350 PUSH1 0x0 DUP4 ADD DUP5 PUSH2 0x132C JUMP JUMPDEST SWAP3 SWAP2 POP POP JUMP JUMPDEST PUSH1 0x0 DUP2 SWAP1 POP SWAP2 SWAP1 POP JUMP JUMPDEST PUSH1 0x0 PUSH2 0x137B PUSH2 0x1376 PUSH2 0x1371 DUP5 PUSH2 0x12FA JUMP JUMPDEST PUSH2 0x1356 JUMP JUMPDEST PUSH2 0x12FA JUMP JUMPDEST SWAP1 POP SWAP2 SWAP1 POP JUMP JUMPDEST PUSH1 0x0 PUSH2 0x138D DUP3 PUSH2 0x1360 JUMP JUMPDEST SWAP1 POP SWAP2 SWAP1 POP JUMP JUMPDEST PUSH1 0x0 PUSH2 0x139F DUP3 PUSH2 0x1382 JUMP JUMPDEST SWAP1 POP SWAP2 SWAP1 POP JUMP JUMPDEST PUSH2 0x13AF DUP2 PUSH2 0x1394 JUMP JUMPDEST DUP3 MSTORE POP POP JUMP JUMPDEST PUSH1 0x0 PUSH1 0x20 DUP3 ADD SWAP1 POP PUSH2 0x13CA PUSH1 0x0 DUP4 ADD DUP5 PUSH2 0x13A6 JUMP JUMPDEST SWAP3 SWAP2 POP POP JUMP JUMPDEST PUSH2 0x13D9 DUP2 PUSH2 0x131A JUMP JUMPDEST DUP2 EQ PUSH2 0x13E4 JUMPI PUSH1 0x0 DUP1 REVERT JUMPDEST POP JUMP JUMPDEST PUSH1 0x0 DUP2 CALLDATALOAD SWAP1 POP PUSH2 0x13F6 DUP2 PUSH2 0x13D0 JUMP JUMPDEST SWAP3 SWAP2 POP POP JUMP JUMPDEST PUSH1 0x0 PUSH1 0x20 DUP3 DUP5 SUB SLT ISZERO PUSH2 0x1412 JUMPI PUSH2 0x1411 PUSH2 0x10FB JUMP JUMPDEST JUMPDEST PUSH1 0x0 PUSH2 0x1420 DUP5 DUP3 DUP6 ADD PUSH2 0x13E7 JUMP JUMPDEST SWAP2 POP POP SWAP3 SWAP2 POP POP JUMP JUMPDEST PUSH1 0x0 DUP3 DUP3 MSTORE PUSH1 0x20 DUP3 ADD SWAP1 POP SWAP3 SWAP2 POP POP JUMP JUMPDEST PUSH32 0x4F776E61626C653A2063616C6C6572206973206E6F7420746865206F776E6572 PUSH1 0x0 DUP3 ADD MSTORE POP JUMP JUMPDEST PUSH1 0x0 PUSH2 0x1470 PUSH1 0x20 DUP4 PUSH2 0x1429 JUMP JUMPDEST SWAP2 POP PUSH2 0x147B DUP3 PUSH2 0x143A JUMP JUMPDEST PUSH1 0x20 DUP3 ADD SWAP1 POP SWAP2 SWAP1 POP JUMP JUMPDEST PUSH1 0x0 PUSH1 0x20 DUP3 ADD SWAP1 POP DUP2 DUP2 SUB PUSH1 0x0 DUP4 ADD MSTORE PUSH2 0x149F DUP2 PUSH2 0x1463 JUMP JUMPDEST SWAP1 POP SWAP2 SWAP1 POP JUMP JUMPDEST PUSH1 0x0 DUP2 MLOAD SWAP1 POP PUSH2 0x14B5 DUP2 PUSH2 0x1105 JUMP JUMPDEST SWAP3 SWAP2 POP POP JUMP JUMPDEST PUSH1 0x0 PUSH1 0x20 DUP3 DUP5 SUB SLT ISZERO PUSH2 0x14D1 JUMPI PUSH2 0x14D0 PUSH2 0x10FB JUMP JUMPDEST JUMPDEST PUSH1 0x0 PUSH2 0x14DF DUP5 DUP3 DUP6 ADD PUSH2 0x14A6 JUMP JUMPDEST SWAP2 POP POP SWAP3 SWAP2 POP POP JUMP JUMPDEST PUSH32 0x4E487B7100000000000000000000000000000000000000000000000000000000 PUSH1 0x0 MSTORE PUSH1 0x11 PUSH1 0x4 MSTORE PUSH1 0x24 PUSH1 0x0 REVERT JUMPDEST PUSH1 0x0 PUSH2 0x1522 DUP3 PUSH2 0x10C7 JUMP JUMPDEST SWAP2 POP PUSH2 0x152D DUP4 PUSH2 0x10C7 JUMP JUMPDEST SWAP3 POP DUP3 DUP3 LT ISZERO PUSH2 0x1540 JUMPI PUSH2 0x153F PUSH2 0x14E8 JUMP JUMPDEST JUMPDEST DUP3 DUP3 SUB SWAP1 POP SWAP3 SWAP2 POP POP JUMP JUMPDEST PUSH32 0x616D6F756E7420697320677261746572207468616E2062616C616E6163650000 PUSH1 0x0 DUP3 ADD MSTORE POP JUMP JUMPDEST PUSH1 0x0 PUSH2 0x1581 PUSH1 0x1E DUP4 PUSH2 0x1429 JUMP JUMPDEST SWAP2 POP PUSH2 0x158C DUP3 PUSH2 0x154B JUMP JUMPDEST PUSH1 0x20 DUP3 ADD SWAP1 POP SWAP2 SWAP1 POP JUMP JUMPDEST PUSH1 0x0 PUSH1 0x20 DUP3 ADD SWAP1 POP DUP2 DUP2 SUB PUSH1 0x0 DUP4 ADD MSTORE PUSH2 0x15B0 DUP2 PUSH2 0x1574 JUMP JUMPDEST SWAP1 POP SWAP2 SWAP1 POP JUMP JUMPDEST PUSH1 0x0 PUSH1 0x40 DUP3 ADD SWAP1 POP PUSH2 0x15CC PUSH1 0x0 DUP4 ADD DUP6 PUSH2 0x132C JUMP JUMPDEST PUSH2 0x15D9 PUSH1 0x20 DUP4 ADD DUP5 PUSH2 0x10D1 JUMP JUMPDEST SWAP4 SWAP3 POP POP POP JUMP JUMPDEST PUSH2 0x15E9 DUP2 PUSH2 0x1192 JUMP JUMPDEST DUP2 EQ PUSH2 0x15F4 JUMPI PUSH1 0x0 DUP1 REVERT JUMPDEST POP JUMP JUMPDEST PUSH1 0x0 DUP2 MLOAD SWAP1 POP PUSH2 0x1606 DUP2 PUSH2 0x15E0 JUMP JUMPDEST SWAP3 SWAP2 POP POP JUMP JUMPDEST PUSH1 0x0 PUSH1 0x20 DUP3 DUP5 SUB SLT ISZERO PUSH2 0x1622 JUMPI PUSH2 0x1621 PUSH2 0x10FB JUMP JUMPDEST JUMPDEST PUSH1 0x0 PUSH2 0x1630 DUP5 DUP3 DUP6 ADD PUSH2 0x15F7 JUMP JUMPDEST SWAP2 POP POP SWAP3 SWAP2 POP POP JUMP JUMPDEST PUSH1 0x0 PUSH1 0x40 DUP3 ADD SWAP1 POP PUSH2 0x164E PUSH1 0x0 DUP4 ADD DUP6 PUSH2 0x10D1 JUMP JUMPDEST PUSH2 0x165B PUSH1 0x20 DUP4 ADD DUP5 PUSH2 0x10D1 JUMP JUMPDEST SWAP4 SWAP3 POP POP POP JUMP JUMPDEST PUSH32 0x5061757361626C653A2070617573656400000000000000000000000000000000 PUSH1 0x0 DUP3 ADD MSTORE POP JUMP JUMPDEST PUSH1 0x0 PUSH2 0x1698 PUSH1 0x10 DUP4 PUSH2 0x1429 JUMP JUMPDEST SWAP2 POP PUSH2 0x16A3 DUP3 PUSH2 0x1662 JUMP JUMPDEST PUSH1 0x20 DUP3 ADD SWAP1 POP SWAP2 SWAP1 POP JUMP JUMPDEST PUSH1 0x0 PUSH1 0x20 DUP3 ADD SWAP1 POP DUP2 DUP2 SUB PUSH1 0x0 DUP4 ADD MSTORE PUSH2 0x16C7 DUP2 PUSH2 0x168B JUMP JUMPDEST SWAP1 POP SWAP2 SWAP1 POP JUMP JUMPDEST PUSH32 0x56657374696E673A2056657374696E6720686173206265656E20636C61696D65 PUSH1 0x0 DUP3 ADD MSTORE PUSH32 0x6421000000000000000000000000000000000000000000000000000000000000 PUSH1 0x20 DUP3 ADD MSTORE POP JUMP JUMPDEST PUSH1 0x0 PUSH2 0x172A PUSH1 0x22 DUP4 PUSH2 0x1429 JUMP JUMPDEST SWAP2 POP PUSH2 0x1735 DUP3 PUSH2 0x16CE JUMP JUMPDEST PUSH1 0x40 DUP3 ADD SWAP1 POP SWAP2 SWAP1 POP JUMP JUMPDEST PUSH1 0x0 PUSH1 0x20 DUP3 ADD SWAP1 POP DUP2 DUP2 SUB PUSH1 0x0 DUP4 ADD MSTORE PUSH2 0x1759 DUP2 PUSH2 0x171D JUMP JUMPDEST SWAP1 POP SWAP2 SWAP1 POP JUMP JUMPDEST PUSH1 0x0 DUP2 PUSH1 0x60 SHL SWAP1 POP SWAP2 SWAP1 POP JUMP JUMPDEST PUSH1 0x0 PUSH2 0x1778 DUP3 PUSH2 0x1760 JUMP JUMPDEST SWAP1 POP SWAP2 SWAP1 POP JUMP JUMPDEST PUSH1 0x0 PUSH2 0x178A DUP3 PUSH2 0x176D JUMP JUMPDEST SWAP1 POP SWAP2 SWAP1 POP JUMP JUMPDEST PUSH2 0x17A2 PUSH2 0x179D DUP3 PUSH2 0x131A JUMP JUMPDEST PUSH2 0x177F JUMP JUMPDEST DUP3 MSTORE POP POP JUMP JUMPDEST PUSH1 0x0 DUP2 SWAP1 POP SWAP2 SWAP1 POP JUMP JUMPDEST PUSH2 0x17C3 PUSH2 0x17BE DUP3 PUSH2 0x10C7 JUMP JUMPDEST PUSH2 0x17A8 JUMP JUMPDEST DUP3 MSTORE POP POP JUMP JUMPDEST PUSH1 0x0 PUSH2 0x17D5 DUP3 DUP6 PUSH2 0x1791 JUMP JUMPDEST PUSH1 0x14 DUP3 ADD SWAP2 POP PUSH2 0x17E5 DUP3 DUP5 PUSH2 0x17B2 JUMP JUMPDEST PUSH1 0x20 DUP3 ADD SWAP2 POP DUP2 SWAP1 POP SWAP4 SWAP3 POP POP POP JUMP JUMPDEST PUSH32 0x56657374696E673A204164647265737320686173206E6F2056657374696E6720 PUSH1 0x0 DUP3 ADD MSTORE PUSH32 0x616C6C6F636174696F6E21000000000000000000000000000000000000000000 PUSH1 0x20 DUP3 ADD MSTORE POP JUMP JUMPDEST PUSH1 0x0 PUSH2 0x1851 PUSH1 0x2B DUP4 PUSH2 0x1429 JUMP JUMPDEST SWAP2 POP PUSH2 0x185C DUP3 PUSH2 0x17F5 JUMP JUMPDEST PUSH1 0x40 DUP3 ADD SWAP1 POP SWAP2 SWAP1 POP JUMP JUMPDEST PUSH1 0x0 PUSH1 0x20 DUP3 ADD SWAP1 POP DUP2 DUP2 SUB PUSH1 0x0 DUP4 ADD MSTORE PUSH2 0x1880 DUP2 PUSH2 0x1844 JUMP JUMPDEST SWAP1 POP SWAP2 SWAP1 POP JUMP JUMPDEST PUSH32 0x56657374696E673A20496E76616C6964206E6577206D65726B6C6520726F6F74 PUSH1 0x0 DUP3 ADD MSTORE PUSH32 0x2076616C75652100000000000000000000000000000000000000000000000000 PUSH1 0x20 DUP3 ADD MSTORE POP JUMP JUMPDEST PUSH1 0x0 PUSH2 0x18E3 PUSH1 0x27 DUP4 PUSH2 0x1429 JUMP JUMPDEST SWAP2 POP PUSH2 0x18EE DUP3 PUSH2 0x1887 JUMP JUMPDEST PUSH1 0x40 DUP3 ADD SWAP1 POP SWAP2 SWAP1 POP JUMP JUMPDEST PUSH1 0x0 PUSH1 0x20 DUP3 ADD SWAP1 POP DUP2 DUP2 SUB PUSH1 0x0 DUP4 ADD MSTORE PUSH2 0x1912 DUP2 PUSH2 0x18D6 JUMP JUMPDEST SWAP1 POP SWAP2 SWAP1 POP JUMP JUMPDEST PUSH1 0x0 PUSH2 0x1924 DUP3 PUSH2 0x10C7 JUMP JUMPDEST SWAP2 POP PUSH2 0x192F DUP4 PUSH2 0x10C7 JUMP JUMPDEST SWAP3 POP DUP3 PUSH32 0xFFFFFFFFFFFFFFFFFFFFFFFFFFFFFFFFFFFFFFFFFFFFFFFFFFFFFFFFFFFFFFFF SUB DUP3 GT ISZERO PUSH2 0x1964 JUMPI PUSH2 0x1963 PUSH2 0x14E8 JUMP JUMPDEST JUMPDEST DUP3 DUP3 ADD SWAP1 POP SWAP3 SWAP2 POP POP JUMP JUMPDEST PUSH1 0x0 PUSH1 0x40 DUP3 ADD SWAP1 POP PUSH2 0x1984 PUSH1 0x0 DUP4 ADD DUP6 PUSH2 0x132C JUMP JUMPDEST PUSH2 0x1991 PUSH1 0x20 DUP4 ADD DUP5 PUSH2 0x132C JUMP JUMPDEST SWAP4 SWAP3 POP POP POP JUMP JUMPDEST PUSH32 0x4E6F7468696E6720746F2066756E642E00000000000000000000000000000000 PUSH1 0x0 DUP3 ADD MSTORE POP JUMP JUMPDEST PUSH1 0x0 PUSH2 0x19CE PUSH1 0x10 DUP4 PUSH2 0x1429 JUMP JUMPDEST SWAP2 POP PUSH2 0x19D9 DUP3 PUSH2 0x1998 JUMP JUMPDEST PUSH1 0x20 DUP3 ADD SWAP1 POP SWAP2 SWAP1 POP JUMP JUMPDEST PUSH1 0x0 PUSH1 0x20 DUP3 ADD SWAP1 POP DUP2 DUP2 SUB PUSH1 0x0 DUP4 ADD MSTORE PUSH2 0x19FD DUP2 PUSH2 0x19C1 JUMP JUMPDEST SWAP1 POP SWAP2 SWAP1 POP JUMP JUMPDEST PUSH1 0x0 PUSH1 0x60 DUP3 ADD SWAP1 POP PUSH2 0x1A19 PUSH1 0x0 DUP4 ADD DUP7 PUSH2 0x132C JUMP JUMPDEST PUSH2 0x1A26 PUSH1 0x20 DUP4 ADD DUP6 PUSH2 0x132C JUMP JUMPDEST PUSH2 0x1A33 PUSH1 0x40 DUP4 ADD DUP5 PUSH2 0x10D1 JUMP JUMPDEST SWAP5 SWAP4 POP POP POP POP JUMP JUMPDEST PUSH1 0x0 PUSH1 0x60 DUP3 ADD SWAP1 POP PUSH2 0x1A50 PUSH1 0x0 DUP4 ADD DUP7 PUSH2 0x10D1 JUMP JUMPDEST PUSH2 0x1A5D PUSH1 0x20 DUP4 ADD DUP6 PUSH2 0x10D1 JUMP JUMPDEST PUSH2 0x1A6A PUSH1 0x40 DUP4 ADD DUP5 PUSH2 0x10D1 JUMP JUMPDEST SWAP5 SWAP4 POP POP POP POP JUMP JUMPDEST PUSH32 0x4F776E61626C653A206E6577206F776E657220697320746865207A65726F2061 PUSH1 0x0 DUP3 ADD MSTORE PUSH32 0x6464726573730000000000000000000000000000000000000000000000000000 PUSH1 0x20 DUP3 ADD MSTORE POP JUMP JUMPDEST PUSH1 0x0 PUSH2 0x1ACE PUSH1 0x26 DUP4 PUSH2 0x1429 JUMP JUMPDEST SWAP2 POP PUSH2 0x1AD9 DUP3 PUSH2 0x1A72 JUMP JUMPDEST PUSH1 0x40 DUP3 ADD SWAP1 POP SWAP2 SWAP1 POP JUMP JUMPDEST PUSH1 0x0 PUSH1 0x20 DUP3 ADD SWAP1 POP DUP2 DUP2 SUB PUSH1 0x0 DUP4 ADD MSTORE PUSH2 0x1AFD DUP2 PUSH2 0x1AC1 JUMP JUMPDEST SWAP1 POP SWAP2 SWAP1 POP JUMP JUMPDEST PUSH32 0x4E487B7100000000000000000000000000000000000000000000000000000000 PUSH1 0x0 MSTORE PUSH1 0x32 PUSH1 0x4 MSTORE PUSH1 0x24 PUSH1 0x0 REVERT JUMPDEST PUSH1 0x0 PUSH2 0x1B3E DUP3 PUSH2 0x10C7 JUMP JUMPDEST SWAP2 POP PUSH32 0xFFFFFFFFFFFFFFFFFFFFFFFFFFFFFFFFFFFFFFFFFFFFFFFFFFFFFFFFFFFFFFFF DUP3 SUB PUSH2 0x1B70 JUMPI PUSH2 0x1B6F PUSH2 0x14E8 JUMP JUMPDEST JUMPDEST PUSH1 0x1 DUP3 ADD SWAP1 POP SWAP2 SWAP1 POP JUMP INVALID LOG2 PUSH5 0x6970667358 0x22 SLT KECCAK256 0x1E SIGNEXTEND 0xBA DUP1 0xB6 0xDB 0x26 SWAP10 XOR MULMOD 0xFB JUMP DUP7 0x4C SWAP14 0xC0 0xB3 CALL 0xE1 JUMPI 0xE CALL SDIV DUP13 GAS SWAP14 0x25 MSTORE LOG0 0xEE LOG4 0xF9 PUSH5 0x736F6C6343 STOP ADDMOD 0xD STOP CALLER "
		},
		"gasEstimates": {
			"creation": {
				"codeDepositCost": "1417800",
				"executionCost": "infinite",
				"totalCost": "infinite"
			},
			"external": {
				"Rounds()": "2453",
				"fund()": "infinite",
				"getAvailableFunds()": "infinite",
				"getMerkleRoot(uint256)": "5066",
				"owner()": "2589",
				"paused()": "2596",
				"removeFunds(uint256)": "infinite",
				"renounceOwnership()": "30397",
				"setMerkleRoot(bytes32)": "infinite",
				"totalWithdrawn()": "2452",
				"transferOwnership(address)": "30808",
				"vestingClaimed(address)": "2889",
				"vestingCoin()": "infinite",
				"withdraw(uint256,bytes32[],uint256)": "infinite"
			}
		},
		"methodIdentifiers": {
			"Rounds()": "02438b2d",
			"fund()": "b60d4288",
			"getAvailableFunds()": "5195bd29",
			"getMerkleRoot(uint256)": "0aab8ba5",
			"owner()": "8da5cb5b",
			"paused()": "5c975abb",
			"removeFunds(uint256)": "2f384523",
			"renounceOwnership()": "715018a6",
			"setMerkleRoot(bytes32)": "7cb64759",
			"totalWithdrawn()": "4b319713",
			"transferOwnership(address)": "f2fde38b",
			"vestingClaimed(address)": "aa880dc4",
			"vestingCoin()": "a065b0bd",
			"withdraw(uint256,bytes32[],uint256)": "6092dfcb"
		}
	},
	"abi": [
		{
			"inputs": [
				{
					"internalType": "contract ERC20",
					"name": "_vestingCoin",
					"type": "address"
				}
			],
			"stateMutability": "nonpayable",
			"type": "constructor"
		},
		{
			"anonymous": false,
			"inputs": [
				{
					"indexed": true,
					"internalType": "address",
					"name": "_address",
					"type": "address"
				},
				{
					"indexed": false,
					"internalType": "uint256",
					"name": "_amount",
					"type": "uint256"
				},
				{
					"indexed": false,
					"internalType": "uint256",
					"name": "_remainingInPool",
					"type": "uint256"
				}
			],
			"name": "FundRemoved",
			"type": "event"
		},
		{
			"anonymous": false,
			"inputs": [
				{
					"indexed": true,
					"internalType": "address",
					"name": "_funder",
					"type": "address"
				},
				{
					"indexed": false,
					"internalType": "uint256",
					"name": "_amount",
					"type": "uint256"
				},
				{
					"indexed": false,
					"internalType": "uint256",
					"name": "_previousCap",
					"type": "uint256"
				},
				{
					"indexed": false,
					"internalType": "uint256",
					"name": "_newCap",
					"type": "uint256"
				}
			],
			"name": "Funded",
			"type": "event"
		},
		{
			"anonymous": false,
			"inputs": [
				{
					"indexed": true,
					"internalType": "address",
					"name": "previousOwner",
					"type": "address"
				},
				{
					"indexed": true,
					"internalType": "address",
					"name": "newOwner",
					"type": "address"
				}
			],
			"name": "OwnershipTransferred",
			"type": "event"
		},
		{
			"anonymous": false,
			"inputs": [
				{
					"indexed": false,
					"internalType": "address",
					"name": "account",
					"type": "address"
				}
			],
			"name": "Paused",
			"type": "event"
		},
		{
			"anonymous": false,
			"inputs": [
				{
					"indexed": false,
					"internalType": "address",
					"name": "account",
					"type": "address"
				}
			],
			"name": "Unpaused",
			"type": "event"
		},
		{
			"anonymous": false,
			"inputs": [
				{
					"indexed": true,
					"internalType": "address",
					"name": "_address",
					"type": "address"
				},
				{
					"indexed": false,
					"internalType": "uint256",
					"name": "_amount",
					"type": "uint256"
				}
			],
			"name": "Withdrawn",
			"type": "event"
		},
		{
			"inputs": [],
			"name": "Rounds",
			"outputs": [
				{
					"internalType": "uint256",
					"name": "",
					"type": "uint256"
				}
			],
			"stateMutability": "view",
			"type": "function"
		},
		{
			"inputs": [],
			"name": "fund",
			"outputs": [
				{
					"internalType": "bool",
					"name": "",
					"type": "bool"
				}
			],
			"stateMutability": "nonpayable",
			"type": "function"
		},
		{
			"inputs": [],
			"name": "getAvailableFunds",
			"outputs": [
				{
					"internalType": "uint256",
					"name": "",
					"type": "uint256"
				}
			],
			"stateMutability": "view",
			"type": "function"
		},
		{
			"inputs": [
				{
					"internalType": "uint256",
					"name": "_round",
					"type": "uint256"
				}
			],
			"name": "getMerkleRoot",
			"outputs": [
				{
					"internalType": "bytes32",
					"name": "",
					"type": "bytes32"
				}
			],
			"stateMutability": "view",
			"type": "function"
		},
		{
			"inputs": [],
			"name": "owner",
			"outputs": [
				{
					"internalType": "address",
					"name": "",
					"type": "address"
				}
			],
			"stateMutability": "view",
			"type": "function"
		},
		{
			"inputs": [],
			"name": "paused",
			"outputs": [
				{
					"internalType": "bool",
					"name": "",
					"type": "bool"
				}
			],
			"stateMutability": "view",
			"type": "function"
		},
		{
			"inputs": [
				{
					"internalType": "uint256",
					"name": "_amount",
					"type": "uint256"
				}
			],
			"name": "removeFunds",
			"outputs": [
				{
					"internalType": "bool",
					"name": "",
					"type": "bool"
				}
			],
			"stateMutability": "nonpayable",
			"type": "function"
		},
		{
			"inputs": [],
			"name": "renounceOwnership",
			"outputs": [],
			"stateMutability": "nonpayable",
			"type": "function"
		},
		{
			"inputs": [
				{
					"internalType": "bytes32",
					"name": "_newMerkleRoot",
					"type": "bytes32"
				}
			],
			"name": "setMerkleRoot",
			"outputs": [],
			"stateMutability": "nonpayable",
			"type": "function"
		},
		{
			"inputs": [],
			"name": "totalWithdrawn",
			"outputs": [
				{
					"internalType": "uint256",
					"name": "",
					"type": "uint256"
				}
			],
			"stateMutability": "view",
			"type": "function"
		},
		{
			"inputs": [
				{
					"internalType": "address",
					"name": "newOwner",
					"type": "address"
				}
			],
			"name": "transferOwnership",
			"outputs": [],
			"stateMutability": "nonpayable",
			"type": "function"
		},
		{
			"inputs": [
				{
					"internalType": "address",
					"name": "",
					"type": "address"
				}
			],
			"name": "vestingClaimed",
			"outputs": [
				{
					"internalType": "bool",
					"name": "",
					"type": "bool"
				}
			],
			"stateMutability": "view",
			"type": "function"
		},
		{
			"inputs": [],
			"name": "vestingCoin",
			"outputs": [
				{
					"internalType": "contract ERC20",
					"name": "",
					"type": "address"
				}
			],
			"stateMutability": "view",
			"type": "function"
		},
		{
			"inputs": [
				{
					"internalType": "uint256",
					"name": "_amount",
					"type": "uint256"
				},
				{
					"internalType": "bytes32[]",
					"name": "_proof",
					"type": "bytes32[]"
				},
				{
					"internalType": "uint256",
					"name": "_round",
					"type": "uint256"
				}
			],
			"name": "withdraw",
			"outputs": [
				{
					"internalType": "bool",
					"name": "",
					"type": "bool"
				}
			],
			"stateMutability": "nonpayable",
			"type": "function"
		}
	]
}