{
  "_format": "hh-sol-artifact-1",
  "contractName": "Lockup",
  "sourceName": "contracts/vesting.sol",
  "abi": [
    {
      "inputs": [
        {
          "internalType": "uint256",
          "name": "_minPeriod",
          "type": "uint256"
        },
        {
          "internalType": "uint256",
          "name": "_withdrawalCap",
          "type": "uint256"
        },
        {
          "internalType": "contract ERC20",
          "name": "_vestingCoin",
          "type": "address"
        }
      ],
      "stateMutability": "nonpayable",
      "type": "constructor"
    },
    {
      "anonymous": false,
      "inputs": [
        {
          "indexed": true,
          "internalType": "address",
          "name": "_address",
          "type": "address"
        }
      ],
      "name": "AdminAdded",
      "type": "event"
    },
    {
      "anonymous": false,
      "inputs": [
        {
          "indexed": true,
          "internalType": "address",
          "name": "_address",
          "type": "address"
        }
      ],
      "name": "AdminRemoved",
      "type": "event"
    },
    {
      "anonymous": false,
      "inputs": [
        {
          "indexed": true,
          "internalType": "address",
          "name": "_address",
          "type": "address"
        },
        {
          "indexed": false,
          "internalType": "string",
          "name": "_memberName",
          "type": "string"
        },
        {
          "indexed": false,
          "internalType": "uint256",
          "name": "_amount",
          "type": "uint256"
        },
        {
          "indexed": false,
          "internalType": "uint256",
          "name": "_releaseOn",
          "type": "uint256"
        }
      ],
      "name": "AllocationCreated",
      "type": "event"
    },
    {
      "anonymous": false,
      "inputs": [
        {
          "indexed": true,
          "internalType": "address",
          "name": "_address",
          "type": "address"
        },
        {
          "indexed": false,
          "internalType": "string",
          "name": "_memberName",
          "type": "string"
        },
        {
          "indexed": false,
          "internalType": "uint256",
          "name": "_amount",
          "type": "uint256"
        },
        {
          "indexed": false,
          "internalType": "uint256",
          "name": "_lessAmount",
          "type": "uint256"
        }
      ],
      "name": "AllocationDecreased",
      "type": "event"
    },
    {
      "anonymous": false,
      "inputs": [
        {
          "indexed": true,
          "internalType": "address",
          "name": "_address",
          "type": "address"
        },
        {
          "indexed": false,
          "internalType": "string",
          "name": "_memberName",
          "type": "string"
        },
        {
          "indexed": false,
          "internalType": "uint256",
          "name": "_amount",
          "type": "uint256"
        }
      ],
      "name": "AllocationDeleted",
      "type": "event"
    },
    {
      "anonymous": false,
      "inputs": [
        {
          "indexed": true,
          "internalType": "address",
          "name": "_address",
          "type": "address"
        },
        {
          "indexed": false,
          "internalType": "string",
          "name": "_memberName",
          "type": "string"
        },
        {
          "indexed": false,
          "internalType": "uint256",
          "name": "_amount",
          "type": "uint256"
        },
        {
          "indexed": false,
          "internalType": "uint256",
          "name": "_additionalAmount",
          "type": "uint256"
        }
      ],
      "name": "AllocationIncreased",
      "type": "event"
    },
    {
      "anonymous": false,
      "inputs": [
        {
          "indexed": true,
          "internalType": "address",
          "name": "_address",
          "type": "address"
        },
        {
          "indexed": false,
          "internalType": "uint256",
          "name": "_amount",
          "type": "uint256"
        },
        {
          "indexed": false,
          "internalType": "uint256",
          "name": "_remainingInPool",
          "type": "uint256"
        }
      ],
      "name": "FundRemoved",
      "type": "event"
    },
    {
      "anonymous": false,
      "inputs": [
        {
          "indexed": true,
          "internalType": "address",
          "name": "_funder",
          "type": "address"
        },
        {
          "indexed": false,
          "internalType": "uint256",
          "name": "_amount",
          "type": "uint256"
        },
        {
          "indexed": false,
          "internalType": "uint256",
          "name": "_previousCap",
          "type": "uint256"
        },
        {
          "indexed": false,
          "internalType": "uint256",
          "name": "_newCap",
          "type": "uint256"
        }
      ],
      "name": "Funded",
      "type": "event"
    },
    {
      "anonymous": false,
      "inputs": [
        {
          "indexed": true,
          "internalType": "address",
          "name": "previousOwner",
          "type": "address"
        },
        {
          "indexed": true,
          "internalType": "address",
          "name": "newOwner",
          "type": "address"
        }
      ],
      "name": "OwnershipTransferred",
      "type": "event"
    },
    {
      "anonymous": false,
      "inputs": [],
      "name": "Pause",
      "type": "event"
    },
    {
      "anonymous": false,
      "inputs": [
        {
          "indexed": true,
          "internalType": "address",
          "name": "_address",
          "type": "address"
        },
        {
          "indexed": false,
          "internalType": "string",
          "name": "_memberName",
          "type": "string"
        },
        {
          "indexed": false,
          "internalType": "uint256",
          "name": "_releaseOn",
          "type": "uint256"
        },
        {
          "indexed": false,
          "internalType": "uint256",
          "name": "_newReleaseDate",
          "type": "uint256"
        }
      ],
      "name": "ScheduleExtended",
      "type": "event"
    },
    {
      "anonymous": false,
      "inputs": [],
      "name": "Unpause",
      "type": "event"
    },
    {
      "anonymous": false,
      "inputs": [
        {
          "indexed": true,
          "internalType": "address",
          "name": "_address",
          "type": "address"
        },
        {
          "indexed": false,
          "internalType": "string",
          "name": "_memberName",
          "type": "string"
        },
        {
          "indexed": false,
          "internalType": "uint256",
          "name": "_amount",
          "type": "uint256"
        }
      ],
      "name": "Withdrawn",
      "type": "event"
    },
    {
      "inputs": [
        {
          "internalType": "address",
          "name": "_address",
          "type": "address"
        }
      ],
      "name": "addAdmin",
      "outputs": [],
      "stateMutability": "nonpayable",
      "type": "function"
    },
    {
      "inputs": [
        {
          "internalType": "address[]",
          "name": "_accounts",
          "type": "address[]"
        }
      ],
      "name": "addManyAdmins",
      "outputs": [],
      "stateMutability": "nonpayable",
      "type": "function"
    },
    {
      "inputs": [
        {
          "internalType": "address",
          "name": "",
          "type": "address"
        }
      ],
      "name": "admins",
      "outputs": [
        {
          "internalType": "bool",
          "name": "",
          "type": "bool"
        }
      ],
      "stateMutability": "view",
      "type": "function"
    },
    {
      "inputs": [
        {
          "internalType": "address",
          "name": "_address",
          "type": "address"
        },
        {
          "internalType": "string",
          "name": "_memberName",
          "type": "string"
        },
        {
          "internalType": "uint256",
          "name": "_amount",
          "type": "uint256"
        },
        {
          "internalType": "uint256",
          "name": "_releaseOn",
          "type": "uint256"
        }
      ],
      "name": "createAllocation",
      "outputs": [
        {
          "internalType": "bool",
          "name": "",
          "type": "bool"
        }
      ],
      "stateMutability": "nonpayable",
      "type": "function"
    },
    {
      "inputs": [
        {
          "internalType": "address",
          "name": "_address",
          "type": "address"
        },
        {
          "internalType": "uint256",
          "name": "_lessAmount",
          "type": "uint256"
        }
      ],
      "name": "decreaseAllocation",
      "outputs": [
        {
          "internalType": "bool",
          "name": "",
          "type": "bool"
        }
      ],
      "stateMutability": "nonpayable",
      "type": "function"
    },
    {
      "inputs": [
        {
          "internalType": "address",
          "name": "_address",
          "type": "address"
        }
      ],
      "name": "deleteAllocation",
      "outputs": [
        {
          "internalType": "bool",
          "name": "",
          "type": "bool"
        }
      ],
      "stateMutability": "nonpayable",
      "type": "function"
    },
    {
      "inputs": [],
      "name": "earliestWithdrawalDate",
      "outputs": [
        {
          "internalType": "uint256",
          "name": "",
          "type": "uint256"
        }
      ],
      "stateMutability": "view",
      "type": "function"
    },
    {
      "inputs": [
        {
          "internalType": "address",
          "name": "_address",
          "type": "address"
        },
        {
          "internalType": "uint256",
          "name": "_newReleaseDate",
          "type": "uint256"
        }
      ],
      "name": "extendAllocation",
      "outputs": [
        {
          "internalType": "bool",
          "name": "",
          "type": "bool"
        }
      ],
      "stateMutability": "nonpayable",
      "type": "function"
    },
    {
      "inputs": [],
      "name": "fund",
      "outputs": [
        {
          "internalType": "bool",
          "name": "",
          "type": "bool"
        }
      ],
      "stateMutability": "nonpayable",
      "type": "function"
    },
    {
      "inputs": [],
      "name": "getAmountInVesting",
      "outputs": [
        {
          "internalType": "uint256",
          "name": "",
          "type": "uint256"
        }
      ],
      "stateMutability": "view",
      "type": "function"
    },
    {
      "inputs": [],
      "name": "getAvailableFunds",
      "outputs": [
        {
          "internalType": "uint256",
          "name": "",
          "type": "uint256"
        }
      ],
      "stateMutability": "view",
      "type": "function"
    },
    {
      "inputs": [
        {
          "internalType": "address",
          "name": "_address",
          "type": "address"
        }
      ],
      "name": "getDrawingPower",
      "outputs": [
        {
          "internalType": "uint256",
          "name": "",
          "type": "uint256"
        }
      ],
      "stateMutability": "view",
      "type": "function"
    },
    {
      "inputs": [
        {
          "internalType": "address",
          "name": "_address",
          "type": "address"
        },
        {
          "internalType": "uint256",
          "name": "_additionalAmount",
          "type": "uint256"
        }
      ],
      "name": "increaseAllocation",
      "outputs": [
        {
          "internalType": "bool",
          "name": "",
          "type": "bool"
        }
      ],
      "stateMutability": "nonpayable",
      "type": "function"
    },
    {
      "inputs": [],
      "name": "minimumVestingPeriod",
      "outputs": [
        {
          "internalType": "uint256",
          "name": "",
          "type": "uint256"
        }
      ],
      "stateMutability": "view",
      "type": "function"
    },
    {
      "inputs": [],
      "name": "owner",
      "outputs": [
        {
          "internalType": "address",
          "name": "",
          "type": "address"
        }
      ],
      "stateMutability": "view",
      "type": "function"
    },
    {
      "inputs": [],
      "name": "pause",
      "outputs": [],
      "stateMutability": "nonpayable",
      "type": "function"
    },
    {
      "inputs": [],
      "name": "paused",
      "outputs": [
        {
          "internalType": "bool",
          "name": "",
          "type": "bool"
        }
      ],
      "stateMutability": "view",
      "type": "function"
    },
    {
      "inputs": [
        {
          "internalType": "address",
          "name": "_address",
          "type": "address"
        }
      ],
      "name": "removeAdmin",
      "outputs": [],
      "stateMutability": "nonpayable",
      "type": "function"
    },
    {
      "inputs": [
        {
          "internalType": "uint256",
          "name": "_amount",
          "type": "uint256"
        }
      ],
      "name": "removeFunds",
      "outputs": [
        {
          "internalType": "bool",
          "name": "",
          "type": "bool"
        }
      ],
      "stateMutability": "nonpayable",
      "type": "function"
    },
    {
      "inputs": [
        {
          "internalType": "address[]",
          "name": "_accounts",
          "type": "address[]"
        }
      ],
      "name": "removeManyAdmins",
      "outputs": [],
      "stateMutability": "nonpayable",
      "type": "function"
    },
    {
      "inputs": [],
      "name": "renounceOwnership",
      "outputs": [],
      "stateMutability": "nonpayable",
      "type": "function"
    },
    {
      "inputs": [],
      "name": "totalVested",
      "outputs": [
        {
          "internalType": "uint256",
          "name": "",
          "type": "uint256"
        }
      ],
      "stateMutability": "view",
      "type": "function"
    },
    {
      "inputs": [],
      "name": "totalWithdrawn",
      "outputs": [
        {
          "internalType": "uint256",
          "name": "",
          "type": "uint256"
        }
      ],
      "stateMutability": "view",
      "type": "function"
    },
    {
      "inputs": [
        {
          "internalType": "address",
          "name": "newOwner",
          "type": "address"
        }
      ],
      "name": "transferOwnership",
      "outputs": [],
      "stateMutability": "nonpayable",
      "type": "function"
    },
    {
      "inputs": [],
      "name": "unpause",
      "outputs": [],
      "stateMutability": "nonpayable",
      "type": "function"
    },
    {
      "inputs": [],
      "name": "vestingCoin",
      "outputs": [
        {
          "internalType": "contract ERC20",
          "name": "",
          "type": "address"
        }
      ],
      "stateMutability": "view",
      "type": "function"
    },
    {
      "inputs": [],
      "name": "vestingStartedOn",
      "outputs": [
        {
          "internalType": "uint256",
          "name": "",
          "type": "uint256"
        }
      ],
      "stateMutability": "view",
      "type": "function"
    },
    {
      "inputs": [
        {
          "internalType": "uint256",
          "name": "_amount",
          "type": "uint256"
        }
      ],
      "name": "withdraw",
      "outputs": [
        {
          "internalType": "bool",
          "name": "",
          "type": "bool"
        }
      ],
      "stateMutability": "nonpayable",
      "type": "function"
    },
    {
      "inputs": [],
      "name": "withdrawalCap",
      "outputs": [
        {
          "internalType": "uint256",
          "name": "",
          "type": "uint256"
        }
      ],
      "stateMutability": "view",
      "type": "function"
    },
    {
      "inputs": [],
      "name": "withdrawalFrequency",
      "outputs": [
        {
          "internalType": "uint256",
          "name": "",
          "type": "uint256"
        }
      ],
      "stateMutability": "view",
      "type": "function"
    }
  ],
  "bytecode": "0x60806040526000600260006101000a81548160ff0219169083151502179055503480156200002c57600080fd5b5060405162004d7238038062004d728339818101604052810190620000529190620001cb565b6200007262000066620000d160201b60201c565b620000d960201b60201c565b826006819055504260058190555080600a60006101000a81548173ffffffffffffffffffffffffffffffffffffffff021916908373ffffffffffffffffffffffffffffffffffffffff16021790555081600381905550505050620002a7565b600033905090565b60008060009054906101000a900473ffffffffffffffffffffffffffffffffffffffff169050816000806101000a81548173ffffffffffffffffffffffffffffffffffffffff021916908373ffffffffffffffffffffffffffffffffffffffff1602179055508173ffffffffffffffffffffffffffffffffffffffff168173ffffffffffffffffffffffffffffffffffffffff167f8be0079c531659141344cd1fd0a4f28419497f9722a3daafe3b4186f6b6457e060405160405180910390a35050565b600081519050620001ae8162000273565b92915050565b600081519050620001c5816200028d565b92915050565b600080600060608486031215620001e157600080fd5b6000620001f186828701620001b4565b93505060206200020486828701620001b4565b925050604062000217868287016200019d565b9150509250925092565b60006200022e8262000249565b9050919050565b6000620002428262000221565b9050919050565b600073ffffffffffffffffffffffffffffffffffffffff82169050919050565b6000819050919050565b6200027e8162000235565b81146200028a57600080fd5b50565b620002988162000269565b8114620002a457600080fd5b50565b614abb80620002b76000396000f3fe608060405234801561001057600080fd5b50600436106101da5760003560e01c8063706250c811610104578063a065b0bd116100a2578063e4353ad611610071578063e4353ad614610527578063f1bca30f14610557578063f2fde38b14610573578063fad36ece1461058f576101da565b8063a065b0bd146104b1578063a8e6e77b146104cf578063b60d4288146104eb578063dba61ab714610509576101da565b80638456cb59116100de5780638456cb591461043b5780638971611c146104455780638da5cb5b14610463578063936bf97814610481576101da565b8063706250c8146103f5578063715018a61461041357806378ee3af61461041d576101da565b80633f4ba83a1161017c578063517b49121161014b578063517b49121461036d5780635195bd291461039d5780635c975abb146103bb57806370480275146103d9576101da565b80633f4ba83a146102f7578063429b62e5146103015780634713a044146103315780634b3197131461034f576101da565b8063199cbc54116101b8578063199cbc541461025b5780632e1a7d4d146102795780632f384523146102a95780633792bab4146102d9576101da565b80630715a0b4146101df578063158a774d1461020f5780631785f53c1461023f575b600080fd5b6101f960048036038101906101f49190613ac5565b6105bf565b6040516102069190613f40565b60405180910390f35b61022960048036038101906102249190613ac5565b610a0d565b6040516102369190613f40565b60405180910390f35b61025960048036038101906102549190613a21565b610efb565b005b6102636110fc565b60405161027091906141e2565b60405180910390f35b610293600480360381019061028e9190613b6b565b611102565b6040516102a09190613f40565b60405180910390f35b6102c360048036038101906102be9190613b6b565b611695565b6040516102d09190613f40565b60405180910390f35b6102e1611934565b6040516102ee91906141e2565b60405180910390f35b6102ff61193a565b005b61031b60048036038101906103169190613a21565b611a2f565b6040516103289190613f40565b60405180910390f35b610339611a4f565b60405161034691906141e2565b60405180910390f35b610357611a55565b60405161036491906141e2565b60405180910390f35b61038760048036038101906103829190613a4a565b611a5b565b6040516103949190613f40565b60405180910390f35b6103a5611e43565b6040516103b291906141e2565b60405180910390f35b6103c3611ef5565b6040516103d09190613f40565b60405180910390f35b6103f360048036038101906103ee9190613a21565b611f08565b005b6103fd612109565b60405161040a91906141e2565b60405180910390f35b61041b61210f565b005b610425612197565b60405161043291906141e2565b60405180910390f35b61044361219d565b005b61044d612293565b60405161045a91906141e2565b60405180910390f35b61046b612299565b6040516104789190613e9c565b60405180910390f35b61049b60048036038101906104969190613ac5565b6122c2565b6040516104a89190613f40565b60405180910390f35b6104b96127c4565b6040516104c69190613f5b565b60405180910390f35b6104e960048036038101906104e49190613b01565b6127ea565b005b6104f3612a95565b6040516105009190613f40565b60405180910390f35b610511612d46565b60405161051e91906141e2565b60405180910390f35b610541600480360381019061053c9190613a21565b612d64565b60405161054e91906141e2565b60405180910390f35b610571600480360381019061056c9190613b01565b612ec0565b005b61058d60048036038101906105889190613a21565b61316b565b005b6105a960048036038101906105a49190613a21565b613263565b6040516105b69190613f40565b60405180910390f35b6000600160003373ffffffffffffffffffffffffffffffffffffffff1673ffffffffffffffffffffffffffffffffffffffff16815260200190815260200160002060009054906101000a900460ff168061064b575061061c612299565b73ffffffffffffffffffffffffffffffffffffffff163373ffffffffffffffffffffffffffffffffffffffff16145b61065457600080fd5b600073ffffffffffffffffffffffffffffffffffffffff168373ffffffffffffffffffffffffffffffffffffffff1614156106c4576040517f08c379a00000000000000000000000000000000000000000000000000000000081526004016106bb906140c2565b60405180910390fd5b6000600b60008573ffffffffffffffffffffffffffffffffffffffff1673ffffffffffffffffffffffffffffffffffffffff1681526020019081526020016000206001015411610749576040517f08c379a000000000000000000000000000000000000000000000000000000000815260040161074090614142565b60405180910390fd5b600b60008473ffffffffffffffffffffffffffffffffffffffff1673ffffffffffffffffffffffffffffffffffffffff16815260200190815260200160002060050160009054906101000a900460ff16156107d9576040517f08c379a00000000000000000000000000000000000000000000000000000000081526004016107d090614142565b60405180910390fd5b600b60008473ffffffffffffffffffffffffffffffffffffffff1673ffffffffffffffffffffffffffffffffffffffff16815260200190815260200160002060020154421061085d576040517f08c379a0000000000000000000000000000000000000000000000000000000008152600401610854906140a2565b60405180910390fd5b600b60008473ffffffffffffffffffffffffffffffffffffffff1673ffffffffffffffffffffffffffffffffffffffff1681526020019081526020016000206002015482116108e1576040517f08c379a00000000000000000000000000000000000000000000000000000000081526004016108d8906140e2565b60405180910390fd5b6000600b60008573ffffffffffffffffffffffffffffffffffffffff1673ffffffffffffffffffffffffffffffffffffffff16815260200190815260200160002060020154905082600b60008673ffffffffffffffffffffffffffffffffffffffff1673ffffffffffffffffffffffffffffffffffffffff168152602001908152602001600020600201819055508373ffffffffffffffffffffffffffffffffffffffff167f48e5c889579453e84d06f5962fd80461fe15c76d7b30530d52d1ae5617571a76600b60008773ffffffffffffffffffffffffffffffffffffffff1673ffffffffffffffffffffffffffffffffffffffff16815260200190815260200160002060000183866040516109fa93929190613fe4565b60405180910390a2600191505092915050565b6000600160003373ffffffffffffffffffffffffffffffffffffffff1673ffffffffffffffffffffffffffffffffffffffff16815260200190815260200160002060009054906101000a900460ff1680610a995750610a6a612299565b73ffffffffffffffffffffffffffffffffffffffff163373ffffffffffffffffffffffffffffffffffffffff16145b610aa257600080fd5b600073ffffffffffffffffffffffffffffffffffffffff168373ffffffffffffffffffffffffffffffffffffffff161415610b12576040517f08c379a0000000000000000000000000000000000000000000000000000000008152600401610b09906140c2565b60405180910390fd5b60008211610b1f57600080fd5b6000600b60008573ffffffffffffffffffffffffffffffffffffffff1673ffffffffffffffffffffffffffffffffffffffff1681526020019081526020016000206001015411610ba4576040517f08c379a0000000000000000000000000000000000000000000000000000000008152600401610b9b90614142565b60405180910390fd5b600b60008473ffffffffffffffffffffffffffffffffffffffff1673ffffffffffffffffffffffffffffffffffffffff16815260200190815260200160002060050160009054906101000a900460ff1615610c34576040517f08c379a0000000000000000000000000000000000000000000000000000000008152600401610c2b90614142565b60405180910390fd5b81600b60008573ffffffffffffffffffffffffffffffffffffffff1673ffffffffffffffffffffffffffffffffffffffff168152602001908152602001600020600401541015610cb9576040517f08c379a0000000000000000000000000000000000000000000000000000000008152600401610cb0906141a2565b60405180910390fd5b610d0e82600b60008673ffffffffffffffffffffffffffffffffffffffff1673ffffffffffffffffffffffffffffffffffffffff1681526020019081526020016000206003015461371e90919063ffffffff16565b600b60008573ffffffffffffffffffffffffffffffffffffffff1673ffffffffffffffffffffffffffffffffffffffff16815260200190815260200160002060030181905550610da982600b60008673ffffffffffffffffffffffffffffffffffffffff1673ffffffffffffffffffffffffffffffffffffffff1681526020019081526020016000206004015461371e90919063ffffffff16565b600b60008573ffffffffffffffffffffffffffffffffffffffff1673ffffffffffffffffffffffffffffffffffffffff16815260200190815260200160002060040181905550610e048260085461371e90919063ffffffff16565b6008819055508273ffffffffffffffffffffffffffffffffffffffff167ffefe834c14ff63083c08dce2085888585b19e1b43198dde06d97a38a8379f21d600b60008673ffffffffffffffffffffffffffffffffffffffff1673ffffffffffffffffffffffffffffffffffffffff168152602001908152602001600020600001610ed985600b60008973ffffffffffffffffffffffffffffffffffffffff1673ffffffffffffffffffffffffffffffffffffffff1681526020019081526020016000206003015461373490919063ffffffff16565b85604051610ee993929190613fe4565b60405180910390a26001905092915050565b600160003373ffffffffffffffffffffffffffffffffffffffff1673ffffffffffffffffffffffffffffffffffffffff16815260200190815260200160002060009054906101000a900460ff1680610f855750610f56612299565b73ffffffffffffffffffffffffffffffffffffffff163373ffffffffffffffffffffffffffffffffffffffff16145b610f8e57600080fd5b600073ffffffffffffffffffffffffffffffffffffffff168173ffffffffffffffffffffffffffffffffffffffff161415610fc857600080fd5b600160008273ffffffffffffffffffffffffffffffffffffffff1673ffffffffffffffffffffffffffffffffffffffff16815260200190815260200160002060009054906101000a900460ff1661101e57600080fd5b611026612299565b73ffffffffffffffffffffffffffffffffffffffff168173ffffffffffffffffffffffffffffffffffffffff16141561105e57600080fd5b6000600160008373ffffffffffffffffffffffffffffffffffffffff1673ffffffffffffffffffffffffffffffffffffffff16815260200190815260200160002060006101000a81548160ff0219169083151502179055508073ffffffffffffffffffffffffffffffffffffffff167fa3b62bc36326052d97ea62d63c3d60308ed4c3ea8ac079dd8499f1e9c4f80c0f60405160405180910390a250565b60085481565b6000816000600b60003373ffffffffffffffffffffffffffffffffffffffff1673ffffffffffffffffffffffffffffffffffffffff168152602001908152602001600020600101541161118a576040517f08c379a000000000000000000000000000000000000000000000000000000000815260040161118190614142565b60405180910390fd5b600b60003373ffffffffffffffffffffffffffffffffffffffff1673ffffffffffffffffffffffffffffffffffffffff16815260200190815260200160002060050160009054906101000a900460ff161561121a576040517f08c379a000000000000000000000000000000000000000000000000000000000815260040161121190614142565b60405180910390fd5b600b60003373ffffffffffffffffffffffffffffffffffffffff1673ffffffffffffffffffffffffffffffffffffffff1681526020019081526020016000206002015442101561129f576040517f08c379a000000000000000000000000000000000000000000000000000000000815260040161129690614182565b60405180910390fd5b80600b60003373ffffffffffffffffffffffffffffffffffffffff1673ffffffffffffffffffffffffffffffffffffffff168152602001908152602001600020600401541015611324576040517f08c379a000000000000000000000000000000000000000000000000000000000815260040161131b906141a2565b60405180910390fd5b600061132f33612d64565b90506000600354111561168e578181101561137f576040517f08c379a000000000000000000000000000000000000000000000000000000000815260040161137690614082565b60405180910390fd5b60075442101561138e57600080fd5b600260009054906101000a900460ff16156113a857600080fd5b42600b60003373ffffffffffffffffffffffffffffffffffffffff1673ffffffffffffffffffffffffffffffffffffffff1681526020019081526020016000206007018190555061144484600b60003373ffffffffffffffffffffffffffffffffffffffff1673ffffffffffffffffffffffffffffffffffffffff1681526020019081526020016000206004015461371e90919063ffffffff16565b600b60003373ffffffffffffffffffffffffffffffffffffffff1673ffffffffffffffffffffffffffffffffffffffff168152602001908152602001600020600401819055506114df84600b60003373ffffffffffffffffffffffffffffffffffffffff1673ffffffffffffffffffffffffffffffffffffffff1681526020019081526020016000206006015461373490919063ffffffff16565b600b60003373ffffffffffffffffffffffffffffffffffffffff1673ffffffffffffffffffffffffffffffffffffffff1681526020019081526020016000206006018190555061153a8460095461373490919063ffffffff16565b600981905550600a60009054906101000a900473ffffffffffffffffffffffffffffffffffffffff1673ffffffffffffffffffffffffffffffffffffffff1663a9059cbb33866040518363ffffffff1660e01b815260040161159d929190613f17565b602060405180830381600087803b1580156115b757600080fd5b505af11580156115cb573d6000803e3d6000fd5b505050506040513d601f19601f820116820180604052508101906115ef9190613b42565b6115f857600080fd5b3373ffffffffffffffffffffffffffffffffffffffff167f18af30a54a1951aeee806c16cdcb8d087ed1a095f0d9a87261b92cef2c6cc92d600b60003373ffffffffffffffffffffffffffffffffffffffff1673ffffffffffffffffffffffffffffffffffffffff16815260200190815260200160002060000186604051611681929190613fb4565b60405180910390a2600192505b5050919050565b6000600160003373ffffffffffffffffffffffffffffffffffffffff1673ffffffffffffffffffffffffffffffffffffffff16815260200190815260200160002060009054906101000a900460ff168061172157506116f2612299565b73ffffffffffffffffffffffffffffffffffffffff163373ffffffffffffffffffffffffffffffffffffffff16145b61172a57600080fd5b6000600a60009054906101000a900473ffffffffffffffffffffffffffffffffffffffff1673ffffffffffffffffffffffffffffffffffffffff166370a08231306040518263ffffffff1660e01b81526004016117879190613e9c565b60206040518083038186803b15801561179f57600080fd5b505afa1580156117b3573d6000803e3d6000fd5b505050506040513d601f19601f820116820180604052508101906117d79190613b94565b905060006117e3612d46565b90508082116117f157600080fd5b600081836117ff91906143f1565b90508481101561180e57600080fd5b600a60009054906101000a900473ffffffffffffffffffffffffffffffffffffffff1673ffffffffffffffffffffffffffffffffffffffff1663a9059cbb33876040518363ffffffff1660e01b815260040161186b929190613f17565b602060405180830381600087803b15801561188557600080fd5b505af1158015611899573d6000803e3d6000fd5b505050506040513d601f19601f820116820180604052508101906118bd9190613b42565b6118c657600080fd5b3373ffffffffffffffffffffffffffffffffffffffff167f2d2c22b12ce2c4142ec672b74a307ec23572019efd8c9a930a8fc19f0fcd6c8686611912888561371e90919063ffffffff16565b6040516119209291906141fd565b60405180910390a260019350505050919050565b60045481565b600160003373ffffffffffffffffffffffffffffffffffffffff1673ffffffffffffffffffffffffffffffffffffffff16815260200190815260200160002060009054906101000a900460ff16806119c45750611995612299565b73ffffffffffffffffffffffffffffffffffffffff163373ffffffffffffffffffffffffffffffffffffffff16145b6119cd57600080fd5b600260009054906101000a900460ff166119e657600080fd5b6000600260006101000a81548160ff0219169083151502179055507f7805862f689e2f13df9f062ff482ad3ad112aca9e0847911ed832e158c525b3360405160405180910390a1565b60016020528060005260406000206000915054906101000a900460ff1681565b60055481565b60095481565b6000600160003373ffffffffffffffffffffffffffffffffffffffff1673ffffffffffffffffffffffffffffffffffffffff16815260200190815260200160002060009054906101000a900460ff1680611ae75750611ab8612299565b73ffffffffffffffffffffffffffffffffffffffff163373ffffffffffffffffffffffffffffffffffffffff16145b611af057600080fd5b600073ffffffffffffffffffffffffffffffffffffffff168573ffffffffffffffffffffffffffffffffffffffff161415611b60576040517f08c379a0000000000000000000000000000000000000000000000000000000008152600401611b57906140c2565b60405180910390fd5b60008311611ba3576040517f08c379a0000000000000000000000000000000000000000000000000000000008152600401611b9a90614022565b60405180910390fd5b6000600b60008773ffffffffffffffffffffffffffffffffffffffff1673ffffffffffffffffffffffffffffffffffffffff1681526020019081526020016000206001015414611c28576040517f08c379a0000000000000000000000000000000000000000000000000000000008152600401611c1f90614062565b60405180910390fd5b600754821015611c6d576040517f08c379a0000000000000000000000000000000000000000000000000000000008152600401611c64906141c2565b60405180910390fd5b611c8783611c79612d46565b61373490919063ffffffff16565b611c8f611e43565b1015611cd0576040517f08c379a0000000000000000000000000000000000000000000000000000000008152600401611cc790614122565b60405180910390fd5b604051806101000160405280858152602001428152602001838152602001848152602001848152602001600015158152602001600081526020016000815250600b60008773ffffffffffffffffffffffffffffffffffffffff1673ffffffffffffffffffffffffffffffffffffffff1681526020019081526020016000206000820151816000019080519060200190611d6a92919061382c565b506020820151816001015560408201518160020155606082015181600301556080820151816004015560a08201518160050160006101000a81548160ff02191690831515021790555060c0820151816006015560e08201518160070155905050611ddf8360085461373490919063ffffffff16565b6008819055508473ffffffffffffffffffffffffffffffffffffffff167f31dde06dd1e0aaacd2d32511680629725c65c6048e70ece46b47a9eb210a5b16858585604051611e2f93929190613f76565b60405180910390a260019050949350505050565b6000600a60009054906101000a900473ffffffffffffffffffffffffffffffffffffffff1673ffffffffffffffffffffffffffffffffffffffff166370a08231306040518263ffffffff1660e01b8152600401611ea09190613e9c565b60206040518083038186803b158015611eb857600080fd5b505afa158015611ecc573d6000803e3d6000fd5b505050506040513d601f19601f82011682018060405250810190611ef09190613b94565b905090565b600260009054906101000a900460ff1681565b600160003373ffffffffffffffffffffffffffffffffffffffff1673ffffffffffffffffffffffffffffffffffffffff16815260200190815260200160002060009054906101000a900460ff1680611f925750611f63612299565b73ffffffffffffffffffffffffffffffffffffffff163373ffffffffffffffffffffffffffffffffffffffff16145b611f9b57600080fd5b600073ffffffffffffffffffffffffffffffffffffffff168173ffffffffffffffffffffffffffffffffffffffff161415611fd557600080fd5b600160008273ffffffffffffffffffffffffffffffffffffffff1673ffffffffffffffffffffffffffffffffffffffff16815260200190815260200160002060009054906101000a900460ff161561202c57600080fd5b612034612299565b73ffffffffffffffffffffffffffffffffffffffff168173ffffffffffffffffffffffffffffffffffffffff16141561206c57600080fd5b60018060008373ffffffffffffffffffffffffffffffffffffffff1673ffffffffffffffffffffffffffffffffffffffff16815260200190815260200160002060006101000a81548160ff0219169083151502179055508073ffffffffffffffffffffffffffffffffffffffff167f44d6d25963f097ad14f29f06854a01f575648a1ef82f30e562ccd3889717e33960405160405180910390a250565b60065481565b61211761374a565b73ffffffffffffffffffffffffffffffffffffffff16612135612299565b73ffffffffffffffffffffffffffffffffffffffff161461218b576040517f08c379a000000000000000000000000000000000000000000000000000000000815260040161218290614162565b60405180910390fd5b6121956000613752565b565b60075481565b600160003373ffffffffffffffffffffffffffffffffffffffff1673ffffffffffffffffffffffffffffffffffffffff16815260200190815260200160002060009054906101000a900460ff168061222757506121f8612299565b73ffffffffffffffffffffffffffffffffffffffff163373ffffffffffffffffffffffffffffffffffffffff16145b61223057600080fd5b600260009054906101000a900460ff161561224a57600080fd5b6001600260006101000a81548160ff0219169083151502179055507f6985a02210a168e66602d3235cb6db0e70f92b3ba4d376a33c0f3d9434bff62560405160405180910390a1565b60035481565b60008060009054906101000a900473ffffffffffffffffffffffffffffffffffffffff16905090565b6000600160003373ffffffffffffffffffffffffffffffffffffffff1673ffffffffffffffffffffffffffffffffffffffff16815260200190815260200160002060009054906101000a900460ff168061234e575061231f612299565b73ffffffffffffffffffffffffffffffffffffffff163373ffffffffffffffffffffffffffffffffffffffff16145b61235757600080fd5b600073ffffffffffffffffffffffffffffffffffffffff168373ffffffffffffffffffffffffffffffffffffffff1614156123c7576040517f08c379a00000000000000000000000000000000000000000000000000000000081526004016123be906140c2565b60405180910390fd5b6000821161240a576040517f08c379a000000000000000000000000000000000000000000000000000000000815260040161240190614022565b60405180910390fd5b6000600b60008573ffffffffffffffffffffffffffffffffffffffff1673ffffffffffffffffffffffffffffffffffffffff168152602001908152602001600020600101541161248f576040517f08c379a000000000000000000000000000000000000000000000000000000000815260040161248690614142565b60405180910390fd5b600b60008473ffffffffffffffffffffffffffffffffffffffff1673ffffffffffffffffffffffffffffffffffffffff16815260200190815260200160002060050160009054906101000a900460ff161561251f576040517f08c379a000000000000000000000000000000000000000000000000000000000815260040161251690614142565b60405180910390fd5b6125398261252b612d46565b61373490919063ffffffff16565b612541611e43565b1015612582576040517f08c379a000000000000000000000000000000000000000000000000000000000815260040161257990614122565b60405180910390fd5b6125d782600b60008673ffffffffffffffffffffffffffffffffffffffff1673ffffffffffffffffffffffffffffffffffffffff1681526020019081526020016000206003015461373490919063ffffffff16565b600b60008573ffffffffffffffffffffffffffffffffffffffff1673ffffffffffffffffffffffffffffffffffffffff1681526020019081526020016000206003018190555061267282600b60008673ffffffffffffffffffffffffffffffffffffffff1673ffffffffffffffffffffffffffffffffffffffff1681526020019081526020016000206004015461373490919063ffffffff16565b600b60008573ffffffffffffffffffffffffffffffffffffffff1673ffffffffffffffffffffffffffffffffffffffff168152602001908152602001600020600401819055506126cd8260085461373490919063ffffffff16565b6008819055508273ffffffffffffffffffffffffffffffffffffffff167f2cebdff48fce81ce1759871451e83228bc810bd79ee76f0c03f101e1ec152a07600b60008673ffffffffffffffffffffffffffffffffffffffff1673ffffffffffffffffffffffffffffffffffffffff1681526020019081526020016000206000016127a285600b60008973ffffffffffffffffffffffffffffffffffffffff1673ffffffffffffffffffffffffffffffffffffffff1681526020019081526020016000206003015461371e90919063ffffffff16565b856040516127b293929190613fe4565b60405180910390a26001905092915050565b600a60009054906101000a900473ffffffffffffffffffffffffffffffffffffffff1681565b600160003373ffffffffffffffffffffffffffffffffffffffff1673ffffffffffffffffffffffffffffffffffffffff16815260200190815260200160002060009054906101000a900460ff16806128745750612845612299565b73ffffffffffffffffffffffffffffffffffffffff163373ffffffffffffffffffffffffffffffffffffffff16145b61287d57600080fd5b60005b81518160ff161015612a91576000828260ff16815181106128ca577f4e487b7100000000000000000000000000000000000000000000000000000000600052603260045260246000fd5b60200260200101519050600073ffffffffffffffffffffffffffffffffffffffff168173ffffffffffffffffffffffffffffffffffffffff161415801561295b5750600160008273ffffffffffffffffffffffffffffffffffffffff1673ffffffffffffffffffffffffffffffffffffffff16815260200190815260200160002060009054906101000a900460ff16155b801561299a575061296a612299565b73ffffffffffffffffffffffffffffffffffffffff168173ffffffffffffffffffffffffffffffffffffffff1614155b15612a7d5760018060008373ffffffffffffffffffffffffffffffffffffffff1673ffffffffffffffffffffffffffffffffffffffff16815260200190815260200160002060006101000a81548160ff021916908315150217905550828260ff1681518110612a32577f4e487b7100000000000000000000000000000000000000000000000000000000600052603260045260246000fd5b602002602001015173ffffffffffffffffffffffffffffffffffffffff167f44d6d25963f097ad14f29f06854a01f575648a1ef82f30e562ccd3889717e33960405160405180910390a25b508080612a8990614543565b915050612880565b5050565b6000600160003373ffffffffffffffffffffffffffffffffffffffff1673ffffffffffffffffffffffffffffffffffffffff16815260200190815260200160002060009054906101000a900460ff1680612b215750612af2612299565b73ffffffffffffffffffffffffffffffffffffffff163373ffffffffffffffffffffffffffffffffffffffff16145b612b2a57600080fd5b6000600a60009054906101000a900473ffffffffffffffffffffffffffffffffffffffff1673ffffffffffffffffffffffffffffffffffffffff1663dd62ed3e33306040518363ffffffff1660e01b8152600401612b89929190613eb7565b60206040518083038186803b158015612ba157600080fd5b505afa158015612bb5573d6000803e3d6000fd5b505050506040513d601f19601f82011682018060405250810190612bd99190613b94565b905060008111612c1e576040517f08c379a0000000000000000000000000000000000000000000000000000000008152600401612c1590614102565b60405180910390fd5b6000612c28611e43565b9050600a60009054906101000a900473ffffffffffffffffffffffffffffffffffffffff1673ffffffffffffffffffffffffffffffffffffffff166323b872dd3330856040518463ffffffff1660e01b8152600401612c8993929190613ee0565b602060405180830381600087803b158015612ca357600080fd5b505af1158015612cb7573d6000803e3d6000fd5b505050506040513d601f19601f82011682018060405250810190612cdb9190613b42565b612ce457600080fd5b3373ffffffffffffffffffffffffffffffffffffffff167f26b27e83d0b82c44eb17d6f11776a8c600332d2ed7d9febfe585848bcfadf52d8383612d26611e43565b604051612d3593929190614226565b60405180910390a260019250505090565b6000612d5f60095460085461371e90919063ffffffff16565b905090565b6000806003541415612d795760009050612ebb565b6000600b60008473ffffffffffffffffffffffffffffffffffffffff1673ffffffffffffffffffffffffffffffffffffffff1681526020019081526020016000206002015442612dc991906143f1565b90506000612de26004548361381690919063ffffffff16565b6001612dee9190614310565b9050600060035482612e009190614397565b90506000600b60008773ffffffffffffffffffffffffffffffffffffffff1673ffffffffffffffffffffffffffffffffffffffff168152602001908152602001600020600301548211612e535781612e97565b600b60008773ffffffffffffffffffffffffffffffffffffffff1673ffffffffffffffffffffffffffffffffffffffff168152602001908152602001600020600301545b90506000612eb06009548361371e90919063ffffffff16565b905080955050505050505b919050565b600160003373ffffffffffffffffffffffffffffffffffffffff1673ffffffffffffffffffffffffffffffffffffffff16815260200190815260200160002060009054906101000a900460ff1680612f4a5750612f1b612299565b73ffffffffffffffffffffffffffffffffffffffff163373ffffffffffffffffffffffffffffffffffffffff16145b612f5357600080fd5b60005b81518160ff161015613167576000828260ff1681518110612fa0577f4e487b7100000000000000000000000000000000000000000000000000000000600052603260045260246000fd5b60200260200101519050600073ffffffffffffffffffffffffffffffffffffffff168173ffffffffffffffffffffffffffffffffffffffff16141580156130305750600160008273ffffffffffffffffffffffffffffffffffffffff1673ffffffffffffffffffffffffffffffffffffffff16815260200190815260200160002060009054906101000a900460ff165b801561306f575061303f612299565b73ffffffffffffffffffffffffffffffffffffffff168173ffffffffffffffffffffffffffffffffffffffff1614155b15613153576000600160008373ffffffffffffffffffffffffffffffffffffffff1673ffffffffffffffffffffffffffffffffffffffff16815260200190815260200160002060006101000a81548160ff021916908315150217905550828260ff1681518110613108577f4e487b7100000000000000000000000000000000000000000000000000000000600052603260045260246000fd5b602002602001015173ffffffffffffffffffffffffffffffffffffffff167fa3b62bc36326052d97ea62d63c3d60308ed4c3ea8ac079dd8499f1e9c4f80c0f60405160405180910390a25b50808061315f90614543565b915050612f56565b5050565b61317361374a565b73ffffffffffffffffffffffffffffffffffffffff16613191612299565b73ffffffffffffffffffffffffffffffffffffffff16146131e7576040517f08c379a00000000000000000000000000000000000000000000000000000000081526004016131de90614162565b60405180910390fd5b600073ffffffffffffffffffffffffffffffffffffffff168173ffffffffffffffffffffffffffffffffffffffff161415613257576040517f08c379a000000000000000000000000000000000000000000000000000000000815260040161324e90614042565b60405180910390fd5b61326081613752565b50565b6000600160003373ffffffffffffffffffffffffffffffffffffffff1673ffffffffffffffffffffffffffffffffffffffff16815260200190815260200160002060009054906101000a900460ff16806132ef57506132c0612299565b73ffffffffffffffffffffffffffffffffffffffff163373ffffffffffffffffffffffffffffffffffffffff16145b6132f857600080fd5b600073ffffffffffffffffffffffffffffffffffffffff168273ffffffffffffffffffffffffffffffffffffffff161415613368576040517f08c379a000000000000000000000000000000000000000000000000000000000815260040161335f906140c2565b60405180910390fd5b6000600b60008473ffffffffffffffffffffffffffffffffffffffff1673ffffffffffffffffffffffffffffffffffffffff16815260200190815260200160002060010154116133ed576040517f08c379a00000000000000000000000000000000000000000000000000000000081526004016133e490614142565b60405180910390fd5b600b60008373ffffffffffffffffffffffffffffffffffffffff1673ffffffffffffffffffffffffffffffffffffffff16815260200190815260200160002060050160009054906101000a900460ff161561347d576040517f08c379a000000000000000000000000000000000000000000000000000000000815260040161347490614142565b60405180910390fd5b6000600b60008473ffffffffffffffffffffffffffffffffffffffff1673ffffffffffffffffffffffffffffffffffffffff1681526020019081526020016000206003015490506000600b60008573ffffffffffffffffffffffffffffffffffffffff1673ffffffffffffffffffffffffffffffffffffffff1681526020019081526020016000206004015490506000600b60008673ffffffffffffffffffffffffffffffffffffffff1673ffffffffffffffffffffffffffffffffffffffff1681526020019081526020016000206006015490506000613567828461371e90919063ffffffff16565b905061357c818561371e90919063ffffffff16565b600b60008873ffffffffffffffffffffffffffffffffffffffff1673ffffffffffffffffffffffffffffffffffffffff168152602001908152602001600020600301819055506000600b60008873ffffffffffffffffffffffffffffffffffffffff1673ffffffffffffffffffffffffffffffffffffffff168152602001908152602001600020600401819055506001600b60008873ffffffffffffffffffffffffffffffffffffffff1673ffffffffffffffffffffffffffffffffffffffff16815260200190815260200160002060050160006101000a81548160ff02191690831515021790555061367a8160085461371e90919063ffffffff16565b6008819055508573ffffffffffffffffffffffffffffffffffffffff167f47370478829f2a02d88c41aa352cafd9e19a623634304cc8b26d9b2cd8564a65600b60008973ffffffffffffffffffffffffffffffffffffffff1673ffffffffffffffffffffffffffffffffffffffff16815260200190815260200160002060000183604051613709929190613fb4565b60405180910390a26001945050505050919050565b6000818361372c91906143f1565b905092915050565b600081836137429190614310565b905092915050565b600033905090565b60008060009054906101000a900473ffffffffffffffffffffffffffffffffffffffff169050816000806101000a81548173ffffffffffffffffffffffffffffffffffffffff021916908373ffffffffffffffffffffffffffffffffffffffff1602179055508173ffffffffffffffffffffffffffffffffffffffff168173ffffffffffffffffffffffffffffffffffffffff167f8be0079c531659141344cd1fd0a4f28419497f9722a3daafe3b4186f6b6457e060405160405180910390a35050565b600081836138249190614366565b905092915050565b828054613838906144e0565b90600052602060002090601f01602090048101928261385a57600085556138a1565b82601f1061387357805160ff19168380011785556138a1565b828001600101855582156138a1579182015b828111156138a0578251825591602001919060010190613885565b5b5090506138ae91906138b2565b5090565b5b808211156138cb5760008160009055506001016138b3565b5090565b60006138e26138dd84614282565b61425d565b9050808382526020820190508285602086028201111561390157600080fd5b60005b8581101561393157816139178882613979565b845260208401935060208301925050600181019050613904565b5050509392505050565b600061394e613949846142ae565b61425d565b90508281526020810184848401111561396657600080fd5b61397184828561449e565b509392505050565b60008135905061398881614a40565b92915050565b600082601f83011261399f57600080fd5b81356139af8482602086016138cf565b91505092915050565b6000815190506139c781614a57565b92915050565b600082601f8301126139de57600080fd5b81356139ee84826020860161393b565b91505092915050565b600081359050613a0681614a6e565b92915050565b600081519050613a1b81614a6e565b92915050565b600060208284031215613a3357600080fd5b6000613a4184828501613979565b91505092915050565b60008060008060808587031215613a6057600080fd5b6000613a6e87828801613979565b945050602085013567ffffffffffffffff811115613a8b57600080fd5b613a97878288016139cd565b9350506040613aa8878288016139f7565b9250506060613ab9878288016139f7565b91505092959194509250565b60008060408385031215613ad857600080fd5b6000613ae685828601613979565b9250506020613af7858286016139f7565b9150509250929050565b600060208284031215613b1357600080fd5b600082013567ffffffffffffffff811115613b2d57600080fd5b613b398482850161398e565b91505092915050565b600060208284031215613b5457600080fd5b6000613b62848285016139b8565b91505092915050565b600060208284031215613b7d57600080fd5b6000613b8b848285016139f7565b91505092915050565b600060208284031215613ba657600080fd5b6000613bb484828501613a0c565b91505092915050565b613bc681614425565b82525050565b613bd581614437565b82525050565b613be48161447a565b82525050565b6000613bf5826142f4565b613bff81856142ff565b9350613c0f8185602086016144ad565b613c1881614629565b840191505092915050565b60008154613c30816144e0565b613c3a81866142ff565b94506001821660008114613c555760018114613c6757613c9a565b60ff1983168652602086019350613c9a565b613c70856142df565b60005b83811015613c9257815481890152600182019150602081019050613c73565b808801955050505b50505092915050565b6000613cb0600f836142ff565b9150613cbb8261463a565b602082019050919050565b6000613cd36026836142ff565b9150613cde82614663565b604082019050919050565b6000613cf66022836142ff565b9150613d01826146b2565b604082019050919050565b6000613d19603f836142ff565b9150613d2482614701565b604082019050919050565b6000613d3c603c836142ff565b9150613d4782614750565b604082019050919050565b6000613d5f6010836142ff565b9150613d6a8261479f565b602082019050919050565b6000613d826054836142ff565b9150613d8d826147c8565b606082019050919050565b6000613da56010836142ff565b9150613db08261483d565b602082019050919050565b6000613dc8603d836142ff565b9150613dd382614866565b604082019050919050565b6000613deb603c836142ff565b9150613df6826148b5565b604082019050919050565b6000613e0e6020836142ff565b9150613e1982614904565b602082019050919050565b6000613e31604a836142ff565b9150613e3c8261492d565b606082019050919050565b6000613e546025836142ff565b9150613e5f826149a2565b604082019050919050565b6000613e776039836142ff565b9150613e82826149f1565b604082019050919050565b613e9681614463565b82525050565b6000602082019050613eb16000830184613bbd565b92915050565b6000604082019050613ecc6000830185613bbd565b613ed96020830184613bbd565b9392505050565b6000606082019050613ef56000830186613bbd565b613f026020830185613bbd565b613f0f6040830184613e8d565b949350505050565b6000604082019050613f2c6000830185613bbd565b613f396020830184613e8d565b9392505050565b6000602082019050613f556000830184613bcc565b92915050565b6000602082019050613f706000830184613bdb565b92915050565b60006060820190508181036000830152613f908186613bea565b9050613f9f6020830185613e8d565b613fac6040830184613e8d565b949350505050565b60006040820190508181036000830152613fce8185613c23565b9050613fdd6020830184613e8d565b9392505050565b60006060820190508181036000830152613ffe8186613c23565b905061400d6020830185613e8d565b61401a6040830184613e8d565b949350505050565b6000602082019050818103600083015261403b81613ca3565b9050919050565b6000602082019050818103600083015261405b81613cc6565b9050919050565b6000602082019050818103600083015261407b81613ce9565b9050919050565b6000602082019050818103600083015261409b81613d0c565b9050919050565b600060208201905081810360008301526140bb81613d2f565b9050919050565b600060208201905081810360008301526140db81613d52565b9050919050565b600060208201905081810360008301526140fb81613d75565b9050919050565b6000602082019050818103600083015261411b81613d98565b9050919050565b6000602082019050818103600083015261413b81613dbb565b9050919050565b6000602082019050818103600083015261415b81613dde565b9050919050565b6000602082019050818103600083015261417b81613e01565b9050919050565b6000602082019050818103600083015261419b81613e24565b9050919050565b600060208201905081810360008301526141bb81613e47565b9050919050565b600060208201905081810360008301526141db81613e6a565b9050919050565b60006020820190506141f76000830184613e8d565b92915050565b60006040820190506142126000830185613e8d565b61421f6020830184613e8d565b9392505050565b600060608201905061423b6000830186613e8d565b6142486020830185613e8d565b6142556040830184613e8d565b949350505050565b6000614267614278565b90506142738282614512565b919050565b6000604051905090565b600067ffffffffffffffff82111561429d5761429c6145fa565b5b602082029050602081019050919050565b600067ffffffffffffffff8211156142c9576142c86145fa565b5b6142d282614629565b9050602081019050919050565b60008190508160005260206000209050919050565b600081519050919050565b600082825260208201905092915050565b600061431b82614463565b915061432683614463565b9250827fffffffffffffffffffffffffffffffffffffffffffffffffffffffffffffffff0382111561435b5761435a61456d565b5b828201905092915050565b600061437182614463565b915061437c83614463565b92508261438c5761438b61459c565b5b828204905092915050565b60006143a282614463565b91506143ad83614463565b9250817fffffffffffffffffffffffffffffffffffffffffffffffffffffffffffffffff04831182151516156143e6576143e561456d565b5b828202905092915050565b60006143fc82614463565b915061440783614463565b92508282101561441a5761441961456d565b5b828203905092915050565b600061443082614443565b9050919050565b60008115159050919050565b600073ffffffffffffffffffffffffffffffffffffffff82169050919050565b6000819050919050565b600060ff82169050919050565b60006144858261448c565b9050919050565b600061449782614443565b9050919050565b82818337600083830152505050565b60005b838110156144cb5780820151818401526020810190506144b0565b838111156144da576000848401525b50505050565b600060028204905060018216806144f857607f821691505b6020821081141561450c5761450b6145cb565b5b50919050565b61451b82614629565b810181811067ffffffffffffffff8211171561453a576145396145fa565b5b80604052505050565b600061454e8261446d565b915060ff8214156145625761456161456d565b5b600182019050919050565b7f4e487b7100000000000000000000000000000000000000000000000000000000600052601160045260246000fd5b7f4e487b7100000000000000000000000000000000000000000000000000000000600052601260045260246000fd5b7f4e487b7100000000000000000000000000000000000000000000000000000000600052602260045260246000fd5b7f4e487b7100000000000000000000000000000000000000000000000000000000600052604160045260246000fd5b6000601f19601f8301169050919050565b7f496e76616c696420616d6f756e742e0000000000000000000000000000000000600082015250565b7f4f776e61626c653a206e6577206f776e657220697320746865207a65726f206160008201527f6464726573730000000000000000000000000000000000000000000000000000602082015250565b7f4163636573732069732064656e6965642e204475706c696361746520656e747260008201527f792e000000000000000000000000000000000000000000000000000000000000602082015250565b7f4163636573732069732064656e6965642e20546865207265717565737465642060008201527f616d6f756e74206578636565647320796f757220616c6c6f636174696f6e2e00602082015250565b7f4163636573732069732064656e6965642e205468652076657374696e6720736360008201527f686564756c652077617320616c72656164792072656c65617365642e00000000602082015250565b7f496e76616c696420616464726573732e00000000000000000000000000000000600082015250565b7f4163636573732069732064656e6965642e20596f752063616e20616c736f206560008201527f7874656e64207468652072656c65617365206461746520627574206e6f74207460208201527f6865206f74686572207761792061726f756e642e000000000000000000000000604082015250565b7f4e6f7468696e6720746f2066756e642e00000000000000000000000000000000600082015250565b7f4163636573732069732064656e6965642e20496e73756666696369656e74206260008201527f616c616e63652c2076657374696e67206361702065786365656465642e000000602082015250565b7f4163636573732069732064656e6965642e20526571756573746564207665737460008201527f696e67207363686564756c6520646f6573206e6f742065786973742e00000000602082015250565b7f4f776e61626c653a2063616c6c6572206973206e6f7420746865206f776e6572600082015250565b7f4163636573732069732064656e6965642e20596f7520617265206e6f7420616c60008201527f6c6f77656420746f207769746864726177206265666f7265207468652072656c60208201527f6561736520646174652e00000000000000000000000000000000000000000000604082015250565b7f4163636573732069732064656e6965642e20496e73756666696369656e74206660008201527f756e64732e000000000000000000000000000000000000000000000000000000602082015250565b7f4163636573732069732064656e6965642e20506c65617365207370656369667960008201527f2061206c6f6e6765722076657374696e6720706572696f642e00000000000000602082015250565b614a4981614425565b8114614a5457600080fd5b50565b614a6081614437565b8114614a6b57600080fd5b50565b614a7781614463565b8114614a8257600080fd5b5056fea264697066735822122011157e2aee07753d8684c4fd74c23e4ad6e844b8f5374fd7abbfe06a9756a74c64736f6c63430008040033",
  "linkReferences": {},
  "deployedLinkReferences": {}
}