{
  "contractName": "AaveStakingHandler",
  "abi": [
    {
      "inputs": [
        {
          "internalType": "address",
          "name": "aaveTokenAddress",
          "type": "address"
        },
        {
          "internalType": "address",
          "name": "stkAaveTokenAddress",
          "type": "address"
        },
        {
          "internalType": "address",
          "name": "multisigAddress",
          "type": "address"
        }
      ],
      "stateMutability": "nonpayable",
      "type": "constructor"
    },
    {
      "inputs": [],
      "name": "InvalidZeroAmount",
      "type": "error"
    },
    {
      "anonymous": false,
      "inputs": [
        {
          "indexed": false,
          "internalType": "address",
          "name": "staker",
          "type": "address"
        },
        {
          "indexed": false,
          "internalType": "uint256",
          "name": "claimAmount",
          "type": "uint256"
        },
        {
          "indexed": false,
          "internalType": "uint256",
          "name": "claimTimestamp",
          "type": "uint256"
        }
      ],
      "name": "ClaimAave",
      "type": "event"
    },
    {
      "anonymous": false,
      "inputs": [
        {
          "indexed": false,
          "internalType": "address",
          "name": "staker",
          "type": "address"
        },
        {
          "indexed": false,
          "internalType": "uint256",
          "name": "stakeAmount",
          "type": "uint256"
        },
        {
          "indexed": false,
          "internalType": "uint256",
          "name": "fee",
          "type": "uint256"
        }
      ],
      "name": "StakeAave",
      "type": "event"
    },
    {
      "inputs": [],
      "name": "AAVE_TOKEN",
      "outputs": [
        {
          "internalType": "address",
          "name": "",
          "type": "address"
        }
      ],
      "stateMutability": "view",
      "type": "function"
    },
    {
      "inputs": [],
      "name": "MULTISIG_WALLET",
      "outputs": [
        {
          "internalType": "address",
          "name": "",
          "type": "address"
        }
      ],
      "stateMutability": "view",
      "type": "function"
    },
    {
      "inputs": [],
      "name": "STK_AAVE_TOKEN",
      "outputs": [
        {
          "internalType": "address",
          "name": "",
          "type": "address"
        }
      ],
      "stateMutability": "view",
      "type": "function"
    },
    {
      "inputs": [
        {
          "internalType": "uint256",
          "name": "amount",
          "type": "uint256"
        }
      ],
      "name": "stake",
      "outputs": [],
      "stateMutability": "nonpayable",
      "type": "function"
    }
  ],
  "bytecode": "0x608060405234801561001057600080fd5b506040516105d43803806105d483398101604081905261002f9161008d565b600080546001600160a01b039485166001600160a01b0319918216179091556001805493851693821693909317909255600280549190931691161790556100d0565b80516001600160a01b038116811461008857600080fd5b919050565b6000806000606084860312156100a257600080fd5b6100ab84610071565b92506100b960208501610071565b91506100c760408501610071565b90509250925092565b6104f5806100df6000396000f3fe608060405234801561001057600080fd5b506004361061004c5760003560e01c80637bfef9ee14610051578063a592ad8814610080578063a694fc3a14610093578063e71e6bcb146100a8575b600080fd5b600254610064906001600160a01b031681565b6040516001600160a01b03909116815260200160405180910390f35b600154610064906001600160a01b031681565b6100a66100a1366004610424565b6100bb565b005b600054610064906001600160a01b031681565b80600081116100dd57604051630dd484e760e41b815260040160405180910390fd5b6000546040516323b872dd60e01b8152336004820152306024820152604481018490526001600160a01b03909116906323b872dd906064016020604051808303816000875af1158015610134573d6000803e3d6000fd5b505050506040513d601f19601f82011682018060405250810190610158919061043d565b5060005460015460405163095ea7b360e01b81526001600160a01b0391821660048201526024810185905291169063095ea7b3906044016020604051808303816000875af11580156101ae573d6000803e3d6000fd5b505050506040513d601f19601f820116820180604052508101906101d2919061043d565b506001546040516356e4bb9760e11b8152306004820152602481018490526001600160a01b039091169063adc9772e90604401600060405180830381600087803b15801561021f57600080fd5b505af1158015610233573d6000803e3d6000fd5b50506001546040516370a0823160e01b8152306004820152600093506001600160a01b0390911691506370a0823190602401602060405180830381865afa158015610282573d6000803e3d6000fd5b505050506040513d601f19601f820116820180604052508101906102a6919061045f565b905060006102b6826103e8610405565b60015460025460405163a9059cbb60e01b81526001600160a01b03918216600482015260248101849052929350169063a9059cbb906044016020604051808303816000875af115801561030d573d6000803e3d6000fd5b505050506040513d601f19601f82011682018060405250810190610331919061043d565b506001546001600160a01b031663a9059cbb3361034e8585610418565b6040516001600160e01b031960e085901b1681526001600160a01b03909216600483015260248201526044016020604051808303816000875af1158015610399573d6000803e3d6000fd5b505050506040513d601f19601f820116820180604052508101906103bd919061043d565b5060408051338152602081018690529081018290527f5835ce6fe71bd77a73ee0fd887c61b8e825b24fb3b09980b429b05914c0c29319060600160405180910390a150505050565b60006104118284610478565b9392505050565b6000610411828461049a565b60006020828403121561043657600080fd5b5035919050565b60006020828403121561044f57600080fd5b8151801515811461041157600080fd5b60006020828403121561047157600080fd5b5051919050565b60008261049557634e487b7160e01b600052601260045260246000fd5b500490565b6000828210156104ba57634e487b7160e01b600052601160045260246000fd5b50039056fea2646970667358221220e5817017e2c2aa9510faacb74722f87717431252d553b123e696134bff1b92ea64736f6c634300080b0033",
  "immutableReferences": {},
  "source": "// SPDX-License-Identifier: AGPL-3.0\n\npragma solidity ^0.8.11;\n\nimport \"@openzeppelin/contracts/token/ERC20/IERC20.sol\";\nimport \"@openzeppelin/contracts/utils/math/SafeMath.sol\";\nimport \"./interfaces/IStakedAave.sol\";\n\ncontract AaveStakingHandler {\n    using SafeMath for uint256;\n\n    address public AAVE_TOKEN;\n    address public STK_AAVE_TOKEN;\n    address public MULTISIG_WALLET;\n\n    // ------------- EVENT -------------\n    event StakeAave(address staker, uint256 stakeAmount, uint256 fee);\n    event ClaimAave(\n        address staker,\n        uint256 claimAmount,\n        uint256 claimTimestamp\n    );\n\n    // ------------- ERROR -------------\n    error InvalidZeroAmount();\n\n    // ------------- MODIFIER -------------\n    modifier onlyValidAmount(uint256 amount) {\n        if (amount <= 0) revert InvalidZeroAmount();\n        _;\n    }\n\n    constructor(\n        address aaveTokenAddress,\n        address stkAaveTokenAddress,\n        address multisigAddress\n    ) {\n        AAVE_TOKEN = aaveTokenAddress;\n        STK_AAVE_TOKEN = stkAaveTokenAddress;\n        MULTISIG_WALLET = multisigAddress;\n    }\n\n    function stake(uint256 amount) external onlyValidAmount(amount) {\n        IERC20(AAVE_TOKEN).transferFrom(msg.sender, address(this), amount);\n\n        // Stake AAVE\n        IERC20(AAVE_TOKEN).approve(STK_AAVE_TOKEN, amount);\n        IStakedAave(STK_AAVE_TOKEN).stake(address(this), amount);\n\n        // Distributing stkAAVE + fee\n        uint256 stakeAaveBalance = IERC20(STK_AAVE_TOKEN).balanceOf(\n            address(this)\n        );\n        uint256 stakingFee = SafeMath.div(stakeAaveBalance, 1000); // 0.1% fee\n        IERC20(STK_AAVE_TOKEN).transfer(MULTISIG_WALLET, stakingFee);\n        IERC20(STK_AAVE_TOKEN).transfer(\n            msg.sender,\n            SafeMath.sub(stakeAaveBalance, stakingFee)\n        );\n\n        emit StakeAave(msg.sender, amount, stakingFee);\n    }\n}\n",
  "sourcePath": "/Users/yosephks/Documents/GitHub/alpsfinance-smart-contracts/contracts/defi/aave/AaveStakingHandler.sol",
  "compiler": {
    "name": "solc",
    "version": "0.8.11+commit.d7f03943.Emscripten.clang"
  },
  "schemaVersion": "3.4.6",
  "updatedAt": "2022-05-07T15:19:07.094Z",
  "devdoc": {
    "kind": "dev",
    "methods": {},
    "version": 1
  },
  "userdoc": {
    "kind": "user",
    "methods": {},
    "version": 1
  }
}