{
  "contractName": "AaveLendingPoolHandler",
  "abi": [
    {
      "inputs": [
        {
          "internalType": "address",
          "name": "multisigAddress",
          "type": "address"
        }
      ],
      "stateMutability": "nonpayable",
      "type": "constructor"
    },
    {
      "anonymous": false,
      "inputs": [
        {
          "indexed": false,
          "internalType": "address",
          "name": "staker",
          "type": "address"
        },
        {
          "indexed": false,
          "internalType": "uint256",
          "name": "claimAmount",
          "type": "uint256"
        },
        {
          "indexed": false,
          "internalType": "uint256",
          "name": "claimTimestamp",
          "type": "uint256"
        }
      ],
      "name": "ClaimAave",
      "type": "event"
    },
    {
      "anonymous": false,
      "inputs": [
        {
          "indexed": false,
          "internalType": "address",
          "name": "staker",
          "type": "address"
        },
        {
          "indexed": false,
          "internalType": "uint256",
          "name": "stakeAmount",
          "type": "uint256"
        },
        {
          "indexed": false,
          "internalType": "uint256",
          "name": "fee",
          "type": "uint256"
        }
      ],
      "name": "StakeAave",
      "type": "event"
    },
    {
      "inputs": [],
      "name": "MULTISIG_WALLET",
      "outputs": [
        {
          "internalType": "address",
          "name": "",
          "type": "address"
        }
      ],
      "stateMutability": "view",
      "type": "function"
    },
    {
      "inputs": [],
      "name": "lend",
      "outputs": [],
      "stateMutability": "payable",
      "type": "function"
    },
    {
      "inputs": [
        {
          "internalType": "address",
          "name": "erc20Address",
          "type": "address"
        },
        {
          "internalType": "uint256",
          "name": "amount",
          "type": "uint256"
        }
      ],
      "name": "lend",
      "outputs": [],
      "stateMutability": "nonpayable",
      "type": "function"
    },
    {
      "inputs": [
        {
          "internalType": "uint256",
          "name": "amount",
          "type": "uint256"
        },
        {
          "internalType": "uint8",
          "name": "v",
          "type": "uint8"
        },
        {
          "internalType": "bytes32",
          "name": "r",
          "type": "bytes32"
        },
        {
          "internalType": "bytes32",
          "name": "s",
          "type": "bytes32"
        }
      ],
      "name": "lendWithPermit",
      "outputs": [],
      "stateMutability": "nonpayable",
      "type": "function"
    },
    {
      "inputs": [],
      "name": "borrow",
      "outputs": [],
      "stateMutability": "nonpayable",
      "type": "function"
    }
  ],
  "bytecode": "0x608060405234801561001057600080fd5b5060405161028b38038061028b83398101604081905261002f91610059565b6001600081905580546001600160a01b0319166001600160a01b0392909216919091179055610089565b60006020828403121561006b57600080fd5b81516001600160a01b038116811461008257600080fd5b9392505050565b6101f3806100986000396000f3fe60806040526004361061004a5760003560e01c80637bfef9ee1461004f57806397dffc611461008b578063a2fb342d14610095578063a3b7f493146100b4578063e68d3569146100d5575b600080fd5b34801561005b57600080fd5b5060015461006f906001600160a01b031681565b6040516001600160a01b03909116815260200160405180910390f35b6100936100e4565b005b3480156100a157600080fd5b506100936100b0366004610142565b5050565b3480156100c057600080fd5b506100936100cf36600461017a565b50505050565b3480156100e157600080fd5b50005b6002600054141561013b5760405162461bcd60e51b815260206004820152601f60248201527f5265656e7472616e637947756172643a207265656e7472616e742063616c6c00604482015260640160405180910390fd5b6001600055565b6000806040838503121561015557600080fd5b82356001600160a01b038116811461016c57600080fd5b946020939093013593505050565b6000806000806080858703121561019057600080fd5b84359350602085013560ff811681146101a857600080fd5b9396939550505050604082013591606001359056fea2646970667358221220a930ff9fd57b1fb8a1e2a2f81971494d09f30209df4a0e9f72dcc07a584eeacb64736f6c634300080b0033",
  "immutableReferences": {},
  "source": "// SPDX-License-Identifier: AGPL-3.0\n\npragma solidity ^0.8.11;\n\nimport {IERC20} from \"@openzeppelin/contracts/token/ERC20/IERC20.sol\";\nimport {SafeMath} from \"@openzeppelin/contracts/utils/math/SafeMath.sol\";\nimport {ReentrancyGuard} from \"@openzeppelin/contracts/security/ReentrancyGuard.sol\";\n\ncontract AaveLendingPoolHandler is ReentrancyGuard {\n    using SafeMath for uint256;\n\n    address public MULTISIG_WALLET;\n\n    // ============== EVENT ==============\n    event StakeAave(address staker, uint256 stakeAmount, uint256 fee);\n    event ClaimAave(\n        address staker,\n        uint256 claimAmount,\n        uint256 claimTimestamp\n    );\n\n    constructor(address multisigAddress) {\n        MULTISIG_WALLET = multisigAddress;\n    }\n\n    function lend() external payable nonReentrant {}\n\n    function lend(address erc20Address, uint256 amount) external {}\n\n    function lendWithPermit(\n        uint256 amount,\n        uint8 v,\n        bytes32 r,\n        bytes32 s\n    ) external {}\n\n    function borrow() external {}\n}\n",
  "sourcePath": "/Users/yosephks/Documents/GitHub/alpsfinance-smart-contracts/contracts/defi/aave/v2/AaveLendingPoolHandler.sol",
  "compiler": {
    "name": "solc",
    "version": "0.8.11+commit.d7f03943.Emscripten.clang"
  },
  "schemaVersion": "3.4.6",
  "updatedAt": "2022-05-15T10:04:47.188Z",
  "devdoc": {
    "kind": "dev",
    "methods": {},
    "version": 1
  },
  "userdoc": {
    "kind": "user",
    "methods": {},
    "version": 1
  }
}