{
  "contractName": "AaveStakingHandler",
  "abi": [
    {
      "inputs": [
        {
          "internalType": "address",
          "name": "aaveTokenAddress",
          "type": "address"
        },
        {
          "internalType": "address",
          "name": "stkAaveTokenAddress",
          "type": "address"
        },
        {
          "internalType": "address",
          "name": "multisigAddress",
          "type": "address"
        }
      ],
      "stateMutability": "nonpayable",
      "type": "constructor"
    },
    {
      "inputs": [],
      "name": "InvalidZeroAmount",
      "type": "error"
    },
    {
      "anonymous": false,
      "inputs": [
        {
          "indexed": false,
          "internalType": "address",
          "name": "staker",
          "type": "address"
        },
        {
          "indexed": false,
          "internalType": "uint256",
          "name": "claimAmount",
          "type": "uint256"
        },
        {
          "indexed": false,
          "internalType": "uint256",
          "name": "claimTimestamp",
          "type": "uint256"
        }
      ],
      "name": "ClaimAave",
      "type": "event"
    },
    {
      "anonymous": false,
      "inputs": [
        {
          "indexed": false,
          "internalType": "address",
          "name": "staker",
          "type": "address"
        },
        {
          "indexed": false,
          "internalType": "uint256",
          "name": "stakeAmount",
          "type": "uint256"
        },
        {
          "indexed": false,
          "internalType": "uint256",
          "name": "fee",
          "type": "uint256"
        }
      ],
      "name": "StakeAave",
      "type": "event"
    },
    {
      "inputs": [],
      "name": "AAVE_TOKEN",
      "outputs": [
        {
          "internalType": "address",
          "name": "",
          "type": "address"
        }
      ],
      "stateMutability": "view",
      "type": "function"
    },
    {
      "inputs": [],
      "name": "MULTISIG_WALLET",
      "outputs": [
        {
          "internalType": "address",
          "name": "",
          "type": "address"
        }
      ],
      "stateMutability": "view",
      "type": "function"
    },
    {
      "inputs": [],
      "name": "STK_AAVE_TOKEN",
      "outputs": [
        {
          "internalType": "address",
          "name": "",
          "type": "address"
        }
      ],
      "stateMutability": "view",
      "type": "function"
    },
    {
      "inputs": [
        {
          "internalType": "uint256",
          "name": "amount",
          "type": "uint256"
        }
      ],
      "name": "stake",
      "outputs": [],
      "stateMutability": "nonpayable",
      "type": "function"
    },
    {
      "inputs": [
        {
          "internalType": "uint256",
          "name": "amount",
          "type": "uint256"
        },
        {
          "internalType": "uint8",
          "name": "v",
          "type": "uint8"
        },
        {
          "internalType": "bytes32",
          "name": "r",
          "type": "bytes32"
        },
        {
          "internalType": "bytes32",
          "name": "s",
          "type": "bytes32"
        }
      ],
      "name": "stakeWithPermit",
      "outputs": [],
      "stateMutability": "nonpayable",
      "type": "function"
    },
    {
      "inputs": [
        {
          "internalType": "uint256",
          "name": "amount",
          "type": "uint256"
        }
      ],
      "name": "unstake",
      "outputs": [],
      "stateMutability": "nonpayable",
      "type": "function"
    },
    {
      "inputs": [
        {
          "internalType": "uint256",
          "name": "amount",
          "type": "uint256"
        },
        {
          "internalType": "uint8",
          "name": "v",
          "type": "uint8"
        },
        {
          "internalType": "bytes32",
          "name": "r",
          "type": "bytes32"
        },
        {
          "internalType": "bytes32",
          "name": "s",
          "type": "bytes32"
        }
      ],
      "name": "unstakeWithPermit",
      "outputs": [],
      "stateMutability": "nonpayable",
      "type": "function"
    }
  ],
  "bytecode": "0x608060405234801561001057600080fd5b506040516108c73803806108c783398101604081905261002f9161008d565b600080546001600160a01b039485166001600160a01b0319918216179091556001805493851693821693909317909255600280549190931691161790556100d0565b80516001600160a01b038116811461008857600080fd5b919050565b6000806000606084860312156100a257600080fd5b6100ab84610071565b92506100b960208501610071565b91506100c760408501610071565b90509250925092565b6107e8806100df6000396000f3fe608060405234801561001057600080fd5b506004361061007d5760003560e01c8063a592ad881161005b578063a592ad88146100d9578063a694fc3a146100ec578063c04fd2d7146100ff578063e71e6bcb1461011257600080fd5b80632e17de78146100825780637bfef9ee14610097578063a5804aa2146100c6575b600080fd5b61009561009036600461068c565b610125565b005b6002546100aa906001600160a01b031681565b6040516001600160a01b03909116815260200160405180910390f35b6100956100d43660046106a5565b610154565b6001546100aa906001600160a01b031681565b6100956100fa36600461068c565b6101fd565b61009561010d3660046106a5565b610228565b6000546100aa906001600160a01b031681565b806000811161014757604051630dd484e760e41b815260040160405180910390fd5b610150826102ca565b5050565b836000811161017657604051630dd484e760e41b815260040160405180910390fd5b6001546001600160a01b031663d505accf333088610196426103846106fe565b8989896040518863ffffffff1660e01b81526004016101bb9796959493929190610716565b600060405180830381600087803b1580156101d557600080fd5b505af11580156101e9573d6000803e3d6000fd5b505050506101f6856102ca565b5050505050565b806000811161021f57604051630dd484e760e41b815260040160405180910390fd5b6101508261043e565b836000811161024a57604051630dd484e760e41b815260040160405180910390fd5b6000546001600160a01b031663d505accf33308861026a426103846106fe565b8989896040518863ffffffff1660e01b815260040161028f9796959493929190610716565b600060405180830381600087803b1580156102a957600080fd5b505af11580156102bd573d6000803e3d6000fd5b505050506101f68561043e565b6001546040516323b872dd60e01b8152336004820152306024820152604481018390526001600160a01b03909116906323b872dd906064016020604051808303816000875af1158015610321573d6000803e3d6000fd5b505050506040513d601f19601f820116820180604052508101906103459190610757565b506000610354826103e861066d565b6001546002546040516301e9a69560e41b81526001600160a01b039182166004820152602481018490529293501690631e9a695090604401600060405180830381600087803b1580156103a657600080fd5b505af11580156103ba573d6000803e3d6000fd5b50506001546001600160a01b03169150631e9a69509050336103dc8585610680565b6040516001600160e01b031960e085901b1681526001600160a01b0390921660048301526024820152604401600060405180830381600087803b15801561042257600080fd5b505af1158015610436573d6000803e3d6000fd5b505050505050565b6000546040516323b872dd60e01b8152336004820152306024820152604481018390526001600160a01b03909116906323b872dd906064016020604051808303816000875af1158015610495573d6000803e3d6000fd5b505050506040513d601f19601f820116820180604052508101906104b99190610757565b5060005460015460405163095ea7b360e01b81526001600160a01b0391821660048201526024810184905291169063095ea7b3906044016020604051808303816000875af115801561050f573d6000803e3d6000fd5b505050506040513d601f19601f820116820180604052508101906105339190610757565b506000610542826103e861066d565b6001549091506001600160a01b031663adc9772e336105618585610680565b6040516001600160e01b031960e085901b1681526001600160a01b0390921660048301526024820152604401600060405180830381600087803b1580156105a757600080fd5b505af11580156105bb573d6000803e3d6000fd5b50506001546002546040516356e4bb9760e11b81526001600160a01b039182166004820152602481018690529116925063adc9772e9150604401600060405180830381600087803b15801561060f57600080fd5b505af1158015610623573d6000803e3d6000fd5b505060408051338152602081018690529081018490527f5835ce6fe71bd77a73ee0fd887c61b8e825b24fb3b09980b429b05914c0c29319250606001905060405180910390a15050565b60006106798284610779565b9392505050565b6000610679828461079b565b60006020828403121561069e57600080fd5b5035919050565b600080600080608085870312156106bb57600080fd5b84359350602085013560ff811681146106d357600080fd5b93969395505050506040820135916060013590565b634e487b7160e01b600052601160045260246000fd5b60008219821115610711576107116106e8565b500190565b6001600160a01b0397881681529590961660208601526040850193909352606084019190915260ff16608083015260a082015260c081019190915260e00190565b60006020828403121561076957600080fd5b8151801515811461067957600080fd5b60008261079657634e487b7160e01b600052601260045260246000fd5b500490565b6000828210156107ad576107ad6106e8565b50039056fea2646970667358221220e3d5c8a355d4c274aebb5fa2ce08ecedf025f5506e0f82c51eb9f8aac9e09acd64736f6c634300080b0033",
  "immutableReferences": {},
  "source": "// SPDX-License-Identifier: AGPL-3.0\n\npragma solidity ^0.8.11;\n\nimport {IERC20} from \"@openzeppelin/contracts/token/ERC20/IERC20.sol\";\nimport {IERC20Permit} from \"@openzeppelin/contracts/token/ERC20/extensions/draft-IERC20Permit.sol\";\nimport {SafeMath} from \"@openzeppelin/contracts/utils/math/SafeMath.sol\";\nimport {IStakedAave} from \"./interfaces/IStakedAave.sol\";\n\ncontract AaveStakingHandler {\n    using SafeMath for uint256;\n\n    address public AAVE_TOKEN;\n    address public STK_AAVE_TOKEN;\n    address public MULTISIG_WALLET;\n\n    // ============== EVENT ==============\n    event StakeAave(address staker, uint256 stakeAmount, uint256 fee);\n    event ClaimAave(\n        address staker,\n        uint256 claimAmount,\n        uint256 claimTimestamp\n    );\n\n    // ============== ERROR ==============\n    error InvalidZeroAmount();\n\n    // ============== MODIFIER ==============\n    modifier onlyValidAmount(uint256 amount) {\n        if (amount <= 0) revert InvalidZeroAmount();\n        _;\n    }\n\n    constructor(\n        address aaveTokenAddress,\n        address stkAaveTokenAddress,\n        address multisigAddress\n    ) {\n        AAVE_TOKEN = aaveTokenAddress;\n        STK_AAVE_TOKEN = stkAaveTokenAddress;\n        MULTISIG_WALLET = multisigAddress;\n    }\n\n    /**\n     * @dev Stake Aave and minting StkAave\n     * @param amount - (uint256)\n     */\n    function stake(uint256 amount) external onlyValidAmount(amount) {\n        _stake(amount);\n    }\n\n    /**\n     * @dev Stake Aave and minting StkAave with Permit (no approval)\n     * @param amount - (uint256)\n     */\n    function stakeWithPermit(\n        uint256 amount,\n        uint8 v,\n        bytes32 r,\n        bytes32 s\n    ) external onlyValidAmount(amount) {\n        IERC20Permit(AAVE_TOKEN).permit(\n            msg.sender,\n            address(this),\n            amount,\n            block.timestamp + 15 minutes,\n            v,\n            r,\n            s\n        );\n        _stake(amount);\n    }\n\n    /**\n     * @dev Unstake Aave by burning StkAave\n     * @param amount - (uint256) Amount of StkAave that would like to be unstaked\n     */\n    function unstake(uint256 amount) external onlyValidAmount(amount) {\n        _unstake(amount);\n    }\n\n    /**\n     * @dev Unstake Aave by burning StkAave with Permit (no approval)\n     * @param amount - (uint256)\n     */\n    function unstakeWithPermit(\n        uint256 amount,\n        uint8 v,\n        bytes32 r,\n        bytes32 s\n    ) external onlyValidAmount(amount) {\n        IERC20Permit(STK_AAVE_TOKEN).permit(\n            msg.sender,\n            address(this),\n            amount,\n            block.timestamp + 15 minutes,\n            v,\n            r,\n            s\n        );\n        _unstake(amount);\n    }\n\n    // ==================== INTERNAL FUNCTIONS ====================\n\n    function _stake(uint256 amount) internal {\n        IERC20(AAVE_TOKEN).transferFrom(msg.sender, address(this), amount);\n\n        // Stake AAVE\n        IERC20(AAVE_TOKEN).approve(STK_AAVE_TOKEN, amount);\n        uint256 stakingFee = SafeMath.div(amount, 1000); // 0.1% fee\n        IStakedAave(STK_AAVE_TOKEN).stake(\n            msg.sender,\n            SafeMath.sub(amount, stakingFee)\n        );\n        IStakedAave(STK_AAVE_TOKEN).stake(MULTISIG_WALLET, stakingFee);\n\n        emit StakeAave(msg.sender, amount, stakingFee);\n    }\n\n    function _unstake(uint256 amount) internal {\n        IERC20(STK_AAVE_TOKEN).transferFrom(msg.sender, address(this), amount);\n        uint256 unstakingFee = SafeMath.div(amount, 1000); // 0.1% fee\n        IStakedAave(STK_AAVE_TOKEN).redeem(MULTISIG_WALLET, unstakingFee);\n        IStakedAave(STK_AAVE_TOKEN).redeem(\n            msg.sender,\n            SafeMath.sub(amount, unstakingFee)\n        );\n    }\n}\n",
  "sourcePath": "/Users/yosephks/Documents/GitHub/alpsfinance-smart-contracts/contracts/defi/aave/AaveStakingHandler.sol",
  "compiler": {
    "name": "solc",
    "version": "0.8.11+commit.d7f03943.Emscripten.clang"
  },
  "schemaVersion": "3.4.6",
  "updatedAt": "2022-05-10T14:44:37.736Z",
  "devdoc": {
    "kind": "dev",
    "methods": {
      "stake(uint256)": {
        "details": "Stake Aave and minting StkAave",
        "params": {
          "amount": "- (uint256)"
        }
      },
      "stakeWithPermit(uint256,uint8,bytes32,bytes32)": {
        "details": "Stake Aave and minting StkAave with Permit (no approval)",
        "params": {
          "amount": "- (uint256)"
        }
      },
      "unstake(uint256)": {
        "details": "Unstake Aave by burning StkAave",
        "params": {
          "amount": "- (uint256) Amount of StkAave that would like to be unstaked"
        }
      },
      "unstakeWithPermit(uint256,uint8,bytes32,bytes32)": {
        "details": "Unstake Aave by burning StkAave with Permit (no approval)",
        "params": {
          "amount": "- (uint256)"
        }
      }
    },
    "version": 1
  },
  "userdoc": {
    "kind": "user",
    "methods": {},
    "version": 1
  }
}