{
  "contractName": "AccountManager",
  "abi": [
    {
      "inputs": [
        {
          "internalType": "address",
          "name": "",
          "type": "address"
        }
      ],
      "name": "hedgeFundAccountRegistry",
      "outputs": [
        {
          "internalType": "address",
          "name": "",
          "type": "address"
        }
      ],
      "stateMutability": "view",
      "type": "function"
    },
    {
      "inputs": [
        {
          "internalType": "address",
          "name": "",
          "type": "address"
        }
      ],
      "name": "marginAccountRegistry",
      "outputs": [
        {
          "internalType": "address",
          "name": "",
          "type": "address"
        }
      ],
      "stateMutability": "view",
      "type": "function"
    },
    {
      "inputs": [
        {
          "internalType": "uint256",
          "name": "accountId",
          "type": "uint256"
        }
      ],
      "name": "createNewAccount",
      "outputs": [],
      "stateMutability": "nonpayable",
      "type": "function"
    },
    {
      "inputs": [
        {
          "internalType": "uint256",
          "name": "accountId",
          "type": "uint256"
        },
        {
          "internalType": "address",
          "name": "accountAddress",
          "type": "address"
        }
      ],
      "name": "deleteAccount",
      "outputs": [],
      "stateMutability": "nonpayable",
      "type": "function"
    }
  ],
  "bytecode": "0x608060405234801561001057600080fd5b506105b8806100206000396000f3fe608060405234801561001057600080fd5b506004361061004c5760003560e01c806341596f081461005157806385a237a914610096578063a7a368fe146100ab578063c787c924146100be575b600080fd5b61007a61005f366004610463565b6000602081905290815260409020546001600160a01b031681565b6040516001600160a01b03909116815260200160405180910390f35b6100a96100a4366004610485565b6100e7565b005b6100a96100b936600461049e565b61027c565b61007a6100cc366004610463565b6001602052600090815260409020546001600160a01b031681565b8060006100f8565b60405180910390fd5b600061010483336103d3565b6001600160a01b03161461016a5760405162461bcd60e51b815260206004820152602760248201527f416e206578697374696e67206163636f756e7420666f756e6420666f722074686044820152666520757365722160c81b60648201526084016100ef565b826101cd57600060405161017d9061042f565b604051809103906000f080158015610199573d6000803e3d6000fd5b5033600090815260208190526040902080546001600160a01b0319166001600160a01b039290921691909117905550505050565b82600114156102345760006040516101e49061043b565b604051809103906000f080158015610200573d6000803e3d6000fd5b5033600090815260016020526040902080546001600160a01b0319166001600160a01b039290921691909117905550505050565b60405162461bcd60e51b815260206004820152601c60248201527f4e6f7420612076616c6964206163636f756e74496420676976656e210000000060448201526064016100ef565b816001600061028b83336103d3565b6001600160a01b031614156102f25760405162461bcd60e51b815260206004820152602760248201527f4e6f206578697374696e67206163636f756e7420666f756e6420666f722074686044820152666520757365722160c81b60648201526084016100ef565b8383806001600160a01b031661030883336103d3565b6001600160a01b03161461037d5760405162461bcd60e51b815260206004820152603660248201527f596f7520617265206e6f7420746865206163636f756e74206f776e6572206f666044820152752074686973206163636f756e7420616464726573732160501b60648201526084016100ef565b856103a45733600090815260208190526040902080546001600160a01b03191690556103cb565b85600114156103cb5733600090815260016020526040902080546001600160a01b03191690555b505050505050565b6000826103fb57506001600160a01b0380821660009081526020819052604090205416610429565b826001141561042557506001600160a01b0380821660009081526001602052604090205416610429565b5060005b92915050565b605c806104cb83390190565b605c8061052783390190565b80356001600160a01b038116811461045e57600080fd5b919050565b60006020828403121561047557600080fd5b61047e82610447565b9392505050565b60006020828403121561049757600080fd5b5035919050565b600080604083850312156104b157600080fd5b823591506104c160208401610447565b9050925092905056fe6080604052348015600f57600080fd5b50603f80601d6000396000f3fe6080604052600080fdfea26469706673582212209936d5b4154ffa68877b2a46f48947ef4ceb28bd8f57c4b01ffc73cd11d6d3ca64736f6c634300080b00336080604052348015600f57600080fd5b50603f80601d6000396000f3fe6080604052600080fdfea2646970667358221220bd43032aec356872ba20d0d3b353cff3ef7894f2bec4b0ea64abc346cc108c8f64736f6c634300080b0033a2646970667358221220a9e15691fba2f48529226c6a4acd8da461d52e6ddfe7b303047c7627f6ae176664736f6c634300080b0033",
  "immutableReferences": {},
  "source": "// SPDX-License-Identifier: AGPL-3.0\r\n\r\npragma solidity ^0.8.11;\r\n\r\nimport \"./MarginAccount.sol\";\r\nimport \"./HedgeFundAccount.sol\";\r\n\r\n/**\r\n * THIS IS THE `AccountManager` contract\r\n *\r\n * Description:\r\n *\r\n * This contract will function as a manager + factory for the account contracts.\r\n * Some of the main functionality for the `AccountManager` contract will be to:\r\n * - Create a new user account\r\n * - Delete an existing user account\r\n * - Managing access control to protect user's account\r\n *\r\n * Currently there are two types of account:\r\n * - Margin Account (accountId = 0)\r\n * - Hedge Fund Account (accountId = 1)\r\n */\r\ncontract AccountManager {\r\n    /**\r\n     * ACCOUNT REGISTRIES\r\n     *\r\n     * The registry variables is used to store users account information in mapping type\r\n     * - first address is for user address, e.g. msg.sender\r\n     * - second address is for account address (type: margin or hedge fund)\r\n     */\r\n    mapping(address => address) public marginAccountRegistry;\r\n    mapping(address => address) public hedgeFundAccountRegistry;\r\n\r\n    /**\r\n     * Check whether `msg.sender` is the account owner of `accountAddress`\r\n     */\r\n    modifier onlyAccountOwner(uint256 accountId, address accountAddress) {\r\n        require(\r\n            getAccountAddressById(accountId, msg.sender) == accountAddress,\r\n            \"You are not the account owner of this account address!\"\r\n        );\r\n        _;\r\n    }\r\n\r\n    /**\r\n     * To check whether the user has an existing account based on `isExist`\r\n     */\r\n    modifier onlyAccountExist(uint256 accountId, bool isExist) {\r\n        if (isExist) {\r\n            require(\r\n                getAccountAddressById(accountId, msg.sender) != address(0),\r\n                \"No existing account found for the user!\"\r\n            );\r\n        } else {\r\n            require(\r\n                getAccountAddressById(accountId, msg.sender) == address(0),\r\n                \"An existing account found for the user!\"\r\n            );\r\n        }\r\n        _;\r\n    }\r\n\r\n    /**\r\n     * Get Account address by `accountId`\r\n     */\r\n    function getAccountAddressById(uint256 accountId, address msgSender)\r\n        internal\r\n        view\r\n        returns (address)\r\n    {\r\n        if (accountId == 0) {\r\n            return marginAccountRegistry[msgSender];\r\n        } else if (accountId == 1) {\r\n            return hedgeFundAccountRegistry[msgSender];\r\n        } else {\r\n            return address(0);\r\n        }\r\n    }\r\n\r\n    /**\r\n     * Create new user account with type based on `accountId`\r\n     */\r\n    function createNewAccount(uint256 accountId)\r\n        external\r\n        onlyAccountExist(accountId, false)\r\n    {\r\n        if (accountId == 0) {\r\n            MarginAccount newMarginAccount = new MarginAccount();\r\n            marginAccountRegistry[msg.sender] = address(newMarginAccount);\r\n        } else if (accountId == 1) {\r\n            HedgeFundAccount newHedgeFundAccount = new HedgeFundAccount();\r\n            hedgeFundAccountRegistry[msg.sender] = address(newHedgeFundAccount);\r\n        } else {\r\n            revert(\"Not a valid accountId given!\");\r\n        }\r\n    }\r\n\r\n    /**\r\n     * Delete an existing user account of `accountAddress`\r\n     */\r\n    function deleteAccount(uint256 accountId, address accountAddress)\r\n        public\r\n        onlyAccountExist(accountId, true)\r\n        onlyAccountOwner(accountId, accountAddress)\r\n    {\r\n        if (accountId == 0) {\r\n            marginAccountRegistry[msg.sender] = address(0);\r\n        } else if (accountId == 1) {\r\n            hedgeFundAccountRegistry[msg.sender] = address(0);\r\n        } else {}\r\n    }\r\n}\r\n",
  "sourcePath": "C:\\Users\\user\\Desktop\\alpsfinance-smart-contracts\\contracts\\account\\AccountManager.sol",
  "compiler": {
    "name": "solc",
    "version": "0.8.11+commit.d7f03943.Emscripten.clang"
  },
  "schemaVersion": "3.4.5",
  "updatedAt": "2022-04-02T13:44:00.086Z",
  "devdoc": {
    "kind": "dev",
    "methods": {},
    "version": 1
  },
  "userdoc": {
    "kind": "user",
    "methods": {
      "createNewAccount(uint256)": {
        "notice": "Create new user account with type based on `accountId`"
      },
      "deleteAccount(uint256,address)": {
        "notice": "Delete an existing user account of `accountAddress`"
      },
      "marginAccountRegistry(address)": {
        "notice": "ACCOUNT REGISTRIES The registry variables is used to store users account information in mapping type - first address is for user address, e.g. msg.sender - second address is for account address (type: margin or hedge fund)"
      }
    },
    "notice": "THIS IS THE `AccountManager` contract Description: This contract will function as a manager + factory for the account contracts. Some of the main functionality for the `AccountManager` contract will be to: - Create a new user account - Delete an existing user account - Managing access control to protect user's account Currently there are two types of account: - Margin Account (accountId = 0) - Hedge Fund Account (accountId = 1)",
    "version": 1
  }
}