{
  "contractName": "AccountManager",
  "abi": [
    {
      "inputs": [
        {
          "internalType": "address",
          "name": "",
          "type": "address"
        }
      ],
      "name": "hedgeFundAccountRegistry",
      "outputs": [
        {
          "internalType": "address",
          "name": "",
          "type": "address"
        }
      ],
      "stateMutability": "view",
      "type": "function"
    },
    {
      "inputs": [
        {
          "internalType": "address",
          "name": "",
          "type": "address"
        }
      ],
      "name": "marginAccountRegistry",
      "outputs": [
        {
          "internalType": "address",
          "name": "",
          "type": "address"
        }
      ],
      "stateMutability": "view",
      "type": "function"
    },
    {
      "inputs": [
        {
          "internalType": "uint256",
          "name": "accountId",
          "type": "uint256"
        }
      ],
      "name": "createNewAccount",
      "outputs": [],
      "stateMutability": "nonpayable",
      "type": "function"
    },
    {
      "inputs": [
        {
          "internalType": "uint256",
          "name": "accountId",
          "type": "uint256"
        },
        {
          "internalType": "address",
          "name": "accountAddress",
          "type": "address"
        }
      ],
      "name": "deleteAccount",
      "outputs": [],
      "stateMutability": "nonpayable",
      "type": "function"
    }
  ],
  "bytecode": "0x608060405234801561001057600080fd5b506105b8806100206000396000f3fe608060405234801561001057600080fd5b506004361061004c5760003560e01c806341596f081461005157806385a237a914610096578063a7a368fe146100ab578063c787c924146100be575b600080fd5b61007a61005f366004610463565b6000602081905290815260409020546001600160a01b031681565b6040516001600160a01b03909116815260200160405180910390f35b6100a96100a4366004610485565b6100e7565b005b6100a96100b936600461049e565b61027c565b61007a6100cc366004610463565b6001602052600090815260409020546001600160a01b031681565b8060006100f8565b60405180910390fd5b600061010483336103d3565b6001600160a01b03161461016a5760405162461bcd60e51b815260206004820152602760248201527f416e206578697374696e67206163636f756e7420666f756e6420666f722074686044820152666520757365722160c81b60648201526084016100ef565b826101cd57600060405161017d9061042f565b604051809103906000f080158015610199573d6000803e3d6000fd5b5033600090815260208190526040902080546001600160a01b0319166001600160a01b039290921691909117905550505050565b82600114156102345760006040516101e49061043b565b604051809103906000f080158015610200573d6000803e3d6000fd5b5033600090815260016020526040902080546001600160a01b0319166001600160a01b039290921691909117905550505050565b60405162461bcd60e51b815260206004820152601c60248201527f4e6f7420612076616c6964206163636f756e74496420676976656e210000000060448201526064016100ef565b816001600061028b83336103d3565b6001600160a01b031614156102f25760405162461bcd60e51b815260206004820152602760248201527f4e6f206578697374696e67206163636f756e7420666f756e6420666f722074686044820152666520757365722160c81b60648201526084016100ef565b8383806001600160a01b031661030883336103d3565b6001600160a01b03161461037d5760405162461bcd60e51b815260206004820152603660248201527f596f7520617265206e6f7420746865206163636f756e74206f776e6572206f666044820152752074686973206163636f756e7420616464726573732160501b60648201526084016100ef565b856103a45733600090815260208190526040902080546001600160a01b03191690556103cb565b85600114156103cb5733600090815260016020526040902080546001600160a01b03191690555b505050505050565b6000826103fb57506001600160a01b0380821660009081526020819052604090205416610429565b826001141561042557506001600160a01b0380821660009081526001602052604090205416610429565b5060005b92915050565b605c806104cb83390190565b605c8061052783390190565b80356001600160a01b038116811461045e57600080fd5b919050565b60006020828403121561047557600080fd5b61047e82610447565b9392505050565b60006020828403121561049757600080fd5b5035919050565b600080604083850312156104b157600080fd5b823591506104c160208401610447565b9050925092905056fe6080604052348015600f57600080fd5b50603f80601d6000396000f3fe6080604052600080fdfea264697066735822122024691ad3b39668e7fe5d1eb35e84fb02a09a7f911004a85cb45bc27b61da4d2764736f6c634300080b00336080604052348015600f57600080fd5b50603f80601d6000396000f3fe6080604052600080fdfea2646970667358221220b00f0803c7be2ee89cb3617f40a29fd6c5a43d088888963e3a8a9eaf7da8fbc764736f6c634300080b0033a2646970667358221220fa34ac00ad052cdca7212523055d79a7c688065065c064d1140659f70274b93f64736f6c634300080b0033",
  "immutableReferences": {},
  "source": "// SPDX-License-Identifier: AGPL-3.0\n\npragma solidity ^0.8.11;\n\nimport \"./MarginAccount.sol\";\nimport \"./HedgeFundAccount.sol\";\n\n/**\n * THIS IS THE `AccountManager` contract\n *\n * Description:\n *\n * This contract will function as a manager + factory for the account contracts.\n * Some of the main functionality for the `AccountManager` contract will be to:\n * - Create a new user account\n * - Delete an existing user account\n * - Managing access control to protect user's account\n *\n * Currently there are two types of account:\n * - Margin Account (accountId = 0)\n * - Hedge Fund Account (accountId = 1)\n */\ncontract AccountManager {\n    /**\n     * ACCOUNT REGISTRIES\n     *\n     * The registry variables is used to store users account information in mapping type\n     * - first address is for user address, e.g. msg.sender\n     * - second address is for account address (type: margin or hedge fund)\n     */\n    mapping(address => address) public marginAccountRegistry;\n    mapping(address => address) public hedgeFundAccountRegistry;\n\n    /**\n     * Check whether `msg.sender` is the account owner of `accountAddress`\n     */\n    modifier onlyAccountOwner(uint256 accountId, address accountAddress) {\n        require(\n            getAccountAddressById(accountId, msg.sender) == accountAddress,\n            \"You are not the account owner of this account address!\"\n        );\n        _;\n    }\n\n    /**\n     * To check whether the user has an existing account based on `isExist`\n     */\n    modifier onlyAccountExist(uint256 accountId, bool isExist) {\n        if (isExist) {\n            require(\n                getAccountAddressById(accountId, msg.sender) != address(0),\n                \"No existing account found for the user!\"\n            );\n        } else {\n            require(\n                getAccountAddressById(accountId, msg.sender) == address(0),\n                \"An existing account found for the user!\"\n            );\n        }\n        _;\n    }\n\n    /**\n     * Get Account address by `accountId`\n     */\n    function getAccountAddressById(uint256 accountId, address msgSender)\n        internal\n        view\n        returns (address)\n    {\n        if (accountId == 0) {\n            return marginAccountRegistry[msgSender];\n        } else if (accountId == 1) {\n            return hedgeFundAccountRegistry[msgSender];\n        } else {\n            return address(0);\n        }\n    }\n\n    /**\n     * Create new user account with type based on `accountId`\n     */\n    function createNewAccount(uint256 accountId)\n        external\n        onlyAccountExist(accountId, false)\n    {\n        if (accountId == 0) {\n            MarginAccount newMarginAccount = new MarginAccount();\n            marginAccountRegistry[msg.sender] = address(newMarginAccount);\n        } else if (accountId == 1) {\n            HedgeFundAccount newHedgeFundAccount = new HedgeFundAccount();\n            hedgeFundAccountRegistry[msg.sender] = address(newHedgeFundAccount);\n        } else {\n            revert(\"Not a valid accountId given!\");\n        }\n    }\n\n    /**\n     * Delete an existing user account of `accountAddress`\n     */\n    function deleteAccount(uint256 accountId, address accountAddress)\n        public\n        onlyAccountExist(accountId, true)\n        onlyAccountOwner(accountId, accountAddress)\n    {\n        if (accountId == 0) {\n            marginAccountRegistry[msg.sender] = address(0);\n        } else if (accountId == 1) {\n            hedgeFundAccountRegistry[msg.sender] = address(0);\n        } else {}\n    }\n}\n",
  "sourcePath": "/Users/yosephks/Documents/GitHub/alpsfinance-smart-contracts/contracts/account/AccountManager.sol",
  "compiler": {
    "name": "solc",
    "version": "0.8.11+commit.d7f03943.Emscripten.clang"
  },
  "schemaVersion": "3.4.4",
  "updatedAt": "2022-02-28T17:20:17.742Z",
  "devdoc": {
    "kind": "dev",
    "methods": {},
    "version": 1
  },
  "userdoc": {
    "kind": "user",
    "methods": {
      "createNewAccount(uint256)": {
        "notice": "Create new user account with type based on `accountId`"
      },
      "deleteAccount(uint256,address)": {
        "notice": "Delete an existing user account of `accountAddress`"
      },
      "marginAccountRegistry(address)": {
        "notice": "ACCOUNT REGISTRIES The registry variables is used to store users account information in mapping type - first address is for user address, e.g. msg.sender - second address is for account address (type: margin or hedge fund)"
      }
    },
    "notice": "THIS IS THE `AccountManager` contract Description: This contract will function as a manager + factory for the account contracts. Some of the main functionality for the `AccountManager` contract will be to: - Create a new user account - Delete an existing user account - Managing access control to protect user's account Currently there are two types of account: - Margin Account (accountId = 0) - Hedge Fund Account (accountId = 1)",
    "version": 1
  }
}