{
  "contractName": "Airdrop",
  "abi": [
    {
      "inputs": [
        {
          "internalType": "address",
          "name": "_tokenAddress",
          "type": "address"
        },
        {
          "internalType": "bytes32",
          "name": "_merkleRoot",
          "type": "bytes32"
        }
      ],
      "stateMutability": "nonpayable",
      "type": "constructor"
    },
    {
      "anonymous": false,
      "inputs": [
        {
          "indexed": true,
          "internalType": "address",
          "name": "to",
          "type": "address"
        },
        {
          "indexed": false,
          "internalType": "uint256",
          "name": "amount",
          "type": "uint256"
        }
      ],
      "name": "Claim",
      "type": "event"
    },
    {
      "anonymous": false,
      "inputs": [
        {
          "indexed": true,
          "internalType": "address",
          "name": "previousOwner",
          "type": "address"
        },
        {
          "indexed": true,
          "internalType": "address",
          "name": "newOwner",
          "type": "address"
        }
      ],
      "name": "OwnershipTransferred",
      "type": "event"
    },
    {
      "inputs": [
        {
          "internalType": "address",
          "name": "",
          "type": "address"
        }
      ],
      "name": "airdropClaimed",
      "outputs": [
        {
          "internalType": "bool",
          "name": "",
          "type": "bool"
        }
      ],
      "stateMutability": "view",
      "type": "function"
    },
    {
      "inputs": [],
      "name": "owner",
      "outputs": [
        {
          "internalType": "address",
          "name": "",
          "type": "address"
        }
      ],
      "stateMutability": "view",
      "type": "function"
    },
    {
      "inputs": [],
      "name": "renounceOwnership",
      "outputs": [],
      "stateMutability": "nonpayable",
      "type": "function"
    },
    {
      "inputs": [],
      "name": "tokenAddress",
      "outputs": [
        {
          "internalType": "address",
          "name": "",
          "type": "address"
        }
      ],
      "stateMutability": "view",
      "type": "function"
    },
    {
      "inputs": [
        {
          "internalType": "address",
          "name": "newOwner",
          "type": "address"
        }
      ],
      "name": "transferOwnership",
      "outputs": [],
      "stateMutability": "nonpayable",
      "type": "function"
    },
    {
      "inputs": [],
      "name": "getMerkleRoot",
      "outputs": [
        {
          "internalType": "bytes32",
          "name": "",
          "type": "bytes32"
        }
      ],
      "stateMutability": "view",
      "type": "function"
    },
    {
      "inputs": [
        {
          "internalType": "bytes32",
          "name": "_newMerkleRoot",
          "type": "bytes32"
        }
      ],
      "name": "setMerkleRoot",
      "outputs": [],
      "stateMutability": "nonpayable",
      "type": "function"
    },
    {
      "inputs": [
        {
          "internalType": "uint256",
          "name": "amount",
          "type": "uint256"
        },
        {
          "internalType": "bytes32[]",
          "name": "proof",
          "type": "bytes32[]"
        }
      ],
      "name": "claim",
      "outputs": [],
      "stateMutability": "nonpayable",
      "type": "function"
    }
  ],
  "bytecode": "0x608060405234801561001057600080fd5b506040516108f73803806108f783398101604081905261002f916100b5565b61003833610065565b60018055600280546001600160a01b0319166001600160a01b0393909316929092179091556003556100ef565b600080546001600160a01b038381166001600160a01b0319831681178455604051919092169283917f8be0079c531659141344cd1fd0a4f28419497f9722a3daafe3b4186f6b6457e09190a35050565b600080604083850312156100c857600080fd5b82516001600160a01b03811681146100df57600080fd5b6020939093015192949293505050565b6107f9806100fe6000396000f3fe608060405234801561001057600080fd5b50600436106100885760003560e01c80638da5cb5b1161005b5780638da5cb5b146100d85780639d76ea58146100fd578063d1b6dd3014610110578063f2fde38b1461014357600080fd5b80632f52ebb71461008d57806349590657146100a2578063715018a6146100bd5780637cb64759146100c5575b600080fd5b6100a061009b366004610687565b610156565b005b6100aa61040f565b6040519081526020015b60405180910390f35b6100a0610441565b6100a06100d3366004610706565b610477565b6000546001600160a01b03165b6040516001600160a01b0390911681526020016100b4565b6002546100e5906001600160a01b031681565b61013361011e36600461071f565b60046020526000908152604090205460ff1681565b60405190151581526020016100b4565b6100a061015136600461071f565b610512565b600260015414156101ae5760405162461bcd60e51b815260206004820152601f60248201527f5265656e7472616e637947756172643a207265656e7472616e742063616c6c0060448201526064015b60405180910390fd5b6002600155826102005760405162461bcd60e51b815260206004820152601c60248201527f41697264726f703a20416d6f756e742063616e6e6f742062652030210000000060448201526064016101a5565b3360009081526004602052604090205460ff161561026b5760405162461bcd60e51b815260206004820152602260248201527f41697264726f703a2041697264726f7020686173206265656e20636c61696d65604482015261642160f01b60648201526084016101a5565b6040516bffffffffffffffffffffffff193360601b1660208201526034810184905260009060540160405160208183030381529060405280519060200120905060006102ee8484808060200260200160405190810160405280939291908181526020018383602002808284376000920191909152505060035491508590506105ad565b90508061034c5760405162461bcd60e51b815260206004820152602660248201527f41697264726f703a204164647265737320686173206e6f2041697264726f7020604482015265636c61696d2160d01b60648201526084016101a5565b33600081815260046020819052604091829020805460ff1916600117905560025491516340c10f1960e01b815290810192909252602482018790526001600160a01b03169081906340c10f1990604401600060405180830381600087803b1580156103b657600080fd5b505af11580156103ca573d6000803e3d6000fd5b50506040518881523392507f47cee97cb7acd717b3c0aa1435d004cd5b3c8c57d70dbceb4e4458bbd60e39d4915060200160405180910390a250506001805550505050565b600080546001600160a01b0316331461043a5760405162461bcd60e51b81526004016101a59061074f565b5060035490565b6000546001600160a01b0316331461046b5760405162461bcd60e51b81526004016101a59061074f565b61047560006105c3565b565b6000546001600160a01b031633146104a15760405162461bcd60e51b81526004016101a59061074f565b801515806104b157506003548114155b61050d5760405162461bcd60e51b815260206004820152602760248201527f41697264726f703a20496e76616c6964206e6577206d65726b6c6520726f6f746044820152662076616c75652160c81b60648201526084016101a5565b600355565b6000546001600160a01b0316331461053c5760405162461bcd60e51b81526004016101a59061074f565b6001600160a01b0381166105a15760405162461bcd60e51b815260206004820152602660248201527f4f776e61626c653a206e6577206f776e657220697320746865207a65726f206160448201526564647265737360d01b60648201526084016101a5565b6105aa816105c3565b50565b6000826105ba8584610613565b14949350505050565b600080546001600160a01b038381166001600160a01b0319831681178455604051919092169283917f8be0079c531659141344cd1fd0a4f28419497f9722a3daafe3b4186f6b6457e09190a35050565b600081815b845181101561067f57600085828151811061063557610635610784565b6020026020010151905080831161065b576000838152602082905260409020925061066c565b600081815260208490526040902092505b50806106778161079a565b915050610618565b509392505050565b60008060006040848603121561069c57600080fd5b83359250602084013567ffffffffffffffff808211156106bb57600080fd5b818601915086601f8301126106cf57600080fd5b8135818111156106de57600080fd5b8760208260051b85010111156106f357600080fd5b6020830194508093505050509250925092565b60006020828403121561071857600080fd5b5035919050565b60006020828403121561073157600080fd5b81356001600160a01b038116811461074857600080fd5b9392505050565b6020808252818101527f4f776e61626c653a2063616c6c6572206973206e6f7420746865206f776e6572604082015260600190565b634e487b7160e01b600052603260045260246000fd5b60006000198214156107bc57634e487b7160e01b600052601160045260246000fd5b506001019056fea2646970667358221220d97dc7f5aa1e5e2262b701a2caece0310cdb831151fe98466e1f95910968dbdc64736f6c634300080b0033",
  "immutableReferences": {},
  "source": "// SPDX-License-Identifier: AGPL-3.0\r\n\r\npragma solidity ^0.8.11;\r\n\r\nimport \"@openzeppelin/contracts/access/Ownable.sol\";\r\nimport \"@openzeppelin/contracts/utils/cryptography/MerkleProof.sol\";\r\nimport \"@openzeppelin/contracts/security/ReentrancyGuard.sol\";\r\nimport \"../token/interfaces/IERC20Custom.sol\";\r\n\r\ncontract Airdrop is Ownable, ReentrancyGuard {\r\n    address public tokenAddress;\r\n    bytes32 private merkleRoot;\r\n    mapping(address => bool) public airdropClaimed;\r\n\r\n    /**\r\n     * @notice Emitted after a successful token claim\r\n     * @param to recipient of claim\r\n     * @param amount of tokens claimed\r\n     */\r\n    event Claim(address indexed to, uint256 amount);\r\n\r\n    constructor(address _tokenAddress, bytes32 _merkleRoot) {\r\n        tokenAddress = _tokenAddress;\r\n        merkleRoot = _merkleRoot;\r\n    }\r\n\r\n    function getMerkleRoot() public view onlyOwner returns (bytes32) {\r\n        return merkleRoot;\r\n    }\r\n\r\n    function setMerkleRoot(bytes32 _newMerkleRoot) external onlyOwner {\r\n        require(\r\n            _newMerkleRoot != 0x00 || _newMerkleRoot != merkleRoot,\r\n            \"Airdrop: Invalid new merkle root value!\"\r\n        );\r\n        merkleRoot = _newMerkleRoot;\r\n    }\r\n\r\n    /**\r\n     * @notice Allows claiming tokens if address is part of merkle tree\r\n     * @param amount of tokens owed to claimee\r\n     * @param proof merkle proof to prove address and amount are in tree\r\n     */\r\n    function claim(uint256 amount, bytes32[] calldata proof)\r\n        external\r\n        nonReentrant\r\n    {\r\n        require(amount > 0, \"Airdrop: Amount cannot be 0!\");\r\n        // Throw if address has already claimed tokens\r\n        require(\r\n            !airdropClaimed[msg.sender],\r\n            \"Airdrop: Airdrop has been claimed!\"\r\n        );\r\n\r\n        // Verify merkle proof, or revert if not in tree\r\n        bytes32 leaf = keccak256(abi.encodePacked(msg.sender, amount));\r\n        bool isValidLeaf = MerkleProof.verify(proof, merkleRoot, leaf);\r\n        require(isValidLeaf, \"Airdrop: Address has no Airdrop claim!\");\r\n\r\n        // Set address to claimed\r\n        airdropClaimed[msg.sender] = true;\r\n\r\n        // Mint tokens to address\r\n        IERC20Custom token = IERC20Custom(tokenAddress);\r\n        token.mint(msg.sender, amount);\r\n\r\n        // Emit claim event\r\n        emit Claim(msg.sender, amount);\r\n    }\r\n}\r\n",
  "sourcePath": "C:\\Users\\user\\Desktop\\alpsfinance-smart-contracts\\contracts\\airdrop\\Airdrop.sol",
  "compiler": {
    "name": "solc",
    "version": "0.8.11+commit.d7f03943.Emscripten.clang"
  },
  "schemaVersion": "3.4.5",
  "updatedAt": "2022-04-03T08:37:35.193Z",
  "devdoc": {
    "events": {
      "Claim(address,uint256)": {
        "params": {
          "amount": "of tokens claimed",
          "to": "recipient of claim"
        }
      }
    },
    "kind": "dev",
    "methods": {
      "claim(uint256,bytes32[])": {
        "params": {
          "amount": "of tokens owed to claimee",
          "proof": "merkle proof to prove address and amount are in tree"
        }
      },
      "owner()": {
        "details": "Returns the address of the current owner."
      },
      "renounceOwnership()": {
        "details": "Leaves the contract without owner. It will not be possible to call `onlyOwner` functions anymore. Can only be called by the current owner. NOTE: Renouncing ownership will leave the contract without an owner, thereby removing any functionality that is only available to the owner."
      },
      "transferOwnership(address)": {
        "details": "Transfers ownership of the contract to a new account (`newOwner`). Can only be called by the current owner."
      }
    },
    "version": 1
  },
  "userdoc": {
    "events": {
      "Claim(address,uint256)": {
        "notice": "Emitted after a successful token claim"
      }
    },
    "kind": "user",
    "methods": {
      "claim(uint256,bytes32[])": {
        "notice": "Allows claiming tokens if address is part of merkle tree"
      }
    },
    "version": 1
  }
}