{
  "contractName": "AlpsNameService",
  "abi": [
    {
      "inputs": [
        {
          "internalType": "string",
          "name": "tld",
          "type": "string"
        }
      ],
      "stateMutability": "payable",
      "type": "constructor"
    },
    {
      "anonymous": false,
      "inputs": [
        {
          "indexed": true,
          "internalType": "address",
          "name": "owner",
          "type": "address"
        },
        {
          "indexed": true,
          "internalType": "address",
          "name": "approved",
          "type": "address"
        },
        {
          "indexed": true,
          "internalType": "uint256",
          "name": "tokenId",
          "type": "uint256"
        }
      ],
      "name": "Approval",
      "type": "event"
    },
    {
      "anonymous": false,
      "inputs": [
        {
          "indexed": true,
          "internalType": "address",
          "name": "owner",
          "type": "address"
        },
        {
          "indexed": true,
          "internalType": "address",
          "name": "operator",
          "type": "address"
        },
        {
          "indexed": false,
          "internalType": "bool",
          "name": "approved",
          "type": "bool"
        }
      ],
      "name": "ApprovalForAll",
      "type": "event"
    },
    {
      "anonymous": false,
      "inputs": [
        {
          "indexed": true,
          "internalType": "address",
          "name": "from",
          "type": "address"
        },
        {
          "indexed": true,
          "internalType": "address",
          "name": "to",
          "type": "address"
        },
        {
          "indexed": true,
          "internalType": "uint256",
          "name": "tokenId",
          "type": "uint256"
        }
      ],
      "name": "Transfer",
      "type": "event"
    },
    {
      "inputs": [],
      "name": "_tokenIds",
      "outputs": [
        {
          "internalType": "uint256",
          "name": "_value",
          "type": "uint256"
        }
      ],
      "stateMutability": "view",
      "type": "function"
    },
    {
      "inputs": [
        {
          "internalType": "address",
          "name": "to",
          "type": "address"
        },
        {
          "internalType": "uint256",
          "name": "tokenId",
          "type": "uint256"
        }
      ],
      "name": "approve",
      "outputs": [],
      "stateMutability": "nonpayable",
      "type": "function"
    },
    {
      "inputs": [
        {
          "internalType": "address",
          "name": "owner",
          "type": "address"
        }
      ],
      "name": "balanceOf",
      "outputs": [
        {
          "internalType": "uint256",
          "name": "",
          "type": "uint256"
        }
      ],
      "stateMutability": "view",
      "type": "function"
    },
    {
      "inputs": [
        {
          "internalType": "string",
          "name": "",
          "type": "string"
        }
      ],
      "name": "domainRecords",
      "outputs": [
        {
          "internalType": "string",
          "name": "",
          "type": "string"
        }
      ],
      "stateMutability": "view",
      "type": "function"
    },
    {
      "inputs": [
        {
          "internalType": "string",
          "name": "",
          "type": "string"
        }
      ],
      "name": "domains",
      "outputs": [
        {
          "internalType": "address",
          "name": "",
          "type": "address"
        }
      ],
      "stateMutability": "view",
      "type": "function"
    },
    {
      "inputs": [
        {
          "internalType": "uint256",
          "name": "tokenId",
          "type": "uint256"
        }
      ],
      "name": "getApproved",
      "outputs": [
        {
          "internalType": "address",
          "name": "",
          "type": "address"
        }
      ],
      "stateMutability": "view",
      "type": "function"
    },
    {
      "inputs": [
        {
          "internalType": "address",
          "name": "owner",
          "type": "address"
        },
        {
          "internalType": "address",
          "name": "operator",
          "type": "address"
        }
      ],
      "name": "isApprovedForAll",
      "outputs": [
        {
          "internalType": "bool",
          "name": "",
          "type": "bool"
        }
      ],
      "stateMutability": "view",
      "type": "function"
    },
    {
      "inputs": [],
      "name": "name",
      "outputs": [
        {
          "internalType": "string",
          "name": "",
          "type": "string"
        }
      ],
      "stateMutability": "view",
      "type": "function"
    },
    {
      "inputs": [
        {
          "internalType": "uint256",
          "name": "tokenId",
          "type": "uint256"
        }
      ],
      "name": "ownerOf",
      "outputs": [
        {
          "internalType": "address",
          "name": "",
          "type": "address"
        }
      ],
      "stateMutability": "view",
      "type": "function"
    },
    {
      "inputs": [
        {
          "internalType": "uint256",
          "name": "_tokenId",
          "type": "uint256"
        },
        {
          "internalType": "uint256",
          "name": "_salePrice",
          "type": "uint256"
        }
      ],
      "name": "royaltyInfo",
      "outputs": [
        {
          "internalType": "address",
          "name": "",
          "type": "address"
        },
        {
          "internalType": "uint256",
          "name": "",
          "type": "uint256"
        }
      ],
      "stateMutability": "view",
      "type": "function"
    },
    {
      "inputs": [
        {
          "internalType": "address",
          "name": "from",
          "type": "address"
        },
        {
          "internalType": "address",
          "name": "to",
          "type": "address"
        },
        {
          "internalType": "uint256",
          "name": "tokenId",
          "type": "uint256"
        }
      ],
      "name": "safeTransferFrom",
      "outputs": [],
      "stateMutability": "nonpayable",
      "type": "function"
    },
    {
      "inputs": [
        {
          "internalType": "address",
          "name": "from",
          "type": "address"
        },
        {
          "internalType": "address",
          "name": "to",
          "type": "address"
        },
        {
          "internalType": "uint256",
          "name": "tokenId",
          "type": "uint256"
        },
        {
          "internalType": "bytes",
          "name": "_data",
          "type": "bytes"
        }
      ],
      "name": "safeTransferFrom",
      "outputs": [],
      "stateMutability": "nonpayable",
      "type": "function"
    },
    {
      "inputs": [
        {
          "internalType": "address",
          "name": "operator",
          "type": "address"
        },
        {
          "internalType": "bool",
          "name": "approved",
          "type": "bool"
        }
      ],
      "name": "setApprovalForAll",
      "outputs": [],
      "stateMutability": "nonpayable",
      "type": "function"
    },
    {
      "inputs": [],
      "name": "symbol",
      "outputs": [
        {
          "internalType": "string",
          "name": "",
          "type": "string"
        }
      ],
      "stateMutability": "view",
      "type": "function"
    },
    {
      "inputs": [
        {
          "internalType": "uint256",
          "name": "tokenId",
          "type": "uint256"
        }
      ],
      "name": "tokenURI",
      "outputs": [
        {
          "internalType": "string",
          "name": "",
          "type": "string"
        }
      ],
      "stateMutability": "view",
      "type": "function"
    },
    {
      "inputs": [],
      "name": "topLevelDomain",
      "outputs": [
        {
          "internalType": "string",
          "name": "",
          "type": "string"
        }
      ],
      "stateMutability": "view",
      "type": "function"
    },
    {
      "inputs": [
        {
          "internalType": "address",
          "name": "from",
          "type": "address"
        },
        {
          "internalType": "address",
          "name": "to",
          "type": "address"
        },
        {
          "internalType": "uint256",
          "name": "tokenId",
          "type": "uint256"
        }
      ],
      "name": "transferFrom",
      "outputs": [],
      "stateMutability": "nonpayable",
      "type": "function"
    },
    {
      "inputs": [
        {
          "internalType": "string",
          "name": "name",
          "type": "string"
        }
      ],
      "name": "registerForDomain",
      "outputs": [],
      "stateMutability": "payable",
      "type": "function"
    },
    {
      "inputs": [
        {
          "internalType": "string",
          "name": "name",
          "type": "string"
        }
      ],
      "name": "getDomainOwner",
      "outputs": [
        {
          "internalType": "address",
          "name": "",
          "type": "address"
        }
      ],
      "stateMutability": "view",
      "type": "function"
    },
    {
      "inputs": [
        {
          "internalType": "string",
          "name": "name",
          "type": "string"
        }
      ],
      "name": "getDomainPrice",
      "outputs": [
        {
          "internalType": "uint256",
          "name": "",
          "type": "uint256"
        }
      ],
      "stateMutability": "pure",
      "type": "function"
    },
    {
      "inputs": [
        {
          "internalType": "string",
          "name": "name",
          "type": "string"
        },
        {
          "internalType": "string",
          "name": "record",
          "type": "string"
        }
      ],
      "name": "setDomainRecord",
      "outputs": [],
      "stateMutability": "nonpayable",
      "type": "function"
    },
    {
      "inputs": [
        {
          "internalType": "string",
          "name": "name",
          "type": "string"
        }
      ],
      "name": "getDomainRecord",
      "outputs": [
        {
          "internalType": "string",
          "name": "",
          "type": "string"
        }
      ],
      "stateMutability": "view",
      "type": "function"
    },
    {
      "inputs": [
        {
          "internalType": "bytes4",
          "name": "interfaceId",
          "type": "bytes4"
        }
      ],
      "name": "supportsInterface",
      "outputs": [
        {
          "internalType": "bool",
          "name": "",
          "type": "bool"
        }
      ],
      "stateMutability": "view",
      "type": "function"
    }
  ],
  "bytecode": "0x61092060405261086b6080818152906200271b60a03980516200002b91600b916020909101906200010f565b5060408051808201909152600d8082526c1e17ba32bc3a1f1e17b9bb339f60991b60209092019182526200006291600c916200010f565b5060405162002f8638038062002f868339810160408190526200008591620001cb565b6040805180820182526011815270416c7073204e616d65205365727669636560781b602080830191825283518085019094526003845262414e5360e81b908401528151919291620000d9916000916200010f565b508051620000ef9060019060208401906200010f565b50508151620001079150600a9060208401906200010f565b5050620002e4565b8280546200011d90620002a7565b90600052602060002090601f0160209004810192826200014157600085556200018c565b82601f106200015c57805160ff19168380011785556200018c565b828001600101855582156200018c579182015b828111156200018c5782518255916020019190600101906200016f565b506200019a9291506200019e565b5090565b5b808211156200019a57600081556001016200019f565b634e487b7160e01b600052604160045260246000fd5b60006020808385031215620001df57600080fd5b82516001600160401b0380821115620001f757600080fd5b818501915085601f8301126200020c57600080fd5b815181811115620002215762000221620001b5565b604051601f8201601f19908116603f011681019083821181831017156200024c576200024c620001b5565b8160405282815288868487010111156200026557600080fd5b600093505b828410156200028957848401860151818501870152928501926200026a565b828411156200029b5760008684830101525b98975050505050505050565b600181811c90821680620002bc57607f821691505b60208210811415620002de57634e487b7160e01b600052602260045260246000fd5b50919050565b61242780620002f46000396000f3fe6080604052600436106101405760003560e01c806370a08231116100b6578063a22cb4651161006f578063a22cb465146103c1578063aa46a400146103e1578063b88d4fde146103f8578063c87b56dd14610418578063e985e9c514610438578063f154225c1461048157600080fd5b806370a082311461030b578063713a69a714610339578063866efd071461035957806387bcb8241461037957806395d89b411461038c578063971998ff146103a157600080fd5b80632597011511610108578063259701151461021657806326449235146102365780632a55205a1461027757806342842e0e146102b657806352f21743146102d65780636352211e146102eb57600080fd5b806301ffc9a71461014557806306fdde031461017a578063081812fc1461019c578063095ea7b3146101d457806323b872dd146101f6575b600080fd5b34801561015157600080fd5b50610165610160366004611b2e565b6104a1565b60405190151581526020015b60405180910390f35b34801561018657600080fd5b5061018f6104b2565b6040516101719190611ba3565b3480156101a857600080fd5b506101bc6101b7366004611bb6565b610544565b6040516001600160a01b039091168152602001610171565b3480156101e057600080fd5b506101f46101ef366004611beb565b6105d1565b005b34801561020257600080fd5b506101f4610211366004611c15565b6106e7565b34801561022257600080fd5b506101bc610231366004611c93565b610718565b34801561024257600080fd5b506101bc610251366004611d61565b8051602081830181018051600d825292820191909301209152546001600160a01b031681565b34801561028357600080fd5b50610297610292366004611daa565b61074d565b604080516001600160a01b039093168352602083019190915201610171565b3480156102c257600080fd5b506101f46102d1366004611c15565b6107fb565b3480156102e257600080fd5b5061018f610816565b3480156102f757600080fd5b506101bc610306366004611bb6565b6108a4565b34801561031757600080fd5b5061032b610326366004611dcc565b61091b565b604051908152602001610171565b34801561034557600080fd5b5061032b610354366004611c93565b6109a2565b34801561036557600080fd5b506101f4610374366004611de7565b610a5c565b6101f4610387366004611c93565b610ad0565b34801561039857600080fd5b5061018f610c9b565b3480156103ad57600080fd5b5061018f6103bc366004611d61565b610caa565b3480156103cd57600080fd5b506101f46103dc366004611e53565b610cce565b3480156103ed57600080fd5b5060095461032b9081565b34801561040457600080fd5b506101f4610413366004611e8f565b610cdd565b34801561042457600080fd5b5061018f610433366004611bb6565b610d15565b34801561044457600080fd5b50610165610453366004611f0b565b6001600160a01b03918216600090815260056020908152604080832093909416825291909152205460ff1690565b34801561048d57600080fd5b5061018f61049c366004611c93565b610e8c565b60006104ac82610f3f565b92915050565b6060600080546104c190611f3e565b80601f01602080910402602001604051908101604052809291908181526020018280546104ed90611f3e565b801561053a5780601f1061050f5761010080835404028352916020019161053a565b820191906000526020600020905b81548152906001019060200180831161051d57829003601f168201915b5050505050905090565b600061054f82610f64565b6105b55760405162461bcd60e51b815260206004820152602c60248201527f4552433732313a20617070726f76656420717565727920666f72206e6f6e657860448201526b34b9ba32b73a103a37b5b2b760a11b60648201526084015b60405180910390fd5b506000908152600460205260409020546001600160a01b031690565b60006105dc826108a4565b9050806001600160a01b0316836001600160a01b0316141561064a5760405162461bcd60e51b815260206004820152602160248201527f4552433732313a20617070726f76616c20746f2063757272656e74206f776e656044820152603960f91b60648201526084016105ac565b336001600160a01b038216148061066657506106668133610453565b6106d85760405162461bcd60e51b815260206004820152603860248201527f4552433732313a20617070726f76652063616c6c6572206973206e6f74206f7760448201527f6e6572206e6f7220617070726f76656420666f7220616c6c000000000000000060648201526084016105ac565b6106e28383610f81565b505050565b6106f13382610fef565b61070d5760405162461bcd60e51b81526004016105ac90611f79565b6106e28383836110d5565b6000600d838360405161072c929190611fca565b908152604051908190036020019020546001600160a01b0316905092915050565b60008281526008602090815260408083208151808301909252546001600160a01b038116808352600160a01b9091046001600160601b03169282019290925282916107c25750604080518082019091526007546001600160a01b0381168252600160a01b90046001600160601b031660208201525b6020810151600090612710906107e1906001600160601b031687611ff0565b6107eb9190612025565b91519350909150505b9250929050565b6106e283838360405180602001604052806000815250610cdd565b600a805461082390611f3e565b80601f016020809104026020016040519081016040528092919081815260200182805461084f90611f3e565b801561089c5780601f106108715761010080835404028352916020019161089c565b820191906000526020600020905b81548152906001019060200180831161087f57829003601f168201915b505050505081565b6000818152600260205260408120546001600160a01b0316806104ac5760405162461bcd60e51b815260206004820152602960248201527f4552433732313a206f776e657220717565727920666f72206e6f6e657869737460448201526832b73a103a37b5b2b760b91b60648201526084016105ac565b60006001600160a01b0382166109865760405162461bcd60e51b815260206004820152602a60248201527f4552433732313a2062616c616e636520717565727920666f7220746865207a65604482015269726f206164647265737360b01b60648201526084016105ac565b506001600160a01b031660009081526003602052604090205490565b60008180610a185760405162461bcd60e51b815260206004820152603c60248201527f416c70734e616d65536572766963653a20446f6d61696e206e616d652068617360448201527f20746f206265206c6f6e676572207468616e2030206c656e677468210000000060648201526084016105ac565b60038111610a31576706f05b59d3b200009150506104ac565b8060041415610a4b57670429d069189e00009150506104ac565b67016345785d8a00009150506104ac565b336001600160a01b0316600d8585604051610a78929190611fca565b908152604051908190036020019020546001600160a01b031614610a9b57600080fd5b8181600e8686604051610aaf929190611fca565b908152604051908190036020019020610ac9929091611a08565b5050505050565b60006001600160a01b0316600d8383604051610aed929190611fca565b908152604051908190036020019020546001600160a01b031614610b1057600080fd5b6000610b1c83836109a2565b905080341015610b615760405162461bcd60e51b815260206004820152601060248201526f4e6f7420656e6f756768206d6174696360801b60448201526064016105ac565b60008383600a604051602001610b79939291906120d3565b60405160208183030381529060405290506000600b82600c604051602001610ba3939291906120fc565b60405160208183030381529060405290506000610bbf60095490565b9050846000610bcd82611271565b90506000610c0586610bde8761136f565b84604051602001610bf19392919061212f565b60405160208183030381529060405261136f565b9050600081604051602001610c1a9190612227565b6040516020818303038152906040529050610c3533866114d5565b610c3f85826114ef565b33600d8b8b604051610c52929190611fca565b90815260405190819003602001902080546001600160a01b03929092166001600160a01b0319909216919091179055610c8f600980546001019055565b50505050505050505050565b6060600180546104c190611f3e565b8051602081830181018051600e825292820191909301209152805461082390611f3e565b610cd933838361157a565b5050565b610ce73383610fef565b610d035760405162461bcd60e51b81526004016105ac90611f79565b610d0f84848484611649565b50505050565b6060610d2082610f64565b610d865760405162461bcd60e51b815260206004820152603160248201527f45524337323155524953746f726167653a2055524920717565727920666f72206044820152703737b732bc34b9ba32b73a103a37b5b2b760791b60648201526084016105ac565b60008281526006602052604081208054610d9f90611f3e565b80601f0160208091040260200160405190810160405280929190818152602001828054610dcb90611f3e565b8015610e185780601f10610ded57610100808354040283529160200191610e18565b820191906000526020600020905b815481529060010190602001808311610dfb57829003601f168201915b505050505090506000610e3660408051602081019091526000815290565b9050805160001415610e49575092915050565b815115610e7b578082604051602001610e6392919061226c565b60405160208183030381529060405292505050919050565b610e848461167c565b949350505050565b6060600e8383604051610ea0929190611fca565b90815260200160405180910390208054610eb990611f3e565b80601f0160208091040260200160405190810160405280929190818152602001828054610ee590611f3e565b8015610f325780601f10610f0757610100808354040283529160200191610f32565b820191906000526020600020905b815481529060010190602001808311610f1557829003601f168201915b5050505050905092915050565b60006001600160e01b0319821663152a902d60e11b14806104ac57506104ac82611754565b6000908152600260205260409020546001600160a01b0316151590565b600081815260046020526040902080546001600160a01b0319166001600160a01b0384169081179091558190610fb6826108a4565b6001600160a01b03167f8c5be1e5ebec7d5bd14f71427d1e84f3dd0314c0f7b2291e5b200ac8c7c3b92560405160405180910390a45050565b6000610ffa82610f64565b61105b5760405162461bcd60e51b815260206004820152602c60248201527f4552433732313a206f70657261746f7220717565727920666f72206e6f6e657860448201526b34b9ba32b73a103a37b5b2b760a11b60648201526084016105ac565b6000611066836108a4565b9050806001600160a01b0316846001600160a01b031614806110a15750836001600160a01b031661109684610544565b6001600160a01b0316145b80610e8457506001600160a01b0380821660009081526005602090815260408083209388168352929052205460ff16610e84565b826001600160a01b03166110e8826108a4565b6001600160a01b03161461114c5760405162461bcd60e51b815260206004820152602560248201527f4552433732313a207472616e736665722066726f6d20696e636f72726563742060448201526437bbb732b960d91b60648201526084016105ac565b6001600160a01b0382166111ae5760405162461bcd60e51b8152602060048201526024808201527f4552433732313a207472616e7366657220746f20746865207a65726f206164646044820152637265737360e01b60648201526084016105ac565b6111b9600082610f81565b6001600160a01b03831660009081526003602052604081208054600192906111e290849061229b565b90915550506001600160a01b03821660009081526003602052604081208054600192906112109084906122b2565b909155505060008181526002602052604080822080546001600160a01b0319166001600160a01b0386811691821790925591518493918716917fddf252ad1be2c89b69c2b068fc378daa952ba7f163c4a11628f55a4df523b3ef91a4505050565b6060816112955750506040805180820190915260018152600360fc1b602082015290565b8160005b81156112bf57806112a9816122ca565b91506112b89050600a83612025565b9150611299565b60008167ffffffffffffffff8111156112da576112da611cd5565b6040519080825280601f01601f191660200182016040528015611304576020820181803683370190505b5090505b8415610e845761131960018361229b565b9150611326600a866122e5565b6113319060306122b2565b60f81b818381518110611346576113466122f9565b60200101906001600160f81b031916908160001a905350611368600a86612025565b9450611308565b606081516000141561138f57505060408051602081019091526000815290565b60006040518060600160405280604081526020016123b260409139905060006003845160026113be91906122b2565b6113c89190612025565b6113d3906004611ff0565b905060006113e28260206122b2565b67ffffffffffffffff8111156113fa576113fa611cd5565b6040519080825280601f01601f191660200182016040528015611424576020820181803683370190505b509050818152600183018586518101602084015b81831015611490576003830192508251603f8160121c168501518253600182019150603f81600c1c168501518253600182019150603f8160061c168501518253600182019150603f8116850151825350600101611438565b6003895106600181146114aa57600281146114bb576114c7565b613d3d60f01b6001198301526114c7565b603d60f81b6000198301525b509398975050505050505050565b610cd98282604051806020016040528060008152506117a4565b6114f882610f64565b61155b5760405162461bcd60e51b815260206004820152602e60248201527f45524337323155524953746f726167653a2055524920736574206f66206e6f6e60448201526d32bc34b9ba32b73a103a37b5b2b760911b60648201526084016105ac565b600082815260066020908152604090912082516106e292840190611a8c565b816001600160a01b0316836001600160a01b031614156115dc5760405162461bcd60e51b815260206004820152601960248201527f4552433732313a20617070726f766520746f2063616c6c65720000000000000060448201526064016105ac565b6001600160a01b03838116600081815260056020908152604080832094871680845294825291829020805460ff191686151590811790915591519182527f17307eab39ab6107e8899845ad3d59bd9653f200f220920489ca2b5937696c31910160405180910390a3505050565b6116548484846110d5565b611660848484846117d7565b610d0f5760405162461bcd60e51b81526004016105ac9061230f565b606061168782610f64565b6116eb5760405162461bcd60e51b815260206004820152602f60248201527f4552433732314d657461646174613a2055524920717565727920666f72206e6f60448201526e3732bc34b9ba32b73a103a37b5b2b760891b60648201526084016105ac565b600061170260408051602081019091526000815290565b90506000815111611722576040518060200160405280600081525061174d565b8061172c84611271565b60405160200161173d92919061226c565b6040516020818303038152906040525b9392505050565b60006001600160e01b031982166380ac58cd60e01b148061178557506001600160e01b03198216635b5e139f60e01b145b806104ac57506301ffc9a760e01b6001600160e01b03198316146104ac565b6117ae83836118d5565b6117bb60008484846117d7565b6106e25760405162461bcd60e51b81526004016105ac9061230f565b60006001600160a01b0384163b156118ca57604051630a85bd0160e11b81526001600160a01b0385169063150b7a029061181b903390899088908890600401612361565b6020604051808303816000875af1925050508015611856575060408051601f3d908101601f1916820190925261185391810190612394565b60015b6118b0573d808015611884576040519150601f19603f3d011682016040523d82523d6000602084013e611889565b606091505b5080516118a85760405162461bcd60e51b81526004016105ac9061230f565b805181602001fd5b6001600160e01b031916630a85bd0160e11b149050610e84565b506001949350505050565b6001600160a01b03821661192b5760405162461bcd60e51b815260206004820181905260248201527f4552433732313a206d696e7420746f20746865207a65726f206164647265737360448201526064016105ac565b61193481610f64565b156119815760405162461bcd60e51b815260206004820152601c60248201527f4552433732313a20746f6b656e20616c7265616479206d696e7465640000000060448201526064016105ac565b6001600160a01b03821660009081526003602052604081208054600192906119aa9084906122b2565b909155505060008181526002602052604080822080546001600160a01b0319166001600160a01b03861690811790915590518392907fddf252ad1be2c89b69c2b068fc378daa952ba7f163c4a11628f55a4df523b3ef908290a45050565b828054611a1490611f3e565b90600052602060002090601f016020900481019282611a365760008555611a7c565b82601f10611a4f5782800160ff19823516178555611a7c565b82800160010185558215611a7c579182015b82811115611a7c578235825591602001919060010190611a61565b50611a88929150611b00565b5090565b828054611a9890611f3e565b90600052602060002090601f016020900481019282611aba5760008555611a7c565b82601f10611ad357805160ff1916838001178555611a7c565b82800160010185558215611a7c579182015b82811115611a7c578251825591602001919060010190611ae5565b5b80821115611a885760008155600101611b01565b6001600160e01b031981168114611b2b57600080fd5b50565b600060208284031215611b4057600080fd5b813561174d81611b15565b60005b83811015611b66578181015183820152602001611b4e565b83811115610d0f5750506000910152565b60008151808452611b8f816020860160208601611b4b565b601f01601f19169290920160200192915050565b60208152600061174d6020830184611b77565b600060208284031215611bc857600080fd5b5035919050565b80356001600160a01b0381168114611be657600080fd5b919050565b60008060408385031215611bfe57600080fd5b611c0783611bcf565b946020939093013593505050565b600080600060608486031215611c2a57600080fd5b611c3384611bcf565b9250611c4160208501611bcf565b9150604084013590509250925092565b60008083601f840112611c6357600080fd5b50813567ffffffffffffffff811115611c7b57600080fd5b6020830191508360208285010111156107f457600080fd5b60008060208385031215611ca657600080fd5b823567ffffffffffffffff811115611cbd57600080fd5b611cc985828601611c51565b90969095509350505050565b634e487b7160e01b600052604160045260246000fd5b600067ffffffffffffffff80841115611d0657611d06611cd5565b604051601f8501601f19908116603f01168101908282118183101715611d2e57611d2e611cd5565b81604052809350858152868686011115611d4757600080fd5b858560208301376000602087830101525050509392505050565b600060208284031215611d7357600080fd5b813567ffffffffffffffff811115611d8a57600080fd5b8201601f81018413611d9b57600080fd5b610e8484823560208401611ceb565b60008060408385031215611dbd57600080fd5b50508035926020909101359150565b600060208284031215611dde57600080fd5b61174d82611bcf565b60008060008060408587031215611dfd57600080fd5b843567ffffffffffffffff80821115611e1557600080fd5b611e2188838901611c51565b90965094506020870135915080821115611e3a57600080fd5b50611e4787828801611c51565b95989497509550505050565b60008060408385031215611e6657600080fd5b611e6f83611bcf565b915060208301358015158114611e8457600080fd5b809150509250929050565b60008060008060808587031215611ea557600080fd5b611eae85611bcf565b9350611ebc60208601611bcf565b925060408501359150606085013567ffffffffffffffff811115611edf57600080fd5b8501601f81018713611ef057600080fd5b611eff87823560208401611ceb565b91505092959194509250565b60008060408385031215611f1e57600080fd5b611f2783611bcf565b9150611f3560208401611bcf565b90509250929050565b600181811c90821680611f5257607f821691505b60208210811415611f7357634e487b7160e01b600052602260045260246000fd5b50919050565b60208082526031908201527f4552433732313a207472616e736665722063616c6c6572206973206e6f74206f6040820152701ddb995c881b9bdc88185c1c1c9bdd9959607a1b606082015260800190565b8183823760009101908152919050565b634e487b7160e01b600052601160045260246000fd5b600081600019048311821515161561200a5761200a611fda565b500290565b634e487b7160e01b600052601260045260246000fd5b6000826120345761203461200f565b500490565b8054600090600181811c908083168061205357607f831692505b602080841082141561207557634e487b7160e01b600052602260045260246000fd5b818015612089576001811461209a576120c7565b60ff198616895284890196506120c7565b60008881526020902060005b868110156120bf5781548b8201529085019083016120a6565b505084890196505b50505050505092915050565b82848237601760f91b8184019081526000906120f26001820185612039565b9695505050505050565b60006121088286612039565b8451612118818360208901611b4b565b61212481830186612039565b979650505050505050565b693d913730b6b2911d101160b11b8152835160009061215581600a850160208901611b4b565b7f222c20226465736372697074696f6e223a20224120646f6d61696e206f6e2074600a918401918201527f686520416c7073204e616d652053657276696365222c2022696d616765223a20602a8201527f22646174613a696d6167652f7376672b786d6c3b6261736536342c0000000000604a82015284516121de816065840160208901611b4b565b6b1116113632b733ba34111d1160a11b60659290910191820152835161220b816071840160208801611b4b565b61227d60f01b6071929091019182015260730195945050505050565b7f646174613a6170706c69636174696f6e2f6a736f6e3b6261736536342c00000081526000825161225f81601d850160208701611b4b565b91909101601d0192915050565b6000835161227e818460208801611b4b565b835190830190612292818360208801611b4b565b01949350505050565b6000828210156122ad576122ad611fda565b500390565b600082198211156122c5576122c5611fda565b500190565b60006000198214156122de576122de611fda565b5060010190565b6000826122f4576122f461200f565b500690565b634e487b7160e01b600052603260045260246000fd5b60208082526032908201527f4552433732313a207472616e7366657220746f206e6f6e20455243373231526560408201527131b2b4bb32b91034b6b83632b6b2b73a32b960711b606082015260800190565b6001600160a01b03858116825284166020820152604081018390526080606082018190526000906120f290830184611b77565b6000602082840312156123a657600080fd5b815161174d81611b1556fe4142434445464748494a4b4c4d4e4f505152535455565758595a6162636465666768696a6b6c6d6e6f707172737475767778797a303132333435363738392b2fa2646970667358221220b805bd7d07d8d224fd11d725e605862e1d84d24edd4021097b44dc93c7e814c564736f6c634300080b00333c73766720786d6c6e733d22687474703a2f2f7777772e77332e6f72672f323030302f737667222077696474683d2232373022206865696768743d22323730222066696c6c3d226e6f6e65223e3c706174682066696c6c3d2275726c282342292220643d224d302030683237307632373048307a222f3e3c646566733e3c66696c7465722069643d22412220636f6c6f722d696e746572706f6c6174696f6e2d66696c746572733d2273524742222066696c746572556e6974733d227573657253706163654f6e55736522206865696768743d22323730222077696474683d22323730223e3c666544726f70536861646f772064783d2230222064793d22312220737464446576696174696f6e3d22322220666c6f6f642d6f7061636974793d222e323235222077696474683d223230302522206865696768743d2232303025222f3e3c2f66696c7465723e3c2f646566733e3c7061746820643d224d37322e3836332034322e393439632d2e3636382d2e3338372d312e3432362d2e35392d322e3139372d2e3539732d312e3532392e3230342d322e3139372e35396c2d31302e30383120362e3033322d362e383520332e3933342d31302e30383120362e303332632d2e3636382e3338372d312e3432362e35392d322e3139372e3539732d312e3532392d2e3230342d322e3139372d2e35396c2d382e3031332d342e37323161342e353220342e35322030203020312d312e3538392d312e363136632d2e3338342d2e3636352d2e3539342d312e3431382d2e3630382d322e313837762d392e3331632d2e3031332d2e3737352e3138352d312e3533382e3537322d322e32303861342e323520342e323520302030203120312e3632352d312e3539356c372e3838342d342e3539632e3636382d2e33383720312e3432362d2e353920322e3139372d2e353973312e3532392e32303420322e3139372e35396c372e38383420342e353961342e353220342e353220302030203120312e35383920312e363136632e3338342e3636352e35393420312e3431382e36303820322e31383776362e3033326c362e38352d342e303635762d362e303332632e3031332d2e3737352d2e3138352d312e3533382d2e3537322d322e32303861342e323520342e32352030203020302d312e3632352d312e3539354c34312e3435362032342e3539632d2e3636382d2e3338372d312e3432362d2e35392d322e3139372d2e3539732d312e3532392e3230342d322e3139372e35396c2d31342e38363420382e36353561342e323520342e32352030203020302d312e36323520312e353935632d2e3338372e36372d2e35383520312e3433342d2e35373220322e3230387631372e343431632d2e3031332e3737352e31383520312e3533382e35373220322e32303861342e323520342e323520302030203020312e36323520312e3539356c31342e38363420382e363535632e3636382e33383720312e3432362e353920322e3139372e353973312e3532392d2e32303420322e3139372d2e35396c31302e3038312d352e39303120362e38352d342e3036352031302e3038312d352e393031632e3636382d2e33383720312e3432362d2e353920322e3139372d2e353973312e3532392e32303420322e3139372e35396c372e38383420342e353961342e353220342e353220302030203120312e35383920312e363136632e3338342e3636352e35393420312e3431382e36303820322e31383776392e333131632e3031332e3737352d2e31383520312e3533382d2e35373220322e32303861342e323520342e32352030203020312d312e36323520312e3539356c2d372e38383420342e373231632d2e3636382e3338372d312e3432362e35392d322e3139372e3539732d312e3532392d2e3230342d322e3139372d2e35396c2d372e3838342d342e353961342e353220342e35322030203020312d312e3538392d312e363136632d2e3338352d2e3636352d2e3539342d312e3431382d2e3630382d322e313837762d362e3033326c2d362e383520342e30363576362e303332632d2e3031332e3737352e31383520312e3533382e35373220322e32303861342e323520342e323520302030203020312e36323520312e3539356c31342e38363420382e363535632e3636382e33383720312e3432362e353920322e3139372e353973312e3532392d2e32303420322e3139372d2e35396c31342e3836342d382e363535632e3635372d2e33393420312e3230342d2e393520312e3538392d312e363136732e3539342d312e3431382e3630392d322e3138375635352e353338632e3031332d2e3737352d2e3138352d312e3533382d2e3537322d322e32303861342e323520342e32352030203020302d312e3632352d312e3539356c2d31342e3939332d382e3738367a222066696c6c3d2223666666222f3e3c646566733e3c6c696e6561724772616469656e742069643d2242222078313d2230222079313d2230222078323d22323730222079323d2232373022206772616469656e74556e6974733d227573657253706163654f6e557365223e3c73746f702073746f702d636f6c6f723d2223636235656565222f3e3c73746f70206f66667365743d2231222073746f702d636f6c6f723d2223306364376534222073746f702d6f7061636974793d222e3939222f3e3c2f6c696e6561724772616469656e743e3c2f646566733e3c7465787420783d2233322e352220793d223233312220666f6e742d73697a653d223237222066696c6c3d2223666666222066696c7465723d2275726c282341292220666f6e742d66616d696c793d22506c7573204a616b617274612053616e732c44656a6156752053616e732c4e6f746f20436f6c6f7220456d6f6a692c4170706c6520436f6c6f7220456d6f6a692c73616e732d73657269662220666f6e742d7765696768743d22626f6c64223e",
  "immutableReferences": {},
  "source": "//SPDX-License-Identifier: AGPL-3.0\n\npragma solidity ^0.8.0;\n\nimport {ERC721} from \"@openzeppelin/contracts/token/ERC721/ERC721.sol\";\nimport {ERC721URIStorage} from \"@openzeppelin/contracts/token/ERC721/extensions/ERC721URIStorage.sol\";\nimport {Counters} from \"@openzeppelin/contracts/utils/Counters.sol\";\nimport {ERC2981} from \"@openzeppelin/contracts/token/common/ERC2981.sol\";\nimport {Strings} from \"@openzeppelin/contracts/utils/Strings.sol\";\nimport {Base64} from \"base64-sol/base64.sol\";\n\ncontract AlpsNameService is ERC721URIStorage, ERC2981 {\n    using Counters for Counters.Counter;\n    Counters.Counter public _tokenIds;\n    string public topLevelDomain;\n    string svgPartOne =\n        '<svg xmlns=\"http://www.w3.org/2000/svg\" width=\"270\" height=\"270\" fill=\"none\"><path fill=\"url(#B)\" d=\"M0 0h270v270H0z\"/><defs><filter id=\"A\" color-interpolation-filters=\"sRGB\" filterUnits=\"userSpaceOnUse\" height=\"270\" width=\"270\"><feDropShadow dx=\"0\" dy=\"1\" stdDeviation=\"2\" flood-opacity=\".225\" width=\"200%\" height=\"200%\"/></filter></defs><path d=\"M72.863 42.949c-.668-.387-1.426-.59-2.197-.59s-1.529.204-2.197.59l-10.081 6.032-6.85 3.934-10.081 6.032c-.668.387-1.426.59-2.197.59s-1.529-.204-2.197-.59l-8.013-4.721a4.52 4.52 0 0 1-1.589-1.616c-.384-.665-.594-1.418-.608-2.187v-9.31c-.013-.775.185-1.538.572-2.208a4.25 4.25 0 0 1 1.625-1.595l7.884-4.59c.668-.387 1.426-.59 2.197-.59s1.529.204 2.197.59l7.884 4.59a4.52 4.52 0 0 1 1.589 1.616c.384.665.594 1.418.608 2.187v6.032l6.85-4.065v-6.032c.013-.775-.185-1.538-.572-2.208a4.25 4.25 0 0 0-1.625-1.595L41.456 24.59c-.668-.387-1.426-.59-2.197-.59s-1.529.204-2.197.59l-14.864 8.655a4.25 4.25 0 0 0-1.625 1.595c-.387.67-.585 1.434-.572 2.208v17.441c-.013.775.185 1.538.572 2.208a4.25 4.25 0 0 0 1.625 1.595l14.864 8.655c.668.387 1.426.59 2.197.59s1.529-.204 2.197-.59l10.081-5.901 6.85-4.065 10.081-5.901c.668-.387 1.426-.59 2.197-.59s1.529.204 2.197.59l7.884 4.59a4.52 4.52 0 0 1 1.589 1.616c.384.665.594 1.418.608 2.187v9.311c.013.775-.185 1.538-.572 2.208a4.25 4.25 0 0 1-1.625 1.595l-7.884 4.721c-.668.387-1.426.59-2.197.59s-1.529-.204-2.197-.59l-7.884-4.59a4.52 4.52 0 0 1-1.589-1.616c-.385-.665-.594-1.418-.608-2.187v-6.032l-6.85 4.065v6.032c-.013.775.185 1.538.572 2.208a4.25 4.25 0 0 0 1.625 1.595l14.864 8.655c.668.387 1.426.59 2.197.59s1.529-.204 2.197-.59l14.864-8.655c.657-.394 1.204-.95 1.589-1.616s.594-1.418.609-2.187V55.538c.013-.775-.185-1.538-.572-2.208a4.25 4.25 0 0 0-1.625-1.595l-14.993-8.786z\" fill=\"#fff\"/><defs><linearGradient id=\"B\" x1=\"0\" y1=\"0\" x2=\"270\" y2=\"270\" gradientUnits=\"userSpaceOnUse\"><stop stop-color=\"#cb5eee\"/><stop offset=\"1\" stop-color=\"#0cd7e4\" stop-opacity=\".99\"/></linearGradient></defs><text x=\"32.5\" y=\"231\" font-size=\"27\" fill=\"#fff\" filter=\"url(#A)\" font-family=\"Plus Jakarta Sans,DejaVu Sans,Noto Color Emoji,Apple Color Emoji,sans-serif\" font-weight=\"bold\">';\n    string svgPartTwo = \"</text></svg>\";\n\n    constructor(string memory tld) payable ERC721(\"Alps Name Service\", \"ANS\") {\n        topLevelDomain = tld;\n    }\n\n    mapping(string => address) public domains;\n\n    //For some additional info about the domain\n    mapping(string => string) public domainRecords;\n\n    /**\n     * @dev Allow users to buy and register for .alps domain\n     * @param name Domain name\n     */\n    function registerForDomain(string calldata name) public payable {\n        require(domains[name] == address(0));\n        uint256 price = getDomainPrice(name);\n        require(msg.value >= price, \"Not enough matic\");\n\n        string memory _name = string(\n            abi.encodePacked(name, \".\", topLevelDomain)\n        );\n        string memory finalSvg = string(\n            abi.encodePacked(svgPartOne, _name, svgPartTwo)\n        );\n        uint256 newRecordId = _tokenIds.current();\n        uint256 length = bytes(name).length;\n        string memory strLen = Strings.toString(length);\n        string memory json = Base64.encode(\n            abi.encodePacked(\n                '{\"name\": \"',\n                _name,\n                '\", \"description\": \"A domain on the Alps Name Service\", \"image\": \"data:image/svg+xml;base64,',\n                Base64.encode(bytes(finalSvg)),\n                '\",\"length\":\"',\n                strLen,\n                '\"}'\n            )\n        );\n        string memory finalTokenURI = string(\n            abi.encodePacked(\"data:application/json;base64,\", json)\n        );\n        _safeMint(msg.sender, newRecordId);\n        _setTokenURI(newRecordId, finalTokenURI);\n        domains[name] = msg.sender;\n        _tokenIds.increment();\n    }\n\n    /**\n     * @dev Fetch a domain's owner\n     * @param name Domain name\n     */\n    function getDomainOwner(string calldata name)\n        public\n        view\n        returns (address)\n    {\n        return domains[name];\n    }\n\n    /**\n     * @dev Fetch domain's price\n     * @param name Domain name\n     */\n    function getDomainPrice(string calldata name)\n        public\n        pure\n        returns (uint256)\n    {\n        uint256 len = bytes(name).length;\n        require(\n            len > 0,\n            \"AlpsNameService: Domain name has to be longer than 0 length!\"\n        );\n        if (len <= 3) {\n            return 5 * 10**17;\n        } else if (len == 4) {\n            return 3 * 10**17;\n        } else {\n            return 1 * 10**17;\n        }\n    }\n\n    //set some additional info about the domain\n    function setDomainRecord(string calldata name, string calldata record)\n        public\n    {\n        require(domains[name] == msg.sender);\n        domainRecords[name] = record;\n    }\n\n    //get some additional info about the domain\n    function getDomainRecord(string calldata name)\n        public\n        view\n        returns (string memory)\n    {\n        return domainRecords[name];\n    }\n\n    function supportsInterface(bytes4 interfaceId)\n        public\n        view\n        override(ERC721, ERC2981)\n        returns (bool)\n    {\n        return super.supportsInterface(interfaceId);\n    }\n}\n",
  "sourcePath": "/Users/yosephks/Documents/GitHub/alpsfinance-smart-contracts/contracts/name_service/AlpsNameService.sol",
  "compiler": {
    "name": "solc",
    "version": "0.8.11+commit.d7f03943.Emscripten.clang"
  },
  "schemaVersion": "3.4.6",
  "updatedAt": "2022-05-10T14:44:37.760Z",
  "devdoc": {
    "kind": "dev",
    "methods": {
      "approve(address,uint256)": {
        "details": "See {IERC721-approve}."
      },
      "balanceOf(address)": {
        "details": "See {IERC721-balanceOf}."
      },
      "getApproved(uint256)": {
        "details": "See {IERC721-getApproved}."
      },
      "getDomainOwner(string)": {
        "details": "Fetch a domain's owner",
        "params": {
          "name": "Domain name"
        }
      },
      "getDomainPrice(string)": {
        "details": "Fetch domain's price",
        "params": {
          "name": "Domain name"
        }
      },
      "isApprovedForAll(address,address)": {
        "details": "See {IERC721-isApprovedForAll}."
      },
      "name()": {
        "details": "See {IERC721Metadata-name}."
      },
      "ownerOf(uint256)": {
        "details": "See {IERC721-ownerOf}."
      },
      "registerForDomain(string)": {
        "details": "Allow users to buy and register for .alps domain",
        "params": {
          "name": "Domain name"
        }
      },
      "royaltyInfo(uint256,uint256)": {
        "details": "Returns how much royalty is owed and to whom, based on a sale price that may be denominated in any unit of exchange. The royalty amount is denominated and should be payed in that same unit of exchange."
      },
      "safeTransferFrom(address,address,uint256)": {
        "details": "See {IERC721-safeTransferFrom}."
      },
      "safeTransferFrom(address,address,uint256,bytes)": {
        "details": "See {IERC721-safeTransferFrom}."
      },
      "setApprovalForAll(address,bool)": {
        "details": "See {IERC721-setApprovalForAll}."
      },
      "symbol()": {
        "details": "See {IERC721Metadata-symbol}."
      },
      "tokenURI(uint256)": {
        "details": "See {IERC721Metadata-tokenURI}."
      },
      "transferFrom(address,address,uint256)": {
        "details": "See {IERC721-transferFrom}."
      }
    },
    "version": 1
  },
  "userdoc": {
    "kind": "user",
    "methods": {},
    "version": 1
  }
}