{
  "contractName": "AlpsNameService",
  "abi": [
    {
      "inputs": [
        {
          "internalType": "string",
          "name": "tld",
          "type": "string"
        }
      ],
      "stateMutability": "payable",
      "type": "constructor"
    },
    {
      "anonymous": false,
      "inputs": [
        {
          "indexed": true,
          "internalType": "address",
          "name": "owner",
          "type": "address"
        },
        {
          "indexed": true,
          "internalType": "address",
          "name": "approved",
          "type": "address"
        },
        {
          "indexed": true,
          "internalType": "uint256",
          "name": "tokenId",
          "type": "uint256"
        }
      ],
      "name": "Approval",
      "type": "event"
    },
    {
      "anonymous": false,
      "inputs": [
        {
          "indexed": true,
          "internalType": "address",
          "name": "owner",
          "type": "address"
        },
        {
          "indexed": true,
          "internalType": "address",
          "name": "operator",
          "type": "address"
        },
        {
          "indexed": false,
          "internalType": "bool",
          "name": "approved",
          "type": "bool"
        }
      ],
      "name": "ApprovalForAll",
      "type": "event"
    },
    {
      "anonymous": false,
      "inputs": [
        {
          "indexed": true,
          "internalType": "address",
          "name": "from",
          "type": "address"
        },
        {
          "indexed": true,
          "internalType": "address",
          "name": "to",
          "type": "address"
        },
        {
          "indexed": true,
          "internalType": "uint256",
          "name": "tokenId",
          "type": "uint256"
        }
      ],
      "name": "Transfer",
      "type": "event"
    },
    {
      "inputs": [],
      "name": "_tokenIds",
      "outputs": [
        {
          "internalType": "uint256",
          "name": "_value",
          "type": "uint256"
        }
      ],
      "stateMutability": "view",
      "type": "function"
    },
    {
      "inputs": [
        {
          "internalType": "address",
          "name": "to",
          "type": "address"
        },
        {
          "internalType": "uint256",
          "name": "tokenId",
          "type": "uint256"
        }
      ],
      "name": "approve",
      "outputs": [],
      "stateMutability": "nonpayable",
      "type": "function"
    },
    {
      "inputs": [
        {
          "internalType": "address",
          "name": "owner",
          "type": "address"
        }
      ],
      "name": "balanceOf",
      "outputs": [
        {
          "internalType": "uint256",
          "name": "",
          "type": "uint256"
        }
      ],
      "stateMutability": "view",
      "type": "function"
    },
    {
      "inputs": [
        {
          "internalType": "string",
          "name": "",
          "type": "string"
        }
      ],
      "name": "domainRecords",
      "outputs": [
        {
          "internalType": "string",
          "name": "",
          "type": "string"
        }
      ],
      "stateMutability": "view",
      "type": "function"
    },
    {
      "inputs": [
        {
          "internalType": "string",
          "name": "",
          "type": "string"
        }
      ],
      "name": "domains",
      "outputs": [
        {
          "internalType": "address",
          "name": "",
          "type": "address"
        }
      ],
      "stateMutability": "view",
      "type": "function"
    },
    {
      "inputs": [
        {
          "internalType": "uint256",
          "name": "tokenId",
          "type": "uint256"
        }
      ],
      "name": "getApproved",
      "outputs": [
        {
          "internalType": "address",
          "name": "",
          "type": "address"
        }
      ],
      "stateMutability": "view",
      "type": "function"
    },
    {
      "inputs": [
        {
          "internalType": "address",
          "name": "owner",
          "type": "address"
        },
        {
          "internalType": "address",
          "name": "operator",
          "type": "address"
        }
      ],
      "name": "isApprovedForAll",
      "outputs": [
        {
          "internalType": "bool",
          "name": "",
          "type": "bool"
        }
      ],
      "stateMutability": "view",
      "type": "function"
    },
    {
      "inputs": [],
      "name": "name",
      "outputs": [
        {
          "internalType": "string",
          "name": "",
          "type": "string"
        }
      ],
      "stateMutability": "view",
      "type": "function"
    },
    {
      "inputs": [
        {
          "internalType": "uint256",
          "name": "tokenId",
          "type": "uint256"
        }
      ],
      "name": "ownerOf",
      "outputs": [
        {
          "internalType": "address",
          "name": "",
          "type": "address"
        }
      ],
      "stateMutability": "view",
      "type": "function"
    },
    {
      "inputs": [
        {
          "internalType": "address",
          "name": "from",
          "type": "address"
        },
        {
          "internalType": "address",
          "name": "to",
          "type": "address"
        },
        {
          "internalType": "uint256",
          "name": "tokenId",
          "type": "uint256"
        }
      ],
      "name": "safeTransferFrom",
      "outputs": [],
      "stateMutability": "nonpayable",
      "type": "function"
    },
    {
      "inputs": [
        {
          "internalType": "address",
          "name": "from",
          "type": "address"
        },
        {
          "internalType": "address",
          "name": "to",
          "type": "address"
        },
        {
          "internalType": "uint256",
          "name": "tokenId",
          "type": "uint256"
        },
        {
          "internalType": "bytes",
          "name": "_data",
          "type": "bytes"
        }
      ],
      "name": "safeTransferFrom",
      "outputs": [],
      "stateMutability": "nonpayable",
      "type": "function"
    },
    {
      "inputs": [
        {
          "internalType": "address",
          "name": "operator",
          "type": "address"
        },
        {
          "internalType": "bool",
          "name": "approved",
          "type": "bool"
        }
      ],
      "name": "setApprovalForAll",
      "outputs": [],
      "stateMutability": "nonpayable",
      "type": "function"
    },
    {
      "inputs": [
        {
          "internalType": "bytes4",
          "name": "interfaceId",
          "type": "bytes4"
        }
      ],
      "name": "supportsInterface",
      "outputs": [
        {
          "internalType": "bool",
          "name": "",
          "type": "bool"
        }
      ],
      "stateMutability": "view",
      "type": "function"
    },
    {
      "inputs": [],
      "name": "symbol",
      "outputs": [
        {
          "internalType": "string",
          "name": "",
          "type": "string"
        }
      ],
      "stateMutability": "view",
      "type": "function"
    },
    {
      "inputs": [
        {
          "internalType": "uint256",
          "name": "tokenId",
          "type": "uint256"
        }
      ],
      "name": "tokenURI",
      "outputs": [
        {
          "internalType": "string",
          "name": "",
          "type": "string"
        }
      ],
      "stateMutability": "view",
      "type": "function"
    },
    {
      "inputs": [],
      "name": "topLevelDomain",
      "outputs": [
        {
          "internalType": "string",
          "name": "",
          "type": "string"
        }
      ],
      "stateMutability": "view",
      "type": "function"
    },
    {
      "inputs": [
        {
          "internalType": "address",
          "name": "from",
          "type": "address"
        },
        {
          "internalType": "address",
          "name": "to",
          "type": "address"
        },
        {
          "internalType": "uint256",
          "name": "tokenId",
          "type": "uint256"
        }
      ],
      "name": "transferFrom",
      "outputs": [],
      "stateMutability": "nonpayable",
      "type": "function"
    },
    {
      "inputs": [
        {
          "internalType": "string",
          "name": "name",
          "type": "string"
        }
      ],
      "name": "registerForDomain",
      "outputs": [],
      "stateMutability": "payable",
      "type": "function"
    },
    {
      "inputs": [
        {
          "internalType": "string",
          "name": "name",
          "type": "string"
        }
      ],
      "name": "getDomainOwner",
      "outputs": [
        {
          "internalType": "address",
          "name": "",
          "type": "address"
        }
      ],
      "stateMutability": "view",
      "type": "function"
    },
    {
      "inputs": [
        {
          "internalType": "string",
          "name": "name",
          "type": "string"
        }
      ],
      "name": "getPrice",
      "outputs": [
        {
          "internalType": "uint256",
          "name": "",
          "type": "uint256"
        }
      ],
      "stateMutability": "pure",
      "type": "function"
    },
    {
      "inputs": [
        {
          "internalType": "string",
          "name": "name",
          "type": "string"
        },
        {
          "internalType": "string",
          "name": "record",
          "type": "string"
        }
      ],
      "name": "setDomainRecord",
      "outputs": [],
      "stateMutability": "nonpayable",
      "type": "function"
    },
    {
      "inputs": [
        {
          "internalType": "string",
          "name": "name",
          "type": "string"
        }
      ],
      "name": "getDomainRecord",
      "outputs": [
        {
          "internalType": "string",
          "name": "",
          "type": "string"
        }
      ],
      "stateMutability": "view",
      "type": "function"
    }
  ],
  "bytecode": "0x61092060405261086b6080818152906200256c60a03980516200002b916009916020909101906200010f565b5060408051808201909152600d8082526c1e17ba32bc3a1f1e17b9bb339f60991b60209092019182526200006291600a916200010f565b5060405162002dd738038062002dd78339810160408190526200008591620001cb565b6040805180820182526011815270416c7073204e616d65205365727669636560781b602080830191825283518085019094526003845262414e5360e81b908401528151919291620000d9916000916200010f565b508051620000ef9060019060208401906200010f565b5050815162000107915060089060208401906200010f565b5050620002e4565b8280546200011d90620002a7565b90600052602060002090601f0160209004810192826200014157600085556200018c565b82601f106200015c57805160ff19168380011785556200018c565b828001600101855582156200018c579182015b828111156200018c5782518255916020019190600101906200016f565b506200019a9291506200019e565b5090565b5b808211156200019a57600081556001016200019f565b634e487b7160e01b600052604160045260246000fd5b60006020808385031215620001df57600080fd5b82516001600160401b0380821115620001f757600080fd5b818501915085601f8301126200020c57600080fd5b815181811115620002215762000221620001b5565b604051601f8201601f19908116603f011681019083821181831017156200024c576200024c620001b5565b8160405282815288868487010111156200026557600080fd5b600093505b828410156200028957848401860151818501870152928501926200026a565b828411156200029b5760008684830101525b98975050505050505050565b600181811c90821680620002bc57607f821691505b60208210811415620002de57634e487b7160e01b600052602260045260246000fd5b50919050565b61227880620002f46000396000f3fe6080604052600436106101355760003560e01c806370a08231116100ab578063a22cb4651161006f578063a22cb46514610377578063aa46a40014610397578063b88d4fde146103ae578063c87b56dd146103ce578063e985e9c5146103ee578063f154225c1461043757600080fd5b806370a08231146102ef578063866efd071461030f57806387bcb8241461032f57806395d89b4114610342578063971998ff1461035757600080fd5b806325970115116100fd578063259701151461020b578063264492351461022b57806342842e0e1461026c578063524f38891461028c57806352f21743146102ba5780636352211e146102cf57600080fd5b806301ffc9a71461013a57806306fdde031461016f578063081812fc14610191578063095ea7b3146101c957806323b872dd146101eb575b600080fd5b34801561014657600080fd5b5061015a61015536600461199a565b610457565b60405190151581526020015b60405180910390f35b34801561017b57600080fd5b506101846104a9565b6040516101669190611a0f565b34801561019d57600080fd5b506101b16101ac366004611a22565b61053b565b6040516001600160a01b039091168152602001610166565b3480156101d557600080fd5b506101e96101e4366004611a57565b6105c8565b005b3480156101f757600080fd5b506101e9610206366004611a81565b6106de565b34801561021757600080fd5b506101b1610226366004611b06565b61070f565b34801561023757600080fd5b506101b1610246366004611bd4565b8051602081830181018051600b825292820191909301209152546001600160a01b031681565b34801561027857600080fd5b506101e9610287366004611a81565b610744565b34801561029857600080fd5b506102ac6102a7366004611b06565b61075f565b604051908152602001610166565b3480156102c657600080fd5b506101846107b1565b3480156102db57600080fd5b506101b16102ea366004611a22565b61083f565b3480156102fb57600080fd5b506102ac61030a366004611c1d565b6108b6565b34801561031b57600080fd5b506101e961032a366004611c38565b61093d565b6101e961033d366004611b06565b6109b1565b34801561034e57600080fd5b50610184610b7c565b34801561036357600080fd5b50610184610372366004611bd4565b610b8b565b34801561038357600080fd5b506101e9610392366004611ca4565b610baf565b3480156103a357600080fd5b506007546102ac9081565b3480156103ba57600080fd5b506101e96103c9366004611ce0565b610bbe565b3480156103da57600080fd5b506101846103e9366004611a22565b610bf6565b3480156103fa57600080fd5b5061015a610409366004611d5c565b6001600160a01b03918216600090815260056020908152604080832093909416825291909152205460ff1690565b34801561044357600080fd5b50610184610452366004611b06565b610d6d565b60006001600160e01b031982166380ac58cd60e01b148061048857506001600160e01b03198216635b5e139f60e01b145b806104a357506301ffc9a760e01b6001600160e01b03198316145b92915050565b6060600080546104b890611d8f565b80601f01602080910402602001604051908101604052809291908181526020018280546104e490611d8f565b80156105315780601f1061050657610100808354040283529160200191610531565b820191906000526020600020905b81548152906001019060200180831161051457829003601f168201915b5050505050905090565b600061054682610e20565b6105ac5760405162461bcd60e51b815260206004820152602c60248201527f4552433732313a20617070726f76656420717565727920666f72206e6f6e657860448201526b34b9ba32b73a103a37b5b2b760a11b60648201526084015b60405180910390fd5b506000908152600460205260409020546001600160a01b031690565b60006105d38261083f565b9050806001600160a01b0316836001600160a01b031614156106415760405162461bcd60e51b815260206004820152602160248201527f4552433732313a20617070726f76616c20746f2063757272656e74206f776e656044820152603960f91b60648201526084016105a3565b336001600160a01b038216148061065d575061065d8133610409565b6106cf5760405162461bcd60e51b815260206004820152603860248201527f4552433732313a20617070726f76652063616c6c6572206973206e6f74206f7760448201527f6e6572206e6f7220617070726f76656420666f7220616c6c000000000000000060648201526084016105a3565b6106d98383610e3d565b505050565b6106e83382610eab565b6107045760405162461bcd60e51b81526004016105a390611dca565b6106d9838383610f91565b6000600b8383604051610723929190611e1b565b908152604051908190036020019020546001600160a01b0316905092915050565b6106d983838360405180602001604052806000815250610bbe565b6000818061076c57600080fd5b60038110156107865767058d15e1762800009150506104a3565b80600414156107a057670429d069189e00009150506104a3565b67016345785d8a00009150506104a3565b600880546107be90611d8f565b80601f01602080910402602001604051908101604052809291908181526020018280546107ea90611d8f565b80156108375780601f1061080c57610100808354040283529160200191610837565b820191906000526020600020905b81548152906001019060200180831161081a57829003601f168201915b505050505081565b6000818152600260205260408120546001600160a01b0316806104a35760405162461bcd60e51b815260206004820152602960248201527f4552433732313a206f776e657220717565727920666f72206e6f6e657869737460448201526832b73a103a37b5b2b760b91b60648201526084016105a3565b60006001600160a01b0382166109215760405162461bcd60e51b815260206004820152602a60248201527f4552433732313a2062616c616e636520717565727920666f7220746865207a65604482015269726f206164647265737360b01b60648201526084016105a3565b506001600160a01b031660009081526003602052604090205490565b336001600160a01b0316600b8585604051610959929190611e1b565b908152604051908190036020019020546001600160a01b03161461097c57600080fd5b8181600c8686604051610990929190611e1b565b9081526040519081900360200190206109aa929091611874565b5050505050565b60006001600160a01b0316600b83836040516109ce929190611e1b565b908152604051908190036020019020546001600160a01b0316146109f157600080fd5b60006109fd838361075f565b905080341015610a425760405162461bcd60e51b815260206004820152601060248201526f4e6f7420656e6f756768206d6174696360801b60448201526064016105a3565b600083836008604051602001610a5a93929190611ec5565b60405160208183030381529060405290506000600982600a604051602001610a8493929190611eee565b60405160208183030381529060405290506000610aa060075490565b9050846000610aae8261112d565b90506000610ae686610abf8761122b565b84604051602001610ad293929190611f21565b60405160208183030381529060405261122b565b9050600081604051602001610afb9190612019565b6040516020818303038152906040529050610b163386611391565b610b2085826113ab565b33600b8b8b604051610b33929190611e1b565b90815260405190819003602001902080546001600160a01b03929092166001600160a01b0319909216919091179055610b70600780546001019055565b50505050505050505050565b6060600180546104b890611d8f565b8051602081830181018051600c82529282019190930120915280546107be90611d8f565b610bba338383611436565b5050565b610bc83383610eab565b610be45760405162461bcd60e51b81526004016105a390611dca565b610bf084848484611505565b50505050565b6060610c0182610e20565b610c675760405162461bcd60e51b815260206004820152603160248201527f45524337323155524953746f726167653a2055524920717565727920666f72206044820152703737b732bc34b9ba32b73a103a37b5b2b760791b60648201526084016105a3565b60008281526006602052604081208054610c8090611d8f565b80601f0160208091040260200160405190810160405280929190818152602001828054610cac90611d8f565b8015610cf95780601f10610cce57610100808354040283529160200191610cf9565b820191906000526020600020905b815481529060010190602001808311610cdc57829003601f168201915b505050505090506000610d1760408051602081019091526000815290565b9050805160001415610d2a575092915050565b815115610d5c578082604051602001610d4492919061205e565b60405160208183030381529060405292505050919050565b610d6584611538565b949350505050565b6060600c8383604051610d81929190611e1b565b90815260200160405180910390208054610d9a90611d8f565b80601f0160208091040260200160405190810160405280929190818152602001828054610dc690611d8f565b8015610e135780601f10610de857610100808354040283529160200191610e13565b820191906000526020600020905b815481529060010190602001808311610df657829003601f168201915b5050505050905092915050565b6000908152600260205260409020546001600160a01b0316151590565b600081815260046020526040902080546001600160a01b0319166001600160a01b0384169081179091558190610e728261083f565b6001600160a01b03167f8c5be1e5ebec7d5bd14f71427d1e84f3dd0314c0f7b2291e5b200ac8c7c3b92560405160405180910390a45050565b6000610eb682610e20565b610f175760405162461bcd60e51b815260206004820152602c60248201527f4552433732313a206f70657261746f7220717565727920666f72206e6f6e657860448201526b34b9ba32b73a103a37b5b2b760a11b60648201526084016105a3565b6000610f228361083f565b9050806001600160a01b0316846001600160a01b03161480610f5d5750836001600160a01b0316610f528461053b565b6001600160a01b0316145b80610d6557506001600160a01b0380821660009081526005602090815260408083209388168352929052205460ff16610d65565b826001600160a01b0316610fa48261083f565b6001600160a01b0316146110085760405162461bcd60e51b815260206004820152602560248201527f4552433732313a207472616e736665722066726f6d20696e636f72726563742060448201526437bbb732b960d91b60648201526084016105a3565b6001600160a01b03821661106a5760405162461bcd60e51b8152602060048201526024808201527f4552433732313a207472616e7366657220746f20746865207a65726f206164646044820152637265737360e01b60648201526084016105a3565b611075600082610e3d565b6001600160a01b038316600090815260036020526040812080546001929061109e9084906120a3565b90915550506001600160a01b03821660009081526003602052604081208054600192906110cc9084906120ba565b909155505060008181526002602052604080822080546001600160a01b0319166001600160a01b0386811691821790925591518493918716917fddf252ad1be2c89b69c2b068fc378daa952ba7f163c4a11628f55a4df523b3ef91a4505050565b6060816111515750506040805180820190915260018152600360fc1b602082015290565b8160005b811561117b5780611165816120d2565b91506111749050600a83612103565b9150611155565b60008167ffffffffffffffff81111561119657611196611b48565b6040519080825280601f01601f1916602001820160405280156111c0576020820181803683370190505b5090505b8415610d65576111d56001836120a3565b91506111e2600a86612117565b6111ed9060306120ba565b60f81b8183815181106112025761120261212b565b60200101906001600160f81b031916908160001a905350611224600a86612103565b94506111c4565b606081516000141561124b57505060408051602081019091526000815290565b6000604051806060016040528060408152602001612203604091399050600060038451600261127a91906120ba565b6112849190612103565b61128f906004612141565b9050600061129e8260206120ba565b67ffffffffffffffff8111156112b6576112b6611b48565b6040519080825280601f01601f1916602001820160405280156112e0576020820181803683370190505b509050818152600183018586518101602084015b8183101561134c576003830192508251603f8160121c168501518253600182019150603f81600c1c168501518253600182019150603f8160061c168501518253600182019150603f81168501518253506001016112f4565b600389510660018114611366576002811461137757611383565b613d3d60f01b600119830152611383565b603d60f81b6000198301525b509398975050505050505050565b610bba828260405180602001604052806000815250611610565b6113b482610e20565b6114175760405162461bcd60e51b815260206004820152602e60248201527f45524337323155524953746f726167653a2055524920736574206f66206e6f6e60448201526d32bc34b9ba32b73a103a37b5b2b760911b60648201526084016105a3565b600082815260066020908152604090912082516106d9928401906118f8565b816001600160a01b0316836001600160a01b031614156114985760405162461bcd60e51b815260206004820152601960248201527f4552433732313a20617070726f766520746f2063616c6c65720000000000000060448201526064016105a3565b6001600160a01b03838116600081815260056020908152604080832094871680845294825291829020805460ff191686151590811790915591519182527f17307eab39ab6107e8899845ad3d59bd9653f200f220920489ca2b5937696c31910160405180910390a3505050565b611510848484610f91565b61151c84848484611643565b610bf05760405162461bcd60e51b81526004016105a390612160565b606061154382610e20565b6115a75760405162461bcd60e51b815260206004820152602f60248201527f4552433732314d657461646174613a2055524920717565727920666f72206e6f60448201526e3732bc34b9ba32b73a103a37b5b2b760891b60648201526084016105a3565b60006115be60408051602081019091526000815290565b905060008151116115de5760405180602001604052806000815250611609565b806115e88461112d565b6040516020016115f992919061205e565b6040516020818303038152906040525b9392505050565b61161a8383611741565b6116276000848484611643565b6106d95760405162461bcd60e51b81526004016105a390612160565b60006001600160a01b0384163b1561173657604051630a85bd0160e11b81526001600160a01b0385169063150b7a02906116879033908990889088906004016121b2565b6020604051808303816000875af19250505080156116c2575060408051601f3d908101601f191682019092526116bf918101906121e5565b60015b61171c573d8080156116f0576040519150601f19603f3d011682016040523d82523d6000602084013e6116f5565b606091505b5080516117145760405162461bcd60e51b81526004016105a390612160565b805181602001fd5b6001600160e01b031916630a85bd0160e11b149050610d65565b506001949350505050565b6001600160a01b0382166117975760405162461bcd60e51b815260206004820181905260248201527f4552433732313a206d696e7420746f20746865207a65726f206164647265737360448201526064016105a3565b6117a081610e20565b156117ed5760405162461bcd60e51b815260206004820152601c60248201527f4552433732313a20746f6b656e20616c7265616479206d696e7465640000000060448201526064016105a3565b6001600160a01b03821660009081526003602052604081208054600192906118169084906120ba565b909155505060008181526002602052604080822080546001600160a01b0319166001600160a01b03861690811790915590518392907fddf252ad1be2c89b69c2b068fc378daa952ba7f163c4a11628f55a4df523b3ef908290a45050565b82805461188090611d8f565b90600052602060002090601f0160209004810192826118a257600085556118e8565b82601f106118bb5782800160ff198235161785556118e8565b828001600101855582156118e8579182015b828111156118e85782358255916020019190600101906118cd565b506118f492915061196c565b5090565b82805461190490611d8f565b90600052602060002090601f01602090048101928261192657600085556118e8565b82601f1061193f57805160ff19168380011785556118e8565b828001600101855582156118e8579182015b828111156118e8578251825591602001919060010190611951565b5b808211156118f4576000815560010161196d565b6001600160e01b03198116811461199757600080fd5b50565b6000602082840312156119ac57600080fd5b813561160981611981565b60005b838110156119d25781810151838201526020016119ba565b83811115610bf05750506000910152565b600081518084526119fb8160208601602086016119b7565b601f01601f19169290920160200192915050565b60208152600061160960208301846119e3565b600060208284031215611a3457600080fd5b5035919050565b80356001600160a01b0381168114611a5257600080fd5b919050565b60008060408385031215611a6a57600080fd5b611a7383611a3b565b946020939093013593505050565b600080600060608486031215611a9657600080fd5b611a9f84611a3b565b9250611aad60208501611a3b565b9150604084013590509250925092565b60008083601f840112611acf57600080fd5b50813567ffffffffffffffff811115611ae757600080fd5b602083019150836020828501011115611aff57600080fd5b9250929050565b60008060208385031215611b1957600080fd5b823567ffffffffffffffff811115611b3057600080fd5b611b3c85828601611abd565b90969095509350505050565b634e487b7160e01b600052604160045260246000fd5b600067ffffffffffffffff80841115611b7957611b79611b48565b604051601f8501601f19908116603f01168101908282118183101715611ba157611ba1611b48565b81604052809350858152868686011115611bba57600080fd5b858560208301376000602087830101525050509392505050565b600060208284031215611be657600080fd5b813567ffffffffffffffff811115611bfd57600080fd5b8201601f81018413611c0e57600080fd5b610d6584823560208401611b5e565b600060208284031215611c2f57600080fd5b61160982611a3b565b60008060008060408587031215611c4e57600080fd5b843567ffffffffffffffff80821115611c6657600080fd5b611c7288838901611abd565b90965094506020870135915080821115611c8b57600080fd5b50611c9887828801611abd565b95989497509550505050565b60008060408385031215611cb757600080fd5b611cc083611a3b565b915060208301358015158114611cd557600080fd5b809150509250929050565b60008060008060808587031215611cf657600080fd5b611cff85611a3b565b9350611d0d60208601611a3b565b925060408501359150606085013567ffffffffffffffff811115611d3057600080fd5b8501601f81018713611d4157600080fd5b611d5087823560208401611b5e565b91505092959194509250565b60008060408385031215611d6f57600080fd5b611d7883611a3b565b9150611d8660208401611a3b565b90509250929050565b600181811c90821680611da357607f821691505b60208210811415611dc457634e487b7160e01b600052602260045260246000fd5b50919050565b60208082526031908201527f4552433732313a207472616e736665722063616c6c6572206973206e6f74206f6040820152701ddb995c881b9bdc88185c1c1c9bdd9959607a1b606082015260800190565b8183823760009101908152919050565b8054600090600181811c9080831680611e4557607f831692505b6020808410821415611e6757634e487b7160e01b600052602260045260246000fd5b818015611e7b5760018114611e8c57611eb9565b60ff19861689528489019650611eb9565b60008881526020902060005b86811015611eb15781548b820152908501908301611e98565b505084890196505b50505050505092915050565b82848237601760f91b818401908152600090611ee46001820185611e2b565b9695505050505050565b6000611efa8286611e2b565b8451611f0a8183602089016119b7565b611f1681830186611e2b565b979650505050505050565b693d913730b6b2911d101160b11b81528351600090611f4781600a8501602089016119b7565b7f222c20226465736372697074696f6e223a20224120646f6d61696e206f6e2074600a918401918201527f686520416c7073204e616d652053657276696365222c2022696d616765223a20602a8201527f22646174613a696d6167652f7376672b786d6c3b6261736536342c0000000000604a8201528451611fd08160658401602089016119b7565b6b1116113632b733ba34111d1160a11b606592909101918201528351611ffd8160718401602088016119b7565b61227d60f01b6071929091019182015260730195945050505050565b7f646174613a6170706c69636174696f6e2f6a736f6e3b6261736536342c00000081526000825161205181601d8501602087016119b7565b91909101601d0192915050565b600083516120708184602088016119b7565b8351908301906120848183602088016119b7565b01949350505050565b634e487b7160e01b600052601160045260246000fd5b6000828210156120b5576120b561208d565b500390565b600082198211156120cd576120cd61208d565b500190565b60006000198214156120e6576120e661208d565b5060010190565b634e487b7160e01b600052601260045260246000fd5b600082612112576121126120ed565b500490565b600082612126576121266120ed565b500690565b634e487b7160e01b600052603260045260246000fd5b600081600019048311821515161561215b5761215b61208d565b500290565b60208082526032908201527f4552433732313a207472616e7366657220746f206e6f6e20455243373231526560408201527131b2b4bb32b91034b6b83632b6b2b73a32b960711b606082015260800190565b6001600160a01b0385811682528416602082015260408101839052608060608201819052600090611ee4908301846119e3565b6000602082840312156121f757600080fd5b81516116098161198156fe4142434445464748494a4b4c4d4e4f505152535455565758595a6162636465666768696a6b6c6d6e6f707172737475767778797a303132333435363738392b2fa264697066735822122067a3f8a8a6d95965a4bbe65536bbed4beeb4a50a430c6d95a2f462fd003c161064736f6c634300080b00333c73766720786d6c6e733d22687474703a2f2f7777772e77332e6f72672f323030302f737667222077696474683d2232373022206865696768743d22323730222066696c6c3d226e6f6e65223e3c706174682066696c6c3d2275726c282342292220643d224d302030683237307632373048307a222f3e3c646566733e3c66696c7465722069643d22412220636f6c6f722d696e746572706f6c6174696f6e2d66696c746572733d2273524742222066696c746572556e6974733d227573657253706163654f6e55736522206865696768743d22323730222077696474683d22323730223e3c666544726f70536861646f772064783d2230222064793d22312220737464446576696174696f6e3d22322220666c6f6f642d6f7061636974793d222e323235222077696474683d223230302522206865696768743d2232303025222f3e3c2f66696c7465723e3c2f646566733e3c7061746820643d224d37322e3836332034322e393439632d2e3636382d2e3338372d312e3432362d2e35392d322e3139372d2e3539732d312e3532392e3230342d322e3139372e35396c2d31302e30383120362e3033322d362e383520332e3933342d31302e30383120362e303332632d2e3636382e3338372d312e3432362e35392d322e3139372e3539732d312e3532392d2e3230342d322e3139372d2e35396c2d382e3031332d342e37323161342e353220342e35322030203020312d312e3538392d312e363136632d2e3338342d2e3636352d2e3539342d312e3431382d2e3630382d322e313837762d392e3331632d2e3031332d2e3737352e3138352d312e3533382e3537322d322e32303861342e323520342e323520302030203120312e3632352d312e3539356c372e3838342d342e3539632e3636382d2e33383720312e3432362d2e353920322e3139372d2e353973312e3532392e32303420322e3139372e35396c372e38383420342e353961342e353220342e353220302030203120312e35383920312e363136632e3338342e3636352e35393420312e3431382e36303820322e31383776362e3033326c362e38352d342e303635762d362e303332632e3031332d2e3737352d2e3138352d312e3533382d2e3537322d322e32303861342e323520342e32352030203020302d312e3632352d312e3539354c34312e3435362032342e3539632d2e3636382d2e3338372d312e3432362d2e35392d322e3139372d2e3539732d312e3532392e3230342d322e3139372e35396c2d31342e38363420382e36353561342e323520342e32352030203020302d312e36323520312e353935632d2e3338372e36372d2e35383520312e3433342d2e35373220322e3230387631372e343431632d2e3031332e3737352e31383520312e3533382e35373220322e32303861342e323520342e323520302030203020312e36323520312e3539356c31342e38363420382e363535632e3636382e33383720312e3432362e353920322e3139372e353973312e3532392d2e32303420322e3139372d2e35396c31302e3038312d352e39303120362e38352d342e3036352031302e3038312d352e393031632e3636382d2e33383720312e3432362d2e353920322e3139372d2e353973312e3532392e32303420322e3139372e35396c372e38383420342e353961342e353220342e353220302030203120312e35383920312e363136632e3338342e3636352e35393420312e3431382e36303820322e31383776392e333131632e3031332e3737352d2e31383520312e3533382d2e35373220322e32303861342e323520342e32352030203020312d312e36323520312e3539356c2d372e38383420342e373231632d2e3636382e3338372d312e3432362e35392d322e3139372e3539732d312e3532392d2e3230342d322e3139372d2e35396c2d372e3838342d342e353961342e353220342e35322030203020312d312e3538392d312e363136632d2e3338352d2e3636352d2e3539342d312e3431382d2e3630382d322e313837762d362e3033326c2d362e383520342e30363576362e303332632d2e3031332e3737352e31383520312e3533382e35373220322e32303861342e323520342e323520302030203020312e36323520312e3539356c31342e38363420382e363535632e3636382e33383720312e3432362e353920322e3139372e353973312e3532392d2e32303420322e3139372d2e35396c31342e3836342d382e363535632e3635372d2e33393420312e3230342d2e393520312e3538392d312e363136732e3539342d312e3431382e3630392d322e3138375635352e353338632e3031332d2e3737352d2e3138352d312e3533382d2e3537322d322e32303861342e323520342e32352030203020302d312e3632352d312e3539356c2d31342e3939332d382e3738367a222066696c6c3d2223666666222f3e3c646566733e3c6c696e6561724772616469656e742069643d2242222078313d2230222079313d2230222078323d22323730222079323d2232373022206772616469656e74556e6974733d227573657253706163654f6e557365223e3c73746f702073746f702d636f6c6f723d2223636235656565222f3e3c73746f70206f66667365743d2231222073746f702d636f6c6f723d2223306364376534222073746f702d6f7061636974793d222e3939222f3e3c2f6c696e6561724772616469656e743e3c2f646566733e3c7465787420783d2233322e352220793d223233312220666f6e742d73697a653d223237222066696c6c3d2223666666222066696c7465723d2275726c282341292220666f6e742d66616d696c793d22506c7573204a616b617274612053616e732c44656a6156752053616e732c4e6f746f20436f6c6f7220456d6f6a692c4170706c6520436f6c6f7220456d6f6a692c73616e732d73657269662220666f6e742d7765696768743d22626f6c64223e",
  "immutableReferences": {},
  "source": "//SPDX-License-Identifier: Unlicense\npragma solidity ^0.8.0;\nimport \"@openzeppelin/contracts/token/ERC721/extensions/ERC721URIStorage.sol\";\nimport \"@openzeppelin/contracts/utils/Counters.sol\";\nimport \"base64-sol/base64.sol\";\n\ncontract AlpsNameService is ERC721URIStorage {\n    using Counters for Counters.Counter;\n    Counters.Counter public _tokenIds;\n    string public topLevelDomain;\n    string svgPartOne =\n        '<svg xmlns=\"http://www.w3.org/2000/svg\" width=\"270\" height=\"270\" fill=\"none\"><path fill=\"url(#B)\" d=\"M0 0h270v270H0z\"/><defs><filter id=\"A\" color-interpolation-filters=\"sRGB\" filterUnits=\"userSpaceOnUse\" height=\"270\" width=\"270\"><feDropShadow dx=\"0\" dy=\"1\" stdDeviation=\"2\" flood-opacity=\".225\" width=\"200%\" height=\"200%\"/></filter></defs><path d=\"M72.863 42.949c-.668-.387-1.426-.59-2.197-.59s-1.529.204-2.197.59l-10.081 6.032-6.85 3.934-10.081 6.032c-.668.387-1.426.59-2.197.59s-1.529-.204-2.197-.59l-8.013-4.721a4.52 4.52 0 0 1-1.589-1.616c-.384-.665-.594-1.418-.608-2.187v-9.31c-.013-.775.185-1.538.572-2.208a4.25 4.25 0 0 1 1.625-1.595l7.884-4.59c.668-.387 1.426-.59 2.197-.59s1.529.204 2.197.59l7.884 4.59a4.52 4.52 0 0 1 1.589 1.616c.384.665.594 1.418.608 2.187v6.032l6.85-4.065v-6.032c.013-.775-.185-1.538-.572-2.208a4.25 4.25 0 0 0-1.625-1.595L41.456 24.59c-.668-.387-1.426-.59-2.197-.59s-1.529.204-2.197.59l-14.864 8.655a4.25 4.25 0 0 0-1.625 1.595c-.387.67-.585 1.434-.572 2.208v17.441c-.013.775.185 1.538.572 2.208a4.25 4.25 0 0 0 1.625 1.595l14.864 8.655c.668.387 1.426.59 2.197.59s1.529-.204 2.197-.59l10.081-5.901 6.85-4.065 10.081-5.901c.668-.387 1.426-.59 2.197-.59s1.529.204 2.197.59l7.884 4.59a4.52 4.52 0 0 1 1.589 1.616c.384.665.594 1.418.608 2.187v9.311c.013.775-.185 1.538-.572 2.208a4.25 4.25 0 0 1-1.625 1.595l-7.884 4.721c-.668.387-1.426.59-2.197.59s-1.529-.204-2.197-.59l-7.884-4.59a4.52 4.52 0 0 1-1.589-1.616c-.385-.665-.594-1.418-.608-2.187v-6.032l-6.85 4.065v6.032c-.013.775.185 1.538.572 2.208a4.25 4.25 0 0 0 1.625 1.595l14.864 8.655c.668.387 1.426.59 2.197.59s1.529-.204 2.197-.59l14.864-8.655c.657-.394 1.204-.95 1.589-1.616s.594-1.418.609-2.187V55.538c.013-.775-.185-1.538-.572-2.208a4.25 4.25 0 0 0-1.625-1.595l-14.993-8.786z\" fill=\"#fff\"/><defs><linearGradient id=\"B\" x1=\"0\" y1=\"0\" x2=\"270\" y2=\"270\" gradientUnits=\"userSpaceOnUse\"><stop stop-color=\"#cb5eee\"/><stop offset=\"1\" stop-color=\"#0cd7e4\" stop-opacity=\".99\"/></linearGradient></defs><text x=\"32.5\" y=\"231\" font-size=\"27\" fill=\"#fff\" filter=\"url(#A)\" font-family=\"Plus Jakarta Sans,DejaVu Sans,Noto Color Emoji,Apple Color Emoji,sans-serif\" font-weight=\"bold\">';\n    string svgPartTwo = \"</text></svg>\";\n\n    constructor(string memory tld) payable ERC721(\"Alps Name Service\", \"ANS\") {\n        topLevelDomain = tld;\n    }\n\n    mapping(string => address) public domains;\n\n    //For some additional info about the domain\n    mapping(string => string) public domainRecords;\n\n    //for buying a domain\n    function registerForDomain(string calldata name) public payable {\n        require(domains[name] == address(0));\n        uint256 price = getPrice(name);\n        require(msg.value >= price, \"Not enough matic\");\n\n        string memory _name = string(\n            abi.encodePacked(name, \".\", topLevelDomain)\n        );\n        string memory finalSvg = string(\n            abi.encodePacked(svgPartOne, _name, svgPartTwo)\n        );\n        uint256 newRecordId = _tokenIds.current();\n        uint256 length = bytes(name).length;\n        string memory strLen = Strings.toString(length);\n        string memory json = Base64.encode(\n            abi.encodePacked(\n                '{\"name\": \"',\n                _name,\n                '\", \"description\": \"A domain on the Alps Name Service\", \"image\": \"data:image/svg+xml;base64,',\n                Base64.encode(bytes(finalSvg)),\n                '\",\"length\":\"',\n                strLen,\n                '\"}'\n            )\n        );\n        string memory finalTokenURI = string(\n            abi.encodePacked(\"data:application/json;base64,\", json)\n        );\n        _safeMint(msg.sender, newRecordId);\n        _setTokenURI(newRecordId, finalTokenURI);\n        domains[name] = msg.sender;\n        _tokenIds.increment();\n    }\n\n    //get owner address for a specific domain\n    function getDomainOwner(string calldata name)\n        public\n        view\n        returns (address)\n    {\n        return domains[name];\n    }\n\n    //to decide price of domain based on the length\n    function getPrice(string calldata name) public pure returns (uint256) {\n        uint256 len = bytes(name).length;\n        require(len > 0);\n        if (len < 3) {\n            return 4 * 10**17;\n        } else if (len == 4) {\n            return 3 * 10**17;\n        } else {\n            return 1 * 10**17;\n        }\n    }\n\n    //set some additional info about the domain\n    function setDomainRecord(string calldata name, string calldata record)\n        public\n    {\n        require(domains[name] == msg.sender);\n        domainRecords[name] = record;\n    }\n\n    //get some additional info about the domain\n    function getDomainRecord(string calldata name)\n        public\n        view\n        returns (string memory)\n    {\n        return domainRecords[name];\n    }\n}\n",
  "sourcePath": "/Users/yosephks/Documents/GitHub/alpsfinance-smart-contracts/contracts/name_service/AlpsNameService.sol",
  "compiler": {
    "name": "solc",
    "version": "0.8.11+commit.d7f03943.Emscripten.clang"
  },
  "schemaVersion": "3.4.6",
  "updatedAt": "2022-04-07T15:30:37.720Z",
  "devdoc": {
    "kind": "dev",
    "methods": {
      "approve(address,uint256)": {
        "details": "See {IERC721-approve}."
      },
      "balanceOf(address)": {
        "details": "See {IERC721-balanceOf}."
      },
      "getApproved(uint256)": {
        "details": "See {IERC721-getApproved}."
      },
      "isApprovedForAll(address,address)": {
        "details": "See {IERC721-isApprovedForAll}."
      },
      "name()": {
        "details": "See {IERC721Metadata-name}."
      },
      "ownerOf(uint256)": {
        "details": "See {IERC721-ownerOf}."
      },
      "safeTransferFrom(address,address,uint256)": {
        "details": "See {IERC721-safeTransferFrom}."
      },
      "safeTransferFrom(address,address,uint256,bytes)": {
        "details": "See {IERC721-safeTransferFrom}."
      },
      "setApprovalForAll(address,bool)": {
        "details": "See {IERC721-setApprovalForAll}."
      },
      "supportsInterface(bytes4)": {
        "details": "See {IERC165-supportsInterface}."
      },
      "symbol()": {
        "details": "See {IERC721Metadata-symbol}."
      },
      "tokenURI(uint256)": {
        "details": "See {IERC721Metadata-tokenURI}."
      },
      "transferFrom(address,address,uint256)": {
        "details": "See {IERC721-transferFrom}."
      }
    },
    "version": 1
  },
  "userdoc": {
    "kind": "user",
    "methods": {},
    "version": 1
  }
}