{
  "contractName": "AlpsNameService",
  "abi": [
    {
      "inputs": [
        {
          "internalType": "string",
          "name": "tld",
          "type": "string"
        }
      ],
      "stateMutability": "payable",
      "type": "constructor"
    },
    {
      "inputs": [
        {
          "internalType": "string",
          "name": "name",
          "type": "string"
        }
      ],
      "name": "DomainNameRegistered",
      "type": "error"
    },
    {
      "inputs": [
        {
          "internalType": "string",
          "name": "name",
          "type": "string"
        },
        {
          "internalType": "uint256",
          "name": "lenght",
          "type": "uint256"
        }
      ],
      "name": "InvalidNameLength",
      "type": "error"
    },
    {
      "inputs": [
        {
          "internalType": "uint256",
          "name": "amount",
          "type": "uint256"
        }
      ],
      "name": "TokenPaymentNotSufficient",
      "type": "error"
    },
    {
      "anonymous": false,
      "inputs": [
        {
          "indexed": true,
          "internalType": "address",
          "name": "owner",
          "type": "address"
        },
        {
          "indexed": true,
          "internalType": "address",
          "name": "approved",
          "type": "address"
        },
        {
          "indexed": true,
          "internalType": "uint256",
          "name": "tokenId",
          "type": "uint256"
        }
      ],
      "name": "Approval",
      "type": "event"
    },
    {
      "anonymous": false,
      "inputs": [
        {
          "indexed": true,
          "internalType": "address",
          "name": "owner",
          "type": "address"
        },
        {
          "indexed": true,
          "internalType": "address",
          "name": "operator",
          "type": "address"
        },
        {
          "indexed": false,
          "internalType": "bool",
          "name": "approved",
          "type": "bool"
        }
      ],
      "name": "ApprovalForAll",
      "type": "event"
    },
    {
      "anonymous": false,
      "inputs": [
        {
          "indexed": false,
          "internalType": "string",
          "name": "name",
          "type": "string"
        },
        {
          "indexed": false,
          "internalType": "address",
          "name": "owner",
          "type": "address"
        },
        {
          "indexed": false,
          "internalType": "uint256",
          "name": "registerTime",
          "type": "uint256"
        }
      ],
      "name": "RegisterDomain",
      "type": "event"
    },
    {
      "anonymous": false,
      "inputs": [
        {
          "indexed": true,
          "internalType": "address",
          "name": "from",
          "type": "address"
        },
        {
          "indexed": true,
          "internalType": "address",
          "name": "to",
          "type": "address"
        },
        {
          "indexed": true,
          "internalType": "uint256",
          "name": "tokenId",
          "type": "uint256"
        }
      ],
      "name": "Transfer",
      "type": "event"
    },
    {
      "inputs": [],
      "name": "_tokenIds",
      "outputs": [
        {
          "internalType": "uint256",
          "name": "_value",
          "type": "uint256"
        }
      ],
      "stateMutability": "view",
      "type": "function"
    },
    {
      "inputs": [
        {
          "internalType": "address",
          "name": "to",
          "type": "address"
        },
        {
          "internalType": "uint256",
          "name": "tokenId",
          "type": "uint256"
        }
      ],
      "name": "approve",
      "outputs": [],
      "stateMutability": "nonpayable",
      "type": "function"
    },
    {
      "inputs": [
        {
          "internalType": "address",
          "name": "owner",
          "type": "address"
        }
      ],
      "name": "balanceOf",
      "outputs": [
        {
          "internalType": "uint256",
          "name": "",
          "type": "uint256"
        }
      ],
      "stateMutability": "view",
      "type": "function"
    },
    {
      "inputs": [
        {
          "internalType": "string",
          "name": "",
          "type": "string"
        }
      ],
      "name": "domains",
      "outputs": [
        {
          "internalType": "address",
          "name": "",
          "type": "address"
        }
      ],
      "stateMutability": "view",
      "type": "function"
    },
    {
      "inputs": [
        {
          "internalType": "uint256",
          "name": "tokenId",
          "type": "uint256"
        }
      ],
      "name": "getApproved",
      "outputs": [
        {
          "internalType": "address",
          "name": "",
          "type": "address"
        }
      ],
      "stateMutability": "view",
      "type": "function"
    },
    {
      "inputs": [
        {
          "internalType": "address",
          "name": "owner",
          "type": "address"
        },
        {
          "internalType": "address",
          "name": "operator",
          "type": "address"
        }
      ],
      "name": "isApprovedForAll",
      "outputs": [
        {
          "internalType": "bool",
          "name": "",
          "type": "bool"
        }
      ],
      "stateMutability": "view",
      "type": "function"
    },
    {
      "inputs": [],
      "name": "name",
      "outputs": [
        {
          "internalType": "string",
          "name": "",
          "type": "string"
        }
      ],
      "stateMutability": "view",
      "type": "function"
    },
    {
      "inputs": [
        {
          "internalType": "uint256",
          "name": "tokenId",
          "type": "uint256"
        }
      ],
      "name": "ownerOf",
      "outputs": [
        {
          "internalType": "address",
          "name": "",
          "type": "address"
        }
      ],
      "stateMutability": "view",
      "type": "function"
    },
    {
      "inputs": [
        {
          "internalType": "uint256",
          "name": "_tokenId",
          "type": "uint256"
        },
        {
          "internalType": "uint256",
          "name": "_salePrice",
          "type": "uint256"
        }
      ],
      "name": "royaltyInfo",
      "outputs": [
        {
          "internalType": "address",
          "name": "",
          "type": "address"
        },
        {
          "internalType": "uint256",
          "name": "",
          "type": "uint256"
        }
      ],
      "stateMutability": "view",
      "type": "function"
    },
    {
      "inputs": [
        {
          "internalType": "address",
          "name": "from",
          "type": "address"
        },
        {
          "internalType": "address",
          "name": "to",
          "type": "address"
        },
        {
          "internalType": "uint256",
          "name": "tokenId",
          "type": "uint256"
        }
      ],
      "name": "safeTransferFrom",
      "outputs": [],
      "stateMutability": "nonpayable",
      "type": "function"
    },
    {
      "inputs": [
        {
          "internalType": "address",
          "name": "from",
          "type": "address"
        },
        {
          "internalType": "address",
          "name": "to",
          "type": "address"
        },
        {
          "internalType": "uint256",
          "name": "tokenId",
          "type": "uint256"
        },
        {
          "internalType": "bytes",
          "name": "_data",
          "type": "bytes"
        }
      ],
      "name": "safeTransferFrom",
      "outputs": [],
      "stateMutability": "nonpayable",
      "type": "function"
    },
    {
      "inputs": [
        {
          "internalType": "address",
          "name": "operator",
          "type": "address"
        },
        {
          "internalType": "bool",
          "name": "approved",
          "type": "bool"
        }
      ],
      "name": "setApprovalForAll",
      "outputs": [],
      "stateMutability": "nonpayable",
      "type": "function"
    },
    {
      "inputs": [],
      "name": "svgPartOne",
      "outputs": [
        {
          "internalType": "string",
          "name": "",
          "type": "string"
        }
      ],
      "stateMutability": "view",
      "type": "function"
    },
    {
      "inputs": [],
      "name": "svgPartTwo",
      "outputs": [
        {
          "internalType": "string",
          "name": "",
          "type": "string"
        }
      ],
      "stateMutability": "view",
      "type": "function"
    },
    {
      "inputs": [],
      "name": "symbol",
      "outputs": [
        {
          "internalType": "string",
          "name": "",
          "type": "string"
        }
      ],
      "stateMutability": "view",
      "type": "function"
    },
    {
      "inputs": [
        {
          "internalType": "uint256",
          "name": "tokenId",
          "type": "uint256"
        }
      ],
      "name": "tokenURI",
      "outputs": [
        {
          "internalType": "string",
          "name": "",
          "type": "string"
        }
      ],
      "stateMutability": "view",
      "type": "function"
    },
    {
      "inputs": [],
      "name": "topLevelDomain",
      "outputs": [
        {
          "internalType": "string",
          "name": "",
          "type": "string"
        }
      ],
      "stateMutability": "view",
      "type": "function"
    },
    {
      "inputs": [
        {
          "internalType": "address",
          "name": "from",
          "type": "address"
        },
        {
          "internalType": "address",
          "name": "to",
          "type": "address"
        },
        {
          "internalType": "uint256",
          "name": "tokenId",
          "type": "uint256"
        }
      ],
      "name": "transferFrom",
      "outputs": [],
      "stateMutability": "nonpayable",
      "type": "function"
    },
    {
      "inputs": [
        {
          "internalType": "string",
          "name": "name",
          "type": "string"
        }
      ],
      "name": "domainOwner",
      "outputs": [
        {
          "internalType": "address",
          "name": "",
          "type": "address"
        }
      ],
      "stateMutability": "view",
      "type": "function"
    },
    {
      "inputs": [
        {
          "internalType": "string",
          "name": "name",
          "type": "string"
        }
      ],
      "name": "domainPrice",
      "outputs": [
        {
          "internalType": "uint256",
          "name": "",
          "type": "uint256"
        }
      ],
      "stateMutability": "pure",
      "type": "function"
    },
    {
      "inputs": [
        {
          "internalType": "string",
          "name": "name",
          "type": "string"
        }
      ],
      "name": "registerDomain",
      "outputs": [],
      "stateMutability": "payable",
      "type": "function"
    },
    {
      "inputs": [
        {
          "internalType": "bytes4",
          "name": "interfaceId",
          "type": "bytes4"
        }
      ],
      "name": "supportsInterface",
      "outputs": [
        {
          "internalType": "bool",
          "name": "",
          "type": "bool"
        }
      ],
      "stateMutability": "view",
      "type": "function"
    }
  ],
  "bytecode": "0x6108a06040526107f26080818152906200267760a03980516200002b91600c9160209091019062000111565b5060405180610160016040528061013f81526020016200253861013f913980516200005f91600d9160209091019062000111565b5060405162002e6938038062002e698339810160408190526200008291620001cd565b6040805180820182526011815270416c7073204e616d65205365727669636560781b602080830191825283518085019094526003845262414e5360e81b908401528151919291620000d69160009162000111565b508051620000ec90600190602084019062000111565b505060016009555080516200010990600b90602084019062000111565b5050620002e6565b8280546200011f90620002a9565b90600052602060002090601f0160209004810192826200014357600085556200018e565b82601f106200015e57805160ff19168380011785556200018e565b828001600101855582156200018e579182015b828111156200018e57825182559160200191906001019062000171565b506200019c929150620001a0565b5090565b5b808211156200019c5760008155600101620001a1565b634e487b7160e01b600052604160045260246000fd5b60006020808385031215620001e157600080fd5b82516001600160401b0380821115620001f957600080fd5b818501915085601f8301126200020e57600080fd5b815181811115620002235762000223620001b7565b604051601f8201601f19908116603f011681019083821181831017156200024e576200024e620001b7565b8160405282815288868487010111156200026757600080fd5b600093505b828410156200028b57848401860151818501870152928501926200026c565b828411156200029d5760008684830101525b98975050505050505050565b600181811c90821680620002be57607f821691505b60208210811415620002e057634e487b7160e01b600052602260045260246000fd5b50919050565b61224280620002f66000396000f3fe6080604052600436106101355760003560e01c80636523174c116100ab578063aa46a4001161006f578063aa46a4001461038b578063b88d4fde146103a2578063c87b56dd146103c2578063e985e9c5146103e2578063f887a2891461042b578063ffeac8ec1461044057600080fd5b80636523174c1461030057806370a082311461031557806395d89b4114610343578063a22cb46514610358578063a5cad08a1461037857600080fd5b806323b872dd116100fd57806323b872dd1461020b578063264492351461022b5780632a55205a1461026c57806342842e0e146102ab57806352f21743146102cb5780636352211e146102e057600080fd5b806301ffc9a71461013a57806306fdde031461016f578063081812fc14610191578063095ea7b3146101c957806318d95092146101eb575b600080fd5b34801561014657600080fd5b5061015a61015536600461196a565b610460565b60405190151581526020015b60405180910390f35b34801561017b57600080fd5b50610184610471565b60405161016691906119df565b34801561019d57600080fd5b506101b16101ac3660046119f2565b610503565b6040516001600160a01b039091168152602001610166565b3480156101d557600080fd5b506101e96101e4366004611a27565b610590565b005b3480156101f757600080fd5b506101b1610206366004611a51565b6106a6565b34801561021757600080fd5b506101e9610226366004611ac3565b6106db565b34801561023757600080fd5b506101b1610246366004611b8b565b8051602081830181018051600e825292820191909301209152546001600160a01b031681565b34801561027857600080fd5b5061028c610287366004611bd4565b61070c565b604080516001600160a01b039093168352602083019190915201610166565b3480156102b757600080fd5b506101e96102c6366004611ac3565b6107b8565b3480156102d757600080fd5b506101846107d3565b3480156102ec57600080fd5b506101b16102fb3660046119f2565b610861565b34801561030c57600080fd5b506101846108d8565b34801561032157600080fd5b50610335610330366004611bf6565b6108e5565b604051908152602001610166565b34801561034f57600080fd5b5061018461096c565b34801561036457600080fd5b506101e9610373366004611c11565b61097b565b6101e9610386366004611a51565b61098a565b34801561039757600080fd5b50600a546103359081565b3480156103ae57600080fd5b506101e96103bd366004611c4d565b610bc8565b3480156103ce57600080fd5b506101846103dd3660046119f2565b610c00565b3480156103ee57600080fd5b5061015a6103fd366004611cc9565b6001600160a01b03918216600090815260056020908152604080832093909416825291909152205460ff1690565b34801561043757600080fd5b50610184610d77565b34801561044c57600080fd5b5061033561045b366004611a51565b610d84565b600061046b82610def565b92915050565b60606000805461048090611cfc565b80601f01602080910402602001604051908101604052809291908181526020018280546104ac90611cfc565b80156104f95780601f106104ce576101008083540402835291602001916104f9565b820191906000526020600020905b8154815290600101906020018083116104dc57829003601f168201915b5050505050905090565b600061050e82610e14565b6105745760405162461bcd60e51b815260206004820152602c60248201527f4552433732313a20617070726f76656420717565727920666f72206e6f6e657860448201526b34b9ba32b73a103a37b5b2b760a11b60648201526084015b60405180910390fd5b506000908152600460205260409020546001600160a01b031690565b600061059b82610861565b9050806001600160a01b0316836001600160a01b031614156106095760405162461bcd60e51b815260206004820152602160248201527f4552433732313a20617070726f76616c20746f2063757272656e74206f776e656044820152603960f91b606482015260840161056b565b336001600160a01b0382161480610625575061062581336103fd565b6106975760405162461bcd60e51b815260206004820152603860248201527f4552433732313a20617070726f76652063616c6c6572206973206e6f74206f7760448201527f6e6572206e6f7220617070726f76656420666f7220616c6c0000000000000000606482015260840161056b565b6106a18383610e31565b505050565b6000600e83836040516106ba929190611d37565b908152604051908190036020019020546001600160a01b0316905092915050565b6106e53382610e9f565b6107015760405162461bcd60e51b815260040161056b90611d47565b6106a1838383610f85565b60008281526008602090815260408083208151808301909252546001600160a01b038116808352600160a01b9091046001600160601b03169282019290925282916107815750604080518082019091526007546001600160a01b0381168252600160a01b90046001600160601b031660208201525b6020810151600090612710906107a0906001600160601b031687611dae565b6107aa9190611de3565b915196919550909350505050565b6106a183838360405180602001604052806000815250610bc8565b600b80546107e090611cfc565b80601f016020809104026020016040519081016040528092919081815260200182805461080c90611cfc565b80156108595780601f1061082e57610100808354040283529160200191610859565b820191906000526020600020905b81548152906001019060200180831161083c57829003601f168201915b505050505081565b6000818152600260205260408120546001600160a01b03168061046b5760405162461bcd60e51b815260206004820152602960248201527f4552433732313a206f776e657220717565727920666f72206e6f6e657869737460448201526832b73a103a37b5b2b760b91b606482015260840161056b565b600c80546107e090611cfc565b60006001600160a01b0382166109505760405162461bcd60e51b815260206004820152602a60248201527f4552433732313a2062616c616e636520717565727920666f7220746865207a65604482015269726f206164647265737360b01b606482015260840161056b565b506001600160a01b031660009081526003602052604090205490565b60606001805461048090611cfc565b610986338383611121565b5050565b600260095414156109dd5760405162461bcd60e51b815260206004820152601f60248201527f5265656e7472616e637947756172643a207265656e7472616e742063616c6c00604482015260640161056b565b6002600955604051600090600e906109f89085908590611d37565b908152604051908190036020019020546001600160a01b03161415610a34578181604051637e03bf3160e01b815260040161056b929190611e20565b610a3e8282610d84565b341015610a6057604051635b8a5d6b60e11b815234600482015260240161056b565b33600e8383604051610a73929190611d37565b908152602001604051809103902060006101000a8154816001600160a01b0302191690836001600160a01b031602179055506000600c8383600d604051602001610ac09493929190611ece565b604051602081830303815290604052905060008383600b604051602001610ae993929190611efb565b60405160208183030381529060405290506000610b05600a5490565b9050610b15600a80546001019055565b6000610b4983610b24866111f0565b604051602001610b35929190611f24565b6040516020818303038152906040526111f0565b9050610b553383611356565b610b7e8282604051602001610b6a9190611fee565b604051602081830303815290604052611370565b7fecbb8e22ab7e3774f182003adfb749e5e61333ddc851166348e947567878e02f86863342604051610bb39493929190612033565b60405180910390a15050600160095550505050565b610bd23383610e9f565b610bee5760405162461bcd60e51b815260040161056b90611d47565b610bfa848484846113fb565b50505050565b6060610c0b82610e14565b610c715760405162461bcd60e51b815260206004820152603160248201527f45524337323155524953746f726167653a2055524920717565727920666f72206044820152703737b732bc34b9ba32b73a103a37b5b2b760791b606482015260840161056b565b60008281526006602052604081208054610c8a90611cfc565b80601f0160208091040260200160405190810160405280929190818152602001828054610cb690611cfc565b8015610d035780601f10610cd857610100808354040283529160200191610d03565b820191906000526020600020905b815481529060010190602001808311610ce657829003601f168201915b505050505090506000610d2160408051602081019091526000815290565b9050805160001415610d34575092915050565b815115610d66578082604051602001610d4e929190612063565b60405160208183030381529060405292505050919050565b610d6f8461142e565b949350505050565b600d80546107e090611cfc565b60008180610dab57838382604051633318a04d60e01b815260040161056b93929190612092565b60038111610dc4576706f05b59d3b2000091505061046b565b8060041415610dde57670429d069189e000091505061046b565b67016345785d8a000091505061046b565b60006001600160e01b0319821663152a902d60e11b148061046b575061046b82611506565b6000908152600260205260409020546001600160a01b0316151590565b600081815260046020526040902080546001600160a01b0319166001600160a01b0384169081179091558190610e6682610861565b6001600160a01b03167f8c5be1e5ebec7d5bd14f71427d1e84f3dd0314c0f7b2291e5b200ac8c7c3b92560405160405180910390a45050565b6000610eaa82610e14565b610f0b5760405162461bcd60e51b815260206004820152602c60248201527f4552433732313a206f70657261746f7220717565727920666f72206e6f6e657860448201526b34b9ba32b73a103a37b5b2b760a11b606482015260840161056b565b6000610f1683610861565b9050806001600160a01b0316846001600160a01b03161480610f515750836001600160a01b0316610f4684610503565b6001600160a01b0316145b80610d6f57506001600160a01b0380821660009081526005602090815260408083209388168352929052205460ff16610d6f565b826001600160a01b0316610f9882610861565b6001600160a01b031614610ffc5760405162461bcd60e51b815260206004820152602560248201527f4552433732313a207472616e736665722066726f6d20696e636f72726563742060448201526437bbb732b960d91b606482015260840161056b565b6001600160a01b03821661105e5760405162461bcd60e51b8152602060048201526024808201527f4552433732313a207472616e7366657220746f20746865207a65726f206164646044820152637265737360e01b606482015260840161056b565b611069600082610e31565b6001600160a01b03831660009081526003602052604081208054600192906110929084906120b6565b90915550506001600160a01b03821660009081526003602052604081208054600192906110c09084906120cd565b909155505060008181526002602052604080822080546001600160a01b0319166001600160a01b0386811691821790925591518493918716917fddf252ad1be2c89b69c2b068fc378daa952ba7f163c4a11628f55a4df523b3ef91a4505050565b816001600160a01b0316836001600160a01b031614156111835760405162461bcd60e51b815260206004820152601960248201527f4552433732313a20617070726f766520746f2063616c6c657200000000000000604482015260640161056b565b6001600160a01b03838116600081815260056020908152604080832094871680845294825291829020805460ff191686151590811790915591519182527f17307eab39ab6107e8899845ad3d59bd9653f200f220920489ca2b5937696c31910160405180910390a3505050565b606081516000141561121057505060408051602081019091526000815290565b60006040518060600160405280604081526020016121cd604091399050600060038451600261123f91906120cd565b6112499190611de3565b611254906004611dae565b905060006112638260206120cd565b67ffffffffffffffff81111561127b5761127b611aff565b6040519080825280601f01601f1916602001820160405280156112a5576020820181803683370190505b509050818152600183018586518101602084015b81831015611311576003830192508251603f8160121c168501518253600182019150603f81600c1c168501518253600182019150603f8160061c168501518253600182019150603f81168501518253506001016112b9565b60038951066001811461132b576002811461133c57611348565b613d3d60f01b600119830152611348565b603d60f81b6000198301525b509398975050505050505050565b610986828260405180602001604052806000815250611556565b61137982610e14565b6113dc5760405162461bcd60e51b815260206004820152602e60248201527f45524337323155524953746f726167653a2055524920736574206f66206e6f6e60448201526d32bc34b9ba32b73a103a37b5b2b760911b606482015260840161056b565b600082815260066020908152604090912082516106a1928401906118b8565b611406848484610f85565b61141284848484611589565b610bfa5760405162461bcd60e51b815260040161056b906120e5565b606061143982610e14565b61149d5760405162461bcd60e51b815260206004820152602f60248201527f4552433732314d657461646174613a2055524920717565727920666f72206e6f60448201526e3732bc34b9ba32b73a103a37b5b2b760891b606482015260840161056b565b60006114b460408051602081019091526000815290565b905060008151116114d457604051806020016040528060008152506114ff565b806114de84611687565b6040516020016114ef929190612063565b6040516020818303038152906040525b9392505050565b60006001600160e01b031982166380ac58cd60e01b148061153757506001600160e01b03198216635b5e139f60e01b145b8061046b57506301ffc9a760e01b6001600160e01b031983161461046b565b6115608383611785565b61156d6000848484611589565b6106a15760405162461bcd60e51b815260040161056b906120e5565b60006001600160a01b0384163b1561167c57604051630a85bd0160e11b81526001600160a01b0385169063150b7a02906115cd903390899088908890600401612137565b6020604051808303816000875af1925050508015611608575060408051601f3d908101601f191682019092526116059181019061216a565b60015b611662573d808015611636576040519150601f19603f3d011682016040523d82523d6000602084013e61163b565b606091505b50805161165a5760405162461bcd60e51b815260040161056b906120e5565b805181602001fd5b6001600160e01b031916630a85bd0160e11b149050610d6f565b506001949350505050565b6060816116ab5750506040805180820190915260018152600360fc1b602082015290565b8160005b81156116d557806116bf81612187565b91506116ce9050600a83611de3565b91506116af565b60008167ffffffffffffffff8111156116f0576116f0611aff565b6040519080825280601f01601f19166020018201604052801561171a576020820181803683370190505b5090505b8415610d6f5761172f6001836120b6565b915061173c600a866121a2565b6117479060306120cd565b60f81b81838151811061175c5761175c6121b6565b60200101906001600160f81b031916908160001a90535061177e600a86611de3565b945061171e565b6001600160a01b0382166117db5760405162461bcd60e51b815260206004820181905260248201527f4552433732313a206d696e7420746f20746865207a65726f2061646472657373604482015260640161056b565b6117e481610e14565b156118315760405162461bcd60e51b815260206004820152601c60248201527f4552433732313a20746f6b656e20616c7265616479206d696e74656400000000604482015260640161056b565b6001600160a01b038216600090815260036020526040812080546001929061185a9084906120cd565b909155505060008181526002602052604080822080546001600160a01b0319166001600160a01b03861690811790915590518392907fddf252ad1be2c89b69c2b068fc378daa952ba7f163c4a11628f55a4df523b3ef908290a45050565b8280546118c490611cfc565b90600052602060002090601f0160209004810192826118e6576000855561192c565b82601f106118ff57805160ff191683800117855561192c565b8280016001018555821561192c579182015b8281111561192c578251825591602001919060010190611911565b5061193892915061193c565b5090565b5b80821115611938576000815560010161193d565b6001600160e01b03198116811461196757600080fd5b50565b60006020828403121561197c57600080fd5b81356114ff81611951565b60005b838110156119a257818101518382015260200161198a565b83811115610bfa5750506000910152565b600081518084526119cb816020860160208601611987565b601f01601f19169290920160200192915050565b6020815260006114ff60208301846119b3565b600060208284031215611a0457600080fd5b5035919050565b80356001600160a01b0381168114611a2257600080fd5b919050565b60008060408385031215611a3a57600080fd5b611a4383611a0b565b946020939093013593505050565b60008060208385031215611a6457600080fd5b823567ffffffffffffffff80821115611a7c57600080fd5b818501915085601f830112611a9057600080fd5b813581811115611a9f57600080fd5b866020828501011115611ab157600080fd5b60209290920196919550909350505050565b600080600060608486031215611ad857600080fd5b611ae184611a0b565b9250611aef60208501611a0b565b9150604084013590509250925092565b634e487b7160e01b600052604160045260246000fd5b600067ffffffffffffffff80841115611b3057611b30611aff565b604051601f8501601f19908116603f01168101908282118183101715611b5857611b58611aff565b81604052809350858152868686011115611b7157600080fd5b858560208301376000602087830101525050509392505050565b600060208284031215611b9d57600080fd5b813567ffffffffffffffff811115611bb457600080fd5b8201601f81018413611bc557600080fd5b610d6f84823560208401611b15565b60008060408385031215611be757600080fd5b50508035926020909101359150565b600060208284031215611c0857600080fd5b6114ff82611a0b565b60008060408385031215611c2457600080fd5b611c2d83611a0b565b915060208301358015158114611c4257600080fd5b809150509250929050565b60008060008060808587031215611c6357600080fd5b611c6c85611a0b565b9350611c7a60208601611a0b565b925060408501359150606085013567ffffffffffffffff811115611c9d57600080fd5b8501601f81018713611cae57600080fd5b611cbd87823560208401611b15565b91505092959194509250565b60008060408385031215611cdc57600080fd5b611ce583611a0b565b9150611cf360208401611a0b565b90509250929050565b600181811c90821680611d1057607f821691505b60208210811415611d3157634e487b7160e01b600052602260045260246000fd5b50919050565b8183823760009101908152919050565b60208082526031908201527f4552433732313a207472616e736665722063616c6c6572206973206e6f74206f6040820152701ddb995c881b9bdc88185c1c1c9bdd9959607a1b606082015260800190565b634e487b7160e01b600052601160045260246000fd5b6000816000190483118215151615611dc857611dc8611d98565b500290565b634e487b7160e01b600052601260045260246000fd5b600082611df257611df2611dcd565b500490565b81835281816020850137506000828201602090810191909152601f909101601f19169091010190565b602081526000610d6f602083018486611df7565b8054600090600181811c9080831680611e4e57607f831692505b6020808410821415611e7057634e487b7160e01b600052602260045260246000fd5b818015611e845760018114611e9557611ec2565b60ff19861689528489019650611ec2565b60008881526020902060005b86811015611eba5781548b820152908501908301611ea1565b505084890196505b50505050505092915050565b6000611eda8287611e34565b848682376000908501908152611ef08185611e34565b979650505050505050565b82848237601760f91b818401908152600090611f1a6001820185611e34565b9695505050505050565b693d913730b6b2911d101160b11b81528251600090611f4a81600a850160208801611987565b7f222c20226465736372697074696f6e223a20224120646f6d61696e206f6e2074600a918401918201527f686520416c7073204e616d652053657276696365222c2022696d616765223a20602a8201527f22646174613a696d6167652f7376672b786d6c3b6261736536342c0000000000604a8201528351611fd3816065840160208801611987565b61227d60f01b60659290910191820152606701949350505050565b7f646174613a6170706c69636174696f6e2f6a736f6e3b6261736536342c00000081526000825161202681601d850160208701611987565b91909101601d0192915050565b606081526000612047606083018688611df7565b6001600160a01b03949094166020830152506040015292915050565b60008351612075818460208801611987565b835190830190612089818360208801611987565b01949350505050565b6040815260006120a6604083018587611df7565b9050826020830152949350505050565b6000828210156120c8576120c8611d98565b500390565b600082198211156120e0576120e0611d98565b500190565b60208082526032908201527f4552433732313a207472616e7366657220746f206e6f6e20455243373231526560408201527131b2b4bb32b91034b6b83632b6b2b73a32b960711b606082015260800190565b6001600160a01b0385811682528416602082015260408101839052608060608201819052600090611f1a908301846119b3565b60006020828403121561217c57600080fd5b81516114ff81611951565b600060001982141561219b5761219b611d98565b5060010190565b6000826121b1576121b1611dcd565b500690565b634e487b7160e01b600052603260045260246000fdfe4142434445464748494a4b4c4d4e4f505152535455565758595a6162636465666768696a6b6c6d6e6f707172737475767778797a303132333435363738392b2fa2646970667358221220c76557aa6c2a20766d3b9c1b2acf3d55799cb8f2ab5c76c5272c407881e9ac8864736f6c634300080b00333c2f746578743e3c7465787420783d2233322e352220793d223233302220666f6e742d73697a653d223237222066696c6c3d2223666666222066696c7465723d2275726c282341292220666f6e742d66616d696c793d27506f7070696e732c2048656c7665746963612c2073797374656d2d75692c202d6170706c652d73797374656d2c20426c696e6b4d616353797374656d466f6e742c20227365676f65207569222c20526f626f746f2c202268656c766574696361206e657565222c20417269616c2c20226e6f746f2073616e73222c2073616e732d73657269662c20226170706c6520636f6c6f7220656d6f6a69222c20227365676f6520756920656d6f6a69222c20227365676f652075692073796d626f6c222c20226e6f746f20636f6c6f7220656d6f6a6922273e2e616c70733c2f746578743e3c2f7376673e3c73766720786d6c6e733d22687474703a2f2f7777772e77332e6f72672f323030302f737667222077696474683d2232373022206865696768743d22323730222066696c6c3d226e6f6e65223e3c706174682066696c6c3d22233264333235612220643d224d302030683237307632373048307a223e3c616e696d617465206174747269627574654e616d653d2266696c6c2220626567696e3d22307322206475723d223573222076616c756573203d22233264333235613b207267622838392c203132352c20323533293b20726762283137362c203134352c20323439293b207267622838392c203132352c20323533293b20233365343236373b2220726570656174436f756e743d22696e646566696e69746522202f3e3c2f706174683e3c646566733e3c66696c7465722069643d22412220636f6c6f722d696e746572706f6c6174696f6e2d66696c746572733d2273524742222066696c746572556e6974733d227573657253706163654f6e55736522206865696768743d22323730222077696474683d22323730223e3c666544726f70536861646f772064783d2230222064793d22312220737464446576696174696f6e3d22322220666c6f6f642d6f7061636974793d222e323235222077696474683d223230302522206865696768743d2232303025222f3e3c2f66696c7465723e3c2f646566733e3c672069643d22737572666163653122207472616e73666f726d3d227472616e736c6174652833322e352c33322e352922203e3c7061746820207374796c653d227374726f6b653a6e6f6e653b66696c6c2d72756c653a6e6f6e7a65726f3b66696c6c3a72676228313030252c313030252c31303025293b66696c6c2d6f7061636974793a313b2220643d224d20322e3839303632352031322e313336373139204320302e3730333132352031382e35373432313920332e3339383433382032362e37323635363220382e3337313039342033312e353937363536204c2034302e3635323334342036302e39373635363220432034342e3233383238312036342e3234323138382034372e3431303135362036372e3932393638382035302e3038393834342037312e393630393338204c2035312e3038323033312037332e343439323139204c2035312e3134343533312037332e33383238313220432035342e3535383539342036392e3632313039342035362e3737333433382036352e3839303632352035382e3233303436392036312e3331323520432036302e3432313837352035342e3837352035372e3732363536322034362e3732323635362035322e37352034312e383531353632204c2032302e3437323635362031322e34373236353620432031362e38383238313220392e3230373033312031332e37313438343420352e3531393533312031312e303331323520312e343838323831204c2031302e3034323936392030204c20392e39383034363920302e30363634303632204320362e35363634303620332e38323831323520342e3433373520372e33383637313920322e3839303632352031322e31333637313920222f3e3c70617468207374796c653d22207374726f6b653a6e6f6e653b66696c6c2d72756c653a6e6f6e7a65726f3b66696c6c3a72676228313030252c313030252c31303025293b66696c6c2d6f7061636974793a313b2220643d224d2035322e3137313837352033322e32333832383120432036382e30373432313920392e3837313039342035312e3330343638382031322e3837313039342034332e373134383434203020432034332e37313438343420302033302e33333938343420392e3135323334342033352e3937323635362031382e32343630393420432033392e3033393036322032342e3432313837352035302e3234323138382032362e353632352035322e3137313837352033322e32333832383120222f3e3c70617468207374796c653d22207374726f6b653a6e6f6e653b66696c6c2d72756c653a6e6f6e7a65726f3b66696c6c3a72676228313030252c313030252c31303025293b66696c6c2d6f7061636974793a313b2220643d224d20312e3031353632352037322e38353933373520432031392e3137353738312037382e3936343834342033352e3732363536322036302e3234363039342031322e3134303632352034342e303135363235204320342e3131333238312033372e393638373520342e3933333539342033352e36343834333820342e3933333539342033352e3634383433382043202d372e3334373635362035332e37313039333820382e3035303738312036322e33383238313220312e3031353632352037322e38353933373520222f3e3c2f673e3c7465787420783d2233322e352220793d223139352220666f6e742d73697a653d223237222066696c6c3d2223666666222066696c7465723d2275726c282341292220666f6e742d66616d696c793d27506f7070696e732c2048656c7665746963612c2073797374656d2d75692c202d6170706c652d73797374656d2c20426c696e6b4d616353797374656d466f6e742c20227365676f65207569222c20526f626f746f2c202268656c766574696361206e657565222c20417269616c2c20226e6f746f2073616e73222c2073616e732d73657269662c20226170706c6520636f6c6f7220656d6f6a69222c20227365676f6520756920656d6f6a69222c20227365676f652075692073796d626f6c222c20226e6f746f20636f6c6f7220656d6f6a69222720666f6e742d7765696768743d22626f6c64223e",
  "immutableReferences": {},
  "source": "//SPDX-License-Identifier: AGPL-3.0\n\npragma solidity ^0.8.0;\n\nimport {ERC721} from '@openzeppelin/contracts/token/ERC721/ERC721.sol';\nimport {ERC721URIStorage} from '@openzeppelin/contracts/token/ERC721/extensions/ERC721URIStorage.sol';\nimport {Counters} from '@openzeppelin/contracts/utils/Counters.sol';\nimport {ERC2981} from '@openzeppelin/contracts/token/common/ERC2981.sol';\nimport {Strings} from '@openzeppelin/contracts/utils/Strings.sol';\nimport {ReentrancyGuard} from '@openzeppelin/contracts/security/ReentrancyGuard.sol';\nimport {Base64} from 'base64-sol/base64.sol';\n\ncontract AlpsNameService is ERC721URIStorage, ERC2981, ReentrancyGuard {\n  using Counters for Counters.Counter;\n  Counters.Counter public _tokenIds;\n  string public topLevelDomain;\n  string public svgPartOne =\n    '<svg xmlns=\"http://www.w3.org/2000/svg\" width=\"270\" height=\"270\" fill=\"none\"><path fill=\"#2d325a\" d=\"M0 0h270v270H0z\"><animate attributeName=\"fill\" begin=\"0s\" dur=\"5s\" values =\"#2d325a; rgb(89, 125, 253); rgb(176, 145, 249); rgb(89, 125, 253); #3e4267;\" repeatCount=\"indefinite\" /></path><defs><filter id=\"A\" color-interpolation-filters=\"sRGB\" filterUnits=\"userSpaceOnUse\" height=\"270\" width=\"270\"><feDropShadow dx=\"0\" dy=\"1\" stdDeviation=\"2\" flood-opacity=\".225\" width=\"200%\" height=\"200%\"/></filter></defs><g id=\"surface1\" transform=\"translate(32.5,32.5)\" ><path  style=\"stroke:none;fill-rule:nonzero;fill:rgb(100%,100%,100%);fill-opacity:1;\" d=\"M 2.890625 12.136719 C 0.703125 18.574219 3.398438 26.726562 8.371094 31.597656 L 40.652344 60.976562 C 44.238281 64.242188 47.410156 67.929688 50.089844 71.960938 L 51.082031 73.449219 L 51.144531 73.382812 C 54.558594 69.621094 56.773438 65.890625 58.230469 61.3125 C 60.421875 54.875 57.726562 46.722656 52.75 41.851562 L 20.472656 12.472656 C 16.882812 9.207031 13.714844 5.519531 11.03125 1.488281 L 10.042969 0 L 9.980469 0.0664062 C 6.566406 3.828125 4.4375 7.386719 2.890625 12.136719 \"/><path style=\" stroke:none;fill-rule:nonzero;fill:rgb(100%,100%,100%);fill-opacity:1;\" d=\"M 52.171875 32.238281 C 68.074219 9.871094 51.304688 12.871094 43.714844 0 C 43.714844 0 30.339844 9.152344 35.972656 18.246094 C 39.039062 24.421875 50.242188 26.5625 52.171875 32.238281 \"/><path style=\" stroke:none;fill-rule:nonzero;fill:rgb(100%,100%,100%);fill-opacity:1;\" d=\"M 1.015625 72.859375 C 19.175781 78.964844 35.726562 60.246094 12.140625 44.015625 C 4.113281 37.96875 4.933594 35.648438 4.933594 35.648438 C -7.347656 53.710938 8.050781 62.382812 1.015625 72.859375 \"/></g><text x=\"32.5\" y=\"195\" font-size=\"27\" fill=\"#fff\" filter=\"url(#A)\" font-family=\\'Poppins, Helvetica, system-ui, -apple-system, BlinkMacSystemFont, \"segoe ui\", Roboto, \"helvetica neue\", Arial, \"noto sans\", sans-serif, \"apple color emoji\", \"segoe ui emoji\", \"segoe ui symbol\", \"noto color emoji\"\\' font-weight=\"bold\">';\n  string public svgPartTwo =\n    '</text><text x=\"32.5\" y=\"230\" font-size=\"27\" fill=\"#fff\" filter=\"url(#A)\" font-family=\\'Poppins, Helvetica, system-ui, -apple-system, BlinkMacSystemFont, \"segoe ui\", Roboto, \"helvetica neue\", Arial, \"noto sans\", sans-serif, \"apple color emoji\", \"segoe ui emoji\", \"segoe ui symbol\", \"noto color emoji\"\\'>.alps</text></svg>';\n\n  // ============== MAPPING ==============\n  mapping(string => address) public domains;\n\n  // ============== EVENT ==============\n  event RegisterDomain(string name, address owner, uint256 registerTime);\n\n  // ============== ERROR ==============\n  error DomainNameRegistered(string name);\n  error TokenPaymentNotSufficient(uint256 amount);\n  error InvalidNameLength(string name, uint256 lenght);\n\n  constructor(string memory tld) payable ERC721('Alps Name Service', 'ANS') {\n    topLevelDomain = tld;\n  }\n\n  // ============== VIEW FUNCTIONS ==============\n  /**\n   * @dev Fetch a domain's owner\n   * @param name Domain name\n   */\n  function domainOwner(string calldata name) public view returns (address) {\n    return domains[name];\n  }\n\n  /**\n   * @dev Fetch domain's price\n   * @param name Domain name\n   */\n  function domainPrice(string calldata name) public pure returns (uint256) {\n    uint256 len = bytes(name).length;\n    if (len <= 0) revert InvalidNameLength(name, len);\n\n    if (len <= 3) {\n      return 5 * 10**17;\n    } else if (len == 4) {\n      return 3 * 10**17;\n    } else {\n      return 1 * 10**17;\n    }\n  }\n\n  // ============== WRITE FUNCTIONS ==============\n  /**\n   * @dev Allow users to buy and register for .alps domain\n   * @param name Domain name\n   */\n  function registerDomain(string calldata name) public payable nonReentrant {\n    if (domains[name] == address(0)) revert DomainNameRegistered(name);\n    if (msg.value < domainPrice(name))\n      revert TokenPaymentNotSufficient(msg.value);\n\n    // Register domain name to mapping\n    domains[name] = msg.sender;\n\n    // Generate SVG image on-chain\n    string memory svg = string(abi.encodePacked(svgPartOne, name, svgPartTwo));\n\n    // Generate Metadata for the Alps Name Service NFT\n    string memory _name = string(abi.encodePacked(name, '.', topLevelDomain));\n    uint256 newRecordId = _tokenIds.current();\n    _tokenIds.increment();\n    string memory metadata = Base64.encode(\n      abi.encodePacked(\n        '{\"name\": \"',\n        _name,\n        '\", \"description\": \"A domain on the Alps Name Service\", \"image\": \"data:image/svg+xml;base64,',\n        Base64.encode(bytes(svg)),\n        '\"}'\n      )\n    );\n\n    // Mint and Configure the newly minted NFT\n    _safeMint(msg.sender, newRecordId);\n    _setTokenURI(\n      newRecordId,\n      string(abi.encodePacked('data:application/json;base64,', metadata))\n    );\n\n    emit RegisterDomain(name, msg.sender, block.timestamp);\n  }\n\n  function supportsInterface(bytes4 interfaceId)\n    public\n    view\n    override(ERC721, ERC2981)\n    returns (bool)\n  {\n    return super.supportsInterface(interfaceId);\n  }\n}\n",
  "sourcePath": "/Users/yosephks/Documents/GitHub/alpsfinance-smart-contracts/contracts/name_service/AlpsNameService.sol",
  "compiler": {
    "name": "solc",
    "version": "0.8.11+commit.d7f03943.Emscripten.clang"
  },
  "schemaVersion": "3.4.6",
  "updatedAt": "2022-07-19T13:41:57.560Z",
  "devdoc": {
    "kind": "dev",
    "methods": {
      "approve(address,uint256)": {
        "details": "See {IERC721-approve}."
      },
      "balanceOf(address)": {
        "details": "See {IERC721-balanceOf}."
      },
      "domainOwner(string)": {
        "details": "Fetch a domain's owner",
        "params": {
          "name": "Domain name"
        }
      },
      "domainPrice(string)": {
        "details": "Fetch domain's price",
        "params": {
          "name": "Domain name"
        }
      },
      "getApproved(uint256)": {
        "details": "See {IERC721-getApproved}."
      },
      "isApprovedForAll(address,address)": {
        "details": "See {IERC721-isApprovedForAll}."
      },
      "name()": {
        "details": "See {IERC721Metadata-name}."
      },
      "ownerOf(uint256)": {
        "details": "See {IERC721-ownerOf}."
      },
      "registerDomain(string)": {
        "details": "Allow users to buy and register for .alps domain",
        "params": {
          "name": "Domain name"
        }
      },
      "royaltyInfo(uint256,uint256)": {
        "details": "Returns how much royalty is owed and to whom, based on a sale price that may be denominated in any unit of exchange. The royalty amount is denominated and should be payed in that same unit of exchange."
      },
      "safeTransferFrom(address,address,uint256)": {
        "details": "See {IERC721-safeTransferFrom}."
      },
      "safeTransferFrom(address,address,uint256,bytes)": {
        "details": "See {IERC721-safeTransferFrom}."
      },
      "setApprovalForAll(address,bool)": {
        "details": "See {IERC721-setApprovalForAll}."
      },
      "symbol()": {
        "details": "See {IERC721Metadata-symbol}."
      },
      "tokenURI(uint256)": {
        "details": "See {IERC721Metadata-tokenURI}."
      },
      "transferFrom(address,address,uint256)": {
        "details": "See {IERC721-transferFrom}."
      }
    },
    "version": 1
  },
  "userdoc": {
    "kind": "user",
    "methods": {},
    "version": 1
  }
}