{
  "contractName": "CompoundCTokensHandler",
  "abi": [
    {
      "inputs": [],
      "name": "lend",
      "outputs": [],
      "stateMutability": "payable",
      "type": "function"
    },
    {
      "inputs": [
        {
          "internalType": "address",
          "name": "erc20Address",
          "type": "address"
        },
        {
          "internalType": "uint256",
          "name": "amount",
          "type": "uint256"
        }
      ],
      "name": "lend",
      "outputs": [],
      "stateMutability": "nonpayable",
      "type": "function"
    },
    {
      "inputs": [],
      "name": "borrow",
      "outputs": [],
      "stateMutability": "nonpayable",
      "type": "function"
    }
  ],
  "bytecode": "0x608060405234801561001057600080fd5b5060cc8061001f6000396000f3fe60806040526004361060305760003560e01c806397dffc61146035578063a2fb342d146037578063e68d3569146052575b600080fd5b005b348015604257600080fd5b506035604e3660046060565b5050565b348015605d57600080fd5b50005b60008060408385031215607257600080fd5b82356001600160a01b0381168114608857600080fd5b94602093909301359350505056fea264697066735822122068fb4dd0440330e04ca72dba0d78ed58c669aae35ac2c9ca9c0926fba185f0b664736f6c634300080b0033",
  "immutableReferences": {},
  "source": "// SPDX-License-Identifier: AGPL-3.0\n\npragma solidity ^0.8.11;\n\nimport {IERC20} from \"@openzeppelin/contracts/token/ERC20/IERC20.sol\";\nimport {SafeMath} from \"@openzeppelin/contracts/utils/math/SafeMath.sol\";\n\ncontract CompoundCTokensHandler {\n    function lend() external payable {}\n\n    function lend(address erc20Address, uint256 amount) external {}\n\n    function borrow() external {}\n}\n",
  "sourcePath": "/Users/yosephks/Documents/GitHub/alpsfinance-smart-contracts/contracts/defi/compound/CompoundCTokensHandler.sol",
  "compiler": {
    "name": "solc",
    "version": "0.8.11+commit.d7f03943.Emscripten.clang"
  },
  "schemaVersion": "3.4.6",
  "updatedAt": "2022-05-15T17:40:25.531Z",
  "devdoc": {
    "kind": "dev",
    "methods": {},
    "version": 1
  },
  "userdoc": {
    "kind": "user",
    "methods": {},
    "version": 1
  }
}