{
  "contractName": "CustomPausable",
  "abi": [
    {
      "anonymous": false,
      "inputs": [
        {
          "indexed": true,
          "internalType": "address",
          "name": "_address",
          "type": "address"
        }
      ],
      "name": "AdminAdded",
      "type": "event"
    },
    {
      "anonymous": false,
      "inputs": [
        {
          "indexed": true,
          "internalType": "address",
          "name": "_address",
          "type": "address"
        }
      ],
      "name": "AdminRemoved",
      "type": "event"
    },
    {
      "anonymous": false,
      "inputs": [
        {
          "indexed": true,
          "internalType": "address",
          "name": "previousOwner",
          "type": "address"
        },
        {
          "indexed": true,
          "internalType": "address",
          "name": "newOwner",
          "type": "address"
        }
      ],
      "name": "OwnershipTransferred",
      "type": "event"
    },
    {
      "anonymous": false,
      "inputs": [],
      "name": "Pause",
      "type": "event"
    },
    {
      "anonymous": false,
      "inputs": [],
      "name": "Unpause",
      "type": "event"
    },
    {
      "inputs": [
        {
          "internalType": "address",
          "name": "_address",
          "type": "address"
        }
      ],
      "name": "addAdmin",
      "outputs": [],
      "stateMutability": "nonpayable",
      "type": "function"
    },
    {
      "inputs": [
        {
          "internalType": "address[]",
          "name": "_accounts",
          "type": "address[]"
        }
      ],
      "name": "addManyAdmins",
      "outputs": [],
      "stateMutability": "nonpayable",
      "type": "function"
    },
    {
      "inputs": [
        {
          "internalType": "address",
          "name": "",
          "type": "address"
        }
      ],
      "name": "admins",
      "outputs": [
        {
          "internalType": "bool",
          "name": "",
          "type": "bool"
        }
      ],
      "stateMutability": "view",
      "type": "function"
    },
    {
      "inputs": [],
      "name": "owner",
      "outputs": [
        {
          "internalType": "address",
          "name": "",
          "type": "address"
        }
      ],
      "stateMutability": "view",
      "type": "function"
    },
    {
      "inputs": [],
      "name": "paused",
      "outputs": [
        {
          "internalType": "bool",
          "name": "",
          "type": "bool"
        }
      ],
      "stateMutability": "view",
      "type": "function"
    },
    {
      "inputs": [
        {
          "internalType": "address",
          "name": "_address",
          "type": "address"
        }
      ],
      "name": "removeAdmin",
      "outputs": [],
      "stateMutability": "nonpayable",
      "type": "function"
    },
    {
      "inputs": [
        {
          "internalType": "address[]",
          "name": "_accounts",
          "type": "address[]"
        }
      ],
      "name": "removeManyAdmins",
      "outputs": [],
      "stateMutability": "nonpayable",
      "type": "function"
    },
    {
      "inputs": [],
      "name": "renounceOwnership",
      "outputs": [],
      "stateMutability": "nonpayable",
      "type": "function"
    },
    {
      "inputs": [
        {
          "internalType": "address",
          "name": "newOwner",
          "type": "address"
        }
      ],
      "name": "transferOwnership",
      "outputs": [],
      "stateMutability": "nonpayable",
      "type": "function"
    },
    {
      "inputs": [],
      "name": "pause",
      "outputs": [],
      "stateMutability": "nonpayable",
      "type": "function"
    },
    {
      "inputs": [],
      "name": "unpause",
      "outputs": [],
      "stateMutability": "nonpayable",
      "type": "function"
    }
  ],
  "bytecode": "0x60806040526002805460ff1916905534801561001a57600080fd5b5061002433610029565b610079565b600080546001600160a01b038381166001600160a01b0319831681178455604051919092169283917f8be0079c531659141344cd1fd0a4f28419497f9722a3daafe3b4186f6b6457e09190a35050565b6109c0806100886000396000f3fe608060405234801561001057600080fd5b50600436106100a95760003560e01c8063715018a611610071578063715018a6146101235780638456cb591461012b5780638da5cb5b14610133578063a8e6e77b1461014e578063f1bca30f14610161578063f2fde38b1461017457600080fd5b80631785f53c146100ae5780633f4ba83a146100c3578063429b62e5146100cb5780635c975abb146101035780637048027514610110575b600080fd5b6100c16100bc366004610849565b610187565b005b6100c1610254565b6100ee6100d9366004610849565b60016020526000908152604090205460ff1681565b60405190151581526020015b60405180910390f35b6002546100ee9060ff1681565b6100c161011e366004610849565b6102c9565b6100c161039d565b6100c1610408565b6000546040516001600160a01b0390911681526020016100fa565b6100c161015c366004610881565b610481565b6100c161016f366004610881565b6105cf565b6100c1610182366004610849565b610712565b3360009081526001602052604090205460ff16806101af57506000546001600160a01b031633145b6101b857600080fd5b6001600160a01b0381166101cb57600080fd5b6001600160a01b03811660009081526001602052604090205460ff166101f057600080fd5b6000546001600160a01b038281169116141561020b57600080fd5b6001600160a01b038116600081815260016020526040808220805460ff19169055517fa3b62bc36326052d97ea62d63c3d60308ed4c3ea8ac079dd8499f1e9c4f80c0f9190a250565b3360009081526001602052604090205460ff168061027c57506000546001600160a01b031633145b61028557600080fd5b60025460ff1661029457600080fd5b6002805460ff191690556040517f7805862f689e2f13df9f062ff482ad3ad112aca9e0847911ed832e158c525b3390600090a1565b3360009081526001602052604090205460ff16806102f157506000546001600160a01b031633145b6102fa57600080fd5b6001600160a01b03811661030d57600080fd5b6001600160a01b03811660009081526001602052604090205460ff161561033357600080fd5b6000546001600160a01b038281169116141561034e57600080fd5b6001600160a01b0381166000818152600160208190526040808320805460ff1916909217909155517f44d6d25963f097ad14f29f06854a01f575648a1ef82f30e562ccd3889717e3399190a250565b6000546001600160a01b031633146103fc5760405162461bcd60e51b815260206004820181905260248201527f4f776e61626c653a2063616c6c6572206973206e6f7420746865206f776e657260448201526064015b60405180910390fd5b61040660006107dd565b565b3360009081526001602052604090205460ff168061043057506000546001600160a01b031633145b61043957600080fd5b60025460ff161561044957600080fd5b6002805460ff191660011790556040517f6985a02210a168e66602d3235cb6db0e70f92b3ba4d376a33c0f3d9434bff62590600090a1565b3360009081526001602052604090205460ff16806104a957506000546001600160a01b031633145b6104b257600080fd5b60005b81518160ff1610156105cb576000828260ff16815181106104d8576104d8610946565b6020026020010151905060006001600160a01b0316816001600160a01b03161415801561051e57506001600160a01b03811660009081526001602052604090205460ff16155b801561053857506000546001600160a01b03828116911614155b156105b8576001600160a01b0381166000908152600160208190526040909120805460ff191690911790558251839060ff841690811061057a5761057a610946565b60200260200101516001600160a01b03167f44d6d25963f097ad14f29f06854a01f575648a1ef82f30e562ccd3889717e33960405160405180910390a25b50806105c38161095c565b9150506104b5565b5050565b3360009081526001602052604090205460ff16806105f757506000546001600160a01b031633145b61060057600080fd5b60005b81518160ff1610156105cb576000828260ff168151811061062657610626610946565b6020026020010151905060006001600160a01b0316816001600160a01b03161415801561066b57506001600160a01b03811660009081526001602052604090205460ff165b801561068557506000546001600160a01b03828116911614155b156106ff576001600160a01b0381166000908152600160205260409020805460ff191690558251839060ff84169081106106c1576106c1610946565b60200260200101516001600160a01b03167fa3b62bc36326052d97ea62d63c3d60308ed4c3ea8ac079dd8499f1e9c4f80c0f60405160405180910390a25b508061070a8161095c565b915050610603565b6000546001600160a01b0316331461076c5760405162461bcd60e51b815260206004820181905260248201527f4f776e61626c653a2063616c6c6572206973206e6f7420746865206f776e657260448201526064016103f3565b6001600160a01b0381166107d15760405162461bcd60e51b815260206004820152602660248201527f4f776e61626c653a206e6577206f776e657220697320746865207a65726f206160448201526564647265737360d01b60648201526084016103f3565b6107da816107dd565b50565b600080546001600160a01b038381166001600160a01b0319831681178455604051919092169283917f8be0079c531659141344cd1fd0a4f28419497f9722a3daafe3b4186f6b6457e09190a35050565b80356001600160a01b038116811461084457600080fd5b919050565b60006020828403121561085b57600080fd5b6108648261082d565b9392505050565b634e487b7160e01b600052604160045260246000fd5b6000602080838503121561089457600080fd5b823567ffffffffffffffff808211156108ac57600080fd5b818501915085601f8301126108c057600080fd5b8135818111156108d2576108d261086b565b8060051b604051601f19603f830116810181811085821117156108f7576108f761086b565b60405291825284820192508381018501918883111561091557600080fd5b938501935b8285101561093a5761092b8561082d565b8452938501939285019261091a565b98975050505050505050565b634e487b7160e01b600052603260045260246000fd5b600060ff821660ff81141561098157634e487b7160e01b600052601160045260246000fd5b6001019291505056fea2646970667358221220a89d255c7b7d8ff9b710c8531c974c22936ac96ac20c4012a8b83bee2068414a64736f6c634300080b0033",
  "immutableReferences": {},
  "source": "\r\n// SPDX-License-Identifier: AGPL-3.0\r\npragma solidity ^0.8.11;\r\n\r\nimport \"./CustomAdmin.sol\";\r\n\r\n\r\n///@title This contract enables you to create pausable mechanism to stop in case of emergency.\r\ncontract CustomPausable is CustomAdmin {\r\n  event Pause();\r\n  event Unpause();\r\n\r\n  bool public paused = false;\r\n\r\n  ///@notice Verifies whether the contract is not paused.\r\n  modifier whenNotPaused() {\r\n    require(!paused);\r\n    _;\r\n  }\r\n\r\n  ///@notice Verifies whether the contract is paused.\r\n  modifier whenPaused() {\r\n    require(paused);\r\n    _;\r\n  }\r\n\r\n  ///@notice Pauses the contract.\r\n  function pause() external onlyAdmin whenNotPaused {\r\n    paused = true;\r\n    emit Pause();\r\n  }\r\n\r\n  ///@notice Unpauses the contract and returns to normal state.\r\n  function unpause() external onlyAdmin whenPaused {\r\n    paused = false;\r\n    emit Unpause();\r\n  }\r\n}",
  "sourcePath": "C:\\Users\\user\\Desktop\\alpsfinance-smart-contracts\\contracts\\Vesting\\CustomPausable.sol",
  "compiler": {
    "name": "solc",
    "version": "0.8.11+commit.d7f03943.Emscripten.clang"
  },
  "schemaVersion": "3.4.5",
  "updatedAt": "2022-03-10T12:03:49.951Z",
  "devdoc": {
    "kind": "dev",
    "methods": {
      "addAdmin(address)": {
        "params": {
          "_address": "The address to add to the administrator list."
        }
      },
      "addManyAdmins(address[])": {
        "params": {
          "_accounts": "The wallet addresses to add to the administrator list."
        }
      },
      "owner()": {
        "details": "Returns the address of the current owner."
      },
      "removeAdmin(address)": {
        "params": {
          "_address": "The address to remove from the administrator list."
        }
      },
      "removeManyAdmins(address[])": {
        "params": {
          "_accounts": "The wallet addresses to add to the administrator list."
        }
      },
      "renounceOwnership()": {
        "details": "Leaves the contract without owner. It will not be possible to call `onlyOwner` functions anymore. Can only be called by the current owner. NOTE: Renouncing ownership will leave the contract without an owner, thereby removing any functionality that is only available to the owner."
      },
      "transferOwnership(address)": {
        "details": "Transfers ownership of the contract to a new account (`newOwner`). Can only be called by the current owner."
      }
    },
    "title": "This contract enables you to create pausable mechanism to stop in case of emergency.",
    "version": 1
  },
  "userdoc": {
    "kind": "user",
    "methods": {
      "addAdmin(address)": {
        "notice": "Adds the specified address to the list of administrators."
      },
      "addManyAdmins(address[])": {
        "notice": "Adds multiple addresses to the administrator list."
      },
      "admins(address)": {
        "notice": "List of administrators."
      },
      "pause()": {
        "notice": "Pauses the contract."
      },
      "removeAdmin(address)": {
        "notice": "Removes the specified address from the list of administrators."
      },
      "removeManyAdmins(address[])": {
        "notice": "Removes multiple addresses to the administrator list."
      },
      "unpause()": {
        "notice": "Unpauses the contract and returns to normal state."
      }
    },
    "version": 1
  }
}