{
  "contractName": "DAOInvestmentFund",
  "abi": [
    {
      "inputs": [
        {
          "internalType": "contract IVotes",
          "name": "_token",
          "type": "address"
        },
        {
          "internalType": "contract TimelockController",
          "name": "_timelock",
          "type": "address"
        }
      ],
      "stateMutability": "nonpayable",
      "type": "constructor"
    },
    {
      "anonymous": false,
      "inputs": [
        {
          "indexed": false,
          "internalType": "uint256",
          "name": "proposalId",
          "type": "uint256"
        }
      ],
      "name": "ProposalCanceled",
      "type": "event"
    },
    {
      "anonymous": false,
      "inputs": [
        {
          "indexed": false,
          "internalType": "uint256",
          "name": "proposalId",
          "type": "uint256"
        },
        {
          "indexed": false,
          "internalType": "address",
          "name": "proposer",
          "type": "address"
        },
        {
          "indexed": false,
          "internalType": "address[]",
          "name": "targets",
          "type": "address[]"
        },
        {
          "indexed": false,
          "internalType": "uint256[]",
          "name": "values",
          "type": "uint256[]"
        },
        {
          "indexed": false,
          "internalType": "string[]",
          "name": "signatures",
          "type": "string[]"
        },
        {
          "indexed": false,
          "internalType": "bytes[]",
          "name": "calldatas",
          "type": "bytes[]"
        },
        {
          "indexed": false,
          "internalType": "uint256",
          "name": "startBlock",
          "type": "uint256"
        },
        {
          "indexed": false,
          "internalType": "uint256",
          "name": "endBlock",
          "type": "uint256"
        },
        {
          "indexed": false,
          "internalType": "string",
          "name": "description",
          "type": "string"
        }
      ],
      "name": "ProposalCreated",
      "type": "event"
    },
    {
      "anonymous": false,
      "inputs": [
        {
          "indexed": false,
          "internalType": "uint256",
          "name": "proposalId",
          "type": "uint256"
        }
      ],
      "name": "ProposalExecuted",
      "type": "event"
    },
    {
      "anonymous": false,
      "inputs": [
        {
          "indexed": false,
          "internalType": "uint256",
          "name": "proposalId",
          "type": "uint256"
        },
        {
          "indexed": false,
          "internalType": "uint256",
          "name": "eta",
          "type": "uint256"
        }
      ],
      "name": "ProposalQueued",
      "type": "event"
    },
    {
      "anonymous": false,
      "inputs": [
        {
          "indexed": false,
          "internalType": "uint256",
          "name": "oldProposalThreshold",
          "type": "uint256"
        },
        {
          "indexed": false,
          "internalType": "uint256",
          "name": "newProposalThreshold",
          "type": "uint256"
        }
      ],
      "name": "ProposalThresholdSet",
      "type": "event"
    },
    {
      "anonymous": false,
      "inputs": [
        {
          "indexed": false,
          "internalType": "uint256",
          "name": "oldQuorumNumerator",
          "type": "uint256"
        },
        {
          "indexed": false,
          "internalType": "uint256",
          "name": "newQuorumNumerator",
          "type": "uint256"
        }
      ],
      "name": "QuorumNumeratorUpdated",
      "type": "event"
    },
    {
      "anonymous": false,
      "inputs": [
        {
          "indexed": true,
          "internalType": "bytes32",
          "name": "role",
          "type": "bytes32"
        },
        {
          "indexed": true,
          "internalType": "bytes32",
          "name": "previousAdminRole",
          "type": "bytes32"
        },
        {
          "indexed": true,
          "internalType": "bytes32",
          "name": "newAdminRole",
          "type": "bytes32"
        }
      ],
      "name": "RoleAdminChanged",
      "type": "event"
    },
    {
      "anonymous": false,
      "inputs": [
        {
          "indexed": true,
          "internalType": "bytes32",
          "name": "role",
          "type": "bytes32"
        },
        {
          "indexed": true,
          "internalType": "address",
          "name": "account",
          "type": "address"
        },
        {
          "indexed": true,
          "internalType": "address",
          "name": "sender",
          "type": "address"
        }
      ],
      "name": "RoleGranted",
      "type": "event"
    },
    {
      "anonymous": false,
      "inputs": [
        {
          "indexed": true,
          "internalType": "bytes32",
          "name": "role",
          "type": "bytes32"
        },
        {
          "indexed": true,
          "internalType": "address",
          "name": "account",
          "type": "address"
        },
        {
          "indexed": true,
          "internalType": "address",
          "name": "sender",
          "type": "address"
        }
      ],
      "name": "RoleRevoked",
      "type": "event"
    },
    {
      "anonymous": false,
      "inputs": [
        {
          "indexed": false,
          "internalType": "address",
          "name": "oldTimelock",
          "type": "address"
        },
        {
          "indexed": false,
          "internalType": "address",
          "name": "newTimelock",
          "type": "address"
        }
      ],
      "name": "TimelockChange",
      "type": "event"
    },
    {
      "anonymous": false,
      "inputs": [
        {
          "indexed": true,
          "internalType": "address",
          "name": "voter",
          "type": "address"
        },
        {
          "indexed": false,
          "internalType": "uint256",
          "name": "proposalId",
          "type": "uint256"
        },
        {
          "indexed": false,
          "internalType": "uint8",
          "name": "support",
          "type": "uint8"
        },
        {
          "indexed": false,
          "internalType": "uint256",
          "name": "weight",
          "type": "uint256"
        },
        {
          "indexed": false,
          "internalType": "string",
          "name": "reason",
          "type": "string"
        }
      ],
      "name": "VoteCast",
      "type": "event"
    },
    {
      "anonymous": false,
      "inputs": [
        {
          "indexed": false,
          "internalType": "uint256",
          "name": "oldVotingDelay",
          "type": "uint256"
        },
        {
          "indexed": false,
          "internalType": "uint256",
          "name": "newVotingDelay",
          "type": "uint256"
        }
      ],
      "name": "VotingDelaySet",
      "type": "event"
    },
    {
      "anonymous": false,
      "inputs": [
        {
          "indexed": false,
          "internalType": "uint256",
          "name": "oldVotingPeriod",
          "type": "uint256"
        },
        {
          "indexed": false,
          "internalType": "uint256",
          "name": "newVotingPeriod",
          "type": "uint256"
        }
      ],
      "name": "VotingPeriodSet",
      "type": "event"
    },
    {
      "inputs": [],
      "name": "BALLOT_TYPEHASH",
      "outputs": [
        {
          "internalType": "bytes32",
          "name": "",
          "type": "bytes32"
        }
      ],
      "stateMutability": "view",
      "type": "function"
    },
    {
      "inputs": [],
      "name": "COUNTING_MODE",
      "outputs": [
        {
          "internalType": "string",
          "name": "",
          "type": "string"
        }
      ],
      "stateMutability": "pure",
      "type": "function"
    },
    {
      "inputs": [],
      "name": "DEFAULT_ADMIN_ROLE",
      "outputs": [
        {
          "internalType": "bytes32",
          "name": "",
          "type": "bytes32"
        }
      ],
      "stateMutability": "view",
      "type": "function"
    },
    {
      "inputs": [
        {
          "internalType": "uint256",
          "name": "proposalId",
          "type": "uint256"
        },
        {
          "internalType": "uint8",
          "name": "support",
          "type": "uint8"
        }
      ],
      "name": "castVote",
      "outputs": [
        {
          "internalType": "uint256",
          "name": "",
          "type": "uint256"
        }
      ],
      "stateMutability": "nonpayable",
      "type": "function"
    },
    {
      "inputs": [
        {
          "internalType": "uint256",
          "name": "proposalId",
          "type": "uint256"
        },
        {
          "internalType": "uint8",
          "name": "support",
          "type": "uint8"
        },
        {
          "internalType": "uint8",
          "name": "v",
          "type": "uint8"
        },
        {
          "internalType": "bytes32",
          "name": "r",
          "type": "bytes32"
        },
        {
          "internalType": "bytes32",
          "name": "s",
          "type": "bytes32"
        }
      ],
      "name": "castVoteBySig",
      "outputs": [
        {
          "internalType": "uint256",
          "name": "",
          "type": "uint256"
        }
      ],
      "stateMutability": "nonpayable",
      "type": "function"
    },
    {
      "inputs": [
        {
          "internalType": "uint256",
          "name": "proposalId",
          "type": "uint256"
        },
        {
          "internalType": "uint8",
          "name": "support",
          "type": "uint8"
        },
        {
          "internalType": "string",
          "name": "reason",
          "type": "string"
        }
      ],
      "name": "castVoteWithReason",
      "outputs": [
        {
          "internalType": "uint256",
          "name": "",
          "type": "uint256"
        }
      ],
      "stateMutability": "nonpayable",
      "type": "function"
    },
    {
      "inputs": [
        {
          "internalType": "address[]",
          "name": "targets",
          "type": "address[]"
        },
        {
          "internalType": "uint256[]",
          "name": "values",
          "type": "uint256[]"
        },
        {
          "internalType": "bytes[]",
          "name": "calldatas",
          "type": "bytes[]"
        },
        {
          "internalType": "bytes32",
          "name": "descriptionHash",
          "type": "bytes32"
        }
      ],
      "name": "execute",
      "outputs": [
        {
          "internalType": "uint256",
          "name": "",
          "type": "uint256"
        }
      ],
      "stateMutability": "payable",
      "type": "function"
    },
    {
      "inputs": [
        {
          "internalType": "bytes32",
          "name": "role",
          "type": "bytes32"
        }
      ],
      "name": "getRoleAdmin",
      "outputs": [
        {
          "internalType": "bytes32",
          "name": "",
          "type": "bytes32"
        }
      ],
      "stateMutability": "view",
      "type": "function"
    },
    {
      "inputs": [
        {
          "internalType": "bytes32",
          "name": "role",
          "type": "bytes32"
        },
        {
          "internalType": "address",
          "name": "account",
          "type": "address"
        }
      ],
      "name": "grantRole",
      "outputs": [],
      "stateMutability": "nonpayable",
      "type": "function"
    },
    {
      "inputs": [
        {
          "internalType": "bytes32",
          "name": "role",
          "type": "bytes32"
        },
        {
          "internalType": "address",
          "name": "account",
          "type": "address"
        }
      ],
      "name": "hasRole",
      "outputs": [
        {
          "internalType": "bool",
          "name": "",
          "type": "bool"
        }
      ],
      "stateMutability": "view",
      "type": "function"
    },
    {
      "inputs": [
        {
          "internalType": "uint256",
          "name": "proposalId",
          "type": "uint256"
        },
        {
          "internalType": "address",
          "name": "account",
          "type": "address"
        }
      ],
      "name": "hasVoted",
      "outputs": [
        {
          "internalType": "bool",
          "name": "",
          "type": "bool"
        }
      ],
      "stateMutability": "view",
      "type": "function"
    },
    {
      "inputs": [
        {
          "internalType": "address[]",
          "name": "targets",
          "type": "address[]"
        },
        {
          "internalType": "uint256[]",
          "name": "values",
          "type": "uint256[]"
        },
        {
          "internalType": "bytes[]",
          "name": "calldatas",
          "type": "bytes[]"
        },
        {
          "internalType": "bytes32",
          "name": "descriptionHash",
          "type": "bytes32"
        }
      ],
      "name": "hashProposal",
      "outputs": [
        {
          "internalType": "uint256",
          "name": "",
          "type": "uint256"
        }
      ],
      "stateMutability": "pure",
      "type": "function"
    },
    {
      "inputs": [],
      "name": "name",
      "outputs": [
        {
          "internalType": "string",
          "name": "",
          "type": "string"
        }
      ],
      "stateMutability": "view",
      "type": "function"
    },
    {
      "inputs": [
        {
          "internalType": "uint256",
          "name": "proposalId",
          "type": "uint256"
        }
      ],
      "name": "proposalDeadline",
      "outputs": [
        {
          "internalType": "uint256",
          "name": "",
          "type": "uint256"
        }
      ],
      "stateMutability": "view",
      "type": "function"
    },
    {
      "inputs": [
        {
          "internalType": "uint256",
          "name": "proposalId",
          "type": "uint256"
        }
      ],
      "name": "proposalEta",
      "outputs": [
        {
          "internalType": "uint256",
          "name": "",
          "type": "uint256"
        }
      ],
      "stateMutability": "view",
      "type": "function"
    },
    {
      "inputs": [
        {
          "internalType": "uint256",
          "name": "proposalId",
          "type": "uint256"
        }
      ],
      "name": "proposalSnapshot",
      "outputs": [
        {
          "internalType": "uint256",
          "name": "",
          "type": "uint256"
        }
      ],
      "stateMutability": "view",
      "type": "function"
    },
    {
      "inputs": [
        {
          "internalType": "uint256",
          "name": "proposalId",
          "type": "uint256"
        }
      ],
      "name": "proposalVotes",
      "outputs": [
        {
          "internalType": "uint256",
          "name": "againstVotes",
          "type": "uint256"
        },
        {
          "internalType": "uint256",
          "name": "forVotes",
          "type": "uint256"
        },
        {
          "internalType": "uint256",
          "name": "abstainVotes",
          "type": "uint256"
        }
      ],
      "stateMutability": "view",
      "type": "function"
    },
    {
      "inputs": [
        {
          "internalType": "address[]",
          "name": "targets",
          "type": "address[]"
        },
        {
          "internalType": "uint256[]",
          "name": "values",
          "type": "uint256[]"
        },
        {
          "internalType": "bytes[]",
          "name": "calldatas",
          "type": "bytes[]"
        },
        {
          "internalType": "bytes32",
          "name": "descriptionHash",
          "type": "bytes32"
        }
      ],
      "name": "queue",
      "outputs": [
        {
          "internalType": "uint256",
          "name": "",
          "type": "uint256"
        }
      ],
      "stateMutability": "nonpayable",
      "type": "function"
    },
    {
      "inputs": [],
      "name": "quorumDenominator",
      "outputs": [
        {
          "internalType": "uint256",
          "name": "",
          "type": "uint256"
        }
      ],
      "stateMutability": "view",
      "type": "function"
    },
    {
      "inputs": [],
      "name": "quorumNumerator",
      "outputs": [
        {
          "internalType": "uint256",
          "name": "",
          "type": "uint256"
        }
      ],
      "stateMutability": "view",
      "type": "function"
    },
    {
      "inputs": [
        {
          "internalType": "address",
          "name": "target",
          "type": "address"
        },
        {
          "internalType": "uint256",
          "name": "value",
          "type": "uint256"
        },
        {
          "internalType": "bytes",
          "name": "data",
          "type": "bytes"
        }
      ],
      "name": "relay",
      "outputs": [],
      "stateMutability": "nonpayable",
      "type": "function"
    },
    {
      "inputs": [
        {
          "internalType": "bytes32",
          "name": "role",
          "type": "bytes32"
        },
        {
          "internalType": "address",
          "name": "account",
          "type": "address"
        }
      ],
      "name": "renounceRole",
      "outputs": [],
      "stateMutability": "nonpayable",
      "type": "function"
    },
    {
      "inputs": [
        {
          "internalType": "bytes32",
          "name": "role",
          "type": "bytes32"
        },
        {
          "internalType": "address",
          "name": "account",
          "type": "address"
        }
      ],
      "name": "revokeRole",
      "outputs": [],
      "stateMutability": "nonpayable",
      "type": "function"
    },
    {
      "inputs": [
        {
          "internalType": "uint256",
          "name": "newProposalThreshold",
          "type": "uint256"
        }
      ],
      "name": "setProposalThreshold",
      "outputs": [],
      "stateMutability": "nonpayable",
      "type": "function"
    },
    {
      "inputs": [
        {
          "internalType": "uint256",
          "name": "newVotingDelay",
          "type": "uint256"
        }
      ],
      "name": "setVotingDelay",
      "outputs": [],
      "stateMutability": "nonpayable",
      "type": "function"
    },
    {
      "inputs": [
        {
          "internalType": "uint256",
          "name": "newVotingPeriod",
          "type": "uint256"
        }
      ],
      "name": "setVotingPeriod",
      "outputs": [],
      "stateMutability": "nonpayable",
      "type": "function"
    },
    {
      "inputs": [],
      "name": "timelock",
      "outputs": [
        {
          "internalType": "address",
          "name": "",
          "type": "address"
        }
      ],
      "stateMutability": "view",
      "type": "function"
    },
    {
      "inputs": [],
      "name": "token",
      "outputs": [
        {
          "internalType": "contract IVotes",
          "name": "",
          "type": "address"
        }
      ],
      "stateMutability": "view",
      "type": "function"
    },
    {
      "inputs": [
        {
          "internalType": "uint256",
          "name": "newQuorumNumerator",
          "type": "uint256"
        }
      ],
      "name": "updateQuorumNumerator",
      "outputs": [],
      "stateMutability": "nonpayable",
      "type": "function"
    },
    {
      "inputs": [
        {
          "internalType": "contract TimelockController",
          "name": "newTimelock",
          "type": "address"
        }
      ],
      "name": "updateTimelock",
      "outputs": [],
      "stateMutability": "nonpayable",
      "type": "function"
    },
    {
      "inputs": [],
      "name": "version",
      "outputs": [
        {
          "internalType": "string",
          "name": "",
          "type": "string"
        }
      ],
      "stateMutability": "view",
      "type": "function"
    },
    {
      "stateMutability": "payable",
      "type": "receive"
    },
    {
      "inputs": [],
      "name": "votingDelay",
      "outputs": [
        {
          "internalType": "uint256",
          "name": "",
          "type": "uint256"
        }
      ],
      "stateMutability": "view",
      "type": "function"
    },
    {
      "inputs": [],
      "name": "votingPeriod",
      "outputs": [
        {
          "internalType": "uint256",
          "name": "",
          "type": "uint256"
        }
      ],
      "stateMutability": "view",
      "type": "function"
    },
    {
      "inputs": [
        {
          "internalType": "uint256",
          "name": "blockNumber",
          "type": "uint256"
        }
      ],
      "name": "quorum",
      "outputs": [
        {
          "internalType": "uint256",
          "name": "",
          "type": "uint256"
        }
      ],
      "stateMutability": "view",
      "type": "function"
    },
    {
      "inputs": [
        {
          "internalType": "address",
          "name": "account",
          "type": "address"
        },
        {
          "internalType": "uint256",
          "name": "blockNumber",
          "type": "uint256"
        }
      ],
      "name": "getVotes",
      "outputs": [
        {
          "internalType": "uint256",
          "name": "",
          "type": "uint256"
        }
      ],
      "stateMutability": "view",
      "type": "function"
    },
    {
      "inputs": [
        {
          "internalType": "uint256",
          "name": "proposalId",
          "type": "uint256"
        }
      ],
      "name": "state",
      "outputs": [
        {
          "internalType": "enum IGovernor.ProposalState",
          "name": "",
          "type": "uint8"
        }
      ],
      "stateMutability": "view",
      "type": "function"
    },
    {
      "inputs": [
        {
          "internalType": "address[]",
          "name": "targets",
          "type": "address[]"
        },
        {
          "internalType": "uint256[]",
          "name": "values",
          "type": "uint256[]"
        },
        {
          "internalType": "bytes[]",
          "name": "calldatas",
          "type": "bytes[]"
        },
        {
          "internalType": "string",
          "name": "description",
          "type": "string"
        }
      ],
      "name": "propose",
      "outputs": [
        {
          "internalType": "uint256",
          "name": "",
          "type": "uint256"
        }
      ],
      "stateMutability": "nonpayable",
      "type": "function"
    },
    {
      "inputs": [],
      "name": "proposalThreshold",
      "outputs": [
        {
          "internalType": "uint256",
          "name": "",
          "type": "uint256"
        }
      ],
      "stateMutability": "view",
      "type": "function"
    },
    {
      "inputs": [
        {
          "internalType": "bytes4",
          "name": "interfaceId",
          "type": "bytes4"
        }
      ],
      "name": "supportsInterface",
      "outputs": [
        {
          "internalType": "bool",
          "name": "",
          "type": "bool"
        }
      ],
      "stateMutability": "view",
      "type": "function"
    }
  ],
  "bytecode": "0x6101606040523480156200001257600080fd5b5060405162003848380380620038488339810160408190526200003591620004a4565b80600483600161b2fa60006040518060400160405280600a81526020016926bca3b7bb32b93737b960b11b81525080620000746200016e60201b60201c565b815160208084019190912082518383012060e08290526101008190524660a0818152604080517f8b73c3c69bb8fe3d512ecc4cf759cc79239f7b179b0ffacaa9a75d522b39400f81880181905281830187905260608201869052608082019490945230818401528151808203909301835260c00190528051940193909320919290916080523060c05261012052505082516200011a9250600191506020840190620003e5565b506200012890508362000189565b6200013382620001ca565b6200013e8162000271565b5050506001600160a01b0316610140526200015981620002b2565b5062000165816200037c565b50505062000520565b6040805180820190915260018152603160f81b602082015290565b60035460408051918252602082018390527fc565b045403dc03c2eea82b81a0465edad9e2e7fc4d97e11421c209da93d7a93910160405180910390a1600355565b60008111620002305760405162461bcd60e51b815260206004820152602760248201527f476f7665726e6f7253657474696e67733a20766f74696e6720706572696f6420604482015266746f6f206c6f7760c81b60648201526084015b60405180910390fd5b60045460408051918252602082018390527f7e3f7f0708a84de9203036abaa450dccc85ad5ff52f78c170f3edb55cf5e8828910160405180910390a1600455565b60055460408051918252602082018390527fccb45da8d5717e6c4544694297c4ba5cf151d455c9bb0ed4fc7a38411bc05461910160405180910390a1600555565b6064811115620003375760405162461bcd60e51b815260206004820152604360248201527f476f7665726e6f72566f74657351756f72756d4672616374696f6e3a2071756f60448201527f72756d4e756d657261746f72206f7665722071756f72756d44656e6f6d696e616064820152623a37b960e91b608482015260a40162000227565b600780549082905560408051828152602081018490527f0553476bf02ef2726e8ce5ced78d63e26e602e4a2257b1f559418e24b4633997910160405180910390a15050565b600854604080516001600160a01b03928316815291831660208301527f08f74ea46ef7894f65eabfb5e6e695de773a000b47c529ab559178069b226401910160405180910390a1600880546001600160a01b0319166001600160a01b0392909216919091179055565b828054620003f390620004e3565b90600052602060002090601f01602090048101928262000417576000855562000462565b82601f106200043257805160ff191683800117855562000462565b8280016001018555821562000462579182015b828111156200046257825182559160200191906001019062000445565b506200047092915062000474565b5090565b5b8082111562000470576000815560010162000475565b6001600160a01b0381168114620004a157600080fd5b50565b60008060408385031215620004b857600080fd5b8251620004c5816200048b565b6020840151909250620004d8816200048b565b809150509250929050565b600181811c90821680620004f857607f821691505b602082108114156200051a57634e487b7160e01b600052602260045260246000fd5b50919050565b60805160a05160c05160e0516101005161012051610140516132bf62000589600039600081816107d501528181611a750152611b4001526000611e8501526000611ed401526000611eaf01526000611e0801526000611e3201526000611e5c01526132bf6000f3fe6080604052600436106102345760003560e01c80637d5e81e21161012e578063c59057e4116100ab578063ea0217cf1161006f578063ea0217cf14610743578063eb9019d414610763578063ece40cc114610783578063f8ce560a146107a3578063fc0c546a146107c357600080fd5b8063c59057e414610657578063d33219b414610677578063d547741f146106a9578063dd4e2ba5146106c9578063deaaa7cc1461070f57600080fd5b8063a890c910116100f2578063a890c910146105c2578063ab58fb8e146105e2578063b58131b014610602578063c01f9e3714610617578063c28bc2fa1461063757600080fd5b80637d5e81e21461054457806391d148541461056457806397c3d33414610584578063a217fddf14610598578063a7713a70146105ad57600080fd5b806336568abe116101bc578063544ffc9c11610180578063544ffc9c1461046557806354fd4d50146104ba57806356781388146104e457806370b0f660146105045780637b3c71d31461052457600080fd5b806336568abe146103995780633932abb1146103b95780633bccf4fd146103ce5780633e4f49e6146103ee578063438596321461041b57600080fd5b8063160cbed711610203578063160cbed7146102f6578063248a9ca3146103165780632656227d146103465780632d63f693146103595780632f2ff15d1461037957600080fd5b806301ffc9a71461025c57806302a251a31461029157806306f3f9e6146102b457806306fdde03146102d457600080fd5b3661025757306102426107f7565b6001600160a01b03161461025557600080fd5b005b600080fd5b34801561026857600080fd5b5061027c61027736600461268d565b610810565b60405190151581526020015b60405180910390f35b34801561029d57600080fd5b506102a6610821565b604051908152602001610288565b3480156102c057600080fd5b506102556102cf3660046126b7565b61082c565b3480156102e057600080fd5b506102e9610879565b604051610288919061272c565b34801561030257600080fd5b506102a6610311366004612977565b61090b565b34801561032257600080fd5b506102a66103313660046126b7565b60009081526020819052604090206001015490565b6102a6610354366004612977565b610b0b565b34801561036557600080fd5b506102a66103743660046126b7565b610be3565b34801561038557600080fd5b50610255610394366004612a06565b610c1a565b3480156103a557600080fd5b506102556103b4366004612a06565b610c45565b3480156103c557600080fd5b506102a6610cc3565b3480156103da57600080fd5b506102a66103e9366004612a4c565b610cce565b3480156103fa57600080fd5b5061040e6104093660046126b7565b610d62565b6040516102889190612ab0565b34801561042757600080fd5b5061027c610436366004612a06565b60008281526006602090815260408083206001600160a01b038516845260030190915290205460ff1692915050565b34801561047157600080fd5b5061049f6104803660046126b7565b6000908152600660205260409020805460018201546002909201549092565b60408051938452602084019290925290820152606001610288565b3480156104c657600080fd5b506040805180820190915260018152603160f81b60208201526102e9565b3480156104f057600080fd5b506102a66104ff366004612ad8565b610d6d565b34801561051057600080fd5b5061025561051f3660046126b7565b610d96565b34801561053057600080fd5b506102a661053f366004612b4c565b610dd7565b34801561055057600080fd5b506102a661055f366004612ba5565b610e29565b34801561057057600080fd5b5061027c61057f366004612a06565b610e40565b34801561059057600080fd5b5060646102a6565b3480156105a457600080fd5b506102a6600081565b3480156105b957600080fd5b506007546102a6565b3480156105ce57600080fd5b506102556105dd366004612c65565b610e69565b3480156105ee57600080fd5b506102a66105fd3660046126b7565b610eaa565b34801561060e57600080fd5b506102a6610f45565b34801561062357600080fd5b506102a66106323660046126b7565b610f50565b34801561064357600080fd5b50610255610652366004612c82565b610f7f565b34801561066357600080fd5b506102a6610672366004612977565b611000565b34801561068357600080fd5b506008546001600160a01b03165b6040516001600160a01b039091168152602001610288565b3480156106b557600080fd5b506102556106c4366004612a06565b61103a565b3480156106d557600080fd5b506040805180820190915260208082527f737570706f72743d627261766f2671756f72756d3d666f722c6162737461696e908201526102e9565b34801561071b57600080fd5b506102a67f150214d74d59b7d1e90c73fc22ef3d991dd0a76b046543d4d80ab92d2a50328f81565b34801561074f57600080fd5b5061025561075e3660046126b7565b611060565b34801561076f57600080fd5b506102a661077e366004612cc5565b6110a1565b34801561078f57600080fd5b5061025561079e3660046126b7565b6110ad565b3480156107af57600080fd5b506102a66107be3660046126b7565b6110ee565b3480156107cf57600080fd5b506106917f000000000000000000000000000000000000000000000000000000000000000081565b600061080b6008546001600160a01b031690565b905090565b600061081b826110f9565b92915050565b600061080b60045490565b6108346107f7565b6001600160a01b0316336001600160a01b03161461086d5760405162461bcd60e51b815260040161086490612cf1565b60405180910390fd5b6108768161111e565b50565b60606001805461088890612d28565b80601f01602080910402602001604051908101604052809291908181526020018280546108b490612d28565b80156109015780601f106108d657610100808354040283529160200191610901565b820191906000526020600020905b8154815290600101906020018083116108e457829003601f168201915b5050505050905090565b60008061091a86868686611000565b9050600461092782610d62565b600781111561093857610938612a9a565b146109555760405162461bcd60e51b815260040161086490612d63565b6008546040805163793d064960e11b815290516000926001600160a01b03169163f27a0c929160048083019260209291908290030181865afa15801561099f573d6000803e3d6000fd5b505050506040513d601f19601f820116820180604052508101906109c39190612da4565b60085460405163b1c5f42760e01b81529192506001600160a01b03169063b1c5f427906109fd908a908a908a906000908b90600401612e86565b602060405180830381865afa158015610a1a573d6000803e3d6000fd5b505050506040513d601f19601f82011682018060405250810190610a3e9190612da4565b6000838152600960205260408082209290925560085491516308f2a0bb60e41b81526001600160a01b0390921691638f2a0bb091610a89918b918b918b91908b908990600401612ed4565b600060405180830381600087803b158015610aa357600080fd5b505af1158015610ab7573d6000803e3d6000fd5b505050507f9a2e42fd6722813d69113e7d0079d3d940171428df7373df9c7f7617cfda2892828242610ae99190612f42565b6040805192835260208301919091520160405180910390a15095945050505050565b600080610b1a86868686611000565b90506000610b2782610d62565b90506004816007811115610b3d57610b3d612a9a565b1480610b5a57506005816007811115610b5857610b58612a9a565b145b610b765760405162461bcd60e51b815260040161086490612d63565b60008281526002602081905260409182902001805460ff19166001179055517f712ae1383f79ac853f8d882153778e0260ef8f03b504e2866e0593e04d2b291f90610bc49084815260200190565b60405180910390a1610bd982888888886111e6565b5095945050505050565b60008181526002602090815260408083208151928301909152546001600160401b0316908190525b6001600160401b031692915050565b600082815260208190526040902060010154610c3681336111f3565b610c408383611257565b505050565b6001600160a01b0381163314610cb55760405162461bcd60e51b815260206004820152602f60248201527f416363657373436f6e74726f6c3a2063616e206f6e6c792072656e6f756e636560448201526e103937b632b9903337b91039b2b63360891b6064820152608401610864565b610cbf82826112db565b5050565b600061080b60035490565b604080517f150214d74d59b7d1e90c73fc22ef3d991dd0a76b046543d4d80ab92d2a50328f602082015290810186905260ff851660608201526000908190610d3a90610d329060800160405160208183030381529060405280519060200120611340565b86868661138e565b9050610d57878288604051806020016040528060008152506113ac565b979650505050505050565b600061081b826114b6565b600080339050610d8e848285604051806020016040528060008152506113ac565b949350505050565b610d9e6107f7565b6001600160a01b0316336001600160a01b031614610dce5760405162461bcd60e51b815260040161086490612cf1565b61087681611600565b600080339050610e1f86828787878080601f0160208091040260200160405190810160405280939291908181526020018383808284376000920191909152506113ac92505050565b9695505050505050565b6000610e3785858585611641565b95945050505050565b6000918252602082815260408084206001600160a01b0393909316845291905290205460ff1690565b610e716107f7565b6001600160a01b0316336001600160a01b031614610ea15760405162461bcd60e51b815260040161086490612cf1565b6108768161191c565b60085460008281526009602052604080822054905163d45c443560e01b81526004810191909152909182916001600160a01b039091169063d45c443590602401602060405180830381865afa158015610f07573d6000803e3d6000fd5b505050506040513d601f19601f82011682018060405250810190610f2b9190612da4565b905080600114610f3b5780610f3e565b60005b9392505050565b600061080b60055490565b60008181526002602090815260408083208151928301909152600101546001600160401b031690819052610c0b565b610f876107f7565b6001600160a01b0316336001600160a01b031614610fb75760405162461bcd60e51b815260040161086490612cf1565b610ff98483838080601f016020809104026020016040519081016040528093929190818152602001838380828437600092019190915250889250611985915050565b5050505050565b6000848484846040516020016110199493929190612f5a565b60408051601f19818403018152919052805160209091012095945050505050565b60008281526020819052604090206001015461105681336111f3565b610c4083836112db565b6110686107f7565b6001600160a01b0316336001600160a01b0316146110985760405162461bcd60e51b815260040161086490612cf1565b610876816119ab565b6000610f3e8383611a4c565b6110b56107f7565b6001600160a01b0316336001600160a01b0316146110e55760405162461bcd60e51b815260040161086490612cf1565b61087681611ae2565b600061081b82611b23565b60006001600160e01b03198216636e665ced60e01b148061081b575061081b82611bc7565b60648111156111a15760405162461bcd60e51b815260206004820152604360248201527f476f7665726e6f72566f74657351756f72756d4672616374696f6e3a2071756f60448201527f72756d4e756d657261746f72206f7665722071756f72756d44656e6f6d696e616064820152623a37b960e91b608482015260a401610864565b600780549082905560408051828152602081018490527f0553476bf02ef2726e8ce5ced78d63e26e602e4a2257b1f559418e24b4633997910160405180910390a15050565b610ff98585858585611bec565b6111fd8282610e40565b610cbf57611215816001600160a01b03166014611c60565b611220836020611c60565b604051602001611231929190612fa5565b60408051601f198184030181529082905262461bcd60e51b82526108649160040161272c565b6112618282610e40565b610cbf576000828152602081815260408083206001600160a01b03851684529091529020805460ff191660011790556112973390565b6001600160a01b0316816001600160a01b0316837f2f8788117e7eff1d82e926ec794901d17c78024a50270940304540a733656f0d60405160405180910390a45050565b6112e58282610e40565b15610cbf576000828152602081815260408083206001600160a01b0385168085529252808320805460ff1916905551339285917ff6391f5c32d9c69d2a47ea670b442974b53935d1edc7fd64eb21e047a839171b9190a45050565b600061081b61134d611dfb565b8360405161190160f01b6020820152602281018390526042810182905260009060620160405160208183030381529060405280519060200120905092915050565b600080600061139f87878787611f22565b91509150610bd98161200f565b600084815260026020526040812060016113c587610d62565b60078111156113d6576113d6612a9a565b1461142f5760405162461bcd60e51b815260206004820152602360248201527f476f7665726e6f723a20766f7465206e6f742063757272656e746c792061637460448201526269766560e81b6064820152608401610864565b604080516020810190915281546001600160401b0316908190526000906114579087906110a1565b9050611465878787846121ca565b856001600160a01b03167fb8e138887d0aa13bab447e82de9d5c1777041ecd21ca36ba824ff1e6c07ddda4888784886040516114a4949392919061301a565b60405180910390a29695505050505050565b6000806114c283612349565b905060048160078111156114d8576114d8612a9a565b146114e35792915050565b600083815260096020526040902054806114fe575092915050565b600854604051632ab0f52960e01b8152600481018390526001600160a01b0390911690632ab0f52990602401602060405180830381865afa158015611547573d6000803e3d6000fd5b505050506040513d601f19601f8201168201806040525081019061156b9190613042565b1561157a575060079392505050565b600854604051632c258a9f60e11b8152600481018390526001600160a01b039091169063584b153e90602401602060405180830381865afa1580156115c3573d6000803e3d6000fd5b505050506040513d601f19601f820116820180604052508101906115e79190613042565b156115f6575060059392505050565b5060029392505050565b60035460408051918252602082018390527fc565b045403dc03c2eea82b81a0465edad9e2e7fc4d97e11421c209da93d7a93910160405180910390a1600355565b600061164b610f45565b61165a3361077e600143613064565b10156116da5760405162461bcd60e51b815260206004820152604360248201527f476f7665726e6f72436f6d7061746962696c697479427261766f3a2070726f7060448201527f6f73657220766f7465732062656c6f772070726f706f73616c207468726573686064820152621bdb1960ea1b608482015260a401610864565b60006116ef8686868680519060200120611000565b905084518651146117125760405162461bcd60e51b81526004016108649061307b565b83518651146117335760405162461bcd60e51b81526004016108649061307b565b60008651116117845760405162461bcd60e51b815260206004820152601860248201527f476f7665726e6f723a20656d7074792070726f706f73616c00000000000000006044820152606401610864565b600081815260026020908152604091829020825191820190925281546001600160401b031690819052156118045760405162461bcd60e51b815260206004820152602160248201527f476f7665726e6f723a2070726f706f73616c20616c72656164792065786973746044820152607360f81b6064820152608401610864565b6000611816611811610cc3565b612456565b61181f43612456565b61182991906130bc565b90506000611838611811610821565b61184290836130bc565b835467ffffffffffffffff19166001600160401b038416178455905060018301805467ffffffffffffffff19166001600160401b0383161790557f7d84a6263ae0d98d3329bd7b46bb4e8d6f98cd35a7adb45c274c8b7fd5ebd5e084338b8b8d516001600160401b038111156118ba576118ba61273f565b6040519080825280602002602001820160405280156118ed57816020015b60608152602001906001900390816118d85790505b508c88888e604051611907999897969594939291906130e7565b60405180910390a15091979650505050505050565b600854604080516001600160a01b03928316815291831660208301527f08f74ea46ef7894f65eabfb5e6e695de773a000b47c529ab559178069b226401910160405180910390a1600880546001600160a01b0319166001600160a01b0392909216919091179055565b6060610d8e848484604051806060016040528060298152602001613261602991396124c2565b60008111611a0b5760405162461bcd60e51b815260206004820152602760248201527f476f7665726e6f7253657474696e67733a20766f74696e6720706572696f6420604482015266746f6f206c6f7760c81b6064820152608401610864565b60045460408051918252602082018390527f7e3f7f0708a84de9203036abaa450dccc85ad5ff52f78c170f3edb55cf5e8828910160405180910390a1600455565b604051630748d63560e31b81526001600160a01b038381166004830152602482018390526000917f000000000000000000000000000000000000000000000000000000000000000090911690633a46b1a890604401602060405180830381865afa158015611abe573d6000803e3d6000fd5b505050506040513d601f19601f82011682018060405250810190610f3e9190612da4565b60055460408051918252602082018390527fccb45da8d5717e6c4544694297c4ba5cf151d455c9bb0ed4fc7a38411bc05461910160405180910390a1600555565b60006064600754604051632394e7a360e21b8152600481018590527f00000000000000000000000000000000000000000000000000000000000000006001600160a01b031690638e539e8c90602401602060405180830381865afa158015611b8f573d6000803e3d6000fd5b505050506040513d601f19601f82011682018060405250810190611bb39190612da4565b611bbd91906131d6565b61081b91906131f5565b60006001600160e01b0319821663bf26d89760e01b148061081b575061081b826125e8565b60085460405163e38335e560e01b81526001600160a01b039091169063e38335e5903490611c27908890889088906000908990600401612e86565b6000604051808303818588803b158015611c4057600080fd5b505af1158015611c54573d6000803e3d6000fd5b50505050505050505050565b60606000611c6f8360026131d6565b611c7a906002612f42565b6001600160401b03811115611c9157611c9161273f565b6040519080825280601f01601f191660200182016040528015611cbb576020820181803683370190505b509050600360fc1b81600081518110611cd657611cd6613217565b60200101906001600160f81b031916908160001a905350600f60fb1b81600181518110611d0557611d05613217565b60200101906001600160f81b031916908160001a9053506000611d298460026131d6565b611d34906001612f42565b90505b6001811115611dac576f181899199a1a9b1b9c1cb0b131b232b360811b85600f1660108110611d6857611d68613217565b1a60f81b828281518110611d7e57611d7e613217565b60200101906001600160f81b031916908160001a90535060049490941c93611da58161322d565b9050611d37565b508315610f3e5760405162461bcd60e51b815260206004820181905260248201527f537472696e67733a20686578206c656e67746820696e73756666696369656e746044820152606401610864565b6000306001600160a01b037f000000000000000000000000000000000000000000000000000000000000000016148015611e5457507f000000000000000000000000000000000000000000000000000000000000000046145b15611e7e57507f000000000000000000000000000000000000000000000000000000000000000090565b50604080517f00000000000000000000000000000000000000000000000000000000000000006020808301919091527f0000000000000000000000000000000000000000000000000000000000000000828401527f000000000000000000000000000000000000000000000000000000000000000060608301524660808301523060a0808401919091528351808403909101815260c0909201909252805191012090565b6000807f7fffffffffffffffffffffffffffffff5d576e7357a4501ddfe92f46681b20a0831115611f595750600090506003612006565b8460ff16601b14158015611f7157508460ff16601c14155b15611f825750600090506004612006565b6040805160008082526020820180845289905260ff881692820192909252606081018690526080810185905260019060a0016020604051602081039080840390855afa158015611fd6573d6000803e3d6000fd5b5050604051601f1901519150506001600160a01b038116611fff57600060019250925050612006565b9150600090505b94509492505050565b600081600481111561202357612023612a9a565b141561202c5750565b600181600481111561204057612040612a9a565b141561208e5760405162461bcd60e51b815260206004820152601860248201527f45434453413a20696e76616c6964207369676e617475726500000000000000006044820152606401610864565b60028160048111156120a2576120a2612a9a565b14156120f05760405162461bcd60e51b815260206004820152601f60248201527f45434453413a20696e76616c6964207369676e6174757265206c656e677468006044820152606401610864565b600381600481111561210457612104612a9a565b141561215d5760405162461bcd60e51b815260206004820152602260248201527f45434453413a20696e76616c6964207369676e6174757265202773272076616c604482015261756560f01b6064820152608401610864565b600481600481111561217157612171612a9a565b14156108765760405162461bcd60e51b815260206004820152602260248201527f45434453413a20696e76616c6964207369676e6174757265202776272076616c604482015261756560f01b6064820152608401610864565b60008481526006602090815260408083206001600160a01b0387168452600381019092529091205460ff16156122525760405162461bcd60e51b815260206004820152602760248201527f476f7665726e6f72566f74696e6753696d706c653a20766f746520616c726561604482015266191e4818d85cdd60ca1b6064820152608401610864565b6001600160a01b03841660009081526003820160205260408120805460ff1916600117905560ff168360ff1614156122a357818160000160008282546122989190612f42565b90915550610ff99050565b60ff8316600114156122c357818160010160008282546122989190612f42565b60ff8316600214156122e357818160020160008282546122989190612f42565b60405162461bcd60e51b815260206004820152603560248201527f476f7665726e6f72566f74696e6753696d706c653a20696e76616c69642076616044820152746c756520666f7220656e756d20566f74655479706560581b6064820152608401610864565b600081815260026020819052604082209081015460ff161561236e5750600792915050565b6002810154610100900460ff16156123895750600292915050565b600061239484610be3565b9050806123e35760405162461bcd60e51b815260206004820152601d60248201527f476f7665726e6f723a20756e6b6e6f776e2070726f706f73616c2069640000006044820152606401610864565b4381106123f4575060009392505050565b60006123ff85610f50565b905043811061241357506001949350505050565b61241c8561261d565b801561243b575060008581526006602052604090208054600190910154115b1561244b57506004949350505050565b506003949350505050565b60006001600160401b038211156124be5760405162461bcd60e51b815260206004820152602660248201527f53616665436173743a2076616c756520646f65736e27742066697420696e203660448201526534206269747360d01b6064820152608401610864565b5090565b6060824710156125235760405162461bcd60e51b815260206004820152602660248201527f416464726573733a20696e73756666696369656e742062616c616e636520666f6044820152651c8818d85b1b60d21b6064820152608401610864565b6001600160a01b0385163b61257a5760405162461bcd60e51b815260206004820152601d60248201527f416464726573733a2063616c6c20746f206e6f6e2d636f6e74726163740000006044820152606401610864565b600080866001600160a01b031685876040516125969190613244565b60006040518083038185875af1925050503d80600081146125d3576040519150601f19603f3d011682016040523d82523d6000602084013e6125d8565b606091505b5091509150610d57828286612654565b60006001600160e01b03198216637965db0b60e01b148061081b57506301ffc9a760e01b6001600160e01b031983161461081b565b60008181526006602052604081206002810154600182015461263f9190612f42565b61264b6107be85610be3565b11159392505050565b60608315612663575081610f3e565b8251156126735782518084602001fd5b8160405162461bcd60e51b8152600401610864919061272c565b60006020828403121561269f57600080fd5b81356001600160e01b031981168114610f3e57600080fd5b6000602082840312156126c957600080fd5b5035919050565b60005b838110156126eb5781810151838201526020016126d3565b838111156126fa576000848401525b50505050565b600081518084526127188160208601602086016126d0565b601f01601f19169290920160200192915050565b602081526000610f3e6020830184612700565b634e487b7160e01b600052604160045260246000fd5b604051601f8201601f191681016001600160401b038111828210171561277d5761277d61273f565b604052919050565b60006001600160401b0382111561279e5761279e61273f565b5060051b60200190565b6001600160a01b038116811461087657600080fd5b600082601f8301126127ce57600080fd5b813560206127e36127de83612785565b612755565b82815260059290921b8401810191818101908684111561280257600080fd5b8286015b84811015612826578035612819816127a8565b8352918301918301612806565b509695505050505050565b600082601f83011261284257600080fd5b813560206128526127de83612785565b82815260059290921b8401810191818101908684111561287157600080fd5b8286015b848110156128265780358352918301918301612875565b60006001600160401b038311156128a5576128a561273f565b6128b8601f8401601f1916602001612755565b90508281528383830111156128cc57600080fd5b828260208301376000602084830101529392505050565b600082601f8301126128f457600080fd5b813560206129046127de83612785565b82815260059290921b8401810191818101908684111561292357600080fd5b8286015b848110156128265780356001600160401b038111156129465760008081fd5b8701603f810189136129585760008081fd5b61296989868301356040840161288c565b845250918301918301612927565b6000806000806080858703121561298d57600080fd5b84356001600160401b03808211156129a457600080fd5b6129b0888389016127bd565b955060208701359150808211156129c657600080fd5b6129d288838901612831565b945060408701359150808211156129e857600080fd5b506129f5878288016128e3565b949793965093946060013593505050565b60008060408385031215612a1957600080fd5b823591506020830135612a2b816127a8565b809150509250929050565b803560ff81168114612a4757600080fd5b919050565b600080600080600060a08688031215612a6457600080fd5b85359450612a7460208701612a36565b9350612a8260408701612a36565b94979396509394606081013594506080013592915050565b634e487b7160e01b600052602160045260246000fd5b6020810160088310612ad257634e487b7160e01b600052602160045260246000fd5b91905290565b60008060408385031215612aeb57600080fd5b82359150612afb60208401612a36565b90509250929050565b60008083601f840112612b1657600080fd5b5081356001600160401b03811115612b2d57600080fd5b602083019150836020828501011115612b4557600080fd5b9250929050565b60008060008060608587031215612b6257600080fd5b84359350612b7260208601612a36565b925060408501356001600160401b03811115612b8d57600080fd5b612b9987828801612b04565b95989497509550505050565b60008060008060808587031215612bbb57600080fd5b84356001600160401b0380821115612bd257600080fd5b612bde888389016127bd565b95506020870135915080821115612bf457600080fd5b612c0088838901612831565b94506040870135915080821115612c1657600080fd5b612c22888389016128e3565b93506060870135915080821115612c3857600080fd5b508501601f81018713612c4a57600080fd5b612c598782356020840161288c565b91505092959194509250565b600060208284031215612c7757600080fd5b8135610f3e816127a8565b60008060008060608587031215612c9857600080fd5b8435612ca3816127a8565b93506020850135925060408501356001600160401b03811115612b8d57600080fd5b60008060408385031215612cd857600080fd5b8235612ce3816127a8565b946020939093013593505050565b60208082526018908201527f476f7665726e6f723a206f6e6c79476f7665726e616e63650000000000000000604082015260600190565b600181811c90821680612d3c57607f821691505b60208210811415612d5d57634e487b7160e01b600052602260045260246000fd5b50919050565b60208082526021908201527f476f7665726e6f723a2070726f706f73616c206e6f74207375636365737366756040820152601b60fa1b606082015260800190565b600060208284031215612db657600080fd5b5051919050565b600081518084526020808501945080840160005b83811015612df65781516001600160a01b031687529582019590820190600101612dd1565b509495945050505050565b600081518084526020808501945080840160005b83811015612df657815187529582019590820190600101612e15565b600081518084526020808501808196508360051b8101915082860160005b85811015612e79578284038952612e67848351612700565b98850198935090840190600101612e4f565b5091979650505050505050565b60a081526000612e9960a0830188612dbd565b8281036020840152612eab8188612e01565b90508281036040840152612ebf8187612e31565b60608401959095525050608001529392505050565b60c081526000612ee760c0830189612dbd565b8281036020840152612ef98189612e01565b90508281036040840152612f0d8188612e31565b60608401969096525050608081019290925260a0909101529392505050565b634e487b7160e01b600052601160045260246000fd5b60008219821115612f5557612f55612f2c565b500190565b608081526000612f6d6080830187612dbd565b8281036020840152612f7f8187612e01565b90508281036040840152612f938186612e31565b91505082606083015295945050505050565b7f416363657373436f6e74726f6c3a206163636f756e7420000000000000000000815260008351612fdd8160178501602088016126d0565b7001034b99036b4b9b9b4b733903937b6329607d1b601791840191820152835161300e8160288401602088016126d0565b01602801949350505050565b84815260ff84166020820152826040820152608060608201526000610e1f6080830184612700565b60006020828403121561305457600080fd5b81518015158114610f3e57600080fd5b60008282101561307657613076612f2c565b500390565b60208082526021908201527f476f7665726e6f723a20696e76616c69642070726f706f73616c206c656e67746040820152600d60fb1b606082015260800190565b60006001600160401b038083168185168083038211156130de576130de612f2c565b01949350505050565b60006101208b8352602060018060a01b038c16818501528160408501526131108285018c612dbd565b91508382036060850152613124828b612e01565b915083820360808501528189518084528284019150828160051b850101838c0160005b8381101561317557601f19878403018552613163838351612700565b94860194925090850190600101613147565b505086810360a0880152613189818c612e31565b9450505050506131a460c08401876001600160401b03169052565b6001600160401b03851660e08401528281036101008401526131c68185612700565b9c9b505050505050505050505050565b60008160001904831182151516156131f0576131f0612f2c565b500290565b60008261321257634e487b7160e01b600052601260045260246000fd5b500490565b634e487b7160e01b600052603260045260246000fd5b60008161323c5761323c612f2c565b506000190190565b600082516132568184602087016126d0565b919091019291505056fe416464726573733a206c6f772d6c6576656c2063616c6c20776974682076616c7565206661696c6564a2646970667358221220809499c0e2fa23f254c141076f2ae37e1b935744be9bc27a2546d77f6920a9f064736f6c634300080b0033",
  "immutableReferences": {
    "3040": [
      {
        "length": 32,
        "start": 2005
      },
      {
        "length": 32,
        "start": 6773
      },
      {
        "length": 32,
        "start": 6976
      }
    ],
    "5825": [
      {
        "length": 32,
        "start": 7772
      }
    ],
    "5827": [
      {
        "length": 32,
        "start": 7730
      }
    ],
    "5829": [
      {
        "length": 32,
        "start": 7688
      }
    ],
    "5831": [
      {
        "length": 32,
        "start": 7855
      }
    ],
    "5833": [
      {
        "length": 32,
        "start": 7892
      }
    ],
    "5835": [
      {
        "length": 32,
        "start": 7813
      }
    ]
  },
  "source": "// SPDX-License-Identifier: AGPL-3.0\n\npragma solidity ^0.8.11;\n\nimport \"@openzeppelin/contracts/access/AccessControl.sol\";\nimport \"@openzeppelin/contracts/governance/Governor.sol\";\nimport \"@openzeppelin/contracts/governance/extensions/GovernorSettings.sol\";\nimport \"@openzeppelin/contracts/governance/extensions/GovernorCountingSimple.sol\";\nimport \"@openzeppelin/contracts/governance/extensions/GovernorVotes.sol\";\nimport \"@openzeppelin/contracts/governance/extensions/GovernorVotesQuorumFraction.sol\";\nimport \"@openzeppelin/contracts/governance/extensions/GovernorTimelockControl.sol\";\n\ncontract DAOInvestmentFund is\n    AccessControl,\n    Governor,\n    GovernorSettings,\n    GovernorCountingSimple,\n    GovernorVotes,\n    GovernorVotesQuorumFraction,\n    GovernorTimelockControl\n{\n    constructor(IVotes _token, TimelockController _timelock)\n        Governor(\"MyGovernor\")\n        GovernorSettings(\n            1, /* 1 block */\n            45818, /* 1 week */\n            0\n        )\n        GovernorVotes(_token)\n        GovernorVotesQuorumFraction(4)\n        GovernorTimelockControl(_timelock)\n    {}\n\n    // The following functions are overrides required by Solidity.\n    function votingDelay()\n        public\n        view\n        override(IGovernor, GovernorSettings)\n        returns (uint256)\n    {\n        return super.votingDelay();\n    }\n\n    function votingPeriod()\n        public\n        view\n        override(IGovernor, GovernorSettings)\n        returns (uint256)\n    {\n        return super.votingPeriod();\n    }\n\n    function quorum(uint256 blockNumber)\n        public\n        view\n        override(IGovernor, GovernorVotesQuorumFraction)\n        returns (uint256)\n    {\n        return super.quorum(blockNumber);\n    }\n\n    function getVotes(address account, uint256 blockNumber)\n        public\n        view\n        override(IGovernor, GovernorVotes)\n        returns (uint256)\n    {\n        return super.getVotes(account, blockNumber);\n    }\n\n    function state(uint256 proposalId)\n        public\n        view\n        override(Governor, GovernorTimelockControl)\n        returns (ProposalState)\n    {\n        return super.state(proposalId);\n    }\n\n    function propose(\n        address[] memory targets,\n        uint256[] memory values,\n        bytes[] memory calldatas,\n        string memory description\n    ) public override(Governor, IGovernor) returns (uint256) {\n        return super.propose(targets, values, calldatas, description);\n    }\n\n    function proposalThreshold()\n        public\n        view\n        override(Governor, GovernorSettings)\n        returns (uint256)\n    {\n        return super.proposalThreshold();\n    }\n\n    function _execute(\n        uint256 proposalId,\n        address[] memory targets,\n        uint256[] memory values,\n        bytes[] memory calldatas,\n        bytes32 descriptionHash\n    ) internal override(Governor, GovernorTimelockControl) {\n        super._execute(proposalId, targets, values, calldatas, descriptionHash);\n    }\n\n    function _cancel(\n        address[] memory targets,\n        uint256[] memory values,\n        bytes[] memory calldatas,\n        bytes32 descriptionHash\n    ) internal override(Governor, GovernorTimelockControl) returns (uint256) {\n        return super._cancel(targets, values, calldatas, descriptionHash);\n    }\n\n    function _executor()\n        internal\n        view\n        override(Governor, GovernorTimelockControl)\n        returns (address)\n    {\n        return super._executor();\n    }\n\n    function supportsInterface(bytes4 interfaceId)\n        public\n        view\n        override(AccessControl, Governor, GovernorTimelockControl)\n        returns (bool)\n    {\n        return super.supportsInterface(interfaceId);\n    }\n}\n",
  "sourcePath": "/Users/yosephks/Documents/GitHub/alpsfinance-smart-contracts/contracts/funds/DAOInvestmentFund.sol",
  "compiler": {
    "name": "solc",
    "version": "0.8.11+commit.d7f03943.Emscripten.clang"
  },
  "schemaVersion": "3.4.6",
  "updatedAt": "2022-04-07T15:30:37.669Z",
  "devdoc": {
    "kind": "dev",
    "methods": {
      "COUNTING_MODE()": {
        "details": "See {IGovernor-COUNTING_MODE}."
      },
      "castVote(uint256,uint8)": {
        "details": "See {IGovernor-castVote}."
      },
      "castVoteBySig(uint256,uint8,uint8,bytes32,bytes32)": {
        "details": "See {IGovernor-castVoteBySig}."
      },
      "castVoteWithReason(uint256,uint8,string)": {
        "details": "See {IGovernor-castVoteWithReason}."
      },
      "execute(address[],uint256[],bytes[],bytes32)": {
        "details": "See {IGovernor-execute}."
      },
      "getRoleAdmin(bytes32)": {
        "details": "Returns the admin role that controls `role`. See {grantRole} and {revokeRole}. To change a role's admin, use {_setRoleAdmin}."
      },
      "grantRole(bytes32,address)": {
        "details": "Grants `role` to `account`. If `account` had not been already granted `role`, emits a {RoleGranted} event. Requirements: - the caller must have ``role``'s admin role."
      },
      "hasRole(bytes32,address)": {
        "details": "Returns `true` if `account` has been granted `role`."
      },
      "hasVoted(uint256,address)": {
        "details": "See {IGovernor-hasVoted}."
      },
      "hashProposal(address[],uint256[],bytes[],bytes32)": {
        "details": "See {IGovernor-hashProposal}. The proposal id is produced by hashing the RLC encoded `targets` array, the `values` array, the `calldatas` array and the descriptionHash (bytes32 which itself is the keccak256 hash of the description string). This proposal id can be produced from the proposal data which is part of the {ProposalCreated} event. It can even be computed in advance, before the proposal is submitted. Note that the chainId and the governor address are not part of the proposal id computation. Consequently, the same proposal (with same operation and same description) will have the same id if submitted on multiple governors accross multiple networks. This also means that in order to execute the same operation twice (on the same governor) the proposer will have to change the description in order to avoid proposal id conflicts."
      },
      "name()": {
        "details": "See {IGovernor-name}."
      },
      "proposalDeadline(uint256)": {
        "details": "See {IGovernor-proposalDeadline}."
      },
      "proposalEta(uint256)": {
        "details": "Public accessor to check the eta of a queued proposal"
      },
      "proposalSnapshot(uint256)": {
        "details": "See {IGovernor-proposalSnapshot}."
      },
      "proposalVotes(uint256)": {
        "details": "Accessor to the internal vote counts."
      },
      "queue(address[],uint256[],bytes[],bytes32)": {
        "details": "Function to queue a proposal to the timelock."
      },
      "quorumDenominator()": {
        "details": "Returns the quorum denominator. Defaults to 100, but may be overridden."
      },
      "quorumNumerator()": {
        "details": "Returns the current quorum numerator. See {quorumDenominator}."
      },
      "relay(address,uint256,bytes)": {
        "details": "Relays a transaction or function call to an arbitrary target. In cases where the governance executor is some contract other than the governor itself, like when using a timelock, this function can be invoked in a governance proposal to recover tokens or Ether that was sent to the governor contract by mistake. Note that if the executor is simply the governor itself, use of `relay` is redundant."
      },
      "renounceRole(bytes32,address)": {
        "details": "Revokes `role` from the calling account. Roles are often managed via {grantRole} and {revokeRole}: this function's purpose is to provide a mechanism for accounts to lose their privileges if they are compromised (such as when a trusted device is misplaced). If the calling account had been revoked `role`, emits a {RoleRevoked} event. Requirements: - the caller must be `account`."
      },
      "revokeRole(bytes32,address)": {
        "details": "Revokes `role` from `account`. If `account` had been granted `role`, emits a {RoleRevoked} event. Requirements: - the caller must have ``role``'s admin role."
      },
      "setProposalThreshold(uint256)": {
        "details": "Update the proposal threshold. This operation can only be performed through a governance proposal. Emits a {ProposalThresholdSet} event."
      },
      "setVotingDelay(uint256)": {
        "details": "Update the voting delay. This operation can only be performed through a governance proposal. Emits a {VotingDelaySet} event."
      },
      "setVotingPeriod(uint256)": {
        "details": "Update the voting period. This operation can only be performed through a governance proposal. Emits a {VotingPeriodSet} event."
      },
      "timelock()": {
        "details": "Public accessor to check the address of the timelock"
      },
      "updateQuorumNumerator(uint256)": {
        "details": "Changes the quorum numerator. Emits a {QuorumNumeratorUpdated} event. Requirements: - Must be called through a governance proposal. - New numerator must be smaller or equal to the denominator."
      },
      "updateTimelock(address)": {
        "details": "Public endpoint to update the underlying timelock instance. Restricted to the timelock itself, so updates must be proposed, scheduled, and executed through governance proposals. CAUTION: It is not recommended to change the timelock while there are other queued governance proposals."
      },
      "version()": {
        "details": "See {IGovernor-version}."
      }
    },
    "version": 1
  },
  "userdoc": {
    "kind": "user",
    "methods": {},
    "version": 1
  }
}