{
  "contractName": "ERC20Custom",
  "abi": [
    {
      "inputs": [
        {
          "internalType": "string",
          "name": "_name",
          "type": "string"
        },
        {
          "internalType": "string",
          "name": "_symbol",
          "type": "string"
        },
        {
          "internalType": "uint256",
          "name": "_capSupply",
          "type": "uint256"
        }
      ],
      "stateMutability": "nonpayable",
      "type": "constructor"
    },
    {
      "anonymous": false,
      "inputs": [
        {
          "indexed": true,
          "internalType": "address",
          "name": "owner",
          "type": "address"
        },
        {
          "indexed": true,
          "internalType": "address",
          "name": "spender",
          "type": "address"
        },
        {
          "indexed": false,
          "internalType": "uint256",
          "name": "value",
          "type": "uint256"
        }
      ],
      "name": "Approval",
      "type": "event"
    },
    {
      "anonymous": false,
      "inputs": [
        {
          "indexed": true,
          "internalType": "address",
          "name": "delegator",
          "type": "address"
        },
        {
          "indexed": true,
          "internalType": "address",
          "name": "fromDelegate",
          "type": "address"
        },
        {
          "indexed": true,
          "internalType": "address",
          "name": "toDelegate",
          "type": "address"
        }
      ],
      "name": "DelegateChanged",
      "type": "event"
    },
    {
      "anonymous": false,
      "inputs": [
        {
          "indexed": true,
          "internalType": "address",
          "name": "delegate",
          "type": "address"
        },
        {
          "indexed": false,
          "internalType": "uint256",
          "name": "previousBalance",
          "type": "uint256"
        },
        {
          "indexed": false,
          "internalType": "uint256",
          "name": "newBalance",
          "type": "uint256"
        }
      ],
      "name": "DelegateVotesChanged",
      "type": "event"
    },
    {
      "anonymous": false,
      "inputs": [
        {
          "indexed": false,
          "internalType": "address",
          "name": "account",
          "type": "address"
        }
      ],
      "name": "Paused",
      "type": "event"
    },
    {
      "anonymous": false,
      "inputs": [
        {
          "indexed": true,
          "internalType": "bytes32",
          "name": "role",
          "type": "bytes32"
        },
        {
          "indexed": true,
          "internalType": "bytes32",
          "name": "previousAdminRole",
          "type": "bytes32"
        },
        {
          "indexed": true,
          "internalType": "bytes32",
          "name": "newAdminRole",
          "type": "bytes32"
        }
      ],
      "name": "RoleAdminChanged",
      "type": "event"
    },
    {
      "anonymous": false,
      "inputs": [
        {
          "indexed": true,
          "internalType": "bytes32",
          "name": "role",
          "type": "bytes32"
        },
        {
          "indexed": true,
          "internalType": "address",
          "name": "account",
          "type": "address"
        },
        {
          "indexed": true,
          "internalType": "address",
          "name": "sender",
          "type": "address"
        }
      ],
      "name": "RoleGranted",
      "type": "event"
    },
    {
      "anonymous": false,
      "inputs": [
        {
          "indexed": true,
          "internalType": "bytes32",
          "name": "role",
          "type": "bytes32"
        },
        {
          "indexed": true,
          "internalType": "address",
          "name": "account",
          "type": "address"
        },
        {
          "indexed": true,
          "internalType": "address",
          "name": "sender",
          "type": "address"
        }
      ],
      "name": "RoleRevoked",
      "type": "event"
    },
    {
      "anonymous": false,
      "inputs": [
        {
          "indexed": true,
          "internalType": "address",
          "name": "from",
          "type": "address"
        },
        {
          "indexed": true,
          "internalType": "address",
          "name": "to",
          "type": "address"
        },
        {
          "indexed": false,
          "internalType": "uint256",
          "name": "value",
          "type": "uint256"
        }
      ],
      "name": "Transfer",
      "type": "event"
    },
    {
      "anonymous": false,
      "inputs": [
        {
          "indexed": false,
          "internalType": "address",
          "name": "account",
          "type": "address"
        }
      ],
      "name": "Unpaused",
      "type": "event"
    },
    {
      "inputs": [],
      "name": "DEFAULT_ADMIN_ROLE",
      "outputs": [
        {
          "internalType": "bytes32",
          "name": "",
          "type": "bytes32"
        }
      ],
      "stateMutability": "view",
      "type": "function"
    },
    {
      "inputs": [],
      "name": "DOMAIN_SEPARATOR",
      "outputs": [
        {
          "internalType": "bytes32",
          "name": "",
          "type": "bytes32"
        }
      ],
      "stateMutability": "view",
      "type": "function"
    },
    {
      "inputs": [],
      "name": "MINTER_ROLE",
      "outputs": [
        {
          "internalType": "bytes32",
          "name": "",
          "type": "bytes32"
        }
      ],
      "stateMutability": "view",
      "type": "function"
    },
    {
      "inputs": [],
      "name": "PAUSER_ROLE",
      "outputs": [
        {
          "internalType": "bytes32",
          "name": "",
          "type": "bytes32"
        }
      ],
      "stateMutability": "view",
      "type": "function"
    },
    {
      "inputs": [
        {
          "internalType": "address",
          "name": "owner",
          "type": "address"
        },
        {
          "internalType": "address",
          "name": "spender",
          "type": "address"
        }
      ],
      "name": "allowance",
      "outputs": [
        {
          "internalType": "uint256",
          "name": "",
          "type": "uint256"
        }
      ],
      "stateMutability": "view",
      "type": "function"
    },
    {
      "inputs": [
        {
          "internalType": "address",
          "name": "spender",
          "type": "address"
        },
        {
          "internalType": "uint256",
          "name": "amount",
          "type": "uint256"
        }
      ],
      "name": "approve",
      "outputs": [
        {
          "internalType": "bool",
          "name": "",
          "type": "bool"
        }
      ],
      "stateMutability": "nonpayable",
      "type": "function"
    },
    {
      "inputs": [
        {
          "internalType": "address",
          "name": "account",
          "type": "address"
        }
      ],
      "name": "balanceOf",
      "outputs": [
        {
          "internalType": "uint256",
          "name": "",
          "type": "uint256"
        }
      ],
      "stateMutability": "view",
      "type": "function"
    },
    {
      "inputs": [
        {
          "internalType": "uint256",
          "name": "amount",
          "type": "uint256"
        }
      ],
      "name": "burn",
      "outputs": [],
      "stateMutability": "nonpayable",
      "type": "function"
    },
    {
      "inputs": [
        {
          "internalType": "address",
          "name": "account",
          "type": "address"
        },
        {
          "internalType": "uint256",
          "name": "amount",
          "type": "uint256"
        }
      ],
      "name": "burnFrom",
      "outputs": [],
      "stateMutability": "nonpayable",
      "type": "function"
    },
    {
      "inputs": [
        {
          "internalType": "address",
          "name": "account",
          "type": "address"
        },
        {
          "internalType": "uint32",
          "name": "pos",
          "type": "uint32"
        }
      ],
      "name": "checkpoints",
      "outputs": [
        {
          "components": [
            {
              "internalType": "uint32",
              "name": "fromBlock",
              "type": "uint32"
            },
            {
              "internalType": "uint224",
              "name": "votes",
              "type": "uint224"
            }
          ],
          "internalType": "struct ERC20Votes.Checkpoint",
          "name": "",
          "type": "tuple"
        }
      ],
      "stateMutability": "view",
      "type": "function"
    },
    {
      "inputs": [],
      "name": "decimals",
      "outputs": [
        {
          "internalType": "uint8",
          "name": "",
          "type": "uint8"
        }
      ],
      "stateMutability": "view",
      "type": "function"
    },
    {
      "inputs": [
        {
          "internalType": "address",
          "name": "spender",
          "type": "address"
        },
        {
          "internalType": "uint256",
          "name": "subtractedValue",
          "type": "uint256"
        }
      ],
      "name": "decreaseAllowance",
      "outputs": [
        {
          "internalType": "bool",
          "name": "",
          "type": "bool"
        }
      ],
      "stateMutability": "nonpayable",
      "type": "function"
    },
    {
      "inputs": [
        {
          "internalType": "address",
          "name": "delegatee",
          "type": "address"
        }
      ],
      "name": "delegate",
      "outputs": [],
      "stateMutability": "nonpayable",
      "type": "function"
    },
    {
      "inputs": [
        {
          "internalType": "address",
          "name": "delegatee",
          "type": "address"
        },
        {
          "internalType": "uint256",
          "name": "nonce",
          "type": "uint256"
        },
        {
          "internalType": "uint256",
          "name": "expiry",
          "type": "uint256"
        },
        {
          "internalType": "uint8",
          "name": "v",
          "type": "uint8"
        },
        {
          "internalType": "bytes32",
          "name": "r",
          "type": "bytes32"
        },
        {
          "internalType": "bytes32",
          "name": "s",
          "type": "bytes32"
        }
      ],
      "name": "delegateBySig",
      "outputs": [],
      "stateMutability": "nonpayable",
      "type": "function"
    },
    {
      "inputs": [
        {
          "internalType": "address",
          "name": "account",
          "type": "address"
        }
      ],
      "name": "delegates",
      "outputs": [
        {
          "internalType": "address",
          "name": "",
          "type": "address"
        }
      ],
      "stateMutability": "view",
      "type": "function"
    },
    {
      "inputs": [
        {
          "internalType": "uint256",
          "name": "blockNumber",
          "type": "uint256"
        }
      ],
      "name": "getPastTotalSupply",
      "outputs": [
        {
          "internalType": "uint256",
          "name": "",
          "type": "uint256"
        }
      ],
      "stateMutability": "view",
      "type": "function"
    },
    {
      "inputs": [
        {
          "internalType": "address",
          "name": "account",
          "type": "address"
        },
        {
          "internalType": "uint256",
          "name": "blockNumber",
          "type": "uint256"
        }
      ],
      "name": "getPastVotes",
      "outputs": [
        {
          "internalType": "uint256",
          "name": "",
          "type": "uint256"
        }
      ],
      "stateMutability": "view",
      "type": "function"
    },
    {
      "inputs": [
        {
          "internalType": "bytes32",
          "name": "role",
          "type": "bytes32"
        }
      ],
      "name": "getRoleAdmin",
      "outputs": [
        {
          "internalType": "bytes32",
          "name": "",
          "type": "bytes32"
        }
      ],
      "stateMutability": "view",
      "type": "function"
    },
    {
      "inputs": [
        {
          "internalType": "address",
          "name": "account",
          "type": "address"
        }
      ],
      "name": "getVotes",
      "outputs": [
        {
          "internalType": "uint256",
          "name": "",
          "type": "uint256"
        }
      ],
      "stateMutability": "view",
      "type": "function"
    },
    {
      "inputs": [
        {
          "internalType": "bytes32",
          "name": "role",
          "type": "bytes32"
        },
        {
          "internalType": "address",
          "name": "account",
          "type": "address"
        }
      ],
      "name": "grantRole",
      "outputs": [],
      "stateMutability": "nonpayable",
      "type": "function"
    },
    {
      "inputs": [
        {
          "internalType": "bytes32",
          "name": "role",
          "type": "bytes32"
        },
        {
          "internalType": "address",
          "name": "account",
          "type": "address"
        }
      ],
      "name": "hasRole",
      "outputs": [
        {
          "internalType": "bool",
          "name": "",
          "type": "bool"
        }
      ],
      "stateMutability": "view",
      "type": "function"
    },
    {
      "inputs": [
        {
          "internalType": "address",
          "name": "spender",
          "type": "address"
        },
        {
          "internalType": "uint256",
          "name": "addedValue",
          "type": "uint256"
        }
      ],
      "name": "increaseAllowance",
      "outputs": [
        {
          "internalType": "bool",
          "name": "",
          "type": "bool"
        }
      ],
      "stateMutability": "nonpayable",
      "type": "function"
    },
    {
      "inputs": [],
      "name": "name",
      "outputs": [
        {
          "internalType": "string",
          "name": "",
          "type": "string"
        }
      ],
      "stateMutability": "view",
      "type": "function"
    },
    {
      "inputs": [
        {
          "internalType": "address",
          "name": "owner",
          "type": "address"
        }
      ],
      "name": "nonces",
      "outputs": [
        {
          "internalType": "uint256",
          "name": "",
          "type": "uint256"
        }
      ],
      "stateMutability": "view",
      "type": "function"
    },
    {
      "inputs": [
        {
          "internalType": "address",
          "name": "account",
          "type": "address"
        }
      ],
      "name": "numCheckpoints",
      "outputs": [
        {
          "internalType": "uint32",
          "name": "",
          "type": "uint32"
        }
      ],
      "stateMutability": "view",
      "type": "function"
    },
    {
      "inputs": [],
      "name": "paused",
      "outputs": [
        {
          "internalType": "bool",
          "name": "",
          "type": "bool"
        }
      ],
      "stateMutability": "view",
      "type": "function"
    },
    {
      "inputs": [
        {
          "internalType": "address",
          "name": "owner",
          "type": "address"
        },
        {
          "internalType": "address",
          "name": "spender",
          "type": "address"
        },
        {
          "internalType": "uint256",
          "name": "value",
          "type": "uint256"
        },
        {
          "internalType": "uint256",
          "name": "deadline",
          "type": "uint256"
        },
        {
          "internalType": "uint8",
          "name": "v",
          "type": "uint8"
        },
        {
          "internalType": "bytes32",
          "name": "r",
          "type": "bytes32"
        },
        {
          "internalType": "bytes32",
          "name": "s",
          "type": "bytes32"
        }
      ],
      "name": "permit",
      "outputs": [],
      "stateMutability": "nonpayable",
      "type": "function"
    },
    {
      "inputs": [
        {
          "internalType": "bytes32",
          "name": "role",
          "type": "bytes32"
        },
        {
          "internalType": "address",
          "name": "account",
          "type": "address"
        }
      ],
      "name": "renounceRole",
      "outputs": [],
      "stateMutability": "nonpayable",
      "type": "function"
    },
    {
      "inputs": [
        {
          "internalType": "bytes32",
          "name": "role",
          "type": "bytes32"
        },
        {
          "internalType": "address",
          "name": "account",
          "type": "address"
        }
      ],
      "name": "revokeRole",
      "outputs": [],
      "stateMutability": "nonpayable",
      "type": "function"
    },
    {
      "inputs": [
        {
          "internalType": "bytes4",
          "name": "interfaceId",
          "type": "bytes4"
        }
      ],
      "name": "supportsInterface",
      "outputs": [
        {
          "internalType": "bool",
          "name": "",
          "type": "bool"
        }
      ],
      "stateMutability": "view",
      "type": "function"
    },
    {
      "inputs": [],
      "name": "symbol",
      "outputs": [
        {
          "internalType": "string",
          "name": "",
          "type": "string"
        }
      ],
      "stateMutability": "view",
      "type": "function"
    },
    {
      "inputs": [],
      "name": "totalSupply",
      "outputs": [
        {
          "internalType": "uint256",
          "name": "",
          "type": "uint256"
        }
      ],
      "stateMutability": "view",
      "type": "function"
    },
    {
      "inputs": [
        {
          "internalType": "address",
          "name": "to",
          "type": "address"
        },
        {
          "internalType": "uint256",
          "name": "amount",
          "type": "uint256"
        }
      ],
      "name": "transfer",
      "outputs": [
        {
          "internalType": "bool",
          "name": "",
          "type": "bool"
        }
      ],
      "stateMutability": "nonpayable",
      "type": "function"
    },
    {
      "inputs": [
        {
          "internalType": "address",
          "name": "from",
          "type": "address"
        },
        {
          "internalType": "address",
          "name": "to",
          "type": "address"
        },
        {
          "internalType": "uint256",
          "name": "amount",
          "type": "uint256"
        }
      ],
      "name": "transferFrom",
      "outputs": [
        {
          "internalType": "bool",
          "name": "",
          "type": "bool"
        }
      ],
      "stateMutability": "nonpayable",
      "type": "function"
    },
    {
      "inputs": [],
      "name": "cap",
      "outputs": [
        {
          "internalType": "uint256",
          "name": "",
          "type": "uint256"
        }
      ],
      "stateMutability": "view",
      "type": "function"
    },
    {
      "inputs": [
        {
          "internalType": "uint256",
          "name": "_newCap",
          "type": "uint256"
        }
      ],
      "name": "setCap",
      "outputs": [],
      "stateMutability": "nonpayable",
      "type": "function"
    },
    {
      "inputs": [
        {
          "internalType": "uint256",
          "name": "_increaseCap",
          "type": "uint256"
        }
      ],
      "name": "increaseCap",
      "outputs": [],
      "stateMutability": "nonpayable",
      "type": "function"
    },
    {
      "inputs": [
        {
          "internalType": "uint256",
          "name": "_decreaseCap",
          "type": "uint256"
        }
      ],
      "name": "decreaseCap",
      "outputs": [],
      "stateMutability": "nonpayable",
      "type": "function"
    },
    {
      "inputs": [],
      "name": "pause",
      "outputs": [],
      "stateMutability": "nonpayable",
      "type": "function"
    },
    {
      "inputs": [],
      "name": "unpause",
      "outputs": [],
      "stateMutability": "nonpayable",
      "type": "function"
    },
    {
      "inputs": [
        {
          "internalType": "address",
          "name": "to",
          "type": "address"
        },
        {
          "internalType": "uint256",
          "name": "amount",
          "type": "uint256"
        }
      ],
      "name": "mint",
      "outputs": [],
      "stateMutability": "nonpayable",
      "type": "function"
    }
  ],
  "bytecode": "0x6101606040527f6e71edae12b1b97f4d1f60370fef10105fa2faae0126114a169c64845d6126c9610140523480156200003757600080fd5b5060405162002ed938038062002ed98339810160408190526200005a9162000420565b8280604051806040016040528060018152602001603160f81b8152508585816003908051906020019062000090929190620002ad565b508051620000a6906004906020840190620002ad565b50506005805460ff1916905550815160209283012081519183019190912060e08290526101008190524660a0818152604080517f8b73c3c69bb8fe3d512ecc4cf759cc79239f7b179b0ffacaa9a75d522b39400f818801819052818301969096526060810194909452608080850193909352308483018190528151808603909301835260c094850190915281519190950120905291909152610120525080620001955760405162461bcd60e51b815260206004820152601560248201527f45524332304361707065643a2063617020697320300000000000000000000000604482015260640160405180910390fd5b600b819055620001a760003362000208565b620001d37f65d7a28e3265b37a6474929f336521b332c1681b933f6cb9f3376673440d862a3362000208565b620001ff7f9f2df0fed2c77648de5860a4cc508cd0818c85b8b8a1ab4ceeef8d981c8956a63362000208565b505050620004d0565b60008281526006602090815260408083206001600160a01b038516845290915290205460ff16620002a95760008281526006602090815260408083206001600160a01b03851684529091529020805460ff19166001179055620002683390565b6001600160a01b0316816001600160a01b0316837f2f8788117e7eff1d82e926ec794901d17c78024a50270940304540a733656f0d60405160405180910390a45b5050565b828054620002bb9062000493565b90600052602060002090601f016020900481019282620002df57600085556200032a565b82601f10620002fa57805160ff19168380011785556200032a565b828001600101855582156200032a579182015b828111156200032a5782518255916020019190600101906200030d565b50620003389291506200033c565b5090565b5b808211156200033857600081556001016200033d565b634e487b7160e01b600052604160045260246000fd5b600082601f8301126200037b57600080fd5b81516001600160401b038082111562000398576200039862000353565b604051601f8301601f19908116603f01168101908282118183101715620003c357620003c362000353565b81604052838152602092508683858801011115620003e057600080fd5b600091505b83821015620004045785820183015181830184015290820190620003e5565b83821115620004165760008385830101525b9695505050505050565b6000806000606084860312156200043657600080fd5b83516001600160401b03808211156200044e57600080fd5b6200045c8783880162000369565b945060208601519150808211156200047357600080fd5b50620004828682870162000369565b925050604084015190509250925092565b600181811c90821680620004a857607f821691505b60208210811415620004ca57634e487b7160e01b600052602260045260246000fd5b50919050565b60805160a05160c05160e0516101005161012051610140516129ae6200052b6000396000610ead01526000611570015260006115bf0152600061159a015260006114f30152600061151d0152600061154701526129ae6000f3fe608060405234801561001057600080fd5b50600436106102535760003560e01c80635c975abb116101465780639ab24eb0116100c3578063d505accf11610087578063d505accf14610527578063d53913931461053a578063d547741f14610561578063dd62ed3e14610574578063e63ab1e9146105ad578063f1127ed8146105d457600080fd5b80639ab24eb0146104d3578063a217fddf146104e6578063a457c2d7146104ee578063a9059cbb14610501578063c3cda5201461051457600080fd5b80637ecebe001161010a5780637ecebe001461048a5780638456cb591461049d5780638e539e8c146104a557806391d14854146104b857806395d89b41146104cb57600080fd5b80635c975abb146104085780636fcfff451461041357806370a082311461043b5780637430a6891461046457806379cc67901461047757600080fd5b806336568abe116101d457806342966c681161019857806342966c681461037857806347786d371461038b578063523e95511461039e578063587cde1e146103b15780635c19a95c146103f557600080fd5b806336568abe1461032457806339509351146103375780633a46b1a81461034a5780633f4ba83a1461035d57806340c10f191461036557600080fd5b8063248a9ca31161021b578063248a9ca3146102cd5780632f2ff15d146102f0578063313ce56714610305578063355274ea146103145780633644e5151461031c57600080fd5b806301ffc9a71461025857806306fdde0314610280578063095ea7b31461029557806318160ddd146102a857806323b872dd146102ba575b600080fd5b61026b610266366004612547565b610611565b60405190151581526020015b60405180910390f35b610288610648565b604051610277919061259d565b61026b6102a33660046125ec565b6106da565b6002545b604051908152602001610277565b61026b6102c8366004612616565b6106f2565b6102ac6102db366004612652565b60009081526006602052604090206001015490565b6103036102fe36600461266b565b610716565b005b60405160128152602001610277565b600b546102ac565b6102ac610741565b61030361033236600461266b565b610750565b61026b6103453660046125ec565b6107d3565b6102ac6103583660046125ec565b610812565b61030361088c565b6103036103733660046125ec565b6108c2565b610303610386366004612652565b6108f7565b610303610399366004612652565b610901565b6103036103ac366004612652565b610996565b6103dd6103bf366004612697565b6001600160a01b039081166000908152600860205260409020541690565b6040516001600160a01b039091168152602001610277565b610303610403366004612697565b610a2a565b60055460ff1661026b565b610426610421366004612697565b610a34565b60405163ffffffff9091168152602001610277565b6102ac610449366004612697565b6001600160a01b031660009081526020819052604090205490565b610303610472366004612652565b610a56565b6103036104853660046125ec565b610b00565b6102ac610498366004612697565b610b15565b610303610b33565b6102ac6104b3366004612652565b610b66565b61026b6104c636600461266b565b610bc2565b610288610bed565b6102ac6104e1366004612697565b610bfc565b6102ac600081565b61026b6104fc3660046125ec565b610c83565b61026b61050f3660046125ec565b610d15565b6103036105223660046126c3565b610d23565b61030361053536600461271b565b610e59565b6102ac7f9f2df0fed2c77648de5860a4cc508cd0818c85b8b8a1ab4ceeef8d981c8956a681565b61030361056f36600461266b565b610fbd565b6102ac610582366004612785565b6001600160a01b03918216600090815260016020908152604080832093909416825291909152205490565b6102ac7f65d7a28e3265b37a6474929f336521b332c1681b933f6cb9f3376673440d862a81565b6105e76105e23660046127af565b610fe3565b60408051825163ffffffff1681526020928301516001600160e01b03169281019290925201610277565b60006001600160e01b03198216637965db0b60e01b148061064257506301ffc9a760e01b6001600160e01b03198316145b92915050565b606060038054610657906127ef565b80601f0160208091040260200160405190810160405280929190818152602001828054610683906127ef565b80156106d05780601f106106a5576101008083540402835291602001916106d0565b820191906000526020600020905b8154815290600101906020018083116106b357829003601f168201915b5050505050905090565b6000336106e8818585611067565b5060019392505050565b60003361070085828561118b565b61070b85858561121d565b506001949350505050565b60008281526006602052604090206001015461073281336113fc565b61073c8383611460565b505050565b600061074b6114e6565b905090565b6001600160a01b03811633146107c55760405162461bcd60e51b815260206004820152602f60248201527f416363657373436f6e74726f6c3a2063616e206f6e6c792072656e6f756e636560448201526e103937b632b9903337b91039b2b63360891b60648201526084015b60405180910390fd5b6107cf828261160d565b5050565b3360008181526001602090815260408083206001600160a01b03871684529091528120549091906106e8908290869061080d90879061283a565b611067565b60004382106108635760405162461bcd60e51b815260206004820152601f60248201527f4552433230566f7465733a20626c6f636b206e6f7420796574206d696e65640060448201526064016107bc565b6001600160a01b03831660009081526009602052604090206108859083611674565b9392505050565b7f65d7a28e3265b37a6474929f336521b332c1681b933f6cb9f3376673440d862a6108b781336113fc565b6108bf611731565b50565b7f9f2df0fed2c77648de5860a4cc508cd0818c85b8b8a1ab4ceeef8d981c8956a66108ed81336113fc565b61073c83836117c4565b6108bf3382611833565b600061090d81336113fc565b60025482116109905760405162461bcd60e51b815260206004820152604360248201527f4552433230437573746f6d3a204e6577206361702073657420746f206265206c60448201527f6f776572207468616e206f7220657175616c20746f20746f74616c20737570706064820152626c792160e81b608482015260a4016107bc565b50600b55565b60006109a281336113fc565b60008211610a115760405162461bcd60e51b815260206004820152603660248201527f4552433230437573746f6d3a20496e637265617365204361702076616c756520604482015275686173206e6f6e2d76616c696420302076616c75652160501b60648201526084016107bc565b610a23610a1d600b5490565b8361183d565b600b555050565b6108bf3382611849565b6001600160a01b038116600090815260096020526040812054610642906118c2565b6000610a6281336113fc565b600082118015610a855750610a81610a79600b5490565b60025461192b565b8211155b610aee5760405162461bcd60e51b815260206004820152603460248201527f4552433230437573746f6d3a204465637265617365204361702076616c756520604482015273686173206e6f6e2d76616c69642076616c75652160601b60648201526084016107bc565b610a23610afa600b5490565b8361192b565b610b0b82338361118b565b6107cf8282611833565b6001600160a01b038116600090815260076020526040812054610642565b7f65d7a28e3265b37a6474929f336521b332c1681b933f6cb9f3376673440d862a610b5e81336113fc565b6108bf611937565b6000438210610bb75760405162461bcd60e51b815260206004820152601f60248201527f4552433230566f7465733a20626c6f636b206e6f7420796574206d696e65640060448201526064016107bc565b610642600a83611674565b60009182526006602090815260408084206001600160a01b0393909316845291905290205460ff1690565b606060048054610657906127ef565b6001600160a01b0381166000908152600960205260408120548015610c70576001600160a01b0383166000908152600960205260409020610c3e600183612852565b81548110610c4e57610c4e612869565b60009182526020909120015464010000000090046001600160e01b0316610c73565b60005b6001600160e01b03169392505050565b3360008181526001602090815260408083206001600160a01b038716845290915281205490919083811015610d085760405162461bcd60e51b815260206004820152602560248201527f45524332303a2064656372656173656420616c6c6f77616e63652062656c6f77604482015264207a65726f60d81b60648201526084016107bc565b61070b8286868403611067565b6000336106e881858561121d565b83421115610d735760405162461bcd60e51b815260206004820152601d60248201527f4552433230566f7465733a207369676e6174757265206578706972656400000060448201526064016107bc565b604080517fe48329057bfd03d55e49b547132e39cffd9c1820ad7b9d4c5307691425d15adf60208201526001600160a01b038816918101919091526060810186905260808101859052600090610ded90610de59060a001604051602081830303815290604052805190602001206119b2565b858585611a00565b9050610df881611a28565b8614610e465760405162461bcd60e51b815260206004820152601960248201527f4552433230566f7465733a20696e76616c6964206e6f6e63650000000000000060448201526064016107bc565b610e508188611849565b50505050505050565b83421115610ea95760405162461bcd60e51b815260206004820152601d60248201527f45524332305065726d69743a206578706972656420646561646c696e6500000060448201526064016107bc565b60007f0000000000000000000000000000000000000000000000000000000000000000888888610ed88c611a28565b6040805160208101969096526001600160a01b0394851690860152929091166060840152608083015260a082015260c0810186905260e0016040516020818303038152906040528051906020012090506000610f33826119b2565b90506000610f4382878787611a00565b9050896001600160a01b0316816001600160a01b031614610fa65760405162461bcd60e51b815260206004820152601e60248201527f45524332305065726d69743a20696e76616c6964207369676e6174757265000060448201526064016107bc565b610fb18a8a8a611067565b50505050505050505050565b600082815260066020526040902060010154610fd981336113fc565b61073c838361160d565b60408051808201909152600080825260208201526001600160a01b0383166000908152600960205260409020805463ffffffff841690811061102757611027612869565b60009182526020918290206040805180820190915291015463ffffffff8116825264010000000090046001600160e01b0316918101919091529392505050565b6001600160a01b0383166110c95760405162461bcd60e51b8152602060048201526024808201527f45524332303a20617070726f76652066726f6d20746865207a65726f206164646044820152637265737360e01b60648201526084016107bc565b6001600160a01b03821661112a5760405162461bcd60e51b815260206004820152602260248201527f45524332303a20617070726f766520746f20746865207a65726f206164647265604482015261737360f01b60648201526084016107bc565b6001600160a01b0383811660008181526001602090815260408083209487168084529482529182902085905590518481527f8c5be1e5ebec7d5bd14f71427d1e84f3dd0314c0f7b2291e5b200ac8c7c3b925910160405180910390a3505050565b6001600160a01b038381166000908152600160209081526040808320938616835292905220546000198114611217578181101561120a5760405162461bcd60e51b815260206004820152601d60248201527f45524332303a20696e73756666696369656e7420616c6c6f77616e636500000060448201526064016107bc565b6112178484848403611067565b50505050565b6001600160a01b0383166112815760405162461bcd60e51b815260206004820152602560248201527f45524332303a207472616e736665722066726f6d20746865207a65726f206164604482015264647265737360d81b60648201526084016107bc565b6001600160a01b0382166112e35760405162461bcd60e51b815260206004820152602360248201527f45524332303a207472616e7366657220746f20746865207a65726f206164647260448201526265737360e81b60648201526084016107bc565b6112ee838383611a50565b6001600160a01b038316600090815260208190526040902054818110156113665760405162461bcd60e51b815260206004820152602660248201527f45524332303a207472616e7366657220616d6f756e7420657863656564732062604482015265616c616e636560d01b60648201526084016107bc565b6001600160a01b0380851660009081526020819052604080822085850390559185168152908120805484929061139d90849061283a565b92505081905550826001600160a01b0316846001600160a01b03167fddf252ad1be2c89b69c2b068fc378daa952ba7f163c4a11628f55a4df523b3ef846040516113e991815260200190565b60405180910390a3611217848484611a96565b6114068282610bc2565b6107cf5761141e816001600160a01b03166014611aa1565b611429836020611aa1565b60405160200161143a92919061287f565b60408051601f198184030181529082905262461bcd60e51b82526107bc9160040161259d565b61146a8282610bc2565b6107cf5760008281526006602090815260408083206001600160a01b03851684529091529020805460ff191660011790556114a23390565b6001600160a01b0316816001600160a01b0316837f2f8788117e7eff1d82e926ec794901d17c78024a50270940304540a733656f0d60405160405180910390a45050565b6000306001600160a01b037f00000000000000000000000000000000000000000000000000000000000000001614801561153f57507f000000000000000000000000000000000000000000000000000000000000000046145b1561156957507f000000000000000000000000000000000000000000000000000000000000000090565b50604080517f00000000000000000000000000000000000000000000000000000000000000006020808301919091527f0000000000000000000000000000000000000000000000000000000000000000828401527f000000000000000000000000000000000000000000000000000000000000000060608301524660808301523060a0808401919091528351808403909101815260c0909201909252805191012090565b6116178282610bc2565b156107cf5760008281526006602090815260408083206001600160a01b0385168085529252808320805460ff1916905551339285917ff6391f5c32d9c69d2a47ea670b442974b53935d1edc7fd64eb21e047a839171b9190a45050565b8154600090815b818110156116d857600061168f8284611c3d565b9050848682815481106116a4576116a4612869565b60009182526020909120015463ffffffff1611156116c4578092506116d2565b6116cf81600161283a565b91505b5061167b565b811561171c57846116ea600184612852565b815481106116fa576116fa612869565b60009182526020909120015464010000000090046001600160e01b031661171f565b60005b6001600160e01b031695945050505050565b60055460ff1661177a5760405162461bcd60e51b815260206004820152601460248201527314185d5cd8589b194e881b9bdd081c185d5cd95960621b60448201526064016107bc565b6005805460ff191690557f5db9ee0a495bf2e6ff9c91a7834c1ba4fdd244a5e8aa4e537bd38aeae4b073aa335b6040516001600160a01b03909116815260200160405180910390a1565b600b54816117d160025490565b6117db919061283a565b11156118295760405162461bcd60e51b815260206004820152601960248201527f45524332304361707065643a206361702065786365656465640000000000000060448201526064016107bc565b6107cf8282611c58565b6107cf8282611ce2565b6000610885828461283a565b6001600160a01b038281166000818152600860208181526040808420805485845282862054949093528787166001600160a01b03198416811790915590519190951694919391928592917f3134e8a2e6d97e929a7e54011ea5485d7d196dd5f0ba4d4ef95803e8e3fc257f9190a4611217828483611cfa565b600063ffffffff8211156119275760405162461bcd60e51b815260206004820152602660248201527f53616665436173743a2076616c756520646f65736e27742066697420696e203360448201526532206269747360d01b60648201526084016107bc565b5090565b60006108858284612852565b60055460ff161561197d5760405162461bcd60e51b815260206004820152601060248201526f14185d5cd8589b194e881c185d5cd95960821b60448201526064016107bc565b6005805460ff191660011790557f62e78cea01bee320cd4e420270b5ea74000d11b0c9f74754ebdbfc544b05a2586117a73390565b60006106426119bf6114e6565b8360405161190160f01b6020820152602281018390526042810182905260009060620160405160208183030381529060405280519060200120905092915050565b6000806000611a1187878787611e37565b91509150611a1e81611f24565b5095945050505050565b6001600160a01b03811660009081526007602052604090208054600181018255905b50919050565b60055460ff161561073c5760405162461bcd60e51b815260206004820152601060248201526f14185d5cd8589b194e881c185d5cd95960821b60448201526064016107bc565b61073c8383836120df565b60606000611ab08360026128f4565b611abb90600261283a565b67ffffffffffffffff811115611ad357611ad3612913565b6040519080825280601f01601f191660200182016040528015611afd576020820181803683370190505b509050600360fc1b81600081518110611b1857611b18612869565b60200101906001600160f81b031916908160001a905350600f60fb1b81600181518110611b4757611b47612869565b60200101906001600160f81b031916908160001a9053506000611b6b8460026128f4565b611b7690600161283a565b90505b6001811115611bee576f181899199a1a9b1b9c1cb0b131b232b360811b85600f1660108110611baa57611baa612869565b1a60f81b828281518110611bc057611bc0612869565b60200101906001600160f81b031916908160001a90535060049490941c93611be781612929565b9050611b79565b5083156108855760405162461bcd60e51b815260206004820181905260248201527f537472696e67733a20686578206c656e67746820696e73756666696369656e7460448201526064016107bc565b6000611c4c6002848418612940565b6108859084841661283a565b611c628282612111565b6002546001600160e01b031015611cd45760405162461bcd60e51b815260206004820152603060248201527f4552433230566f7465733a20746f74616c20737570706c79207269736b73206f60448201526f766572666c6f77696e6720766f74657360801b60648201526084016107bc565b611217600a61183d83612204565b611cec828261237d565b611217600a61192b83612204565b816001600160a01b0316836001600160a01b031614158015611d1c5750600081115b1561073c576001600160a01b03831615611daa576001600160a01b03831660009081526009602052604081208190611d579061192b85612204565b91509150846001600160a01b03167fdec2bacdd2f05b59de34da9b523dff8be42e5e38e818c82fdb0bae774387a7248383604051611d9f929190918252602082015260400190565b60405180910390a250505b6001600160a01b0382161561073c576001600160a01b03821660009081526009602052604081208190611de09061183d85612204565b91509150836001600160a01b03167fdec2bacdd2f05b59de34da9b523dff8be42e5e38e818c82fdb0bae774387a7248383604051611e28929190918252602082015260400190565b60405180910390a25050505050565b6000807f7fffffffffffffffffffffffffffffff5d576e7357a4501ddfe92f46681b20a0831115611e6e5750600090506003611f1b565b8460ff16601b14158015611e8657508460ff16601c14155b15611e975750600090506004611f1b565b6040805160008082526020820180845289905260ff881692820192909252606081018690526080810185905260019060a0016020604051602081039080840390855afa158015611eeb573d6000803e3d6000fd5b5050604051601f1901519150506001600160a01b038116611f1457600060019250925050611f1b565b9150600090505b94509492505050565b6000816004811115611f3857611f38612962565b1415611f415750565b6001816004811115611f5557611f55612962565b1415611fa35760405162461bcd60e51b815260206004820152601860248201527f45434453413a20696e76616c6964207369676e6174757265000000000000000060448201526064016107bc565b6002816004811115611fb757611fb7612962565b14156120055760405162461bcd60e51b815260206004820152601f60248201527f45434453413a20696e76616c6964207369676e6174757265206c656e6774680060448201526064016107bc565b600381600481111561201957612019612962565b14156120725760405162461bcd60e51b815260206004820152602260248201527f45434453413a20696e76616c6964207369676e6174757265202773272076616c604482015261756560f01b60648201526084016107bc565b600481600481111561208657612086612962565b14156108bf5760405162461bcd60e51b815260206004820152602260248201527f45434453413a20696e76616c6964207369676e6174757265202776272076616c604482015261756560f01b60648201526084016107bc565b6001600160a01b0383811660009081526008602052604080822054858416835291205461073c92918216911683611cfa565b6001600160a01b0382166121675760405162461bcd60e51b815260206004820152601f60248201527f45524332303a206d696e7420746f20746865207a65726f20616464726573730060448201526064016107bc565b61217360008383611a50565b8060026000828254612185919061283a565b90915550506001600160a01b038216600090815260208190526040812080548392906121b290849061283a565b90915550506040518181526001600160a01b038316906000907fddf252ad1be2c89b69c2b068fc378daa952ba7f163c4a11628f55a4df523b3ef9060200160405180910390a36107cf60008383611a96565b82546000908190801561224f578561221d600183612852565b8154811061222d5761222d612869565b60009182526020909120015464010000000090046001600160e01b0316612252565b60005b6001600160e01b0316925061226b83858763ffffffff16565b91506000811180156122a957504386612285600184612852565b8154811061229557612295612869565b60009182526020909120015463ffffffff16145b15612309576122b7826124de565b866122c3600184612852565b815481106122d3576122d3612869565b9060005260206000200160000160046101000a8154816001600160e01b0302191690836001600160e01b03160217905550612374565b85604051806040016040528061231e436118c2565b63ffffffff168152602001612332856124de565b6001600160e01b0390811690915282546001810184556000938452602093849020835194909301519091166401000000000263ffffffff909316929092179101555b50935093915050565b6001600160a01b0382166123dd5760405162461bcd60e51b815260206004820152602160248201527f45524332303a206275726e2066726f6d20746865207a65726f206164647265736044820152607360f81b60648201526084016107bc565b6123e982600083611a50565b6001600160a01b0382166000908152602081905260409020548181101561245d5760405162461bcd60e51b815260206004820152602260248201527f45524332303a206275726e20616d6f756e7420657863656564732062616c616e604482015261636560f01b60648201526084016107bc565b6001600160a01b038316600090815260208190526040812083830390556002805484929061248c908490612852565b90915550506040518281526000906001600160a01b038516907fddf252ad1be2c89b69c2b068fc378daa952ba7f163c4a11628f55a4df523b3ef9060200160405180910390a361073c83600084611a96565b60006001600160e01b038211156119275760405162461bcd60e51b815260206004820152602760248201527f53616665436173743a2076616c756520646f65736e27742066697420696e20326044820152663234206269747360c81b60648201526084016107bc565b60006020828403121561255957600080fd5b81356001600160e01b03198116811461088557600080fd5b60005b8381101561258c578181015183820152602001612574565b838111156112175750506000910152565b60208152600082518060208401526125bc816040850160208701612571565b601f01601f19169190910160400192915050565b80356001600160a01b03811681146125e757600080fd5b919050565b600080604083850312156125ff57600080fd5b612608836125d0565b946020939093013593505050565b60008060006060848603121561262b57600080fd5b612634846125d0565b9250612642602085016125d0565b9150604084013590509250925092565b60006020828403121561266457600080fd5b5035919050565b6000806040838503121561267e57600080fd5b8235915061268e602084016125d0565b90509250929050565b6000602082840312156126a957600080fd5b610885826125d0565b803560ff811681146125e757600080fd5b60008060008060008060c087890312156126dc57600080fd5b6126e5876125d0565b95506020870135945060408701359350612701606088016126b2565b92506080870135915060a087013590509295509295509295565b600080600080600080600060e0888a03121561273657600080fd5b61273f886125d0565b965061274d602089016125d0565b95506040880135945060608801359350612769608089016126b2565b925060a0880135915060c0880135905092959891949750929550565b6000806040838503121561279857600080fd5b6127a1836125d0565b915061268e602084016125d0565b600080604083850312156127c257600080fd5b6127cb836125d0565b9150602083013563ffffffff811681146127e457600080fd5b809150509250929050565b600181811c9082168061280357607f821691505b60208210811415611a4a57634e487b7160e01b600052602260045260246000fd5b634e487b7160e01b600052601160045260246000fd5b6000821982111561284d5761284d612824565b500190565b60008282101561286457612864612824565b500390565b634e487b7160e01b600052603260045260246000fd5b7f416363657373436f6e74726f6c3a206163636f756e74200000000000000000008152600083516128b7816017850160208801612571565b7001034b99036b4b9b9b4b733903937b6329607d1b60179184019182015283516128e8816028840160208801612571565b01602801949350505050565b600081600019048311821515161561290e5761290e612824565b500290565b634e487b7160e01b600052604160045260246000fd5b60008161293857612938612824565b506000190190565b60008261295d57634e487b7160e01b600052601260045260246000fd5b500490565b634e487b7160e01b600052602160045260246000fdfea26469706673582212209b27fa493b5d7e96035731a5c45b84f643705d5cc74937f63f799fa8ea81f92664736f6c634300080b0033",
  "immutableReferences": {
    "3618": [
      {
        "length": 32,
        "start": 3757
      }
    ],
    "6080": [
      {
        "length": 32,
        "start": 5447
      }
    ],
    "6082": [
      {
        "length": 32,
        "start": 5405
      }
    ],
    "6084": [
      {
        "length": 32,
        "start": 5363
      }
    ],
    "6086": [
      {
        "length": 32,
        "start": 5530
      }
    ],
    "6088": [
      {
        "length": 32,
        "start": 5567
      }
    ],
    "6090": [
      {
        "length": 32,
        "start": 5488
      }
    ]
  },
  "source": "// SPDX-License-Identifier: AGPL-3.0\r\n\r\npragma solidity ^0.8.11;\r\n\r\nimport \"@openzeppelin/contracts/token/ERC20/ERC20.sol\";\r\nimport \"@openzeppelin/contracts/token/ERC20/extensions/ERC20Burnable.sol\";\r\nimport \"@openzeppelin/contracts/security/Pausable.sol\";\r\nimport \"@openzeppelin/contracts/access/AccessControl.sol\";\r\nimport \"@openzeppelin/contracts/token/ERC20/extensions/draft-ERC20Permit.sol\";\r\nimport \"@openzeppelin/contracts/token/ERC20/extensions/ERC20Votes.sol\";\r\nimport \"@openzeppelin/contracts/utils/math/SafeMath.sol\";\r\n\r\ncontract ERC20Custom is\r\n    ERC20,\r\n    ERC20Burnable,\r\n    Pausable,\r\n    AccessControl,\r\n    ERC20Permit,\r\n    ERC20Votes\r\n{\r\n    using SafeMath for uint256;\r\n\r\n    bytes32 public constant PAUSER_ROLE = keccak256(\"PAUSER_ROLE\");\r\n    bytes32 public constant MINTER_ROLE = keccak256(\"MINTER_ROLE\");\r\n    uint256 private _cap;\r\n\r\n    constructor(\r\n        string memory _name,\r\n        string memory _symbol,\r\n        uint256 _capSupply\r\n    ) ERC20(_name, _symbol) ERC20Permit(_name) {\r\n        require(_capSupply > 0, \"ERC20Capped: cap is 0\");\r\n        _cap = _capSupply;\r\n\r\n        _grantRole(DEFAULT_ADMIN_ROLE, msg.sender);\r\n        _grantRole(PAUSER_ROLE, msg.sender);\r\n        _grantRole(MINTER_ROLE, msg.sender);\r\n    }\r\n\r\n    /**\r\n     * @dev Returns the cap on the token's total supply.\r\n     */\r\n    function cap() public view virtual returns (uint256) {\r\n        return _cap;\r\n    }\r\n\r\n    /**\r\n     * @dev Set new cap supply\r\n     */\r\n    function setCap(uint256 _newCap) public onlyRole(DEFAULT_ADMIN_ROLE) {\r\n        require(\r\n            _newCap > totalSupply(),\r\n            \"ERC20Custom: New cap set to be lower than or equal to total supply!\"\r\n        );\r\n        _cap = _newCap;\r\n    }\r\n\r\n    /**\r\n     * @dev Increase the cap supply\r\n     */\r\n    function increaseCap(uint256 _increaseCap)\r\n        public\r\n        onlyRole(DEFAULT_ADMIN_ROLE)\r\n    {\r\n        require(\r\n            _increaseCap > 0,\r\n            \"ERC20Custom: Increase Cap value has non-valid 0 value!\"\r\n        );\r\n        _cap = SafeMath.add(cap(), _increaseCap);\r\n    }\r\n\r\n    /**\r\n     * @dev Decrease the cap supply\r\n     */\r\n    function decreaseCap(uint256 _decreaseCap)\r\n        public\r\n        onlyRole(DEFAULT_ADMIN_ROLE)\r\n    {\r\n        require(\r\n            (_decreaseCap > 0) &&\r\n                (_decreaseCap <= SafeMath.sub(cap(), totalSupply())),\r\n            \"ERC20Custom: Decrease Cap value has non-valid value!\"\r\n        );\r\n        _cap = SafeMath.sub(cap(), _decreaseCap);\r\n    }\r\n\r\n    function pause() public onlyRole(PAUSER_ROLE) {\r\n        _pause();\r\n    }\r\n\r\n    function unpause() public onlyRole(PAUSER_ROLE) {\r\n        _unpause();\r\n    }\r\n\r\n    function mint(address to, uint256 amount) public onlyRole(MINTER_ROLE) {\r\n        _mint(to, amount);\r\n    }\r\n\r\n    function _beforeTokenTransfer(\r\n        address from,\r\n        address to,\r\n        uint256 amount\r\n    ) internal override whenNotPaused {\r\n        super._beforeTokenTransfer(from, to, amount);\r\n    }\r\n\r\n    // The following functions are overrides required by Solidity.\r\n\r\n    function _afterTokenTransfer(\r\n        address from,\r\n        address to,\r\n        uint256 amount\r\n    ) internal override(ERC20, ERC20Votes) {\r\n        super._afterTokenTransfer(from, to, amount);\r\n    }\r\n\r\n    function _mint(address to, uint256 amount)\r\n        internal\r\n        override(ERC20, ERC20Votes)\r\n    {\r\n        require(\r\n            ERC20.totalSupply() + amount <= cap(),\r\n            \"ERC20Capped: cap exceeded\"\r\n        );\r\n        super._mint(to, amount);\r\n    }\r\n\r\n    function _burn(address account, uint256 amount)\r\n        internal\r\n        override(ERC20, ERC20Votes)\r\n    {\r\n        super._burn(account, amount);\r\n    }\r\n}\r\n",
  "sourcePath": "C:\\Users\\user\\Desktop\\alpsfinance-smart-contracts\\contracts\\token\\ERC20Custom.sol",
  "compiler": {
    "name": "solc",
    "version": "0.8.11+commit.d7f03943.Emscripten.clang"
  },
  "schemaVersion": "3.4.5",
  "updatedAt": "2022-04-02T13:44:00.151Z",
  "devdoc": {
    "kind": "dev",
    "methods": {
      "DOMAIN_SEPARATOR()": {
        "details": "See {IERC20Permit-DOMAIN_SEPARATOR}."
      },
      "allowance(address,address)": {
        "details": "See {IERC20-allowance}."
      },
      "approve(address,uint256)": {
        "details": "See {IERC20-approve}. NOTE: If `amount` is the maximum `uint256`, the allowance is not updated on `transferFrom`. This is semantically equivalent to an infinite approval. Requirements: - `spender` cannot be the zero address."
      },
      "balanceOf(address)": {
        "details": "See {IERC20-balanceOf}."
      },
      "burn(uint256)": {
        "details": "Destroys `amount` tokens from the caller. See {ERC20-_burn}."
      },
      "burnFrom(address,uint256)": {
        "details": "Destroys `amount` tokens from `account`, deducting from the caller's allowance. See {ERC20-_burn} and {ERC20-allowance}. Requirements: - the caller must have allowance for ``accounts``'s tokens of at least `amount`."
      },
      "cap()": {
        "details": "Returns the cap on the token's total supply."
      },
      "checkpoints(address,uint32)": {
        "details": "Get the `pos`-th checkpoint for `account`."
      },
      "decimals()": {
        "details": "Returns the number of decimals used to get its user representation. For example, if `decimals` equals `2`, a balance of `505` tokens should be displayed to a user as `5.05` (`505 / 10 ** 2`). Tokens usually opt for a value of 18, imitating the relationship between Ether and Wei. This is the value {ERC20} uses, unless this function is overridden; NOTE: This information is only used for _display_ purposes: it in no way affects any of the arithmetic of the contract, including {IERC20-balanceOf} and {IERC20-transfer}."
      },
      "decreaseAllowance(address,uint256)": {
        "details": "Atomically decreases the allowance granted to `spender` by the caller. This is an alternative to {approve} that can be used as a mitigation for problems described in {IERC20-approve}. Emits an {Approval} event indicating the updated allowance. Requirements: - `spender` cannot be the zero address. - `spender` must have allowance for the caller of at least `subtractedValue`."
      },
      "decreaseCap(uint256)": {
        "details": "Decrease the cap supply"
      },
      "delegate(address)": {
        "details": "Delegate votes from the sender to `delegatee`."
      },
      "delegateBySig(address,uint256,uint256,uint8,bytes32,bytes32)": {
        "details": "Delegates votes from signer to `delegatee`"
      },
      "delegates(address)": {
        "details": "Get the address `account` is currently delegating to."
      },
      "getPastTotalSupply(uint256)": {
        "details": "Retrieve the `totalSupply` at the end of `blockNumber`. Note, this value is the sum of all balances. It is but NOT the sum of all the delegated votes! Requirements: - `blockNumber` must have been already mined"
      },
      "getPastVotes(address,uint256)": {
        "details": "Retrieve the number of votes for `account` at the end of `blockNumber`. Requirements: - `blockNumber` must have been already mined"
      },
      "getRoleAdmin(bytes32)": {
        "details": "Returns the admin role that controls `role`. See {grantRole} and {revokeRole}. To change a role's admin, use {_setRoleAdmin}."
      },
      "getVotes(address)": {
        "details": "Gets the current votes balance for `account`"
      },
      "grantRole(bytes32,address)": {
        "details": "Grants `role` to `account`. If `account` had not been already granted `role`, emits a {RoleGranted} event. Requirements: - the caller must have ``role``'s admin role."
      },
      "hasRole(bytes32,address)": {
        "details": "Returns `true` if `account` has been granted `role`."
      },
      "increaseAllowance(address,uint256)": {
        "details": "Atomically increases the allowance granted to `spender` by the caller. This is an alternative to {approve} that can be used as a mitigation for problems described in {IERC20-approve}. Emits an {Approval} event indicating the updated allowance. Requirements: - `spender` cannot be the zero address."
      },
      "increaseCap(uint256)": {
        "details": "Increase the cap supply"
      },
      "name()": {
        "details": "Returns the name of the token."
      },
      "nonces(address)": {
        "details": "See {IERC20Permit-nonces}."
      },
      "numCheckpoints(address)": {
        "details": "Get number of checkpoints for `account`."
      },
      "paused()": {
        "details": "Returns true if the contract is paused, and false otherwise."
      },
      "permit(address,address,uint256,uint256,uint8,bytes32,bytes32)": {
        "details": "See {IERC20Permit-permit}."
      },
      "renounceRole(bytes32,address)": {
        "details": "Revokes `role` from the calling account. Roles are often managed via {grantRole} and {revokeRole}: this function's purpose is to provide a mechanism for accounts to lose their privileges if they are compromised (such as when a trusted device is misplaced). If the calling account had been revoked `role`, emits a {RoleRevoked} event. Requirements: - the caller must be `account`."
      },
      "revokeRole(bytes32,address)": {
        "details": "Revokes `role` from `account`. If `account` had been granted `role`, emits a {RoleRevoked} event. Requirements: - the caller must have ``role``'s admin role."
      },
      "setCap(uint256)": {
        "details": "Set new cap supply"
      },
      "supportsInterface(bytes4)": {
        "details": "See {IERC165-supportsInterface}."
      },
      "symbol()": {
        "details": "Returns the symbol of the token, usually a shorter version of the name."
      },
      "totalSupply()": {
        "details": "See {IERC20-totalSupply}."
      },
      "transfer(address,uint256)": {
        "details": "See {IERC20-transfer}. Requirements: - `to` cannot be the zero address. - the caller must have a balance of at least `amount`."
      },
      "transferFrom(address,address,uint256)": {
        "details": "See {IERC20-transferFrom}. Emits an {Approval} event indicating the updated allowance. This is not required by the EIP. See the note at the beginning of {ERC20}. NOTE: Does not update the allowance if the current allowance is the maximum `uint256`. Requirements: - `from` and `to` cannot be the zero address. - `from` must have a balance of at least `amount`. - the caller must have allowance for ``from``'s tokens of at least `amount`."
      }
    },
    "version": 1
  },
  "userdoc": {
    "kind": "user",
    "methods": {},
    "version": 1
  }
}