{
  "contractName": "FundFactory",
  "abi": [
    {
      "inputs": [],
      "stateMutability": "nonpayable",
      "type": "constructor"
    },
    {
      "inputs": [
        {
          "internalType": "address",
          "name": "",
          "type": "address"
        }
      ],
      "name": "daoInvestmentFundRegistry",
      "outputs": [
        {
          "internalType": "address",
          "name": "",
          "type": "address"
        }
      ],
      "stateMutability": "view",
      "type": "function"
    },
    {
      "inputs": [
        {
          "internalType": "address",
          "name": "",
          "type": "address"
        }
      ],
      "name": "individualInvestmentFundRegistry",
      "outputs": [
        {
          "internalType": "address",
          "name": "",
          "type": "address"
        }
      ],
      "stateMutability": "view",
      "type": "function"
    },
    {
      "inputs": [
        {
          "internalType": "enum FundFactory.InvestmentFundType",
          "name": "investmentFund",
          "type": "uint8"
        }
      ],
      "name": "createNewFund",
      "outputs": [],
      "stateMutability": "nonpayable",
      "type": "function"
    },
    {
      "inputs": [
        {
          "internalType": "enum FundFactory.InvestmentFundType",
          "name": "investmentFund",
          "type": "uint8"
        },
        {
          "internalType": "address",
          "name": "accountAddress",
          "type": "address"
        }
      ],
      "name": "burnExistingFund",
      "outputs": [],
      "stateMutability": "nonpayable",
      "type": "function"
    }
  ],
  "bytecode": "0x608060405234801561001057600080fd5b50600054610100900460ff1661002c5760005460ff1615610034565b6100346100d5565b61009b5760405162461bcd60e51b815260206004820152602e60248201527f496e697469616c697a61626c653a20636f6e747261637420697320616c72656160448201526d191e481a5b9a5d1a585b1a5e995960921b606482015260840160405180910390fd5b600054610100900460ff161580156100bd576000805461ffff19166101011790555b80156100cf576000805461ff00191690555b506100ff565b60006100ea306100f060201b6102e91760201c565b15905090565b6001600160a01b03163b151590565b61126a8061010e6000396000f3fe608060405234801561001057600080fd5b506004361061004c5760003560e01c80638564c5f6146100515780638c372db1146100965780639b1332d7146100bf578063cabed6c9146100d4575b600080fd5b61007a61005f3660046103a2565b6002602052600090815260409020546001600160a01b031681565b6040516001600160a01b03909116815260200160405180910390f35b61007a6100a43660046103a2565b6001602052600090815260409020546001600160a01b031681565b6100d26100cd3660046103d3565b6100e7565b005b6100d26100e23660046103ee565b6101e4565b60008160018111156100fb576100fb610421565b141561015d57600060405161010f90610379565b604051809103906000f08015801561012b573d6000803e3d6000fd5b5033600090815260016020526040902080546001600160a01b0319166001600160a01b03929092169190911790555050565b600181600181111561017157610171610421565b14156101975733600090815260026020526040902080546001600160a01b031916905550565b60405162461bcd60e51b815260206004820152601c60248201527f4e6f7420612076616c6964206163636f756e74496420676976656e210000000060448201526064015b60405180910390fd5b8181806001600160a01b03166101fa83336102f8565b6001600160a01b03161461026f5760405162461bcd60e51b815260206004820152603660248201527f596f7520617265206e6f7420746865206163636f756e74206f776e6572206f666044820152752074686973206163636f756e7420616464726573732160501b60648201526084016101db565b600084600181111561028357610283610421565b14156102ab5733600090815260016020526040902080546001600160a01b03191690556102e3565b60018460018111156102bf576102bf610421565b14156102e35733600090815260026020526040902080546001600160a01b03191690555b50505050565b6001600160a01b03163b151590565b60008083600181111561030d5761030d610421565b141561033457506001600160a01b0380821660009081526001602052604090205416610373565b600183600181111561034857610348610421565b141561036f57506001600160a01b0380821660009081526002602052604090205416610373565b5060005b92915050565b610dfd8061043883390190565b80356001600160a01b038116811461039d57600080fd5b919050565b6000602082840312156103b457600080fd5b6103bd82610386565b9392505050565b80356002811061039d57600080fd5b6000602082840312156103e557600080fd5b6103bd826103c4565b6000806040838503121561040157600080fd5b61040a836103c4565b915061041860208401610386565b90509250929050565b634e487b7160e01b600052602160045260246000fdfe608060405234801561001057600080fd5b50610ddd806100206000396000f3fe60806040526004361061007f5760003560e01c806391d148541161004e57806391d1485414610140578063a217fddf14610160578063a516a5bf14610175578063d547741f1461018857600080fd5b806301ffc9a71461008b578063248a9ca3146100c05780632f2ff15d146100fe57806336568abe1461012057600080fd5b3661008657005b600080fd5b34801561009757600080fd5b506100ab6100a63660046107c6565b6101a8565b60405190151581526020015b60405180910390f35b3480156100cc57600080fd5b506100f06100db3660046107f0565b60009081526020819052604090206001015490565b6040519081526020016100b7565b34801561010a57600080fd5b5061011e610119366004610825565b6101df565b005b34801561012c57600080fd5b5061011e61013b366004610825565b61020a565b34801561014c57600080fd5b506100ab61015b366004610825565b61028d565b34801561016c57600080fd5b506100f0600081565b6100ab610183366004610a0b565b6102b6565b34801561019457600080fd5b5061011e6101a3366004610825565b610381565b60006001600160e01b03198216637965db0b60e01b14806101d957506301ffc9a760e01b6001600160e01b03198316145b92915050565b6000828152602081905260409020600101546101fb81336103a7565b610205838361040b565b505050565b6001600160a01b038116331461027f5760405162461bcd60e51b815260206004820152602f60248201527f416363657373436f6e74726f6c3a2063616e206f6e6c792072656e6f756e636560448201526e103937b632b9903337b91039b2b63360891b60648201526084015b60405180910390fd5b610289828261048f565b5050565b6000918252602082815260408084206001600160a01b0393909316845291905290205460ff1690565b6000825184511480156102ca575081518451145b6103305760405162461bcd60e51b815260206004820152603160248201527f496e646976696475616c496e766573746d656e7446756e643a2070726f706f73604482015270185b081b9bdd081cdd58d8d95cdcd99d5b607a1b6064820152608401610276565b61033b8484846104f4565b7f5a68aca1ebdfea9d71dfa10bfe3071e67281ed3496ae43926673c2740df3bfcf84848460405161036e93929190610ba0565b60405180910390a15060015b9392505050565b60008281526020819052604090206001015461039d81336103a7565b610205838361048f565b6103b1828261028d565b610289576103c9816001600160a01b031660146105f1565b6103d48360206105f1565b6040516020016103e5929190610c37565b60408051601f198184030181529082905262461bcd60e51b825261027691600401610cac565b610415828261028d565b610289576000828152602081815260408083206001600160a01b03851684529091529020805460ff1916600117905561044b3390565b6001600160a01b0316816001600160a01b0316837f2f8788117e7eff1d82e926ec794901d17c78024a50270940304540a733656f0d60405160405180910390a45050565b610499828261028d565b15610289576000828152602081815260408083206001600160a01b0385168085529252808320805460ff1916905551339285917ff6391f5c32d9c69d2a47ea670b442974b53935d1edc7fd64eb21e047a839171b9190a45050565b6000604051806060016040528060378152602001610d7160379139905060005b84518110156105ea5760008086838151811061053257610532610cbf565b60200260200101516001600160a01b031686848151811061055557610555610cbf565b602002602001015186858151811061056f5761056f610cbf565b60200260200101516040516105849190610cd5565b60006040518083038185875af1925050503d80600081146105c1576040519150601f19603f3d011682016040523d82523d6000602084013e6105c6565b606091505b50915091506105d682828661078d565b505050806105e390610d07565b9050610514565b5050505050565b60606000610600836002610d22565b61060b906002610d41565b67ffffffffffffffff81111561062357610623610851565b6040519080825280601f01601f19166020018201604052801561064d576020820181803683370190505b509050600360fc1b8160008151811061066857610668610cbf565b60200101906001600160f81b031916908160001a905350600f60fb1b8160018151811061069757610697610cbf565b60200101906001600160f81b031916908160001a90535060006106bb846002610d22565b6106c6906001610d41565b90505b600181111561073e576f181899199a1a9b1b9c1cb0b131b232b360811b85600f16601081106106fa576106fa610cbf565b1a60f81b82828151811061071057610710610cbf565b60200101906001600160f81b031916908160001a90535060049490941c9361073781610d59565b90506106c9565b50831561037a5760405162461bcd60e51b815260206004820181905260248201527f537472696e67733a20686578206c656e67746820696e73756666696369656e746044820152606401610276565b6060831561079c57508161037a565b8251156107ac5782518084602001fd5b8160405162461bcd60e51b81526004016102769190610cac565b6000602082840312156107d857600080fd5b81356001600160e01b03198116811461037a57600080fd5b60006020828403121561080257600080fd5b5035919050565b80356001600160a01b038116811461082057600080fd5b919050565b6000806040838503121561083857600080fd5b8235915061084860208401610809565b90509250929050565b634e487b7160e01b600052604160045260246000fd5b604051601f8201601f1916810167ffffffffffffffff8111828210171561089057610890610851565b604052919050565b600067ffffffffffffffff8211156108b2576108b2610851565b5060051b60200190565b600082601f8301126108cd57600080fd5b813560206108e26108dd83610898565b610867565b82815260059290921b8401810191818101908684111561090157600080fd5b8286015b8481101561091c5780358352918301918301610905565b509695505050505050565b6000601f838184011261093957600080fd5b823560206109496108dd83610898565b82815260059290921b8501810191818101908784111561096857600080fd5b8287015b848110156109ff57803567ffffffffffffffff8082111561098d5760008081fd5b818a0191508a603f8301126109a25760008081fd5b858201356040828211156109b8576109b8610851565b6109c9828b01601f19168901610867565b92508183528c818386010111156109e05760008081fd5b818185018985013750600090820187015284525091830191830161096c565b50979650505050505050565b600080600060608486031215610a2057600080fd5b833567ffffffffffffffff80821115610a3857600080fd5b818601915086601f830112610a4c57600080fd5b81356020610a5c6108dd83610898565b82815260059290921b8401810191818101908a841115610a7b57600080fd5b948201945b83861015610aa057610a9186610809565b82529482019490820190610a80565b97505087013592505080821115610ab657600080fd5b610ac2878388016108bc565b93506040860135915080821115610ad857600080fd5b50610ae586828701610927565b9150509250925092565b60005b83811015610b0a578181015183820152602001610af2565b83811115610b19576000848401525b50505050565b60008151808452610b37816020860160208601610aef565b601f01601f19169290920160200192915050565b600081518084526020808501808196508360051b8101915082860160005b85811015610b93578284038952610b81848351610b1f565b98850198935090840190600101610b69565b5091979650505050505050565b606080825284519082018190526000906020906080840190828801845b82811015610be25781516001600160a01b031684529284019290840190600101610bbd565b5050508381038285015285518082528683019183019060005b81811015610c1757835183529284019291840191600101610bfb565b50508481036040860152610c2b8187610b4b565b98975050505050505050565b7f416363657373436f6e74726f6c3a206163636f756e7420000000000000000000815260008351610c6f816017850160208801610aef565b7001034b99036b4b9b9b4b733903937b6329607d1b6017918401918201528351610ca0816028840160208801610aef565b01602801949350505050565b60208152600061037a6020830184610b1f565b634e487b7160e01b600052603260045260246000fd5b60008251610ce7818460208701610aef565b9190910192915050565b634e487b7160e01b600052601160045260246000fd5b6000600019821415610d1b57610d1b610cf1565b5060010190565b6000816000190483118215151615610d3c57610d3c610cf1565b500290565b60008219821115610d5457610d54610cf1565b500190565b600081610d6857610d68610cf1565b50600019019056fe496e646976696475616c496e766573746d656e7446756e643a2063616c6c20726576657274656420776974686f7574206d657373616765a2646970667358221220a456df95343baa9836beac1a11f743ae476b29ef0161c596fa76f2701d31390264736f6c634300080b0033a264697066735822122066eb3119ebbd0b1106e9acdc6ba21ab93009c3dd3d946be450ac9f9eccab252a64736f6c634300080b0033",
  "immutableReferences": {},
  "source": "// SPDX-License-Identifier: AGPL-3.0\n\npragma solidity ^0.8.11;\n\nimport \"@openzeppelin/contracts/proxy/utils/Initializable.sol\";\nimport \"./IndividualInvestmentFund.sol\";\nimport \"./DAOInvestmentFund.sol\";\n\n/**\n * @notice THIS IS THE `FundFactory` contract\n *\n * @dev Description:\n *\n * This contract will function as a manager + factory for the investment fund contracts.\n * Some of the main functionality for the `FundFactory` contract will be to:\n * - Create a new user fund\n * - \"Burning\" exsiting user's fund\n * - Managing access control to protect user's account\n *\n * Currently there are two types of funds:\n * - Individual Investment Fund\n * - DAO Investment Fund\n */\ncontract FundFactory is Initializable {\n    enum InvestmentFundType {\n        INDIVIDUAL,\n        DAO\n    }\n\n    /**\n     * Fund REGISTRIES\n     *\n     * The registry variables is used to store users account information in mapping type\n     * - first address is for user address, e.g. msg.sender\n     * - second address is for fund's address (type: individual or DAO investment fund)\n     */\n    mapping(address => address) public individualInvestmentFundRegistry;\n    mapping(address => address) public daoInvestmentFundRegistry;\n\n    /**\n     * @dev Check whether `msg.sender` is the fund owner of `accountAddress`\n     */\n    modifier onlyFundOwner(\n        InvestmentFundType investmentFund,\n        address accountAddress\n    ) {\n        require(\n            getAccountAddressById(investmentFund, msg.sender) == accountAddress,\n            \"You are not the account owner of this account address!\"\n        );\n        _;\n    }\n\n    /// @custom:oz-upgrades-unsafe-allow constructor\n    constructor() initializer {}\n\n    /**\n     * @dev Get Account address by `accountId`\n     */\n    function getAccountAddressById(\n        InvestmentFundType investmentFund,\n        address account\n    ) internal view returns (address) {\n        if (investmentFund == InvestmentFundType.INDIVIDUAL) {\n            return individualInvestmentFundRegistry[account];\n        } else if (investmentFund == InvestmentFundType.DAO) {\n            return daoInvestmentFundRegistry[account];\n        } else {\n            return address(0);\n        }\n    }\n\n    /**\n     * @dev Create new user account with type based on `accountId`\n     */\n    function createNewFund(InvestmentFundType investmentFund) external {\n        /// @notice need to change to `MinimalClone` for gas efficiency\n        if (investmentFund == InvestmentFundType.INDIVIDUAL) {\n            IndividualInvestmentFund newIndividualInvestmentFund = new IndividualInvestmentFund();\n            individualInvestmentFundRegistry[msg.sender] = address(\n                newIndividualInvestmentFund\n            );\n        } else if (investmentFund == InvestmentFundType.DAO) {\n            // DAOInvestmentFundBase newDAOInvestmentFund = new DAOInvestmentFundBase();\n            daoInvestmentFundRegistry[msg.sender] = address(0);\n        } else {\n            revert(\"Not a valid accountId given!\");\n        }\n    }\n\n    /**\n     * @dev \"Burn\" an existing user account of `accountAddress`\n     */\n    function burnExistingFund(\n        InvestmentFundType investmentFund,\n        address accountAddress\n    ) public onlyFundOwner(investmentFund, accountAddress) {\n        if (investmentFund == InvestmentFundType.INDIVIDUAL) {\n            individualInvestmentFundRegistry[msg.sender] = address(0);\n        } else if (investmentFund == InvestmentFundType.DAO) {\n            daoInvestmentFundRegistry[msg.sender] = address(0);\n        } else {}\n    }\n}\n",
  "sourcePath": "/Users/yosephks/Documents/GitHub/alpsfinance-smart-contracts/contracts/funds/FundFactory.sol",
  "compiler": {
    "name": "solc",
    "version": "0.8.11+commit.d7f03943.Emscripten.clang"
  },
  "schemaVersion": "3.4.6",
  "updatedAt": "2022-04-07T15:30:37.698Z",
  "devdoc": {
    "details": "Description: This contract will function as a manager + factory for the investment fund contracts. Some of the main functionality for the `FundFactory` contract will be to: - Create a new user fund - \"Burning\" exsiting user's fund - Managing access control to protect user's account Currently there are two types of funds: - Individual Investment Fund - DAO Investment Fund",
    "kind": "dev",
    "methods": {
      "burnExistingFund(uint8,address)": {
        "details": "\"Burn\" an existing user account of `accountAddress`"
      },
      "constructor": {
        "custom:oz-upgrades-unsafe-allow": "constructor"
      },
      "createNewFund(uint8)": {
        "details": "Create new user account with type based on `accountId`"
      }
    },
    "version": 1
  },
  "userdoc": {
    "kind": "user",
    "methods": {
      "individualInvestmentFundRegistry(address)": {
        "notice": "Fund REGISTRIES The registry variables is used to store users account information in mapping type - first address is for user address, e.g. msg.sender - second address is for fund's address (type: individual or DAO investment fund)"
      }
    },
    "notice": "THIS IS THE `FundFactory` contract",
    "version": 1
  }
}