{
  "contractName": "FundFactory",
  "abi": [
    {
      "inputs": [],
      "stateMutability": "nonpayable",
      "type": "constructor"
    },
    {
      "inputs": [
        {
          "internalType": "address",
          "name": "",
          "type": "address"
        }
      ],
      "name": "daoInvestmentFundRegistry",
      "outputs": [
        {
          "internalType": "address",
          "name": "",
          "type": "address"
        }
      ],
      "stateMutability": "view",
      "type": "function"
    },
    {
      "inputs": [
        {
          "internalType": "address",
          "name": "",
          "type": "address"
        }
      ],
      "name": "individualInvestmentFundRegistry",
      "outputs": [
        {
          "internalType": "address",
          "name": "",
          "type": "address"
        }
      ],
      "stateMutability": "view",
      "type": "function"
    },
    {
      "inputs": [
        {
          "internalType": "enum FundFactory.InvestmentFundType",
          "name": "investmentFund",
          "type": "uint8"
        }
      ],
      "name": "createNewFund",
      "outputs": [],
      "stateMutability": "nonpayable",
      "type": "function"
    },
    {
      "inputs": [
        {
          "internalType": "enum FundFactory.InvestmentFundType",
          "name": "investmentFund",
          "type": "uint8"
        },
        {
          "internalType": "address",
          "name": "accountAddress",
          "type": "address"
        }
      ],
      "name": "burnExistingFund",
      "outputs": [],
      "stateMutability": "nonpayable",
      "type": "function"
    }
  ],
  "bytecode": "0x608060405234801561001057600080fd5b50600054610100900460ff1661002c5760005460ff1615610034565b6100346100d5565b61009b5760405162461bcd60e51b815260206004820152602e60248201527f496e697469616c697a61626c653a20636f6e747261637420697320616c72656160448201526d191e481a5b9a5d1a585b1a5e995960921b606482015260840160405180910390fd5b600054610100900460ff161580156100bd576000805461ffff19166101011790555b80156100cf576000805461ff00191690555b506100ff565b60006100ea306100f060201b6102e91760201c565b15905090565b6001600160a01b03163b151590565b610bff8061010e6000396000f3fe608060405234801561001057600080fd5b506004361061004c5760003560e01c80638564c5f6146100515780638c372db1146100965780639b1332d7146100bf578063cabed6c9146100d4575b600080fd5b61007a61005f3660046103a2565b6002602052600090815260409020546001600160a01b031681565b6040516001600160a01b03909116815260200160405180910390f35b61007a6100a43660046103a2565b6001602052600090815260409020546001600160a01b031681565b6100d26100cd3660046103d3565b6100e7565b005b6100d26100e23660046103ee565b6101e4565b60008160018111156100fb576100fb610421565b141561015d57600060405161010f90610379565b604051809103906000f08015801561012b573d6000803e3d6000fd5b5033600090815260016020526040902080546001600160a01b0319166001600160a01b03929092169190911790555050565b600181600181111561017157610171610421565b14156101975733600090815260026020526040902080546001600160a01b031916905550565b60405162461bcd60e51b815260206004820152601c60248201527f4e6f7420612076616c6964206163636f756e74496420676976656e210000000060448201526064015b60405180910390fd5b8181806001600160a01b03166101fa83336102f8565b6001600160a01b03161461026f5760405162461bcd60e51b815260206004820152603660248201527f596f7520617265206e6f7420746865206163636f756e74206f776e6572206f666044820152752074686973206163636f756e7420616464726573732160501b60648201526084016101db565b600084600181111561028357610283610421565b14156102ab5733600090815260016020526040902080546001600160a01b03191690556102e3565b60018460018111156102bf576102bf610421565b14156102e35733600090815260026020526040902080546001600160a01b03191690555b50505050565b6001600160a01b03163b151590565b60008083600181111561030d5761030d610421565b141561033457506001600160a01b0380821660009081526001602052604090205416610373565b600183600181111561034857610348610421565b141561036f57506001600160a01b0380821660009081526002602052604090205416610373565b5060005b92915050565b6107928061043883390190565b80356001600160a01b038116811461039d57600080fd5b919050565b6000602082840312156103b457600080fd5b6103bd82610386565b9392505050565b80356002811061039d57600080fd5b6000602082840312156103e557600080fd5b6103bd826103c4565b6000806040838503121561040157600080fd5b61040a836103c4565b915061041860208401610386565b90509250929050565b634e487b7160e01b600052602160045260246000fdfe608060405234801561001057600080fd5b50610772806100206000396000f3fe608060405234801561001057600080fd5b506004361061007d5760003560e01c806336568abe1161005b57806336568abe146100f057806391d1485414610103578063a217fddf14610116578063d547741f1461011e57600080fd5b806301ffc9a714610082578063248a9ca3146100aa5780632f2ff15d146100db575b600080fd5b610095610090366004610555565b610131565b60405190151581526020015b60405180910390f35b6100cd6100b836600461057f565b60009081526020819052604090206001015490565b6040519081526020016100a1565b6100ee6100e9366004610598565b610168565b005b6100ee6100fe366004610598565b610193565b610095610111366004610598565b610216565b6100cd600081565b6100ee61012c366004610598565b61023f565b60006001600160e01b03198216637965db0b60e01b148061016257506301ffc9a760e01b6001600160e01b03198316145b92915050565b6000828152602081905260409020600101546101848133610265565b61018e83836102c9565b505050565b6001600160a01b03811633146102085760405162461bcd60e51b815260206004820152602f60248201527f416363657373436f6e74726f6c3a2063616e206f6e6c792072656e6f756e636560448201526e103937b632b9903337b91039b2b63360891b60648201526084015b60405180910390fd5b610212828261034d565b5050565b6000918252602082815260408084206001600160a01b0393909316845291905290205460ff1690565b60008281526020819052604090206001015461025b8133610265565b61018e838361034d565b61026f8282610216565b61021257610287816001600160a01b031660146103b2565b6102928360206103b2565b6040516020016102a3929190610604565b60408051601f198184030181529082905262461bcd60e51b82526101ff91600401610679565b6102d38282610216565b610212576000828152602081815260408083206001600160a01b03851684529091529020805460ff191660011790556103093390565b6001600160a01b0316816001600160a01b0316837f2f8788117e7eff1d82e926ec794901d17c78024a50270940304540a733656f0d60405160405180910390a45050565b6103578282610216565b15610212576000828152602081815260408083206001600160a01b0385168085529252808320805460ff1916905551339285917ff6391f5c32d9c69d2a47ea670b442974b53935d1edc7fd64eb21e047a839171b9190a45050565b606060006103c18360026106c2565b6103cc9060026106e1565b67ffffffffffffffff8111156103e4576103e46106f9565b6040519080825280601f01601f19166020018201604052801561040e576020820181803683370190505b509050600360fc1b816000815181106104295761042961070f565b60200101906001600160f81b031916908160001a905350600f60fb1b816001815181106104585761045861070f565b60200101906001600160f81b031916908160001a905350600061047c8460026106c2565b6104879060016106e1565b90505b60018111156104ff576f181899199a1a9b1b9c1cb0b131b232b360811b85600f16601081106104bb576104bb61070f565b1a60f81b8282815181106104d1576104d161070f565b60200101906001600160f81b031916908160001a90535060049490941c936104f881610725565b905061048a565b50831561054e5760405162461bcd60e51b815260206004820181905260248201527f537472696e67733a20686578206c656e67746820696e73756666696369656e7460448201526064016101ff565b9392505050565b60006020828403121561056757600080fd5b81356001600160e01b03198116811461054e57600080fd5b60006020828403121561059157600080fd5b5035919050565b600080604083850312156105ab57600080fd5b8235915060208301356001600160a01b03811681146105c957600080fd5b809150509250929050565b60005b838110156105ef5781810151838201526020016105d7565b838111156105fe576000848401525b50505050565b7f416363657373436f6e74726f6c3a206163636f756e742000000000000000000081526000835161063c8160178501602088016105d4565b7001034b99036b4b9b9b4b733903937b6329607d1b601791840191820152835161066d8160288401602088016105d4565b01602801949350505050565b60208152600082518060208401526106988160408501602087016105d4565b601f01601f19169190910160400192915050565b634e487b7160e01b600052601160045260246000fd5b60008160001904831182151516156106dc576106dc6106ac565b500290565b600082198211156106f4576106f46106ac565b500190565b634e487b7160e01b600052604160045260246000fd5b634e487b7160e01b600052603260045260246000fd5b600081610734576107346106ac565b50600019019056fea2646970667358221220dced79828f815896e8f69aff9cca4e2d39b02e31fada979e8f0617f3eea524ef64736f6c634300080b0033a2646970667358221220ef28722797f07d1cee16fa36e89b7bb8ae117d1a816bc0b97b5d7dea591b4e5e64736f6c634300080b0033",
  "immutableReferences": {},
  "source": "// SPDX-License-Identifier: AGPL-3.0\n\npragma solidity ^0.8.11;\n\nimport \"@openzeppelin/contracts/proxy/utils/Initializable.sol\";\nimport \"./IndividualInvestmentFund.sol\";\nimport \"./DAOInvestmentFund/DAOInvestmentFundBase.sol\";\n\n/**\n * @notice THIS IS THE `FundFactory` contract\n *\n * @dev Description:\n *\n * This contract will function as a manager + factory for the investment fund contracts.\n * Some of the main functionality for the `FundFactory` contract will be to:\n * - Create a new user fund\n * - \"Burning\" exsiting user's fund\n * - Managing access control to protect user's account\n *\n * Currently there are two types of funds:\n * - Individual Investment Fund\n * - DAO Investment Fund\n */\ncontract FundFactory is Initializable {\n    enum InvestmentFundType {\n        INDIVIDUAL,\n        DAO\n    }\n\n    /**\n     * Fund REGISTRIES\n     *\n     * The registry variables is used to store users account information in mapping type\n     * - first address is for user address, e.g. msg.sender\n     * - second address is for fund's address (type: individual or DAO investment fund)\n     */\n    mapping(address => address) public individualInvestmentFundRegistry;\n    mapping(address => address) public daoInvestmentFundRegistry;\n\n    /**\n     * @dev Check whether `msg.sender` is the fund owner of `accountAddress`\n     */\n    modifier onlyFundOwner(\n        InvestmentFundType investmentFund,\n        address accountAddress\n    ) {\n        require(\n            getAccountAddressById(investmentFund, msg.sender) == accountAddress,\n            \"You are not the account owner of this account address!\"\n        );\n        _;\n    }\n\n    /// @custom:oz-upgrades-unsafe-allow constructor\n    constructor() initializer {}\n\n    /**\n     * @dev Get Account address by `accountId`\n     */\n    function getAccountAddressById(\n        InvestmentFundType investmentFund,\n        address account\n    ) internal view returns (address) {\n        if (investmentFund == InvestmentFundType.INDIVIDUAL) {\n            return individualInvestmentFundRegistry[account];\n        } else if (investmentFund == InvestmentFundType.DAO) {\n            return daoInvestmentFundRegistry[account];\n        } else {\n            return address(0);\n        }\n    }\n\n    /**\n     * @dev Create new user account with type based on `accountId`\n     */\n    function createNewFund(InvestmentFundType investmentFund) external {\n        if (investmentFund == InvestmentFundType.INDIVIDUAL) {\n            IndividualInvestmentFund newIndividualInvestmentFund = new IndividualInvestmentFund();\n            individualInvestmentFundRegistry[msg.sender] = address(\n                newIndividualInvestmentFund\n            );\n        } else if (investmentFund == InvestmentFundType.DAO) {\n            // DAOInvestmentFundBase newDAOInvestmentFund = new DAOInvestmentFundBase();\n            daoInvestmentFundRegistry[msg.sender] = address(0);\n        } else {\n            revert(\"Not a valid accountId given!\");\n        }\n    }\n\n    /**\n     * @dev \"Burn\" an existing user account of `accountAddress`\n     */\n    function burnExistingFund(\n        InvestmentFundType investmentFund,\n        address accountAddress\n    ) public onlyFundOwner(investmentFund, accountAddress) {\n        if (investmentFund == InvestmentFundType.INDIVIDUAL) {\n            individualInvestmentFundRegistry[msg.sender] = address(0);\n        } else if (investmentFund == InvestmentFundType.DAO) {\n            daoInvestmentFundRegistry[msg.sender] = address(0);\n        } else {}\n    }\n}\n",
  "sourcePath": "/Users/yosephks/Documents/GitHub/alpsfinance-smart-contracts/contracts/account/FundFactory.sol",
  "compiler": {
    "name": "solc",
    "version": "0.8.11+commit.d7f03943.Emscripten.clang"
  },
  "schemaVersion": "3.4.6",
  "updatedAt": "2022-04-07T11:13:34.633Z",
  "devdoc": {
    "details": "Description: This contract will function as a manager + factory for the investment fund contracts. Some of the main functionality for the `FundFactory` contract will be to: - Create a new user fund - \"Burning\" exsiting user's fund - Managing access control to protect user's account Currently there are two types of funds: - Individual Investment Fund - DAO Investment Fund",
    "kind": "dev",
    "methods": {
      "burnExistingFund(uint8,address)": {
        "details": "\"Burn\" an existing user account of `accountAddress`"
      },
      "constructor": {
        "custom:oz-upgrades-unsafe-allow": "constructor"
      },
      "createNewFund(uint8)": {
        "details": "Create new user account with type based on `accountId`"
      }
    },
    "version": 1
  },
  "userdoc": {
    "kind": "user",
    "methods": {
      "individualInvestmentFundRegistry(address)": {
        "notice": "Fund REGISTRIES The registry variables is used to store users account information in mapping type - first address is for user address, e.g. msg.sender - second address is for fund's address (type: individual or DAO investment fund)"
      }
    },
    "notice": "THIS IS THE `FundFactory` contract",
    "version": 1
  }
}