{
  "contractName": "IndividualInvestmentFund",
  "abi": [
    {
      "anonymous": false,
      "inputs": [
        {
          "indexed": true,
          "internalType": "bytes32",
          "name": "role",
          "type": "bytes32"
        },
        {
          "indexed": true,
          "internalType": "bytes32",
          "name": "previousAdminRole",
          "type": "bytes32"
        },
        {
          "indexed": true,
          "internalType": "bytes32",
          "name": "newAdminRole",
          "type": "bytes32"
        }
      ],
      "name": "RoleAdminChanged",
      "type": "event"
    },
    {
      "anonymous": false,
      "inputs": [
        {
          "indexed": true,
          "internalType": "bytes32",
          "name": "role",
          "type": "bytes32"
        },
        {
          "indexed": true,
          "internalType": "address",
          "name": "account",
          "type": "address"
        },
        {
          "indexed": true,
          "internalType": "address",
          "name": "sender",
          "type": "address"
        }
      ],
      "name": "RoleGranted",
      "type": "event"
    },
    {
      "anonymous": false,
      "inputs": [
        {
          "indexed": true,
          "internalType": "bytes32",
          "name": "role",
          "type": "bytes32"
        },
        {
          "indexed": true,
          "internalType": "address",
          "name": "account",
          "type": "address"
        },
        {
          "indexed": true,
          "internalType": "address",
          "name": "sender",
          "type": "address"
        }
      ],
      "name": "RoleRevoked",
      "type": "event"
    },
    {
      "anonymous": false,
      "inputs": [
        {
          "indexed": false,
          "internalType": "address[]",
          "name": "targets",
          "type": "address[]"
        },
        {
          "indexed": false,
          "internalType": "uint256[]",
          "name": "values",
          "type": "uint256[]"
        },
        {
          "indexed": false,
          "internalType": "bytes[]",
          "name": "calldatas",
          "type": "bytes[]"
        }
      ],
      "name": "TransactionExecuted",
      "type": "event"
    },
    {
      "inputs": [],
      "name": "DEFAULT_ADMIN_ROLE",
      "outputs": [
        {
          "internalType": "bytes32",
          "name": "",
          "type": "bytes32"
        }
      ],
      "stateMutability": "view",
      "type": "function"
    },
    {
      "inputs": [
        {
          "internalType": "bytes32",
          "name": "role",
          "type": "bytes32"
        }
      ],
      "name": "getRoleAdmin",
      "outputs": [
        {
          "internalType": "bytes32",
          "name": "",
          "type": "bytes32"
        }
      ],
      "stateMutability": "view",
      "type": "function"
    },
    {
      "inputs": [
        {
          "internalType": "bytes32",
          "name": "role",
          "type": "bytes32"
        },
        {
          "internalType": "address",
          "name": "account",
          "type": "address"
        }
      ],
      "name": "grantRole",
      "outputs": [],
      "stateMutability": "nonpayable",
      "type": "function"
    },
    {
      "inputs": [
        {
          "internalType": "bytes32",
          "name": "role",
          "type": "bytes32"
        },
        {
          "internalType": "address",
          "name": "account",
          "type": "address"
        }
      ],
      "name": "hasRole",
      "outputs": [
        {
          "internalType": "bool",
          "name": "",
          "type": "bool"
        }
      ],
      "stateMutability": "view",
      "type": "function"
    },
    {
      "inputs": [
        {
          "internalType": "bytes32",
          "name": "role",
          "type": "bytes32"
        },
        {
          "internalType": "address",
          "name": "account",
          "type": "address"
        }
      ],
      "name": "renounceRole",
      "outputs": [],
      "stateMutability": "nonpayable",
      "type": "function"
    },
    {
      "inputs": [
        {
          "internalType": "bytes32",
          "name": "role",
          "type": "bytes32"
        },
        {
          "internalType": "address",
          "name": "account",
          "type": "address"
        }
      ],
      "name": "revokeRole",
      "outputs": [],
      "stateMutability": "nonpayable",
      "type": "function"
    },
    {
      "inputs": [
        {
          "internalType": "bytes4",
          "name": "interfaceId",
          "type": "bytes4"
        }
      ],
      "name": "supportsInterface",
      "outputs": [
        {
          "internalType": "bool",
          "name": "",
          "type": "bool"
        }
      ],
      "stateMutability": "view",
      "type": "function"
    },
    {
      "stateMutability": "payable",
      "type": "receive"
    },
    {
      "inputs": [
        {
          "internalType": "address[]",
          "name": "targets",
          "type": "address[]"
        },
        {
          "internalType": "uint256[]",
          "name": "values",
          "type": "uint256[]"
        },
        {
          "internalType": "bytes[]",
          "name": "calldatas",
          "type": "bytes[]"
        }
      ],
      "name": "execute",
      "outputs": [
        {
          "internalType": "bool",
          "name": "",
          "type": "bool"
        }
      ],
      "stateMutability": "payable",
      "type": "function"
    }
  ],
  "bytecode": "0x608060405234801561001057600080fd5b50610ddd806100206000396000f3fe60806040526004361061007f5760003560e01c806391d148541161004e57806391d1485414610140578063a217fddf14610160578063a516a5bf14610175578063d547741f1461018857600080fd5b806301ffc9a71461008b578063248a9ca3146100c05780632f2ff15d146100fe57806336568abe1461012057600080fd5b3661008657005b600080fd5b34801561009757600080fd5b506100ab6100a63660046107c6565b6101a8565b60405190151581526020015b60405180910390f35b3480156100cc57600080fd5b506100f06100db3660046107f0565b60009081526020819052604090206001015490565b6040519081526020016100b7565b34801561010a57600080fd5b5061011e610119366004610825565b6101df565b005b34801561012c57600080fd5b5061011e61013b366004610825565b61020a565b34801561014c57600080fd5b506100ab61015b366004610825565b61028d565b34801561016c57600080fd5b506100f0600081565b6100ab610183366004610a0b565b6102b6565b34801561019457600080fd5b5061011e6101a3366004610825565b610381565b60006001600160e01b03198216637965db0b60e01b14806101d957506301ffc9a760e01b6001600160e01b03198316145b92915050565b6000828152602081905260409020600101546101fb81336103a7565b610205838361040b565b505050565b6001600160a01b038116331461027f5760405162461bcd60e51b815260206004820152602f60248201527f416363657373436f6e74726f6c3a2063616e206f6e6c792072656e6f756e636560448201526e103937b632b9903337b91039b2b63360891b60648201526084015b60405180910390fd5b610289828261048f565b5050565b6000918252602082815260408084206001600160a01b0393909316845291905290205460ff1690565b6000825184511480156102ca575081518451145b6103305760405162461bcd60e51b815260206004820152603160248201527f496e646976696475616c496e766573746d656e7446756e643a2070726f706f73604482015270185b081b9bdd081cdd58d8d95cdcd99d5b607a1b6064820152608401610276565b61033b8484846104f4565b7f5a68aca1ebdfea9d71dfa10bfe3071e67281ed3496ae43926673c2740df3bfcf84848460405161036e93929190610ba0565b60405180910390a15060015b9392505050565b60008281526020819052604090206001015461039d81336103a7565b610205838361048f565b6103b1828261028d565b610289576103c9816001600160a01b031660146105f1565b6103d48360206105f1565b6040516020016103e5929190610c37565b60408051601f198184030181529082905262461bcd60e51b825261027691600401610cac565b610415828261028d565b610289576000828152602081815260408083206001600160a01b03851684529091529020805460ff1916600117905561044b3390565b6001600160a01b0316816001600160a01b0316837f2f8788117e7eff1d82e926ec794901d17c78024a50270940304540a733656f0d60405160405180910390a45050565b610499828261028d565b15610289576000828152602081815260408083206001600160a01b0385168085529252808320805460ff1916905551339285917ff6391f5c32d9c69d2a47ea670b442974b53935d1edc7fd64eb21e047a839171b9190a45050565b6000604051806060016040528060378152602001610d7160379139905060005b84518110156105ea5760008086838151811061053257610532610cbf565b60200260200101516001600160a01b031686848151811061055557610555610cbf565b602002602001015186858151811061056f5761056f610cbf565b60200260200101516040516105849190610cd5565b60006040518083038185875af1925050503d80600081146105c1576040519150601f19603f3d011682016040523d82523d6000602084013e6105c6565b606091505b50915091506105d682828661078d565b505050806105e390610d07565b9050610514565b5050505050565b60606000610600836002610d22565b61060b906002610d41565b67ffffffffffffffff81111561062357610623610851565b6040519080825280601f01601f19166020018201604052801561064d576020820181803683370190505b509050600360fc1b8160008151811061066857610668610cbf565b60200101906001600160f81b031916908160001a905350600f60fb1b8160018151811061069757610697610cbf565b60200101906001600160f81b031916908160001a90535060006106bb846002610d22565b6106c6906001610d41565b90505b600181111561073e576f181899199a1a9b1b9c1cb0b131b232b360811b85600f16601081106106fa576106fa610cbf565b1a60f81b82828151811061071057610710610cbf565b60200101906001600160f81b031916908160001a90535060049490941c9361073781610d59565b90506106c9565b50831561037a5760405162461bcd60e51b815260206004820181905260248201527f537472696e67733a20686578206c656e67746820696e73756666696369656e746044820152606401610276565b6060831561079c57508161037a565b8251156107ac5782518084602001fd5b8160405162461bcd60e51b81526004016102769190610cac565b6000602082840312156107d857600080fd5b81356001600160e01b03198116811461037a57600080fd5b60006020828403121561080257600080fd5b5035919050565b80356001600160a01b038116811461082057600080fd5b919050565b6000806040838503121561083857600080fd5b8235915061084860208401610809565b90509250929050565b634e487b7160e01b600052604160045260246000fd5b604051601f8201601f1916810167ffffffffffffffff8111828210171561089057610890610851565b604052919050565b600067ffffffffffffffff8211156108b2576108b2610851565b5060051b60200190565b600082601f8301126108cd57600080fd5b813560206108e26108dd83610898565b610867565b82815260059290921b8401810191818101908684111561090157600080fd5b8286015b8481101561091c5780358352918301918301610905565b509695505050505050565b6000601f838184011261093957600080fd5b823560206109496108dd83610898565b82815260059290921b8501810191818101908784111561096857600080fd5b8287015b848110156109ff57803567ffffffffffffffff8082111561098d5760008081fd5b818a0191508a603f8301126109a25760008081fd5b858201356040828211156109b8576109b8610851565b6109c9828b01601f19168901610867565b92508183528c818386010111156109e05760008081fd5b818185018985013750600090820187015284525091830191830161096c565b50979650505050505050565b600080600060608486031215610a2057600080fd5b833567ffffffffffffffff80821115610a3857600080fd5b818601915086601f830112610a4c57600080fd5b81356020610a5c6108dd83610898565b82815260059290921b8401810191818101908a841115610a7b57600080fd5b948201945b83861015610aa057610a9186610809565b82529482019490820190610a80565b97505087013592505080821115610ab657600080fd5b610ac2878388016108bc565b93506040860135915080821115610ad857600080fd5b50610ae586828701610927565b9150509250925092565b60005b83811015610b0a578181015183820152602001610af2565b83811115610b19576000848401525b50505050565b60008151808452610b37816020860160208601610aef565b601f01601f19169290920160200192915050565b600081518084526020808501808196508360051b8101915082860160005b85811015610b93578284038952610b81848351610b1f565b98850198935090840190600101610b69565b5091979650505050505050565b606080825284519082018190526000906020906080840190828801845b82811015610be25781516001600160a01b031684529284019290840190600101610bbd565b5050508381038285015285518082528683019183019060005b81811015610c1757835183529284019291840191600101610bfb565b50508481036040860152610c2b8187610b4b565b98975050505050505050565b7f416363657373436f6e74726f6c3a206163636f756e7420000000000000000000815260008351610c6f816017850160208801610aef565b7001034b99036b4b9b9b4b733903937b6329607d1b6017918401918201528351610ca0816028840160208801610aef565b01602801949350505050565b60208152600061037a6020830184610b1f565b634e487b7160e01b600052603260045260246000fd5b60008251610ce7818460208701610aef565b9190910192915050565b634e487b7160e01b600052601160045260246000fd5b6000600019821415610d1b57610d1b610cf1565b5060010190565b6000816000190483118215151615610d3c57610d3c610cf1565b500290565b60008219821115610d5457610d54610cf1565b500190565b600081610d6857610d68610cf1565b50600019019056fe496e646976696475616c496e766573746d656e7446756e643a2063616c6c20726576657274656420776974686f7574206d657373616765a264697066735822122049e3d92872b0e9dd4b3d021ebdda32d89c6c3617e4969fb7326169481bee756364736f6c634300080b0033",
  "immutableReferences": {},
  "source": "// SPDX-License-Identifier: AGPL-3.0\n\npragma solidity ^0.8.11;\n\nimport \"@openzeppelin/contracts/access/AccessControl.sol\";\nimport \"@openzeppelin/contracts/utils/Address.sol\";\nimport \"@opengsn/contracts/src/BaseRelayRecipient.sol\";\n\ncontract IndividualInvestmentFund is AccessControl {\n    event TransactionExecuted(\n        address[] targets,\n        uint256[] values,\n        bytes[] calldatas\n    );\n\n    /**\n     * @dev The contract should be able to receive Eth.\n     */\n    receive() external payable virtual {}\n\n    /**\n     * @dev Exectue transactions through the fund\n     */\n    function execute(\n        address[] memory targets,\n        uint256[] memory values,\n        bytes[] memory calldatas\n    ) public payable virtual returns (bool) {\n        require(\n            targets.length == values.length &&\n                targets.length == calldatas.length,\n            \"IndividualInvestmentFund: proposal not successful\"\n        );\n\n        _execute(targets, values, calldatas);\n\n        emit TransactionExecuted(targets, values, calldatas);\n\n        return true;\n    }\n\n    /**\n     * @dev Internal execution mechanism. Can be overriden to implement different execution mechanism\n     */\n    function _execute(\n        address[] memory targets,\n        uint256[] memory values,\n        bytes[] memory calldatas\n    ) internal virtual {\n        string\n            memory errorMessage = \"IndividualInvestmentFund: call reverted without message\";\n        for (uint256 i = 0; i < targets.length; ++i) {\n            (bool success, bytes memory returndata) = targets[i].call{\n                value: values[i]\n            }(calldatas[i]);\n            Address.verifyCallResult(success, returndata, errorMessage);\n        }\n    }\n}\n",
  "sourcePath": "/Users/yosephks/Documents/GitHub/alpsfinance-smart-contracts/contracts/account/IndividualInvestmentFund.sol",
  "compiler": {
    "name": "solc",
    "version": "0.8.11+commit.d7f03943.Emscripten.clang"
  },
  "schemaVersion": "3.4.6",
  "updatedAt": "2022-04-07T14:39:13.227Z",
  "devdoc": {
    "kind": "dev",
    "methods": {
      "execute(address[],uint256[],bytes[])": {
        "details": "Exectue transactions through the fund"
      },
      "getRoleAdmin(bytes32)": {
        "details": "Returns the admin role that controls `role`. See {grantRole} and {revokeRole}. To change a role's admin, use {_setRoleAdmin}."
      },
      "grantRole(bytes32,address)": {
        "details": "Grants `role` to `account`. If `account` had not been already granted `role`, emits a {RoleGranted} event. Requirements: - the caller must have ``role``'s admin role."
      },
      "hasRole(bytes32,address)": {
        "details": "Returns `true` if `account` has been granted `role`."
      },
      "renounceRole(bytes32,address)": {
        "details": "Revokes `role` from the calling account. Roles are often managed via {grantRole} and {revokeRole}: this function's purpose is to provide a mechanism for accounts to lose their privileges if they are compromised (such as when a trusted device is misplaced). If the calling account had been revoked `role`, emits a {RoleRevoked} event. Requirements: - the caller must be `account`."
      },
      "revokeRole(bytes32,address)": {
        "details": "Revokes `role` from `account`. If `account` had been granted `role`, emits a {RoleRevoked} event. Requirements: - the caller must have ``role``'s admin role."
      },
      "supportsInterface(bytes4)": {
        "details": "See {IERC165-supportsInterface}."
      }
    },
    "version": 1
  },
  "userdoc": {
    "kind": "user",
    "methods": {},
    "version": 1
  }
}