{
  "contractName": "MockPresale",
  "abi": [
    {
      "inputs": [
        {
          "internalType": "address",
          "name": "_tokenAddress",
          "type": "address"
        },
        {
          "internalType": "address payable",
          "name": "_presaleReceiver",
          "type": "address"
        }
      ],
      "stateMutability": "nonpayable",
      "type": "constructor"
    },
    {
      "inputs": [],
      "name": "presaleMaximumPresaleAmountInvalid",
      "type": "error"
    },
    {
      "inputs": [],
      "name": "presaleMimumumUSDPurchaseInvalid",
      "type": "error"
    },
    {
      "inputs": [],
      "name": "presaleNativeTokenPaymentNotSufficient",
      "type": "error"
    },
    {
      "inputs": [],
      "name": "presaleRoundClosed",
      "type": "error"
    },
    {
      "inputs": [],
      "name": "presaleStartingTimeInvalid",
      "type": "error"
    },
    {
      "inputs": [],
      "name": "presaleTokenNotAvailable",
      "type": "error"
    },
    {
      "inputs": [],
      "name": "presaleUSDPriceInvalid",
      "type": "error"
    },
    {
      "anonymous": false,
      "inputs": [
        {
          "indexed": true,
          "internalType": "address",
          "name": "previousOwner",
          "type": "address"
        },
        {
          "indexed": true,
          "internalType": "address",
          "name": "newOwner",
          "type": "address"
        }
      ],
      "name": "OwnershipTransferred",
      "type": "event"
    },
    {
      "anonymous": false,
      "inputs": [
        {
          "indexed": true,
          "internalType": "address",
          "name": "to",
          "type": "address"
        },
        {
          "indexed": true,
          "internalType": "address",
          "name": "paymentTokenAddress",
          "type": "address"
        },
        {
          "indexed": false,
          "internalType": "uint256",
          "name": "amount",
          "type": "uint256"
        },
        {
          "indexed": false,
          "internalType": "uint256",
          "name": "paymentTokenamount",
          "type": "uint256"
        }
      ],
      "name": "TokenPresold",
      "type": "event"
    },
    {
      "inputs": [],
      "name": "owner",
      "outputs": [
        {
          "internalType": "address",
          "name": "",
          "type": "address"
        }
      ],
      "stateMutability": "view",
      "type": "function"
    },
    {
      "inputs": [],
      "name": "presaleReceiver",
      "outputs": [
        {
          "internalType": "address payable",
          "name": "",
          "type": "address"
        }
      ],
      "stateMutability": "view",
      "type": "function"
    },
    {
      "inputs": [],
      "name": "renounceOwnership",
      "outputs": [],
      "stateMutability": "nonpayable",
      "type": "function"
    },
    {
      "inputs": [],
      "name": "tokenAddress",
      "outputs": [
        {
          "internalType": "address",
          "name": "",
          "type": "address"
        }
      ],
      "stateMutability": "view",
      "type": "function"
    },
    {
      "inputs": [],
      "name": "totalPresaleRound",
      "outputs": [
        {
          "internalType": "uint256",
          "name": "_value",
          "type": "uint256"
        }
      ],
      "stateMutability": "view",
      "type": "function"
    },
    {
      "inputs": [
        {
          "internalType": "address",
          "name": "newOwner",
          "type": "address"
        }
      ],
      "name": "transferOwnership",
      "outputs": [],
      "stateMutability": "nonpayable",
      "type": "function"
    },
    {
      "inputs": [],
      "name": "getCurrentPresaleRound",
      "outputs": [
        {
          "internalType": "uint256",
          "name": "",
          "type": "uint256"
        }
      ],
      "stateMutability": "view",
      "type": "function"
    },
    {
      "inputs": [],
      "name": "getCurrentPresaleDetails",
      "outputs": [
        {
          "internalType": "uint256",
          "name": "",
          "type": "uint256"
        },
        {
          "internalType": "uint256",
          "name": "",
          "type": "uint256"
        },
        {
          "internalType": "uint256",
          "name": "",
          "type": "uint256"
        },
        {
          "internalType": "uint256",
          "name": "",
          "type": "uint256"
        }
      ],
      "stateMutability": "view",
      "type": "function"
    },
    {
      "inputs": [
        {
          "internalType": "address",
          "name": "_paymentTokenAddress",
          "type": "address"
        },
        {
          "internalType": "uint256",
          "name": "_amount",
          "type": "uint256"
        },
        {
          "internalType": "address",
          "name": "",
          "type": "address"
        }
      ],
      "name": "presaleTokens",
      "outputs": [],
      "stateMutability": "payable",
      "type": "function"
    },
    {
      "inputs": [
        {
          "internalType": "address payable",
          "name": "_newPresaleReceiver",
          "type": "address"
        }
      ],
      "name": "setPresaleReceiver",
      "outputs": [],
      "stateMutability": "nonpayable",
      "type": "function"
    },
    {
      "inputs": [
        {
          "internalType": "address",
          "name": "_newTokenAddress",
          "type": "address"
        }
      ],
      "name": "setPresaleTokenAddress",
      "outputs": [],
      "stateMutability": "nonpayable",
      "type": "function"
    },
    {
      "inputs": [
        {
          "internalType": "uint256",
          "name": "_presaleRound",
          "type": "uint256"
        },
        {
          "internalType": "uint256",
          "name": "_startingTime",
          "type": "uint256"
        },
        {
          "internalType": "uint256",
          "name": "_usdPrice",
          "type": "uint256"
        },
        {
          "internalType": "uint256",
          "name": "_minimumUSDPurchase",
          "type": "uint256"
        },
        {
          "internalType": "uint256",
          "name": "_maximumPresaleAmount",
          "type": "uint256"
        }
      ],
      "name": "setPresaleRound",
      "outputs": [],
      "stateMutability": "nonpayable",
      "type": "function"
    }
  ],
  "bytecode": "0x608060405234801561001057600080fd5b50604051610b34380380610b3483398101604081905261002f916100d5565b6100383361006d565b60018055600380546001600160a01b039384166001600160a01b0319918216179091556004805492909316911617905561010f565b600080546001600160a01b038381166001600160a01b0319831681178455604051919092169283917f8be0079c531659141344cd1fd0a4f28419497f9722a3daafe3b4186f6b6457e09190a35050565b6001600160a01b03811681146100d257600080fd5b50565b600080604083850312156100e857600080fd5b82516100f3816100bd565b6020840151909250610104816100bd565b809150509250929050565b610a168061011e6000396000f3fe6080604052600436106100a75760003560e01c80639d76ea58116100645780639d76ea5814610167578063c143641514610187578063c829d1db146101a7578063ec2b3523146101c7578063f2fde38b146101fc578063feda925b1461021c57600080fd5b80631c63f0ed146100ac5780633c0c134d146100d45780636a107cd8146100f6578063715018a6146101095780638da5cb5b1461011e578063962de5c014610150575b600080fd5b3480156100b857600080fd5b506100c161023c565b6040519081526020015b60405180910390f35b3480156100e057600080fd5b506100f46100ef3660046108a4565b610291565b005b6100f46101043660046108c8565b6102e6565b34801561011557600080fd5b506100f461058b565b34801561012a57600080fd5b506000546001600160a01b03165b6040516001600160a01b0390911681526020016100cb565b34801561015c57600080fd5b506002546100c19081565b34801561017357600080fd5b50600354610138906001600160a01b031681565b34801561019357600080fd5b50600454610138906001600160a01b031681565b3480156101b357600080fd5b506100f46101c236600461090a565b6105c1565b3480156101d357600080fd5b506101dc610719565b6040805194855260208501939093529183015260608201526080016100cb565b34801561020857600080fd5b506100f46102173660046108a4565b610758565b34801561022857600080fd5b506100f46102373660046108a4565b6107f3565b600080600161024a60025490565b610254919061095b565b90505b801561028957600081815260056020526040902054421061027757919050565b8061028181610972565b915050610257565b506000905090565b6000546001600160a01b031633146102c45760405162461bcd60e51b81526004016102bb90610989565b60405180910390fd5b600380546001600160a01b0319166001600160a01b0392909216919091179055565b600260015414156103395760405162461bcd60e51b815260206004820152601f60248201527f5265656e7472616e637947756172643a207265656e7472616e742063616c6c0060448201526064016102bb565b60026001556000610348610719565b505050905080421061036d576040516304d61c6f60e41b815260040160405180910390fd5b6001600160a01b03841660009081526006602052604090205460ff16156103a7576040516303003c8560e21b815260040160405180910390fd5b6003546001600160a01b0390811690670de0b6b3a764000090861661045457843410156103e75760405163854a356160e01b815260040160405180910390fd5b6004546040516001600160a01b039091169086156108fc029087906000818181858888f19350505050158015610421573d6000803e3d6000fd5b5060405133904780156108fc02916000818181858888f1935050505015801561044e573d6000803e3d6000fd5b506104d9565b600480546040516323b872dd60e01b815233928101929092526001600160a01b039081166024830152604482018790528791908216906323b872dd906064016020604051808303816000875af11580156104b2573d6000803e3d6000fd5b505050506040513d601f19601f820116820180604052508101906104d691906109be565b50505b6040516340c10f1960e01b8152336004820152602481018290526001600160a01b038316906340c10f1990604401600060405180830381600087803b15801561052157600080fd5b505af1158015610535573d6000803e3d6000fd5b505060408051848152602081018990526001600160a01b038a1693503392507f69902df1d9bae4b2a08b9e9d689906299b4b15ac10fbbf560d019b5c73fd35d6910160405180910390a350506001805550505050565b6000546001600160a01b031633146105b55760405162461bcd60e51b81526004016102bb90610989565b6105bf600061083f565b565b6000546001600160a01b031633146105eb5760405162461bcd60e51b81526004016102bb90610989565b6000858152600560205260409020805460018201546002830154600390930154919290918315801561061b575082155b8015610625575081155b801561062f575080155b1561064257610642600280546001019055565b8715806106785750881580159061067857506005600061066360018c61095b565b81526020019081526020016000206000015488105b1561069657604051633863ce1d60e01b815260040160405180910390fd5b866106b4576040516329198c7f60e11b815260040160405180910390fd5b856106d257604051630746844f60e31b815260040160405180910390fd5b846106f057604051639f2bfa4160e01b815260040160405180910390fd5b505050600095865250600560205260409094209283556001830191909155600282015560030155565b600080600080600061072961023c565b600090815260056020526040902080546001820154600283015460039093015491989097509195509350915050565b6000546001600160a01b031633146107825760405162461bcd60e51b81526004016102bb90610989565b6001600160a01b0381166107e75760405162461bcd60e51b815260206004820152602660248201527f4f776e61626c653a206e6577206f776e657220697320746865207a65726f206160448201526564647265737360d01b60648201526084016102bb565b6107f08161083f565b50565b6000546001600160a01b0316331461081d5760405162461bcd60e51b81526004016102bb90610989565b600480546001600160a01b0319166001600160a01b0392909216919091179055565b600080546001600160a01b038381166001600160a01b0319831681178455604051919092169283917f8be0079c531659141344cd1fd0a4f28419497f9722a3daafe3b4186f6b6457e09190a35050565b6001600160a01b03811681146107f057600080fd5b6000602082840312156108b657600080fd5b81356108c18161088f565b9392505050565b6000806000606084860312156108dd57600080fd5b83356108e88161088f565b92506020840135915060408401356108ff8161088f565b809150509250925092565b600080600080600060a0868803121561092257600080fd5b505083359560208501359550604085013594606081013594506080013592509050565b634e487b7160e01b600052601160045260246000fd5b60008282101561096d5761096d610945565b500390565b60008161098157610981610945565b506000190190565b6020808252818101527f4f776e61626c653a2063616c6c6572206973206e6f7420746865206f776e6572604082015260600190565b6000602082840312156109d057600080fd5b815180151581146108c157600080fdfea264697066735822122003c3c701c7cd0261ad61c16c9c2d2e5d8f93b8503623eb69d67269a38c9ab21264736f6c634300080b0033",
  "immutableReferences": {},
  "source": "// SPDX-License-Identifier: AGPL-3.0\n\npragma solidity ^0.8.11;\n\nimport \"@openzeppelin/contracts/access/Ownable.sol\";\nimport \"@openzeppelin/contracts/token/ERC20/IERC20.sol\";\nimport \"@openzeppelin/contracts/utils/Counters.sol\";\nimport \"@openzeppelin/contracts/utils/math/SafeMath.sol\";\nimport \"@openzeppelin/contracts/security/ReentrancyGuard.sol\";\nimport \"../../libraries/PriceConverter.sol\";\nimport \"../../token/interfaces/IERC20Custom.sol\";\n\ncontract MockPresale is Ownable, ReentrancyGuard {\n    using Counters for Counters.Counter;\n    using SafeMath for uint256;\n\n    struct PresaleData {\n        uint256 startingTime;\n        uint256 usdPrice;\n        uint256 minimumUSDPurchase;\n        uint256 maximumPresaleAmount;\n    }\n\n    event TokenPresold(\n        address indexed to,\n        address indexed paymentTokenAddress,\n        uint256 amount,\n        uint256 paymentTokenamount\n    );\n\n    Counters.Counter public totalPresaleRound;\n    address public tokenAddress;\n    address payable public presaleReceiver;\n\n    // Mapping `presaleRound` to its data details\n    mapping(uint256 => PresaleData) presaleDetailsMapping;\n    mapping(address => bool) presaleTokenAvaliblilityMapping;\n\n    error presaleRoundClosed();\n    error presaleTokenNotAvailable();\n    error presaleNativeTokenPaymentNotSufficient();\n    error presaleStartingTimeInvalid();\n    error presaleUSDPriceInvalid();\n    error presaleMimumumUSDPurchaseInvalid();\n    error presaleMaximumPresaleAmountInvalid();\n\n    constructor(address _tokenAddress, address payable _presaleReceiver) {\n        tokenAddress = _tokenAddress;\n        presaleReceiver = _presaleReceiver;\n    }\n\n    /**\n     * Get Current Presale Round\n     */\n    function getCurrentPresaleRound() public view returns (uint256) {\n        for (\n            uint256 presaleRound = totalPresaleRound.current() - 1;\n            presaleRound > 0;\n            presaleRound--\n        ) {\n            if (\n                presaleDetailsMapping[presaleRound].startingTime <=\n                block.timestamp\n            ) {\n                return presaleRound;\n            }\n        }\n\n        return 0;\n    }\n\n    /**\n     * Getting the Current Presale Details, including:\n     * - Starting Time\n     * - USD Price\n     * - Minimum USD Purchase\n     * - Maximum Presale Amount\n     */\n    function getCurrentPresaleDetails()\n        public\n        view\n        returns (\n            uint256,\n            uint256,\n            uint256,\n            uint256\n        )\n    {\n        uint256 currentPresaleRound = getCurrentPresaleRound();\n        return (\n            presaleDetailsMapping[currentPresaleRound].startingTime,\n            presaleDetailsMapping[currentPresaleRound].usdPrice,\n            presaleDetailsMapping[currentPresaleRound].minimumUSDPurchase,\n            presaleDetailsMapping[currentPresaleRound].maximumPresaleAmount\n        );\n    }\n\n    /**\n     * Execute the Presale of ALPS Token in exchange of other token\n     *\n     * @dev _paymentTokenAddress - Address of the token use to pay (address 0 is for native token)\n     * @dev _amount - Amount denominated in the `paymentTokenAddress` being paid\n     * @dev _aggregatorTokenAddress - Use to convert price with Chainlink\n     */\n    function presaleTokens(\n        address _paymentTokenAddress,\n        uint256 _amount,\n        address // Aggregator Address is unused here\n    ) public payable nonReentrant {\n        (uint256 currentPresaleStartingTime, , , ) = getCurrentPresaleDetails();\n\n        // Check whether the presale round is still open\n        if (block.timestamp >= currentPresaleStartingTime)\n            revert presaleRoundClosed();\n\n        // Check whether token is valid\n        if (presaleTokenAvaliblilityMapping[_paymentTokenAddress])\n            revert presaleTokenNotAvailable();\n\n        // Convert the token with Chainlink Price Feed\n        IERC20Custom token = IERC20Custom(tokenAddress);\n        uint256 presaleAmount = 10**18;\n\n        // Receive the payment token and transfer it to another address\n        if (_paymentTokenAddress == address(0)) {\n            if (msg.value < _amount) {\n                revert presaleNativeTokenPaymentNotSufficient();\n            } else {\n                presaleReceiver.transfer(_amount);\n\n                // in case you deployed the contract with more ether than required,\n                // transfer the remaining ether back to yourself\n                payable(msg.sender).transfer(address(this).balance);\n            }\n        } else {\n            IERC20 paymentToken = IERC20(_paymentTokenAddress);\n            paymentToken.transferFrom(msg.sender, presaleReceiver, _amount);\n        }\n\n        // Send ALPS token to `msg.sender`\n        token.mint(msg.sender, presaleAmount);\n        emit TokenPresold(\n            msg.sender,\n            _paymentTokenAddress,\n            presaleAmount,\n            _amount\n        );\n    }\n\n    /**\n     * Set new Presale Receiver Address\n     *\n     * @dev _newPresaleReceiver - Address that'll receive the presale payment token\n     */\n    function setPresaleReceiver(address payable _newPresaleReceiver)\n        public\n        onlyOwner\n    {\n        presaleReceiver = _newPresaleReceiver;\n    }\n\n    /**\n     * Set new Presale Token Address\n     *\n     * @dev _newTokenAddress - Address of token that'll be presaled\n     */\n    function setPresaleTokenAddress(address _newTokenAddress) public onlyOwner {\n        tokenAddress = _newTokenAddress;\n    }\n\n    /**\n     * Creating/Updating a presale round information\n     *\n     * @dev _presaleRound - The presale round chosen\n     * @dev _startingTime - The starting Presale time\n     * @dev _usdPrice - The USD Price of the Token in certain Presale Round\n     * @dev _minimumUSDPurchase - The minimum USD amount to purchase the token\n     * @dev _maximumPresaleAmount - The maximum amount of token available for a presale round\n     */\n    function setPresaleRound(\n        uint256 _presaleRound,\n        uint256 _startingTime,\n        uint256 _usdPrice,\n        uint256 _minimumUSDPurchase,\n        uint256 _maximumPresaleAmount\n    ) public onlyOwner {\n        uint256 presaleStartingTime = presaleDetailsMapping[_presaleRound]\n            .startingTime;\n        uint256 presaleUSDPrice = presaleDetailsMapping[_presaleRound].usdPrice;\n        uint256 presaleMinimumUSDPurchase = presaleDetailsMapping[_presaleRound]\n            .minimumUSDPurchase;\n        uint256 presaleMaximumPresaleAmount = presaleDetailsMapping[\n            _presaleRound\n        ].maximumPresaleAmount;\n\n        // Increment the total round counter when new presale is created\n        if (\n            presaleStartingTime == 0 &&\n            presaleUSDPrice == 0 &&\n            presaleMinimumUSDPurchase == 0 &&\n            presaleMaximumPresaleAmount == 0\n        ) totalPresaleRound.increment();\n\n        // Starting time has to be:\n        // - larger than zero\n        // - larger than previous round starting time\n        if (\n            _startingTime == 0 ||\n            (_presaleRound != 0 &&\n                _startingTime <\n                presaleDetailsMapping[_presaleRound - 1].startingTime)\n        ) revert presaleStartingTimeInvalid();\n\n        // These values given must be larger than zero\n        if (_usdPrice == 0) revert presaleUSDPriceInvalid();\n        if (_minimumUSDPurchase == 0) revert presaleMimumumUSDPurchaseInvalid();\n        if (_maximumPresaleAmount == 0)\n            revert presaleMaximumPresaleAmountInvalid();\n\n        presaleDetailsMapping[_presaleRound].startingTime = _startingTime;\n        presaleDetailsMapping[_presaleRound].usdPrice = _usdPrice;\n        presaleDetailsMapping[_presaleRound]\n            .minimumUSDPurchase = _minimumUSDPurchase;\n        presaleDetailsMapping[_presaleRound]\n            .maximumPresaleAmount = _maximumPresaleAmount;\n    }\n}\n",
  "sourcePath": "/Users/yosephks/Documents/GitHub/alpsfinance-smart-contracts/contracts/presale/mocks/MockPresale.sol",
  "compiler": {
    "name": "solc",
    "version": "0.8.11+commit.d7f03943.Emscripten.clang"
  },
  "schemaVersion": "3.4.4",
  "updatedAt": "2022-02-27T15:57:25.892Z",
  "devdoc": {
    "kind": "dev",
    "methods": {
      "owner()": {
        "details": "Returns the address of the current owner."
      },
      "presaleTokens(address,uint256,address)": {
        "details": "_paymentTokenAddress - Address of the token use to pay (address 0 is for native token)_amount - Amount denominated in the `paymentTokenAddress` being paid_aggregatorTokenAddress - Use to convert price with Chainlink"
      },
      "renounceOwnership()": {
        "details": "Leaves the contract without owner. It will not be possible to call `onlyOwner` functions anymore. Can only be called by the current owner. NOTE: Renouncing ownership will leave the contract without an owner, thereby removing any functionality that is only available to the owner."
      },
      "setPresaleReceiver(address)": {
        "details": "_newPresaleReceiver - Address that'll receive the presale payment token"
      },
      "setPresaleRound(uint256,uint256,uint256,uint256,uint256)": {
        "details": "_presaleRound - The presale round chosen_startingTime - The starting Presale time_usdPrice - The USD Price of the Token in certain Presale Round_minimumUSDPurchase - The minimum USD amount to purchase the token_maximumPresaleAmount - The maximum amount of token available for a presale round"
      },
      "setPresaleTokenAddress(address)": {
        "details": "_newTokenAddress - Address of token that'll be presaled"
      },
      "transferOwnership(address)": {
        "details": "Transfers ownership of the contract to a new account (`newOwner`). Can only be called by the current owner."
      }
    },
    "version": 1
  },
  "userdoc": {
    "kind": "user",
    "methods": {
      "getCurrentPresaleDetails()": {
        "notice": "Getting the Current Presale Details, including: - Starting Time - USD Price - Minimum USD Purchase - Maximum Presale Amount"
      },
      "getCurrentPresaleRound()": {
        "notice": "Get Current Presale Round"
      },
      "presaleTokens(address,uint256,address)": {
        "notice": "Execute the Presale of ALPS Token in exchange of other token"
      },
      "setPresaleReceiver(address)": {
        "notice": "Set new Presale Receiver Address"
      },
      "setPresaleRound(uint256,uint256,uint256,uint256,uint256)": {
        "notice": "Creating/Updating a presale round information"
      },
      "setPresaleTokenAddress(address)": {
        "notice": "Set new Presale Token Address"
      }
    },
    "version": 1
  }
}