{
  "contractName": "MockPresale",
  "abi": [
    {
      "inputs": [
        {
          "internalType": "address",
          "name": "_tokenAddress",
          "type": "address"
        },
        {
          "internalType": "address payable",
          "name": "_presaleReceiver",
          "type": "address"
        }
      ],
      "stateMutability": "nonpayable",
      "type": "constructor"
    },
    {
      "inputs": [],
      "name": "presaleAmountOverdemand",
      "type": "error"
    },
    {
      "inputs": [],
      "name": "presaleMaximumPresaleAmountInvalid",
      "type": "error"
    },
    {
      "inputs": [],
      "name": "presaleMimumumUSDPurchaseInvalid",
      "type": "error"
    },
    {
      "inputs": [],
      "name": "presaleNativeTokenPaymentNotSufficient",
      "type": "error"
    },
    {
      "inputs": [],
      "name": "presaleNonZeroAddressInvalid",
      "type": "error"
    },
    {
      "inputs": [],
      "name": "presaleRoundClosed",
      "type": "error"
    },
    {
      "inputs": [],
      "name": "presaleStartingTimeInvalid",
      "type": "error"
    },
    {
      "inputs": [],
      "name": "presaleTokenNotAvailable",
      "type": "error"
    },
    {
      "inputs": [],
      "name": "presaleUSDPriceInvalid",
      "type": "error"
    },
    {
      "inputs": [],
      "name": "presaleUSDPurchaseNotSufficient",
      "type": "error"
    },
    {
      "anonymous": false,
      "inputs": [
        {
          "indexed": true,
          "internalType": "address",
          "name": "previousOwner",
          "type": "address"
        },
        {
          "indexed": true,
          "internalType": "address",
          "name": "newOwner",
          "type": "address"
        }
      ],
      "name": "OwnershipTransferred",
      "type": "event"
    },
    {
      "anonymous": false,
      "inputs": [
        {
          "indexed": false,
          "internalType": "address",
          "name": "tokenAddress",
          "type": "address"
        },
        {
          "indexed": false,
          "internalType": "bool",
          "name": "tokenAvailability",
          "type": "bool"
        },
        {
          "indexed": false,
          "internalType": "address",
          "name": "aggregatorAddress",
          "type": "address"
        }
      ],
      "name": "PresalePaymentTokenUpdated",
      "type": "event"
    },
    {
      "anonymous": false,
      "inputs": [
        {
          "indexed": false,
          "internalType": "address",
          "name": "receiverAddress",
          "type": "address"
        }
      ],
      "name": "PresaleReceiverUpdated",
      "type": "event"
    },
    {
      "anonymous": false,
      "inputs": [
        {
          "indexed": true,
          "internalType": "uint256",
          "name": "presaleRound",
          "type": "uint256"
        },
        {
          "indexed": false,
          "internalType": "uint256",
          "name": "startingTime",
          "type": "uint256"
        },
        {
          "indexed": false,
          "internalType": "uint256",
          "name": "usdPrice",
          "type": "uint256"
        },
        {
          "indexed": false,
          "internalType": "uint256",
          "name": "minimumUSDPurchase",
          "type": "uint256"
        },
        {
          "indexed": false,
          "internalType": "uint256",
          "name": "maximumPresaleAmount",
          "type": "uint256"
        }
      ],
      "name": "PresaleRoundUpdated",
      "type": "event"
    },
    {
      "anonymous": false,
      "inputs": [
        {
          "indexed": false,
          "internalType": "address",
          "name": "tokenAddress",
          "type": "address"
        }
      ],
      "name": "PresaleTokenUpdated",
      "type": "event"
    },
    {
      "anonymous": false,
      "inputs": [
        {
          "indexed": true,
          "internalType": "address",
          "name": "to",
          "type": "address"
        },
        {
          "indexed": true,
          "internalType": "address",
          "name": "paymentTokenAddress",
          "type": "address"
        },
        {
          "indexed": false,
          "internalType": "uint256",
          "name": "amount",
          "type": "uint256"
        },
        {
          "indexed": false,
          "internalType": "uint256",
          "name": "paymentTokenamount",
          "type": "uint256"
        }
      ],
      "name": "TokenPresold",
      "type": "event"
    },
    {
      "inputs": [],
      "name": "owner",
      "outputs": [
        {
          "internalType": "address",
          "name": "",
          "type": "address"
        }
      ],
      "stateMutability": "view",
      "type": "function"
    },
    {
      "inputs": [
        {
          "internalType": "uint256",
          "name": "",
          "type": "uint256"
        }
      ],
      "name": "presaleAmountByRoundMapping",
      "outputs": [
        {
          "internalType": "uint256",
          "name": "",
          "type": "uint256"
        }
      ],
      "stateMutability": "view",
      "type": "function"
    },
    {
      "inputs": [
        {
          "internalType": "address",
          "name": "",
          "type": "address"
        }
      ],
      "name": "presalePaymentTokenMapping",
      "outputs": [
        {
          "internalType": "bool",
          "name": "available",
          "type": "bool"
        },
        {
          "internalType": "address",
          "name": "aggregatorAddress",
          "type": "address"
        }
      ],
      "stateMutability": "view",
      "type": "function"
    },
    {
      "inputs": [],
      "name": "presaleReceiver",
      "outputs": [
        {
          "internalType": "address payable",
          "name": "",
          "type": "address"
        }
      ],
      "stateMutability": "view",
      "type": "function"
    },
    {
      "inputs": [],
      "name": "renounceOwnership",
      "outputs": [],
      "stateMutability": "nonpayable",
      "type": "function"
    },
    {
      "inputs": [],
      "name": "tokenAddress",
      "outputs": [
        {
          "internalType": "address",
          "name": "",
          "type": "address"
        }
      ],
      "stateMutability": "view",
      "type": "function"
    },
    {
      "inputs": [],
      "name": "totalPresaleRound",
      "outputs": [
        {
          "internalType": "uint256",
          "name": "_value",
          "type": "uint256"
        }
      ],
      "stateMutability": "view",
      "type": "function"
    },
    {
      "inputs": [
        {
          "internalType": "address",
          "name": "newOwner",
          "type": "address"
        }
      ],
      "name": "transferOwnership",
      "outputs": [],
      "stateMutability": "nonpayable",
      "type": "function"
    },
    {
      "inputs": [],
      "name": "getTotalPresaleRound",
      "outputs": [
        {
          "internalType": "uint256",
          "name": "",
          "type": "uint256"
        }
      ],
      "stateMutability": "view",
      "type": "function"
    },
    {
      "inputs": [
        {
          "internalType": "uint256",
          "name": "_presaleRound",
          "type": "uint256"
        }
      ],
      "name": "getPresaleAmountByRound",
      "outputs": [
        {
          "internalType": "uint256",
          "name": "",
          "type": "uint256"
        }
      ],
      "stateMutability": "view",
      "type": "function"
    },
    {
      "inputs": [],
      "name": "getTotalPresaleAmount",
      "outputs": [
        {
          "internalType": "uint256",
          "name": "",
          "type": "uint256"
        }
      ],
      "stateMutability": "view",
      "type": "function"
    },
    {
      "inputs": [],
      "name": "getCurrentPresaleRound",
      "outputs": [
        {
          "internalType": "uint256",
          "name": "",
          "type": "uint256"
        }
      ],
      "stateMutability": "view",
      "type": "function"
    },
    {
      "inputs": [],
      "name": "getCurrentPresaleDetails",
      "outputs": [
        {
          "internalType": "uint256",
          "name": "",
          "type": "uint256"
        },
        {
          "internalType": "uint256",
          "name": "",
          "type": "uint256"
        },
        {
          "internalType": "uint256",
          "name": "",
          "type": "uint256"
        },
        {
          "internalType": "uint256",
          "name": "",
          "type": "uint256"
        }
      ],
      "stateMutability": "view",
      "type": "function"
    },
    {
      "inputs": [
        {
          "internalType": "address",
          "name": "_paymentTokenAddress",
          "type": "address"
        },
        {
          "internalType": "uint256",
          "name": "_amount",
          "type": "uint256"
        }
      ],
      "name": "presaleTokens",
      "outputs": [],
      "stateMutability": "payable",
      "type": "function"
    },
    {
      "inputs": [
        {
          "internalType": "address payable",
          "name": "_newPresaleReceiver",
          "type": "address"
        }
      ],
      "name": "setPresaleReceiver",
      "outputs": [],
      "stateMutability": "nonpayable",
      "type": "function"
    },
    {
      "inputs": [
        {
          "internalType": "address",
          "name": "_newTokenAddress",
          "type": "address"
        }
      ],
      "name": "setPresaleTokenAddress",
      "outputs": [],
      "stateMutability": "nonpayable",
      "type": "function"
    },
    {
      "inputs": [
        {
          "internalType": "address",
          "name": "_tokenAddress",
          "type": "address"
        },
        {
          "internalType": "bool",
          "name": "_tokenAvailability",
          "type": "bool"
        },
        {
          "internalType": "address",
          "name": "_aggregatorAddress",
          "type": "address"
        }
      ],
      "name": "setPresalePaymentToken",
      "outputs": [],
      "stateMutability": "nonpayable",
      "type": "function"
    },
    {
      "inputs": [
        {
          "internalType": "uint256",
          "name": "_presaleRound",
          "type": "uint256"
        },
        {
          "internalType": "uint256",
          "name": "_startingTime",
          "type": "uint256"
        },
        {
          "internalType": "uint256",
          "name": "_usdPrice",
          "type": "uint256"
        },
        {
          "internalType": "uint256",
          "name": "_minimumUSDPurchase",
          "type": "uint256"
        },
        {
          "internalType": "uint256",
          "name": "_maximumPresaleAmount",
          "type": "uint256"
        }
      ],
      "name": "setPresaleRound",
      "outputs": [],
      "stateMutability": "nonpayable",
      "type": "function"
    }
  ],
  "bytecode": "0x608060405234801561001057600080fd5b5060405161128e38038061128e83398101604081905261002f916100d5565b6100383361006d565b60018055600380546001600160a01b039384166001600160a01b0319918216179091556004805492909316911617905561010f565b600080546001600160a01b038381166001600160a01b0319831681178455604051919092169283917f8be0079c531659141344cd1fd0a4f28419497f9722a3daafe3b4186f6b6457e09190a35050565b6001600160a01b03811681146100d257600080fd5b50565b600080604083850312156100e857600080fd5b82516100f3816100bd565b6020840151909250610104816100bd565b809150509250929050565b6111708061011e6000396000f3fe6080604052600436106101095760003560e01c8063962de5c011610095578063d958e00111610064578063d958e001146102ec578063ec2b352314610319578063efca90491461034e578063f2fde38b14610361578063feda925b1461038157600080fd5b8063962de5c0146102755780639d76ea581461028c578063c1436415146102ac578063c829d1db146102cc57600080fd5b80633c0c134d116100dc5780633c0c134d1461018d578063715018a6146101af578063736e38ef146101c45780638da5cb5b146101e45780638e7d41b71461021657600080fd5b80630aca575a1461010e5780631c63f0ed14610136578063392f911b1461014b578063398dcd2614610178575b600080fd5b34801561011a57600080fd5b506101236103a1565b6040519081526020015b60405180910390f35b34801561014257600080fd5b506101236103e3565b34801561015757600080fd5b50610123610166366004610d57565b60066020526000908152604090205481565b34801561018457600080fd5b50610123610438565b34801561019957600080fd5b506101ad6101a8366004610d85565b610448565b005b3480156101bb57600080fd5b506101ad6104f8565b3480156101d057600080fd5b506101ad6101df366004610db0565b61052e565b3480156101f057600080fd5b506000546001600160a01b03165b6040516001600160a01b03909116815260200161012d565b34801561022257600080fd5b50610256610231366004610d85565b60076020526000908152604090205460ff81169061010090046001600160a01b031682565b6040805192151583526001600160a01b0390911660208301520161012d565b34801561028157600080fd5b506002546101239081565b34801561029857600080fd5b506003546101fe906001600160a01b031681565b3480156102b857600080fd5b506004546101fe906001600160a01b031681565b3480156102d857600080fd5b506101ad6102e7366004610dfb565b61060b565b3480156102f857600080fd5b50610123610307366004610d57565b60009081526006602052604090205490565b34801561032557600080fd5b5061032e6107b5565b60408051948552602085019390935291830152606082015260800161012d565b6101ad61035c366004610e36565b6107f4565b34801561036d57600080fd5b506101ad61037c366004610d85565b610b5a565b34801561038d57600080fd5b506101ad61039c366004610d85565b610bf5565b600080805b6002548110156103dd576000818152600660205260409020546103c99083610e78565b9150806103d581610e90565b9150506103a6565b50919050565b60008060016103f160025490565b6103fb9190610eab565b90505b801561043057600081815260056020526040902054421061041e57919050565b8061042881610ec2565b9150506103fe565b506000905090565b600061044360025490565b905090565b6000546001600160a01b0316331461047b5760405162461bcd60e51b815260040161047290610ed9565b60405180910390fd5b806001600160a01b0381166104a35760405163120d99cb60e11b815260040160405180910390fd5b600380546001600160a01b0319166001600160a01b0384169081179091556040519081527fee1a99df2103f0b252dbc99d29264423a2ff1bb9c2f60dc19903e2ce82989b8b9060200160405180910390a15050565b6000546001600160a01b031633146105225760405162461bcd60e51b815260040161047290610ed9565b61052c6000610c73565b565b6000546001600160a01b031633146105585760405162461bcd60e51b815260040161047290610ed9565b806001600160a01b0381166105805760405163120d99cb60e11b815260040160405180910390fd5b6001600160a01b0384811660008181526007602090815260409182902080546001600160a81b031916881515610100600160a81b0319811691909117610100968916968702179091558251938452908301528101919091527f0808e27b4009f59d9d966410b0eead8697b72a10434291d723d6200ab3f343e59060600160405180910390a150505050565b6000546001600160a01b031633146106355760405162461bcd60e51b815260040161047290610ed9565b60008581526005602052604090208054600182015460028301546003909301549192909183158015610665575082155b801561066f575081155b8015610679575080155b1561068c5761068c600280546001019055565b8715806106c2575088158015906106c25750600560006106ad60018c610eab565b81526020019081526020016000206000015488105b156106e057604051633863ce1d60e01b815260040160405180910390fd5b866106fe576040516329198c7f60e11b815260040160405180910390fd5b8561071c57604051630746844f60e31b815260040160405180910390fd5b8461073a57604051639f2bfa4160e01b815260040160405180910390fd5b6000898152600560209081526040918290208a8155600181018a90556002810189905560030187905581518a81529081018990529081018790526060810186905289907f5460f1c76402b41ef0b7902b6b577fd351a2a6bc531d4a246d8be68dde775a2b9060800160405180910390a2505050505050505050565b60008060008060006107c56103e3565b600090815260056020526040902080546001820154600283015460039093015491989097509195509350915050565b600260015414156108475760405162461bcd60e51b815260206004820152601f60248201527f5265656e7472616e637947756172643a207265656e7472616e742063616c6c006044820152606401610472565b600260015560006108566103e3565b90506000806000806108666107b5565b93509350935093508342101561088f576040516304d61c6f60e41b815260040160405180910390fd5b6001600160a01b03871660009081526007602052604090205460ff166108c8576040516303003c8560e21b815260040160405180910390fd5b6003546001600160a01b031660006108e9601e670de0b6b3a7640000610cc3565b90508381101561090c5760405163196d4a1d60e01b815260040160405180910390fd5b600061092461091b8388610cd8565b60006012610ce4565b6000898152600660205260409020549091506109409085610eab565b811115610960576040516317b1337360e31b815260040160405180910390fd5b6000888152600660205260408120805483929061097e908490610e78565b90915550506001600160a01b038a16610a1f57883410156109b25760405163854a356160e01b815260040160405180910390fd5b6004546040516001600160a01b03909116908a156108fc02908b906000818181858888f193505050501580156109ec573d6000803e3d6000fd5b5060405133904780156108fc02916000818181858888f19350505050158015610a19573d6000803e3d6000fd5b50610aa4565b600480546040516323b872dd60e01b815233928101929092526001600160a01b039081166024830152604482018b90528b91908216906323b872dd906064016020604051808303816000875af1158015610a7d573d6000803e3d6000fd5b505050506040513d601f19601f82011682018060405250810190610aa19190610f0e565b50505b6040516340c10f1960e01b8152336004820152602481018290526001600160a01b038416906340c10f1990604401600060405180830381600087803b158015610aec57600080fd5b505af1158015610b00573d6000803e3d6000fd5b505060408051848152602081018d90526001600160a01b038e1693503392507f69902df1d9bae4b2a08b9e9d689906299b4b15ac10fbbf560d019b5c73fd35d6910160405180910390a35050600180555050505050505050565b6000546001600160a01b03163314610b845760405162461bcd60e51b815260040161047290610ed9565b6001600160a01b038116610be95760405162461bcd60e51b815260206004820152602660248201527f4f776e61626c653a206e6577206f776e657220697320746865207a65726f206160448201526564647265737360d01b6064820152608401610472565b610bf281610c73565b50565b6000546001600160a01b03163314610c1f5760405162461bcd60e51b815260040161047290610ed9565b600480546001600160a01b0319166001600160a01b0383169081179091556040519081527fb3df4b02428d73d6993c686e78b4a35e95f5be7d084aaee9277115379dc4ca939060200160405180910390a150565b600080546001600160a01b038381166001600160a01b0319831681178455604051919092169283917f8be0079c531659141344cd1fd0a4f28419497f9722a3daafe3b4186f6b6457e09190a35050565b6000610ccf8284610f2b565b90505b92915050565b6000610ccf8284610f60565b60008160ff168360ff161015610d1d57610cfe8383610f74565b610d0c9060ff16600a61107b565b610d169085611087565b9050610d50565b8160ff168360ff161115610d4d57610d358284610f74565b610d439060ff16600a61107b565b610d16908561110c565b50825b9392505050565b600060208284031215610d6957600080fd5b5035919050565b6001600160a01b0381168114610bf257600080fd5b600060208284031215610d9757600080fd5b8135610d5081610d70565b8015158114610bf257600080fd5b600080600060608486031215610dc557600080fd5b8335610dd081610d70565b92506020840135610de081610da2565b91506040840135610df081610d70565b809150509250925092565b600080600080600060a08688031215610e1357600080fd5b505083359560208501359550604085013594606081013594506080013592509050565b60008060408385031215610e4957600080fd5b8235610e5481610d70565b946020939093013593505050565b634e487b7160e01b600052601160045260246000fd5b60008219821115610e8b57610e8b610e62565b500190565b6000600019821415610ea457610ea4610e62565b5060010190565b600082821015610ebd57610ebd610e62565b500390565b600081610ed157610ed1610e62565b506000190190565b6020808252818101527f4f776e61626c653a2063616c6c6572206973206e6f7420746865206f776e6572604082015260600190565b600060208284031215610f2057600080fd5b8151610d5081610da2565b6000816000190483118215151615610f4557610f45610e62565b500290565b634e487b7160e01b600052601260045260246000fd5b600082610f6f57610f6f610f4a565b500490565b600060ff821660ff841680821015610f8e57610f8e610e62565b90039392505050565b600181815b80851115610fd2578160001904821115610fb857610fb8610e62565b80851615610fc557918102915b93841c9390800290610f9c565b509250929050565b600082610fe957506001610cd2565b81610ff657506000610cd2565b816001811461100c576002811461101657611032565b6001915050610cd2565b60ff84111561102757611027610e62565b50506001821b610cd2565b5060208310610133831016604e8410600b8410161715611055575081810a610cd2565b61105f8383610f97565b806000190482111561107357611073610e62565b029392505050565b6000610ccf8383610fda565b60006001600160ff1b03818413828413808216868404861116156110ad576110ad610e62565b600160ff1b60008712828116878305891216156110cc576110cc610e62565b600087129250878205871284841616156110e8576110e8610e62565b878505871281841616156110fe576110fe610e62565b505050929093029392505050565b60008261111b5761111b610f4a565b600160ff1b82146000198414161561113557611135610e62565b50059056fea2646970667358221220803d0802c1e10c22e1b6edaa7970ed12fbdcf0f0f390fd5de18acfd2b7ae6fc364736f6c634300080b0033",
  "immutableReferences": {},
  "source": "// SPDX-License-Identifier: AGPL-3.0\n\npragma solidity ^0.8.11;\n\nimport \"@openzeppelin/contracts/access/Ownable.sol\";\nimport \"@openzeppelin/contracts/token/ERC20/IERC20.sol\";\nimport \"@openzeppelin/contracts/utils/Counters.sol\";\nimport \"@openzeppelin/contracts/utils/math/SafeMath.sol\";\nimport \"@openzeppelin/contracts/security/ReentrancyGuard.sol\";\nimport \"../../libraries/PriceConverter.sol\";\nimport \"../../token/interfaces/IERC20Custom.sol\";\n\ncontract MockPresale is Ownable, ReentrancyGuard {\n    using Counters for Counters.Counter;\n    using SafeMath for uint256;\n\n    struct PresaleData {\n        uint256 startingTime;\n        uint256 usdPrice;\n        uint256 minimumUSDPurchase;\n        uint256 maximumPresaleAmount;\n    }\n    struct PresalePaymentTokenData {\n        bool available;\n        address aggregatorAddress;\n    }\n\n    event TokenPresold(\n        address indexed to,\n        address indexed paymentTokenAddress,\n        uint256 amount,\n        uint256 paymentTokenamount\n    );\n    event PresaleRoundUpdated(\n        uint256 indexed presaleRound,\n        uint256 startingTime,\n        uint256 usdPrice,\n        uint256 minimumUSDPurchase,\n        uint256 maximumPresaleAmount\n    );\n    event PresaleReceiverUpdated(address receiverAddress);\n    event PresalePaymentTokenUpdated(\n        address tokenAddress,\n        bool tokenAvailability,\n        address aggregatorAddress\n    );\n    event PresaleTokenUpdated(address tokenAddress);\n\n    Counters.Counter public totalPresaleRound;\n    address public tokenAddress;\n    address payable public presaleReceiver;\n\n    // Mapping `presaleRound` to its data details\n    mapping(uint256 => PresaleData) presaleDetailsMapping;\n    mapping(uint256 => uint256) public presaleAmountByRoundMapping;\n    mapping(address => PresalePaymentTokenData)\n        public presalePaymentTokenMapping;\n\n    error presaleRoundClosed();\n    error presaleTokenNotAvailable();\n    error presaleNativeTokenPaymentNotSufficient();\n    error presaleStartingTimeInvalid();\n    error presaleUSDPriceInvalid();\n    error presaleMimumumUSDPurchaseInvalid();\n    error presaleMaximumPresaleAmountInvalid();\n    error presaleUSDPurchaseNotSufficient();\n    error presaleAmountOverdemand();\n    error presaleNonZeroAddressInvalid();\n\n    modifier onlyNonZeroAddress(address _address) {\n        if (_address == address(0)) revert presaleNonZeroAddressInvalid();\n        _;\n    }\n\n    constructor(address _tokenAddress, address payable _presaleReceiver) {\n        tokenAddress = _tokenAddress;\n        presaleReceiver = _presaleReceiver;\n    }\n\n    /**\n     * Get total amount of presale round\n     */\n    function getTotalPresaleRound() public view returns (uint256) {\n        return totalPresaleRound.current();\n    }\n\n    /**\n     * Get presale total amount By presale round\n     *\n     * @dev _presaleRound - The presale round chosen\n     */\n    function getPresaleAmountByRound(uint256 _presaleRound)\n        public\n        view\n        returns (uint256)\n    {\n        return presaleAmountByRoundMapping[_presaleRound];\n    }\n\n    /**\n     * Get total amount of presale from all rounds\n     */\n    function getTotalPresaleAmount() public view returns (uint256) {\n        uint256 totalPresale = 0;\n        for (\n            uint256 presaleRound = 0;\n            presaleRound < totalPresaleRound.current();\n            presaleRound++\n        ) {\n            totalPresale += presaleAmountByRoundMapping[presaleRound];\n        }\n\n        return totalPresale;\n    }\n\n    /**\n     * Get Current Presale Round\n     */\n    function getCurrentPresaleRound() public view returns (uint256) {\n        for (\n            uint256 presaleRound = totalPresaleRound.current() - 1;\n            presaleRound > 0;\n            presaleRound--\n        ) {\n            if (\n                presaleDetailsMapping[presaleRound].startingTime <=\n                block.timestamp\n            ) {\n                return presaleRound;\n            }\n        }\n\n        return 0;\n    }\n\n    /**\n     * Getting the Current Presale Details, including:\n     * - Starting Time\n     * - USD Price\n     * - Minimum USD Purchase\n     * - Maximum Presale Amount\n     */\n    function getCurrentPresaleDetails()\n        public\n        view\n        returns (\n            uint256,\n            uint256,\n            uint256,\n            uint256\n        )\n    {\n        uint256 currentPresaleRound = getCurrentPresaleRound();\n        return (\n            presaleDetailsMapping[currentPresaleRound].startingTime,\n            presaleDetailsMapping[currentPresaleRound].usdPrice,\n            presaleDetailsMapping[currentPresaleRound].minimumUSDPurchase,\n            presaleDetailsMapping[currentPresaleRound].maximumPresaleAmount\n        );\n    }\n\n    /**\n     * Execute the Presale of ALPS Token in exchange of other token\n     *\n     * @dev _paymentTokenAddress - Address of the token use to pay (address 0 is for native token)\n     * @dev _amount - Amount denominated in the `paymentTokenAddress` being paid\n     */\n    function presaleTokens(address _paymentTokenAddress, uint256 _amount)\n        public\n        payable\n        nonReentrant\n    {\n        uint256 currentPresaleRound = getCurrentPresaleRound();\n        (\n            uint256 currentPresaleStartingTime,\n            uint256 currentPresalePrice,\n            uint256 currentPresaleMinimumUSDPurchase,\n            uint256 currentPresaleMaximumPresaleAmount\n        ) = getCurrentPresaleDetails();\n\n        // Check whether the presale round is still open\n        if (block.timestamp < currentPresaleStartingTime)\n            revert presaleRoundClosed();\n\n        // Check whether token is valid\n        if (!presalePaymentTokenMapping[_paymentTokenAddress].available)\n            revert presaleTokenNotAvailable();\n\n        // Convert the token with Chainlink Price Feed\n        IERC20Custom token = IERC20Custom(tokenAddress);\n\n        uint256 presaleUSDAmount = SafeMath.mul(30, 10**18);\n\n        if (presaleUSDAmount < currentPresaleMinimumUSDPurchase)\n            revert presaleUSDPurchaseNotSufficient();\n\n        uint256 presaleAmount = uint256(\n            PriceConverter.scalePrice(\n                int256(SafeMath.div(presaleUSDAmount, currentPresalePrice)),\n                0,\n                18\n            )\n        );\n\n        if (\n            presaleAmount >\n            currentPresaleMaximumPresaleAmount -\n                presaleAmountByRoundMapping[currentPresaleRound]\n        ) revert presaleAmountOverdemand();\n\n        presaleAmountByRoundMapping[currentPresaleRound] += presaleAmount;\n\n        // Receive the payment token and transfer it to another address\n        if (_paymentTokenAddress == address(0)) {\n            if (msg.value < _amount) {\n                revert presaleNativeTokenPaymentNotSufficient();\n            } else {\n                presaleReceiver.transfer(_amount);\n\n                // in case you deployed the contract with more ether than required,\n                // transfer the remaining ether back to yourself\n                payable(msg.sender).transfer(address(this).balance);\n            }\n        } else {\n            IERC20 paymentToken = IERC20(_paymentTokenAddress);\n            paymentToken.transferFrom(msg.sender, presaleReceiver, _amount);\n        }\n\n        // Send ALPS token to `msg.sender`\n        token.mint(msg.sender, presaleAmount);\n        emit TokenPresold(\n            msg.sender,\n            _paymentTokenAddress,\n            presaleAmount,\n            _amount\n        );\n    }\n\n    /**\n     * Set new Presale Receiver Address\n     *\n     * @dev _newPresaleReceiver - Address that'll receive the presale payment token\n     */\n    function setPresaleReceiver(address payable _newPresaleReceiver)\n        public\n        onlyOwner\n    {\n        presaleReceiver = _newPresaleReceiver;\n\n        emit PresaleReceiverUpdated(_newPresaleReceiver);\n    }\n\n    /**\n     * Set new Presale Token Address\n     *\n     * @dev _newTokenAddress - Address of token that'll be presaled\n     */\n    function setPresaleTokenAddress(address _newTokenAddress)\n        public\n        onlyOwner\n        onlyNonZeroAddress(_newTokenAddress)\n    {\n        tokenAddress = _newTokenAddress;\n\n        emit PresaleTokenUpdated(_newTokenAddress);\n    }\n\n    /**\n     * Set Presale Payment Token Info\n     *\n     * @dev _tokenAddress - Token Address use to purchase Presale\n     * @dev _tokenAvailability - Indication whether Token Address can be used for Presale\n     * @dev _aggregatorAddress - Chainlink's Aggregator Address to determine the USD price (for `presaleTokens`)\n     */\n    function setPresalePaymentToken(\n        address _tokenAddress,\n        bool _tokenAvailability,\n        address _aggregatorAddress\n    ) public onlyOwner onlyNonZeroAddress(_aggregatorAddress) {\n        presalePaymentTokenMapping[_tokenAddress]\n            .available = _tokenAvailability;\n        presalePaymentTokenMapping[_tokenAddress]\n            .aggregatorAddress = _aggregatorAddress;\n\n        emit PresalePaymentTokenUpdated(\n            _tokenAddress,\n            _tokenAvailability,\n            _aggregatorAddress\n        );\n    }\n\n    /**\n     * Creating/Updating a presale round information\n     *\n     * @dev _presaleRound - The presale round chosen\n     * @dev _startingTime - The starting Presale time\n     * @dev _usdPrice - The USD Price of the Token in certain Presale Round\n     * @dev _minimumUSDPurchase - The minimum USD amount to purchase the token\n     * @dev _maximumPresaleAmount - The maximum amount of token available for a presale round\n     */\n    function setPresaleRound(\n        uint256 _presaleRound,\n        uint256 _startingTime,\n        uint256 _usdPrice,\n        uint256 _minimumUSDPurchase,\n        uint256 _maximumPresaleAmount\n    ) public onlyOwner {\n        uint256 presaleStartingTime = presaleDetailsMapping[_presaleRound]\n            .startingTime;\n        uint256 presaleUSDPrice = presaleDetailsMapping[_presaleRound].usdPrice;\n        uint256 presaleMinimumUSDPurchase = presaleDetailsMapping[_presaleRound]\n            .minimumUSDPurchase;\n        uint256 presaleMaximumPresaleAmount = presaleDetailsMapping[\n            _presaleRound\n        ].maximumPresaleAmount;\n\n        // Increment the total round counter when new presale is created\n        if (\n            presaleStartingTime == 0 &&\n            presaleUSDPrice == 0 &&\n            presaleMinimumUSDPurchase == 0 &&\n            presaleMaximumPresaleAmount == 0\n        ) totalPresaleRound.increment();\n\n        // Starting time has to be:\n        // - larger than zero\n        // - larger than previous round starting time\n        if (\n            _startingTime == 0 ||\n            (_presaleRound != 0 &&\n                _startingTime <\n                presaleDetailsMapping[_presaleRound - 1].startingTime)\n        ) revert presaleStartingTimeInvalid();\n\n        // These values given must be larger than zero\n        if (_usdPrice == 0) revert presaleUSDPriceInvalid();\n        if (_minimumUSDPurchase == 0) revert presaleMimumumUSDPurchaseInvalid();\n        if (_maximumPresaleAmount == 0)\n            revert presaleMaximumPresaleAmountInvalid();\n\n        presaleDetailsMapping[_presaleRound].startingTime = _startingTime;\n        presaleDetailsMapping[_presaleRound].usdPrice = _usdPrice;\n        presaleDetailsMapping[_presaleRound]\n            .minimumUSDPurchase = _minimumUSDPurchase;\n        presaleDetailsMapping[_presaleRound]\n            .maximumPresaleAmount = _maximumPresaleAmount;\n\n        emit PresaleRoundUpdated(\n            _presaleRound,\n            _startingTime,\n            _usdPrice,\n            _minimumUSDPurchase,\n            _maximumPresaleAmount\n        );\n    }\n}\n",
  "sourcePath": "/Users/yosephks/Documents/GitHub/alpsfinance-smart-contracts/contracts/presale/mocks/MockPresale.sol",
  "compiler": {
    "name": "solc",
    "version": "0.8.11+commit.d7f03943.Emscripten.clang"
  },
  "schemaVersion": "3.4.4",
  "updatedAt": "2022-03-01T10:43:02.248Z",
  "devdoc": {
    "kind": "dev",
    "methods": {
      "getPresaleAmountByRound(uint256)": {
        "details": "_presaleRound - The presale round chosen"
      },
      "owner()": {
        "details": "Returns the address of the current owner."
      },
      "presaleTokens(address,uint256)": {
        "details": "_paymentTokenAddress - Address of the token use to pay (address 0 is for native token)_amount - Amount denominated in the `paymentTokenAddress` being paid"
      },
      "renounceOwnership()": {
        "details": "Leaves the contract without owner. It will not be possible to call `onlyOwner` functions anymore. Can only be called by the current owner. NOTE: Renouncing ownership will leave the contract without an owner, thereby removing any functionality that is only available to the owner."
      },
      "setPresalePaymentToken(address,bool,address)": {
        "details": "_tokenAddress - Token Address use to purchase Presale_tokenAvailability - Indication whether Token Address can be used for Presale_aggregatorAddress - Chainlink's Aggregator Address to determine the USD price (for `presaleTokens`)"
      },
      "setPresaleReceiver(address)": {
        "details": "_newPresaleReceiver - Address that'll receive the presale payment token"
      },
      "setPresaleRound(uint256,uint256,uint256,uint256,uint256)": {
        "details": "_presaleRound - The presale round chosen_startingTime - The starting Presale time_usdPrice - The USD Price of the Token in certain Presale Round_minimumUSDPurchase - The minimum USD amount to purchase the token_maximumPresaleAmount - The maximum amount of token available for a presale round"
      },
      "setPresaleTokenAddress(address)": {
        "details": "_newTokenAddress - Address of token that'll be presaled"
      },
      "transferOwnership(address)": {
        "details": "Transfers ownership of the contract to a new account (`newOwner`). Can only be called by the current owner."
      }
    },
    "version": 1
  },
  "userdoc": {
    "kind": "user",
    "methods": {
      "getCurrentPresaleDetails()": {
        "notice": "Getting the Current Presale Details, including: - Starting Time - USD Price - Minimum USD Purchase - Maximum Presale Amount"
      },
      "getCurrentPresaleRound()": {
        "notice": "Get Current Presale Round"
      },
      "getPresaleAmountByRound(uint256)": {
        "notice": "Get presale total amount By presale round"
      },
      "getTotalPresaleAmount()": {
        "notice": "Get total amount of presale from all rounds"
      },
      "getTotalPresaleRound()": {
        "notice": "Get total amount of presale round"
      },
      "presaleTokens(address,uint256)": {
        "notice": "Execute the Presale of ALPS Token in exchange of other token"
      },
      "setPresalePaymentToken(address,bool,address)": {
        "notice": "Set Presale Payment Token Info"
      },
      "setPresaleReceiver(address)": {
        "notice": "Set new Presale Receiver Address"
      },
      "setPresaleRound(uint256,uint256,uint256,uint256,uint256)": {
        "notice": "Creating/Updating a presale round information"
      },
      "setPresaleTokenAddress(address)": {
        "notice": "Set new Presale Token Address"
      }
    },
    "version": 1
  }
}