{
  "contractName": "MockPresale",
  "abi": [
    {
      "inputs": [
        {
          "internalType": "address",
          "name": "_tokenAddress",
          "type": "address"
        },
        {
          "internalType": "address payable",
          "name": "_presaleReceiver",
          "type": "address"
        }
      ],
      "stateMutability": "nonpayable",
      "type": "constructor"
    },
    {
      "inputs": [],
      "name": "presaleAmountOverdemand",
      "type": "error"
    },
    {
      "inputs": [],
      "name": "presaleMaximumPresaleAmountInvalid",
      "type": "error"
    },
    {
      "inputs": [],
      "name": "presaleMimumumUSDPurchaseInvalid",
      "type": "error"
    },
    {
      "inputs": [],
      "name": "presaleNativeTokenPaymentNotSufficient",
      "type": "error"
    },
    {
      "inputs": [],
      "name": "presaleRoundClosed",
      "type": "error"
    },
    {
      "inputs": [],
      "name": "presaleStartingTimeInvalid",
      "type": "error"
    },
    {
      "inputs": [],
      "name": "presaleTokenNotAvailable",
      "type": "error"
    },
    {
      "inputs": [],
      "name": "presaleUSDPriceInvalid",
      "type": "error"
    },
    {
      "inputs": [],
      "name": "presaleUSDPurchaseNotSufficient",
      "type": "error"
    },
    {
      "anonymous": false,
      "inputs": [
        {
          "indexed": true,
          "internalType": "address",
          "name": "previousOwner",
          "type": "address"
        },
        {
          "indexed": true,
          "internalType": "address",
          "name": "newOwner",
          "type": "address"
        }
      ],
      "name": "OwnershipTransferred",
      "type": "event"
    },
    {
      "anonymous": false,
      "inputs": [
        {
          "indexed": true,
          "internalType": "address",
          "name": "to",
          "type": "address"
        },
        {
          "indexed": true,
          "internalType": "address",
          "name": "paymentTokenAddress",
          "type": "address"
        },
        {
          "indexed": false,
          "internalType": "uint256",
          "name": "amount",
          "type": "uint256"
        },
        {
          "indexed": false,
          "internalType": "uint256",
          "name": "paymentTokenamount",
          "type": "uint256"
        }
      ],
      "name": "TokenPresold",
      "type": "event"
    },
    {
      "inputs": [],
      "name": "owner",
      "outputs": [
        {
          "internalType": "address",
          "name": "",
          "type": "address"
        }
      ],
      "stateMutability": "view",
      "type": "function"
    },
    {
      "inputs": [
        {
          "internalType": "uint256",
          "name": "",
          "type": "uint256"
        }
      ],
      "name": "presaleAmountByRoundMapping",
      "outputs": [
        {
          "internalType": "uint256",
          "name": "",
          "type": "uint256"
        }
      ],
      "stateMutability": "view",
      "type": "function"
    },
    {
      "inputs": [],
      "name": "presaleReceiver",
      "outputs": [
        {
          "internalType": "address payable",
          "name": "",
          "type": "address"
        }
      ],
      "stateMutability": "view",
      "type": "function"
    },
    {
      "inputs": [],
      "name": "renounceOwnership",
      "outputs": [],
      "stateMutability": "nonpayable",
      "type": "function"
    },
    {
      "inputs": [],
      "name": "tokenAddress",
      "outputs": [
        {
          "internalType": "address",
          "name": "",
          "type": "address"
        }
      ],
      "stateMutability": "view",
      "type": "function"
    },
    {
      "inputs": [],
      "name": "totalPresaleRound",
      "outputs": [
        {
          "internalType": "uint256",
          "name": "_value",
          "type": "uint256"
        }
      ],
      "stateMutability": "view",
      "type": "function"
    },
    {
      "inputs": [
        {
          "internalType": "address",
          "name": "newOwner",
          "type": "address"
        }
      ],
      "name": "transferOwnership",
      "outputs": [],
      "stateMutability": "nonpayable",
      "type": "function"
    },
    {
      "inputs": [],
      "name": "getTotalPresaleRound",
      "outputs": [
        {
          "internalType": "uint256",
          "name": "",
          "type": "uint256"
        }
      ],
      "stateMutability": "view",
      "type": "function"
    },
    {
      "inputs": [
        {
          "internalType": "uint256",
          "name": "_presaleRound",
          "type": "uint256"
        }
      ],
      "name": "getPresaleAmountByRound",
      "outputs": [
        {
          "internalType": "uint256",
          "name": "",
          "type": "uint256"
        }
      ],
      "stateMutability": "view",
      "type": "function"
    },
    {
      "inputs": [],
      "name": "getTotalPresaleAmount",
      "outputs": [
        {
          "internalType": "uint256",
          "name": "",
          "type": "uint256"
        }
      ],
      "stateMutability": "view",
      "type": "function"
    },
    {
      "inputs": [],
      "name": "getCurrentPresaleRound",
      "outputs": [
        {
          "internalType": "uint256",
          "name": "",
          "type": "uint256"
        }
      ],
      "stateMutability": "view",
      "type": "function"
    },
    {
      "inputs": [],
      "name": "getCurrentPresaleDetails",
      "outputs": [
        {
          "internalType": "uint256",
          "name": "",
          "type": "uint256"
        },
        {
          "internalType": "uint256",
          "name": "",
          "type": "uint256"
        },
        {
          "internalType": "uint256",
          "name": "",
          "type": "uint256"
        },
        {
          "internalType": "uint256",
          "name": "",
          "type": "uint256"
        }
      ],
      "stateMutability": "view",
      "type": "function"
    },
    {
      "inputs": [
        {
          "internalType": "address",
          "name": "_paymentTokenAddress",
          "type": "address"
        },
        {
          "internalType": "uint256",
          "name": "_amount",
          "type": "uint256"
        }
      ],
      "name": "presaleTokens",
      "outputs": [],
      "stateMutability": "payable",
      "type": "function"
    },
    {
      "inputs": [
        {
          "internalType": "address payable",
          "name": "_newPresaleReceiver",
          "type": "address"
        }
      ],
      "name": "setPresaleReceiver",
      "outputs": [],
      "stateMutability": "nonpayable",
      "type": "function"
    },
    {
      "inputs": [
        {
          "internalType": "address",
          "name": "_newTokenAddress",
          "type": "address"
        }
      ],
      "name": "setPresaleTokenAddress",
      "outputs": [],
      "stateMutability": "nonpayable",
      "type": "function"
    },
    {
      "inputs": [
        {
          "internalType": "uint256",
          "name": "_presaleRound",
          "type": "uint256"
        },
        {
          "internalType": "uint256",
          "name": "_startingTime",
          "type": "uint256"
        },
        {
          "internalType": "uint256",
          "name": "_usdPrice",
          "type": "uint256"
        },
        {
          "internalType": "uint256",
          "name": "_minimumUSDPurchase",
          "type": "uint256"
        },
        {
          "internalType": "uint256",
          "name": "_maximumPresaleAmount",
          "type": "uint256"
        }
      ],
      "name": "setPresaleRound",
      "outputs": [],
      "stateMutability": "nonpayable",
      "type": "function"
    }
  ],
  "bytecode": "0x608060405234801561001057600080fd5b50604051610fe9380380610fe983398101604081905261002f916100d5565b6100383361006d565b60018055600380546001600160a01b039384166001600160a01b0319918216179091556004805492909316911617905561010f565b600080546001600160a01b038381166001600160a01b0319831681178455604051919092169283917f8be0079c531659141344cd1fd0a4f28419497f9722a3daafe3b4186f6b6457e09190a35050565b6001600160a01b03811681146100d257600080fd5b50565b600080604083850312156100e857600080fd5b82516100f3816100bd565b6020840151909250610104816100bd565b809150509250929050565b610ecb8061011e6000396000f3fe6080604052600436106100f35760003560e01c80639d76ea581161008a578063ec2b352311610059578063ec2b352314610284578063efca9049146102b9578063f2fde38b146102cc578063feda925b146102ec57600080fd5b80639d76ea58146101f7578063c143641514610217578063c829d1db14610237578063d958e0011461025757600080fd5b80633c0c134d116100c65780633c0c134d14610177578063715018a6146101995780638da5cb5b146101ae578063962de5c0146101e057600080fd5b80630aca575a146100f85780631c63f0ed14610120578063392f911b14610135578063398dcd2614610162575b600080fd5b34801561010457600080fd5b5061010d61030c565b6040519081526020015b60405180910390f35b34801561012c57600080fd5b5061010d61034e565b34801561014157600080fd5b5061010d610150366004610b06565b60066020526000908152604090205481565b34801561016e57600080fd5b5061010d6103a3565b34801561018357600080fd5b50610197610192366004610b34565b6103b3565b005b3480156101a557600080fd5b50610197610408565b3480156101ba57600080fd5b506000546001600160a01b03165b6040516001600160a01b039091168152602001610117565b3480156101ec57600080fd5b5060025461010d9081565b34801561020357600080fd5b506003546101c8906001600160a01b031681565b34801561022357600080fd5b506004546101c8906001600160a01b031681565b34801561024357600080fd5b50610197610252366004610b51565b61043e565b34801561026357600080fd5b5061010d610272366004610b06565b60009081526006602052604090205490565b34801561029057600080fd5b50610299610596565b604080519485526020850193909352918301526060820152608001610117565b6101976102c7366004610b8c565b6105d5565b3480156102d857600080fd5b506101976102e7366004610b34565b61093b565b3480156102f857600080fd5b50610197610307366004610b34565b6109d6565b600080805b600254811015610348576000818152600660205260409020546103349083610bce565b91508061034081610be6565b915050610311565b50919050565b600080600161035c60025490565b6103669190610c01565b90505b801561039b57600081815260056020526040902054421061038957919050565b8061039381610c18565b915050610369565b506000905090565b60006103ae60025490565b905090565b6000546001600160a01b031633146103e65760405162461bcd60e51b81526004016103dd90610c2f565b60405180910390fd5b600380546001600160a01b0319166001600160a01b0392909216919091179055565b6000546001600160a01b031633146104325760405162461bcd60e51b81526004016103dd90610c2f565b61043c6000610a22565b565b6000546001600160a01b031633146104685760405162461bcd60e51b81526004016103dd90610c2f565b60008581526005602052604090208054600182015460028301546003909301549192909183158015610498575082155b80156104a2575081155b80156104ac575080155b156104bf576104bf600280546001019055565b8715806104f5575088158015906104f55750600560006104e060018c610c01565b81526020019081526020016000206000015488105b1561051357604051633863ce1d60e01b815260040160405180910390fd5b86610531576040516329198c7f60e11b815260040160405180910390fd5b8561054f57604051630746844f60e31b815260040160405180910390fd5b8461056d57604051639f2bfa4160e01b815260040160405180910390fd5b505050600095865250600560205260409094209283556001830191909155600282015560030155565b60008060008060006105a661034e565b600090815260056020526040902080546001820154600283015460039093015491989097509195509350915050565b600260015414156106285760405162461bcd60e51b815260206004820152601f60248201527f5265656e7472616e637947756172643a207265656e7472616e742063616c6c0060448201526064016103dd565b6002600155600061063761034e565b9050600080600080610647610596565b935093509350935083421061066f576040516304d61c6f60e41b815260040160405180910390fd5b6001600160a01b03871660009081526007602052604090205460ff16156106a9576040516303003c8560e21b815260040160405180910390fd5b6003546001600160a01b031660006106ca601e670de0b6b3a7640000610a72565b9050838110156106ed5760405163196d4a1d60e01b815260040160405180910390fd5b60006107056106fc8388610a87565b60006012610a93565b6000898152600660205260409020549091506107219085610c01565b811115610741576040516317b1337360e31b815260040160405180910390fd5b6000888152600660205260408120805483929061075f908490610bce565b90915550506001600160a01b038a1661080057883410156107935760405163854a356160e01b815260040160405180910390fd5b6004546040516001600160a01b03909116908a156108fc02908b906000818181858888f193505050501580156107cd573d6000803e3d6000fd5b5060405133904780156108fc02916000818181858888f193505050501580156107fa573d6000803e3d6000fd5b50610885565b600480546040516323b872dd60e01b815233928101929092526001600160a01b039081166024830152604482018b90528b91908216906323b872dd906064016020604051808303816000875af115801561085e573d6000803e3d6000fd5b505050506040513d601f19601f820116820180604052508101906108829190610c64565b50505b6040516340c10f1960e01b8152336004820152602481018290526001600160a01b038416906340c10f1990604401600060405180830381600087803b1580156108cd57600080fd5b505af11580156108e1573d6000803e3d6000fd5b505060408051848152602081018d90526001600160a01b038e1693503392507f69902df1d9bae4b2a08b9e9d689906299b4b15ac10fbbf560d019b5c73fd35d6910160405180910390a35050600180555050505050505050565b6000546001600160a01b031633146109655760405162461bcd60e51b81526004016103dd90610c2f565b6001600160a01b0381166109ca5760405162461bcd60e51b815260206004820152602660248201527f4f776e61626c653a206e6577206f776e657220697320746865207a65726f206160448201526564647265737360d01b60648201526084016103dd565b6109d381610a22565b50565b6000546001600160a01b03163314610a005760405162461bcd60e51b81526004016103dd90610c2f565b600480546001600160a01b0319166001600160a01b0392909216919091179055565b600080546001600160a01b038381166001600160a01b0319831681178455604051919092169283917f8be0079c531659141344cd1fd0a4f28419497f9722a3daafe3b4186f6b6457e09190a35050565b6000610a7e8284610c86565b90505b92915050565b6000610a7e8284610cbb565b60008160ff168360ff161015610acc57610aad8383610ccf565b610abb9060ff16600a610dd6565b610ac59085610de2565b9050610aff565b8160ff168360ff161115610afc57610ae48284610ccf565b610af29060ff16600a610dd6565b610ac59085610e67565b50825b9392505050565b600060208284031215610b1857600080fd5b5035919050565b6001600160a01b03811681146109d357600080fd5b600060208284031215610b4657600080fd5b8135610aff81610b1f565b600080600080600060a08688031215610b6957600080fd5b505083359560208501359550604085013594606081013594506080013592509050565b60008060408385031215610b9f57600080fd5b8235610baa81610b1f565b946020939093013593505050565b634e487b7160e01b600052601160045260246000fd5b60008219821115610be157610be1610bb8565b500190565b6000600019821415610bfa57610bfa610bb8565b5060010190565b600082821015610c1357610c13610bb8565b500390565b600081610c2757610c27610bb8565b506000190190565b6020808252818101527f4f776e61626c653a2063616c6c6572206973206e6f7420746865206f776e6572604082015260600190565b600060208284031215610c7657600080fd5b81518015158114610aff57600080fd5b6000816000190483118215151615610ca057610ca0610bb8565b500290565b634e487b7160e01b600052601260045260246000fd5b600082610cca57610cca610ca5565b500490565b600060ff821660ff841680821015610ce957610ce9610bb8565b90039392505050565b600181815b80851115610d2d578160001904821115610d1357610d13610bb8565b80851615610d2057918102915b93841c9390800290610cf7565b509250929050565b600082610d4457506001610a81565b81610d5157506000610a81565b8160018114610d675760028114610d7157610d8d565b6001915050610a81565b60ff841115610d8257610d82610bb8565b50506001821b610a81565b5060208310610133831016604e8410600b8410161715610db0575081810a610a81565b610dba8383610cf2565b8060001904821115610dce57610dce610bb8565b029392505050565b6000610a7e8383610d35565b60006001600160ff1b0381841382841380821686840486111615610e0857610e08610bb8565b600160ff1b6000871282811687830589121615610e2757610e27610bb8565b60008712925087820587128484161615610e4357610e43610bb8565b87850587128184161615610e5957610e59610bb8565b505050929093029392505050565b600082610e7657610e76610ca5565b600160ff1b821460001984141615610e9057610e90610bb8565b50059056fea2646970667358221220b84faef078527732dc53fd8ff5a0eb773a54f17be66d8a8539bcd0eb33411a3f64736f6c634300080b0033",
  "immutableReferences": {},
  "source": "// SPDX-License-Identifier: AGPL-3.0\n\npragma solidity ^0.8.11;\n\nimport \"@openzeppelin/contracts/access/Ownable.sol\";\nimport \"@openzeppelin/contracts/token/ERC20/IERC20.sol\";\nimport \"@openzeppelin/contracts/utils/Counters.sol\";\nimport \"@openzeppelin/contracts/utils/math/SafeMath.sol\";\nimport \"@openzeppelin/contracts/security/ReentrancyGuard.sol\";\nimport \"../../libraries/PriceConverter.sol\";\nimport \"../../token/interfaces/IERC20Custom.sol\";\n\ncontract MockPresale is Ownable, ReentrancyGuard {\n    using Counters for Counters.Counter;\n    using SafeMath for uint256;\n\n    struct PresaleData {\n        uint256 startingTime;\n        uint256 usdPrice;\n        uint256 minimumUSDPurchase;\n        uint256 maximumPresaleAmount;\n    }\n\n    event TokenPresold(\n        address indexed to,\n        address indexed paymentTokenAddress,\n        uint256 amount,\n        uint256 paymentTokenamount\n    );\n\n    Counters.Counter public totalPresaleRound;\n    address public tokenAddress;\n    address payable public presaleReceiver;\n\n    // Mapping `presaleRound` to its data details\n    mapping(uint256 => PresaleData) presaleDetailsMapping;\n    mapping(uint256 => uint256) public presaleAmountByRoundMapping;\n    mapping(address => bool) presaleTokenAvaliblilityMapping;\n\n    error presaleRoundClosed();\n    error presaleTokenNotAvailable();\n    error presaleNativeTokenPaymentNotSufficient();\n    error presaleStartingTimeInvalid();\n    error presaleUSDPriceInvalid();\n    error presaleMimumumUSDPurchaseInvalid();\n    error presaleMaximumPresaleAmountInvalid();\n    error presaleUSDPurchaseNotSufficient();\n    error presaleAmountOverdemand();\n\n    constructor(address _tokenAddress, address payable _presaleReceiver) {\n        tokenAddress = _tokenAddress;\n        presaleReceiver = _presaleReceiver;\n    }\n\n    /**\n     * Get total amount of presale round\n     */\n    function getTotalPresaleRound() public view returns (uint256) {\n        return totalPresaleRound.current();\n    }\n\n    /**\n     * Get presale total amount By presale round\n     *\n     * @dev _presaleRound - The presale round chosen\n     */\n    function getPresaleAmountByRound(uint256 _presaleRound)\n        public\n        view\n        returns (uint256)\n    {\n        return presaleAmountByRoundMapping[_presaleRound];\n    }\n\n    /**\n     * Get total amount of presale from all rounds\n     */\n    function getTotalPresaleAmount() public view returns (uint256) {\n        uint256 totalPresale = 0;\n        for (\n            uint256 presaleRound = 0;\n            presaleRound < totalPresaleRound.current();\n            presaleRound++\n        ) {\n            totalPresale += presaleAmountByRoundMapping[presaleRound];\n        }\n\n        return totalPresale;\n    }\n\n    /**\n     * Get Current Presale Round\n     */\n    function getCurrentPresaleRound() public view returns (uint256) {\n        for (\n            uint256 presaleRound = totalPresaleRound.current() - 1;\n            presaleRound > 0;\n            presaleRound--\n        ) {\n            if (\n                presaleDetailsMapping[presaleRound].startingTime <=\n                block.timestamp\n            ) {\n                return presaleRound;\n            }\n        }\n\n        return 0;\n    }\n\n    /**\n     * Getting the Current Presale Details, including:\n     * - Starting Time\n     * - USD Price\n     * - Minimum USD Purchase\n     * - Maximum Presale Amount\n     */\n    function getCurrentPresaleDetails()\n        public\n        view\n        returns (\n            uint256,\n            uint256,\n            uint256,\n            uint256\n        )\n    {\n        uint256 currentPresaleRound = getCurrentPresaleRound();\n        return (\n            presaleDetailsMapping[currentPresaleRound].startingTime,\n            presaleDetailsMapping[currentPresaleRound].usdPrice,\n            presaleDetailsMapping[currentPresaleRound].minimumUSDPurchase,\n            presaleDetailsMapping[currentPresaleRound].maximumPresaleAmount\n        );\n    }\n\n    /**\n     * Execute the Presale of ALPS Token in exchange of other token\n     *\n     * @dev _paymentTokenAddress - Address of the token use to pay (address 0 is for native token)\n     * @dev _amount - Amount denominated in the `paymentTokenAddress` being paid\n     */\n    function presaleTokens(address _paymentTokenAddress, uint256 _amount)\n        public\n        payable\n        nonReentrant\n    {\n        uint256 currentPresaleRound = getCurrentPresaleRound();\n        (\n            uint256 currentPresaleStartingTime,\n            uint256 currentPresalePrice,\n            uint256 currentPresaleMinimumUSDPurchase,\n            uint256 currentPresaleMaximumPresaleAmount\n        ) = getCurrentPresaleDetails();\n\n        // Check whether the presale round is still open\n        if (block.timestamp >= currentPresaleStartingTime)\n            revert presaleRoundClosed();\n\n        // Check whether token is valid\n        if (presaleTokenAvaliblilityMapping[_paymentTokenAddress])\n            revert presaleTokenNotAvailable();\n\n        // Convert the token with Chainlink Price Feed\n        IERC20Custom token = IERC20Custom(tokenAddress);\n\n        uint256 presaleUSDAmount = SafeMath.mul(30, 10**18);\n\n        if (presaleUSDAmount < currentPresaleMinimumUSDPurchase)\n            revert presaleUSDPurchaseNotSufficient();\n\n        uint256 presaleAmount = uint256(\n            PriceConverter.scalePrice(\n                int256(SafeMath.div(presaleUSDAmount, currentPresalePrice)),\n                0,\n                18\n            )\n        );\n\n        if (\n            presaleAmount >\n            currentPresaleMaximumPresaleAmount -\n                presaleAmountByRoundMapping[currentPresaleRound]\n        ) revert presaleAmountOverdemand();\n\n        presaleAmountByRoundMapping[currentPresaleRound] += presaleAmount;\n\n        // Receive the payment token and transfer it to another address\n        if (_paymentTokenAddress == address(0)) {\n            if (msg.value < _amount) {\n                revert presaleNativeTokenPaymentNotSufficient();\n            } else {\n                presaleReceiver.transfer(_amount);\n\n                // in case you deployed the contract with more ether than required,\n                // transfer the remaining ether back to yourself\n                payable(msg.sender).transfer(address(this).balance);\n            }\n        } else {\n            IERC20 paymentToken = IERC20(_paymentTokenAddress);\n            paymentToken.transferFrom(msg.sender, presaleReceiver, _amount);\n        }\n\n        // Send ALPS token to `msg.sender`\n        token.mint(msg.sender, presaleAmount);\n        emit TokenPresold(\n            msg.sender,\n            _paymentTokenAddress,\n            presaleAmount,\n            _amount\n        );\n    }\n\n    /**\n     * Set new Presale Receiver Address\n     *\n     * @dev _newPresaleReceiver - Address that'll receive the presale payment token\n     */\n    function setPresaleReceiver(address payable _newPresaleReceiver)\n        public\n        onlyOwner\n    {\n        presaleReceiver = _newPresaleReceiver;\n    }\n\n    /**\n     * Set new Presale Token Address\n     *\n     * @dev _newTokenAddress - Address of token that'll be presaled\n     */\n    function setPresaleTokenAddress(address _newTokenAddress) public onlyOwner {\n        tokenAddress = _newTokenAddress;\n    }\n\n    /**\n     * Creating/Updating a presale round information\n     *\n     * @dev _presaleRound - The presale round chosen\n     * @dev _startingTime - The starting Presale time\n     * @dev _usdPrice - The USD Price of the Token in certain Presale Round\n     * @dev _minimumUSDPurchase - The minimum USD amount to purchase the token\n     * @dev _maximumPresaleAmount - The maximum amount of token available for a presale round\n     */\n    function setPresaleRound(\n        uint256 _presaleRound,\n        uint256 _startingTime,\n        uint256 _usdPrice,\n        uint256 _minimumUSDPurchase,\n        uint256 _maximumPresaleAmount\n    ) public onlyOwner {\n        uint256 presaleStartingTime = presaleDetailsMapping[_presaleRound]\n            .startingTime;\n        uint256 presaleUSDPrice = presaleDetailsMapping[_presaleRound].usdPrice;\n        uint256 presaleMinimumUSDPurchase = presaleDetailsMapping[_presaleRound]\n            .minimumUSDPurchase;\n        uint256 presaleMaximumPresaleAmount = presaleDetailsMapping[\n            _presaleRound\n        ].maximumPresaleAmount;\n\n        // Increment the total round counter when new presale is created\n        if (\n            presaleStartingTime == 0 &&\n            presaleUSDPrice == 0 &&\n            presaleMinimumUSDPurchase == 0 &&\n            presaleMaximumPresaleAmount == 0\n        ) totalPresaleRound.increment();\n\n        // Starting time has to be:\n        // - larger than zero\n        // - larger than previous round starting time\n        if (\n            _startingTime == 0 ||\n            (_presaleRound != 0 &&\n                _startingTime <\n                presaleDetailsMapping[_presaleRound - 1].startingTime)\n        ) revert presaleStartingTimeInvalid();\n\n        // These values given must be larger than zero\n        if (_usdPrice == 0) revert presaleUSDPriceInvalid();\n        if (_minimumUSDPurchase == 0) revert presaleMimumumUSDPurchaseInvalid();\n        if (_maximumPresaleAmount == 0)\n            revert presaleMaximumPresaleAmountInvalid();\n\n        presaleDetailsMapping[_presaleRound].startingTime = _startingTime;\n        presaleDetailsMapping[_presaleRound].usdPrice = _usdPrice;\n        presaleDetailsMapping[_presaleRound]\n            .minimumUSDPurchase = _minimumUSDPurchase;\n        presaleDetailsMapping[_presaleRound]\n            .maximumPresaleAmount = _maximumPresaleAmount;\n    }\n}\n",
  "sourcePath": "/Users/yosephks/Documents/GitHub/alpsfinance-smart-contracts/contracts/presale/mocks/MockPresale.sol",
  "compiler": {
    "name": "solc",
    "version": "0.8.11+commit.d7f03943.Emscripten.clang"
  },
  "schemaVersion": "3.4.4",
  "updatedAt": "2022-02-27T19:16:52.084Z",
  "devdoc": {
    "kind": "dev",
    "methods": {
      "getPresaleAmountByRound(uint256)": {
        "details": "_presaleRound - The presale round chosen"
      },
      "owner()": {
        "details": "Returns the address of the current owner."
      },
      "presaleTokens(address,uint256)": {
        "details": "_paymentTokenAddress - Address of the token use to pay (address 0 is for native token)_amount - Amount denominated in the `paymentTokenAddress` being paid"
      },
      "renounceOwnership()": {
        "details": "Leaves the contract without owner. It will not be possible to call `onlyOwner` functions anymore. Can only be called by the current owner. NOTE: Renouncing ownership will leave the contract without an owner, thereby removing any functionality that is only available to the owner."
      },
      "setPresaleReceiver(address)": {
        "details": "_newPresaleReceiver - Address that'll receive the presale payment token"
      },
      "setPresaleRound(uint256,uint256,uint256,uint256,uint256)": {
        "details": "_presaleRound - The presale round chosen_startingTime - The starting Presale time_usdPrice - The USD Price of the Token in certain Presale Round_minimumUSDPurchase - The minimum USD amount to purchase the token_maximumPresaleAmount - The maximum amount of token available for a presale round"
      },
      "setPresaleTokenAddress(address)": {
        "details": "_newTokenAddress - Address of token that'll be presaled"
      },
      "transferOwnership(address)": {
        "details": "Transfers ownership of the contract to a new account (`newOwner`). Can only be called by the current owner."
      }
    },
    "version": 1
  },
  "userdoc": {
    "kind": "user",
    "methods": {
      "getCurrentPresaleDetails()": {
        "notice": "Getting the Current Presale Details, including: - Starting Time - USD Price - Minimum USD Purchase - Maximum Presale Amount"
      },
      "getCurrentPresaleRound()": {
        "notice": "Get Current Presale Round"
      },
      "getPresaleAmountByRound(uint256)": {
        "notice": "Get presale total amount By presale round"
      },
      "getTotalPresaleAmount()": {
        "notice": "Get total amount of presale from all rounds"
      },
      "getTotalPresaleRound()": {
        "notice": "Get total amount of presale round"
      },
      "presaleTokens(address,uint256)": {
        "notice": "Execute the Presale of ALPS Token in exchange of other token"
      },
      "setPresaleReceiver(address)": {
        "notice": "Set new Presale Receiver Address"
      },
      "setPresaleRound(uint256,uint256,uint256,uint256,uint256)": {
        "notice": "Creating/Updating a presale round information"
      },
      "setPresaleTokenAddress(address)": {
        "notice": "Set new Presale Token Address"
      }
    },
    "version": 1
  }
}