{
  "contractName": "MockPresale",
  "abi": [
    {
      "inputs": [
        {
          "internalType": "address",
          "name": "_tokenAddress",
          "type": "address"
        },
        {
          "internalType": "address payable",
          "name": "_presaleReceiver",
          "type": "address"
        }
      ],
      "stateMutability": "nonpayable",
      "type": "constructor"
    },
    {
      "inputs": [],
      "name": "presaleAmountOverdemand",
      "type": "error"
    },
    {
      "inputs": [],
      "name": "presaleMaximumPresaleAmountInvalid",
      "type": "error"
    },
    {
      "inputs": [],
      "name": "presaleMimumumUSDPurchaseInvalid",
      "type": "error"
    },
    {
      "inputs": [],
      "name": "presaleNativeTokenPaymentNotSufficient",
      "type": "error"
    },
    {
      "inputs": [],
      "name": "presaleRoundClosed",
      "type": "error"
    },
    {
      "inputs": [],
      "name": "presaleStartingTimeInvalid",
      "type": "error"
    },
    {
      "inputs": [],
      "name": "presaleTokenNotAvailable",
      "type": "error"
    },
    {
      "inputs": [],
      "name": "presaleUSDPriceInvalid",
      "type": "error"
    },
    {
      "inputs": [],
      "name": "presaleUSDPurchaseNotSufficient",
      "type": "error"
    },
    {
      "anonymous": false,
      "inputs": [
        {
          "indexed": true,
          "internalType": "address",
          "name": "previousOwner",
          "type": "address"
        },
        {
          "indexed": true,
          "internalType": "address",
          "name": "newOwner",
          "type": "address"
        }
      ],
      "name": "OwnershipTransferred",
      "type": "event"
    },
    {
      "anonymous": false,
      "inputs": [
        {
          "indexed": true,
          "internalType": "address",
          "name": "to",
          "type": "address"
        },
        {
          "indexed": true,
          "internalType": "address",
          "name": "paymentTokenAddress",
          "type": "address"
        },
        {
          "indexed": false,
          "internalType": "uint256",
          "name": "amount",
          "type": "uint256"
        },
        {
          "indexed": false,
          "internalType": "uint256",
          "name": "paymentTokenamount",
          "type": "uint256"
        }
      ],
      "name": "TokenPresold",
      "type": "event"
    },
    {
      "inputs": [],
      "name": "owner",
      "outputs": [
        {
          "internalType": "address",
          "name": "",
          "type": "address"
        }
      ],
      "stateMutability": "view",
      "type": "function"
    },
    {
      "inputs": [
        {
          "internalType": "uint256",
          "name": "",
          "type": "uint256"
        }
      ],
      "name": "presaleAmountByRoundMapping",
      "outputs": [
        {
          "internalType": "uint256",
          "name": "",
          "type": "uint256"
        }
      ],
      "stateMutability": "view",
      "type": "function"
    },
    {
      "inputs": [],
      "name": "presaleReceiver",
      "outputs": [
        {
          "internalType": "address payable",
          "name": "",
          "type": "address"
        }
      ],
      "stateMutability": "view",
      "type": "function"
    },
    {
      "inputs": [],
      "name": "renounceOwnership",
      "outputs": [],
      "stateMutability": "nonpayable",
      "type": "function"
    },
    {
      "inputs": [],
      "name": "tokenAddress",
      "outputs": [
        {
          "internalType": "address",
          "name": "",
          "type": "address"
        }
      ],
      "stateMutability": "view",
      "type": "function"
    },
    {
      "inputs": [],
      "name": "totalPresaleRound",
      "outputs": [
        {
          "internalType": "uint256",
          "name": "_value",
          "type": "uint256"
        }
      ],
      "stateMutability": "view",
      "type": "function"
    },
    {
      "inputs": [
        {
          "internalType": "address",
          "name": "newOwner",
          "type": "address"
        }
      ],
      "name": "transferOwnership",
      "outputs": [],
      "stateMutability": "nonpayable",
      "type": "function"
    },
    {
      "inputs": [],
      "name": "getCurrentPresaleRound",
      "outputs": [
        {
          "internalType": "uint256",
          "name": "",
          "type": "uint256"
        }
      ],
      "stateMutability": "view",
      "type": "function"
    },
    {
      "inputs": [],
      "name": "getCurrentPresaleDetails",
      "outputs": [
        {
          "internalType": "uint256",
          "name": "",
          "type": "uint256"
        },
        {
          "internalType": "uint256",
          "name": "",
          "type": "uint256"
        },
        {
          "internalType": "uint256",
          "name": "",
          "type": "uint256"
        },
        {
          "internalType": "uint256",
          "name": "",
          "type": "uint256"
        }
      ],
      "stateMutability": "view",
      "type": "function"
    },
    {
      "inputs": [
        {
          "internalType": "address",
          "name": "_paymentTokenAddress",
          "type": "address"
        },
        {
          "internalType": "uint256",
          "name": "_amount",
          "type": "uint256"
        }
      ],
      "name": "presaleTokens",
      "outputs": [],
      "stateMutability": "payable",
      "type": "function"
    },
    {
      "inputs": [
        {
          "internalType": "address payable",
          "name": "_newPresaleReceiver",
          "type": "address"
        }
      ],
      "name": "setPresaleReceiver",
      "outputs": [],
      "stateMutability": "nonpayable",
      "type": "function"
    },
    {
      "inputs": [
        {
          "internalType": "address",
          "name": "_newTokenAddress",
          "type": "address"
        }
      ],
      "name": "setPresaleTokenAddress",
      "outputs": [],
      "stateMutability": "nonpayable",
      "type": "function"
    },
    {
      "inputs": [
        {
          "internalType": "uint256",
          "name": "_presaleRound",
          "type": "uint256"
        },
        {
          "internalType": "uint256",
          "name": "_startingTime",
          "type": "uint256"
        },
        {
          "internalType": "uint256",
          "name": "_usdPrice",
          "type": "uint256"
        },
        {
          "internalType": "uint256",
          "name": "_minimumUSDPurchase",
          "type": "uint256"
        },
        {
          "internalType": "uint256",
          "name": "_maximumPresaleAmount",
          "type": "uint256"
        }
      ],
      "name": "setPresaleRound",
      "outputs": [],
      "stateMutability": "nonpayable",
      "type": "function"
    }
  ],
  "bytecode": "0x608060405234801561001057600080fd5b50604051610c6c380380610c6c83398101604081905261002f916100d5565b6100383361006d565b60018055600380546001600160a01b039384166001600160a01b0319918216179091556004805492909316911617905561010f565b600080546001600160a01b038381166001600160a01b0319831681178455604051919092169283917f8be0079c531659141344cd1fd0a4f28419497f9722a3daafe3b4186f6b6457e09190a35050565b6001600160a01b03811681146100d257600080fd5b50565b600080604083850312156100e857600080fd5b82516100f3816100bd565b6020840151909250610104816100bd565b809150509250929050565b610b4e8061011e6000396000f3fe6080604052600436106100c25760003560e01c80639d76ea581161007f578063ec2b352311610059578063ec2b3523146101fc578063efca904914610231578063f2fde38b14610244578063feda925b1461026457600080fd5b80639d76ea581461019c578063c1436415146101bc578063c829d1db146101dc57600080fd5b80631c63f0ed146100c7578063392f911b146100ef5780633c0c134d1461011c578063715018a61461013e5780638da5cb5b14610153578063962de5c014610185575b600080fd5b3480156100d357600080fd5b506100dc610284565b6040519081526020015b60405180910390f35b3480156100fb57600080fd5b506100dc61010a366004610991565b60066020526000908152604090205481565b34801561012857600080fd5b5061013c6101373660046109bf565b6102d9565b005b34801561014a57600080fd5b5061013c61032e565b34801561015f57600080fd5b506000546001600160a01b03165b6040516001600160a01b0390911681526020016100e6565b34801561019157600080fd5b506002546100dc9081565b3480156101a857600080fd5b5060035461016d906001600160a01b031681565b3480156101c857600080fd5b5060045461016d906001600160a01b031681565b3480156101e857600080fd5b5061013c6101f73660046109dc565b610364565b34801561020857600080fd5b506102116104bc565b6040805194855260208501939093529183015260608201526080016100e6565b61013c61023f366004610a17565b6104fb565b34801561025057600080fd5b5061013c61025f3660046109bf565b610847565b34801561027057600080fd5b5061013c61027f3660046109bf565b6108e2565b600080600161029260025490565b61029c9190610a59565b90505b80156102d15760008181526005602052604090205442106102bf57919050565b806102c981610a70565b91505061029f565b506000905090565b6000546001600160a01b0316331461030c5760405162461bcd60e51b815260040161030390610a87565b60405180910390fd5b600380546001600160a01b0319166001600160a01b0392909216919091179055565b6000546001600160a01b031633146103585760405162461bcd60e51b815260040161030390610a87565b610362600061092e565b565b6000546001600160a01b0316331461038e5760405162461bcd60e51b815260040161030390610a87565b600085815260056020526040902080546001820154600283015460039093015491929091831580156103be575082155b80156103c8575081155b80156103d2575080155b156103e5576103e5600280546001019055565b87158061041b5750881580159061041b57506005600061040660018c610a59565b81526020019081526020016000206000015488105b1561043957604051633863ce1d60e01b815260040160405180910390fd5b86610457576040516329198c7f60e11b815260040160405180910390fd5b8561047557604051630746844f60e31b815260040160405180910390fd5b8461049357604051639f2bfa4160e01b815260040160405180910390fd5b505050600095865250600560205260409094209283556001830191909155600282015560030155565b60008060008060006104cc610284565b600090815260056020526040902080546001820154600283015460039093015491989097509195509350915050565b6002600154141561054e5760405162461bcd60e51b815260206004820152601f60248201527f5265656e7472616e637947756172643a207265656e7472616e742063616c6c006044820152606401610303565b6002600155600061055d610284565b905060008060008061056d6104bc565b9350935093509350834210610595576040516304d61c6f60e41b815260040160405180910390fd5b6001600160a01b03871660009081526007602052604090205460ff16156105cf576040516303003c8560e21b815260040160405180910390fd5b6003546001600160a01b0316670de0b6b3a7640000838110156106055760405163196d4a1d60e01b815260040160405180910390fd5b6000610611828761097e565b60008981526006602052604090205490915061062d9085610a59565b81111561064d576040516317b1337360e31b815260040160405180910390fd5b6000888152600660205260408120805483929061066b908490610abc565b90915550506001600160a01b038a1661070c578834101561069f5760405163854a356160e01b815260040160405180910390fd5b6004546040516001600160a01b03909116908a156108fc02908b906000818181858888f193505050501580156106d9573d6000803e3d6000fd5b5060405133904780156108fc02916000818181858888f19350505050158015610706573d6000803e3d6000fd5b50610791565b600480546040516323b872dd60e01b815233928101929092526001600160a01b039081166024830152604482018b90528b91908216906323b872dd906064016020604051808303816000875af115801561076a573d6000803e3d6000fd5b505050506040513d601f19601f8201168201806040525081019061078e9190610ad4565b50505b6040516340c10f1960e01b8152336004820152602481018290526001600160a01b038416906340c10f1990604401600060405180830381600087803b1580156107d957600080fd5b505af11580156107ed573d6000803e3d6000fd5b505060408051848152602081018d90526001600160a01b038e1693503392507f69902df1d9bae4b2a08b9e9d689906299b4b15ac10fbbf560d019b5c73fd35d6910160405180910390a35050600180555050505050505050565b6000546001600160a01b031633146108715760405162461bcd60e51b815260040161030390610a87565b6001600160a01b0381166108d65760405162461bcd60e51b815260206004820152602660248201527f4f776e61626c653a206e6577206f776e657220697320746865207a65726f206160448201526564647265737360d01b6064820152608401610303565b6108df8161092e565b50565b6000546001600160a01b0316331461090c5760405162461bcd60e51b815260040161030390610a87565b600480546001600160a01b0319166001600160a01b0392909216919091179055565b600080546001600160a01b038381166001600160a01b0319831681178455604051919092169283917f8be0079c531659141344cd1fd0a4f28419497f9722a3daafe3b4186f6b6457e09190a35050565b600061098a8284610af6565b9392505050565b6000602082840312156109a357600080fd5b5035919050565b6001600160a01b03811681146108df57600080fd5b6000602082840312156109d157600080fd5b813561098a816109aa565b600080600080600060a086880312156109f457600080fd5b505083359560208501359550604085013594606081013594506080013592509050565b60008060408385031215610a2a57600080fd5b8235610a35816109aa565b946020939093013593505050565b634e487b7160e01b600052601160045260246000fd5b600082821015610a6b57610a6b610a43565b500390565b600081610a7f57610a7f610a43565b506000190190565b6020808252818101527f4f776e61626c653a2063616c6c6572206973206e6f7420746865206f776e6572604082015260600190565b60008219821115610acf57610acf610a43565b500190565b600060208284031215610ae657600080fd5b8151801515811461098a57600080fd5b600082610b1357634e487b7160e01b600052601260045260246000fd5b50049056fea26469706673582212204ebc01216c0afd7f65a0713588f2084633fd754761fd3c4f712990f03f6db3cc64736f6c634300080b0033",
  "immutableReferences": {},
  "source": "// SPDX-License-Identifier: AGPL-3.0\n\npragma solidity ^0.8.11;\n\nimport \"@openzeppelin/contracts/access/Ownable.sol\";\nimport \"@openzeppelin/contracts/token/ERC20/IERC20.sol\";\nimport \"@openzeppelin/contracts/utils/Counters.sol\";\nimport \"@openzeppelin/contracts/utils/math/SafeMath.sol\";\nimport \"@openzeppelin/contracts/security/ReentrancyGuard.sol\";\nimport \"../../libraries/PriceConverter.sol\";\nimport \"../../token/interfaces/IERC20Custom.sol\";\n\ncontract MockPresale is Ownable, ReentrancyGuard {\n    using Counters for Counters.Counter;\n    using SafeMath for uint256;\n\n    struct PresaleData {\n        uint256 startingTime;\n        uint256 usdPrice;\n        uint256 minimumUSDPurchase;\n        uint256 maximumPresaleAmount;\n    }\n\n    event TokenPresold(\n        address indexed to,\n        address indexed paymentTokenAddress,\n        uint256 amount,\n        uint256 paymentTokenamount\n    );\n\n    Counters.Counter public totalPresaleRound;\n    address public tokenAddress;\n    address payable public presaleReceiver;\n\n    // Mapping `presaleRound` to its data details\n    mapping(uint256 => PresaleData) presaleDetailsMapping;\n    mapping(uint256 => uint256) public presaleAmountByRoundMapping;\n    mapping(address => bool) presaleTokenAvaliblilityMapping;\n\n    error presaleRoundClosed();\n    error presaleTokenNotAvailable();\n    error presaleNativeTokenPaymentNotSufficient();\n    error presaleStartingTimeInvalid();\n    error presaleUSDPriceInvalid();\n    error presaleMimumumUSDPurchaseInvalid();\n    error presaleMaximumPresaleAmountInvalid();\n    error presaleUSDPurchaseNotSufficient();\n    error presaleAmountOverdemand();\n\n    constructor(address _tokenAddress, address payable _presaleReceiver) {\n        tokenAddress = _tokenAddress;\n        presaleReceiver = _presaleReceiver;\n    }\n\n    /**\n     * Get Current Presale Round\n     */\n    function getCurrentPresaleRound() public view returns (uint256) {\n        for (\n            uint256 presaleRound = totalPresaleRound.current() - 1;\n            presaleRound > 0;\n            presaleRound--\n        ) {\n            if (\n                presaleDetailsMapping[presaleRound].startingTime <=\n                block.timestamp\n            ) {\n                return presaleRound;\n            }\n        }\n\n        return 0;\n    }\n\n    /**\n     * Getting the Current Presale Details, including:\n     * - Starting Time\n     * - USD Price\n     * - Minimum USD Purchase\n     * - Maximum Presale Amount\n     */\n    function getCurrentPresaleDetails()\n        public\n        view\n        returns (\n            uint256,\n            uint256,\n            uint256,\n            uint256\n        )\n    {\n        uint256 currentPresaleRound = getCurrentPresaleRound();\n        return (\n            presaleDetailsMapping[currentPresaleRound].startingTime,\n            presaleDetailsMapping[currentPresaleRound].usdPrice,\n            presaleDetailsMapping[currentPresaleRound].minimumUSDPurchase,\n            presaleDetailsMapping[currentPresaleRound].maximumPresaleAmount\n        );\n    }\n\n    /**\n     * Execute the Presale of ALPS Token in exchange of other token\n     *\n     * @dev _paymentTokenAddress - Address of the token use to pay (address 0 is for native token)\n     * @dev _amount - Amount denominated in the `paymentTokenAddress` being paid\n     */\n    function presaleTokens(address _paymentTokenAddress, uint256 _amount)\n        public\n        payable\n        nonReentrant\n    {\n        uint256 currentPresaleRound = getCurrentPresaleRound();\n        (\n            uint256 currentPresaleStartingTime,\n            uint256 currentPresalePrice,\n            uint256 currentPresaleMinimumUSDPurchase,\n            uint256 currentPresaleMaximumPresaleAmount\n        ) = getCurrentPresaleDetails();\n\n        // Check whether the presale round is still open\n        if (block.timestamp >= currentPresaleStartingTime)\n            revert presaleRoundClosed();\n\n        // Check whether token is valid\n        if (presaleTokenAvaliblilityMapping[_paymentTokenAddress])\n            revert presaleTokenNotAvailable();\n\n        // Convert the token with Chainlink Price Feed\n        IERC20Custom token = IERC20Custom(tokenAddress);\n\n        uint256 presaleUSDAmount = 10**18;\n\n        if (presaleUSDAmount < currentPresaleMinimumUSDPurchase)\n            revert presaleUSDPurchaseNotSufficient();\n\n        uint256 presaleAmount = SafeMath.div(\n            presaleUSDAmount,\n            currentPresalePrice\n        );\n\n        if (\n            presaleAmount >\n            currentPresaleMaximumPresaleAmount -\n                presaleAmountByRoundMapping[currentPresaleRound]\n        ) revert presaleAmountOverdemand();\n\n        presaleAmountByRoundMapping[currentPresaleRound] += presaleAmount;\n\n        // Receive the payment token and transfer it to another address\n        if (_paymentTokenAddress == address(0)) {\n            if (msg.value < _amount) {\n                revert presaleNativeTokenPaymentNotSufficient();\n            } else {\n                presaleReceiver.transfer(_amount);\n\n                // in case you deployed the contract with more ether than required,\n                // transfer the remaining ether back to yourself\n                payable(msg.sender).transfer(address(this).balance);\n            }\n        } else {\n            IERC20 paymentToken = IERC20(_paymentTokenAddress);\n            paymentToken.transferFrom(msg.sender, presaleReceiver, _amount);\n        }\n\n        // Send ALPS token to `msg.sender`\n        token.mint(msg.sender, presaleAmount);\n        emit TokenPresold(\n            msg.sender,\n            _paymentTokenAddress,\n            presaleAmount,\n            _amount\n        );\n    }\n\n    /**\n     * Set new Presale Receiver Address\n     *\n     * @dev _newPresaleReceiver - Address that'll receive the presale payment token\n     */\n    function setPresaleReceiver(address payable _newPresaleReceiver)\n        public\n        onlyOwner\n    {\n        presaleReceiver = _newPresaleReceiver;\n    }\n\n    /**\n     * Set new Presale Token Address\n     *\n     * @dev _newTokenAddress - Address of token that'll be presaled\n     */\n    function setPresaleTokenAddress(address _newTokenAddress) public onlyOwner {\n        tokenAddress = _newTokenAddress;\n    }\n\n    /**\n     * Creating/Updating a presale round information\n     *\n     * @dev _presaleRound - The presale round chosen\n     * @dev _startingTime - The starting Presale time\n     * @dev _usdPrice - The USD Price of the Token in certain Presale Round\n     * @dev _minimumUSDPurchase - The minimum USD amount to purchase the token\n     * @dev _maximumPresaleAmount - The maximum amount of token available for a presale round\n     */\n    function setPresaleRound(\n        uint256 _presaleRound,\n        uint256 _startingTime,\n        uint256 _usdPrice,\n        uint256 _minimumUSDPurchase,\n        uint256 _maximumPresaleAmount\n    ) public onlyOwner {\n        uint256 presaleStartingTime = presaleDetailsMapping[_presaleRound]\n            .startingTime;\n        uint256 presaleUSDPrice = presaleDetailsMapping[_presaleRound].usdPrice;\n        uint256 presaleMinimumUSDPurchase = presaleDetailsMapping[_presaleRound]\n            .minimumUSDPurchase;\n        uint256 presaleMaximumPresaleAmount = presaleDetailsMapping[\n            _presaleRound\n        ].maximumPresaleAmount;\n\n        // Increment the total round counter when new presale is created\n        if (\n            presaleStartingTime == 0 &&\n            presaleUSDPrice == 0 &&\n            presaleMinimumUSDPurchase == 0 &&\n            presaleMaximumPresaleAmount == 0\n        ) totalPresaleRound.increment();\n\n        // Starting time has to be:\n        // - larger than zero\n        // - larger than previous round starting time\n        if (\n            _startingTime == 0 ||\n            (_presaleRound != 0 &&\n                _startingTime <\n                presaleDetailsMapping[_presaleRound - 1].startingTime)\n        ) revert presaleStartingTimeInvalid();\n\n        // These values given must be larger than zero\n        if (_usdPrice == 0) revert presaleUSDPriceInvalid();\n        if (_minimumUSDPurchase == 0) revert presaleMimumumUSDPurchaseInvalid();\n        if (_maximumPresaleAmount == 0)\n            revert presaleMaximumPresaleAmountInvalid();\n\n        presaleDetailsMapping[_presaleRound].startingTime = _startingTime;\n        presaleDetailsMapping[_presaleRound].usdPrice = _usdPrice;\n        presaleDetailsMapping[_presaleRound]\n            .minimumUSDPurchase = _minimumUSDPurchase;\n        presaleDetailsMapping[_presaleRound]\n            .maximumPresaleAmount = _maximumPresaleAmount;\n    }\n}\n",
  "sourcePath": "/Users/yosephks/Documents/GitHub/alpsfinance-smart-contracts/contracts/presale/mocks/MockPresale.sol",
  "compiler": {
    "name": "solc",
    "version": "0.8.11+commit.d7f03943.Emscripten.clang"
  },
  "schemaVersion": "3.4.4",
  "updatedAt": "2022-02-27T16:28:40.556Z",
  "devdoc": {
    "kind": "dev",
    "methods": {
      "owner()": {
        "details": "Returns the address of the current owner."
      },
      "presaleTokens(address,uint256)": {
        "details": "_paymentTokenAddress - Address of the token use to pay (address 0 is for native token)_amount - Amount denominated in the `paymentTokenAddress` being paid"
      },
      "renounceOwnership()": {
        "details": "Leaves the contract without owner. It will not be possible to call `onlyOwner` functions anymore. Can only be called by the current owner. NOTE: Renouncing ownership will leave the contract without an owner, thereby removing any functionality that is only available to the owner."
      },
      "setPresaleReceiver(address)": {
        "details": "_newPresaleReceiver - Address that'll receive the presale payment token"
      },
      "setPresaleRound(uint256,uint256,uint256,uint256,uint256)": {
        "details": "_presaleRound - The presale round chosen_startingTime - The starting Presale time_usdPrice - The USD Price of the Token in certain Presale Round_minimumUSDPurchase - The minimum USD amount to purchase the token_maximumPresaleAmount - The maximum amount of token available for a presale round"
      },
      "setPresaleTokenAddress(address)": {
        "details": "_newTokenAddress - Address of token that'll be presaled"
      },
      "transferOwnership(address)": {
        "details": "Transfers ownership of the contract to a new account (`newOwner`). Can only be called by the current owner."
      }
    },
    "version": 1
  },
  "userdoc": {
    "kind": "user",
    "methods": {
      "getCurrentPresaleDetails()": {
        "notice": "Getting the Current Presale Details, including: - Starting Time - USD Price - Minimum USD Purchase - Maximum Presale Amount"
      },
      "getCurrentPresaleRound()": {
        "notice": "Get Current Presale Round"
      },
      "presaleTokens(address,uint256)": {
        "notice": "Execute the Presale of ALPS Token in exchange of other token"
      },
      "setPresaleReceiver(address)": {
        "notice": "Set new Presale Receiver Address"
      },
      "setPresaleRound(uint256,uint256,uint256,uint256,uint256)": {
        "notice": "Creating/Updating a presale round information"
      },
      "setPresaleTokenAddress(address)": {
        "notice": "Set new Presale Token Address"
      }
    },
    "version": 1
  }
}