{
  "contractName": "Presale",
  "abi": [
    {
      "inputs": [
        {
          "internalType": "address",
          "name": "_tokenAddress",
          "type": "address"
        },
        {
          "internalType": "address payable",
          "name": "_presaleReceiver",
          "type": "address"
        }
      ],
      "stateMutability": "nonpayable",
      "type": "constructor"
    },
    {
      "inputs": [],
      "name": "presaleAmountOverdemand",
      "type": "error"
    },
    {
      "inputs": [],
      "name": "presaleMaximumPresaleAmountInvalid",
      "type": "error"
    },
    {
      "inputs": [],
      "name": "presaleMimumumUSDPurchaseInvalid",
      "type": "error"
    },
    {
      "inputs": [],
      "name": "presaleNativeTokenPaymentNotSufficient",
      "type": "error"
    },
    {
      "inputs": [],
      "name": "presaleNonZeroAddressInvalid",
      "type": "error"
    },
    {
      "inputs": [],
      "name": "presaleRoundClosed",
      "type": "error"
    },
    {
      "inputs": [],
      "name": "presaleStartingTimeInvalid",
      "type": "error"
    },
    {
      "inputs": [],
      "name": "presaleTokenNotAvailable",
      "type": "error"
    },
    {
      "inputs": [],
      "name": "presaleUSDPriceInvalid",
      "type": "error"
    },
    {
      "inputs": [],
      "name": "presaleUSDPurchaseNotSufficient",
      "type": "error"
    },
    {
      "anonymous": false,
      "inputs": [
        {
          "indexed": true,
          "internalType": "address",
          "name": "previousOwner",
          "type": "address"
        },
        {
          "indexed": true,
          "internalType": "address",
          "name": "newOwner",
          "type": "address"
        }
      ],
      "name": "OwnershipTransferred",
      "type": "event"
    },
    {
      "anonymous": false,
      "inputs": [
        {
          "indexed": false,
          "internalType": "address",
          "name": "tokenAddress",
          "type": "address"
        },
        {
          "indexed": false,
          "internalType": "bool",
          "name": "tokenAvailability",
          "type": "bool"
        },
        {
          "indexed": false,
          "internalType": "address",
          "name": "aggregatorAddress",
          "type": "address"
        }
      ],
      "name": "PresalePaymentTokenUpdated",
      "type": "event"
    },
    {
      "anonymous": false,
      "inputs": [
        {
          "indexed": false,
          "internalType": "address",
          "name": "receiverAddress",
          "type": "address"
        }
      ],
      "name": "PresaleReceiverUpdated",
      "type": "event"
    },
    {
      "anonymous": false,
      "inputs": [
        {
          "indexed": true,
          "internalType": "uint256",
          "name": "presaleRound",
          "type": "uint256"
        },
        {
          "indexed": false,
          "internalType": "uint256",
          "name": "startingTime",
          "type": "uint256"
        },
        {
          "indexed": false,
          "internalType": "uint256",
          "name": "usdPrice",
          "type": "uint256"
        },
        {
          "indexed": false,
          "internalType": "uint256",
          "name": "minimumUSDPurchase",
          "type": "uint256"
        },
        {
          "indexed": false,
          "internalType": "uint256",
          "name": "maximumPresaleAmount",
          "type": "uint256"
        }
      ],
      "name": "PresaleRoundUpdated",
      "type": "event"
    },
    {
      "anonymous": false,
      "inputs": [
        {
          "indexed": false,
          "internalType": "address",
          "name": "tokenAddress",
          "type": "address"
        }
      ],
      "name": "PresaleTokenUpdated",
      "type": "event"
    },
    {
      "anonymous": false,
      "inputs": [
        {
          "indexed": true,
          "internalType": "address",
          "name": "to",
          "type": "address"
        },
        {
          "indexed": true,
          "internalType": "address",
          "name": "paymentTokenAddress",
          "type": "address"
        },
        {
          "indexed": false,
          "internalType": "uint256",
          "name": "amount",
          "type": "uint256"
        },
        {
          "indexed": false,
          "internalType": "uint256",
          "name": "paymentTokenamount",
          "type": "uint256"
        }
      ],
      "name": "TokenPresold",
      "type": "event"
    },
    {
      "inputs": [],
      "name": "owner",
      "outputs": [
        {
          "internalType": "address",
          "name": "",
          "type": "address"
        }
      ],
      "stateMutability": "view",
      "type": "function"
    },
    {
      "inputs": [
        {
          "internalType": "uint256",
          "name": "",
          "type": "uint256"
        }
      ],
      "name": "presaleAmountByRoundMapping",
      "outputs": [
        {
          "internalType": "uint256",
          "name": "",
          "type": "uint256"
        }
      ],
      "stateMutability": "view",
      "type": "function"
    },
    {
      "inputs": [
        {
          "internalType": "uint256",
          "name": "",
          "type": "uint256"
        }
      ],
      "name": "presaleDetailsMapping",
      "outputs": [
        {
          "internalType": "uint256",
          "name": "startingTime",
          "type": "uint256"
        },
        {
          "internalType": "uint256",
          "name": "usdPrice",
          "type": "uint256"
        },
        {
          "internalType": "uint256",
          "name": "minimumUSDPurchase",
          "type": "uint256"
        },
        {
          "internalType": "uint256",
          "name": "maximumPresaleAmount",
          "type": "uint256"
        }
      ],
      "stateMutability": "view",
      "type": "function"
    },
    {
      "inputs": [
        {
          "internalType": "address",
          "name": "",
          "type": "address"
        }
      ],
      "name": "presalePaymentTokenMapping",
      "outputs": [
        {
          "internalType": "bool",
          "name": "available",
          "type": "bool"
        },
        {
          "internalType": "address",
          "name": "aggregatorAddress",
          "type": "address"
        }
      ],
      "stateMutability": "view",
      "type": "function"
    },
    {
      "inputs": [],
      "name": "presaleReceiver",
      "outputs": [
        {
          "internalType": "address payable",
          "name": "",
          "type": "address"
        }
      ],
      "stateMutability": "view",
      "type": "function"
    },
    {
      "inputs": [],
      "name": "renounceOwnership",
      "outputs": [],
      "stateMutability": "nonpayable",
      "type": "function"
    },
    {
      "inputs": [],
      "name": "tokenAddress",
      "outputs": [
        {
          "internalType": "address",
          "name": "",
          "type": "address"
        }
      ],
      "stateMutability": "view",
      "type": "function"
    },
    {
      "inputs": [],
      "name": "totalPresaleRound",
      "outputs": [
        {
          "internalType": "uint256",
          "name": "_value",
          "type": "uint256"
        }
      ],
      "stateMutability": "view",
      "type": "function"
    },
    {
      "inputs": [
        {
          "internalType": "address",
          "name": "newOwner",
          "type": "address"
        }
      ],
      "name": "transferOwnership",
      "outputs": [],
      "stateMutability": "nonpayable",
      "type": "function"
    },
    {
      "inputs": [],
      "name": "getTotalPresaleRound",
      "outputs": [
        {
          "internalType": "uint256",
          "name": "",
          "type": "uint256"
        }
      ],
      "stateMutability": "view",
      "type": "function"
    },
    {
      "inputs": [
        {
          "internalType": "uint256",
          "name": "_presaleRound",
          "type": "uint256"
        }
      ],
      "name": "getPresaleAmountByRound",
      "outputs": [
        {
          "internalType": "uint256",
          "name": "",
          "type": "uint256"
        }
      ],
      "stateMutability": "view",
      "type": "function"
    },
    {
      "inputs": [],
      "name": "getTotalPresaleAmount",
      "outputs": [
        {
          "internalType": "uint256",
          "name": "",
          "type": "uint256"
        }
      ],
      "stateMutability": "view",
      "type": "function"
    },
    {
      "inputs": [],
      "name": "getCurrentPresaleRound",
      "outputs": [
        {
          "internalType": "uint256",
          "name": "",
          "type": "uint256"
        }
      ],
      "stateMutability": "view",
      "type": "function"
    },
    {
      "inputs": [],
      "name": "getCurrentPresaleDetails",
      "outputs": [
        {
          "internalType": "uint256",
          "name": "",
          "type": "uint256"
        },
        {
          "internalType": "uint256",
          "name": "",
          "type": "uint256"
        },
        {
          "internalType": "uint256",
          "name": "",
          "type": "uint256"
        },
        {
          "internalType": "uint256",
          "name": "",
          "type": "uint256"
        }
      ],
      "stateMutability": "view",
      "type": "function"
    },
    {
      "inputs": [
        {
          "internalType": "address",
          "name": "_paymentTokenAddress",
          "type": "address"
        },
        {
          "internalType": "uint256",
          "name": "_amount",
          "type": "uint256"
        }
      ],
      "name": "presaleTokens",
      "outputs": [],
      "stateMutability": "payable",
      "type": "function"
    },
    {
      "inputs": [
        {
          "internalType": "address payable",
          "name": "_newPresaleReceiver",
          "type": "address"
        }
      ],
      "name": "setPresaleReceiver",
      "outputs": [],
      "stateMutability": "nonpayable",
      "type": "function"
    },
    {
      "inputs": [
        {
          "internalType": "address",
          "name": "_newTokenAddress",
          "type": "address"
        }
      ],
      "name": "setPresaleTokenAddress",
      "outputs": [],
      "stateMutability": "nonpayable",
      "type": "function"
    },
    {
      "inputs": [
        {
          "internalType": "address",
          "name": "_tokenAddress",
          "type": "address"
        },
        {
          "internalType": "bool",
          "name": "_tokenAvailability",
          "type": "bool"
        },
        {
          "internalType": "address",
          "name": "_aggregatorAddress",
          "type": "address"
        }
      ],
      "name": "setPresalePaymentToken",
      "outputs": [],
      "stateMutability": "nonpayable",
      "type": "function"
    },
    {
      "inputs": [
        {
          "internalType": "uint256",
          "name": "_presaleRound",
          "type": "uint256"
        },
        {
          "internalType": "uint256",
          "name": "_startingTime",
          "type": "uint256"
        },
        {
          "internalType": "uint256",
          "name": "_usdPrice",
          "type": "uint256"
        },
        {
          "internalType": "uint256",
          "name": "_minimumUSDPurchase",
          "type": "uint256"
        },
        {
          "internalType": "uint256",
          "name": "_maximumPresaleAmount",
          "type": "uint256"
        }
      ],
      "name": "setPresaleRound",
      "outputs": [],
      "stateMutability": "nonpayable",
      "type": "function"
    }
  ],
  "bytecode": "0x608060405234801561001057600080fd5b50604051620014dd380380620014dd833981016040819052610031916100d7565b61003a3361006f565b60018055600380546001600160a01b039384166001600160a01b03199182161790915560048054929093169116179055610111565b600080546001600160a01b038381166001600160a01b0319831681178455604051919092169283917f8be0079c531659141344cd1fd0a4f28419497f9722a3daafe3b4186f6b6457e09190a35050565b6001600160a01b03811681146100d457600080fd5b50565b600080604083850312156100ea57600080fd5b82516100f5816100bf565b6020840151909250610106816100bf565b809150509250929050565b6113bc80620001216000396000f3fe6080604052600436106101145760003560e01c80638e7d41b7116100a0578063d958e00111610064578063d958e00114610359578063ec2b352314610386578063efca90491461039b578063f2fde38b146103ae578063feda925b146103ce57600080fd5b80638e7d41b714610283578063962de5c0146102e25780639d76ea58146102f9578063c143641514610319578063c829d1db1461033957600080fd5b80633c0c134d116100e75780633c0c134d14610198578063715018a6146101ba578063736e38ef146101cf5780637b4d3585146101ef5780638da5cb5b1461025157600080fd5b80630aca575a146101195780631c63f0ed14610141578063392f911b14610156578063398dcd2614610183575b600080fd5b34801561012557600080fd5b5061012e6103ee565b6040519081526020015b60405180910390f35b34801561014d57600080fd5b5061012e610430565b34801561016257600080fd5b5061012e610171366004610f11565b60066020526000908152604090205481565b34801561018f57600080fd5b5061012e610485565b3480156101a457600080fd5b506101b86101b3366004610f3f565b610495565b005b3480156101c657600080fd5b506101b8610545565b3480156101db57600080fd5b506101b86101ea366004610f6a565b61057b565b3480156101fb57600080fd5b5061023161020a366004610f11565b60056020526000908152604090208054600182015460028301546003909301549192909184565b604080519485526020850193909352918301526060820152608001610138565b34801561025d57600080fd5b506000546001600160a01b03165b6040516001600160a01b039091168152602001610138565b34801561028f57600080fd5b506102c361029e366004610f3f565b60076020526000908152604090205460ff81169061010090046001600160a01b031682565b6040805192151583526001600160a01b03909116602083015201610138565b3480156102ee57600080fd5b5060025461012e9081565b34801561030557600080fd5b5060035461026b906001600160a01b031681565b34801561032557600080fd5b5060045461026b906001600160a01b031681565b34801561034557600080fd5b506101b8610354366004610fb5565b610658565b34801561036557600080fd5b5061012e610374366004610f11565b60009081526006602052604090205490565b34801561039257600080fd5b50610231610802565b6101b86103a9366004610ff0565b610841565b3480156103ba57600080fd5b506101b86103c9366004610f3f565b610d14565b3480156103da57600080fd5b506101b86103e9366004610f3f565b610daf565b600080805b60025481101561042a576000818152600660205260409020546104169083611032565b9150806104228161104a565b9150506103f3565b50919050565b600080600161043e60025490565b6104489190611065565b90505b801561047d57600081815260056020526040902054421061046b57919050565b806104758161107c565b91505061044b565b506000905090565b600061049060025490565b905090565b6000546001600160a01b031633146104c85760405162461bcd60e51b81526004016104bf90611093565b60405180910390fd5b806001600160a01b0381166104f05760405163120d99cb60e11b815260040160405180910390fd5b600380546001600160a01b0319166001600160a01b0384169081179091556040519081527fee1a99df2103f0b252dbc99d29264423a2ff1bb9c2f60dc19903e2ce82989b8b9060200160405180910390a15050565b6000546001600160a01b0316331461056f5760405162461bcd60e51b81526004016104bf90611093565b6105796000610e2d565b565b6000546001600160a01b031633146105a55760405162461bcd60e51b81526004016104bf90611093565b806001600160a01b0381166105cd5760405163120d99cb60e11b815260040160405180910390fd5b6001600160a01b0384811660008181526007602090815260409182902080546001600160a81b031916881515610100600160a81b0319811691909117610100968916968702179091558251938452908301528101919091527f0808e27b4009f59d9d966410b0eead8697b72a10434291d723d6200ab3f343e59060600160405180910390a150505050565b6000546001600160a01b031633146106825760405162461bcd60e51b81526004016104bf90611093565b600085815260056020526040902080546001820154600283015460039093015491929091831580156106b2575082155b80156106bc575081155b80156106c6575080155b156106d9576106d9600280546001019055565b87158061070f5750881580159061070f5750600560006106fa60018c611065565b81526020019081526020016000206000015488105b1561072d57604051633863ce1d60e01b815260040160405180910390fd5b8661074b576040516329198c7f60e11b815260040160405180910390fd5b8561076957604051630746844f60e31b815260040160405180910390fd5b8461078757604051639f2bfa4160e01b815260040160405180910390fd5b6000898152600560209081526040918290208a8155600181018a90556002810189905560030187905581518a81529081018990529081018790526060810186905289907f5460f1c76402b41ef0b7902b6b577fd351a2a6bc531d4a246d8be68dde775a2b9060800160405180910390a2505050505050505050565b6000806000806000610812610430565b600090815260056020526040902080546001820154600283015460039093015491989097509195509350915050565b600260015414156108945760405162461bcd60e51b815260206004820152601f60248201527f5265656e7472616e637947756172643a207265656e7472616e742063616c6c0060448201526064016104bf565b600260015560008080806108a6610802565b9350935093509350834210156108e95760405162461bcd60e51b8152602060048201526008602482015267283932b9b0b6329d60c11b60448201526064016104bf565b6001600160a01b03861660009081526007602052604090205460ff16610922576040516303003c8560e21b815260040160405180910390fd5b6003546001600160a01b03878116600090815260076020526040808220548151633fabe5a360e21b815291519484169461010090910490931692839163feaf968c9160048083019260a09291908290030181865afa158015610988573d6000803e3d6000fd5b505050506040513d601f19601f820116820180604052508101906109ac91906110e7565b5050509150506000610a8a610a8483856001600160a01b031663313ce5676040518163ffffffff1660e01b8152600401602060405180830381865afa1580156109f9573d6000803e3d6000fd5b505050506040513d601f19601f82011682018060405250810190610a1d9190611137565b876001600160a01b031663313ce5676040518163ffffffff1660e01b8152600401602060405180830381865afa158015610a5b573d6000803e3d6000fd5b505050506040513d601f19601f82011682018060405250810190610a7f9190611137565b610e7d565b8a610ef0565b905085610a9a8260126000610e7d565b1015610ab95760405163196d4a1d60e01b815260040160405180910390fd5b6000610ac58289610f05565b905060066000610ad3610430565b81526020019081526020016000205486610aed9190611065565b811115610b0d576040516317b1337360e31b815260040160405180910390fd5b8060066000610b1a610430565b81526020019081526020016000206000828254610b379190611032565b90915550506001600160a01b038b16610bd85789341015610b6b5760405163854a356160e01b815260040160405180910390fd5b6004546040516001600160a01b03909116908b156108fc02908c906000818181858888f19350505050158015610ba5573d6000803e3d6000fd5b5060405133904780156108fc02916000818181858888f19350505050158015610bd2573d6000803e3d6000fd5b50610c5d565b600480546040516323b872dd60e01b815233928101929092526001600160a01b039081166024830152604482018c90528c91908216906323b872dd906064016020604051808303816000875af1158015610c36573d6000803e3d6000fd5b505050506040513d601f19601f82011682018060405250810190610c5a919061115a565b50505b6040516340c10f1960e01b8152336004820152602481018290526001600160a01b038616906340c10f1990604401600060405180830381600087803b158015610ca557600080fd5b505af1158015610cb9573d6000803e3d6000fd5b505060408051848152602081018e90526001600160a01b038f1693503392507f69902df1d9bae4b2a08b9e9d689906299b4b15ac10fbbf560d019b5c73fd35d6910160405180910390a3505060018055505050505050505050565b6000546001600160a01b03163314610d3e5760405162461bcd60e51b81526004016104bf90611093565b6001600160a01b038116610da35760405162461bcd60e51b815260206004820152602660248201527f4f776e61626c653a206e6577206f776e657220697320746865207a65726f206160448201526564647265737360d01b60648201526084016104bf565b610dac81610e2d565b50565b6000546001600160a01b03163314610dd95760405162461bcd60e51b81526004016104bf90611093565b600480546001600160a01b0319166001600160a01b0383169081179091556040519081527fb3df4b02428d73d6993c686e78b4a35e95f5be7d084aaee9277115379dc4ca939060200160405180910390a150565b600080546001600160a01b038381166001600160a01b0319831681178455604051919092169283917f8be0079c531659141344cd1fd0a4f28419497f9722a3daafe3b4186f6b6457e09190a35050565b60008160ff168360ff161015610eb657610e978383611177565b610ea59060ff16600a61127e565b610eaf908561128a565b9050610ee9565b8160ff168360ff161115610ee657610ece8284611177565b610edc9060ff16600a61127e565b610eaf9085611325565b50825b9392505050565b6000610efc8284611353565b90505b92915050565b6000610efc8284611372565b600060208284031215610f2357600080fd5b5035919050565b6001600160a01b0381168114610dac57600080fd5b600060208284031215610f5157600080fd5b8135610ee981610f2a565b8015158114610dac57600080fd5b600080600060608486031215610f7f57600080fd5b8335610f8a81610f2a565b92506020840135610f9a81610f5c565b91506040840135610faa81610f2a565b809150509250925092565b600080600080600060a08688031215610fcd57600080fd5b505083359560208501359550604085013594606081013594506080013592509050565b6000806040838503121561100357600080fd5b823561100e81610f2a565b946020939093013593505050565b634e487b7160e01b600052601160045260246000fd5b600082198211156110455761104561101c565b500190565b600060001982141561105e5761105e61101c565b5060010190565b6000828210156110775761107761101c565b500390565b60008161108b5761108b61101c565b506000190190565b6020808252818101527f4f776e61626c653a2063616c6c6572206973206e6f7420746865206f776e6572604082015260600190565b805169ffffffffffffffffffff811681146110e257600080fd5b919050565b600080600080600060a086880312156110ff57600080fd5b611108866110c8565b945060208601519350604086015192506060860151915061112b608087016110c8565b90509295509295909350565b60006020828403121561114957600080fd5b815160ff81168114610ee957600080fd5b60006020828403121561116c57600080fd5b8151610ee981610f5c565b600060ff821660ff8416808210156111915761119161101c565b90039392505050565b600181815b808511156111d55781600019048211156111bb576111bb61101c565b808516156111c857918102915b93841c939080029061119f565b509250929050565b6000826111ec57506001610eff565b816111f957506000610eff565b816001811461120f576002811461121957611235565b6001915050610eff565b60ff84111561122a5761122a61101c565b50506001821b610eff565b5060208310610133831016604e8410600b8410161715611258575081810a610eff565b611262838361119a565b80600019048211156112765761127661101c565b029392505050565b6000610efc83836111dd565b60006001600160ff1b03818413828413808216868404861116156112b0576112b061101c565b600160ff1b60008712828116878305891216156112cf576112cf61101c565b600087129250878205871284841616156112eb576112eb61101c565b878505871281841616156113015761130161101c565b505050929093029392505050565b634e487b7160e01b600052601260045260246000fd5b6000826113345761133461130f565b600160ff1b82146000198414161561134e5761134e61101c565b500590565b600081600019048311821515161561136d5761136d61101c565b500290565b6000826113815761138161130f565b50049056fea26469706673582212205489c496abed1c92b9d8ba79afb615aa1773401767e71bd079181ce285d194ef64736f6c634300080b0033",
  "immutableReferences": {},
  "source": "// SPDX-License-Identifier: AGPL-3.0\r\n\r\npragma solidity ^0.8.11;\r\n\r\nimport \"@openzeppelin/contracts/access/Ownable.sol\";\r\nimport \"@openzeppelin/contracts/token/ERC20/IERC20.sol\";\r\nimport \"@openzeppelin/contracts/utils/Counters.sol\";\r\nimport \"@openzeppelin/contracts/utils/math/SafeMath.sol\";\r\nimport \"@openzeppelin/contracts/security/ReentrancyGuard.sol\";\r\nimport \"@chainlink/contracts/src/v0.8/interfaces/AggregatorV3Interface.sol\";\r\nimport \"../libraries/PriceConverter.sol\";\r\nimport \"../token/interfaces/IERC20Custom.sol\";\r\n\r\ncontract Presale is Ownable, ReentrancyGuard {\r\n    using Counters for Counters.Counter;\r\n    using SafeMath for uint256;\r\n\r\n    struct PresaleData {\r\n        uint256 startingTime;\r\n        uint256 usdPrice;\r\n        uint256 minimumUSDPurchase;\r\n        uint256 maximumPresaleAmount;\r\n    }\r\n    struct PresalePaymentTokenData {\r\n        bool available;\r\n        address aggregatorAddress;\r\n    }\r\n\r\n    event TokenPresold(\r\n        address indexed to,\r\n        address indexed paymentTokenAddress,\r\n        uint256 amount,\r\n        uint256 paymentTokenamount\r\n    );\r\n    event PresaleRoundUpdated(\r\n        uint256 indexed presaleRound,\r\n        uint256 startingTime,\r\n        uint256 usdPrice,\r\n        uint256 minimumUSDPurchase,\r\n        uint256 maximumPresaleAmount\r\n    );\r\n    event PresaleReceiverUpdated(address receiverAddress);\r\n    event PresalePaymentTokenUpdated(\r\n        address tokenAddress,\r\n        bool tokenAvailability,\r\n        address aggregatorAddress\r\n    );\r\n    event PresaleTokenUpdated(address tokenAddress);\r\n\r\n    Counters.Counter public totalPresaleRound;\r\n    address public tokenAddress;\r\n    address payable public presaleReceiver;\r\n\r\n    // Mapping `presaleRound` to its data details\r\n    mapping(uint256 => PresaleData) public presaleDetailsMapping;\r\n    mapping(uint256 => uint256) public presaleAmountByRoundMapping;\r\n    mapping(address => PresalePaymentTokenData)\r\n        public presalePaymentTokenMapping;\r\n\r\n    error presaleRoundClosed();\r\n    error presaleTokenNotAvailable();\r\n    error presaleNativeTokenPaymentNotSufficient();\r\n    error presaleStartingTimeInvalid();\r\n    error presaleUSDPriceInvalid();\r\n    error presaleMimumumUSDPurchaseInvalid();\r\n    error presaleMaximumPresaleAmountInvalid();\r\n    error presaleUSDPurchaseNotSufficient();\r\n    error presaleAmountOverdemand();\r\n    error presaleNonZeroAddressInvalid();\r\n\r\n    modifier onlyNonZeroAddress(address _address) {\r\n        if (_address == address(0)) revert presaleNonZeroAddressInvalid();\r\n        _;\r\n    }\r\n\r\n    constructor(address _tokenAddress, address payable _presaleReceiver) {\r\n        tokenAddress = _tokenAddress;\r\n        presaleReceiver = _presaleReceiver;\r\n    }\r\n\r\n    /**\r\n     * Get total amount of presale round\r\n     */\r\n    function getTotalPresaleRound() public view returns (uint256) {\r\n        return totalPresaleRound.current();\r\n    }\r\n\r\n    /**\r\n     * Get presale total amount By presale round\r\n     *\r\n     * @dev _presaleRound - The presale round chosen\r\n     */\r\n    function getPresaleAmountByRound(uint256 _presaleRound)\r\n        public\r\n        view\r\n        returns (uint256)\r\n    {\r\n        return presaleAmountByRoundMapping[_presaleRound];\r\n    }\r\n\r\n    /**\r\n     * Get total amount of presale from all rounds\r\n     */\r\n    function getTotalPresaleAmount() public view returns (uint256) {\r\n        uint256 totalPresale = 0;\r\n        for (\r\n            uint256 presaleRound = 0;\r\n            presaleRound < totalPresaleRound.current();\r\n            presaleRound++\r\n        ) {\r\n            totalPresale += presaleAmountByRoundMapping[presaleRound];\r\n        }\r\n\r\n        return totalPresale;\r\n    }\r\n\r\n    /**\r\n     * Get Current Presale Round\r\n     */\r\n    function getCurrentPresaleRound() public view returns (uint256) {\r\n        for (\r\n            uint256 presaleRound = totalPresaleRound.current() - 1;\r\n            presaleRound > 0;\r\n            presaleRound--\r\n        ) {\r\n            if (\r\n                presaleDetailsMapping[presaleRound].startingTime <=\r\n                block.timestamp\r\n            ) {\r\n                return presaleRound;\r\n            }\r\n        }\r\n\r\n        return 0;\r\n    }\r\n\r\n    /**\r\n     * Getting the Current Presale Details, including:\r\n     * - Starting Time\r\n     * - USD Price\r\n     * - Minimum USD Purchase\r\n     * - Maximum Presale Amount\r\n     */\r\n    function getCurrentPresaleDetails()\r\n        public\r\n        view\r\n        returns (\r\n            uint256,\r\n            uint256,\r\n            uint256,\r\n            uint256\r\n        )\r\n    {\r\n        uint256 currentPresaleRound = getCurrentPresaleRound();\r\n        return (\r\n            presaleDetailsMapping[currentPresaleRound].startingTime,\r\n            presaleDetailsMapping[currentPresaleRound].usdPrice,\r\n            presaleDetailsMapping[currentPresaleRound].minimumUSDPurchase,\r\n            presaleDetailsMapping[currentPresaleRound].maximumPresaleAmount\r\n        );\r\n    }\r\n\r\n    /**\r\n     * Execute the Presale of ALPS Token in exchange of other token\r\n     *\r\n     * @dev _paymentTokenAddress - Address of the token use to pay (address 0 is for native token)\r\n     * @dev _amount - Amount denominated in the `paymentTokenAddress` being paid\r\n     */\r\n    function presaleTokens(address _paymentTokenAddress, uint256 _amount)\r\n        public\r\n        payable\r\n        nonReentrant\r\n    {\r\n        (\r\n            uint256 currentPresaleStartingTime,\r\n            uint256 currentPresalePrice,\r\n            uint256 currentPresaleMinimumUSDPurchase,\r\n            uint256 currentPresaleMaximumPresaleAmount\r\n        ) = getCurrentPresaleDetails();\r\n\r\n        // Check whether the presale round is still open\r\n        require(block.timestamp >= currentPresaleStartingTime, \"Presale:\");\r\n\r\n        // Check whether token is valid\r\n        if (!presalePaymentTokenMapping[_paymentTokenAddress].available)\r\n            revert presaleTokenNotAvailable();\r\n\r\n        // Convert the token with Chainlink Price Feed\r\n        IERC20Custom token = IERC20Custom(tokenAddress);\r\n        AggregatorV3Interface priceFeed = AggregatorV3Interface(\r\n            presalePaymentTokenMapping[_paymentTokenAddress].aggregatorAddress\r\n        );\r\n        (, int256 price, , , ) = priceFeed.latestRoundData();\r\n        uint256 presaleUSDAmount = SafeMath.mul(\r\n            uint256(\r\n                PriceConverter.scalePrice(\r\n                    price,\r\n                    priceFeed.decimals(),\r\n                    token.decimals()\r\n                )\r\n            ),\r\n            _amount\r\n        );\r\n\r\n        if (\r\n            uint256(\r\n                PriceConverter.scalePrice(int256(presaleUSDAmount), 18, 0)\r\n            ) < currentPresaleMinimumUSDPurchase\r\n        ) revert presaleUSDPurchaseNotSufficient();\r\n\r\n        uint256 presaleAmount = SafeMath.div(\r\n            presaleUSDAmount,\r\n            currentPresalePrice\r\n        );\r\n\r\n        if (\r\n            presaleAmount >\r\n            currentPresaleMaximumPresaleAmount -\r\n                presaleAmountByRoundMapping[getCurrentPresaleRound()]\r\n        ) revert presaleAmountOverdemand();\r\n\r\n        presaleAmountByRoundMapping[getCurrentPresaleRound()] += presaleAmount;\r\n\r\n        // Receive the payment token and transfer it to another address\r\n        if (_paymentTokenAddress == address(0)) {\r\n            if (msg.value < _amount) {\r\n                revert presaleNativeTokenPaymentNotSufficient();\r\n            } else {\r\n                presaleReceiver.transfer(_amount);\r\n\r\n                // in case you deployed the contract with more ether than required,\r\n                // transfer the remaining ether back to yourself\r\n                payable(msg.sender).transfer(address(this).balance);\r\n            }\r\n        } else {\r\n            IERC20 paymentToken = IERC20(_paymentTokenAddress);\r\n            paymentToken.transferFrom(msg.sender, presaleReceiver, _amount);\r\n        }\r\n\r\n        // Send ALPS token to `msg.sender`\r\n        token.mint(msg.sender, presaleAmount);\r\n        emit TokenPresold(\r\n            msg.sender,\r\n            _paymentTokenAddress,\r\n            presaleAmount,\r\n            _amount\r\n        );\r\n    }\r\n\r\n    /**\r\n     * Set new Presale Receiver Address\r\n     *\r\n     * @dev _newPresaleReceiver - Address that'll receive the presale payment token\r\n     */\r\n    function setPresaleReceiver(address payable _newPresaleReceiver)\r\n        public\r\n        onlyOwner\r\n    {\r\n        presaleReceiver = _newPresaleReceiver;\r\n\r\n        emit PresaleReceiverUpdated(_newPresaleReceiver);\r\n    }\r\n\r\n    /**\r\n     * Set new Presale Token Address\r\n     *\r\n     * @dev _newTokenAddress - Address of token that'll be presaled\r\n     */\r\n    function setPresaleTokenAddress(address _newTokenAddress)\r\n        public\r\n        onlyOwner\r\n        onlyNonZeroAddress(_newTokenAddress)\r\n    {\r\n        tokenAddress = _newTokenAddress;\r\n\r\n        emit PresaleTokenUpdated(_newTokenAddress);\r\n    }\r\n\r\n    /**\r\n     * Set Presale Payment Token Info\r\n     *\r\n     * @dev _tokenAddress - Token Address use to purchase Presale\r\n     * @dev _tokenAvailability - Indication whether Token Address can be used for Presale\r\n     * @dev _aggregatorAddress - Chainlink's Aggregator Address to determine the USD price (for `presaleTokens`)\r\n     */\r\n    function setPresalePaymentToken(\r\n        address _tokenAddress,\r\n        bool _tokenAvailability,\r\n        address _aggregatorAddress\r\n    ) public onlyOwner onlyNonZeroAddress(_aggregatorAddress) {\r\n        presalePaymentTokenMapping[_tokenAddress]\r\n            .available = _tokenAvailability;\r\n        presalePaymentTokenMapping[_tokenAddress]\r\n            .aggregatorAddress = _aggregatorAddress;\r\n\r\n        emit PresalePaymentTokenUpdated(\r\n            _tokenAddress,\r\n            _tokenAvailability,\r\n            _aggregatorAddress\r\n        );\r\n    }\r\n\r\n    /**\r\n     * Creating/Updating a presale round information\r\n     *\r\n     * @dev _presaleRound - The presale round chosen\r\n     * @dev _startingTime - The starting Presale time\r\n     * @dev _usdPrice - The USD Price of the Token in certain Presale Round\r\n     * @dev _minimumUSDPurchase - The minimum USD amount to purchase the token\r\n     * @dev _maximumPresaleAmount - The maximum amount of token available for a presale round\r\n     */\r\n    function setPresaleRound(\r\n        uint256 _presaleRound,\r\n        uint256 _startingTime,\r\n        uint256 _usdPrice,\r\n        uint256 _minimumUSDPurchase,\r\n        uint256 _maximumPresaleAmount\r\n    ) public onlyOwner {\r\n        uint256 presaleStartingTime = presaleDetailsMapping[_presaleRound]\r\n            .startingTime;\r\n        uint256 presaleUSDPrice = presaleDetailsMapping[_presaleRound].usdPrice;\r\n        uint256 presaleMinimumUSDPurchase = presaleDetailsMapping[_presaleRound]\r\n            .minimumUSDPurchase;\r\n        uint256 presaleMaximumPresaleAmount = presaleDetailsMapping[\r\n            _presaleRound\r\n        ].maximumPresaleAmount;\r\n\r\n        // Increment the total round counter when new presale is created\r\n        if (\r\n            presaleStartingTime == 0 &&\r\n            presaleUSDPrice == 0 &&\r\n            presaleMinimumUSDPurchase == 0 &&\r\n            presaleMaximumPresaleAmount == 0\r\n        ) totalPresaleRound.increment();\r\n\r\n        // Starting time has to be:\r\n        // - larger than zero\r\n        // - larger than previous round starting time\r\n        if (\r\n            _startingTime == 0 ||\r\n            (_presaleRound != 0 &&\r\n                _startingTime <\r\n                presaleDetailsMapping[_presaleRound - 1].startingTime)\r\n        ) revert presaleStartingTimeInvalid();\r\n\r\n        // These values given must be larger than zero\r\n        if (_usdPrice == 0) revert presaleUSDPriceInvalid();\r\n        if (_minimumUSDPurchase == 0) revert presaleMimumumUSDPurchaseInvalid();\r\n        if (_maximumPresaleAmount == 0)\r\n            revert presaleMaximumPresaleAmountInvalid();\r\n\r\n        presaleDetailsMapping[_presaleRound].startingTime = _startingTime;\r\n        presaleDetailsMapping[_presaleRound].usdPrice = _usdPrice;\r\n        presaleDetailsMapping[_presaleRound]\r\n            .minimumUSDPurchase = _minimumUSDPurchase;\r\n        presaleDetailsMapping[_presaleRound]\r\n            .maximumPresaleAmount = _maximumPresaleAmount;\r\n\r\n        emit PresaleRoundUpdated(\r\n            _presaleRound,\r\n            _startingTime,\r\n            _usdPrice,\r\n            _minimumUSDPurchase,\r\n            _maximumPresaleAmount\r\n        );\r\n    }\r\n}\r\n",
  "sourcePath": "C:\\Users\\user\\Desktop\\alpsfinance-smart-contracts\\contracts\\presale\\Presale.sol",
  "compiler": {
    "name": "solc",
    "version": "0.8.11+commit.d7f03943.Emscripten.clang"
  },
  "schemaVersion": "3.4.5",
  "updatedAt": "2022-03-10T06:50:10.432Z",
  "devdoc": {
    "kind": "dev",
    "methods": {
      "getPresaleAmountByRound(uint256)": {
        "details": "_presaleRound - The presale round chosen"
      },
      "owner()": {
        "details": "Returns the address of the current owner."
      },
      "presaleTokens(address,uint256)": {
        "details": "_paymentTokenAddress - Address of the token use to pay (address 0 is for native token)_amount - Amount denominated in the `paymentTokenAddress` being paid"
      },
      "renounceOwnership()": {
        "details": "Leaves the contract without owner. It will not be possible to call `onlyOwner` functions anymore. Can only be called by the current owner. NOTE: Renouncing ownership will leave the contract without an owner, thereby removing any functionality that is only available to the owner."
      },
      "setPresalePaymentToken(address,bool,address)": {
        "details": "_tokenAddress - Token Address use to purchase Presale_tokenAvailability - Indication whether Token Address can be used for Presale_aggregatorAddress - Chainlink's Aggregator Address to determine the USD price (for `presaleTokens`)"
      },
      "setPresaleReceiver(address)": {
        "details": "_newPresaleReceiver - Address that'll receive the presale payment token"
      },
      "setPresaleRound(uint256,uint256,uint256,uint256,uint256)": {
        "details": "_presaleRound - The presale round chosen_startingTime - The starting Presale time_usdPrice - The USD Price of the Token in certain Presale Round_minimumUSDPurchase - The minimum USD amount to purchase the token_maximumPresaleAmount - The maximum amount of token available for a presale round"
      },
      "setPresaleTokenAddress(address)": {
        "details": "_newTokenAddress - Address of token that'll be presaled"
      },
      "transferOwnership(address)": {
        "details": "Transfers ownership of the contract to a new account (`newOwner`). Can only be called by the current owner."
      }
    },
    "version": 1
  },
  "userdoc": {
    "kind": "user",
    "methods": {
      "getCurrentPresaleDetails()": {
        "notice": "Getting the Current Presale Details, including: - Starting Time - USD Price - Minimum USD Purchase - Maximum Presale Amount"
      },
      "getCurrentPresaleRound()": {
        "notice": "Get Current Presale Round"
      },
      "getPresaleAmountByRound(uint256)": {
        "notice": "Get presale total amount By presale round"
      },
      "getTotalPresaleAmount()": {
        "notice": "Get total amount of presale from all rounds"
      },
      "getTotalPresaleRound()": {
        "notice": "Get total amount of presale round"
      },
      "presaleTokens(address,uint256)": {
        "notice": "Execute the Presale of ALPS Token in exchange of other token"
      },
      "setPresalePaymentToken(address,bool,address)": {
        "notice": "Set Presale Payment Token Info"
      },
      "setPresaleReceiver(address)": {
        "notice": "Set new Presale Receiver Address"
      },
      "setPresaleRound(uint256,uint256,uint256,uint256,uint256)": {
        "notice": "Creating/Updating a presale round information"
      },
      "setPresaleTokenAddress(address)": {
        "notice": "Set new Presale Token Address"
      }
    },
    "version": 1
  }
}