{
  "contractName": "Presale",
  "abi": [
    {
      "inputs": [
        {
          "internalType": "address",
          "name": "_tokenAddress",
          "type": "address"
        },
        {
          "internalType": "address payable",
          "name": "_presaleReceiver",
          "type": "address"
        }
      ],
      "stateMutability": "nonpayable",
      "type": "constructor"
    },
    {
      "inputs": [],
      "name": "presaleAmountOverdemand",
      "type": "error"
    },
    {
      "inputs": [],
      "name": "presaleMaximumPresaleAmountInvalid",
      "type": "error"
    },
    {
      "inputs": [],
      "name": "presaleMimumumUSDPurchaseInvalid",
      "type": "error"
    },
    {
      "inputs": [],
      "name": "presaleNativeTokenPaymentNotSufficient",
      "type": "error"
    },
    {
      "inputs": [],
      "name": "presaleRoundClosed",
      "type": "error"
    },
    {
      "inputs": [],
      "name": "presaleStartingTimeInvalid",
      "type": "error"
    },
    {
      "inputs": [],
      "name": "presaleTokenAddressInvalid",
      "type": "error"
    },
    {
      "inputs": [],
      "name": "presaleTokenNotAvailable",
      "type": "error"
    },
    {
      "inputs": [],
      "name": "presaleUSDPriceInvalid",
      "type": "error"
    },
    {
      "inputs": [],
      "name": "presaleUSDPurchaseNotSufficient",
      "type": "error"
    },
    {
      "anonymous": false,
      "inputs": [
        {
          "indexed": true,
          "internalType": "address",
          "name": "previousOwner",
          "type": "address"
        },
        {
          "indexed": true,
          "internalType": "address",
          "name": "newOwner",
          "type": "address"
        }
      ],
      "name": "OwnershipTransferred",
      "type": "event"
    },
    {
      "anonymous": false,
      "inputs": [
        {
          "indexed": true,
          "internalType": "address",
          "name": "to",
          "type": "address"
        },
        {
          "indexed": true,
          "internalType": "address",
          "name": "paymentTokenAddress",
          "type": "address"
        },
        {
          "indexed": false,
          "internalType": "uint256",
          "name": "amount",
          "type": "uint256"
        },
        {
          "indexed": false,
          "internalType": "uint256",
          "name": "paymentTokenamount",
          "type": "uint256"
        }
      ],
      "name": "TokenPresold",
      "type": "event"
    },
    {
      "inputs": [],
      "name": "owner",
      "outputs": [
        {
          "internalType": "address",
          "name": "",
          "type": "address"
        }
      ],
      "stateMutability": "view",
      "type": "function"
    },
    {
      "inputs": [
        {
          "internalType": "uint256",
          "name": "",
          "type": "uint256"
        }
      ],
      "name": "presaleAmountByRoundMapping",
      "outputs": [
        {
          "internalType": "uint256",
          "name": "",
          "type": "uint256"
        }
      ],
      "stateMutability": "view",
      "type": "function"
    },
    {
      "inputs": [
        {
          "internalType": "uint256",
          "name": "",
          "type": "uint256"
        }
      ],
      "name": "presaleDetailsMapping",
      "outputs": [
        {
          "internalType": "uint256",
          "name": "startingTime",
          "type": "uint256"
        },
        {
          "internalType": "uint256",
          "name": "usdPrice",
          "type": "uint256"
        },
        {
          "internalType": "uint256",
          "name": "minimumUSDPurchase",
          "type": "uint256"
        },
        {
          "internalType": "uint256",
          "name": "maximumPresaleAmount",
          "type": "uint256"
        }
      ],
      "stateMutability": "view",
      "type": "function"
    },
    {
      "inputs": [],
      "name": "presaleReceiver",
      "outputs": [
        {
          "internalType": "address payable",
          "name": "",
          "type": "address"
        }
      ],
      "stateMutability": "view",
      "type": "function"
    },
    {
      "inputs": [
        {
          "internalType": "address",
          "name": "",
          "type": "address"
        }
      ],
      "name": "presaleTokenAvailabilityMapping",
      "outputs": [
        {
          "internalType": "bool",
          "name": "",
          "type": "bool"
        }
      ],
      "stateMutability": "view",
      "type": "function"
    },
    {
      "inputs": [],
      "name": "renounceOwnership",
      "outputs": [],
      "stateMutability": "nonpayable",
      "type": "function"
    },
    {
      "inputs": [],
      "name": "tokenAddress",
      "outputs": [
        {
          "internalType": "address",
          "name": "",
          "type": "address"
        }
      ],
      "stateMutability": "view",
      "type": "function"
    },
    {
      "inputs": [],
      "name": "totalPresaleRound",
      "outputs": [
        {
          "internalType": "uint256",
          "name": "_value",
          "type": "uint256"
        }
      ],
      "stateMutability": "view",
      "type": "function"
    },
    {
      "inputs": [
        {
          "internalType": "address",
          "name": "newOwner",
          "type": "address"
        }
      ],
      "name": "transferOwnership",
      "outputs": [],
      "stateMutability": "nonpayable",
      "type": "function"
    },
    {
      "inputs": [],
      "name": "getTotalPresaleRound",
      "outputs": [
        {
          "internalType": "uint256",
          "name": "",
          "type": "uint256"
        }
      ],
      "stateMutability": "view",
      "type": "function"
    },
    {
      "inputs": [
        {
          "internalType": "uint256",
          "name": "_presaleRound",
          "type": "uint256"
        }
      ],
      "name": "getPresaleAmountByRound",
      "outputs": [
        {
          "internalType": "uint256",
          "name": "",
          "type": "uint256"
        }
      ],
      "stateMutability": "view",
      "type": "function"
    },
    {
      "inputs": [],
      "name": "getTotalPresaleAmount",
      "outputs": [
        {
          "internalType": "uint256",
          "name": "",
          "type": "uint256"
        }
      ],
      "stateMutability": "view",
      "type": "function"
    },
    {
      "inputs": [],
      "name": "getCurrentPresaleRound",
      "outputs": [
        {
          "internalType": "uint256",
          "name": "",
          "type": "uint256"
        }
      ],
      "stateMutability": "view",
      "type": "function"
    },
    {
      "inputs": [],
      "name": "getCurrentPresaleDetails",
      "outputs": [
        {
          "internalType": "uint256",
          "name": "",
          "type": "uint256"
        },
        {
          "internalType": "uint256",
          "name": "",
          "type": "uint256"
        },
        {
          "internalType": "uint256",
          "name": "",
          "type": "uint256"
        },
        {
          "internalType": "uint256",
          "name": "",
          "type": "uint256"
        }
      ],
      "stateMutability": "view",
      "type": "function"
    },
    {
      "inputs": [
        {
          "internalType": "address",
          "name": "_paymentTokenAddress",
          "type": "address"
        },
        {
          "internalType": "uint256",
          "name": "_amount",
          "type": "uint256"
        },
        {
          "internalType": "address",
          "name": "_aggregatorTokenAddress",
          "type": "address"
        }
      ],
      "name": "presaleTokens",
      "outputs": [],
      "stateMutability": "payable",
      "type": "function"
    },
    {
      "inputs": [
        {
          "internalType": "address payable",
          "name": "_newPresaleReceiver",
          "type": "address"
        }
      ],
      "name": "setPresaleReceiver",
      "outputs": [],
      "stateMutability": "nonpayable",
      "type": "function"
    },
    {
      "inputs": [
        {
          "internalType": "address",
          "name": "_newTokenAddress",
          "type": "address"
        }
      ],
      "name": "setPresaleTokenAddress",
      "outputs": [],
      "stateMutability": "nonpayable",
      "type": "function"
    },
    {
      "inputs": [
        {
          "internalType": "address",
          "name": "_tokenAddress",
          "type": "address"
        },
        {
          "internalType": "bool",
          "name": "_tokenAvailability",
          "type": "bool"
        }
      ],
      "name": "setTokenAvailability",
      "outputs": [],
      "stateMutability": "nonpayable",
      "type": "function"
    },
    {
      "inputs": [
        {
          "internalType": "uint256",
          "name": "_presaleRound",
          "type": "uint256"
        },
        {
          "internalType": "uint256",
          "name": "_startingTime",
          "type": "uint256"
        },
        {
          "internalType": "uint256",
          "name": "_usdPrice",
          "type": "uint256"
        },
        {
          "internalType": "uint256",
          "name": "_minimumUSDPurchase",
          "type": "uint256"
        },
        {
          "internalType": "uint256",
          "name": "_maximumPresaleAmount",
          "type": "uint256"
        }
      ],
      "name": "setPresaleRound",
      "outputs": [],
      "stateMutability": "nonpayable",
      "type": "function"
    }
  ],
  "bytecode": "0x608060405234801561001057600080fd5b5060405161136538038061136583398101604081905261002f916100d5565b6100383361006d565b60018055600380546001600160a01b039384166001600160a01b0319918216179091556004805492909316911617905561010f565b600080546001600160a01b038381166001600160a01b0319831681178455604051919092169283917f8be0079c531659141344cd1fd0a4f28419497f9722a3daafe3b4186f6b6457e09190a35050565b6001600160a01b03811681146100d257600080fd5b50565b600080604083850312156100e857600080fd5b82516100f3816100bd565b6020840151909250610104816100bd565b809150509250929050565b6112478061011e6000396000f3fe6080604052600436106101145760003560e01c80637b4d3585116100a0578063c829d1db11610064578063c829d1db1461032d578063d958e0011461034d578063ec2b35231461037a578063f2fde38b1461038f578063feda925b146103af57600080fd5b80637b4d3585146102425780638da5cb5b146102a4578063962de5c0146102d65780639d76ea58146102ed578063c14364151461030d57600080fd5b8063392f911b116100e7578063392f911b146101b8578063398dcd26146101e55780633c0c134d146101fa5780636a107cd81461021a578063715018a61461022d57600080fd5b80630aca575a146101195780630c115a74146101415780631c63f0ed146101635780632c49eba814610178575b600080fd5b34801561012557600080fd5b5061012e6103cf565b6040519081526020015b60405180910390f35b34801561014d57600080fd5b5061016161015c366004610dbb565b610411565b005b34801561016f57600080fd5b5061012e61046f565b34801561018457600080fd5b506101a8610193366004610df4565b60076020526000908152604090205460ff1681565b6040519015158152602001610138565b3480156101c457600080fd5b5061012e6101d3366004610e11565b60066020526000908152604090205481565b3480156101f157600080fd5b5061012e6104c4565b34801561020657600080fd5b50610161610215366004610df4565b6104d4565b610161610228366004610e2a565b610549565b34801561023957600080fd5b50610161610a00565b34801561024e57600080fd5b5061028461025d366004610e11565b60056020526000908152604090208054600182015460028301546003909301549192909184565b604080519485526020850193909352918301526060820152608001610138565b3480156102b057600080fd5b506000546001600160a01b03165b6040516001600160a01b039091168152602001610138565b3480156102e257600080fd5b5060025461012e9081565b3480156102f957600080fd5b506003546102be906001600160a01b031681565b34801561031957600080fd5b506004546102be906001600160a01b031681565b34801561033957600080fd5b50610161610348366004610e6c565b610a36565b34801561035957600080fd5b5061012e610368366004610e11565b60009081526006602052604090205490565b34801561038657600080fd5b50610284610b8e565b34801561039b57600080fd5b506101616103aa366004610df4565b610bcd565b3480156103bb57600080fd5b506101616103ca366004610df4565b610c68565b600080805b60025481101561040b576000818152600660205260409020546103f79083610ebd565b91508061040381610ed5565b9150506103d4565b50919050565b6000546001600160a01b031633146104445760405162461bcd60e51b815260040161043b90610ef0565b60405180910390fd5b6001600160a01b03919091166000908152600760205260409020805460ff1916911515919091179055565b600080600161047d60025490565b6104879190610f25565b90505b80156104bc5760008181526005602052604090205442106104aa57919050565b806104b481610f3c565b91505061048a565b506000905090565b60006104cf60025490565b905090565b6000546001600160a01b031633146104fe5760405162461bcd60e51b815260040161043b90610ef0565b806001600160a01b0381166105265760405163c4cc856760e01b815260040160405180910390fd5b50600380546001600160a01b0319166001600160a01b0392909216919091179055565b6002600154141561059c5760405162461bcd60e51b815260206004820152601f60248201527f5265656e7472616e637947756172643a207265656e7472616e742063616c6c00604482015260640161043b565b600260015560008080806105ae610b8e565b9350935093509350834210156105d7576040516304d61c6f60e41b815260040160405180910390fd5b6001600160a01b03871660009081526007602052604090205460ff16610610576040516303003c8560e21b815260040160405180910390fd5b60035460408051633fabe5a360e21b815290516001600160a01b039283169288926000929184169163feaf968c9160048082019260a0929091908290030181865afa158015610663573d6000803e3d6000fd5b505050506040513d601f19601f820116820180604052508101906106879190610f72565b505050915050600061076561075f83856001600160a01b031663313ce5676040518163ffffffff1660e01b8152600401602060405180830381865afa1580156106d4573d6000803e3d6000fd5b505050506040513d601f19601f820116820180604052508101906106f89190610fc2565b876001600160a01b031663313ce5676040518163ffffffff1660e01b8152600401602060405180830381865afa158015610736573d6000803e3d6000fd5b505050506040513d601f19601f8201168201806040525081019061075a9190610fc2565b610cb4565b8b610d27565b9050858110156107885760405163196d4a1d60e01b815260040160405180910390fd5b60006107a0610797838a610d3c565b60006012610cb4565b9050600660006107ae61046f565b815260200190815260200160002054866107c89190610f25565b8111156107e8576040516317b1337360e31b815260040160405180910390fd5b80600660006107f561046f565b815260200190815260200160002060008282546108129190610ebd565b90915550506001600160a01b038c166108b3578a3410156108465760405163854a356160e01b815260040160405180910390fd5b6004546040516001600160a01b03909116908c156108fc02908d906000818181858888f19350505050158015610880573d6000803e3d6000fd5b5060405133904780156108fc02916000818181858888f193505050501580156108ad573d6000803e3d6000fd5b50610938565b600480546040516323b872dd60e01b815233928101929092526001600160a01b039081166024830152604482018d90528d91908216906323b872dd906064016020604051808303816000875af1158015610911573d6000803e3d6000fd5b505050506040513d601f19601f820116820180604052508101906109359190610fe5565b50505b6040516340c10f1960e01b8152336004820152602481018290526001600160a01b038616906340c10f1990604401600060405180830381600087803b15801561098057600080fd5b505af1158015610994573d6000803e3d6000fd5b505050508b6001600160a01b0316336001600160a01b03167f69902df1d9bae4b2a08b9e9d689906299b4b15ac10fbbf560d019b5c73fd35d6838e6040516109e6929190918252602082015260400190565b60405180910390a350506001805550505050505050505050565b6000546001600160a01b03163314610a2a5760405162461bcd60e51b815260040161043b90610ef0565b610a346000610d48565b565b6000546001600160a01b03163314610a605760405162461bcd60e51b815260040161043b90610ef0565b60008581526005602052604090208054600182015460028301546003909301549192909183158015610a90575082155b8015610a9a575081155b8015610aa4575080155b15610ab757610ab7600280546001019055565b871580610aed57508815801590610aed575060056000610ad860018c610f25565b81526020019081526020016000206000015488105b15610b0b57604051633863ce1d60e01b815260040160405180910390fd5b86610b29576040516329198c7f60e11b815260040160405180910390fd5b85610b4757604051630746844f60e31b815260040160405180910390fd5b84610b6557604051639f2bfa4160e01b815260040160405180910390fd5b505050600095865250600560205260409094209283556001830191909155600282015560030155565b6000806000806000610b9e61046f565b600090815260056020526040902080546001820154600283015460039093015491989097509195509350915050565b6000546001600160a01b03163314610bf75760405162461bcd60e51b815260040161043b90610ef0565b6001600160a01b038116610c5c5760405162461bcd60e51b815260206004820152602660248201527f4f776e61626c653a206e6577206f776e657220697320746865207a65726f206160448201526564647265737360d01b606482015260840161043b565b610c6581610d48565b50565b6000546001600160a01b03163314610c925760405162461bcd60e51b815260040161043b90610ef0565b600480546001600160a01b0319166001600160a01b0392909216919091179055565b60008160ff168360ff161015610ced57610cce8383611002565b610cdc9060ff16600a611109565b610ce69085611115565b9050610d20565b8160ff168360ff161115610d1d57610d058284611002565b610d139060ff16600a611109565b610ce690856111b0565b50825b9392505050565b6000610d3382846111de565b90505b92915050565b6000610d3382846111fd565b600080546001600160a01b038381166001600160a01b0319831681178455604051919092169283917f8be0079c531659141344cd1fd0a4f28419497f9722a3daafe3b4186f6b6457e09190a35050565b6001600160a01b0381168114610c6557600080fd5b8015158114610c6557600080fd5b60008060408385031215610dce57600080fd5b8235610dd981610d98565b91506020830135610de981610dad565b809150509250929050565b600060208284031215610e0657600080fd5b8135610d2081610d98565b600060208284031215610e2357600080fd5b5035919050565b600080600060608486031215610e3f57600080fd5b8335610e4a81610d98565b9250602084013591506040840135610e6181610d98565b809150509250925092565b600080600080600060a08688031215610e8457600080fd5b505083359560208501359550604085013594606081013594506080013592509050565b634e487b7160e01b600052601160045260246000fd5b60008219821115610ed057610ed0610ea7565b500190565b6000600019821415610ee957610ee9610ea7565b5060010190565b6020808252818101527f4f776e61626c653a2063616c6c6572206973206e6f7420746865206f776e6572604082015260600190565b600082821015610f3757610f37610ea7565b500390565b600081610f4b57610f4b610ea7565b506000190190565b805169ffffffffffffffffffff81168114610f6d57600080fd5b919050565b600080600080600060a08688031215610f8a57600080fd5b610f9386610f53565b9450602086015193506040860151925060608601519150610fb660808701610f53565b90509295509295909350565b600060208284031215610fd457600080fd5b815160ff81168114610d2057600080fd5b600060208284031215610ff757600080fd5b8151610d2081610dad565b600060ff821660ff84168082101561101c5761101c610ea7565b90039392505050565b600181815b8085111561106057816000190482111561104657611046610ea7565b8085161561105357918102915b93841c939080029061102a565b509250929050565b60008261107757506001610d36565b8161108457506000610d36565b816001811461109a57600281146110a4576110c0565b6001915050610d36565b60ff8411156110b5576110b5610ea7565b50506001821b610d36565b5060208310610133831016604e8410600b84101617156110e3575081810a610d36565b6110ed8383611025565b806000190482111561110157611101610ea7565b029392505050565b6000610d338383611068565b60006001600160ff1b038184138284138082168684048611161561113b5761113b610ea7565b600160ff1b600087128281168783058912161561115a5761115a610ea7565b6000871292508782058712848416161561117657611176610ea7565b8785058712818416161561118c5761118c610ea7565b505050929093029392505050565b634e487b7160e01b600052601260045260246000fd5b6000826111bf576111bf61119a565b600160ff1b8214600019841416156111d9576111d9610ea7565b500590565b60008160001904831182151516156111f8576111f8610ea7565b500290565b60008261120c5761120c61119a565b50049056fea2646970667358221220e36f7fee1f07b67d72e466b35d5d9a33479c5e95c89f8ec80c1143794655874b64736f6c634300080b0033",
  "immutableReferences": {},
  "source": "// SPDX-License-Identifier: AGPL-3.0\n\npragma solidity ^0.8.11;\n\nimport \"@openzeppelin/contracts/access/Ownable.sol\";\nimport \"@openzeppelin/contracts/token/ERC20/IERC20.sol\";\nimport \"@openzeppelin/contracts/utils/Counters.sol\";\nimport \"@openzeppelin/contracts/utils/math/SafeMath.sol\";\nimport \"@openzeppelin/contracts/security/ReentrancyGuard.sol\";\nimport \"@chainlink/contracts/src/v0.8/interfaces/AggregatorV3Interface.sol\";\nimport \"../libraries/PriceConverter.sol\";\nimport \"../token/interfaces/IERC20Custom.sol\";\n\ncontract Presale is Ownable, ReentrancyGuard {\n    using Counters for Counters.Counter;\n    using SafeMath for uint256;\n\n    struct PresaleData {\n        uint256 startingTime;\n        uint256 usdPrice;\n        uint256 minimumUSDPurchase;\n        uint256 maximumPresaleAmount;\n    }\n\n    event TokenPresold(\n        address indexed to,\n        address indexed paymentTokenAddress,\n        uint256 amount,\n        uint256 paymentTokenamount\n    );\n\n    Counters.Counter public totalPresaleRound;\n    address public tokenAddress;\n    address payable public presaleReceiver;\n\n    // Mapping `presaleRound` to its data details\n    mapping(uint256 => PresaleData) public presaleDetailsMapping;\n    mapping(uint256 => uint256) public presaleAmountByRoundMapping;\n    mapping(address => bool) public presaleTokenAvailabilityMapping;\n\n    error presaleRoundClosed();\n    error presaleTokenNotAvailable();\n    error presaleNativeTokenPaymentNotSufficient();\n    error presaleStartingTimeInvalid();\n    error presaleUSDPriceInvalid();\n    error presaleMimumumUSDPurchaseInvalid();\n    error presaleMaximumPresaleAmountInvalid();\n    error presaleUSDPurchaseNotSufficient();\n    error presaleAmountOverdemand();\n    error presaleTokenAddressInvalid();\n\n    modifier onlyValidTokens(address _tokenAddress) {\n        if (_tokenAddress == address(0)) revert presaleTokenAddressInvalid();\n        _;\n    }\n\n    constructor(address _tokenAddress, address payable _presaleReceiver) {\n        tokenAddress = _tokenAddress;\n        presaleReceiver = _presaleReceiver;\n    }\n\n    /**\n     * Get total amount of presale round\n     */\n    function getTotalPresaleRound() public view returns (uint256) {\n        return totalPresaleRound.current();\n    }\n\n    /**\n     * Get presale total amount By presale round\n     *\n     * @dev _presaleRound - The presale round chosen\n     */\n    function getPresaleAmountByRound(uint256 _presaleRound)\n        public\n        view\n        returns (uint256)\n    {\n        return presaleAmountByRoundMapping[_presaleRound];\n    }\n\n    /**\n     * Get total amount of presale from all rounds\n     */\n    function getTotalPresaleAmount() public view returns (uint256) {\n        uint256 totalPresale = 0;\n        for (\n            uint256 presaleRound = 0;\n            presaleRound < totalPresaleRound.current();\n            presaleRound++\n        ) {\n            totalPresale += presaleAmountByRoundMapping[presaleRound];\n        }\n\n        return totalPresale;\n    }\n\n    /**\n     * Get Current Presale Round\n     */\n    function getCurrentPresaleRound() public view returns (uint256) {\n        for (\n            uint256 presaleRound = totalPresaleRound.current() - 1;\n            presaleRound > 0;\n            presaleRound--\n        ) {\n            if (\n                presaleDetailsMapping[presaleRound].startingTime <=\n                block.timestamp\n            ) {\n                return presaleRound;\n            }\n        }\n\n        return 0;\n    }\n\n    /**\n     * Getting the Current Presale Details, including:\n     * - Starting Time\n     * - USD Price\n     * - Minimum USD Purchase\n     * - Maximum Presale Amount\n     */\n    function getCurrentPresaleDetails()\n        public\n        view\n        returns (\n            uint256,\n            uint256,\n            uint256,\n            uint256\n        )\n    {\n        uint256 currentPresaleRound = getCurrentPresaleRound();\n        return (\n            presaleDetailsMapping[currentPresaleRound].startingTime,\n            presaleDetailsMapping[currentPresaleRound].usdPrice,\n            presaleDetailsMapping[currentPresaleRound].minimumUSDPurchase,\n            presaleDetailsMapping[currentPresaleRound].maximumPresaleAmount\n        );\n    }\n\n    /**\n     * Execute the Presale of ALPS Token in exchange of other token\n     *\n     * @dev _paymentTokenAddress - Address of the token use to pay (address 0 is for native token)\n     * @dev _amount - Amount denominated in the `paymentTokenAddress` being paid\n     * @dev _aggregatorTokenAddress - Use to convert price with Chainlink\n     */\n    function presaleTokens(\n        address _paymentTokenAddress,\n        uint256 _amount,\n        address _aggregatorTokenAddress\n    ) public payable nonReentrant {\n        (\n            uint256 currentPresaleStartingTime,\n            uint256 currentPresalePrice,\n            uint256 currentPresaleMinimumUSDPurchase,\n            uint256 currentPresaleMaximumPresaleAmount\n        ) = getCurrentPresaleDetails();\n\n        // Check whether the presale round is still open\n        if (block.timestamp < currentPresaleStartingTime)\n            revert presaleRoundClosed();\n\n        // Check whether token is valid\n        if (!presaleTokenAvailabilityMapping[_paymentTokenAddress])\n            revert presaleTokenNotAvailable();\n\n        // Convert the token with Chainlink Price Feed\n        IERC20Custom token = IERC20Custom(tokenAddress);\n        AggregatorV3Interface priceFeed = AggregatorV3Interface(\n            _aggregatorTokenAddress\n        );\n        (, int256 price, , , ) = priceFeed.latestRoundData();\n        uint256 presaleUSDAmount = SafeMath.mul(\n            uint256(\n                PriceConverter.scalePrice(\n                    price,\n                    priceFeed.decimals(),\n                    token.decimals()\n                )\n            ),\n            _amount\n        );\n\n        if (presaleUSDAmount < currentPresaleMinimumUSDPurchase)\n            revert presaleUSDPurchaseNotSufficient();\n\n        uint256 presaleAmount = uint256(\n            PriceConverter.scalePrice(\n                int256(SafeMath.div(presaleUSDAmount, currentPresalePrice)),\n                0,\n                18\n            )\n        );\n\n        if (\n            presaleAmount >\n            currentPresaleMaximumPresaleAmount -\n                presaleAmountByRoundMapping[getCurrentPresaleRound()]\n        ) revert presaleAmountOverdemand();\n\n        presaleAmountByRoundMapping[getCurrentPresaleRound()] += presaleAmount;\n\n        // Receive the payment token and transfer it to another address\n        if (_paymentTokenAddress == address(0)) {\n            if (msg.value < _amount) {\n                revert presaleNativeTokenPaymentNotSufficient();\n            } else {\n                presaleReceiver.transfer(_amount);\n\n                // in case you deployed the contract with more ether than required,\n                // transfer the remaining ether back to yourself\n                payable(msg.sender).transfer(address(this).balance);\n            }\n        } else {\n            IERC20 paymentToken = IERC20(_paymentTokenAddress);\n            paymentToken.transferFrom(msg.sender, presaleReceiver, _amount);\n        }\n\n        // Send ALPS token to `msg.sender`\n        token.mint(msg.sender, presaleAmount);\n        emit TokenPresold(\n            msg.sender,\n            _paymentTokenAddress,\n            presaleAmount,\n            _amount\n        );\n    }\n\n    /**\n     * Set new Presale Receiver Address\n     *\n     * @dev _newPresaleReceiver - Address that'll receive the presale payment token\n     */\n    function setPresaleReceiver(address payable _newPresaleReceiver)\n        public\n        onlyOwner\n    {\n        presaleReceiver = _newPresaleReceiver;\n    }\n\n    /**\n     * Set new Presale Token Address\n     *\n     * @dev _newTokenAddress - Address of token that'll be presaled\n     */\n    function setPresaleTokenAddress(address _newTokenAddress)\n        public\n        onlyOwner\n        onlyValidTokens(_newTokenAddress)\n    {\n        tokenAddress = _newTokenAddress;\n    }\n\n    function setTokenAvailability(\n        address _tokenAddress,\n        bool _tokenAvailability\n    ) public onlyOwner {\n        presaleTokenAvailabilityMapping[_tokenAddress] = _tokenAvailability;\n    }\n\n    /**\n     * Creating/Updating a presale round information\n     *\n     * @dev _presaleRound - The presale round chosen\n     * @dev _startingTime - The starting Presale time\n     * @dev _usdPrice - The USD Price of the Token in certain Presale Round\n     * @dev _minimumUSDPurchase - The minimum USD amount to purchase the token\n     * @dev _maximumPresaleAmount - The maximum amount of token available for a presale round\n     */\n    function setPresaleRound(\n        uint256 _presaleRound,\n        uint256 _startingTime,\n        uint256 _usdPrice,\n        uint256 _minimumUSDPurchase,\n        uint256 _maximumPresaleAmount\n    ) public onlyOwner {\n        uint256 presaleStartingTime = presaleDetailsMapping[_presaleRound]\n            .startingTime;\n        uint256 presaleUSDPrice = presaleDetailsMapping[_presaleRound].usdPrice;\n        uint256 presaleMinimumUSDPurchase = presaleDetailsMapping[_presaleRound]\n            .minimumUSDPurchase;\n        uint256 presaleMaximumPresaleAmount = presaleDetailsMapping[\n            _presaleRound\n        ].maximumPresaleAmount;\n\n        // Increment the total round counter when new presale is created\n        if (\n            presaleStartingTime == 0 &&\n            presaleUSDPrice == 0 &&\n            presaleMinimumUSDPurchase == 0 &&\n            presaleMaximumPresaleAmount == 0\n        ) totalPresaleRound.increment();\n\n        // Starting time has to be:\n        // - larger than zero\n        // - larger than previous round starting time\n        if (\n            _startingTime == 0 ||\n            (_presaleRound != 0 &&\n                _startingTime <\n                presaleDetailsMapping[_presaleRound - 1].startingTime)\n        ) revert presaleStartingTimeInvalid();\n\n        // These values given must be larger than zero\n        if (_usdPrice == 0) revert presaleUSDPriceInvalid();\n        if (_minimumUSDPurchase == 0) revert presaleMimumumUSDPurchaseInvalid();\n        if (_maximumPresaleAmount == 0)\n            revert presaleMaximumPresaleAmountInvalid();\n\n        presaleDetailsMapping[_presaleRound].startingTime = _startingTime;\n        presaleDetailsMapping[_presaleRound].usdPrice = _usdPrice;\n        presaleDetailsMapping[_presaleRound]\n            .minimumUSDPurchase = _minimumUSDPurchase;\n        presaleDetailsMapping[_presaleRound]\n            .maximumPresaleAmount = _maximumPresaleAmount;\n    }\n}\n",
  "sourcePath": "/Users/yosephks/Documents/GitHub/alpsfinance-smart-contracts/contracts/presale/Presale.sol",
  "compiler": {
    "name": "solc",
    "version": "0.8.11+commit.d7f03943.Emscripten.clang"
  },
  "schemaVersion": "3.4.4",
  "updatedAt": "2022-02-27T21:46:09.335Z",
  "devdoc": {
    "kind": "dev",
    "methods": {
      "getPresaleAmountByRound(uint256)": {
        "details": "_presaleRound - The presale round chosen"
      },
      "owner()": {
        "details": "Returns the address of the current owner."
      },
      "presaleTokens(address,uint256,address)": {
        "details": "_paymentTokenAddress - Address of the token use to pay (address 0 is for native token)_amount - Amount denominated in the `paymentTokenAddress` being paid_aggregatorTokenAddress - Use to convert price with Chainlink"
      },
      "renounceOwnership()": {
        "details": "Leaves the contract without owner. It will not be possible to call `onlyOwner` functions anymore. Can only be called by the current owner. NOTE: Renouncing ownership will leave the contract without an owner, thereby removing any functionality that is only available to the owner."
      },
      "setPresaleReceiver(address)": {
        "details": "_newPresaleReceiver - Address that'll receive the presale payment token"
      },
      "setPresaleRound(uint256,uint256,uint256,uint256,uint256)": {
        "details": "_presaleRound - The presale round chosen_startingTime - The starting Presale time_usdPrice - The USD Price of the Token in certain Presale Round_minimumUSDPurchase - The minimum USD amount to purchase the token_maximumPresaleAmount - The maximum amount of token available for a presale round"
      },
      "setPresaleTokenAddress(address)": {
        "details": "_newTokenAddress - Address of token that'll be presaled"
      },
      "transferOwnership(address)": {
        "details": "Transfers ownership of the contract to a new account (`newOwner`). Can only be called by the current owner."
      }
    },
    "version": 1
  },
  "userdoc": {
    "kind": "user",
    "methods": {
      "getCurrentPresaleDetails()": {
        "notice": "Getting the Current Presale Details, including: - Starting Time - USD Price - Minimum USD Purchase - Maximum Presale Amount"
      },
      "getCurrentPresaleRound()": {
        "notice": "Get Current Presale Round"
      },
      "getPresaleAmountByRound(uint256)": {
        "notice": "Get presale total amount By presale round"
      },
      "getTotalPresaleAmount()": {
        "notice": "Get total amount of presale from all rounds"
      },
      "getTotalPresaleRound()": {
        "notice": "Get total amount of presale round"
      },
      "presaleTokens(address,uint256,address)": {
        "notice": "Execute the Presale of ALPS Token in exchange of other token"
      },
      "setPresaleReceiver(address)": {
        "notice": "Set new Presale Receiver Address"
      },
      "setPresaleRound(uint256,uint256,uint256,uint256,uint256)": {
        "notice": "Creating/Updating a presale round information"
      },
      "setPresaleTokenAddress(address)": {
        "notice": "Set new Presale Token Address"
      }
    },
    "version": 1
  }
}