{
  "contractName": "Presale",
  "abi": [
    {
      "inputs": [
        {
          "internalType": "address",
          "name": "_tokenAddress",
          "type": "address"
        },
        {
          "internalType": "address payable",
          "name": "_presaleReceiver",
          "type": "address"
        }
      ],
      "stateMutability": "nonpayable",
      "type": "constructor"
    },
    {
      "inputs": [],
      "name": "presaleNativeTokenPaymentNotSufficient",
      "type": "error"
    },
    {
      "inputs": [],
      "name": "presaleRoundClosed",
      "type": "error"
    },
    {
      "inputs": [],
      "name": "presaleStartingTimeInvalid",
      "type": "error"
    },
    {
      "inputs": [],
      "name": "presaleTokenNotAvailable",
      "type": "error"
    },
    {
      "inputs": [],
      "name": "presaleUSDPriceInvalid",
      "type": "error"
    },
    {
      "anonymous": false,
      "inputs": [
        {
          "indexed": true,
          "internalType": "address",
          "name": "previousOwner",
          "type": "address"
        },
        {
          "indexed": true,
          "internalType": "address",
          "name": "newOwner",
          "type": "address"
        }
      ],
      "name": "OwnershipTransferred",
      "type": "event"
    },
    {
      "anonymous": false,
      "inputs": [
        {
          "indexed": true,
          "internalType": "address",
          "name": "to",
          "type": "address"
        },
        {
          "indexed": true,
          "internalType": "address",
          "name": "paymentTokenAddress",
          "type": "address"
        },
        {
          "indexed": false,
          "internalType": "uint256",
          "name": "amount",
          "type": "uint256"
        },
        {
          "indexed": false,
          "internalType": "uint256",
          "name": "paymentTokenamount",
          "type": "uint256"
        }
      ],
      "name": "TokenPresold",
      "type": "event"
    },
    {
      "inputs": [],
      "name": "owner",
      "outputs": [
        {
          "internalType": "address",
          "name": "",
          "type": "address"
        }
      ],
      "stateMutability": "view",
      "type": "function"
    },
    {
      "inputs": [],
      "name": "presaleReceiver",
      "outputs": [
        {
          "internalType": "address payable",
          "name": "",
          "type": "address"
        }
      ],
      "stateMutability": "view",
      "type": "function"
    },
    {
      "inputs": [],
      "name": "renounceOwnership",
      "outputs": [],
      "stateMutability": "nonpayable",
      "type": "function"
    },
    {
      "inputs": [],
      "name": "tokenAddress",
      "outputs": [
        {
          "internalType": "address",
          "name": "",
          "type": "address"
        }
      ],
      "stateMutability": "view",
      "type": "function"
    },
    {
      "inputs": [],
      "name": "totalPresaleRound",
      "outputs": [
        {
          "internalType": "uint256",
          "name": "_value",
          "type": "uint256"
        }
      ],
      "stateMutability": "view",
      "type": "function"
    },
    {
      "inputs": [
        {
          "internalType": "address",
          "name": "newOwner",
          "type": "address"
        }
      ],
      "name": "transferOwnership",
      "outputs": [],
      "stateMutability": "nonpayable",
      "type": "function"
    },
    {
      "inputs": [],
      "name": "getCurrentPresaleRound",
      "outputs": [
        {
          "internalType": "uint256",
          "name": "",
          "type": "uint256"
        }
      ],
      "stateMutability": "view",
      "type": "function"
    },
    {
      "inputs": [],
      "name": "getCurrentPrice",
      "outputs": [
        {
          "internalType": "uint256",
          "name": "",
          "type": "uint256"
        }
      ],
      "stateMutability": "view",
      "type": "function"
    },
    {
      "inputs": [
        {
          "internalType": "address",
          "name": "_paymentTokenAddress",
          "type": "address"
        },
        {
          "internalType": "uint256",
          "name": "_amount",
          "type": "uint256"
        },
        {
          "internalType": "address",
          "name": "_aggregatorTokenAddress",
          "type": "address"
        }
      ],
      "name": "presaleTokens",
      "outputs": [],
      "stateMutability": "payable",
      "type": "function"
    },
    {
      "inputs": [
        {
          "internalType": "address payable",
          "name": "_newPresaleReceiver",
          "type": "address"
        }
      ],
      "name": "setPresaleReceiver",
      "outputs": [],
      "stateMutability": "nonpayable",
      "type": "function"
    },
    {
      "inputs": [
        {
          "internalType": "address",
          "name": "_newTokenAddress",
          "type": "address"
        }
      ],
      "name": "setPresaleTokenAddress",
      "outputs": [],
      "stateMutability": "nonpayable",
      "type": "function"
    },
    {
      "inputs": [
        {
          "internalType": "uint256",
          "name": "_presaleRound",
          "type": "uint256"
        },
        {
          "internalType": "uint256",
          "name": "_startingTime",
          "type": "uint256"
        },
        {
          "internalType": "uint256",
          "name": "_usdPrice",
          "type": "uint256"
        }
      ],
      "name": "setPresaleRound",
      "outputs": [],
      "stateMutability": "nonpayable",
      "type": "function"
    }
  ],
  "bytecode": "0x608060405234801561001057600080fd5b50604051610f33380380610f3383398101604081905261002f916100d5565b6100383361006d565b60018055600380546001600160a01b039384166001600160a01b0319918216179091556004805492909316911617905561010f565b600080546001600160a01b038381166001600160a01b0319831681178455604051919092169283917f8be0079c531659141344cd1fd0a4f28419497f9722a3daafe3b4186f6b6457e09190a35050565b6001600160a01b03811681146100d257600080fd5b50565b600080604083850312156100e857600080fd5b82516100f3816100bd565b6020840151909250610104816100bd565b809150509250929050565b610e158061011e6000396000f3fe6080604052600436106100a75760003560e01c80639d76ea58116100645780639d76ea5814610167578063c143641514610187578063e12bcbb2146101a7578063eb91d37e146101c7578063f2fde38b146101dc578063feda925b146101fc57600080fd5b80631c63f0ed146100ac5780633c0c134d146100d45780636a107cd8146100f6578063715018a6146101095780638da5cb5b1461011e578063962de5c014610150575b600080fd5b3480156100b857600080fd5b506100c161021c565b6040519081526020015b60405180910390f35b3480156100e057600080fd5b506100f46100ef366004610a18565b610271565b005b6100f4610104366004610a35565b6102c6565b34801561011557600080fd5b506100f46106f4565b34801561012a57600080fd5b506000546001600160a01b03165b6040516001600160a01b0390911681526020016100cb565b34801561015c57600080fd5b506002546100c19081565b34801561017357600080fd5b50600354610138906001600160a01b031681565b34801561019357600080fd5b50600454610138906001600160a01b031681565b3480156101b357600080fd5b506100f46101c2366004610a77565b61072a565b3480156101d357600080fd5b506100c1610815565b3480156101e857600080fd5b506100f46101f7366004610a18565b610838565b34801561020857600080fd5b506100f4610217366004610a18565b6108d3565b600080600161022a60025490565b6102349190610ab9565b90505b801561026957600081815260056020526040902054421061025757919050565b8061026181610ad0565b915050610237565b506000905090565b6000546001600160a01b031633146102a45760405162461bcd60e51b815260040161029b90610ae7565b60405180910390fd5b600380546001600160a01b0319166001600160a01b0392909216919091179055565b600260015414156103195760405162461bcd60e51b815260206004820152601f60248201527f5265656e7472616e637947756172643a207265656e7472616e742063616c6c00604482015260640161029b565b60026001556000610328610815565b9050600061033461021c565b6000818152600560209081526040918290208251808401909352805480845260019091015491830191909152919250904210610383576040516304d61c6f60e41b815260040160405180910390fd5b6001600160a01b03861660009081526006602052604090205460ff16156103bd576040516303003c8560e21b815260040160405180910390fd5b60035460408051633fabe5a360e21b815290516001600160a01b039283169287926000929184169163feaf968c9160048082019260a0929091908290030181865afa158015610410573d6000803e3d6000fd5b505050506040513d601f19601f820116820180604052508101906104349190610b3b565b505050915050600061051b61051561050f84866001600160a01b031663313ce5676040518163ffffffff1660e01b8152600401602060405180830381865afa158015610484573d6000803e3d6000fd5b505050506040513d601f19601f820116820180604052508101906104a89190610b8b565b886001600160a01b031663313ce5676040518163ffffffff1660e01b8152600401602060405180830381865afa1580156104e6573d6000803e3d6000fd5b505050506040513d601f19601f8201168201806040525081019061050a9190610b8b565b61091f565b8b610992565b886109a7565b90506001600160a01b038a166105b9578834101561054c5760405163854a356160e01b815260040160405180910390fd5b6004546040516001600160a01b03909116908a156108fc02908b906000818181858888f19350505050158015610586573d6000803e3d6000fd5b5060405133904780156108fc02916000818181858888f193505050501580156105b3573d6000803e3d6000fd5b5061063e565b600480546040516323b872dd60e01b815233928101929092526001600160a01b039081166024830152604482018b90528b91908216906323b872dd906064016020604051808303816000875af1158015610617573d6000803e3d6000fd5b505050506040513d601f19601f8201168201806040525081019061063b9190610bae565b50505b6040516340c10f1960e01b8152336004820152602481018290526001600160a01b038516906340c10f1990604401600060405180830381600087803b15801561068657600080fd5b505af115801561069a573d6000803e3d6000fd5b505060408051848152602081018d90526001600160a01b038e1693503392507f69902df1d9bae4b2a08b9e9d689906299b4b15ac10fbbf560d019b5c73fd35d6910160405180910390a35050600180555050505050505050565b6000546001600160a01b0316331461071e5760405162461bcd60e51b815260040161029b90610ae7565b61072860006109b3565b565b6000546001600160a01b031633146107545760405162461bcd60e51b815260040161029b90610ae7565b6000838152600560205260409020805460019091015481158015610776575080155b1561078957610789600280546001019055565b8315806107bf575084158015906107bf5750600560006107aa600188610ab9565b81526020019081526020016000206000015484105b156107dd57604051633863ce1d60e01b815260040160405180910390fd5b826107fb576040516329198c7f60e11b815260040160405180910390fd5b505060009283526005602052604090922090815560010155565b60008061082061021c565b60009081526005602052604090206001015492915050565b6000546001600160a01b031633146108625760405162461bcd60e51b815260040161029b90610ae7565b6001600160a01b0381166108c75760405162461bcd60e51b815260206004820152602660248201527f4f776e61626c653a206e6577206f776e657220697320746865207a65726f206160448201526564647265737360d01b606482015260840161029b565b6108d0816109b3565b50565b6000546001600160a01b031633146108fd5760405162461bcd60e51b815260040161029b90610ae7565b600480546001600160a01b0319166001600160a01b0392909216919091179055565b60008160ff168360ff161015610958576109398383610bd0565b6109479060ff16600a610cd7565b6109519085610ce3565b905061098b565b8160ff168360ff161115610988576109708284610bd0565b61097e9060ff16600a610cd7565b6109519085610d7e565b50825b9392505050565b600061099e8284610dac565b90505b92915050565b600061099e8284610dcb565b600080546001600160a01b038381166001600160a01b0319831681178455604051919092169283917f8be0079c531659141344cd1fd0a4f28419497f9722a3daafe3b4186f6b6457e09190a35050565b6001600160a01b03811681146108d057600080fd5b600060208284031215610a2a57600080fd5b813561098b81610a03565b600080600060608486031215610a4a57600080fd5b8335610a5581610a03565b9250602084013591506040840135610a6c81610a03565b809150509250925092565b600080600060608486031215610a8c57600080fd5b505081359360208301359350604090920135919050565b634e487b7160e01b600052601160045260246000fd5b600082821015610acb57610acb610aa3565b500390565b600081610adf57610adf610aa3565b506000190190565b6020808252818101527f4f776e61626c653a2063616c6c6572206973206e6f7420746865206f776e6572604082015260600190565b805169ffffffffffffffffffff81168114610b3657600080fd5b919050565b600080600080600060a08688031215610b5357600080fd5b610b5c86610b1c565b9450602086015193506040860151925060608601519150610b7f60808701610b1c565b90509295509295909350565b600060208284031215610b9d57600080fd5b815160ff8116811461098b57600080fd5b600060208284031215610bc057600080fd5b8151801515811461098b57600080fd5b600060ff821660ff841680821015610bea57610bea610aa3565b90039392505050565b600181815b80851115610c2e578160001904821115610c1457610c14610aa3565b80851615610c2157918102915b93841c9390800290610bf8565b509250929050565b600082610c45575060016109a1565b81610c52575060006109a1565b8160018114610c685760028114610c7257610c8e565b60019150506109a1565b60ff841115610c8357610c83610aa3565b50506001821b6109a1565b5060208310610133831016604e8410600b8410161715610cb1575081810a6109a1565b610cbb8383610bf3565b8060001904821115610ccf57610ccf610aa3565b029392505050565b600061099e8383610c36565b60006001600160ff1b0381841382841380821686840486111615610d0957610d09610aa3565b600160ff1b6000871282811687830589121615610d2857610d28610aa3565b60008712925087820587128484161615610d4457610d44610aa3565b87850587128184161615610d5a57610d5a610aa3565b505050929093029392505050565b634e487b7160e01b600052601260045260246000fd5b600082610d8d57610d8d610d68565b600160ff1b821460001984141615610da757610da7610aa3565b500590565b6000816000190483118215151615610dc657610dc6610aa3565b500290565b600082610dda57610dda610d68565b50049056fea2646970667358221220b469c4dcfb4f206674ec513e38677d9b52e57c369a578224f1fb88f127c4253d64736f6c634300080b0033",
  "immutableReferences": {},
  "source": "// SPDX-License-Identifier: AGPL-3.0\n\npragma solidity ^0.8.11;\n\nimport \"@openzeppelin/contracts/access/Ownable.sol\";\nimport \"@openzeppelin/contracts/token/ERC20/IERC20.sol\";\nimport \"@openzeppelin/contracts/utils/Counters.sol\";\nimport \"@openzeppelin/contracts/utils/math/SafeMath.sol\";\nimport \"@openzeppelin/contracts/security/ReentrancyGuard.sol\";\nimport \"@chainlink/contracts/src/v0.8/interfaces/AggregatorV3Interface.sol\";\nimport \"../libraries/PriceConverter.sol\";\nimport \"../token/interfaces/IERC20Custom.sol\";\n\ncontract Presale is Ownable, ReentrancyGuard {\n    using Counters for Counters.Counter;\n    using SafeMath for uint256;\n\n    struct PresaleData {\n        uint256 startingTime;\n        uint256 usdPrice;\n    }\n\n    event TokenPresold(\n        address indexed to,\n        address indexed paymentTokenAddress,\n        uint256 amount,\n        uint256 paymentTokenamount\n    );\n\n    Counters.Counter public totalPresaleRound;\n    address public tokenAddress;\n    address payable public presaleReceiver;\n\n    // Mapping `presaleRound` to its data details\n    mapping(uint256 => PresaleData) presaleDetailsMapping;\n    mapping(address => bool) presaleTokenAvaliblilityMapping;\n\n    error presaleRoundClosed();\n    error presaleTokenNotAvailable();\n    error presaleNativeTokenPaymentNotSufficient();\n    error presaleStartingTimeInvalid();\n    error presaleUSDPriceInvalid();\n\n    constructor(address _tokenAddress, address payable _presaleReceiver) {\n        tokenAddress = _tokenAddress;\n        presaleReceiver = _presaleReceiver;\n    }\n\n    /**\n     * Get Current Presale Round\n     */\n    function getCurrentPresaleRound() public view returns (uint256) {\n        for (\n            uint256 presaleRound = totalPresaleRound.current() - 1;\n            presaleRound > 0;\n            presaleRound--\n        ) {\n            if (\n                presaleDetailsMapping[presaleRound].startingTime <=\n                block.timestamp\n            ) {\n                return presaleRound;\n            }\n        }\n\n        return 0;\n    }\n\n    /**\n     * Getting the Current Price\n     */\n    function getCurrentPrice() public view returns (uint256) {\n        uint256 currentPresaleRound = getCurrentPresaleRound();\n        return presaleDetailsMapping[currentPresaleRound].usdPrice;\n    }\n\n    /**\n     * Execute the Presale of ALPS Token in exchange of other token\n     *\n     * @dev _paymentTokenAddress - Address of the token use to pay (address 0 is for native token)\n     * @dev _amount - Amount denominated in the `paymentTokenAddress` being paid\n     * @dev _aggregatorTokenAddress - Use to convert price with Chainlink\n     */\n    function presaleTokens(\n        address _paymentTokenAddress,\n        uint256 _amount,\n        address _aggregatorTokenAddress\n    ) public payable nonReentrant {\n        uint256 currentPresalePrice = getCurrentPrice();\n        uint256 currentPresaleRound = getCurrentPresaleRound();\n\n        // Check whether the presale round is still open\n        PresaleData memory currentPresale = presaleDetailsMapping[\n            currentPresaleRound\n        ];\n        if (block.timestamp >= currentPresale.startingTime)\n            revert presaleRoundClosed();\n\n        // Check whether token is valid\n        if (presaleTokenAvaliblilityMapping[_paymentTokenAddress])\n            revert presaleTokenNotAvailable();\n\n        // Convert the token with Chainlink Price Feed\n        IERC20Custom token = IERC20Custom(tokenAddress);\n        AggregatorV3Interface priceFeed = AggregatorV3Interface(\n            _aggregatorTokenAddress\n        );\n        (, int256 price, , , ) = priceFeed.latestRoundData();\n        uint256 presaleAmount = SafeMath.div(\n            SafeMath.mul(\n                uint256(\n                    PriceConverter.scalePrice(\n                        price,\n                        priceFeed.decimals(),\n                        token.decimals()\n                    )\n                ),\n                _amount\n            ),\n            currentPresalePrice\n        );\n\n        // Receive the payment token and transfer it to another address\n        if (_paymentTokenAddress == address(0)) {\n            if (msg.value < _amount) {\n                revert presaleNativeTokenPaymentNotSufficient();\n            } else {\n                presaleReceiver.transfer(_amount);\n\n                // in case you deployed the contract with more ether than required,\n                // transfer the remaining ether back to yourself\n                payable(msg.sender).transfer(address(this).balance);\n            }\n        } else {\n            IERC20 paymentToken = IERC20(_paymentTokenAddress);\n            paymentToken.transferFrom(msg.sender, presaleReceiver, _amount);\n        }\n\n        // Send ALPS token to `msg.sender`\n        token.mint(msg.sender, presaleAmount);\n        emit TokenPresold(\n            msg.sender,\n            _paymentTokenAddress,\n            presaleAmount,\n            _amount\n        );\n    }\n\n    /**\n     * Set new Presale Receiver Address\n     *\n     * @dev _newPresaleReceiver - Address that'll receive the presale payment token\n     */\n    function setPresaleReceiver(address payable _newPresaleReceiver)\n        public\n        onlyOwner\n    {\n        presaleReceiver = _newPresaleReceiver;\n    }\n\n    function setPresaleTokenAddress(address _newTokenAddress) public onlyOwner {\n        tokenAddress = _newTokenAddress;\n    }\n\n    /**\n     * Creating/Updating a presale round information\n     *\n     * @dev _presaleRound - The presale round chosen\n     * @dev _startingTime - The starting Presale time\n     * @dev _usdPrice - The USD Price of the Token in certain Presale Round\n     */\n    function setPresaleRound(\n        uint256 _presaleRound,\n        uint256 _startingTime,\n        uint256 _usdPrice\n    ) public onlyOwner {\n        uint256 presaleStartingTime = presaleDetailsMapping[_presaleRound]\n            .startingTime;\n        uint256 presaleUSDPrice = presaleDetailsMapping[_presaleRound].usdPrice;\n        // Increment the total round counter when new presale is created\n        if (presaleStartingTime == 0 && presaleUSDPrice == 0)\n            totalPresaleRound.increment();\n\n        // Starting time has to be:\n        // - larger than zero\n        // - larger than previous round starting time\n        if (\n            _startingTime == 0 ||\n            (_presaleRound != 0 &&\n                _startingTime <\n                presaleDetailsMapping[_presaleRound - 1].startingTime)\n        ) revert presaleStartingTimeInvalid();\n\n        // USD Price given must be larger than zero\n        if (_usdPrice == 0) revert presaleUSDPriceInvalid();\n\n        presaleDetailsMapping[_presaleRound].startingTime = _startingTime;\n        presaleDetailsMapping[_presaleRound].usdPrice = _usdPrice;\n    }\n}\n",
  "sourcePath": "/Users/yosephks/Documents/GitHub/alpsfinance-smart-contracts/contracts/presale/Presale.sol",
  "compiler": {
    "name": "solc",
    "version": "0.8.11+commit.d7f03943.Emscripten.clang"
  },
  "schemaVersion": "3.4.4",
  "updatedAt": "2022-02-26T12:16:28.422Z",
  "devdoc": {
    "kind": "dev",
    "methods": {
      "owner()": {
        "details": "Returns the address of the current owner."
      },
      "presaleTokens(address,uint256,address)": {
        "details": "_paymentTokenAddress - Address of the token use to pay (address 0 is for native token)_amount - Amount denominated in the `paymentTokenAddress` being paid_aggregatorTokenAddress - Use to convert price with Chainlink"
      },
      "renounceOwnership()": {
        "details": "Leaves the contract without owner. It will not be possible to call `onlyOwner` functions anymore. Can only be called by the current owner. NOTE: Renouncing ownership will leave the contract without an owner, thereby removing any functionality that is only available to the owner."
      },
      "setPresaleReceiver(address)": {
        "details": "_newPresaleReceiver - Address that'll receive the presale payment token"
      },
      "setPresaleRound(uint256,uint256,uint256)": {
        "details": "_presaleRound - The presale round chosen_startingTime - The starting Presale time_usdPrice - The USD Price of the Token in certain Presale Round"
      },
      "transferOwnership(address)": {
        "details": "Transfers ownership of the contract to a new account (`newOwner`). Can only be called by the current owner."
      }
    },
    "version": 1
  },
  "userdoc": {
    "kind": "user",
    "methods": {
      "getCurrentPresaleRound()": {
        "notice": "Get Current Presale Round"
      },
      "getCurrentPrice()": {
        "notice": "Getting the Current Price"
      },
      "presaleTokens(address,uint256,address)": {
        "notice": "Execute the Presale of ALPS Token in exchange of other token"
      },
      "setPresaleReceiver(address)": {
        "notice": "Set new Presale Receiver Address"
      },
      "setPresaleRound(uint256,uint256,uint256)": {
        "notice": "Creating/Updating a presale round information"
      }
    },
    "version": 1
  }
}