{
  "contractName": "Presale",
  "abi": [
    {
      "inputs": [
        {
          "internalType": "address",
          "name": "_tokenAddress",
          "type": "address"
        },
        {
          "internalType": "address payable",
          "name": "_presaleReceiver",
          "type": "address"
        },
        {
          "internalType": "uint256",
          "name": "_endingTime",
          "type": "uint256"
        }
      ],
      "stateMutability": "nonpayable",
      "type": "constructor"
    },
    {
      "inputs": [],
      "name": "presaleAmountOverdemand",
      "type": "error"
    },
    {
      "inputs": [],
      "name": "presaleEndingTimeInvalid",
      "type": "error"
    },
    {
      "inputs": [],
      "name": "presaleMaximumPresaleAmountInvalid",
      "type": "error"
    },
    {
      "inputs": [],
      "name": "presaleMimumumUSDPurchaseInvalid",
      "type": "error"
    },
    {
      "inputs": [],
      "name": "presaleNativeTokenPaymentNotSufficient",
      "type": "error"
    },
    {
      "inputs": [],
      "name": "presaleNonZeroAddressInvalid",
      "type": "error"
    },
    {
      "inputs": [],
      "name": "presaleRoundClosed",
      "type": "error"
    },
    {
      "inputs": [],
      "name": "presaleStartingTimeInvalid",
      "type": "error"
    },
    {
      "inputs": [],
      "name": "presaleTokenNotAvailable",
      "type": "error"
    },
    {
      "inputs": [],
      "name": "presaleUSDPriceInvalid",
      "type": "error"
    },
    {
      "inputs": [],
      "name": "presaleUSDPurchaseNotSufficient",
      "type": "error"
    },
    {
      "anonymous": false,
      "inputs": [
        {
          "indexed": true,
          "internalType": "address",
          "name": "previousOwner",
          "type": "address"
        },
        {
          "indexed": true,
          "internalType": "address",
          "name": "newOwner",
          "type": "address"
        }
      ],
      "name": "OwnershipTransferred",
      "type": "event"
    },
    {
      "anonymous": false,
      "inputs": [
        {
          "indexed": false,
          "internalType": "uint256",
          "name": "endingTime",
          "type": "uint256"
        }
      ],
      "name": "PresaleEndingTimeUpdated",
      "type": "event"
    },
    {
      "anonymous": false,
      "inputs": [
        {
          "indexed": false,
          "internalType": "address",
          "name": "tokenAddress",
          "type": "address"
        },
        {
          "indexed": false,
          "internalType": "bool",
          "name": "tokenAvailability",
          "type": "bool"
        },
        {
          "indexed": false,
          "internalType": "address",
          "name": "aggregatorAddress",
          "type": "address"
        }
      ],
      "name": "PresalePaymentTokenUpdated",
      "type": "event"
    },
    {
      "anonymous": false,
      "inputs": [
        {
          "indexed": false,
          "internalType": "address",
          "name": "receiverAddress",
          "type": "address"
        }
      ],
      "name": "PresaleReceiverUpdated",
      "type": "event"
    },
    {
      "anonymous": false,
      "inputs": [
        {
          "indexed": true,
          "internalType": "uint256",
          "name": "presaleRound",
          "type": "uint256"
        },
        {
          "indexed": false,
          "internalType": "uint256",
          "name": "startingTime",
          "type": "uint256"
        },
        {
          "indexed": false,
          "internalType": "uint256",
          "name": "usdPrice",
          "type": "uint256"
        },
        {
          "indexed": false,
          "internalType": "uint256",
          "name": "minimumUSDPurchase",
          "type": "uint256"
        },
        {
          "indexed": false,
          "internalType": "uint256",
          "name": "maximumPresaleAmount",
          "type": "uint256"
        }
      ],
      "name": "PresaleRoundUpdated",
      "type": "event"
    },
    {
      "anonymous": false,
      "inputs": [
        {
          "indexed": false,
          "internalType": "address",
          "name": "tokenAddress",
          "type": "address"
        }
      ],
      "name": "PresaleTokenUpdated",
      "type": "event"
    },
    {
      "anonymous": false,
      "inputs": [
        {
          "indexed": true,
          "internalType": "address",
          "name": "to",
          "type": "address"
        },
        {
          "indexed": true,
          "internalType": "address",
          "name": "paymentTokenAddress",
          "type": "address"
        },
        {
          "indexed": false,
          "internalType": "uint256",
          "name": "amount",
          "type": "uint256"
        },
        {
          "indexed": false,
          "internalType": "uint256",
          "name": "paymentTokenamount",
          "type": "uint256"
        }
      ],
      "name": "TokenPresold",
      "type": "event"
    },
    {
      "inputs": [],
      "name": "endingTime",
      "outputs": [
        {
          "internalType": "uint256",
          "name": "",
          "type": "uint256"
        }
      ],
      "stateMutability": "view",
      "type": "function"
    },
    {
      "inputs": [],
      "name": "owner",
      "outputs": [
        {
          "internalType": "address",
          "name": "",
          "type": "address"
        }
      ],
      "stateMutability": "view",
      "type": "function"
    },
    {
      "inputs": [
        {
          "internalType": "uint256",
          "name": "",
          "type": "uint256"
        }
      ],
      "name": "presaleAmountByRoundMapping",
      "outputs": [
        {
          "internalType": "uint256",
          "name": "",
          "type": "uint256"
        }
      ],
      "stateMutability": "view",
      "type": "function"
    },
    {
      "inputs": [
        {
          "internalType": "uint256",
          "name": "",
          "type": "uint256"
        }
      ],
      "name": "presaleDetailsMapping",
      "outputs": [
        {
          "internalType": "uint256",
          "name": "startingTime",
          "type": "uint256"
        },
        {
          "internalType": "uint256",
          "name": "usdPrice",
          "type": "uint256"
        },
        {
          "internalType": "uint256",
          "name": "minimumUSDPurchase",
          "type": "uint256"
        },
        {
          "internalType": "uint256",
          "name": "maximumPresaleAmount",
          "type": "uint256"
        }
      ],
      "stateMutability": "view",
      "type": "function"
    },
    {
      "inputs": [
        {
          "internalType": "address",
          "name": "",
          "type": "address"
        }
      ],
      "name": "presalePaymentTokenMapping",
      "outputs": [
        {
          "internalType": "bool",
          "name": "available",
          "type": "bool"
        },
        {
          "internalType": "address",
          "name": "aggregatorAddress",
          "type": "address"
        }
      ],
      "stateMutability": "view",
      "type": "function"
    },
    {
      "inputs": [],
      "name": "presaleReceiver",
      "outputs": [
        {
          "internalType": "address payable",
          "name": "",
          "type": "address"
        }
      ],
      "stateMutability": "view",
      "type": "function"
    },
    {
      "inputs": [],
      "name": "renounceOwnership",
      "outputs": [],
      "stateMutability": "nonpayable",
      "type": "function"
    },
    {
      "inputs": [],
      "name": "tokenAddress",
      "outputs": [
        {
          "internalType": "address",
          "name": "",
          "type": "address"
        }
      ],
      "stateMutability": "view",
      "type": "function"
    },
    {
      "inputs": [],
      "name": "totalPresaleRound",
      "outputs": [
        {
          "internalType": "uint256",
          "name": "_value",
          "type": "uint256"
        }
      ],
      "stateMutability": "view",
      "type": "function"
    },
    {
      "inputs": [
        {
          "internalType": "address",
          "name": "newOwner",
          "type": "address"
        }
      ],
      "name": "transferOwnership",
      "outputs": [],
      "stateMutability": "nonpayable",
      "type": "function"
    },
    {
      "inputs": [],
      "name": "getTotalPresaleRound",
      "outputs": [
        {
          "internalType": "uint256",
          "name": "",
          "type": "uint256"
        }
      ],
      "stateMutability": "view",
      "type": "function"
    },
    {
      "inputs": [
        {
          "internalType": "uint256",
          "name": "_presaleRound",
          "type": "uint256"
        }
      ],
      "name": "getPresaleAmountByRound",
      "outputs": [
        {
          "internalType": "uint256",
          "name": "",
          "type": "uint256"
        }
      ],
      "stateMutability": "view",
      "type": "function"
    },
    {
      "inputs": [],
      "name": "getTotalPresaleAmount",
      "outputs": [
        {
          "internalType": "uint256",
          "name": "",
          "type": "uint256"
        }
      ],
      "stateMutability": "view",
      "type": "function"
    },
    {
      "inputs": [],
      "name": "getCurrentPresaleRound",
      "outputs": [
        {
          "internalType": "uint256",
          "name": "",
          "type": "uint256"
        }
      ],
      "stateMutability": "view",
      "type": "function"
    },
    {
      "inputs": [],
      "name": "getCurrentPresaleDetails",
      "outputs": [
        {
          "internalType": "uint256",
          "name": "",
          "type": "uint256"
        },
        {
          "internalType": "uint256",
          "name": "",
          "type": "uint256"
        },
        {
          "internalType": "uint256",
          "name": "",
          "type": "uint256"
        },
        {
          "internalType": "uint256",
          "name": "",
          "type": "uint256"
        }
      ],
      "stateMutability": "view",
      "type": "function"
    },
    {
      "inputs": [
        {
          "internalType": "address",
          "name": "_paymentTokenAddress",
          "type": "address"
        },
        {
          "internalType": "uint256",
          "name": "_amount",
          "type": "uint256"
        }
      ],
      "name": "presaleTokens",
      "outputs": [],
      "stateMutability": "payable",
      "type": "function"
    },
    {
      "inputs": [
        {
          "internalType": "address payable",
          "name": "_newPresaleReceiver",
          "type": "address"
        }
      ],
      "name": "setPresaleReceiver",
      "outputs": [],
      "stateMutability": "nonpayable",
      "type": "function"
    },
    {
      "inputs": [
        {
          "internalType": "address",
          "name": "_newTokenAddress",
          "type": "address"
        }
      ],
      "name": "setPresaleTokenAddress",
      "outputs": [],
      "stateMutability": "nonpayable",
      "type": "function"
    },
    {
      "inputs": [
        {
          "internalType": "address",
          "name": "_tokenAddress",
          "type": "address"
        },
        {
          "internalType": "bool",
          "name": "_tokenAvailability",
          "type": "bool"
        },
        {
          "internalType": "address",
          "name": "_aggregatorAddress",
          "type": "address"
        }
      ],
      "name": "setPresalePaymentToken",
      "outputs": [],
      "stateMutability": "nonpayable",
      "type": "function"
    },
    {
      "inputs": [
        {
          "internalType": "uint256",
          "name": "_newEndingTime",
          "type": "uint256"
        }
      ],
      "name": "setEndingTime",
      "outputs": [],
      "stateMutability": "nonpayable",
      "type": "function"
    },
    {
      "inputs": [
        {
          "internalType": "uint256",
          "name": "_presaleRound",
          "type": "uint256"
        },
        {
          "internalType": "uint256",
          "name": "_startingTime",
          "type": "uint256"
        },
        {
          "internalType": "uint256",
          "name": "_usdPrice",
          "type": "uint256"
        },
        {
          "internalType": "uint256",
          "name": "_minimumUSDPurchase",
          "type": "uint256"
        },
        {
          "internalType": "uint256",
          "name": "_maximumPresaleAmount",
          "type": "uint256"
        }
      ],
      "name": "setPresaleRound",
      "outputs": [],
      "stateMutability": "nonpayable",
      "type": "function"
    }
  ],
  "bytecode": "0x60806040523480156200001157600080fd5b50604051620015b9380380620015b98339810160408190526200003491620000e5565b6200003f336200007c565b60018055600380546001600160a01b039485166001600160a01b03199182161790915560048054939094169216919091179091556005556200012d565b600080546001600160a01b038381166001600160a01b0319831681178455604051919092169283917f8be0079c531659141344cd1fd0a4f28419497f9722a3daafe3b4186f6b6457e09190a35050565b6001600160a01b0381168114620000e257600080fd5b50565b600080600060608486031215620000fb57600080fd5b83516200010881620000cc565b60208501519093506200011b81620000cc565b80925050604084015190509250925092565b61147c806200013d6000396000f3fe60806040526004361061012a5760003560e01c80638da5cb5b116100ab578063c829d1db1161006f578063c829d1db14610385578063d958e001146103a5578063ec2b3523146103d2578063efca9049146103e7578063f2fde38b146103fa578063feda925b1461041a57600080fd5b80638da5cb5b1461029d5780638e7d41b7146102cf578063962de5c01461032e5780639d76ea5814610345578063c14364151461036557600080fd5b80633c0c134d116100f25780633c0c134d146101d05780636c47a6c3146101f0578063715018a614610206578063736e38ef1461021b5780637b4d35851461023b57600080fd5b80630aca575a1461012f5780631c63f0ed146101575780633473bf301461016c578063392f911b1461018e578063398dcd26146101bb575b600080fd5b34801561013b57600080fd5b5061014461043a565b6040519081526020015b60405180910390f35b34801561016357600080fd5b5061014461047c565b34801561017857600080fd5b5061018c610187366004610fd1565b6104d1565b005b34801561019a57600080fd5b506101446101a9366004610fd1565b60076020526000908152604090205481565b3480156101c757600080fd5b50610144610561565b3480156101dc57600080fd5b5061018c6101eb366004610fff565b610571565b3480156101fc57600080fd5b5061014460055481565b34801561021257600080fd5b5061018c610618565b34801561022757600080fd5b5061018c61023636600461102a565b61064e565b34801561024757600080fd5b5061027d610256366004610fd1565b60066020526000908152604090208054600182015460028301546003909301549192909184565b60408051948552602085019390935291830152606082015260800161014e565b3480156102a957600080fd5b506000546001600160a01b03165b6040516001600160a01b03909116815260200161014e565b3480156102db57600080fd5b5061030f6102ea366004610fff565b60086020526000908152604090205460ff81169061010090046001600160a01b031682565b6040805192151583526001600160a01b0390911660208301520161014e565b34801561033a57600080fd5b506002546101449081565b34801561035157600080fd5b506003546102b7906001600160a01b031681565b34801561037157600080fd5b506004546102b7906001600160a01b031681565b34801561039157600080fd5b5061018c6103a0366004611075565b61072b565b3480156103b157600080fd5b506101446103c0366004610fd1565b60009081526007602052604090205490565b3480156103de57600080fd5b5061027d6108d5565b61018c6103f53660046110b0565b610914565b34801561040657600080fd5b5061018c610415366004610fff565b610dda565b34801561042657600080fd5b5061018c610435366004610fff565b610e75565b600080805b6002548110156104765760008181526007602052604090205461046290836110f2565b91508061046e8161110a565b91505061043f565b50919050565b600080600161048a60025490565b6104949190611125565b90505b80156104c95760008181526006602052604090205442106104b757919050565b806104c18161113c565b915050610497565b506000905090565b6000546001600160a01b031633146105045760405162461bcd60e51b81526004016104fb90611153565b60405180910390fd5b42811015610525576040516393d901df60e01b815260040160405180910390fd5b60058190556040518181527f5e50721573a3d3c427f04e866bbc258f046cad12af9fe4a334736b200773d677906020015b60405180910390a150565b600061056c60025490565b905090565b6000546001600160a01b0316331461059b5760405162461bcd60e51b81526004016104fb90611153565b806001600160a01b0381166105c35760405163120d99cb60e11b815260040160405180910390fd5b600380546001600160a01b0319166001600160a01b0384169081179091556040519081527fee1a99df2103f0b252dbc99d29264423a2ff1bb9c2f60dc19903e2ce82989b8b9060200160405180910390a15050565b6000546001600160a01b031633146106425760405162461bcd60e51b81526004016104fb90611153565b61064c6000610eed565b565b6000546001600160a01b031633146106785760405162461bcd60e51b81526004016104fb90611153565b806001600160a01b0381166106a05760405163120d99cb60e11b815260040160405180910390fd5b6001600160a01b0384811660008181526008602090815260409182902080546001600160a81b031916881515610100600160a81b0319811691909117610100968916968702179091558251938452908301528101919091527f0808e27b4009f59d9d966410b0eead8697b72a10434291d723d6200ab3f343e59060600160405180910390a150505050565b6000546001600160a01b031633146107555760405162461bcd60e51b81526004016104fb90611153565b60008581526006602052604090208054600182015460028301546003909301549192909183158015610785575082155b801561078f575081155b8015610799575080155b156107ac576107ac600280546001019055565b8715806107e2575088158015906107e25750600660006107cd60018c611125565b81526020019081526020016000206000015488105b1561080057604051633863ce1d60e01b815260040160405180910390fd5b8661081e576040516329198c7f60e11b815260040160405180910390fd5b8561083c57604051630746844f60e31b815260040160405180910390fd5b8461085a57604051639f2bfa4160e01b815260040160405180910390fd5b6000898152600660209081526040918290208a8155600181018a90556002810189905560030187905581518a81529081018990529081018790526060810186905289907f5460f1c76402b41ef0b7902b6b577fd351a2a6bc531d4a246d8be68dde775a2b9060800160405180910390a2505050505050505050565b60008060008060006108e561047c565b600090815260066020526040902080546001820154600283015460039093015491989097509195509350915050565b600260015414156109675760405162461bcd60e51b815260206004820152601f60248201527f5265656e7472616e637947756172643a207265656e7472616e742063616c6c0060448201526064016104fb565b600260015560008080806109796108d5565b93509350935093508342108061099157506005544210155b156109af576040516304d61c6f60e41b815260040160405180910390fd5b6001600160a01b03861660009081526008602052604090205460ff166109e8576040516303003c8560e21b815260040160405180910390fd5b6003546001600160a01b03878116600090815260086020526040808220548151633fabe5a360e21b815291519484169461010090910490931692839163feaf968c9160048083019260a09291908290030181865afa158015610a4e573d6000803e3d6000fd5b505050506040513d601f19601f82011682018060405250810190610a7291906111a7565b5050509150506000610b50610b4a83856001600160a01b031663313ce5676040518163ffffffff1660e01b8152600401602060405180830381865afa158015610abf573d6000803e3d6000fd5b505050506040513d601f19601f82011682018060405250810190610ae391906111f7565b876001600160a01b031663313ce5676040518163ffffffff1660e01b8152600401602060405180830381865afa158015610b21573d6000803e3d6000fd5b505050506040513d601f19601f82011682018060405250810190610b4591906111f7565b610f3d565b8a610fb0565b905085610b608260126000610f3d565b1015610b7f5760405163196d4a1d60e01b815260040160405180910390fd5b6000610b8b8289610fc5565b905060076000610b9961047c565b81526020019081526020016000205486610bb39190611125565b811115610bd3576040516317b1337360e31b815260040160405180910390fd5b8060076000610be061047c565b81526020019081526020016000206000828254610bfd91906110f2565b90915550506001600160a01b038b16610c9e5789341015610c315760405163854a356160e01b815260040160405180910390fd5b6004546040516001600160a01b03909116908b156108fc02908c906000818181858888f19350505050158015610c6b573d6000803e3d6000fd5b5060405133904780156108fc02916000818181858888f19350505050158015610c98573d6000803e3d6000fd5b50610d23565b600480546040516323b872dd60e01b815233928101929092526001600160a01b039081166024830152604482018c90528c91908216906323b872dd906064016020604051808303816000875af1158015610cfc573d6000803e3d6000fd5b505050506040513d601f19601f82011682018060405250810190610d20919061121a565b50505b6040516340c10f1960e01b8152336004820152602481018290526001600160a01b038616906340c10f1990604401600060405180830381600087803b158015610d6b57600080fd5b505af1158015610d7f573d6000803e3d6000fd5b505060408051848152602081018e90526001600160a01b038f1693503392507f69902df1d9bae4b2a08b9e9d689906299b4b15ac10fbbf560d019b5c73fd35d6910160405180910390a3505060018055505050505050505050565b6000546001600160a01b03163314610e045760405162461bcd60e51b81526004016104fb90611153565b6001600160a01b038116610e695760405162461bcd60e51b815260206004820152602660248201527f4f776e61626c653a206e6577206f776e657220697320746865207a65726f206160448201526564647265737360d01b60648201526084016104fb565b610e7281610eed565b50565b6000546001600160a01b03163314610e9f5760405162461bcd60e51b81526004016104fb90611153565b600480546001600160a01b0319166001600160a01b0383169081179091556040519081527fb3df4b02428d73d6993c686e78b4a35e95f5be7d084aaee9277115379dc4ca9390602001610556565b600080546001600160a01b038381166001600160a01b0319831681178455604051919092169283917f8be0079c531659141344cd1fd0a4f28419497f9722a3daafe3b4186f6b6457e09190a35050565b60008160ff168360ff161015610f7657610f578383611237565b610f659060ff16600a61133e565b610f6f908561134a565b9050610fa9565b8160ff168360ff161115610fa657610f8e8284611237565b610f9c9060ff16600a61133e565b610f6f90856113e5565b50825b9392505050565b6000610fbc8284611413565b90505b92915050565b6000610fbc8284611432565b600060208284031215610fe357600080fd5b5035919050565b6001600160a01b0381168114610e7257600080fd5b60006020828403121561101157600080fd5b8135610fa981610fea565b8015158114610e7257600080fd5b60008060006060848603121561103f57600080fd5b833561104a81610fea565b9250602084013561105a8161101c565b9150604084013561106a81610fea565b809150509250925092565b600080600080600060a0868803121561108d57600080fd5b505083359560208501359550604085013594606081013594506080013592509050565b600080604083850312156110c357600080fd5b82356110ce81610fea565b946020939093013593505050565b634e487b7160e01b600052601160045260246000fd5b60008219821115611105576111056110dc565b500190565b600060001982141561111e5761111e6110dc565b5060010190565b600082821015611137576111376110dc565b500390565b60008161114b5761114b6110dc565b506000190190565b6020808252818101527f4f776e61626c653a2063616c6c6572206973206e6f7420746865206f776e6572604082015260600190565b805169ffffffffffffffffffff811681146111a257600080fd5b919050565b600080600080600060a086880312156111bf57600080fd5b6111c886611188565b94506020860151935060408601519250606086015191506111eb60808701611188565b90509295509295909350565b60006020828403121561120957600080fd5b815160ff81168114610fa957600080fd5b60006020828403121561122c57600080fd5b8151610fa98161101c565b600060ff821660ff841680821015611251576112516110dc565b90039392505050565b600181815b8085111561129557816000190482111561127b5761127b6110dc565b8085161561128857918102915b93841c939080029061125f565b509250929050565b6000826112ac57506001610fbf565b816112b957506000610fbf565b81600181146112cf57600281146112d9576112f5565b6001915050610fbf565b60ff8411156112ea576112ea6110dc565b50506001821b610fbf565b5060208310610133831016604e8410600b8410161715611318575081810a610fbf565b611322838361125a565b8060001904821115611336576113366110dc565b029392505050565b6000610fbc838361129d565b60006001600160ff1b0381841382841380821686840486111615611370576113706110dc565b600160ff1b600087128281168783058912161561138f5761138f6110dc565b600087129250878205871284841616156113ab576113ab6110dc565b878505871281841616156113c1576113c16110dc565b505050929093029392505050565b634e487b7160e01b600052601260045260246000fd5b6000826113f4576113f46113cf565b600160ff1b82146000198414161561140e5761140e6110dc565b500590565b600081600019048311821515161561142d5761142d6110dc565b500290565b600082611441576114416113cf565b50049056fea2646970667358221220eda5cd42956c8689ed2ae2da3d5631bf1d89c20559850386314e0915fdf8742964736f6c634300080b0033",
  "immutableReferences": {},
  "source": "// SPDX-License-Identifier: AGPL-3.0\n\npragma solidity ^0.8.11;\n\nimport {Ownable} from '@openzeppelin/contracts/access/Ownable.sol';\nimport {IERC20} from '@openzeppelin/contracts/token/ERC20/IERC20.sol';\nimport {Counters} from '@openzeppelin/contracts/utils/Counters.sol';\nimport {SafeMath} from '@openzeppelin/contracts/utils/math/SafeMath.sol';\nimport {ReentrancyGuard} from '@openzeppelin/contracts/security/ReentrancyGuard.sol';\nimport {AggregatorV3Interface} from '@chainlink/contracts/src/v0.8/interfaces/AggregatorV3Interface.sol';\nimport {PriceConverter} from '../libraries/PriceConverter.sol';\nimport {IERC20Custom} from '../token/interfaces/IERC20Custom.sol';\n\ncontract Presale is Ownable, ReentrancyGuard {\n  using Counters for Counters.Counter;\n  using SafeMath for uint256;\n\n  struct PresaleData {\n    uint256 startingTime;\n    uint256 usdPrice;\n    uint256 minimumUSDPurchase;\n    uint256 maximumPresaleAmount;\n  }\n  struct PresalePaymentTokenData {\n    bool available;\n    address aggregatorAddress;\n  }\n\n  event TokenPresold(\n    address indexed to,\n    address indexed paymentTokenAddress,\n    uint256 amount,\n    uint256 paymentTokenamount\n  );\n  event PresaleRoundUpdated(\n    uint256 indexed presaleRound,\n    uint256 startingTime,\n    uint256 usdPrice,\n    uint256 minimumUSDPurchase,\n    uint256 maximumPresaleAmount\n  );\n  event PresaleReceiverUpdated(address receiverAddress);\n  event PresalePaymentTokenUpdated(\n    address tokenAddress,\n    bool tokenAvailability,\n    address aggregatorAddress\n  );\n  event PresaleTokenUpdated(address tokenAddress);\n  event PresaleEndingTimeUpdated(uint256 endingTime);\n\n  Counters.Counter public totalPresaleRound;\n  address public tokenAddress;\n  address payable public presaleReceiver;\n  uint256 public endingTime;\n\n  // Mapping `presaleRound` to its data details\n  mapping(uint256 => PresaleData) public presaleDetailsMapping;\n  mapping(uint256 => uint256) public presaleAmountByRoundMapping;\n  mapping(address => PresalePaymentTokenData) public presalePaymentTokenMapping;\n\n  error presaleRoundClosed();\n  error presaleTokenNotAvailable();\n  error presaleNativeTokenPaymentNotSufficient();\n  error presaleStartingTimeInvalid();\n  error presaleUSDPriceInvalid();\n  error presaleMimumumUSDPurchaseInvalid();\n  error presaleMaximumPresaleAmountInvalid();\n  error presaleUSDPurchaseNotSufficient();\n  error presaleAmountOverdemand();\n  error presaleNonZeroAddressInvalid();\n  error presaleEndingTimeInvalid();\n\n  modifier onlyNonZeroAddress(address _address) {\n    if (_address == address(0)) revert presaleNonZeroAddressInvalid();\n    _;\n  }\n\n  constructor(\n    address _tokenAddress,\n    address payable _presaleReceiver,\n    uint256 _endingTime\n  ) {\n    tokenAddress = _tokenAddress;\n    presaleReceiver = _presaleReceiver;\n    endingTime = _endingTime;\n  }\n\n  /**\n   * @dev Get total amount of presale round\n   */\n  function getTotalPresaleRound() public view returns (uint256) {\n    return totalPresaleRound.current();\n  }\n\n  /**\n   * @dev Get presale total amount By presale round\n   * @param _presaleRound - The presale round chosen\n   */\n  function getPresaleAmountByRound(uint256 _presaleRound)\n    public\n    view\n    returns (uint256)\n  {\n    return presaleAmountByRoundMapping[_presaleRound];\n  }\n\n  /**\n   * @dev Get total amount of presale from all rounds\n   */\n  function getTotalPresaleAmount() public view returns (uint256) {\n    uint256 totalPresale = 0;\n    for (\n      uint256 presaleRound = 0;\n      presaleRound < totalPresaleRound.current();\n      presaleRound++\n    ) {\n      totalPresale += presaleAmountByRoundMapping[presaleRound];\n    }\n\n    return totalPresale;\n  }\n\n  /**\n   * @dev Get Current Presale Round\n   */\n  function getCurrentPresaleRound() public view returns (uint256) {\n    for (\n      uint256 presaleRound = totalPresaleRound.current() - 1;\n      presaleRound > 0;\n      presaleRound--\n    ) {\n      if (presaleDetailsMapping[presaleRound].startingTime <= block.timestamp) {\n        return presaleRound;\n      }\n    }\n\n    return 0;\n  }\n\n  /**\n   * @dev Getting the Current Presale Details, including:\n   * @return Starting Time\n   * @return USD Price\n   * @return Minimum USD Purchase\n   * @return Maximum Presale Amount\n   */\n  function getCurrentPresaleDetails()\n    public\n    view\n    returns (\n      uint256,\n      uint256,\n      uint256,\n      uint256\n    )\n  {\n    uint256 currentPresaleRound = getCurrentPresaleRound();\n    return (\n      presaleDetailsMapping[currentPresaleRound].startingTime,\n      presaleDetailsMapping[currentPresaleRound].usdPrice,\n      presaleDetailsMapping[currentPresaleRound].minimumUSDPurchase,\n      presaleDetailsMapping[currentPresaleRound].maximumPresaleAmount\n    );\n  }\n\n  /**\n   * @dev Execute the Presale of ALPS Token in exchange of other token\n   * @param _paymentTokenAddress - Address of the token use to pay (address 0 is for native token)\n   * @param _amount - Amount denominated in the `paymentTokenAddress` being paid\n   */\n  function presaleTokens(address _paymentTokenAddress, uint256 _amount)\n    public\n    payable\n    nonReentrant\n  {\n    (\n      uint256 currentPresaleStartingTime,\n      uint256 currentPresalePrice,\n      uint256 currentPresaleMinimumUSDPurchase,\n      uint256 currentPresaleMaximumPresaleAmount\n    ) = getCurrentPresaleDetails();\n\n    // Check whether the presale round is still open\n    if (\n      block.timestamp < currentPresaleStartingTime ||\n      block.timestamp >= endingTime\n    ) revert presaleRoundClosed();\n\n    // Check whether token is valid\n    if (!presalePaymentTokenMapping[_paymentTokenAddress].available)\n      revert presaleTokenNotAvailable();\n\n    // Convert the token with Chainlink Price Feed\n    IERC20Custom token = IERC20Custom(tokenAddress);\n    AggregatorV3Interface priceFeed = AggregatorV3Interface(\n      presalePaymentTokenMapping[_paymentTokenAddress].aggregatorAddress\n    );\n    (, int256 price, , , ) = priceFeed.latestRoundData();\n    uint256 presaleUSDAmount = SafeMath.mul(\n      uint256(\n        PriceConverter.scalePrice(price, priceFeed.decimals(), token.decimals())\n      ),\n      _amount\n    );\n\n    if (\n      uint256(PriceConverter.scalePrice(int256(presaleUSDAmount), 18, 0)) <\n      currentPresaleMinimumUSDPurchase\n    ) revert presaleUSDPurchaseNotSufficient();\n\n    uint256 presaleAmount = SafeMath.div(presaleUSDAmount, currentPresalePrice);\n\n    if (\n      presaleAmount >\n      currentPresaleMaximumPresaleAmount -\n        presaleAmountByRoundMapping[getCurrentPresaleRound()]\n    ) revert presaleAmountOverdemand();\n\n    presaleAmountByRoundMapping[getCurrentPresaleRound()] += presaleAmount;\n\n    // Receive the payment token and transfer it to another address\n    if (_paymentTokenAddress == address(0)) {\n      if (msg.value < _amount) {\n        revert presaleNativeTokenPaymentNotSufficient();\n      } else {\n        presaleReceiver.transfer(_amount);\n\n        // in case you deployed the contract with more ether than required,\n        // transfer the remaining ether back to yourself\n        payable(msg.sender).transfer(address(this).balance);\n      }\n    } else {\n      IERC20 paymentToken = IERC20(_paymentTokenAddress);\n      paymentToken.transferFrom(msg.sender, presaleReceiver, _amount);\n    }\n\n    // Send ALPS token to `msg.sender`\n    token.mint(msg.sender, presaleAmount);\n    emit TokenPresold(msg.sender, _paymentTokenAddress, presaleAmount, _amount);\n  }\n\n  /**\n   * @dev Set new Presale Receiver Address\n   * @param _newPresaleReceiver - Address that'll receive the presale payment token\n   */\n  function setPresaleReceiver(address payable _newPresaleReceiver)\n    public\n    onlyOwner\n  {\n    presaleReceiver = _newPresaleReceiver;\n\n    emit PresaleReceiverUpdated(_newPresaleReceiver);\n  }\n\n  /**\n   * @dev Set new Presale Token Address\n   * @param _newTokenAddress - Address of token that'll be presaled\n   */\n  function setPresaleTokenAddress(address _newTokenAddress)\n    public\n    onlyOwner\n    onlyNonZeroAddress(_newTokenAddress)\n  {\n    tokenAddress = _newTokenAddress;\n\n    emit PresaleTokenUpdated(_newTokenAddress);\n  }\n\n  /**\n   * @dev Set Presale Payment Token Info\n   * @param _tokenAddress - Token Address use to purchase Presale\n   * @param _tokenAvailability - Indication whether Token Address can be used for Presale\n   * @param _aggregatorAddress - Chainlink's Aggregator Address to determine the USD price (for `presaleTokens`)\n   */\n  function setPresalePaymentToken(\n    address _tokenAddress,\n    bool _tokenAvailability,\n    address _aggregatorAddress\n  ) public onlyOwner onlyNonZeroAddress(_aggregatorAddress) {\n    presalePaymentTokenMapping[_tokenAddress].available = _tokenAvailability;\n    presalePaymentTokenMapping[_tokenAddress]\n      .aggregatorAddress = _aggregatorAddress;\n\n    emit PresalePaymentTokenUpdated(\n      _tokenAddress,\n      _tokenAvailability,\n      _aggregatorAddress\n    );\n  }\n\n  /**\n   * @dev Set new Ending time\n   * @param _newEndingTime - New Ending Timestamp\n   */\n  function setEndingTime(uint256 _newEndingTime) public onlyOwner {\n    if (_newEndingTime < block.timestamp) revert presaleEndingTimeInvalid();\n    endingTime = _newEndingTime;\n\n    emit PresaleEndingTimeUpdated(_newEndingTime);\n  }\n\n  /**\n   * @dev Creating/Updating a presale round information\n   * @param _presaleRound - The presale round chosen\n   * @param _startingTime - The starting Presale time\n   * @param _usdPrice - The USD Price of the Token in certain Presale Round\n   * @param _minimumUSDPurchase - The minimum USD amount to purchase the token\n   * @param _maximumPresaleAmount - The maximum amount of token available for a presale round\n   */\n  function setPresaleRound(\n    uint256 _presaleRound,\n    uint256 _startingTime,\n    uint256 _usdPrice,\n    uint256 _minimumUSDPurchase,\n    uint256 _maximumPresaleAmount\n  ) public onlyOwner {\n    uint256 presaleStartingTime = presaleDetailsMapping[_presaleRound]\n      .startingTime;\n    uint256 presaleUSDPrice = presaleDetailsMapping[_presaleRound].usdPrice;\n    uint256 presaleMinimumUSDPurchase = presaleDetailsMapping[_presaleRound]\n      .minimumUSDPurchase;\n    uint256 presaleMaximumPresaleAmount = presaleDetailsMapping[_presaleRound]\n      .maximumPresaleAmount;\n\n    // Increment the total round counter when new presale is created\n    if (\n      presaleStartingTime == 0 &&\n      presaleUSDPrice == 0 &&\n      presaleMinimumUSDPurchase == 0 &&\n      presaleMaximumPresaleAmount == 0\n    ) totalPresaleRound.increment();\n\n    // Starting time has to be:\n    // - larger than zero\n    // - larger than previous round starting time\n    if (\n      _startingTime == 0 ||\n      (_presaleRound != 0 &&\n        _startingTime < presaleDetailsMapping[_presaleRound - 1].startingTime)\n    ) revert presaleStartingTimeInvalid();\n\n    // These values given must be larger than zero\n    if (_usdPrice == 0) revert presaleUSDPriceInvalid();\n    if (_minimumUSDPurchase == 0) revert presaleMimumumUSDPurchaseInvalid();\n    if (_maximumPresaleAmount == 0) revert presaleMaximumPresaleAmountInvalid();\n\n    presaleDetailsMapping[_presaleRound].startingTime = _startingTime;\n    presaleDetailsMapping[_presaleRound].usdPrice = _usdPrice;\n    presaleDetailsMapping[_presaleRound]\n      .minimumUSDPurchase = _minimumUSDPurchase;\n    presaleDetailsMapping[_presaleRound]\n      .maximumPresaleAmount = _maximumPresaleAmount;\n\n    emit PresaleRoundUpdated(\n      _presaleRound,\n      _startingTime,\n      _usdPrice,\n      _minimumUSDPurchase,\n      _maximumPresaleAmount\n    );\n  }\n}\n",
  "sourcePath": "/Users/yosephks/Documents/GitHub/alpsfinance-smart-contracts/contracts/presale/Presale.sol",
  "compiler": {
    "name": "solc",
    "version": "0.8.11+commit.d7f03943.Emscripten.clang"
  },
  "schemaVersion": "3.4.6",
  "updatedAt": "2022-05-15T17:40:25.568Z",
  "devdoc": {
    "kind": "dev",
    "methods": {
      "getCurrentPresaleDetails()": {
        "details": "Getting the Current Presale Details, including:",
        "returns": {
          "_0": "Starting Time",
          "_1": "USD Price",
          "_2": "Minimum USD Purchase",
          "_3": "Maximum Presale Amount"
        }
      },
      "getCurrentPresaleRound()": {
        "details": "Get Current Presale Round"
      },
      "getPresaleAmountByRound(uint256)": {
        "details": "Get presale total amount By presale round",
        "params": {
          "_presaleRound": "- The presale round chosen"
        }
      },
      "getTotalPresaleAmount()": {
        "details": "Get total amount of presale from all rounds"
      },
      "getTotalPresaleRound()": {
        "details": "Get total amount of presale round"
      },
      "owner()": {
        "details": "Returns the address of the current owner."
      },
      "presaleTokens(address,uint256)": {
        "details": "Execute the Presale of ALPS Token in exchange of other token",
        "params": {
          "_amount": "- Amount denominated in the `paymentTokenAddress` being paid",
          "_paymentTokenAddress": "- Address of the token use to pay (address 0 is for native token)"
        }
      },
      "renounceOwnership()": {
        "details": "Leaves the contract without owner. It will not be possible to call `onlyOwner` functions anymore. Can only be called by the current owner. NOTE: Renouncing ownership will leave the contract without an owner, thereby removing any functionality that is only available to the owner."
      },
      "setEndingTime(uint256)": {
        "details": "Set new Ending time",
        "params": {
          "_newEndingTime": "- New Ending Timestamp"
        }
      },
      "setPresalePaymentToken(address,bool,address)": {
        "details": "Set Presale Payment Token Info",
        "params": {
          "_aggregatorAddress": "- Chainlink's Aggregator Address to determine the USD price (for `presaleTokens`)",
          "_tokenAddress": "- Token Address use to purchase Presale",
          "_tokenAvailability": "- Indication whether Token Address can be used for Presale"
        }
      },
      "setPresaleReceiver(address)": {
        "details": "Set new Presale Receiver Address",
        "params": {
          "_newPresaleReceiver": "- Address that'll receive the presale payment token"
        }
      },
      "setPresaleRound(uint256,uint256,uint256,uint256,uint256)": {
        "details": "Creating/Updating a presale round information",
        "params": {
          "_maximumPresaleAmount": "- The maximum amount of token available for a presale round",
          "_minimumUSDPurchase": "- The minimum USD amount to purchase the token",
          "_presaleRound": "- The presale round chosen",
          "_startingTime": "- The starting Presale time",
          "_usdPrice": "- The USD Price of the Token in certain Presale Round"
        }
      },
      "setPresaleTokenAddress(address)": {
        "details": "Set new Presale Token Address",
        "params": {
          "_newTokenAddress": "- Address of token that'll be presaled"
        }
      },
      "transferOwnership(address)": {
        "details": "Transfers ownership of the contract to a new account (`newOwner`). Can only be called by the current owner."
      }
    },
    "version": 1
  },
  "userdoc": {
    "kind": "user",
    "methods": {},
    "version": 1
  }
}