{
  "contractName": "Presale",
  "abi": [
    {
      "inputs": [
        {
          "internalType": "address",
          "name": "_tokenAddress",
          "type": "address"
        },
        {
          "internalType": "address payable",
          "name": "_presaleReceiver",
          "type": "address"
        }
      ],
      "stateMutability": "nonpayable",
      "type": "constructor"
    },
    {
      "inputs": [],
      "name": "presaleAmountOverdemand",
      "type": "error"
    },
    {
      "inputs": [],
      "name": "presaleMaximumPresaleAmountInvalid",
      "type": "error"
    },
    {
      "inputs": [],
      "name": "presaleMimumumUSDPurchaseInvalid",
      "type": "error"
    },
    {
      "inputs": [],
      "name": "presaleNativeTokenPaymentNotSufficient",
      "type": "error"
    },
    {
      "inputs": [],
      "name": "presaleRoundClosed",
      "type": "error"
    },
    {
      "inputs": [],
      "name": "presaleStartingTimeInvalid",
      "type": "error"
    },
    {
      "inputs": [],
      "name": "presaleTokenNotAvailable",
      "type": "error"
    },
    {
      "inputs": [],
      "name": "presaleUSDPriceInvalid",
      "type": "error"
    },
    {
      "inputs": [],
      "name": "presaleUSDPurchaseNotSufficient",
      "type": "error"
    },
    {
      "anonymous": false,
      "inputs": [
        {
          "indexed": true,
          "internalType": "address",
          "name": "previousOwner",
          "type": "address"
        },
        {
          "indexed": true,
          "internalType": "address",
          "name": "newOwner",
          "type": "address"
        }
      ],
      "name": "OwnershipTransferred",
      "type": "event"
    },
    {
      "anonymous": false,
      "inputs": [
        {
          "indexed": true,
          "internalType": "address",
          "name": "to",
          "type": "address"
        },
        {
          "indexed": true,
          "internalType": "address",
          "name": "paymentTokenAddress",
          "type": "address"
        },
        {
          "indexed": false,
          "internalType": "uint256",
          "name": "amount",
          "type": "uint256"
        },
        {
          "indexed": false,
          "internalType": "uint256",
          "name": "paymentTokenamount",
          "type": "uint256"
        }
      ],
      "name": "TokenPresold",
      "type": "event"
    },
    {
      "inputs": [],
      "name": "owner",
      "outputs": [
        {
          "internalType": "address",
          "name": "",
          "type": "address"
        }
      ],
      "stateMutability": "view",
      "type": "function"
    },
    {
      "inputs": [
        {
          "internalType": "uint256",
          "name": "",
          "type": "uint256"
        }
      ],
      "name": "presaleAmountByRoundMapping",
      "outputs": [
        {
          "internalType": "uint256",
          "name": "",
          "type": "uint256"
        }
      ],
      "stateMutability": "view",
      "type": "function"
    },
    {
      "inputs": [
        {
          "internalType": "uint256",
          "name": "",
          "type": "uint256"
        }
      ],
      "name": "presaleDetailsMapping",
      "outputs": [
        {
          "internalType": "uint256",
          "name": "startingTime",
          "type": "uint256"
        },
        {
          "internalType": "uint256",
          "name": "usdPrice",
          "type": "uint256"
        },
        {
          "internalType": "uint256",
          "name": "minimumUSDPurchase",
          "type": "uint256"
        },
        {
          "internalType": "uint256",
          "name": "maximumPresaleAmount",
          "type": "uint256"
        }
      ],
      "stateMutability": "view",
      "type": "function"
    },
    {
      "inputs": [],
      "name": "presaleReceiver",
      "outputs": [
        {
          "internalType": "address payable",
          "name": "",
          "type": "address"
        }
      ],
      "stateMutability": "view",
      "type": "function"
    },
    {
      "inputs": [
        {
          "internalType": "address",
          "name": "",
          "type": "address"
        }
      ],
      "name": "presaleTokenAvaliblilityMapping",
      "outputs": [
        {
          "internalType": "bool",
          "name": "",
          "type": "bool"
        }
      ],
      "stateMutability": "view",
      "type": "function"
    },
    {
      "inputs": [],
      "name": "renounceOwnership",
      "outputs": [],
      "stateMutability": "nonpayable",
      "type": "function"
    },
    {
      "inputs": [],
      "name": "tokenAddress",
      "outputs": [
        {
          "internalType": "address",
          "name": "",
          "type": "address"
        }
      ],
      "stateMutability": "view",
      "type": "function"
    },
    {
      "inputs": [],
      "name": "totalPresaleRound",
      "outputs": [
        {
          "internalType": "uint256",
          "name": "_value",
          "type": "uint256"
        }
      ],
      "stateMutability": "view",
      "type": "function"
    },
    {
      "inputs": [
        {
          "internalType": "address",
          "name": "newOwner",
          "type": "address"
        }
      ],
      "name": "transferOwnership",
      "outputs": [],
      "stateMutability": "nonpayable",
      "type": "function"
    },
    {
      "inputs": [],
      "name": "getCurrentPresaleRound",
      "outputs": [
        {
          "internalType": "uint256",
          "name": "",
          "type": "uint256"
        }
      ],
      "stateMutability": "view",
      "type": "function"
    },
    {
      "inputs": [],
      "name": "getCurrentPresaleDetails",
      "outputs": [
        {
          "internalType": "uint256",
          "name": "",
          "type": "uint256"
        },
        {
          "internalType": "uint256",
          "name": "",
          "type": "uint256"
        },
        {
          "internalType": "uint256",
          "name": "",
          "type": "uint256"
        },
        {
          "internalType": "uint256",
          "name": "",
          "type": "uint256"
        }
      ],
      "stateMutability": "view",
      "type": "function"
    },
    {
      "inputs": [
        {
          "internalType": "address",
          "name": "_paymentTokenAddress",
          "type": "address"
        },
        {
          "internalType": "uint256",
          "name": "_amount",
          "type": "uint256"
        },
        {
          "internalType": "address",
          "name": "_aggregatorTokenAddress",
          "type": "address"
        }
      ],
      "name": "presaleTokens",
      "outputs": [],
      "stateMutability": "payable",
      "type": "function"
    },
    {
      "inputs": [
        {
          "internalType": "address payable",
          "name": "_newPresaleReceiver",
          "type": "address"
        }
      ],
      "name": "setPresaleReceiver",
      "outputs": [],
      "stateMutability": "nonpayable",
      "type": "function"
    },
    {
      "inputs": [
        {
          "internalType": "address",
          "name": "_newTokenAddress",
          "type": "address"
        }
      ],
      "name": "setPresaleTokenAddress",
      "outputs": [],
      "stateMutability": "nonpayable",
      "type": "function"
    },
    {
      "inputs": [
        {
          "internalType": "uint256",
          "name": "_presaleRound",
          "type": "uint256"
        },
        {
          "internalType": "uint256",
          "name": "_startingTime",
          "type": "uint256"
        },
        {
          "internalType": "uint256",
          "name": "_usdPrice",
          "type": "uint256"
        },
        {
          "internalType": "uint256",
          "name": "_minimumUSDPurchase",
          "type": "uint256"
        },
        {
          "internalType": "uint256",
          "name": "_maximumPresaleAmount",
          "type": "uint256"
        }
      ],
      "name": "setPresaleRound",
      "outputs": [],
      "stateMutability": "nonpayable",
      "type": "function"
    }
  ],
  "bytecode": "0x608060405234801561001057600080fd5b5060405161118938038061118983398101604081905261002f916100d5565b6100383361006d565b60018055600380546001600160a01b039384166001600160a01b0319918216179091556004805492909316911617905561010f565b600080546001600160a01b038381166001600160a01b0319831681178455604051919092169283917f8be0079c531659141344cd1fd0a4f28419497f9722a3daafe3b4186f6b6457e09190a35050565b6001600160a01b03811681146100d257600080fd5b50565b600080604083850312156100e857600080fd5b82516100f3816100bd565b6020840151909250610104816100bd565b809150509250929050565b61106b8061011e6000396000f3fe6080604052600436106100e85760003560e01c80638da5cb5b1161008a578063c829d1db11610059578063c829d1db146102b7578063ec2b3523146102d7578063f2fde38b146102ec578063feda925b1461030c57600080fd5b80638da5cb5b1461022e578063962de5c0146102605780639d76ea5814610277578063c14364151461029757600080fd5b80634a0590b0116100c65780634a0590b0146101645780636a107cd8146101a4578063715018a6146101b75780637b4d3585146101cc57600080fd5b80631c63f0ed146100ed578063392f911b146101155780633c0c134d14610142575b600080fd5b3480156100f957600080fd5b5061010261032c565b6040519081526020015b60405180910390f35b34801561012157600080fd5b50610102610130366004610c19565b60066020526000908152604090205481565b34801561014e57600080fd5b5061016261015d366004610c47565b610381565b005b34801561017057600080fd5b5061019461017f366004610c47565b60076020526000908152604090205460ff1681565b604051901515815260200161010c565b6101626101b2366004610c64565b6103d6565b3480156101c357600080fd5b50610162610881565b3480156101d857600080fd5b5061020e6101e7366004610c19565b60056020526000908152604090208054600182015460028301546003909301549192909184565b60408051948552602085019390935291830152606082015260800161010c565b34801561023a57600080fd5b506000546001600160a01b03165b6040516001600160a01b03909116815260200161010c565b34801561026c57600080fd5b506002546101029081565b34801561028357600080fd5b50600354610248906001600160a01b031681565b3480156102a357600080fd5b50600454610248906001600160a01b031681565b3480156102c357600080fd5b506101626102d2366004610ca6565b6108b7565b3480156102e357600080fd5b5061020e610a0f565b3480156102f857600080fd5b50610162610307366004610c47565b610a4e565b34801561031857600080fd5b50610162610327366004610c47565b610ae9565b600080600161033a60025490565b6103449190610cf7565b90505b801561037957600081815260056020526040902054421061036757919050565b8061037181610d0e565b915050610347565b506000905090565b6000546001600160a01b031633146103b45760405162461bcd60e51b81526004016103ab90610d25565b60405180910390fd5b600380546001600160a01b0319166001600160a01b0392909216919091179055565b600260015414156104295760405162461bcd60e51b815260206004820152601f60248201527f5265656e7472616e637947756172643a207265656e7472616e742063616c6c0060448201526064016103ab565b6002600155600080808061043b610a0f565b9350935093509350834210610463576040516304d61c6f60e41b815260040160405180910390fd5b6001600160a01b03871660009081526007602052604090205460ff161561049d576040516303003c8560e21b815260040160405180910390fd5b60035460408051633fabe5a360e21b815290516001600160a01b039283169288926000929184169163feaf968c9160048082019260a0929091908290030181865afa1580156104f0573d6000803e3d6000fd5b505050506040513d601f19601f820116820180604052508101906105149190610d79565b50505091505060006105f26105ec83856001600160a01b031663313ce5676040518163ffffffff1660e01b8152600401602060405180830381865afa158015610561573d6000803e3d6000fd5b505050506040513d601f19601f820116820180604052508101906105859190610dc9565b876001600160a01b031663313ce5676040518163ffffffff1660e01b8152600401602060405180830381865afa1580156105c3573d6000803e3d6000fd5b505050506040513d601f19601f820116820180604052508101906105e79190610dc9565b610b35565b8b610ba8565b9050858110156106155760405163196d4a1d60e01b815260040160405180910390fd5b60006106218289610bbd565b90506006600061062f61032c565b815260200190815260200160002054866106499190610cf7565b811115610669576040516317b1337360e31b815260040160405180910390fd5b806006600061067661032c565b815260200190815260200160002060008282546106939190610dec565b90915550506001600160a01b038c16610734578a3410156106c75760405163854a356160e01b815260040160405180910390fd5b6004546040516001600160a01b03909116908c156108fc02908d906000818181858888f19350505050158015610701573d6000803e3d6000fd5b5060405133904780156108fc02916000818181858888f1935050505015801561072e573d6000803e3d6000fd5b506107b9565b600480546040516323b872dd60e01b815233928101929092526001600160a01b039081166024830152604482018d90528d91908216906323b872dd906064016020604051808303816000875af1158015610792573d6000803e3d6000fd5b505050506040513d601f19601f820116820180604052508101906107b69190610e04565b50505b6040516340c10f1960e01b8152336004820152602481018290526001600160a01b038616906340c10f1990604401600060405180830381600087803b15801561080157600080fd5b505af1158015610815573d6000803e3d6000fd5b505050508b6001600160a01b0316336001600160a01b03167f69902df1d9bae4b2a08b9e9d689906299b4b15ac10fbbf560d019b5c73fd35d6838e604051610867929190918252602082015260400190565b60405180910390a350506001805550505050505050505050565b6000546001600160a01b031633146108ab5760405162461bcd60e51b81526004016103ab90610d25565b6108b56000610bc9565b565b6000546001600160a01b031633146108e15760405162461bcd60e51b81526004016103ab90610d25565b60008581526005602052604090208054600182015460028301546003909301549192909183158015610911575082155b801561091b575081155b8015610925575080155b1561093857610938600280546001019055565b87158061096e5750881580159061096e57506005600061095960018c610cf7565b81526020019081526020016000206000015488105b1561098c57604051633863ce1d60e01b815260040160405180910390fd5b866109aa576040516329198c7f60e11b815260040160405180910390fd5b856109c857604051630746844f60e31b815260040160405180910390fd5b846109e657604051639f2bfa4160e01b815260040160405180910390fd5b505050600095865250600560205260409094209283556001830191909155600282015560030155565b6000806000806000610a1f61032c565b600090815260056020526040902080546001820154600283015460039093015491989097509195509350915050565b6000546001600160a01b03163314610a785760405162461bcd60e51b81526004016103ab90610d25565b6001600160a01b038116610add5760405162461bcd60e51b815260206004820152602660248201527f4f776e61626c653a206e6577206f776e657220697320746865207a65726f206160448201526564647265737360d01b60648201526084016103ab565b610ae681610bc9565b50565b6000546001600160a01b03163314610b135760405162461bcd60e51b81526004016103ab90610d25565b600480546001600160a01b0319166001600160a01b0392909216919091179055565b60008160ff168360ff161015610b6e57610b4f8383610e26565b610b5d9060ff16600a610f2d565b610b679085610f39565b9050610ba1565b8160ff168360ff161115610b9e57610b868284610e26565b610b949060ff16600a610f2d565b610b679085610fd4565b50825b9392505050565b6000610bb48284611002565b90505b92915050565b6000610bb48284611021565b600080546001600160a01b038381166001600160a01b0319831681178455604051919092169283917f8be0079c531659141344cd1fd0a4f28419497f9722a3daafe3b4186f6b6457e09190a35050565b600060208284031215610c2b57600080fd5b5035919050565b6001600160a01b0381168114610ae657600080fd5b600060208284031215610c5957600080fd5b8135610ba181610c32565b600080600060608486031215610c7957600080fd5b8335610c8481610c32565b9250602084013591506040840135610c9b81610c32565b809150509250925092565b600080600080600060a08688031215610cbe57600080fd5b505083359560208501359550604085013594606081013594506080013592509050565b634e487b7160e01b600052601160045260246000fd5b600082821015610d0957610d09610ce1565b500390565b600081610d1d57610d1d610ce1565b506000190190565b6020808252818101527f4f776e61626c653a2063616c6c6572206973206e6f7420746865206f776e6572604082015260600190565b805169ffffffffffffffffffff81168114610d7457600080fd5b919050565b600080600080600060a08688031215610d9157600080fd5b610d9a86610d5a565b9450602086015193506040860151925060608601519150610dbd60808701610d5a565b90509295509295909350565b600060208284031215610ddb57600080fd5b815160ff81168114610ba157600080fd5b60008219821115610dff57610dff610ce1565b500190565b600060208284031215610e1657600080fd5b81518015158114610ba157600080fd5b600060ff821660ff841680821015610e4057610e40610ce1565b90039392505050565b600181815b80851115610e84578160001904821115610e6a57610e6a610ce1565b80851615610e7757918102915b93841c9390800290610e4e565b509250929050565b600082610e9b57506001610bb7565b81610ea857506000610bb7565b8160018114610ebe5760028114610ec857610ee4565b6001915050610bb7565b60ff841115610ed957610ed9610ce1565b50506001821b610bb7565b5060208310610133831016604e8410600b8410161715610f07575081810a610bb7565b610f118383610e49565b8060001904821115610f2557610f25610ce1565b029392505050565b6000610bb48383610e8c565b60006001600160ff1b0381841382841380821686840486111615610f5f57610f5f610ce1565b600160ff1b6000871282811687830589121615610f7e57610f7e610ce1565b60008712925087820587128484161615610f9a57610f9a610ce1565b87850587128184161615610fb057610fb0610ce1565b505050929093029392505050565b634e487b7160e01b600052601260045260246000fd5b600082610fe357610fe3610fbe565b600160ff1b821460001984141615610ffd57610ffd610ce1565b500590565b600081600019048311821515161561101c5761101c610ce1565b500290565b60008261103057611030610fbe565b50049056fea26469706673582212205ccebdd393a701c70799acd72f49785e987b9bb947284b5d0249a0db75b988a164736f6c634300080b0033",
  "immutableReferences": {},
  "source": "// SPDX-License-Identifier: AGPL-3.0\n\npragma solidity ^0.8.11;\n\nimport \"@openzeppelin/contracts/access/Ownable.sol\";\nimport \"@openzeppelin/contracts/token/ERC20/IERC20.sol\";\nimport \"@openzeppelin/contracts/utils/Counters.sol\";\nimport \"@openzeppelin/contracts/utils/math/SafeMath.sol\";\nimport \"@openzeppelin/contracts/security/ReentrancyGuard.sol\";\nimport \"@chainlink/contracts/src/v0.8/interfaces/AggregatorV3Interface.sol\";\nimport \"../libraries/PriceConverter.sol\";\nimport \"../token/interfaces/IERC20Custom.sol\";\n\ncontract Presale is Ownable, ReentrancyGuard {\n    using Counters for Counters.Counter;\n    using SafeMath for uint256;\n\n    struct PresaleData {\n        uint256 startingTime;\n        uint256 usdPrice;\n        uint256 minimumUSDPurchase;\n        uint256 maximumPresaleAmount;\n    }\n\n    event TokenPresold(\n        address indexed to,\n        address indexed paymentTokenAddress,\n        uint256 amount,\n        uint256 paymentTokenamount\n    );\n\n    Counters.Counter public totalPresaleRound;\n    address public tokenAddress;\n    address payable public presaleReceiver;\n\n    // Mapping `presaleRound` to its data details\n    mapping(uint256 => PresaleData) public presaleDetailsMapping;\n    mapping(uint256 => uint256) public presaleAmountByRoundMapping;\n    mapping(address => bool) public presaleTokenAvaliblilityMapping;\n\n    error presaleRoundClosed();\n    error presaleTokenNotAvailable();\n    error presaleNativeTokenPaymentNotSufficient();\n    error presaleStartingTimeInvalid();\n    error presaleUSDPriceInvalid();\n    error presaleMimumumUSDPurchaseInvalid();\n    error presaleMaximumPresaleAmountInvalid();\n    error presaleUSDPurchaseNotSufficient();\n    error presaleAmountOverdemand();\n\n    constructor(address _tokenAddress, address payable _presaleReceiver) {\n        tokenAddress = _tokenAddress;\n        presaleReceiver = _presaleReceiver;\n    }\n\n    /**\n     * Get Current Presale Round\n     */\n    function getCurrentPresaleRound() public view returns (uint256) {\n        for (\n            uint256 presaleRound = totalPresaleRound.current() - 1;\n            presaleRound > 0;\n            presaleRound--\n        ) {\n            if (\n                presaleDetailsMapping[presaleRound].startingTime <=\n                block.timestamp\n            ) {\n                return presaleRound;\n            }\n        }\n\n        return 0;\n    }\n\n    /**\n     * Getting the Current Presale Details, including:\n     * - Starting Time\n     * - USD Price\n     * - Minimum USD Purchase\n     * - Maximum Presale Amount\n     */\n    function getCurrentPresaleDetails()\n        public\n        view\n        returns (\n            uint256,\n            uint256,\n            uint256,\n            uint256\n        )\n    {\n        uint256 currentPresaleRound = getCurrentPresaleRound();\n        return (\n            presaleDetailsMapping[currentPresaleRound].startingTime,\n            presaleDetailsMapping[currentPresaleRound].usdPrice,\n            presaleDetailsMapping[currentPresaleRound].minimumUSDPurchase,\n            presaleDetailsMapping[currentPresaleRound].maximumPresaleAmount\n        );\n    }\n\n    /**\n     * Execute the Presale of ALPS Token in exchange of other token\n     *\n     * @dev _paymentTokenAddress - Address of the token use to pay (address 0 is for native token)\n     * @dev _amount - Amount denominated in the `paymentTokenAddress` being paid\n     * @dev _aggregatorTokenAddress - Use to convert price with Chainlink\n     */\n    function presaleTokens(\n        address _paymentTokenAddress,\n        uint256 _amount,\n        address _aggregatorTokenAddress\n    ) public payable nonReentrant {\n        (\n            uint256 currentPresaleStartingTime,\n            uint256 currentPresalePrice,\n            uint256 currentPresaleMinimumUSDPurchase,\n            uint256 currentPresaleMaximumPresaleAmount\n        ) = getCurrentPresaleDetails();\n\n        // Check whether the presale round is still open\n        if (block.timestamp >= currentPresaleStartingTime)\n            revert presaleRoundClosed();\n\n        // Check whether token is valid\n        if (presaleTokenAvaliblilityMapping[_paymentTokenAddress])\n            revert presaleTokenNotAvailable();\n\n        // Convert the token with Chainlink Price Feed\n        IERC20Custom token = IERC20Custom(tokenAddress);\n        AggregatorV3Interface priceFeed = AggregatorV3Interface(\n            _aggregatorTokenAddress\n        );\n        (, int256 price, , , ) = priceFeed.latestRoundData();\n        uint256 presaleUSDAmount = SafeMath.mul(\n            uint256(\n                PriceConverter.scalePrice(\n                    price,\n                    priceFeed.decimals(),\n                    token.decimals()\n                )\n            ),\n            _amount\n        );\n\n        if (presaleUSDAmount < currentPresaleMinimumUSDPurchase)\n            revert presaleUSDPurchaseNotSufficient();\n\n        uint256 presaleAmount = SafeMath.div(\n            presaleUSDAmount,\n            currentPresalePrice\n        );\n\n        if (\n            presaleAmount >\n            currentPresaleMaximumPresaleAmount -\n                presaleAmountByRoundMapping[getCurrentPresaleRound()]\n        ) revert presaleAmountOverdemand();\n\n        presaleAmountByRoundMapping[getCurrentPresaleRound()] += presaleAmount;\n\n        // Receive the payment token and transfer it to another address\n        if (_paymentTokenAddress == address(0)) {\n            if (msg.value < _amount) {\n                revert presaleNativeTokenPaymentNotSufficient();\n            } else {\n                presaleReceiver.transfer(_amount);\n\n                // in case you deployed the contract with more ether than required,\n                // transfer the remaining ether back to yourself\n                payable(msg.sender).transfer(address(this).balance);\n            }\n        } else {\n            IERC20 paymentToken = IERC20(_paymentTokenAddress);\n            paymentToken.transferFrom(msg.sender, presaleReceiver, _amount);\n        }\n\n        // Send ALPS token to `msg.sender`\n        token.mint(msg.sender, presaleAmount);\n        emit TokenPresold(\n            msg.sender,\n            _paymentTokenAddress,\n            presaleAmount,\n            _amount\n        );\n    }\n\n    /**\n     * Set new Presale Receiver Address\n     *\n     * @dev _newPresaleReceiver - Address that'll receive the presale payment token\n     */\n    function setPresaleReceiver(address payable _newPresaleReceiver)\n        public\n        onlyOwner\n    {\n        presaleReceiver = _newPresaleReceiver;\n    }\n\n    /**\n     * Set new Presale Token Address\n     *\n     * @dev _newTokenAddress - Address of token that'll be presaled\n     */\n    function setPresaleTokenAddress(address _newTokenAddress) public onlyOwner {\n        tokenAddress = _newTokenAddress;\n    }\n\n    /**\n     * Creating/Updating a presale round information\n     *\n     * @dev _presaleRound - The presale round chosen\n     * @dev _startingTime - The starting Presale time\n     * @dev _usdPrice - The USD Price of the Token in certain Presale Round\n     * @dev _minimumUSDPurchase - The minimum USD amount to purchase the token\n     * @dev _maximumPresaleAmount - The maximum amount of token available for a presale round\n     */\n    function setPresaleRound(\n        uint256 _presaleRound,\n        uint256 _startingTime,\n        uint256 _usdPrice,\n        uint256 _minimumUSDPurchase,\n        uint256 _maximumPresaleAmount\n    ) public onlyOwner {\n        uint256 presaleStartingTime = presaleDetailsMapping[_presaleRound]\n            .startingTime;\n        uint256 presaleUSDPrice = presaleDetailsMapping[_presaleRound].usdPrice;\n        uint256 presaleMinimumUSDPurchase = presaleDetailsMapping[_presaleRound]\n            .minimumUSDPurchase;\n        uint256 presaleMaximumPresaleAmount = presaleDetailsMapping[\n            _presaleRound\n        ].maximumPresaleAmount;\n\n        // Increment the total round counter when new presale is created\n        if (\n            presaleStartingTime == 0 &&\n            presaleUSDPrice == 0 &&\n            presaleMinimumUSDPurchase == 0 &&\n            presaleMaximumPresaleAmount == 0\n        ) totalPresaleRound.increment();\n\n        // Starting time has to be:\n        // - larger than zero\n        // - larger than previous round starting time\n        if (\n            _startingTime == 0 ||\n            (_presaleRound != 0 &&\n                _startingTime <\n                presaleDetailsMapping[_presaleRound - 1].startingTime)\n        ) revert presaleStartingTimeInvalid();\n\n        // These values given must be larger than zero\n        if (_usdPrice == 0) revert presaleUSDPriceInvalid();\n        if (_minimumUSDPurchase == 0) revert presaleMimumumUSDPurchaseInvalid();\n        if (_maximumPresaleAmount == 0)\n            revert presaleMaximumPresaleAmountInvalid();\n\n        presaleDetailsMapping[_presaleRound].startingTime = _startingTime;\n        presaleDetailsMapping[_presaleRound].usdPrice = _usdPrice;\n        presaleDetailsMapping[_presaleRound]\n            .minimumUSDPurchase = _minimumUSDPurchase;\n        presaleDetailsMapping[_presaleRound]\n            .maximumPresaleAmount = _maximumPresaleAmount;\n    }\n}\n",
  "sourcePath": "/Users/yosephks/Documents/GitHub/alpsfinance-smart-contracts/contracts/presale/Presale.sol",
  "compiler": {
    "name": "solc",
    "version": "0.8.11+commit.d7f03943.Emscripten.clang"
  },
  "schemaVersion": "3.4.4",
  "updatedAt": "2022-02-27T16:28:40.547Z",
  "devdoc": {
    "kind": "dev",
    "methods": {
      "owner()": {
        "details": "Returns the address of the current owner."
      },
      "presaleTokens(address,uint256,address)": {
        "details": "_paymentTokenAddress - Address of the token use to pay (address 0 is for native token)_amount - Amount denominated in the `paymentTokenAddress` being paid_aggregatorTokenAddress - Use to convert price with Chainlink"
      },
      "renounceOwnership()": {
        "details": "Leaves the contract without owner. It will not be possible to call `onlyOwner` functions anymore. Can only be called by the current owner. NOTE: Renouncing ownership will leave the contract without an owner, thereby removing any functionality that is only available to the owner."
      },
      "setPresaleReceiver(address)": {
        "details": "_newPresaleReceiver - Address that'll receive the presale payment token"
      },
      "setPresaleRound(uint256,uint256,uint256,uint256,uint256)": {
        "details": "_presaleRound - The presale round chosen_startingTime - The starting Presale time_usdPrice - The USD Price of the Token in certain Presale Round_minimumUSDPurchase - The minimum USD amount to purchase the token_maximumPresaleAmount - The maximum amount of token available for a presale round"
      },
      "setPresaleTokenAddress(address)": {
        "details": "_newTokenAddress - Address of token that'll be presaled"
      },
      "transferOwnership(address)": {
        "details": "Transfers ownership of the contract to a new account (`newOwner`). Can only be called by the current owner."
      }
    },
    "version": 1
  },
  "userdoc": {
    "kind": "user",
    "methods": {
      "getCurrentPresaleDetails()": {
        "notice": "Getting the Current Presale Details, including: - Starting Time - USD Price - Minimum USD Purchase - Maximum Presale Amount"
      },
      "getCurrentPresaleRound()": {
        "notice": "Get Current Presale Round"
      },
      "presaleTokens(address,uint256,address)": {
        "notice": "Execute the Presale of ALPS Token in exchange of other token"
      },
      "setPresaleReceiver(address)": {
        "notice": "Set new Presale Receiver Address"
      },
      "setPresaleRound(uint256,uint256,uint256,uint256,uint256)": {
        "notice": "Creating/Updating a presale round information"
      },
      "setPresaleTokenAddress(address)": {
        "notice": "Set new Presale Token Address"
      }
    },
    "version": 1
  }
}