{
  "contractName": "Presale",
  "abi": [
    {
      "inputs": [
        {
          "internalType": "address",
          "name": "_tokenAddress",
          "type": "address"
        },
        {
          "internalType": "address payable",
          "name": "_presaleReceiver",
          "type": "address"
        },
        {
          "internalType": "uint256",
          "name": "_endingTime",
          "type": "uint256"
        }
      ],
      "stateMutability": "nonpayable",
      "type": "constructor"
    },
    {
      "inputs": [],
      "name": "presaleAmountOverdemand",
      "type": "error"
    },
    {
      "inputs": [],
      "name": "presaleEndingTimeInvalid",
      "type": "error"
    },
    {
      "inputs": [],
      "name": "presaleMaximumPresaleAmountInvalid",
      "type": "error"
    },
    {
      "inputs": [],
      "name": "presaleMimumumUSDPurchaseInvalid",
      "type": "error"
    },
    {
      "inputs": [],
      "name": "presaleNativeTokenPaymentNotSufficient",
      "type": "error"
    },
    {
      "inputs": [],
      "name": "presaleNonZeroAddressInvalid",
      "type": "error"
    },
    {
      "inputs": [],
      "name": "presaleRoundClosed",
      "type": "error"
    },
    {
      "inputs": [],
      "name": "presaleStartingTimeInvalid",
      "type": "error"
    },
    {
      "inputs": [],
      "name": "presaleTokenNotAvailable",
      "type": "error"
    },
    {
      "inputs": [],
      "name": "presaleUSDPriceInvalid",
      "type": "error"
    },
    {
      "inputs": [],
      "name": "presaleUSDPurchaseNotSufficient",
      "type": "error"
    },
    {
      "anonymous": false,
      "inputs": [
        {
          "indexed": true,
          "internalType": "address",
          "name": "previousOwner",
          "type": "address"
        },
        {
          "indexed": true,
          "internalType": "address",
          "name": "newOwner",
          "type": "address"
        }
      ],
      "name": "OwnershipTransferred",
      "type": "event"
    },
    {
      "anonymous": false,
      "inputs": [
        {
          "indexed": false,
          "internalType": "uint256",
          "name": "endingTime",
          "type": "uint256"
        }
      ],
      "name": "PresaleEndingTimeUpdated",
      "type": "event"
    },
    {
      "anonymous": false,
      "inputs": [
        {
          "indexed": false,
          "internalType": "address",
          "name": "tokenAddress",
          "type": "address"
        },
        {
          "indexed": false,
          "internalType": "bool",
          "name": "tokenAvailability",
          "type": "bool"
        },
        {
          "indexed": false,
          "internalType": "address",
          "name": "aggregatorAddress",
          "type": "address"
        }
      ],
      "name": "PresalePaymentTokenUpdated",
      "type": "event"
    },
    {
      "anonymous": false,
      "inputs": [
        {
          "indexed": false,
          "internalType": "address",
          "name": "receiverAddress",
          "type": "address"
        }
      ],
      "name": "PresaleReceiverUpdated",
      "type": "event"
    },
    {
      "anonymous": false,
      "inputs": [
        {
          "indexed": true,
          "internalType": "uint256",
          "name": "presaleRound",
          "type": "uint256"
        },
        {
          "indexed": false,
          "internalType": "uint256",
          "name": "startingTime",
          "type": "uint256"
        },
        {
          "indexed": false,
          "internalType": "uint256",
          "name": "usdPrice",
          "type": "uint256"
        },
        {
          "indexed": false,
          "internalType": "uint256",
          "name": "minimumUSDPurchase",
          "type": "uint256"
        },
        {
          "indexed": false,
          "internalType": "uint256",
          "name": "maximumPresaleAmount",
          "type": "uint256"
        }
      ],
      "name": "PresaleRoundUpdated",
      "type": "event"
    },
    {
      "anonymous": false,
      "inputs": [
        {
          "indexed": false,
          "internalType": "address",
          "name": "tokenAddress",
          "type": "address"
        }
      ],
      "name": "PresaleTokenUpdated",
      "type": "event"
    },
    {
      "anonymous": false,
      "inputs": [
        {
          "indexed": true,
          "internalType": "address",
          "name": "to",
          "type": "address"
        },
        {
          "indexed": true,
          "internalType": "address",
          "name": "paymentTokenAddress",
          "type": "address"
        },
        {
          "indexed": false,
          "internalType": "uint256",
          "name": "amount",
          "type": "uint256"
        },
        {
          "indexed": false,
          "internalType": "uint256",
          "name": "paymentTokenamount",
          "type": "uint256"
        }
      ],
      "name": "TokenPresold",
      "type": "event"
    },
    {
      "inputs": [],
      "name": "endingTime",
      "outputs": [
        {
          "internalType": "uint256",
          "name": "",
          "type": "uint256"
        }
      ],
      "stateMutability": "view",
      "type": "function"
    },
    {
      "inputs": [],
      "name": "owner",
      "outputs": [
        {
          "internalType": "address",
          "name": "",
          "type": "address"
        }
      ],
      "stateMutability": "view",
      "type": "function"
    },
    {
      "inputs": [
        {
          "internalType": "uint256",
          "name": "",
          "type": "uint256"
        }
      ],
      "name": "presaleAmountByRoundMapping",
      "outputs": [
        {
          "internalType": "uint256",
          "name": "",
          "type": "uint256"
        }
      ],
      "stateMutability": "view",
      "type": "function"
    },
    {
      "inputs": [
        {
          "internalType": "uint256",
          "name": "",
          "type": "uint256"
        }
      ],
      "name": "presaleDetailsMapping",
      "outputs": [
        {
          "internalType": "uint256",
          "name": "startingTime",
          "type": "uint256"
        },
        {
          "internalType": "uint256",
          "name": "usdPrice",
          "type": "uint256"
        },
        {
          "internalType": "uint256",
          "name": "minimumUSDPurchase",
          "type": "uint256"
        },
        {
          "internalType": "uint256",
          "name": "maximumPresaleAmount",
          "type": "uint256"
        }
      ],
      "stateMutability": "view",
      "type": "function"
    },
    {
      "inputs": [
        {
          "internalType": "address",
          "name": "",
          "type": "address"
        }
      ],
      "name": "presalePaymentTokenMapping",
      "outputs": [
        {
          "internalType": "bool",
          "name": "available",
          "type": "bool"
        },
        {
          "internalType": "address",
          "name": "aggregatorAddress",
          "type": "address"
        }
      ],
      "stateMutability": "view",
      "type": "function"
    },
    {
      "inputs": [],
      "name": "presaleReceiver",
      "outputs": [
        {
          "internalType": "address payable",
          "name": "",
          "type": "address"
        }
      ],
      "stateMutability": "view",
      "type": "function"
    },
    {
      "inputs": [],
      "name": "renounceOwnership",
      "outputs": [],
      "stateMutability": "nonpayable",
      "type": "function"
    },
    {
      "inputs": [],
      "name": "tokenAddress",
      "outputs": [
        {
          "internalType": "address",
          "name": "",
          "type": "address"
        }
      ],
      "stateMutability": "view",
      "type": "function"
    },
    {
      "inputs": [],
      "name": "totalPresaleRound",
      "outputs": [
        {
          "internalType": "uint256",
          "name": "_value",
          "type": "uint256"
        }
      ],
      "stateMutability": "view",
      "type": "function"
    },
    {
      "inputs": [
        {
          "internalType": "address",
          "name": "newOwner",
          "type": "address"
        }
      ],
      "name": "transferOwnership",
      "outputs": [],
      "stateMutability": "nonpayable",
      "type": "function"
    },
    {
      "inputs": [],
      "name": "getTotalPresaleRound",
      "outputs": [
        {
          "internalType": "uint256",
          "name": "",
          "type": "uint256"
        }
      ],
      "stateMutability": "view",
      "type": "function"
    },
    {
      "inputs": [
        {
          "internalType": "uint256",
          "name": "_presaleRound",
          "type": "uint256"
        }
      ],
      "name": "getPresaleAmountByRound",
      "outputs": [
        {
          "internalType": "uint256",
          "name": "",
          "type": "uint256"
        }
      ],
      "stateMutability": "view",
      "type": "function"
    },
    {
      "inputs": [],
      "name": "getTotalPresaleAmount",
      "outputs": [
        {
          "internalType": "uint256",
          "name": "",
          "type": "uint256"
        }
      ],
      "stateMutability": "view",
      "type": "function"
    },
    {
      "inputs": [],
      "name": "getCurrentPresaleRound",
      "outputs": [
        {
          "internalType": "uint256",
          "name": "",
          "type": "uint256"
        }
      ],
      "stateMutability": "view",
      "type": "function"
    },
    {
      "inputs": [],
      "name": "getCurrentPresaleDetails",
      "outputs": [
        {
          "internalType": "uint256",
          "name": "",
          "type": "uint256"
        },
        {
          "internalType": "uint256",
          "name": "",
          "type": "uint256"
        },
        {
          "internalType": "uint256",
          "name": "",
          "type": "uint256"
        },
        {
          "internalType": "uint256",
          "name": "",
          "type": "uint256"
        }
      ],
      "stateMutability": "view",
      "type": "function"
    },
    {
      "inputs": [
        {
          "internalType": "address",
          "name": "_paymentTokenAddress",
          "type": "address"
        },
        {
          "internalType": "uint256",
          "name": "_amount",
          "type": "uint256"
        }
      ],
      "name": "presaleTokens",
      "outputs": [],
      "stateMutability": "payable",
      "type": "function"
    },
    {
      "inputs": [
        {
          "internalType": "address payable",
          "name": "_newPresaleReceiver",
          "type": "address"
        }
      ],
      "name": "setPresaleReceiver",
      "outputs": [],
      "stateMutability": "nonpayable",
      "type": "function"
    },
    {
      "inputs": [
        {
          "internalType": "address",
          "name": "_newTokenAddress",
          "type": "address"
        }
      ],
      "name": "setPresaleTokenAddress",
      "outputs": [],
      "stateMutability": "nonpayable",
      "type": "function"
    },
    {
      "inputs": [
        {
          "internalType": "address",
          "name": "_tokenAddress",
          "type": "address"
        },
        {
          "internalType": "bool",
          "name": "_tokenAvailability",
          "type": "bool"
        },
        {
          "internalType": "address",
          "name": "_aggregatorAddress",
          "type": "address"
        }
      ],
      "name": "setPresalePaymentToken",
      "outputs": [],
      "stateMutability": "nonpayable",
      "type": "function"
    },
    {
      "inputs": [
        {
          "internalType": "uint256",
          "name": "_newEndingTime",
          "type": "uint256"
        }
      ],
      "name": "setEndingTime",
      "outputs": [],
      "stateMutability": "nonpayable",
      "type": "function"
    },
    {
      "inputs": [
        {
          "internalType": "uint256",
          "name": "_presaleRound",
          "type": "uint256"
        },
        {
          "internalType": "uint256",
          "name": "_startingTime",
          "type": "uint256"
        },
        {
          "internalType": "uint256",
          "name": "_usdPrice",
          "type": "uint256"
        },
        {
          "internalType": "uint256",
          "name": "_minimumUSDPurchase",
          "type": "uint256"
        },
        {
          "internalType": "uint256",
          "name": "_maximumPresaleAmount",
          "type": "uint256"
        }
      ],
      "name": "setPresaleRound",
      "outputs": [],
      "stateMutability": "nonpayable",
      "type": "function"
    }
  ],
  "bytecode": "0x60806040523480156200001157600080fd5b50604051620015b9380380620015b98339810160408190526200003491620000e5565b6200003f336200007c565b60018055600380546001600160a01b039485166001600160a01b03199182161790915560048054939094169216919091179091556005556200012d565b600080546001600160a01b038381166001600160a01b0319831681178455604051919092169283917f8be0079c531659141344cd1fd0a4f28419497f9722a3daafe3b4186f6b6457e09190a35050565b6001600160a01b0381168114620000e257600080fd5b50565b600080600060608486031215620000fb57600080fd5b83516200010881620000cc565b60208501519093506200011b81620000cc565b80925050604084015190509250925092565b61147c806200013d6000396000f3fe60806040526004361061012a5760003560e01c80638da5cb5b116100ab578063c829d1db1161006f578063c829d1db14610385578063d958e001146103a5578063ec2b3523146103d2578063efca9049146103e7578063f2fde38b146103fa578063feda925b1461041a57600080fd5b80638da5cb5b1461029d5780638e7d41b7146102cf578063962de5c01461032e5780639d76ea5814610345578063c14364151461036557600080fd5b80633c0c134d116100f25780633c0c134d146101d05780636c47a6c3146101f0578063715018a614610206578063736e38ef1461021b5780637b4d35851461023b57600080fd5b80630aca575a1461012f5780631c63f0ed146101575780633473bf301461016c578063392f911b1461018e578063398dcd26146101bb575b600080fd5b34801561013b57600080fd5b5061014461043a565b6040519081526020015b60405180910390f35b34801561016357600080fd5b5061014461047c565b34801561017857600080fd5b5061018c610187366004610fd1565b6104d1565b005b34801561019a57600080fd5b506101446101a9366004610fd1565b60076020526000908152604090205481565b3480156101c757600080fd5b50610144610561565b3480156101dc57600080fd5b5061018c6101eb366004610fff565b610571565b3480156101fc57600080fd5b5061014460055481565b34801561021257600080fd5b5061018c610618565b34801561022757600080fd5b5061018c61023636600461102a565b61064e565b34801561024757600080fd5b5061027d610256366004610fd1565b60066020526000908152604090208054600182015460028301546003909301549192909184565b60408051948552602085019390935291830152606082015260800161014e565b3480156102a957600080fd5b506000546001600160a01b03165b6040516001600160a01b03909116815260200161014e565b3480156102db57600080fd5b5061030f6102ea366004610fff565b60086020526000908152604090205460ff81169061010090046001600160a01b031682565b6040805192151583526001600160a01b0390911660208301520161014e565b34801561033a57600080fd5b506002546101449081565b34801561035157600080fd5b506003546102b7906001600160a01b031681565b34801561037157600080fd5b506004546102b7906001600160a01b031681565b34801561039157600080fd5b5061018c6103a0366004611075565b61072b565b3480156103b157600080fd5b506101446103c0366004610fd1565b60009081526007602052604090205490565b3480156103de57600080fd5b5061027d6108d5565b61018c6103f53660046110b0565b610914565b34801561040657600080fd5b5061018c610415366004610fff565b610dda565b34801561042657600080fd5b5061018c610435366004610fff565b610e75565b600080805b6002548110156104765760008181526007602052604090205461046290836110f2565b91508061046e8161110a565b91505061043f565b50919050565b600080600161048a60025490565b6104949190611125565b90505b80156104c95760008181526006602052604090205442106104b757919050565b806104c18161113c565b915050610497565b506000905090565b6000546001600160a01b031633146105045760405162461bcd60e51b81526004016104fb90611153565b60405180910390fd5b42811015610525576040516393d901df60e01b815260040160405180910390fd5b60058190556040518181527f5e50721573a3d3c427f04e866bbc258f046cad12af9fe4a334736b200773d677906020015b60405180910390a150565b600061056c60025490565b905090565b6000546001600160a01b0316331461059b5760405162461bcd60e51b81526004016104fb90611153565b806001600160a01b0381166105c35760405163120d99cb60e11b815260040160405180910390fd5b600380546001600160a01b0319166001600160a01b0384169081179091556040519081527fee1a99df2103f0b252dbc99d29264423a2ff1bb9c2f60dc19903e2ce82989b8b9060200160405180910390a15050565b6000546001600160a01b031633146106425760405162461bcd60e51b81526004016104fb90611153565b61064c6000610eed565b565b6000546001600160a01b031633146106785760405162461bcd60e51b81526004016104fb90611153565b806001600160a01b0381166106a05760405163120d99cb60e11b815260040160405180910390fd5b6001600160a01b0384811660008181526008602090815260409182902080546001600160a81b031916881515610100600160a81b0319811691909117610100968916968702179091558251938452908301528101919091527f0808e27b4009f59d9d966410b0eead8697b72a10434291d723d6200ab3f343e59060600160405180910390a150505050565b6000546001600160a01b031633146107555760405162461bcd60e51b81526004016104fb90611153565b60008581526006602052604090208054600182015460028301546003909301549192909183158015610785575082155b801561078f575081155b8015610799575080155b156107ac576107ac600280546001019055565b8715806107e2575088158015906107e25750600660006107cd60018c611125565b81526020019081526020016000206000015488105b1561080057604051633863ce1d60e01b815260040160405180910390fd5b8661081e576040516329198c7f60e11b815260040160405180910390fd5b8561083c57604051630746844f60e31b815260040160405180910390fd5b8461085a57604051639f2bfa4160e01b815260040160405180910390fd5b6000898152600660209081526040918290208a8155600181018a90556002810189905560030187905581518a81529081018990529081018790526060810186905289907f5460f1c76402b41ef0b7902b6b577fd351a2a6bc531d4a246d8be68dde775a2b9060800160405180910390a2505050505050505050565b60008060008060006108e561047c565b600090815260066020526040902080546001820154600283015460039093015491989097509195509350915050565b600260015414156109675760405162461bcd60e51b815260206004820152601f60248201527f5265656e7472616e637947756172643a207265656e7472616e742063616c6c0060448201526064016104fb565b600260015560008080806109796108d5565b93509350935093508342108061099157506005544210155b156109af576040516304d61c6f60e41b815260040160405180910390fd5b6001600160a01b03861660009081526008602052604090205460ff166109e8576040516303003c8560e21b815260040160405180910390fd5b6003546001600160a01b03878116600090815260086020526040808220548151633fabe5a360e21b815291519484169461010090910490931692839163feaf968c9160048083019260a09291908290030181865afa158015610a4e573d6000803e3d6000fd5b505050506040513d601f19601f82011682018060405250810190610a7291906111a7565b5050509150506000610b50610b4a83856001600160a01b031663313ce5676040518163ffffffff1660e01b8152600401602060405180830381865afa158015610abf573d6000803e3d6000fd5b505050506040513d601f19601f82011682018060405250810190610ae391906111f7565b876001600160a01b031663313ce5676040518163ffffffff1660e01b8152600401602060405180830381865afa158015610b21573d6000803e3d6000fd5b505050506040513d601f19601f82011682018060405250810190610b4591906111f7565b610f3d565b8a610fb0565b905085610b608260126000610f3d565b1015610b7f5760405163196d4a1d60e01b815260040160405180910390fd5b6000610b8b8289610fc5565b905060076000610b9961047c565b81526020019081526020016000205486610bb39190611125565b811115610bd3576040516317b1337360e31b815260040160405180910390fd5b8060076000610be061047c565b81526020019081526020016000206000828254610bfd91906110f2565b90915550506001600160a01b038b16610c9e5789341015610c315760405163854a356160e01b815260040160405180910390fd5b6004546040516001600160a01b03909116908b156108fc02908c906000818181858888f19350505050158015610c6b573d6000803e3d6000fd5b5060405133904780156108fc02916000818181858888f19350505050158015610c98573d6000803e3d6000fd5b50610d23565b600480546040516323b872dd60e01b815233928101929092526001600160a01b039081166024830152604482018c90528c91908216906323b872dd906064016020604051808303816000875af1158015610cfc573d6000803e3d6000fd5b505050506040513d601f19601f82011682018060405250810190610d20919061121a565b50505b6040516340c10f1960e01b8152336004820152602481018290526001600160a01b038616906340c10f1990604401600060405180830381600087803b158015610d6b57600080fd5b505af1158015610d7f573d6000803e3d6000fd5b505060408051848152602081018e90526001600160a01b038f1693503392507f69902df1d9bae4b2a08b9e9d689906299b4b15ac10fbbf560d019b5c73fd35d6910160405180910390a3505060018055505050505050505050565b6000546001600160a01b03163314610e045760405162461bcd60e51b81526004016104fb90611153565b6001600160a01b038116610e695760405162461bcd60e51b815260206004820152602660248201527f4f776e61626c653a206e6577206f776e657220697320746865207a65726f206160448201526564647265737360d01b60648201526084016104fb565b610e7281610eed565b50565b6000546001600160a01b03163314610e9f5760405162461bcd60e51b81526004016104fb90611153565b600480546001600160a01b0319166001600160a01b0383169081179091556040519081527fb3df4b02428d73d6993c686e78b4a35e95f5be7d084aaee9277115379dc4ca9390602001610556565b600080546001600160a01b038381166001600160a01b0319831681178455604051919092169283917f8be0079c531659141344cd1fd0a4f28419497f9722a3daafe3b4186f6b6457e09190a35050565b60008160ff168360ff161015610f7657610f578383611237565b610f659060ff16600a61133e565b610f6f908561134a565b9050610fa9565b8160ff168360ff161115610fa657610f8e8284611237565b610f9c9060ff16600a61133e565b610f6f90856113e5565b50825b9392505050565b6000610fbc8284611413565b90505b92915050565b6000610fbc8284611432565b600060208284031215610fe357600080fd5b5035919050565b6001600160a01b0381168114610e7257600080fd5b60006020828403121561101157600080fd5b8135610fa981610fea565b8015158114610e7257600080fd5b60008060006060848603121561103f57600080fd5b833561104a81610fea565b9250602084013561105a8161101c565b9150604084013561106a81610fea565b809150509250925092565b600080600080600060a0868803121561108d57600080fd5b505083359560208501359550604085013594606081013594506080013592509050565b600080604083850312156110c357600080fd5b82356110ce81610fea565b946020939093013593505050565b634e487b7160e01b600052601160045260246000fd5b60008219821115611105576111056110dc565b500190565b600060001982141561111e5761111e6110dc565b5060010190565b600082821015611137576111376110dc565b500390565b60008161114b5761114b6110dc565b506000190190565b6020808252818101527f4f776e61626c653a2063616c6c6572206973206e6f7420746865206f776e6572604082015260600190565b805169ffffffffffffffffffff811681146111a257600080fd5b919050565b600080600080600060a086880312156111bf57600080fd5b6111c886611188565b94506020860151935060408601519250606086015191506111eb60808701611188565b90509295509295909350565b60006020828403121561120957600080fd5b815160ff81168114610fa957600080fd5b60006020828403121561122c57600080fd5b8151610fa98161101c565b600060ff821660ff841680821015611251576112516110dc565b90039392505050565b600181815b8085111561129557816000190482111561127b5761127b6110dc565b8085161561128857918102915b93841c939080029061125f565b509250929050565b6000826112ac57506001610fbf565b816112b957506000610fbf565b81600181146112cf57600281146112d9576112f5565b6001915050610fbf565b60ff8411156112ea576112ea6110dc565b50506001821b610fbf565b5060208310610133831016604e8410600b8410161715611318575081810a610fbf565b611322838361125a565b8060001904821115611336576113366110dc565b029392505050565b6000610fbc838361129d565b60006001600160ff1b0381841382841380821686840486111615611370576113706110dc565b600160ff1b600087128281168783058912161561138f5761138f6110dc565b600087129250878205871284841616156113ab576113ab6110dc565b878505871281841616156113c1576113c16110dc565b505050929093029392505050565b634e487b7160e01b600052601260045260246000fd5b6000826113f4576113f46113cf565b600160ff1b82146000198414161561140e5761140e6110dc565b500590565b600081600019048311821515161561142d5761142d6110dc565b500290565b600082611441576114416113cf565b50049056fea26469706673582212200f9645b2726444234a629c070259a328baa1124dabc4d2651b00326eb7f211e864736f6c634300080b0033",
  "immutableReferences": {},
  "source": "// SPDX-License-Identifier: AGPL-3.0\r\n\r\npragma solidity ^0.8.11;\r\n\r\nimport \"@openzeppelin/contracts/access/Ownable.sol\";\r\nimport \"@openzeppelin/contracts/token/ERC20/IERC20.sol\";\r\nimport \"@openzeppelin/contracts/utils/Counters.sol\";\r\nimport \"@openzeppelin/contracts/utils/math/SafeMath.sol\";\r\nimport \"@openzeppelin/contracts/security/ReentrancyGuard.sol\";\r\nimport \"@chainlink/contracts/src/v0.8/interfaces/AggregatorV3Interface.sol\";\r\nimport \"../libraries/PriceConverter.sol\";\r\nimport \"../token/interfaces/IERC20Custom.sol\";\r\n\r\ncontract Presale is Ownable, ReentrancyGuard {\r\n    using Counters for Counters.Counter;\r\n    using SafeMath for uint256;\r\n\r\n    struct PresaleData {\r\n        uint256 startingTime;\r\n        uint256 usdPrice;\r\n        uint256 minimumUSDPurchase;\r\n        uint256 maximumPresaleAmount;\r\n    }\r\n    struct PresalePaymentTokenData {\r\n        bool available;\r\n        address aggregatorAddress;\r\n    }\r\n\r\n    event TokenPresold(\r\n        address indexed to,\r\n        address indexed paymentTokenAddress,\r\n        uint256 amount,\r\n        uint256 paymentTokenamount\r\n    );\r\n    event PresaleRoundUpdated(\r\n        uint256 indexed presaleRound,\r\n        uint256 startingTime,\r\n        uint256 usdPrice,\r\n        uint256 minimumUSDPurchase,\r\n        uint256 maximumPresaleAmount\r\n    );\r\n    event PresaleReceiverUpdated(address receiverAddress);\r\n    event PresalePaymentTokenUpdated(\r\n        address tokenAddress,\r\n        bool tokenAvailability,\r\n        address aggregatorAddress\r\n    );\r\n    event PresaleTokenUpdated(address tokenAddress);\r\n    event PresaleEndingTimeUpdated(uint256 endingTime);\r\n\r\n    Counters.Counter public totalPresaleRound;\r\n    address public tokenAddress;\r\n    address payable public presaleReceiver;\r\n    uint256 public endingTime;\r\n\r\n    // Mapping `presaleRound` to its data details\r\n    mapping(uint256 => PresaleData) public presaleDetailsMapping;\r\n    mapping(uint256 => uint256) public presaleAmountByRoundMapping;\r\n    mapping(address => PresalePaymentTokenData)\r\n        public presalePaymentTokenMapping;\r\n\r\n    error presaleRoundClosed();\r\n    error presaleTokenNotAvailable();\r\n    error presaleNativeTokenPaymentNotSufficient();\r\n    error presaleStartingTimeInvalid();\r\n    error presaleUSDPriceInvalid();\r\n    error presaleMimumumUSDPurchaseInvalid();\r\n    error presaleMaximumPresaleAmountInvalid();\r\n    error presaleUSDPurchaseNotSufficient();\r\n    error presaleAmountOverdemand();\r\n    error presaleNonZeroAddressInvalid();\r\n    error presaleEndingTimeInvalid();\r\n\r\n    modifier onlyNonZeroAddress(address _address) {\r\n        if (_address == address(0)) revert presaleNonZeroAddressInvalid();\r\n        _;\r\n    }\r\n\r\n    constructor(\r\n        address _tokenAddress,\r\n        address payable _presaleReceiver,\r\n        uint256 _endingTime\r\n    ) {\r\n        tokenAddress = _tokenAddress;\r\n        presaleReceiver = _presaleReceiver;\r\n        endingTime = _endingTime;\r\n    }\r\n\r\n    /**\r\n     * @dev Get total amount of presale round\r\n     */\r\n    function getTotalPresaleRound() public view returns (uint256) {\r\n        return totalPresaleRound.current();\r\n    }\r\n\r\n    /**\r\n     * @dev Get presale total amount By presale round\r\n     * @param _presaleRound - The presale round chosen\r\n     */\r\n    function getPresaleAmountByRound(uint256 _presaleRound)\r\n        public\r\n        view\r\n        returns (uint256)\r\n    {\r\n        return presaleAmountByRoundMapping[_presaleRound];\r\n    }\r\n\r\n    /**\r\n     * @dev Get total amount of presale from all rounds\r\n     */\r\n    function getTotalPresaleAmount() public view returns (uint256) {\r\n        uint256 totalPresale = 0;\r\n        for (\r\n            uint256 presaleRound = 0;\r\n            presaleRound < totalPresaleRound.current();\r\n            presaleRound++\r\n        ) {\r\n            totalPresale += presaleAmountByRoundMapping[presaleRound];\r\n        }\r\n\r\n        return totalPresale;\r\n    }\r\n\r\n    /**\r\n     * @dev Get Current Presale Round\r\n     */\r\n    function getCurrentPresaleRound() public view returns (uint256) {\r\n        for (\r\n            uint256 presaleRound = totalPresaleRound.current() - 1;\r\n            presaleRound > 0;\r\n            presaleRound--\r\n        ) {\r\n            if (\r\n                presaleDetailsMapping[presaleRound].startingTime <=\r\n                block.timestamp\r\n            ) {\r\n                return presaleRound;\r\n            }\r\n        }\r\n\r\n        return 0;\r\n    }\r\n\r\n    /**\r\n     * @dev Getting the Current Presale Details, including:\r\n     * @return Starting Time\r\n     * @return USD Price\r\n     * @return Minimum USD Purchase\r\n     * @return Maximum Presale Amount\r\n     */\r\n    function getCurrentPresaleDetails()\r\n        public\r\n        view\r\n        returns (\r\n            uint256,\r\n            uint256,\r\n            uint256,\r\n            uint256\r\n        )\r\n    {\r\n        uint256 currentPresaleRound = getCurrentPresaleRound();\r\n        return (\r\n            presaleDetailsMapping[currentPresaleRound].startingTime,\r\n            presaleDetailsMapping[currentPresaleRound].usdPrice,\r\n            presaleDetailsMapping[currentPresaleRound].minimumUSDPurchase,\r\n            presaleDetailsMapping[currentPresaleRound].maximumPresaleAmount\r\n        );\r\n    }\r\n\r\n    /**\r\n     * @dev Execute the Presale of ALPS Token in exchange of other token\r\n     * @param _paymentTokenAddress - Address of the token use to pay (address 0 is for native token)\r\n     * @param _amount - Amount denominated in the `paymentTokenAddress` being paid\r\n     */\r\n    function presaleTokens(address _paymentTokenAddress, uint256 _amount)\r\n        public\r\n        payable\r\n        nonReentrant\r\n    {\r\n        (\r\n            uint256 currentPresaleStartingTime,\r\n            uint256 currentPresalePrice,\r\n            uint256 currentPresaleMinimumUSDPurchase,\r\n            uint256 currentPresaleMaximumPresaleAmount\r\n        ) = getCurrentPresaleDetails();\r\n\r\n        // Check whether the presale round is still open\r\n        if (\r\n            block.timestamp < currentPresaleStartingTime ||\r\n            block.timestamp >= endingTime\r\n        ) revert presaleRoundClosed();\r\n\r\n        // Check whether token is valid\r\n        if (!presalePaymentTokenMapping[_paymentTokenAddress].available)\r\n            revert presaleTokenNotAvailable();\r\n\r\n        // Convert the token with Chainlink Price Feed\r\n        IERC20Custom token = IERC20Custom(tokenAddress);\r\n        AggregatorV3Interface priceFeed = AggregatorV3Interface(\r\n            presalePaymentTokenMapping[_paymentTokenAddress].aggregatorAddress\r\n        );\r\n        (, int256 price, , , ) = priceFeed.latestRoundData();\r\n        uint256 presaleUSDAmount = SafeMath.mul(\r\n            uint256(\r\n                PriceConverter.scalePrice(\r\n                    price,\r\n                    priceFeed.decimals(),\r\n                    token.decimals()\r\n                )\r\n            ),\r\n            _amount\r\n        );\r\n\r\n        if (\r\n            uint256(\r\n                PriceConverter.scalePrice(int256(presaleUSDAmount), 18, 0)\r\n            ) < currentPresaleMinimumUSDPurchase\r\n        ) revert presaleUSDPurchaseNotSufficient();\r\n\r\n        uint256 presaleAmount = SafeMath.div(\r\n            presaleUSDAmount,\r\n            currentPresalePrice\r\n        );\r\n\r\n        if (\r\n            presaleAmount >\r\n            currentPresaleMaximumPresaleAmount -\r\n                presaleAmountByRoundMapping[getCurrentPresaleRound()]\r\n        ) revert presaleAmountOverdemand();\r\n\r\n        presaleAmountByRoundMapping[getCurrentPresaleRound()] += presaleAmount;\r\n\r\n        // Receive the payment token and transfer it to another address\r\n        if (_paymentTokenAddress == address(0)) {\r\n            if (msg.value < _amount) {\r\n                revert presaleNativeTokenPaymentNotSufficient();\r\n            } else {\r\n                presaleReceiver.transfer(_amount);\r\n\r\n                // in case you deployed the contract with more ether than required,\r\n                // transfer the remaining ether back to yourself\r\n                payable(msg.sender).transfer(address(this).balance);\r\n            }\r\n        } else {\r\n            IERC20 paymentToken = IERC20(_paymentTokenAddress);\r\n            paymentToken.transferFrom(msg.sender, presaleReceiver, _amount);\r\n        }\r\n\r\n        // Send ALPS token to `msg.sender`\r\n        token.mint(msg.sender, presaleAmount);\r\n        emit TokenPresold(\r\n            msg.sender,\r\n            _paymentTokenAddress,\r\n            presaleAmount,\r\n            _amount\r\n        );\r\n    }\r\n\r\n    /**\r\n     * @dev Set new Presale Receiver Address\r\n     * @param _newPresaleReceiver - Address that'll receive the presale payment token\r\n     */\r\n    function setPresaleReceiver(address payable _newPresaleReceiver)\r\n        public\r\n        onlyOwner\r\n    {\r\n        presaleReceiver = _newPresaleReceiver;\r\n\r\n        emit PresaleReceiverUpdated(_newPresaleReceiver);\r\n    }\r\n\r\n    /**\r\n     * @dev Set new Presale Token Address\r\n     * @param _newTokenAddress - Address of token that'll be presaled\r\n     */\r\n    function setPresaleTokenAddress(address _newTokenAddress)\r\n        public\r\n        onlyOwner\r\n        onlyNonZeroAddress(_newTokenAddress)\r\n    {\r\n        tokenAddress = _newTokenAddress;\r\n\r\n        emit PresaleTokenUpdated(_newTokenAddress);\r\n    }\r\n\r\n    /**\r\n     * @dev Set Presale Payment Token Info\r\n     * @param _tokenAddress - Token Address use to purchase Presale\r\n     * @param _tokenAvailability - Indication whether Token Address can be used for Presale\r\n     * @param _aggregatorAddress - Chainlink's Aggregator Address to determine the USD price (for `presaleTokens`)\r\n     */\r\n    function setPresalePaymentToken(\r\n        address _tokenAddress,\r\n        bool _tokenAvailability,\r\n        address _aggregatorAddress\r\n    ) public onlyOwner onlyNonZeroAddress(_aggregatorAddress) {\r\n        presalePaymentTokenMapping[_tokenAddress]\r\n            .available = _tokenAvailability;\r\n        presalePaymentTokenMapping[_tokenAddress]\r\n            .aggregatorAddress = _aggregatorAddress;\r\n\r\n        emit PresalePaymentTokenUpdated(\r\n            _tokenAddress,\r\n            _tokenAvailability,\r\n            _aggregatorAddress\r\n        );\r\n    }\r\n\r\n    /**\r\n     * @dev Set new Ending time\r\n     * @param _newEndingTime - New Ending Timestamp\r\n     */\r\n    function setEndingTime(uint256 _newEndingTime) public onlyOwner {\r\n        if (_newEndingTime < block.timestamp) revert presaleEndingTimeInvalid();\r\n        endingTime = _newEndingTime;\r\n\r\n        emit PresaleEndingTimeUpdated(_newEndingTime);\r\n    }\r\n\r\n    /**\r\n     * @dev Creating/Updating a presale round information\r\n     * @param _presaleRound - The presale round chosen\r\n     * @param _startingTime - The starting Presale time\r\n     * @param _usdPrice - The USD Price of the Token in certain Presale Round\r\n     * @param _minimumUSDPurchase - The minimum USD amount to purchase the token\r\n     * @param _maximumPresaleAmount - The maximum amount of token available for a presale round\r\n     */\r\n    function setPresaleRound(\r\n        uint256 _presaleRound,\r\n        uint256 _startingTime,\r\n        uint256 _usdPrice,\r\n        uint256 _minimumUSDPurchase,\r\n        uint256 _maximumPresaleAmount\r\n    ) public onlyOwner {\r\n        uint256 presaleStartingTime = presaleDetailsMapping[_presaleRound]\r\n            .startingTime;\r\n        uint256 presaleUSDPrice = presaleDetailsMapping[_presaleRound].usdPrice;\r\n        uint256 presaleMinimumUSDPurchase = presaleDetailsMapping[_presaleRound]\r\n            .minimumUSDPurchase;\r\n        uint256 presaleMaximumPresaleAmount = presaleDetailsMapping[\r\n            _presaleRound\r\n        ].maximumPresaleAmount;\r\n\r\n        // Increment the total round counter when new presale is created\r\n        if (\r\n            presaleStartingTime == 0 &&\r\n            presaleUSDPrice == 0 &&\r\n            presaleMinimumUSDPurchase == 0 &&\r\n            presaleMaximumPresaleAmount == 0\r\n        ) totalPresaleRound.increment();\r\n\r\n        // Starting time has to be:\r\n        // - larger than zero\r\n        // - larger than previous round starting time\r\n        if (\r\n            _startingTime == 0 ||\r\n            (_presaleRound != 0 &&\r\n                _startingTime <\r\n                presaleDetailsMapping[_presaleRound - 1].startingTime)\r\n        ) revert presaleStartingTimeInvalid();\r\n\r\n        // These values given must be larger than zero\r\n        if (_usdPrice == 0) revert presaleUSDPriceInvalid();\r\n        if (_minimumUSDPurchase == 0) revert presaleMimumumUSDPurchaseInvalid();\r\n        if (_maximumPresaleAmount == 0)\r\n            revert presaleMaximumPresaleAmountInvalid();\r\n\r\n        presaleDetailsMapping[_presaleRound].startingTime = _startingTime;\r\n        presaleDetailsMapping[_presaleRound].usdPrice = _usdPrice;\r\n        presaleDetailsMapping[_presaleRound]\r\n            .minimumUSDPurchase = _minimumUSDPurchase;\r\n        presaleDetailsMapping[_presaleRound]\r\n            .maximumPresaleAmount = _maximumPresaleAmount;\r\n\r\n        emit PresaleRoundUpdated(\r\n            _presaleRound,\r\n            _startingTime,\r\n            _usdPrice,\r\n            _minimumUSDPurchase,\r\n            _maximumPresaleAmount\r\n        );\r\n    }\r\n}\r\n",
  "sourcePath": "C:\\Users\\user\\Desktop\\alpsfinance-smart-contracts\\contracts\\presale\\Presale.sol",
  "compiler": {
    "name": "solc",
    "version": "0.8.11+commit.d7f03943.Emscripten.clang"
  },
  "schemaVersion": "3.4.5",
  "updatedAt": "2022-03-17T04:35:24.618Z",
  "devdoc": {
    "kind": "dev",
    "methods": {
      "getCurrentPresaleDetails()": {
        "details": "Getting the Current Presale Details, including:",
        "returns": {
          "_0": "Starting Time",
          "_1": "USD Price",
          "_2": "Minimum USD Purchase",
          "_3": "Maximum Presale Amount"
        }
      },
      "getCurrentPresaleRound()": {
        "details": "Get Current Presale Round"
      },
      "getPresaleAmountByRound(uint256)": {
        "details": "Get presale total amount By presale round",
        "params": {
          "_presaleRound": "- The presale round chosen"
        }
      },
      "getTotalPresaleAmount()": {
        "details": "Get total amount of presale from all rounds"
      },
      "getTotalPresaleRound()": {
        "details": "Get total amount of presale round"
      },
      "owner()": {
        "details": "Returns the address of the current owner."
      },
      "presaleTokens(address,uint256)": {
        "details": "Execute the Presale of ALPS Token in exchange of other token",
        "params": {
          "_amount": "- Amount denominated in the `paymentTokenAddress` being paid",
          "_paymentTokenAddress": "- Address of the token use to pay (address 0 is for native token)"
        }
      },
      "renounceOwnership()": {
        "details": "Leaves the contract without owner. It will not be possible to call `onlyOwner` functions anymore. Can only be called by the current owner. NOTE: Renouncing ownership will leave the contract without an owner, thereby removing any functionality that is only available to the owner."
      },
      "setEndingTime(uint256)": {
        "details": "Set new Ending time",
        "params": {
          "_newEndingTime": "- New Ending Timestamp"
        }
      },
      "setPresalePaymentToken(address,bool,address)": {
        "details": "Set Presale Payment Token Info",
        "params": {
          "_aggregatorAddress": "- Chainlink's Aggregator Address to determine the USD price (for `presaleTokens`)",
          "_tokenAddress": "- Token Address use to purchase Presale",
          "_tokenAvailability": "- Indication whether Token Address can be used for Presale"
        }
      },
      "setPresaleReceiver(address)": {
        "details": "Set new Presale Receiver Address",
        "params": {
          "_newPresaleReceiver": "- Address that'll receive the presale payment token"
        }
      },
      "setPresaleRound(uint256,uint256,uint256,uint256,uint256)": {
        "details": "Creating/Updating a presale round information",
        "params": {
          "_maximumPresaleAmount": "- The maximum amount of token available for a presale round",
          "_minimumUSDPurchase": "- The minimum USD amount to purchase the token",
          "_presaleRound": "- The presale round chosen",
          "_startingTime": "- The starting Presale time",
          "_usdPrice": "- The USD Price of the Token in certain Presale Round"
        }
      },
      "setPresaleTokenAddress(address)": {
        "details": "Set new Presale Token Address",
        "params": {
          "_newTokenAddress": "- Address of token that'll be presaled"
        }
      },
      "transferOwnership(address)": {
        "details": "Transfers ownership of the contract to a new account (`newOwner`). Can only be called by the current owner."
      }
    },
    "version": 1
  },
  "userdoc": {
    "kind": "user",
    "methods": {},
    "version": 1
  }
}