{
  "contractName": "PriceConverter",
  "abi": [
    {
      "inputs": [
        {
          "internalType": "address",
          "name": "_base",
          "type": "address"
        },
        {
          "internalType": "address",
          "name": "_quote",
          "type": "address"
        },
        {
          "internalType": "uint8",
          "name": "_decimals",
          "type": "uint8"
        }
      ],
      "name": "getDerivedPrice",
      "outputs": [
        {
          "internalType": "int256",
          "name": "",
          "type": "int256"
        }
      ],
      "stateMutability": "view",
      "type": "function"
    }
  ],
  "bytecode": "0x61063a61003a600b82828239805160001a60731461002d57634e487b7160e01b600052600060045260246000fd5b30600052607381538281f3fe73000000000000000000000000000000000000000030146080604052600436106100355760003560e01c8063974366551461003a575b600080fd5b61004d61004836600461034a565b61005f565b60405190815260200160405180910390f35b600060ff8216158015906100775750601260ff831611155b6100bb5760405162461bcd60e51b8152602060048201526011602482015270496e76616c6964205f646563696d616c7360781b604482015260640160405180910390fd5b60006100cb60ff8416600a61048d565b90506000856001600160a01b031663feaf968c6040518163ffffffff1660e01b815260040160a060405180830381865afa15801561010d573d6000803e3d6000fd5b505050506040513d601f19601f8201168201806040525081019061013191906104b3565b5050509150506000866001600160a01b031663313ce5676040518163ffffffff1660e01b8152600401602060405180830381865afa158015610177573d6000803e3d6000fd5b505050506040513d601f19601f8201168201806040525081019061019b9190610503565b90506101a88282876102ab565b91506000866001600160a01b031663feaf968c6040518163ffffffff1660e01b815260040160a060405180830381865afa1580156101ea573d6000803e3d6000fd5b505050506040513d601f19601f8201168201806040525081019061020e91906104b3565b5050509150506000876001600160a01b031663313ce5676040518163ffffffff1660e01b8152600401602060405180830381865afa158015610254573d6000803e3d6000fd5b505050506040513d601f19601f820116820180604052508101906102789190610503565b90506102858282896102ab565b9150816102928686610520565b61029c91906105a5565b955050505050505b9392505050565b60008160ff168360ff1610156102e4576102c583836105e1565b6102d39060ff16600a61048d565b6102dd9085610520565b90506102a4565b8160ff168360ff161115610314576102fc82846105e1565b61030a9060ff16600a61048d565b6102dd90856105a5565b509192915050565b80356001600160a01b038116811461033357600080fd5b919050565b60ff8116811461034757600080fd5b50565b60008060006060848603121561035f57600080fd5b6103688461031c565b92506103766020850161031c565b9150604084013561038681610338565b809150509250925092565b634e487b7160e01b600052601160045260246000fd5b600181815b808511156103e25781600019048211156103c8576103c8610391565b808516156103d557918102915b93841c93908002906103ac565b509250929050565b6000826103f957506001610487565b8161040657506000610487565b816001811461041c576002811461042657610442565b6001915050610487565b60ff84111561043757610437610391565b50506001821b610487565b5060208310610133831016604e8410600b8410161715610465575081810a610487565b61046f83836103a7565b806000190482111561048357610483610391565b0290505b92915050565b60006102a483836103ea565b805169ffffffffffffffffffff8116811461033357600080fd5b600080600080600060a086880312156104cb57600080fd5b6104d486610499565b94506020860151935060408601519250606086015191506104f760808701610499565b90509295509295909350565b60006020828403121561051557600080fd5b81516102a481610338565b60006001600160ff1b038184138284138082168684048611161561054657610546610391565b600160ff1b600087128281168783058912161561056557610565610391565b6000871292508782058712848416161561058157610581610391565b8785058712818416161561059757610597610391565b505050929093029392505050565b6000826105c257634e487b7160e01b600052601260045260246000fd5b600160ff1b8214600019841416156105dc576105dc610391565b500590565b600060ff821660ff8416808210156105fb576105fb610391565b9003939250505056fea26469706673582212201172a7cbef12446c20c34cc53dfcdd35c3a303000bf818ed494f030b104ad49c64736f6c634300080b0033",
  "immutableReferences": {},
  "source": "// SPDX-License-Identifier: AGPL-3.0\r\n\r\npragma solidity ^0.8.11;\r\n\r\nimport \"@chainlink/contracts/src/v0.8/interfaces/AggregatorV3Interface.sol\";\r\n\r\nlibrary PriceConverter {\r\n    function getDerivedPrice(\r\n        address _base,\r\n        address _quote,\r\n        uint8 _decimals\r\n    ) public view returns (int256) {\r\n        require(\r\n            _decimals > uint8(0) && _decimals <= uint8(18),\r\n            \"Invalid _decimals\"\r\n        );\r\n        int256 decimals = int256(10**uint256(_decimals));\r\n        (, int256 basePrice, , , ) = AggregatorV3Interface(_base)\r\n            .latestRoundData();\r\n        uint8 baseDecimals = AggregatorV3Interface(_base).decimals();\r\n        basePrice = scalePrice(basePrice, baseDecimals, _decimals);\r\n\r\n        (, int256 quotePrice, , , ) = AggregatorV3Interface(_quote)\r\n            .latestRoundData();\r\n        uint8 quoteDecimals = AggregatorV3Interface(_quote).decimals();\r\n        quotePrice = scalePrice(quotePrice, quoteDecimals, _decimals);\r\n\r\n        return (basePrice * decimals) / quotePrice;\r\n    }\r\n\r\n    function scalePrice(\r\n        int256 _price,\r\n        uint8 _priceDecimals,\r\n        uint8 _decimals\r\n    ) internal pure returns (int256) {\r\n        if (_priceDecimals < _decimals) {\r\n            return _price * int256(10**uint256(_decimals - _priceDecimals));\r\n        } else if (_priceDecimals > _decimals) {\r\n            return _price / int256(10**uint256(_priceDecimals - _decimals));\r\n        }\r\n        return _price;\r\n    }\r\n}\r\n",
  "sourcePath": "C:\\Users\\user\\Desktop\\alpsfinance-smart-contracts\\contracts\\libraries\\PriceConverter.sol",
  "compiler": {
    "name": "solc",
    "version": "0.8.11+commit.d7f03943.Emscripten.clang"
  },
  "schemaVersion": "3.4.5",
  "updatedAt": "2022-03-26T18:34:12.471Z",
  "devdoc": {
    "kind": "dev",
    "methods": {},
    "version": 1
  },
  "userdoc": {
    "kind": "user",
    "methods": {},
    "version": 1
  }
}