{
  "contractName": "StrategyManager",
  "abi": [
    {
      "anonymous": false,
      "inputs": [
        {
          "indexed": true,
          "internalType": "bytes32",
          "name": "role",
          "type": "bytes32"
        },
        {
          "indexed": true,
          "internalType": "bytes32",
          "name": "previousAdminRole",
          "type": "bytes32"
        },
        {
          "indexed": true,
          "internalType": "bytes32",
          "name": "newAdminRole",
          "type": "bytes32"
        }
      ],
      "name": "RoleAdminChanged",
      "type": "event"
    },
    {
      "anonymous": false,
      "inputs": [
        {
          "indexed": true,
          "internalType": "bytes32",
          "name": "role",
          "type": "bytes32"
        },
        {
          "indexed": true,
          "internalType": "address",
          "name": "account",
          "type": "address"
        },
        {
          "indexed": true,
          "internalType": "address",
          "name": "sender",
          "type": "address"
        }
      ],
      "name": "RoleGranted",
      "type": "event"
    },
    {
      "anonymous": false,
      "inputs": [
        {
          "indexed": true,
          "internalType": "bytes32",
          "name": "role",
          "type": "bytes32"
        },
        {
          "indexed": true,
          "internalType": "address",
          "name": "account",
          "type": "address"
        },
        {
          "indexed": true,
          "internalType": "address",
          "name": "sender",
          "type": "address"
        }
      ],
      "name": "RoleRevoked",
      "type": "event"
    },
    {
      "inputs": [],
      "name": "DEFAULT_ADMIN_ROLE",
      "outputs": [
        {
          "internalType": "bytes32",
          "name": "",
          "type": "bytes32"
        }
      ],
      "stateMutability": "view",
      "type": "function"
    },
    {
      "inputs": [
        {
          "internalType": "bytes32",
          "name": "role",
          "type": "bytes32"
        }
      ],
      "name": "getRoleAdmin",
      "outputs": [
        {
          "internalType": "bytes32",
          "name": "",
          "type": "bytes32"
        }
      ],
      "stateMutability": "view",
      "type": "function"
    },
    {
      "inputs": [
        {
          "internalType": "bytes32",
          "name": "role",
          "type": "bytes32"
        },
        {
          "internalType": "address",
          "name": "account",
          "type": "address"
        }
      ],
      "name": "grantRole",
      "outputs": [],
      "stateMutability": "nonpayable",
      "type": "function"
    },
    {
      "inputs": [
        {
          "internalType": "bytes32",
          "name": "role",
          "type": "bytes32"
        },
        {
          "internalType": "address",
          "name": "account",
          "type": "address"
        }
      ],
      "name": "hasRole",
      "outputs": [
        {
          "internalType": "bool",
          "name": "",
          "type": "bool"
        }
      ],
      "stateMutability": "view",
      "type": "function"
    },
    {
      "inputs": [
        {
          "internalType": "bytes32",
          "name": "role",
          "type": "bytes32"
        },
        {
          "internalType": "address",
          "name": "account",
          "type": "address"
        }
      ],
      "name": "renounceRole",
      "outputs": [],
      "stateMutability": "nonpayable",
      "type": "function"
    },
    {
      "inputs": [
        {
          "internalType": "bytes32",
          "name": "role",
          "type": "bytes32"
        },
        {
          "internalType": "address",
          "name": "account",
          "type": "address"
        }
      ],
      "name": "revokeRole",
      "outputs": [],
      "stateMutability": "nonpayable",
      "type": "function"
    },
    {
      "inputs": [
        {
          "internalType": "bytes4",
          "name": "interfaceId",
          "type": "bytes4"
        }
      ],
      "name": "supportsInterface",
      "outputs": [
        {
          "internalType": "bool",
          "name": "",
          "type": "bool"
        }
      ],
      "stateMutability": "view",
      "type": "function"
    },
    {
      "inputs": [],
      "name": "setStrategyFee",
      "outputs": [],
      "stateMutability": "nonpayable",
      "type": "function"
    },
    {
      "inputs": [
        {
          "internalType": "bytes32",
          "name": "strategyId",
          "type": "bytes32"
        },
        {
          "internalType": "uint256",
          "name": "fee",
          "type": "uint256"
        }
      ],
      "name": "registerStrategy",
      "outputs": [],
      "stateMutability": "nonpayable",
      "type": "function"
    },
    {
      "inputs": [],
      "name": "executeStrategy",
      "outputs": [],
      "stateMutability": "nonpayable",
      "type": "function"
    }
  ],
  "bytecode": "0x608060405234801561001057600080fd5b506107c3806100206000396000f3fe608060405234801561001057600080fd5b506004361061009e5760003560e01c806336568abe1161006657806336568abe1461012357806344647185146100cb57806391d1485414610136578063a217fddf14610149578063d547741f1461015157600080fd5b806301ffc9a7146100a35780630caf94b7146100cb578063248a9ca3146100cd5780632f2ff15d146100fe5780632fc6db9614610111575b600080fd5b6100b66100b1366004610584565b610164565b60405190151581526020015b60405180910390f35b005b6100f06100db3660046105ae565b60009081526020819052604090206001015490565b6040519081526020016100c2565b6100cb61010c3660046105c7565b61019b565b6100cb61011f366004610603565b5050565b6100cb6101313660046105c7565b6101c6565b6100b66101443660046105c7565b610245565b6100f0600081565b6100cb61015f3660046105c7565b61026e565b60006001600160e01b03198216637965db0b60e01b148061019557506301ffc9a760e01b6001600160e01b03198316145b92915050565b6000828152602081905260409020600101546101b78133610294565b6101c183836102f8565b505050565b6001600160a01b038116331461023b5760405162461bcd60e51b815260206004820152602f60248201527f416363657373436f6e74726f6c3a2063616e206f6e6c792072656e6f756e636560448201526e103937b632b9903337b91039b2b63360891b60648201526084015b60405180910390fd5b61011f828261037c565b6000918252602082815260408084206001600160a01b0393909316845291905290205460ff1690565b60008281526020819052604090206001015461028a8133610294565b6101c1838361037c565b61029e8282610245565b61011f576102b6816001600160a01b031660146103e1565b6102c18360206103e1565b6040516020016102d2929190610655565b60408051601f198184030181529082905262461bcd60e51b8252610232916004016106ca565b6103028282610245565b61011f576000828152602081815260408083206001600160a01b03851684529091529020805460ff191660011790556103383390565b6001600160a01b0316816001600160a01b0316837f2f8788117e7eff1d82e926ec794901d17c78024a50270940304540a733656f0d60405160405180910390a45050565b6103868282610245565b1561011f576000828152602081815260408083206001600160a01b0385168085529252808320805460ff1916905551339285917ff6391f5c32d9c69d2a47ea670b442974b53935d1edc7fd64eb21e047a839171b9190a45050565b606060006103f0836002610713565b6103fb906002610732565b67ffffffffffffffff8111156104135761041361074a565b6040519080825280601f01601f19166020018201604052801561043d576020820181803683370190505b509050600360fc1b8160008151811061045857610458610760565b60200101906001600160f81b031916908160001a905350600f60fb1b8160018151811061048757610487610760565b60200101906001600160f81b031916908160001a90535060006104ab846002610713565b6104b6906001610732565b90505b600181111561052e576f181899199a1a9b1b9c1cb0b131b232b360811b85600f16601081106104ea576104ea610760565b1a60f81b82828151811061050057610500610760565b60200101906001600160f81b031916908160001a90535060049490941c9361052781610776565b90506104b9565b50831561057d5760405162461bcd60e51b815260206004820181905260248201527f537472696e67733a20686578206c656e67746820696e73756666696369656e746044820152606401610232565b9392505050565b60006020828403121561059657600080fd5b81356001600160e01b03198116811461057d57600080fd5b6000602082840312156105c057600080fd5b5035919050565b600080604083850312156105da57600080fd5b8235915060208301356001600160a01b03811681146105f857600080fd5b809150509250929050565b6000806040838503121561061657600080fd5b50508035926020909101359150565b60005b83811015610640578181015183820152602001610628565b8381111561064f576000848401525b50505050565b7f416363657373436f6e74726f6c3a206163636f756e742000000000000000000081526000835161068d816017850160208801610625565b7001034b99036b4b9b9b4b733903937b6329607d1b60179184019182015283516106be816028840160208801610625565b01602801949350505050565b60208152600082518060208401526106e9816040850160208701610625565b601f01601f19169190910160400192915050565b634e487b7160e01b600052601160045260246000fd5b600081600019048311821515161561072d5761072d6106fd565b500290565b60008219821115610745576107456106fd565b500190565b634e487b7160e01b600052604160045260246000fd5b634e487b7160e01b600052603260045260246000fd5b600081610785576107856106fd565b50600019019056fea26469706673582212200566ebcc49c19d9d75a7838427279bf7157dfb8544fd63e6264013986898e1ed64736f6c634300080b0033",
  "immutableReferences": {},
  "source": "// SPDX-License-Identifier: AGPL-3.0\n\npragma solidity ^0.8.11;\n\nimport {AccessControl} from '@openzeppelin/contracts/access/AccessControl.sol';\nimport {FeeManager} from '../libraries/FeeManager.sol';\n\ncontract StrategyManager is AccessControl {\n  function setStrategyFee() public {}\n\n  function registerStrategy(bytes32 strategyId, uint256 fee) public {}\n\n  function executeStrategy() public {}\n}\n",
  "sourcePath": "/Users/yosephks/Documents/GitHub/alpsfinance-smart-contracts/contracts/defi/StrategyManager.sol",
  "compiler": {
    "name": "solc",
    "version": "0.8.11+commit.d7f03943.Emscripten.clang"
  },
  "schemaVersion": "3.4.6",
  "updatedAt": "2022-07-19T06:53:08.960Z",
  "devdoc": {
    "kind": "dev",
    "methods": {
      "getRoleAdmin(bytes32)": {
        "details": "Returns the admin role that controls `role`. See {grantRole} and {revokeRole}. To change a role's admin, use {_setRoleAdmin}."
      },
      "grantRole(bytes32,address)": {
        "details": "Grants `role` to `account`. If `account` had not been already granted `role`, emits a {RoleGranted} event. Requirements: - the caller must have ``role``'s admin role."
      },
      "hasRole(bytes32,address)": {
        "details": "Returns `true` if `account` has been granted `role`."
      },
      "renounceRole(bytes32,address)": {
        "details": "Revokes `role` from the calling account. Roles are often managed via {grantRole} and {revokeRole}: this function's purpose is to provide a mechanism for accounts to lose their privileges if they are compromised (such as when a trusted device is misplaced). If the calling account had been revoked `role`, emits a {RoleRevoked} event. Requirements: - the caller must be `account`."
      },
      "revokeRole(bytes32,address)": {
        "details": "Revokes `role` from `account`. If `account` had been granted `role`, emits a {RoleRevoked} event. Requirements: - the caller must have ``role``'s admin role."
      },
      "supportsInterface(bytes4)": {
        "details": "See {IERC165-supportsInterface}."
      }
    },
    "version": 1
  },
  "userdoc": {
    "kind": "user",
    "methods": {},
    "version": 1
  }
}