{
  "contractName": "StrategyManager",
  "abi": [
    {
      "inputs": [],
      "name": "FailedStrategyExecution",
      "type": "error"
    },
    {
      "inputs": [],
      "name": "InvalidFeeValue",
      "type": "error"
    },
    {
      "anonymous": false,
      "inputs": [
        {
          "indexed": true,
          "internalType": "bytes32",
          "name": "role",
          "type": "bytes32"
        },
        {
          "indexed": true,
          "internalType": "bytes32",
          "name": "previousAdminRole",
          "type": "bytes32"
        },
        {
          "indexed": true,
          "internalType": "bytes32",
          "name": "newAdminRole",
          "type": "bytes32"
        }
      ],
      "name": "RoleAdminChanged",
      "type": "event"
    },
    {
      "anonymous": false,
      "inputs": [
        {
          "indexed": true,
          "internalType": "bytes32",
          "name": "role",
          "type": "bytes32"
        },
        {
          "indexed": true,
          "internalType": "address",
          "name": "account",
          "type": "address"
        },
        {
          "indexed": true,
          "internalType": "address",
          "name": "sender",
          "type": "address"
        }
      ],
      "name": "RoleGranted",
      "type": "event"
    },
    {
      "anonymous": false,
      "inputs": [
        {
          "indexed": true,
          "internalType": "bytes32",
          "name": "role",
          "type": "bytes32"
        },
        {
          "indexed": true,
          "internalType": "address",
          "name": "account",
          "type": "address"
        },
        {
          "indexed": true,
          "internalType": "address",
          "name": "sender",
          "type": "address"
        }
      ],
      "name": "RoleRevoked",
      "type": "event"
    },
    {
      "inputs": [],
      "name": "DEFAULT_ADMIN_ROLE",
      "outputs": [
        {
          "internalType": "bytes32",
          "name": "",
          "type": "bytes32"
        }
      ],
      "stateMutability": "view",
      "type": "function"
    },
    {
      "inputs": [
        {
          "internalType": "bytes32",
          "name": "role",
          "type": "bytes32"
        }
      ],
      "name": "getRoleAdmin",
      "outputs": [
        {
          "internalType": "bytes32",
          "name": "",
          "type": "bytes32"
        }
      ],
      "stateMutability": "view",
      "type": "function"
    },
    {
      "inputs": [
        {
          "internalType": "bytes32",
          "name": "role",
          "type": "bytes32"
        },
        {
          "internalType": "address",
          "name": "account",
          "type": "address"
        }
      ],
      "name": "grantRole",
      "outputs": [],
      "stateMutability": "nonpayable",
      "type": "function"
    },
    {
      "inputs": [
        {
          "internalType": "bytes32",
          "name": "role",
          "type": "bytes32"
        },
        {
          "internalType": "address",
          "name": "account",
          "type": "address"
        }
      ],
      "name": "hasRole",
      "outputs": [
        {
          "internalType": "bool",
          "name": "",
          "type": "bool"
        }
      ],
      "stateMutability": "view",
      "type": "function"
    },
    {
      "inputs": [
        {
          "internalType": "bytes32",
          "name": "role",
          "type": "bytes32"
        },
        {
          "internalType": "address",
          "name": "account",
          "type": "address"
        }
      ],
      "name": "renounceRole",
      "outputs": [],
      "stateMutability": "nonpayable",
      "type": "function"
    },
    {
      "inputs": [
        {
          "internalType": "bytes32",
          "name": "role",
          "type": "bytes32"
        },
        {
          "internalType": "address",
          "name": "account",
          "type": "address"
        }
      ],
      "name": "revokeRole",
      "outputs": [],
      "stateMutability": "nonpayable",
      "type": "function"
    },
    {
      "inputs": [
        {
          "internalType": "bytes32",
          "name": "",
          "type": "bytes32"
        }
      ],
      "name": "strategyMappingRegistry",
      "outputs": [
        {
          "internalType": "string",
          "name": "topic",
          "type": "string"
        },
        {
          "internalType": "uint256",
          "name": "fee",
          "type": "uint256"
        }
      ],
      "stateMutability": "view",
      "type": "function"
    },
    {
      "inputs": [
        {
          "internalType": "bytes4",
          "name": "interfaceId",
          "type": "bytes4"
        }
      ],
      "name": "supportsInterface",
      "outputs": [
        {
          "internalType": "bool",
          "name": "",
          "type": "bool"
        }
      ],
      "stateMutability": "view",
      "type": "function"
    },
    {
      "inputs": [
        {
          "internalType": "bytes32",
          "name": "strategyId",
          "type": "bytes32"
        },
        {
          "internalType": "uint256",
          "name": "fee",
          "type": "uint256"
        }
      ],
      "name": "setStrategyFee",
      "outputs": [],
      "stateMutability": "nonpayable",
      "type": "function"
    },
    {
      "inputs": [
        {
          "internalType": "bytes32",
          "name": "strategyId",
          "type": "bytes32"
        },
        {
          "internalType": "string",
          "name": "topic",
          "type": "string"
        },
        {
          "internalType": "uint256",
          "name": "fee",
          "type": "uint256"
        }
      ],
      "name": "registerStrategy",
      "outputs": [],
      "stateMutability": "nonpayable",
      "type": "function"
    },
    {
      "inputs": [
        {
          "internalType": "address[]",
          "name": "contractAddresses",
          "type": "address[]"
        },
        {
          "internalType": "bytes32[]",
          "name": "strategyIds",
          "type": "bytes32[]"
        },
        {
          "internalType": "uint256[]",
          "name": "params",
          "type": "uint256[]"
        }
      ],
      "name": "executeStrategy",
      "outputs": [],
      "stateMutability": "nonpayable",
      "type": "function"
    }
  ],
  "bytecode": "0x608060405234801561001057600080fd5b5060018055610ea7806100246000396000f3fe608060405234801561001057600080fd5b50600436106100a95760003560e01c806391d148541161007157806391d14854146101505780639264e7c214610163578063a217fddf14610176578063c31cb9d01461017e578063d547741f14610191578063e4217703146101a457600080fd5b806301ffc9a7146100ae578063248a9ca3146100d65780632f2ff15d1461010757806336568abe1461011c578063390bca361461012f575b600080fd5b6100c16100bc366004610998565b6101b7565b60405190151581526020015b60405180910390f35b6100f96100e43660046109c2565b60009081526020819052604090206001015490565b6040519081526020016100cd565b61011a6101153660046109f7565b6101ee565b005b61011a61012a3660046109f7565b610219565b61014261013d3660046109c2565b61029c565b6040516100cd929190610a7f565b6100c161015e3660046109f7565b610340565b61011a610171366004610aed565b610369565b6100f9600081565b61011a61018c366004610b87565b61053a565b61011a61019f3660046109f7565b6105a1565b61011a6101b2366004610c09565b6105c7565b60006001600160e01b03198216637965db0b60e01b14806101e857506301ffc9a760e01b6001600160e01b03198316145b92915050565b60008281526020819052604090206001015461020a813361060f565b6102148383610673565b505050565b6001600160a01b038116331461028e5760405162461bcd60e51b815260206004820152602f60248201527f416363657373436f6e74726f6c3a2063616e206f6e6c792072656e6f756e636560448201526e103937b632b9903337b91039b2b63360891b60648201526084015b60405180910390fd5b61029882826106f7565b5050565b6002602052600090815260409020805481906102b790610c2b565b80601f01602080910402602001604051908101604052809291908181526020018280546102e390610c2b565b80156103305780601f1061030557610100808354040283529160200191610330565b820191906000526020600020905b81548152906001019060200180831161031357829003601f168201915b5050505050908060010154905082565b6000918252602082815260408084206001600160a01b0393909316845291905290205460ff1690565b600260015414156103bc5760405162461bcd60e51b815260206004820152601f60248201527f5265656e7472616e637947756172643a207265656e7472616e742063616c6c006044820152606401610285565b600260015560005b60ff811686111561052d57600087878360ff168181106103e6576103e6610c66565b90506020020160208101906103fb9190610c7c565b6001600160a01b03166002600088888660ff1681811061041d5761041d610c66565b90506020020135815260200190815260200160002060000185858560ff1681811061044a5761044a610c66565b9050602002013560405160240161046391815260200190565b60408051601f19818403018152908290529161047e91610c97565b60408051918290039091206020830180516001600160e01b03166001600160e01b0319909216919091179052516104b59190610d33565b6000604051808303816000865af19150503d80600081146104f2576040519150601f19603f3d011682016040523d82523d6000602084013e6104f7565b606091505b50509050801561051a576040516305f1795f60e41b815260040160405180910390fd5b508061052581610d65565b9150506103c4565b5050600180555050505050565b6000610546813361060f565b81620186a081111561056b5760405163ac98d7e160e01b815260040160405180910390fd5b60008681526002602052604090206105849086866108ff565b505050600093845260026020526040909320600101929092555050565b6000828152602081905260409020600101546105bd813361060f565b61021483836106f7565b60006105d3813361060f565b81620186a08111156105f85760405163ac98d7e160e01b815260040160405180910390fd5b505060009182526002602052604090912060010155565b6106198282610340565b61029857610631816001600160a01b0316601461075c565b61063c83602061075c565b60405160200161064d929190610d85565b60408051601f198184030181529082905262461bcd60e51b825261028591600401610dfa565b61067d8282610340565b610298576000828152602081815260408083206001600160a01b03851684529091529020805460ff191660011790556106b33390565b6001600160a01b0316816001600160a01b0316837f2f8788117e7eff1d82e926ec794901d17c78024a50270940304540a733656f0d60405160405180910390a45050565b6107018282610340565b15610298576000828152602081815260408083206001600160a01b0385168085529252808320805460ff1916905551339285917ff6391f5c32d9c69d2a47ea670b442974b53935d1edc7fd64eb21e047a839171b9190a45050565b6060600061076b836002610e0d565b610776906002610e2c565b67ffffffffffffffff81111561078e5761078e610e44565b6040519080825280601f01601f1916602001820160405280156107b8576020820181803683370190505b509050600360fc1b816000815181106107d3576107d3610c66565b60200101906001600160f81b031916908160001a905350600f60fb1b8160018151811061080257610802610c66565b60200101906001600160f81b031916908160001a9053506000610826846002610e0d565b610831906001610e2c565b90505b60018111156108a9576f181899199a1a9b1b9c1cb0b131b232b360811b85600f166010811061086557610865610c66565b1a60f81b82828151811061087b5761087b610c66565b60200101906001600160f81b031916908160001a90535060049490941c936108a281610e5a565b9050610834565b5083156108f85760405162461bcd60e51b815260206004820181905260248201527f537472696e67733a20686578206c656e67746820696e73756666696369656e746044820152606401610285565b9392505050565b82805461090b90610c2b565b90600052602060002090601f01602090048101928261092d5760008555610973565b82601f106109465782800160ff19823516178555610973565b82800160010185558215610973579182015b82811115610973578235825591602001919060010190610958565b5061097f929150610983565b5090565b5b8082111561097f5760008155600101610984565b6000602082840312156109aa57600080fd5b81356001600160e01b0319811681146108f857600080fd5b6000602082840312156109d457600080fd5b5035919050565b80356001600160a01b03811681146109f257600080fd5b919050565b60008060408385031215610a0a57600080fd5b82359150610a1a602084016109db565b90509250929050565b60005b83811015610a3e578181015183820152602001610a26565b83811115610a4d576000848401525b50505050565b60008151808452610a6b816020860160208601610a23565b601f01601f19169290920160200192915050565b604081526000610a926040830185610a53565b90508260208301529392505050565b60008083601f840112610ab357600080fd5b50813567ffffffffffffffff811115610acb57600080fd5b6020830191508360208260051b8501011115610ae657600080fd5b9250929050565b60008060008060008060608789031215610b0657600080fd5b863567ffffffffffffffff80821115610b1e57600080fd5b610b2a8a838b01610aa1565b90985096506020890135915080821115610b4357600080fd5b610b4f8a838b01610aa1565b90965094506040890135915080821115610b6857600080fd5b50610b7589828a01610aa1565b979a9699509497509295939492505050565b60008060008060608587031215610b9d57600080fd5b84359350602085013567ffffffffffffffff80821115610bbc57600080fd5b818701915087601f830112610bd057600080fd5b813581811115610bdf57600080fd5b886020828501011115610bf157600080fd5b95986020929092019750949560400135945092505050565b60008060408385031215610c1c57600080fd5b50508035926020909101359150565b600181811c90821680610c3f57607f821691505b60208210811415610c6057634e487b7160e01b600052602260045260246000fd5b50919050565b634e487b7160e01b600052603260045260246000fd5b600060208284031215610c8e57600080fd5b6108f8826109db565b600080835481600182811c915080831680610cb357607f831692505b6020808410821415610cd357634e487b7160e01b86526022600452602486fd5b818015610ce75760018114610cf857610d25565b60ff19861689528489019650610d25565b60008a81526020902060005b86811015610d1d5781548b820152908501908301610d04565b505084890196505b509498975050505050505050565b60008251610d45818460208701610a23565b9190910192915050565b634e487b7160e01b600052601160045260246000fd5b600060ff821660ff811415610d7c57610d7c610d4f565b60010192915050565b7f416363657373436f6e74726f6c3a206163636f756e7420000000000000000000815260008351610dbd816017850160208801610a23565b7001034b99036b4b9b9b4b733903937b6329607d1b6017918401918201528351610dee816028840160208801610a23565b01602801949350505050565b6020815260006108f86020830184610a53565b6000816000190483118215151615610e2757610e27610d4f565b500290565b60008219821115610e3f57610e3f610d4f565b500190565b634e487b7160e01b600052604160045260246000fd5b600081610e6957610e69610d4f565b50600019019056fea264697066735822122049c546fd8a235bddbdf007c8411abcf3f1410d67165caf10213e343f280851ce64736f6c634300080b0033",
  "immutableReferences": {},
  "source": "// SPDX-License-Identifier: AGPL-3.0\n\npragma solidity ^0.8.11;\n\nimport {AccessControl} from '@openzeppelin/contracts/access/AccessControl.sol';\nimport {ReentrancyGuard} from '@openzeppelin/contracts/security/ReentrancyGuard.sol';\nimport {FeeManager} from '../libraries/FeeManager.sol';\n\ncontract StrategyManager is AccessControl, ReentrancyGuard {\n  struct Strategy {\n    string topic;\n    uint256 fee; // 3 decimal place\n  }\n\n  mapping(bytes32 => Strategy) public strategyMappingRegistry;\n\n  // ============== ERROR ==============\n  error FailedStrategyExecution();\n  error InvalidFeeValue();\n\n  // ============== MODIFIER ==============\n  modifier onlyValidFee(uint256 amount) {\n    // If fee exceeds 100%\n    if (amount > 100000) revert InvalidFeeValue();\n    _;\n  }\n\n  function setStrategyFee(bytes32 strategyId, uint256 fee)\n    public\n    onlyRole(DEFAULT_ADMIN_ROLE)\n    onlyValidFee(fee)\n  {\n    strategyMappingRegistry[strategyId].fee = fee;\n  }\n\n  function registerStrategy(\n    bytes32 strategyId,\n    string calldata topic,\n    uint256 fee\n  ) public onlyRole(DEFAULT_ADMIN_ROLE) onlyValidFee(fee) {\n    strategyMappingRegistry[strategyId].topic = topic;\n    strategyMappingRegistry[strategyId].fee = fee;\n  }\n\n  function executeStrategy(\n    address[] calldata contractAddresses,\n    bytes32[] calldata strategyIds,\n    uint256[] calldata params\n  ) public nonReentrant {\n    for (uint8 i = 0; i < contractAddresses.length; i++) {\n      (bool success, ) = contractAddresses[i].call(\n        abi.encodeWithSignature(\n          strategyMappingRegistry[strategyIds[i]].topic,\n          params[i]\n        )\n      );\n      if (success) revert FailedStrategyExecution();\n    }\n  }\n}\n",
  "sourcePath": "/Users/yosephks/Documents/GitHub/alpsfinance-smart-contracts/contracts/defi/StrategyManager.sol",
  "compiler": {
    "name": "solc",
    "version": "0.8.11+commit.d7f03943.Emscripten.clang"
  },
  "schemaVersion": "3.4.6",
  "updatedAt": "2022-07-19T14:25:46.843Z",
  "devdoc": {
    "kind": "dev",
    "methods": {
      "getRoleAdmin(bytes32)": {
        "details": "Returns the admin role that controls `role`. See {grantRole} and {revokeRole}. To change a role's admin, use {_setRoleAdmin}."
      },
      "grantRole(bytes32,address)": {
        "details": "Grants `role` to `account`. If `account` had not been already granted `role`, emits a {RoleGranted} event. Requirements: - the caller must have ``role``'s admin role."
      },
      "hasRole(bytes32,address)": {
        "details": "Returns `true` if `account` has been granted `role`."
      },
      "renounceRole(bytes32,address)": {
        "details": "Revokes `role` from the calling account. Roles are often managed via {grantRole} and {revokeRole}: this function's purpose is to provide a mechanism for accounts to lose their privileges if they are compromised (such as when a trusted device is misplaced). If the calling account had been revoked `role`, emits a {RoleRevoked} event. Requirements: - the caller must be `account`."
      },
      "revokeRole(bytes32,address)": {
        "details": "Revokes `role` from `account`. If `account` had been granted `role`, emits a {RoleRevoked} event. Requirements: - the caller must have ``role``'s admin role."
      },
      "supportsInterface(bytes4)": {
        "details": "See {IERC165-supportsInterface}."
      }
    },
    "version": 1
  },
  "userdoc": {
    "kind": "user",
    "methods": {},
    "version": 1
  }
}