{
  "contractName": "UniswapLiquidityPoolHandler",
  "abi": [
    {
      "inputs": [
        {
          "internalType": "address",
          "name": "factoryUniswapTokenAddress",
          "type": "address"
        },
        {
          "internalType": "address",
          "name": "routerUniswapTokenAddress",
          "type": "address"
        },
        {
          "internalType": "address",
          "name": "multisigAddress",
          "type": "address"
        }
      ],
      "stateMutability": "nonpayable",
      "type": "constructor"
    },
    {
      "inputs": [],
      "name": "InvalidZeroAmount",
      "type": "error"
    },
    {
      "anonymous": false,
      "inputs": [
        {
          "indexed": false,
          "internalType": "address",
          "name": "provider",
          "type": "address"
        },
        {
          "indexed": false,
          "internalType": "uint256",
          "name": "liquidity",
          "type": "uint256"
        },
        {
          "indexed": false,
          "internalType": "uint256",
          "name": "amountAFee",
          "type": "uint256"
        },
        {
          "indexed": false,
          "internalType": "uint256",
          "name": "amountBFee",
          "type": "uint256"
        }
      ],
      "name": "AddLiquidityUniswap",
      "type": "event"
    },
    {
      "anonymous": false,
      "inputs": [
        {
          "indexed": false,
          "internalType": "address",
          "name": "provider",
          "type": "address"
        },
        {
          "indexed": false,
          "internalType": "uint256",
          "name": "claimTokenA",
          "type": "uint256"
        },
        {
          "indexed": false,
          "internalType": "uint256",
          "name": "claimTokenB",
          "type": "uint256"
        },
        {
          "indexed": false,
          "internalType": "uint256",
          "name": "claimTimestamp",
          "type": "uint256"
        }
      ],
      "name": "RemoveLiquidityUniswap",
      "type": "event"
    },
    {
      "inputs": [],
      "name": "FACTORY_UNISWAP_TOKEN",
      "outputs": [
        {
          "internalType": "address",
          "name": "",
          "type": "address"
        }
      ],
      "stateMutability": "view",
      "type": "function"
    },
    {
      "inputs": [],
      "name": "MULTISIG_WALLET",
      "outputs": [
        {
          "internalType": "address",
          "name": "",
          "type": "address"
        }
      ],
      "stateMutability": "view",
      "type": "function"
    },
    {
      "inputs": [],
      "name": "ROUTER_UNISWAP_TOKEN",
      "outputs": [
        {
          "internalType": "address",
          "name": "",
          "type": "address"
        }
      ],
      "stateMutability": "view",
      "type": "function"
    },
    {
      "inputs": [
        {
          "internalType": "address",
          "name": "tokenA",
          "type": "address"
        },
        {
          "internalType": "address",
          "name": "tokenB",
          "type": "address"
        },
        {
          "internalType": "uint256",
          "name": "amountADesired",
          "type": "uint256"
        },
        {
          "internalType": "uint256",
          "name": "amountBDesired",
          "type": "uint256"
        }
      ],
      "name": "addLiquidity",
      "outputs": [],
      "stateMutability": "nonpayable",
      "type": "function"
    },
    {
      "inputs": [
        {
          "internalType": "address",
          "name": "tokenA",
          "type": "address"
        },
        {
          "internalType": "address",
          "name": "tokenB",
          "type": "address"
        },
        {
          "internalType": "uint256",
          "name": "amountADesired",
          "type": "uint256"
        },
        {
          "internalType": "uint256",
          "name": "amountBDesired",
          "type": "uint256"
        },
        {
          "internalType": "uint8",
          "name": "v",
          "type": "uint8"
        },
        {
          "internalType": "bytes32",
          "name": "r",
          "type": "bytes32"
        },
        {
          "internalType": "bytes32",
          "name": "s",
          "type": "bytes32"
        }
      ],
      "name": "addLiquidityWithPermit",
      "outputs": [],
      "stateMutability": "nonpayable",
      "type": "function"
    },
    {
      "inputs": [
        {
          "internalType": "address",
          "name": "tokenA",
          "type": "address"
        },
        {
          "internalType": "address",
          "name": "tokenB",
          "type": "address"
        },
        {
          "internalType": "uint256",
          "name": "liquidity",
          "type": "uint256"
        },
        {
          "internalType": "uint256",
          "name": "amountAMin",
          "type": "uint256"
        },
        {
          "internalType": "uint256",
          "name": "amountBMin",
          "type": "uint256"
        }
      ],
      "name": "removeLiquidity",
      "outputs": [],
      "stateMutability": "nonpayable",
      "type": "function"
    },
    {
      "inputs": [
        {
          "internalType": "address",
          "name": "tokenA",
          "type": "address"
        },
        {
          "internalType": "address",
          "name": "tokenB",
          "type": "address"
        },
        {
          "internalType": "uint256",
          "name": "liquidity",
          "type": "uint256"
        },
        {
          "internalType": "uint8",
          "name": "v",
          "type": "uint8"
        },
        {
          "internalType": "bytes32",
          "name": "r",
          "type": "bytes32"
        },
        {
          "internalType": "bytes32",
          "name": "s",
          "type": "bytes32"
        }
      ],
      "name": "removeLiquidityWithPermit",
      "outputs": [],
      "stateMutability": "nonpayable",
      "type": "function"
    }
  ],
  "bytecode": "0x608060405234801561001057600080fd5b50604051610f96380380610f9683398101604081905261002f9161008d565b600080546001600160a01b039485166001600160a01b0319918216179091556001805493851693821693909317909255600280549190931691161790556100d0565b80516001600160a01b038116811461008857600080fd5b919050565b6000806000606084860312156100a257600080fd5b6100ab84610071565b92506100b960208501610071565b91506100c760408501610071565b90509250925092565b610eb7806100df6000396000f3fe608060405234801561001057600080fd5b506004361061007d5760003560e01c80638208d70f1161005b5780638208d70f146100d9578063cf6c62ea146100ec578063d939ef9a146100ff578063e2dc85dc1461011257600080fd5b80632ea2a01c146100825780634b2beae8146100975780637bfef9ee146100c6575b600080fd5b610095610090366004610b57565b610125565b005b6000546100aa906001600160a01b031681565b6040516001600160a01b03909116815260200160405180910390f35b6002546100aa906001600160a01b031681565b6001546100aa906001600160a01b031681565b6100956100fa366004610bc5565b61026c565b61009561010d366004610c0b565b6102c4565b610095610120366004610c6e565b6103bb565b846000811161014757604051630dd484e760e41b815260040160405180910390fd5b846000811161016957604051630dd484e760e41b815260040160405180910390fd5b6001600160a01b03891663d505accf33308a61018742610384610cd5565b8a8a8a6040518863ffffffff1660e01b81526004016101ac9796959493929190610ced565b600060405180830381600087803b1580156101c657600080fd5b505af11580156101da573d6000803e3d6000fd5b50505050876001600160a01b031663d505accf333089426103846101fe9190610cd5565b8a8a8a6040518863ffffffff1660e01b81526004016102239796959493929190610ced565b600060405180830381600087803b15801561023d57600080fd5b505af1158015610251573d6000803e3d6000fd5b50505050610261898989896103ea565b505050505050505050565b816000811161028e57604051630dd484e760e41b815260040160405180910390fd5b81600081116102b057604051630dd484e760e41b815260040160405180910390fd5b6102bc868686866103ea565b505050505050565b6000805460405163e6a4390560e01b81526001600160a01b03898116600483015288811660248301529091169063e6a4390590604401602060405180830381865afa158015610317573d6000803e3d6000fd5b505050506040513d601f19601f8201168201806040525081019061033b9190610d2e565b90506001600160a01b03811663d505accf33308861035b42610384610cd5565b8989896040518863ffffffff1660e01b81526004016103809796959493929190610ced565b600060405180830381600087803b15801561039a57600080fd5b505af11580156103ae573d6000803e3d6000fd5b5050505050505050505050565b82600081116103dd57604051630dd484e760e41b815260040160405180910390fd5b6102bc868686868661078b565b6040516323b872dd60e01b8152336004820152306024820152604481018390526001600160a01b038516906323b872dd906064016020604051808303816000875af115801561043d573d6000803e3d6000fd5b505050506040513d601f19601f820116820180604052508101906104619190610d4b565b506040516323b872dd60e01b8152336004820152306024820152604481018290526001600160a01b038416906323b872dd906064016020604051808303816000875af11580156104b5573d6000803e3d6000fd5b505050506040513d601f19601f820116820180604052508101906104d99190610d4b565b5060006104e8836103e8610b0a565b905060006104f8836103e8610b0a565b60015460405163095ea7b360e01b81526001600160a01b0391821660048201526024810187905291925087169063095ea7b3906044016020604051808303816000875af115801561054d573d6000803e3d6000fd5b505050506040513d601f19601f820116820180604052508101906105719190610d4b565b5060015460405163095ea7b360e01b81526001600160a01b039182166004820152602481018590529086169063095ea7b3906044016020604051808303816000875af11580156105c5573d6000803e3d6000fd5b505050506040513d601f19601f820116820180604052508101906105e99190610d4b565b506001546000906001600160a01b031663e8e33700888861060a8988610b1d565b6106148988610b1d565b61061e8b8a610b1d565b6106288b8a610b1d565b3361063542610384610cd5565b6040518963ffffffff1660e01b8152600401610658989796959493929190610d6d565b6060604051808303816000875af1158015610677573d6000803e3d6000fd5b505050506040513d601f19601f8201168201806040525081019061069b9190610db6565b6001546002549194506001600160a01b03908116935063e8e3370092508a918a918891889183918391166106d142610384610cd5565b6040518963ffffffff1660e01b81526004016106f4989796959493929190610d6d565b6060604051808303816000875af1158015610713573d6000803e3d6000fd5b505050506040513d601f19601f820116820180604052508101906107379190610db6565b50506040805133815260208101849052908101859052606081018490527f6b14793b764cd8490ce47e9e37e9f6fc53b69516081af8068cc0fa453fdd2677915060800160405180910390a150505050505050565b6000805460405163e6a4390560e01b81526001600160a01b03888116600483015287811660248301529091169063e6a4390590604401602060405180830381865afa1580156107de573d6000803e3d6000fd5b505050506040513d601f19601f820116820180604052508101906108029190610d2e565b6040516323b872dd60e01b8152336004820152306024820152604481018690529091506001600160a01b038216906323b872dd906064016020604051808303816000875af1158015610858573d6000803e3d6000fd5b505050506040513d601f19601f8201168201806040525081019061087c9190610d4b565b50600061088b856103e8610b0a565b60015460405163095ea7b360e01b81526001600160a01b0391821660048201526024810188905291925083169063095ea7b3906044016020604051808303816000875af11580156108e0573d6000803e3d6000fd5b505050506040513d601f19601f820116820180604052508101906109049190610d4b565b5060015460405163095ea7b360e01b81526001600160a01b039182166004820152602481018390529083169063095ea7b3906044016020604051808303816000875af1158015610958573d6000803e3d6000fd5b505050506040513d601f19601f8201168201806040525081019061097c9190610d4b565b5060015460009081906001600160a01b031663baa2abde8a8a8a8a8a336109a542610384610cd5565b6040518863ffffffff1660e01b81526004016109c79796959493929190610de4565b60408051808303816000875af11580156109e5573d6000803e3d6000fd5b505050506040513d601f19601f82011682018060405250810190610a099190610e24565b60015491935091506001600160a01b031663baa2abde8a8a86610a2e8b6103e8610b0a565b610a3a8b6103e8610b0a565b6002546001600160a01b0316610a5242610384610cd5565b6040518863ffffffff1660e01b8152600401610a749796959493929190610de4565b60408051808303816000875af1158015610a92573d6000803e3d6000fd5b505050506040513d601f19601f82011682018060405250810190610ab69190610e24565b505060408051338152602081018490529081018290524260608201527f3cefa74f137a2d439a317266a941f1e80733c069bdeb6782c511df5ee07412f79060800160405180910390a1505050505050505050565b6000610b168284610e48565b9392505050565b6000610b168284610e6a565b6001600160a01b0381168114610b3e57600080fd5b50565b803560ff81168114610b5257600080fd5b919050565b600080600080600080600060e0888a031215610b7257600080fd5b8735610b7d81610b29565b96506020880135610b8d81610b29565b95506040880135945060608801359350610ba960808901610b41565b925060a0880135915060c0880135905092959891949750929550565b60008060008060808587031215610bdb57600080fd5b8435610be681610b29565b93506020850135610bf681610b29565b93969395505050506040820135916060013590565b60008060008060008060c08789031215610c2457600080fd5b8635610c2f81610b29565b95506020870135610c3f81610b29565b945060408701359350610c5460608801610b41565b92506080870135915060a087013590509295509295509295565b600080600080600060a08688031215610c8657600080fd5b8535610c9181610b29565b94506020860135610ca181610b29565b94979496505050506040830135926060810135926080909101359150565b634e487b7160e01b600052601160045260246000fd5b60008219821115610ce857610ce8610cbf565b500190565b6001600160a01b0397881681529590961660208601526040850193909352606084019190915260ff16608083015260a082015260c081019190915260e00190565b600060208284031215610d4057600080fd5b8151610b1681610b29565b600060208284031215610d5d57600080fd5b81518015158114610b1657600080fd5b6001600160a01b039889168152968816602088015260408701959095526060860193909352608085019190915260a084015290921660c082015260e08101919091526101000190565b600080600060608486031215610dcb57600080fd5b8351925060208401519150604084015190509250925092565b6001600160a01b039788168152958716602087015260408601949094526060850192909252608084015290921660a082015260c081019190915260e00190565b60008060408385031215610e3757600080fd5b505080516020909101519092909150565b600082610e6557634e487b7160e01b600052601260045260246000fd5b500490565b600082821015610e7c57610e7c610cbf565b50039056fea2646970667358221220a0736ac360c26c235d71da4fa1d004a5e7694222d74b96f6b8d3d777fe6fea6a64736f6c634300080b0033",
  "immutableReferences": {},
  "source": "// SPDX-License-Identifier: AGPL-3.0\n\npragma solidity ^0.8.11;\n\nimport {IERC20} from \"@openzeppelin/contracts/token/ERC20/IERC20.sol\";\nimport {IERC20Permit} from \"@openzeppelin/contracts/token/ERC20/extensions/draft-IERC20Permit.sol\";\nimport {SafeMath} from \"@openzeppelin/contracts/utils/math/SafeMath.sol\";\nimport {IUniswapV2Router02} from \"../interfaces/IUniswapV2Router02.sol\";\nimport {IUniswapV2Factory} from \"../interfaces/IUniswapV2Factory.sol\";\n\ncontract UniswapLiquidityPoolHandler {\n  using SafeMath for uint256;\n\n  address public FACTORY_UNISWAP_TOKEN;\n  address public ROUTER_UNISWAP_TOKEN;\n  address public MULTISIG_WALLET;\n\n  // ============== EVENT ==============\n  event AddLiquidityUniswap(\n    address provider,\n    uint256 liquidity,\n    uint256 amountAFee,\n    uint256 amountBFee\n  );\n  event RemoveLiquidityUniswap(\n    address provider,\n    uint256 claimTokenA,\n    uint256 claimTokenB,\n    uint256 claimTimestamp\n  );\n\n  // ============== ERROR ==============\n  error InvalidZeroAmount();\n\n  // ============== MODIFIER ==============\n  modifier onlyValidAmount(uint256 amount) {\n    if (amount <= 0) revert InvalidZeroAmount();\n    _;\n  }\n\n  constructor(\n    address factoryUniswapTokenAddress,\n    address routerUniswapTokenAddress,\n    address multisigAddress\n  ) {\n    FACTORY_UNISWAP_TOKEN = factoryUniswapTokenAddress;\n    ROUTER_UNISWAP_TOKEN = routerUniswapTokenAddress;\n    MULTISIG_WALLET = multisigAddress;\n  }\n\n  function addLiquidity(\n    address tokenA,\n    address tokenB,\n    uint256 amountADesired,\n    uint256 amountBDesired\n  ) external onlyValidAmount(amountADesired) onlyValidAmount(amountBDesired) {\n    _addLiquidity(tokenA, tokenB, amountADesired, amountBDesired);\n  }\n\n  function addLiquidityWithPermit(\n    address tokenA,\n    address tokenB,\n    uint256 amountADesired,\n    uint256 amountBDesired,\n    uint8 v,\n    bytes32 r,\n    bytes32 s\n  ) external onlyValidAmount(amountADesired) onlyValidAmount(amountBDesired) {\n    IERC20Permit(tokenA).permit(\n      msg.sender,\n      address(this),\n      amountADesired,\n      block.timestamp + 15 minutes,\n      v,\n      r,\n      s\n    );\n    IERC20Permit(tokenB).permit(\n      msg.sender,\n      address(this),\n      amountBDesired,\n      block.timestamp + 15 minutes,\n      v,\n      r,\n      s\n    );\n    _addLiquidity(tokenA, tokenB, amountADesired, amountBDesired);\n  }\n\n  function removeLiquidity(\n    address tokenA,\n    address tokenB,\n    uint256 liquidity,\n    uint256 amountAMin,\n    uint256 amountBMin\n  ) external onlyValidAmount(liquidity) {\n    _removeLiquidity(tokenA, tokenB, liquidity, amountAMin, amountBMin);\n  }\n\n  function removeLiquidityWithPermit(\n    address tokenA,\n    address tokenB,\n    uint256 liquidity,\n    uint8 v,\n    bytes32 r,\n    bytes32 s\n  ) external {\n    address pair = IUniswapV2Factory(FACTORY_UNISWAP_TOKEN).getPair(\n      tokenA,\n      tokenB\n    );\n    IERC20Permit(pair).permit(\n      msg.sender,\n      address(this),\n      liquidity,\n      block.timestamp + 15 minutes,\n      v,\n      r,\n      s\n    );\n  }\n\n  // ==================== INTERNAL FUNCTIONS ====================\n\n  function _addLiquidity(\n    address tokenA,\n    address tokenB,\n    uint256 amountADesired,\n    uint256 amountBDesired\n  ) internal {\n    IERC20(tokenA).transferFrom(msg.sender, address(this), amountADesired);\n    IERC20(tokenB).transferFrom(msg.sender, address(this), amountBDesired);\n\n    // Add Liquidity to Uniswap\n    uint256 amountAFee = SafeMath.div(amountADesired, 1000); // 0.1% fee\n    uint256 amountBFee = SafeMath.div(amountBDesired, 1000); // 0.1% fee\n\n    IERC20(tokenA).approve(ROUTER_UNISWAP_TOKEN, amountADesired);\n    IERC20(tokenB).approve(ROUTER_UNISWAP_TOKEN, amountBDesired);\n\n    (, , uint256 liquidity) = IUniswapV2Router02(ROUTER_UNISWAP_TOKEN)\n      .addLiquidity(\n        tokenA,\n        tokenB,\n        SafeMath.sub(amountADesired, amountAFee),\n        SafeMath.sub(amountBDesired, amountBFee),\n        SafeMath.sub(amountADesired, amountAFee),\n        SafeMath.sub(amountBDesired, amountBFee),\n        msg.sender,\n        block.timestamp + 15 minutes\n      );\n\n    IUniswapV2Router02(ROUTER_UNISWAP_TOKEN).addLiquidity(\n      tokenA,\n      tokenB,\n      amountAFee,\n      amountBFee,\n      amountAFee,\n      amountBFee,\n      MULTISIG_WALLET,\n      block.timestamp + 15 minutes\n    );\n\n    emit AddLiquidityUniswap(msg.sender, liquidity, amountAFee, amountBFee);\n  }\n\n  function _removeLiquidity(\n    address tokenA,\n    address tokenB,\n    uint256 liquidity,\n    uint256 amountAMin,\n    uint256 amountBMin\n  ) internal {\n    address pair = IUniswapV2Factory(FACTORY_UNISWAP_TOKEN).getPair(\n      tokenA,\n      tokenB\n    );\n    IERC20(pair).transferFrom(msg.sender, address(this), liquidity);\n\n    // Remove Liquidity to Uniswap\n    uint256 liquidityFee = SafeMath.div(liquidity, 1000); // 0.1% fee\n\n    IERC20(pair).approve(ROUTER_UNISWAP_TOKEN, liquidity);\n    IERC20(pair).approve(ROUTER_UNISWAP_TOKEN, liquidityFee);\n    (uint256 amountA, uint256 amountB) = IUniswapV2Router02(\n      ROUTER_UNISWAP_TOKEN\n    ).removeLiquidity(\n        tokenA,\n        tokenB,\n        liquidity,\n        amountAMin,\n        amountBMin,\n        msg.sender,\n        block.timestamp + 15 minutes\n      );\n    IUniswapV2Router02(ROUTER_UNISWAP_TOKEN).removeLiquidity(\n      tokenA,\n      tokenB,\n      liquidityFee,\n      SafeMath.div(amountAMin, 1000),\n      SafeMath.div(amountBMin, 1000),\n      MULTISIG_WALLET,\n      block.timestamp + 15 minutes\n    );\n\n    emit RemoveLiquidityUniswap(msg.sender, amountA, amountB, block.timestamp);\n  }\n}\n",
  "sourcePath": "/Users/yosephks/Documents/GitHub/alpsfinance-smart-contracts/contracts/defi/uniswap/v2/UniswapLiquidityPoolHandler.sol",
  "compiler": {
    "name": "solc",
    "version": "0.8.11+commit.d7f03943.Emscripten.clang"
  },
  "schemaVersion": "3.4.6",
  "updatedAt": "2022-07-19T13:41:57.418Z",
  "devdoc": {
    "kind": "dev",
    "methods": {},
    "version": 1
  },
  "userdoc": {
    "kind": "user",
    "methods": {},
    "version": 1
  }
}