{
  "contractName": "VestingBase",
  "abi": [
    {
      "inputs": [
        {
          "internalType": "uint256",
          "name": "_minPeriod",
          "type": "uint256"
        },
        {
          "internalType": "uint256",
          "name": "_withdrawalCap",
          "type": "uint256"
        },
        {
          "internalType": "contract ERC20",
          "name": "_vestingCoin",
          "type": "address"
        },
        {
          "internalType": "enum FrequencyHelper.Frequency",
          "name": "_withdrawalFrequency",
          "type": "uint8"
        }
      ],
      "stateMutability": "nonpayable",
      "type": "constructor"
    },
    {
      "anonymous": false,
      "inputs": [
        {
          "indexed": true,
          "internalType": "address",
          "name": "_address",
          "type": "address"
        },
        {
          "indexed": false,
          "internalType": "string",
          "name": "_memberName",
          "type": "string"
        },
        {
          "indexed": false,
          "internalType": "uint256",
          "name": "_amount",
          "type": "uint256"
        },
        {
          "indexed": false,
          "internalType": "uint256",
          "name": "_releaseOn",
          "type": "uint256"
        }
      ],
      "name": "AllocationCreated",
      "type": "event"
    },
    {
      "anonymous": false,
      "inputs": [
        {
          "indexed": true,
          "internalType": "address",
          "name": "_address",
          "type": "address"
        },
        {
          "indexed": false,
          "internalType": "string",
          "name": "_memberName",
          "type": "string"
        },
        {
          "indexed": false,
          "internalType": "uint256",
          "name": "_amount",
          "type": "uint256"
        },
        {
          "indexed": false,
          "internalType": "uint256",
          "name": "_lessAmount",
          "type": "uint256"
        }
      ],
      "name": "AllocationDecreased",
      "type": "event"
    },
    {
      "anonymous": false,
      "inputs": [
        {
          "indexed": true,
          "internalType": "address",
          "name": "_address",
          "type": "address"
        },
        {
          "indexed": false,
          "internalType": "string",
          "name": "_memberName",
          "type": "string"
        },
        {
          "indexed": false,
          "internalType": "uint256",
          "name": "_amount",
          "type": "uint256"
        }
      ],
      "name": "AllocationDeleted",
      "type": "event"
    },
    {
      "anonymous": false,
      "inputs": [
        {
          "indexed": true,
          "internalType": "address",
          "name": "_address",
          "type": "address"
        },
        {
          "indexed": false,
          "internalType": "string",
          "name": "_memberName",
          "type": "string"
        },
        {
          "indexed": false,
          "internalType": "uint256",
          "name": "_amount",
          "type": "uint256"
        },
        {
          "indexed": false,
          "internalType": "uint256",
          "name": "_additionalAmount",
          "type": "uint256"
        }
      ],
      "name": "AllocationIncreased",
      "type": "event"
    },
    {
      "anonymous": false,
      "inputs": [
        {
          "indexed": true,
          "internalType": "address",
          "name": "_address",
          "type": "address"
        },
        {
          "indexed": false,
          "internalType": "uint256",
          "name": "_amount",
          "type": "uint256"
        },
        {
          "indexed": false,
          "internalType": "uint256",
          "name": "_remainingInPool",
          "type": "uint256"
        }
      ],
      "name": "FundRemoved",
      "type": "event"
    },
    {
      "anonymous": false,
      "inputs": [
        {
          "indexed": true,
          "internalType": "address",
          "name": "_funder",
          "type": "address"
        },
        {
          "indexed": false,
          "internalType": "uint256",
          "name": "_amount",
          "type": "uint256"
        },
        {
          "indexed": false,
          "internalType": "uint256",
          "name": "_previousCap",
          "type": "uint256"
        },
        {
          "indexed": false,
          "internalType": "uint256",
          "name": "_newCap",
          "type": "uint256"
        }
      ],
      "name": "Funded",
      "type": "event"
    },
    {
      "anonymous": false,
      "inputs": [
        {
          "indexed": true,
          "internalType": "address",
          "name": "previousOwner",
          "type": "address"
        },
        {
          "indexed": true,
          "internalType": "address",
          "name": "newOwner",
          "type": "address"
        }
      ],
      "name": "OwnershipTransferred",
      "type": "event"
    },
    {
      "anonymous": false,
      "inputs": [
        {
          "indexed": false,
          "internalType": "address",
          "name": "account",
          "type": "address"
        }
      ],
      "name": "Paused",
      "type": "event"
    },
    {
      "anonymous": false,
      "inputs": [
        {
          "indexed": true,
          "internalType": "address",
          "name": "_address",
          "type": "address"
        },
        {
          "indexed": false,
          "internalType": "string",
          "name": "_memberName",
          "type": "string"
        },
        {
          "indexed": false,
          "internalType": "uint256",
          "name": "_releaseOn",
          "type": "uint256"
        },
        {
          "indexed": false,
          "internalType": "uint256",
          "name": "_newReleaseDate",
          "type": "uint256"
        }
      ],
      "name": "ScheduleExtended",
      "type": "event"
    },
    {
      "anonymous": false,
      "inputs": [
        {
          "indexed": false,
          "internalType": "address",
          "name": "account",
          "type": "address"
        }
      ],
      "name": "Unpaused",
      "type": "event"
    },
    {
      "anonymous": false,
      "inputs": [
        {
          "indexed": true,
          "internalType": "address",
          "name": "_address",
          "type": "address"
        },
        {
          "indexed": false,
          "internalType": "string",
          "name": "_memberName",
          "type": "string"
        },
        {
          "indexed": false,
          "internalType": "uint256",
          "name": "_amount",
          "type": "uint256"
        }
      ],
      "name": "Withdrawn",
      "type": "event"
    },
    {
      "inputs": [],
      "name": "earliestWithdrawalDate",
      "outputs": [
        {
          "internalType": "uint256",
          "name": "",
          "type": "uint256"
        }
      ],
      "stateMutability": "view",
      "type": "function"
    },
    {
      "inputs": [],
      "name": "minimumVestingPeriod",
      "outputs": [
        {
          "internalType": "uint256",
          "name": "",
          "type": "uint256"
        }
      ],
      "stateMutability": "view",
      "type": "function"
    },
    {
      "inputs": [],
      "name": "owner",
      "outputs": [
        {
          "internalType": "address",
          "name": "",
          "type": "address"
        }
      ],
      "stateMutability": "view",
      "type": "function"
    },
    {
      "inputs": [],
      "name": "paused",
      "outputs": [
        {
          "internalType": "bool",
          "name": "",
          "type": "bool"
        }
      ],
      "stateMutability": "view",
      "type": "function"
    },
    {
      "inputs": [],
      "name": "renounceOwnership",
      "outputs": [],
      "stateMutability": "nonpayable",
      "type": "function"
    },
    {
      "inputs": [],
      "name": "totalVested",
      "outputs": [
        {
          "internalType": "uint256",
          "name": "",
          "type": "uint256"
        }
      ],
      "stateMutability": "view",
      "type": "function"
    },
    {
      "inputs": [],
      "name": "totalWithdrawn",
      "outputs": [
        {
          "internalType": "uint256",
          "name": "",
          "type": "uint256"
        }
      ],
      "stateMutability": "view",
      "type": "function"
    },
    {
      "inputs": [
        {
          "internalType": "address",
          "name": "newOwner",
          "type": "address"
        }
      ],
      "name": "transferOwnership",
      "outputs": [],
      "stateMutability": "nonpayable",
      "type": "function"
    },
    {
      "inputs": [],
      "name": "vestingCoin",
      "outputs": [
        {
          "internalType": "contract ERC20",
          "name": "",
          "type": "address"
        }
      ],
      "stateMutability": "view",
      "type": "function"
    },
    {
      "inputs": [],
      "name": "vestingStartedOn",
      "outputs": [
        {
          "internalType": "uint256",
          "name": "",
          "type": "uint256"
        }
      ],
      "stateMutability": "view",
      "type": "function"
    },
    {
      "inputs": [],
      "name": "withdrawalCap",
      "outputs": [
        {
          "internalType": "uint256",
          "name": "",
          "type": "uint256"
        }
      ],
      "stateMutability": "view",
      "type": "function"
    },
    {
      "inputs": [],
      "name": "withdrawalFrequency",
      "outputs": [
        {
          "internalType": "uint256",
          "name": "",
          "type": "uint256"
        }
      ],
      "stateMutability": "view",
      "type": "function"
    },
    {
      "inputs": [],
      "name": "getAvailableFunds",
      "outputs": [
        {
          "internalType": "uint256",
          "name": "",
          "type": "uint256"
        }
      ],
      "stateMutability": "view",
      "type": "function"
    },
    {
      "inputs": [],
      "name": "getAmountInVesting",
      "outputs": [
        {
          "internalType": "uint256",
          "name": "",
          "type": "uint256"
        }
      ],
      "stateMutability": "view",
      "type": "function"
    },
    {
      "inputs": [],
      "name": "fund",
      "outputs": [
        {
          "internalType": "bool",
          "name": "",
          "type": "bool"
        }
      ],
      "stateMutability": "nonpayable",
      "type": "function"
    },
    {
      "inputs": [
        {
          "internalType": "uint256",
          "name": "_amount",
          "type": "uint256"
        }
      ],
      "name": "removeFunds",
      "outputs": [
        {
          "internalType": "bool",
          "name": "",
          "type": "bool"
        }
      ],
      "stateMutability": "nonpayable",
      "type": "function"
    },
    {
      "inputs": [
        {
          "internalType": "address",
          "name": "_address",
          "type": "address"
        },
        {
          "internalType": "string",
          "name": "_memberName",
          "type": "string"
        },
        {
          "internalType": "uint256",
          "name": "_amount",
          "type": "uint256"
        },
        {
          "internalType": "uint256",
          "name": "_releaseOn",
          "type": "uint256"
        }
      ],
      "name": "createAllocation",
      "outputs": [
        {
          "internalType": "bool",
          "name": "",
          "type": "bool"
        }
      ],
      "stateMutability": "nonpayable",
      "type": "function"
    },
    {
      "inputs": [
        {
          "internalType": "address",
          "name": "_address",
          "type": "address"
        }
      ],
      "name": "deleteAllocation",
      "outputs": [
        {
          "internalType": "bool",
          "name": "",
          "type": "bool"
        }
      ],
      "stateMutability": "nonpayable",
      "type": "function"
    },
    {
      "inputs": [
        {
          "internalType": "address",
          "name": "_address",
          "type": "address"
        },
        {
          "internalType": "uint256",
          "name": "_additionalAmount",
          "type": "uint256"
        }
      ],
      "name": "increaseAllocation",
      "outputs": [
        {
          "internalType": "bool",
          "name": "",
          "type": "bool"
        }
      ],
      "stateMutability": "nonpayable",
      "type": "function"
    },
    {
      "inputs": [
        {
          "internalType": "address",
          "name": "_address",
          "type": "address"
        },
        {
          "internalType": "uint256",
          "name": "_lessAmount",
          "type": "uint256"
        }
      ],
      "name": "decreaseAllocation",
      "outputs": [
        {
          "internalType": "bool",
          "name": "",
          "type": "bool"
        }
      ],
      "stateMutability": "nonpayable",
      "type": "function"
    },
    {
      "inputs": [
        {
          "internalType": "address",
          "name": "_address",
          "type": "address"
        },
        {
          "internalType": "uint256",
          "name": "_newReleaseDate",
          "type": "uint256"
        }
      ],
      "name": "extendAllocation",
      "outputs": [
        {
          "internalType": "bool",
          "name": "",
          "type": "bool"
        }
      ],
      "stateMutability": "nonpayable",
      "type": "function"
    },
    {
      "inputs": [
        {
          "internalType": "address",
          "name": "_address",
          "type": "address"
        }
      ],
      "name": "getDrawingPower",
      "outputs": [
        {
          "internalType": "uint256",
          "name": "",
          "type": "uint256"
        }
      ],
      "stateMutability": "view",
      "type": "function"
    },
    {
      "inputs": [
        {
          "internalType": "address",
          "name": "_address",
          "type": "address"
        }
      ],
      "name": "getAllocation",
      "outputs": [
        {
          "internalType": "uint256",
          "name": "_startedOn",
          "type": "uint256"
        },
        {
          "internalType": "string",
          "name": "_memberName",
          "type": "string"
        },
        {
          "internalType": "uint256",
          "name": "_releaseOn",
          "type": "uint256"
        },
        {
          "internalType": "uint256",
          "name": "_allocation",
          "type": "uint256"
        },
        {
          "internalType": "uint256",
          "name": "_closingBalance",
          "type": "uint256"
        },
        {
          "internalType": "uint256",
          "name": "_withdrawn",
          "type": "uint256"
        },
        {
          "internalType": "uint256",
          "name": "_lastWithdrawnOn",
          "type": "uint256"
        },
        {
          "internalType": "bool",
          "name": "_deleted",
          "type": "bool"
        }
      ],
      "stateMutability": "view",
      "type": "function"
    },
    {
      "inputs": [
        {
          "internalType": "uint256",
          "name": "_amount",
          "type": "uint256"
        }
      ],
      "name": "withdraw",
      "outputs": [
        {
          "internalType": "bool",
          "name": "pass",
          "type": "bool"
        }
      ],
      "stateMutability": "nonpayable",
      "type": "function"
    }
  ],
  "bytecode": "0x60806040523480156200001157600080fd5b50604051620023113803806200231183398101604081905262000034916200021e565b6200003f33620000bd565b6000805460ff60a01b191690556004849055426003819055600880546001600160a01b0319166001600160a01b03851617905560018490556200008f90856200010d602090811b620018b617901c565b6005558215620000b357620000af816200012260201b620018c91760201c565b6002555b50505050620002ba565b600080546001600160a01b038381166001600160a01b0319831681178455604051919092169283917f8be0079c531659141344cd1fd0a4f28419497f9722a3daafe3b4186f6b6457e09190a35050565b60006200011b82846200027d565b9392505050565b6000808260068111156200013a576200013a620002a4565b14156200014b575062015180919050565b6001826006811115620001625762000162620002a4565b141562000173575062093a80919050565b60028260068111156200018a576200018a620002a4565b14156200019b57506213c680919050565b6003826006811115620001b257620001b2620002a4565b1415620001c3575062278d00919050565b6004826006811115620001da57620001da620002a4565b1415620001eb57506277f880919050565b6005826006811115620002025762000202620002a4565b141562000213575062eff100919050565b506301e13380919050565b600080600080608085870312156200023557600080fd5b84516020860151604087015191955093506001600160a01b03811681146200025c57600080fd5b6060860151909250600781106200027257600080fd5b939692955090935050565b600082198211156200029f57634e487b7160e01b600052601160045260246000fd5b500190565b634e487b7160e01b600052602160045260246000fd5b61204780620002ca6000396000f3fe608060405234801561001057600080fd5b50600436106101585760003560e01c8063706250c8116100c3578063a065b0bd1161007c578063a065b0bd146102a1578063b60d4288146102b4578063dba61ab7146102bc578063e4353ad6146102c4578063f2fde38b146102d7578063fad36ece146102ea57600080fd5b8063706250c814610244578063715018a61461024d57806378ee3af6146102575780638971611c146102605780638da5cb5b14610269578063936bf9781461028e57600080fd5b80633792bab4116101155780633792bab4146101fc5780634713a044146102055780634b3197131461020e578063517b4912146102175780635195bd291461022a5780635c975abb1461023257600080fd5b80630715a0b41461015d5780630e02292314610185578063158a774d146101ac578063199cbc54146101bf5780632e1a7d4d146101d65780632f384523146101e9575b600080fd5b61017061016b366004611ac5565b6102fd565b60405190151581526020015b60405180910390f35b610198610193366004611aef565b610572565b60405161017c989796959493929190611b57565b6101706101ba366004611ac5565b610746565b6101c860065481565b60405190815260200161017c565b6101706101e4366004611ba6565b61093e565b6101706101f7366004611ba6565b610c94565b6101c860025481565b6101c860035481565b6101c860075481565b610170610225366004611bd5565b610e31565b6101c861110f565b600054600160a01b900460ff16610170565b6101c860045481565b610255611181565b005b6101c860055481565b6101c860015481565b6000546001600160a01b03165b6040516001600160a01b03909116815260200161017c565b61017061029c366004611ac5565b6111b7565b600854610276906001600160a01b031681565b6101706113ba565b6101c861157f565b6101c86102d2366004611aef565b611598565b6102556102e5366004611aef565b611676565b6101706102f8366004611aef565b611711565b600080546001600160a01b031633146103315760405162461bcd60e51b815260040161032890611ca7565b60405180910390fd5b6001600160a01b0383166103575760405162461bcd60e51b815260040161032890611cdc565b6001600160a01b03831660009081526009602052604090206001015461038f5760405162461bcd60e51b815260040161032890611d06565b6001600160a01b03831660009081526009602052604090206005015460ff16156103cb5760405162461bcd60e51b815260040161032890611d06565b6001600160a01b038316600090815260096020526040902060020154421061045b5760405162461bcd60e51b815260206004820152603c60248201527f4163636573732069732064656e6965642e205468652076657374696e6720736360448201527f686564756c652077617320616c72656164792072656c65617365642e000000006064820152608401610328565b6001600160a01b03831660009081526009602052604090206002015482116105085760405162461bcd60e51b815260206004820152605460248201527f4163636573732069732064656e6965642e20596f752063616e20616c736f206560448201527f7874656e64207468652072656c65617365206461746520627574206e6f74207460648201527334329037ba3432b9103bb0bc9030b937bab7321760611b608482015260a401610328565b6001600160a01b038316600081815260096020526040908190206002810180549086905591519192917f48e5c889579453e84d06f5962fd80461fe15c76d7b30530d52d1ae5617571a76916105609185908890611e3e565b60405180910390a25060019392505050565b6001600160a01b0381166000908152600960205260408120600181015481549092606092909182918291829182918291906105ac90611d63565b80601f01602080910402602001604051908101604052809291908181526020018280546105d890611d63565b80156106255780601f106105fa57610100808354040283529160200191610625565b820191906000526020600020905b81548152906001019060200180831161060857829003601f168201915b50505050509650600960008a6001600160a01b03166001600160a01b03168152602001908152602001600020600201549550600960008a6001600160a01b03166001600160a01b03168152602001908152602001600020600301549450600960008a6001600160a01b03166001600160a01b03168152602001908152602001600020600401549350600960008a6001600160a01b03166001600160a01b03168152602001908152602001600020600601549250600960008a6001600160a01b03166001600160a01b03168152602001908152602001600020600701549150600960008a6001600160a01b03166001600160a01b0316815260200190815260200160002060050160009054906101000a900460ff169050919395975091939597565b600080546001600160a01b031633146107715760405162461bcd60e51b815260040161032890611ca7565b6001600160a01b0383166107975760405162461bcd60e51b815260040161032890611cdc565b600082116107a457600080fd5b6001600160a01b0383166000908152600960205260409020600101546107dc5760405162461bcd60e51b815260040161032890611d06565b6001600160a01b03831660009081526009602052604090206005015460ff16156108185760405162461bcd60e51b815260040161032890611d06565b6001600160a01b0383166000908152600960205260409020600401548211156108535760405162461bcd60e51b815260040161032890611e63565b6001600160a01b03831660009081526009602052604090206003015461087990836119ad565b6001600160a01b03841660009081526009602052604090206003810191909155600401546108a790836119ad565b6001600160a01b0384166000908152600960205260409020600401556006546108d090836119ad565b6006556001600160a01b038316600081815260096020526040902060038101547ffefe834c14ff63083c08dce2085888585b19e1b43198dde06d97a38a8379f21d919061091d90866118b6565b8560405161092d93929190611e3e565b60405180910390a250600192915050565b33600090815260096020526040812060010154829061096f5760405162461bcd60e51b815260040161032890611d06565b3360009081526009602052604090206005015460ff16156109a25760405162461bcd60e51b815260040161032890611d06565b33600090815260096020526040902060020154421015610a3d5760405162461bcd60e51b815260206004820152604a60248201527f4163636573732069732064656e6965642e20596f7520617265206e6f7420616c60448201527f6c6f77656420746f207769746864726177206265666f7265207468652072656c60648201526932b0b9b2903230ba329760b11b608482015260a401610328565b33600090815260096020526040902060040154811115610a6f5760405162461bcd60e51b815260040161032890611e63565b6000610a7a33611598565b60015490915015610c8d5781811015610afb5760405162461bcd60e51b815260206004820152603f60248201527f4163636573732069732064656e6965642e20546865207265717565737465642060448201527f616d6f756e74206578636565647320796f757220616c6c6f636174696f6e2e006064820152608401610328565b600554421015610b0a57600080fd5b600054600160a01b900460ff1615610b575760405162461bcd60e51b815260206004820152601060248201526f14185d5cd8589b194e881c185d5cd95960821b6044820152606401610328565b33600090815260096020526040902042600782015560040154610b7a90856119ad565b336000908152600960205260409020600481019190915560060154610b9f90856118b6565b33600090815260096020526040902060060155600754610bbf90856118b6565b60075560085460405163a9059cbb60e01b8152336004820152602481018690526001600160a01b039091169063a9059cbb906044016020604051808303816000875af1158015610c13573d6000803e3d6000fd5b505050506040513d601f19601f82011682018060405250810190610c379190611ea8565b610c4057600080fd5b336000818152600960205260409081902090517f18af30a54a1951aeee806c16cdcb8d087ed1a095f0d9a87261b92cef2c6cc92d91610c80918890611eca565b60405180910390a2600192505b5050919050565b600080546001600160a01b03163314610cbf5760405162461bcd60e51b815260040161032890611ca7565b6008546040516370a0823160e01b81523060048201526000916001600160a01b0316906370a0823190602401602060405180830381865afa158015610d08573d6000803e3d6000fd5b505050506040513d601f19601f82011682018060405250810190610d2c9190611eec565b90506000610d3861157f565b9050808211610d4657600080fd5b6000610d528284611f1b565b905084811015610d6157600080fd5b60085460405163a9059cbb60e01b8152336004820152602481018790526001600160a01b039091169063a9059cbb906044016020604051808303816000875af1158015610db2573d6000803e3d6000fd5b505050506040513d601f19601f82011682018060405250810190610dd69190611ea8565b610ddf57600080fd5b337f2d2c22b12ce2c4142ec672b74a307ec23572019efd8c9a930a8fc19f0fcd6c8686610e0c84826119ad565b6040805192835260208301919091520160405180910390a2600193505050505b919050565b600080546001600160a01b03163314610e5c5760405162461bcd60e51b815260040161032890611ca7565b6001600160a01b038516610e825760405162461bcd60e51b815260040161032890611cdc565b60008311610ec45760405162461bcd60e51b815260206004820152600f60248201526e24b73b30b634b21030b6b7bab73a1760891b6044820152606401610328565b6001600160a01b03851660009081526009602052604090206001015415610f385760405162461bcd60e51b815260206004820152602260248201527f4163636573732069732064656e6965642e204475706c696361746520656e74726044820152613c9760f11b6064820152608401610328565b600554821015610fb05760405162461bcd60e51b815260206004820152603960248201527f4163636573732069732064656e6965642e20506c65617365207370656369667960448201527f2061206c6f6e6765722076657374696e6720706572696f642e000000000000006064820152608401610328565b610fc283610fbc61157f565b906118b6565b610fca61110f565b1015610fe85760405162461bcd60e51b815260040161032890611f32565b6040805161010081018252858152426020808301919091528183018590526060820186905260808201869052600060a0830181905260c0830181905260e083018190526001600160a01b0389168152600982529290922081518051929391926110549284920190611a15565b506020820151600182015560408201516002820155606082015160038201556080820151600482015560a082015160058201805460ff191691151591909117905560c082015160068083019190915560e090920151600790910155546110ba90846118b6565b6006556040516001600160a01b038616907f31dde06dd1e0aaacd2d32511680629725c65c6048e70ece46b47a9eb210a5b16906110fc90879087908790611f8f565b60405180910390a2506001949350505050565b6008546040516370a0823160e01b81523060048201526000916001600160a01b0316906370a0823190602401602060405180830381865afa158015611158573d6000803e3d6000fd5b505050506040513d601f19601f8201168201806040525081019061117c9190611eec565b905090565b6000546001600160a01b031633146111ab5760405162461bcd60e51b815260040161032890611ca7565b6111b560006119b9565b565b600080546001600160a01b031633146111e25760405162461bcd60e51b815260040161032890611ca7565b6001600160a01b0383166112085760405162461bcd60e51b815260040161032890611cdc565b6000821161124a5760405162461bcd60e51b815260206004820152600f60248201526e24b73b30b634b21030b6b7bab73a1760891b6044820152606401610328565b6001600160a01b0383166000908152600960205260409020600101546112825760405162461bcd60e51b815260040161032890611d06565b6001600160a01b03831660009081526009602052604090206005015460ff16156112be5760405162461bcd60e51b815260040161032890611d06565b6112ca82610fbc61157f565b6112d261110f565b10156112f05760405162461bcd60e51b815260040161032890611f32565b6001600160a01b03831660009081526009602052604090206003015461131690836118b6565b6001600160a01b038416600090815260096020526040902060038101919091556004015461134490836118b6565b6001600160a01b03841660009081526009602052604090206004015560065461136d90836118b6565b6006556001600160a01b038316600081815260096020526040902060038101547f2cebdff48fce81ce1759871451e83228bc810bd79ee76f0c03f101e1ec152a07919061091d90866119ad565b600080546001600160a01b031633146113e55760405162461bcd60e51b815260040161032890611ca7565b600854604051636eb1769f60e11b81523360048201523060248201526000916001600160a01b03169063dd62ed3e90604401602060405180830381865afa158015611434573d6000803e3d6000fd5b505050506040513d601f19601f820116820180604052508101906114589190611eec565b90506000811161149d5760405162461bcd60e51b815260206004820152601060248201526f2737ba3434b733903a3790333ab7321760811b6044820152606401610328565b60006114a761110f565b6008546040516323b872dd60e01b8152336004820152306024820152604481018590529192506001600160a01b0316906323b872dd906064016020604051808303816000875af11580156114ff573d6000803e3d6000fd5b505050506040513d601f19601f820116820180604052508101906115239190611ea8565b61152c57600080fd5b337f26b27e83d0b82c44eb17d6f11776a8c600332d2ed7d9febfe585848bcfadf52d838361155861110f565b6040805193845260208401929092529082015260600160405180910390a260019250505090565b600061117c6007546006546119ad90919063ffffffff16565b6000600154600014156115ad57506000919050565b6001600160a01b0382166000908152600960205260408120600201546115d39042611f1b565b905060006115ec60025483611a0990919063ffffffff16565b6115f7906001611fa2565b90506000600154826116099190611fba565b6001600160a01b0386166000908152600960205260408120600301549192509082116116355781611652565b6001600160a01b0386166000908152600960205260409020600301545b9050600061166b600754836119ad90919063ffffffff16565b979650505050505050565b6000546001600160a01b031633146116a05760405162461bcd60e51b815260040161032890611ca7565b6001600160a01b0381166117055760405162461bcd60e51b815260206004820152602660248201527f4f776e61626c653a206e6577206f776e657220697320746865207a65726f206160448201526564647265737360d01b6064820152608401610328565b61170e816119b9565b50565b600080546001600160a01b0316331461173c5760405162461bcd60e51b815260040161032890611ca7565b6001600160a01b0382166117625760405162461bcd60e51b815260040161032890611cdc565b6001600160a01b03821660009081526009602052604090206001015461179a5760405162461bcd60e51b815260040161032890611d06565b6001600160a01b03821660009081526009602052604090206005015460ff16156117d65760405162461bcd60e51b815260040161032890611d06565b6001600160a01b038216600090815260096020526040812060038101546004820154600690920154909261180a83836119ad565b905061181684826119ad565b6001600160a01b038716600090815260096020526040812060038101929092556004820155600501805460ff1916600117905560065461185690826119ad565b6006556001600160a01b0386166000818152600960205260409081902090517f47370478829f2a02d88c41aa352cafd9e19a623634304cc8b26d9b2cd8564a65916118a2918590611eca565b60405180910390a250600195945050505050565b60006118c28284611fa2565b9392505050565b6000808260068111156118de576118de611fd9565b14156118ee575062015180919050565b600182600681111561190257611902611fd9565b1415611912575062093a80919050565b600282600681111561192657611926611fd9565b141561193657506213c680919050565b600382600681111561194a5761194a611fd9565b141561195a575062278d00919050565b600482600681111561196e5761196e611fd9565b141561197e57506277f880919050565b600582600681111561199257611992611fd9565b14156119a2575062eff100919050565b506301e13380919050565b60006118c28284611f1b565b600080546001600160a01b038381166001600160a01b0319831681178455604051919092169283917f8be0079c531659141344cd1fd0a4f28419497f9722a3daafe3b4186f6b6457e09190a35050565b60006118c28284611fef565b828054611a2190611d63565b90600052602060002090601f016020900481019282611a435760008555611a89565b82601f10611a5c57805160ff1916838001178555611a89565b82800160010185558215611a89579182015b82811115611a89578251825591602001919060010190611a6e565b50611a95929150611a99565b5090565b5b80821115611a955760008155600101611a9a565b80356001600160a01b0381168114610e2c57600080fd5b60008060408385031215611ad857600080fd5b611ae183611aae565b946020939093013593505050565b600060208284031215611b0157600080fd5b6118c282611aae565b6000815180845260005b81811015611b3057602081850181015186830182015201611b14565b81811115611b42576000602083870101525b50601f01601f19169290920160200192915050565b60006101008a8352806020840152611b718184018b611b0a565b604084019990995250506060810195909552608085019390935260a084019190915260c0830152151560e09091015292915050565b600060208284031215611bb857600080fd5b5035919050565b634e487b7160e01b600052604160045260246000fd5b60008060008060808587031215611beb57600080fd5b611bf485611aae565b9350602085013567ffffffffffffffff80821115611c1157600080fd5b818701915087601f830112611c2557600080fd5b813581811115611c3757611c37611bbf565b604051601f8201601f19908116603f01168101908382118183101715611c5f57611c5f611bbf565b816040528281528a6020848701011115611c7857600080fd5b826020860160208301376000928101602001929092525095989597505050506040840135936060013592915050565b6020808252818101527f4f776e61626c653a2063616c6c6572206973206e6f7420746865206f776e6572604082015260600190565b60208082526010908201526f24b73b30b634b21030b2323932b9b99760811b604082015260600190565b6020808252603c908201527f4163636573732069732064656e6965642e20526571756573746564207665737460408201527f696e67207363686564756c6520646f6573206e6f742065786973742e00000000606082015260800190565b600181811c90821680611d7757607f821691505b60208210811415611d9857634e487b7160e01b600052602260045260246000fd5b50919050565b8054600090600181811c9080831680611db857607f831692505b6020808410821415611dda57634e487b7160e01b600052602260045260246000fd5b83885260208801828015611df55760018114611e0657611e31565b60ff19871682528282019750611e31565b60008981526020902060005b87811015611e2b57815484820152908601908401611e12565b83019850505b5050505050505092915050565b606081526000611e516060830186611d9e565b60208301949094525060400152919050565b60208082526025908201527f4163636573732069732064656e6965642e20496e73756666696369656e7420666040820152643ab732399760d91b606082015260800190565b600060208284031215611eba57600080fd5b815180151581146118c257600080fd5b604081526000611edd6040830185611d9e565b90508260208301529392505050565b600060208284031215611efe57600080fd5b5051919050565b634e487b7160e01b600052601160045260246000fd5b600082821015611f2d57611f2d611f05565b500390565b6020808252603d908201527f4163636573732069732064656e6965642e20496e73756666696369656e74206260408201527f616c616e63652c2076657374696e67206361702065786365656465642e000000606082015260800190565b606081526000611e516060830186611b0a565b60008219821115611fb557611fb5611f05565b500190565b6000816000190483118215151615611fd457611fd4611f05565b500290565b634e487b7160e01b600052602160045260246000fd5b60008261200c57634e487b7160e01b600052601260045260246000fd5b50049056fea264697066735822122090d192eef0f514492cfa847a8b3f85e11480637ab50e9a35654af21c5812b84064736f6c634300080b0033",
  "immutableReferences": {},
  "source": "// SPDX-License-Identifier: AGPL-3.0\npragma solidity ^0.8.11;\n\n\nimport \"@openzeppelin/contracts/token/ERC20/IERC20.sol\";\nimport \"@openzeppelin/contracts/utils/math/SafeMath.sol\";\nimport \"@openzeppelin/contracts/token/ERC20/ERC20.sol\";\nimport \"@openzeppelin/contracts/security/Pausable.sol\";\nimport \"@openzeppelin/contracts/access/Ownable.sol\";\n\nimport \"../libraries/frequencyHelper.sol\";\n\n/**\n * @title Vesting\n * @dev A token holder contract that can release its token balance gradually like a\n * typical vesting scheme, vesting period. Optionally revocable by the\n * creator.\n */\ncontract VestingBase is Ownable ,Pausable {\n  using SafeMath for uint256;\n \n\n  ///@dev Token allocation structure for vesting.\n    struct Allocation {\n        string  memberName;\n        uint256 startedOn;\n        uint256 releaseOn;\n        uint256 allocation;\n        uint256 closingBalance;\n        bool deleted;\n        uint256 withdrawn;\n        uint256 lastWithdrawnOn;\n    }\n\n\n    ///@notice Maximum amount of tokens that can be withdrawn for the specified frequency.\n    ///Zero means that there's no cap;\n    uint256 public withdrawalCap;\n\n    ///@notice The frequency of token withdrawals. If the withdrawalCap is zero, this variable is ignored.\n    uint256 public withdrawalFrequency;\n\n    ///@notice The date on which the vesting was started. \n    uint256 public vestingStartedOn;\n\n    ///@notice The minimum period of vesting.\n    uint256 public minimumVestingPeriod;\n\n    ///@notice The earliest date on which the vested tokens can be redeemed.\n    uint256 public earliestWithdrawalDate;\n\n    ///@notice The sum total amount of tokens vested for all allocations.\n    uint256 public totalVested;\n\n    ///@notice The sum total amount of tokens withdrawn from all allocations.\n    uint256 public totalWithdrawn;\n\n    ///@notice The ERC20 contract of the coin being vested.\n    ERC20 public vestingCoin;\n\n    ///@notice The list of vesting schedule allocations;\n    mapping(address => Allocation) internal allocations;\n\n\n///Events;\n    event Funded(address indexed _funder, uint256 _amount, uint256 _previousCap, uint256 _newCap);\n    event FundRemoved(address indexed _address, uint256 _amount, uint256 _remainingInPool);\n    event Withdrawn(address indexed _address, string _memberName, uint256 _amount);\n\n\n    event AllocationCreated(address indexed _address, string _memberName, uint256 _amount, uint256 _releaseOn);\n    event AllocationDeleted(address indexed _address, string _memberName, uint256 _amount);\n    event AllocationIncreased(address indexed _address, string _memberName, uint256 _amount, uint256 _additionalAmount);\n    event AllocationDecreased(address indexed _address, string _memberName, uint256 _amount, uint256 _lessAmount);\n    event ScheduleExtended(address indexed _address, string _memberName, uint256 _releaseOn, uint256 _newReleaseDate);\n\n\n     ///@notice Constructs this contract\n    ///@param _minPeriod The minimum vesting period.\n    ///@param _withdrawalCap Maximum amount of tokens that can be withdrawn for the specified frequency.\n    ///@param _withdrawalFrequency The frequency of token withdrawals. If the _withdrawalCap is zero, this variable is ignored.\n    ///@param _vestingCoin The ERC20 contract of the coin being vested.\n\n\n     constructor(uint256 _minPeriod, uint256 _withdrawalCap, ERC20 _vestingCoin,  FrequencyHelper.Frequency _withdrawalFrequency)  {\n        minimumVestingPeriod = _minPeriod;\n        vestingStartedOn = block.timestamp;\n        vestingCoin = _vestingCoin;\n        withdrawalCap = _withdrawalCap;\n\n        ///Calcualate the earliest date of withdrawal.\n        earliestWithdrawalDate = vestingStartedOn.add(minimumVestingPeriod);\n\n          if(_withdrawalCap > 0){\n            withdrawalFrequency = FrequencyHelper.convertFrequency(_withdrawalFrequency);\n        }\n    }\n\n\n    ///@notice The balance of this smart contract. \n    ///@return Returns the closing balance of vesting coin held by this contract.\n    function getAvailableFunds() public view returns(uint256) {\n        return vestingCoin.balanceOf(address(this));\n    }\n\n      function getAmountInVesting() public view returns(uint256) {\n        return totalVested.sub(totalWithdrawn);\n    }\n\n    ///@notice Signifies that the action is only possible \n    ///after the earliest withdrawal date of the vesting contract.\n modifier afterEarliestWithdrawalDate {\n        require(block.timestamp >= earliestWithdrawalDate);\n        \n        _;\n    }\n\n    ///@notice Enables this vesting contract to receive the ERC20 (vesting coin).\n    ///Before calling this function please approve your desired amount of the coin\n    ///for this smart contract address.\n    ///Please note that this action is restricted to administrators only.\n    ///@return Returns true if the funding was successful.\n    function fund() external onlyOwner returns(bool) {\n        ///Check the funds available.\n        uint256 allowance = vestingCoin.allowance(msg.sender, address(this));\n        require(allowance > 0, \"Nothing to fund.\");\n   \n        ///Get the current allocation.\n        uint256 current = getAvailableFunds();\n                \n        require(vestingCoin.transferFrom(msg.sender, address(this), allowance));\n\n        emit Funded(msg.sender, allowance, current, getAvailableFunds());\n        return true;\n    }\n\n\n     ///@notice Allows you to withdraw the surplus balance of the vesting coin from this contract.\n    ///Please note that this action is restricted to administrators only\n    ///and you may only withdraw amounts above the sum total allocation balances.\n    ///@param _amount The amount desired to withdraw.\n    ///@return Returns true if the withdrawal was successful.\n    function removeFunds(uint256 _amount) external onlyOwner returns(bool) {        \n        uint256 balance = vestingCoin.balanceOf(address(this));\n        uint256 locked = getAmountInVesting();\n\n        require(balance > locked);\n\n        uint256 available = balance - locked;\n\n        require(available >= _amount);\n        \n        require(vestingCoin.transfer(msg.sender, _amount));\n\n        emit FundRemoved(msg.sender, _amount, available.sub(_amount));\n        return true;\n    }\n\n     ///@notice Creates a vesting schedule allocation for a new beneficiary.\n    ///A beneficiary could mean founders, employees, or advisors.\n    ///Please note that this action can only be performed by an administrator.\n    ///@param _address The address which will receive the tokens in the future date.\n    ///@param _memberName The name of the candidate for which this vesting schedule allocation is being created for.\n    ///@param _amount The total amount of tokens being vested over the period of vesting duration.\n    ///@param _releaseOn The date on which the first vesting schedule becomes available for withdrawal.\n    ///@return Returns true if the vesting schedule allocation was successfully created.\n\n       function createAllocation(address _address, string memory _memberName, uint256 _amount, uint256 _releaseOn) external onlyOwner returns(bool) {\n        require(_address != address(0), \"Invalid address.\");\n        require(_amount > 0, \"Invalid amount.\");\n        require(allocations[_address].startedOn == 0, \"Access is denied. Duplicate entry.\");\n        require(_releaseOn >= earliestWithdrawalDate, \"Access is denied. Please specify a longer vesting period.\");\n        require(getAvailableFunds() >= getAmountInVesting().add(_amount), \"Access is denied. Insufficient balance, vesting cap exceeded.\");\n        \n        allocations[_address] = Allocation({ \n            startedOn: block.timestamp,\n            memberName: _memberName,\n            releaseOn: _releaseOn,\n            allocation: _amount,\n            closingBalance: _amount,\n            deleted: false,\n            withdrawn: 0,\n            lastWithdrawnOn: 0\n        });\n        \n        totalVested = totalVested.add(_amount);\n\n        emit AllocationCreated(_address, _memberName, _amount, _releaseOn);\n        return true;\n    }\n\n\n    ///@notice Deletes the specified vesting schedule allocation.\n    ///Please note that this action can only be performed by an administrator.\n    ///@param _address The address of the beneficiary whose allocation is being requested to be deleted.\n    ///@return Returns true if the vesting schedule allocation was successfully deleted.\n     function deleteAllocation(address _address) external onlyOwner returns(bool) {\n        require(_address != address(0), \"Invalid address.\");\n        require(allocations[_address].startedOn > 0, \"Access is denied. Requested vesting schedule does not exist.\");\n        require(!allocations[_address].deleted, \"Access is denied. Requested vesting schedule does not exist.\");\n\n        uint256 allocation = allocations[_address].allocation;\n        uint256 previousBalance = allocations[_address].closingBalance;\n        uint256 withdrawn = allocations[_address].withdrawn;\n        uint256 lessAmount = previousBalance.sub(withdrawn);\n\n        allocations[_address].allocation = allocation.sub(lessAmount);\n        allocations[_address].closingBalance = 0;\n        allocations[_address].deleted = true;\n        \n        totalVested = totalVested.sub(lessAmount);\n\n        emit AllocationDeleted(_address, allocations[_address].memberName, lessAmount);\n        return true;\n    }\n\n\n\n ///@notice Increases the total allocation of the specified vesting schedule.\n    ///Please note that this action can only be performed by an administrator.\n    ///@param _address The address of the beneficiary whose allocation is being requested to be increased.\n    ///@param _additionalAmount The additional amount in vesting coin to be addeded to the existing allocation.\n    ///@return Returns true if the vesting schedule allocation was successfully increased.\n    function increaseAllocation(address _address, uint256 _additionalAmount) external onlyOwner returns(bool) {\n        require(_address != address(0), \"Invalid address.\");\n        require(_additionalAmount > 0, \"Invalid amount.\");\n\n        require(allocations[_address].startedOn > 0, \"Access is denied. Requested vesting schedule does not exist.\");\n        require(!allocations[_address].deleted, \"Access is denied. Requested vesting schedule does not exist.\");\n\n        require(getAvailableFunds() >= getAmountInVesting().add(_additionalAmount), \"Access is denied. Insufficient balance, vesting cap exceeded.\");\n\n        allocations[_address].allocation = allocations[_address].allocation.add(_additionalAmount);\n        allocations[_address].closingBalance = allocations[_address].closingBalance.add(_additionalAmount);\n\n        totalVested = totalVested.add(_additionalAmount);\n\n        emit AllocationIncreased(_address, allocations[_address].memberName, allocations[_address].allocation.sub(_additionalAmount), _additionalAmount);\n        return true;\n    }\n\n     ///@notice Decreases the total allocation of the specified vesting schedule.\n    ///Please note that this action can only be performed by an administrator.\n    ///@param _address The address of the beneficiary whose allocation is being requested to be decreased.\n    ///@param _lessAmount The amount in vesting coin to be decreased from the existing allocation.\n    ///@return Returns true if the vesting schedule allocation was successfully decreased.\n    function decreaseAllocation(address _address, uint256 _lessAmount) external onlyOwner returns(bool) {\n        require(_address != address(0), \"Invalid address.\");\n        require(_lessAmount > 0);\n\n        require(allocations[_address].startedOn > 0, \"Access is denied. Requested vesting schedule does not exist.\");\n        require(!allocations[_address].deleted, \"Access is denied. Requested vesting schedule does not exist.\");\n        require(allocations[_address].closingBalance >= _lessAmount, \"Access is denied. Insufficient funds.\");\n\n        allocations[_address].allocation = allocations[_address].allocation.sub(_lessAmount);\n        allocations[_address].closingBalance = allocations[_address].closingBalance.sub(_lessAmount);\n        \n        totalVested = totalVested.sub(_lessAmount);\n\n        emit AllocationDecreased(_address, allocations[_address].memberName, allocations[_address].allocation.add(_lessAmount), _lessAmount);\n        return true;\n    }\n\n    ///@notice Extends the release date of the specified vesting schedule allocation.\n    ///Please note that this action can only be performed by an administrator.\n    ///@param _address The address of the beneficiary who allocation is being requested to be extended.\n    ///@param _newReleaseDate A new release date to extend the allocation to.\n    ///@return Returns true if the vesting schedule allocation was successfully extended.\n    function extendAllocation(address _address, uint256 _newReleaseDate) external onlyOwner returns(bool) {\n        require(_address != address(0), \"Invalid address.\");\n        require(allocations[_address].startedOn > 0, \"Access is denied. Requested vesting schedule does not exist.\");\n        require(!allocations[_address].deleted, \"Access is denied. Requested vesting schedule does not exist.\");\n        require (block.timestamp < allocations[_address].releaseOn, \"Access is denied. The vesting schedule was already released.\");\n        require(_newReleaseDate > allocations[_address].releaseOn, \"Access is denied. You can also extend the release date but not the other way around.\");        \n        \n\n        uint256 previousReleaseDate = allocations[_address].releaseOn;\n        allocations[_address].releaseOn = _newReleaseDate;\n\n        emit ScheduleExtended(_address, allocations[_address].memberName, previousReleaseDate, _newReleaseDate);\n        return true;\n    }\n    \n    ///@notice Gets the drawing power of the beneficiary.\n    ///@param _address The address to check the drawing power of.\n    ///@return Returns the amount in vesting coin that can be withdrawn.\n    function getDrawingPower(address _address) public view returns(uint256) {\n        if(withdrawalCap == 0){\n            return 0;\n        }\n        \n        uint256 duration = block.timestamp - allocations[_address].releaseOn;\n        uint256 cycles = 1 + (duration.div(withdrawalFrequency));\n\n        uint256 amount = cycles * withdrawalCap;\n        uint256 cap = amount > allocations[_address].allocation ? allocations[_address].allocation : amount;\n        uint256 drawingPower = cap.sub(totalWithdrawn);\n\n        return drawingPower;\n    }\n\n    function getAllocation(address _address) external view returns(uint256 _startedOn, string memory _memberName, uint256 _releaseOn, uint256 _allocation, uint256 _closingBalance, uint256 _withdrawn, uint256 _lastWithdrawnOn, bool _deleted) {\n        _startedOn  = allocations[_address].startedOn;\n        _memberName = allocations[_address].memberName;\n        _releaseOn = allocations[_address].releaseOn;\n        _allocation = allocations[_address].allocation;\n        _closingBalance = allocations[_address].closingBalance;\n        _withdrawn = allocations[_address].withdrawn;\n        _lastWithdrawnOn = allocations[_address].lastWithdrawnOn;\n        _deleted = allocations[_address].deleted;\n    }\n    \n    ///@notice Signifies if the sender has enough balances to withdraw the desired amount of the vesting coin.\n    ///@param _amount The amount desired to be withdrawn.\n    modifier canWithdraw(uint256 _amount)  {\n        require(allocations[msg.sender].startedOn > 0, \"Access is denied. Requested vesting schedule does not exist.\");\n        require(!allocations[msg.sender].deleted, \"Access is denied. Requested vesting schedule does not exist.\");\n        require(block.timestamp >= allocations[msg.sender].releaseOn, \"Access is denied. You are not allowed to withdraw before the release date.\");\n        require(allocations[msg.sender].closingBalance >= _amount, \"Access is denied. Insufficient funds.\");\n        \n        uint256 drawingPower = getDrawingPower(msg.sender);\n\n        ///Zero means unlimited amount.\n        ///We've already verified above that the investor has sufficient balance.\n        if(withdrawalCap > 0){\n            require(drawingPower >= _amount, \"Access is denied. The requested amount exceeds your allocation.\");\n            _;\n        }\n    }\n\n    ///@notice This action enables the beneficiaries to withdraw a desired amount from this contract.    \n    ///@param _amount The amount in vesting coin desired to withdraw.\n    function withdraw(uint256 _amount) external canWithdraw(_amount) afterEarliestWithdrawalDate whenNotPaused returns(bool pass ) {                        \n        allocations[msg.sender].lastWithdrawnOn = block.timestamp;\n\n        allocations[msg.sender].closingBalance = allocations[msg.sender].closingBalance.sub(_amount);\n        allocations[msg.sender].withdrawn = allocations[msg.sender].withdrawn.add(_amount);\n\n        totalWithdrawn = totalWithdrawn.add(_amount);\n\n        require(vestingCoin.transfer(msg.sender, _amount));\n\n        emit Withdrawn(msg.sender, allocations[msg.sender].memberName, _amount);\n       \n        return true ;\n    }\n}",
  "sourcePath": "C:\\Users\\user\\Desktop\\alpsfinance-smart-contracts\\contracts\\Vesting\\VestingBase.sol",
  "compiler": {
    "name": "solc",
    "version": "0.8.11+commit.d7f03943.Emscripten.clang"
  },
  "schemaVersion": "3.4.5",
  "updatedAt": "2022-03-11T16:28:34.691Z",
  "devdoc": {
    "details": "A token holder contract that can release its token balance gradually like a typical vesting scheme, vesting period. Optionally revocable by the creator.",
    "kind": "dev",
    "methods": {
      "constructor": {
        "params": {
          "_minPeriod": "The minimum vesting period.",
          "_vestingCoin": "The ERC20 contract of the coin being vested.",
          "_withdrawalCap": "Maximum amount of tokens that can be withdrawn for the specified frequency.",
          "_withdrawalFrequency": "The frequency of token withdrawals. If the _withdrawalCap is zero, this variable is ignored."
        }
      },
      "createAllocation(address,string,uint256,uint256)": {
        "params": {
          "_address": "The address which will receive the tokens in the future date.",
          "_amount": "The total amount of tokens being vested over the period of vesting duration.",
          "_memberName": "The name of the candidate for which this vesting schedule allocation is being created for.",
          "_releaseOn": "The date on which the first vesting schedule becomes available for withdrawal."
        },
        "returns": {
          "_0": "Returns true if the vesting schedule allocation was successfully created."
        }
      },
      "decreaseAllocation(address,uint256)": {
        "params": {
          "_address": "The address of the beneficiary whose allocation is being requested to be decreased.",
          "_lessAmount": "The amount in vesting coin to be decreased from the existing allocation."
        },
        "returns": {
          "_0": "Returns true if the vesting schedule allocation was successfully decreased."
        }
      },
      "deleteAllocation(address)": {
        "params": {
          "_address": "The address of the beneficiary whose allocation is being requested to be deleted."
        },
        "returns": {
          "_0": "Returns true if the vesting schedule allocation was successfully deleted."
        }
      },
      "extendAllocation(address,uint256)": {
        "params": {
          "_address": "The address of the beneficiary who allocation is being requested to be extended.",
          "_newReleaseDate": "A new release date to extend the allocation to."
        },
        "returns": {
          "_0": "Returns true if the vesting schedule allocation was successfully extended."
        }
      },
      "fund()": {
        "returns": {
          "_0": "Returns true if the funding was successful."
        }
      },
      "getAvailableFunds()": {
        "returns": {
          "_0": "Returns the closing balance of vesting coin held by this contract."
        }
      },
      "getDrawingPower(address)": {
        "params": {
          "_address": "The address to check the drawing power of."
        },
        "returns": {
          "_0": "Returns the amount in vesting coin that can be withdrawn."
        }
      },
      "increaseAllocation(address,uint256)": {
        "params": {
          "_additionalAmount": "The additional amount in vesting coin to be addeded to the existing allocation.",
          "_address": "The address of the beneficiary whose allocation is being requested to be increased."
        },
        "returns": {
          "_0": "Returns true if the vesting schedule allocation was successfully increased."
        }
      },
      "owner()": {
        "details": "Returns the address of the current owner."
      },
      "paused()": {
        "details": "Returns true if the contract is paused, and false otherwise."
      },
      "removeFunds(uint256)": {
        "params": {
          "_amount": "The amount desired to withdraw."
        },
        "returns": {
          "_0": "Returns true if the withdrawal was successful."
        }
      },
      "renounceOwnership()": {
        "details": "Leaves the contract without owner. It will not be possible to call `onlyOwner` functions anymore. Can only be called by the current owner. NOTE: Renouncing ownership will leave the contract without an owner, thereby removing any functionality that is only available to the owner."
      },
      "transferOwnership(address)": {
        "details": "Transfers ownership of the contract to a new account (`newOwner`). Can only be called by the current owner."
      },
      "withdraw(uint256)": {
        "params": {
          "_amount": "The amount in vesting coin desired to withdraw."
        }
      }
    },
    "title": "Vesting",
    "version": 1
  },
  "userdoc": {
    "events": {
      "Funded(address,uint256,uint256,uint256)": {
        "notice": "Events;"
      }
    },
    "kind": "user",
    "methods": {
      "constructor": {
        "notice": "Constructs this contract"
      },
      "createAllocation(address,string,uint256,uint256)": {
        "notice": "Creates a vesting schedule allocation for a new beneficiary. A beneficiary could mean founders, employees, or advisors. Please note that this action can only be performed by an administrator."
      },
      "decreaseAllocation(address,uint256)": {
        "notice": "Decreases the total allocation of the specified vesting schedule. Please note that this action can only be performed by an administrator."
      },
      "deleteAllocation(address)": {
        "notice": "Deletes the specified vesting schedule allocation. Please note that this action can only be performed by an administrator."
      },
      "earliestWithdrawalDate()": {
        "notice": "The earliest date on which the vested tokens can be redeemed."
      },
      "extendAllocation(address,uint256)": {
        "notice": "Extends the release date of the specified vesting schedule allocation. Please note that this action can only be performed by an administrator."
      },
      "fund()": {
        "notice": "Enables this vesting contract to receive the ERC20 (vesting coin). Before calling this function please approve your desired amount of the coin for this smart contract address. Please note that this action is restricted to administrators only."
      },
      "getAvailableFunds()": {
        "notice": "The balance of this smart contract. "
      },
      "getDrawingPower(address)": {
        "notice": "Gets the drawing power of the beneficiary."
      },
      "increaseAllocation(address,uint256)": {
        "notice": "Increases the total allocation of the specified vesting schedule. Please note that this action can only be performed by an administrator."
      },
      "minimumVestingPeriod()": {
        "notice": "The minimum period of vesting."
      },
      "removeFunds(uint256)": {
        "notice": "Allows you to withdraw the surplus balance of the vesting coin from this contract. Please note that this action is restricted to administrators only and you may only withdraw amounts above the sum total allocation balances."
      },
      "totalVested()": {
        "notice": "The sum total amount of tokens vested for all allocations."
      },
      "totalWithdrawn()": {
        "notice": "The sum total amount of tokens withdrawn from all allocations."
      },
      "vestingCoin()": {
        "notice": "The ERC20 contract of the coin being vested."
      },
      "vestingStartedOn()": {
        "notice": "The date on which the vesting was started. "
      },
      "withdraw(uint256)": {
        "notice": "This action enables the beneficiaries to withdraw a desired amount from this contract.    "
      },
      "withdrawalCap()": {
        "notice": "Maximum amount of tokens that can be withdrawn for the specified frequency. Zero means that there's no cap;"
      },
      "withdrawalFrequency()": {
        "notice": "The frequency of token withdrawals. If the withdrawalCap is zero, this variable is ignored."
      }
    },
    "version": 1
  }
}