{
  "contractName": "VestingBase",
  "abi": [
    {
      "inputs": [
        {
          "internalType": "contract ERC20",
          "name": "_vestingCoin",
          "type": "address"
        }
      ],
      "stateMutability": "nonpayable",
      "type": "constructor"
    },
    {
      "anonymous": false,
      "inputs": [
        {
          "indexed": true,
          "internalType": "address",
          "name": "_address",
          "type": "address"
        },
        {
          "indexed": false,
          "internalType": "uint256",
          "name": "_amount",
          "type": "uint256"
        }
      ],
      "name": "FundRemoved",
      "type": "event"
    },
    {
      "anonymous": false,
      "inputs": [
        {
          "indexed": true,
          "internalType": "address",
          "name": "previousOwner",
          "type": "address"
        },
        {
          "indexed": true,
          "internalType": "address",
          "name": "newOwner",
          "type": "address"
        }
      ],
      "name": "OwnershipTransferred",
      "type": "event"
    },
    {
      "anonymous": false,
      "inputs": [
        {
          "indexed": false,
          "internalType": "address",
          "name": "account",
          "type": "address"
        }
      ],
      "name": "Paused",
      "type": "event"
    },
    {
      "anonymous": false,
      "inputs": [
        {
          "indexed": false,
          "internalType": "address",
          "name": "account",
          "type": "address"
        }
      ],
      "name": "Unpaused",
      "type": "event"
    },
    {
      "anonymous": false,
      "inputs": [
        {
          "indexed": true,
          "internalType": "address",
          "name": "_address",
          "type": "address"
        },
        {
          "indexed": false,
          "internalType": "uint256",
          "name": "_amount",
          "type": "uint256"
        }
      ],
      "name": "Withdrawn",
      "type": "event"
    },
    {
      "inputs": [],
      "name": "owner",
      "outputs": [
        {
          "internalType": "address",
          "name": "",
          "type": "address"
        }
      ],
      "stateMutability": "view",
      "type": "function"
    },
    {
      "inputs": [],
      "name": "paused",
      "outputs": [
        {
          "internalType": "bool",
          "name": "",
          "type": "bool"
        }
      ],
      "stateMutability": "view",
      "type": "function"
    },
    {
      "inputs": [],
      "name": "renounceOwnership",
      "outputs": [],
      "stateMutability": "nonpayable",
      "type": "function"
    },
    {
      "inputs": [],
      "name": "totalWithdrawn",
      "outputs": [
        {
          "internalType": "uint256",
          "name": "",
          "type": "uint256"
        }
      ],
      "stateMutability": "view",
      "type": "function"
    },
    {
      "inputs": [
        {
          "internalType": "address",
          "name": "newOwner",
          "type": "address"
        }
      ],
      "name": "transferOwnership",
      "outputs": [],
      "stateMutability": "nonpayable",
      "type": "function"
    },
    {
      "inputs": [],
      "name": "vestingCoin",
      "outputs": [
        {
          "internalType": "contract ERC20",
          "name": "",
          "type": "address"
        }
      ],
      "stateMutability": "view",
      "type": "function"
    },
    {
      "inputs": [],
      "name": "getAvailableFunds",
      "outputs": [
        {
          "internalType": "uint256",
          "name": "",
          "type": "uint256"
        }
      ],
      "stateMutability": "view",
      "type": "function"
    },
    {
      "inputs": [
        {
          "internalType": "uint256",
          "name": "_round",
          "type": "uint256"
        }
      ],
      "name": "getMerkleRoot",
      "outputs": [
        {
          "internalType": "bytes32",
          "name": "",
          "type": "bytes32"
        }
      ],
      "stateMutability": "view",
      "type": "function"
    },
    {
      "inputs": [
        {
          "internalType": "uint256",
          "name": "_amount",
          "type": "uint256"
        }
      ],
      "name": "removeFunds",
      "outputs": [
        {
          "internalType": "bool",
          "name": "",
          "type": "bool"
        }
      ],
      "stateMutability": "nonpayable",
      "type": "function"
    },
    {
      "inputs": [
        {
          "internalType": "bytes32",
          "name": "_newMerkleRoot",
          "type": "bytes32"
        },
        {
          "internalType": "uint256",
          "name": "_round",
          "type": "uint256"
        }
      ],
      "name": "setMerkleRoot",
      "outputs": [],
      "stateMutability": "nonpayable",
      "type": "function"
    },
    {
      "inputs": [
        {
          "internalType": "uint256",
          "name": "_amount",
          "type": "uint256"
        },
        {
          "internalType": "bytes32[]",
          "name": "_proof",
          "type": "bytes32[]"
        },
        {
          "internalType": "uint256",
          "name": "_round",
          "type": "uint256"
        }
      ],
      "name": "withdraw",
      "outputs": [
        {
          "internalType": "bool",
          "name": "",
          "type": "bool"
        }
      ],
      "stateMutability": "nonpayable",
      "type": "function"
    }
  ],
  "bytecode": "0x608060405234801561001057600080fd5b50604051610bed380380610bed83398101604081905261002f916100ba565b6100383361006a565b6000805460ff60a01b19169055600280546001600160a01b0319166001600160a01b03929092169190911790556100ea565b600080546001600160a01b038381166001600160a01b0319831681178455604051919092169283917f8be0079c531659141344cd1fd0a4f28419497f9722a3daafe3b4186f6b6457e09190a35050565b6000602082840312156100cc57600080fd5b81516001600160a01b03811681146100e357600080fd5b9392505050565b610af4806100f96000396000f3fe608060405234801561001057600080fd5b50600436106100a95760003560e01c80636092dfcb116100715780636092dfcb1461011a578063715018a61461012d5780637c382d0b146101375780638da5cb5b1461014a578063a065b0bd1461016f578063f2fde38b1461018257600080fd5b80630aab8ba5146100ae5780632f384523146100d45780634b319713146100f75780635195bd29146101005780635c975abb14610108575b600080fd5b6100c16100bc366004610906565b610195565b6040519081526020015b60405180910390f35b6100e76100e2366004610906565b6101dc565b60405190151581526020016100cb565b6100c160015481565b6100c1610382565b600054600160a01b900460ff166100e7565b6100e761012836600461091f565b6103f4565b6101356106ac565b005b6101356101453660046109a4565b6106e2565b6000546001600160a01b03165b6040516001600160a01b0390911681526020016100cb565b600254610157906001600160a01b031681565b6101356101903660046109c6565b61077e565b600080546001600160a01b031633146101c95760405162461bcd60e51b81526004016101c0906109ef565b60405180910390fd5b5060009081526004602052604090205490565b600080546001600160a01b031633146102075760405162461bcd60e51b81526004016101c0906109ef565b6002546040516370a0823160e01b81523060048201526000916001600160a01b0316906370a0823190602401602060405180830381865afa158015610250573d6000803e3d6000fd5b505050506040513d601f19601f820116820180604052508101906102749190610a24565b9050828110156102c65760405162461bcd60e51b815260206004820152601e60248201527f616d6f756e7420697320677261746572207468616e2062616c616e616365000060448201526064016101c0565b60025460405163a9059cbb60e01b8152336004820152602481018590526001600160a01b039091169063a9059cbb906044016020604051808303816000875af1158015610317573d6000803e3d6000fd5b505050506040513d601f19601f8201168201806040525081019061033b9190610a3d565b61034457600080fd5b60405183815233907f9642d1a9c70ac2b6eaaefd51921acf997a74f91dce95ef59a462c00ca274bc809060200160405180910390a250600192915050565b6002546040516370a0823160e01b81523060048201526000916001600160a01b0316906370a0823190602401602060405180830381865afa1580156103cb573d6000803e3d6000fd5b505050506040513d601f19601f820116820180604052508101906103ef9190610a24565b905090565b60008054600160a01b900460ff16156104425760405162461bcd60e51b815260206004820152601060248201526f14185d5cd8589b194e881c185d5cd95960821b60448201526064016101c0565b600082815260036020908152604080832033845290915290205460ff16156104bb5760405162461bcd60e51b815260206004820152602660248201527f56657374696e67426173653a2056657374696e6720686173206265656e20636c60448201526561696d65642160d01b60648201526084016101c0565b60008281526004602090815260408083205490516bffffffffffffffffffffffff193360601b1692810192909252603482018890529190605401604051602081830303815290604052805190602001209050600061054f8787808060200260200160405190810160405280939291908181526020018383602002808284376000920191909152508792508691506108199050565b9050806105b65760405162461bcd60e51b815260206004820152602f60248201527f56657374696e67426173653a204164647265737320686173206e6f205665737460448201526e696e6720616c6c6f636174696f6e2160881b60648201526084016101c0565b60008581526003602090815260408083203384529091529020805460ff19166001908117909155546105e8908961082f565b60015560025460405163a9059cbb60e01b8152336004820152602481018a90526001600160a01b039091169063a9059cbb906044016020604051808303816000875af115801561063c573d6000803e3d6000fd5b505050506040513d601f19601f820116820180604052508101906106609190610a3d565b61066957600080fd5b60405188815233907f7084f5476618d8e60b11ef0d7d3f06914655adb8793e28ff7f018d4c76d505d59060200160405180910390a2506001979650505050505050565b6000546001600160a01b031633146106d65760405162461bcd60e51b81526004016101c0906109ef565b6106e06000610842565b565b6000546001600160a01b0316331461070c5760405162461bcd60e51b81526004016101c0906109ef565b8161076d5760405162461bcd60e51b815260206004820152602b60248201527f56657374696e67426173653a20496e76616c6964206e6577206d65726b6c652060448201526a726f6f742076616c75652160a81b60648201526084016101c0565b600090815260046020526040902055565b6000546001600160a01b031633146107a85760405162461bcd60e51b81526004016101c0906109ef565b6001600160a01b03811661080d5760405162461bcd60e51b815260206004820152602660248201527f4f776e61626c653a206e6577206f776e657220697320746865207a65726f206160448201526564647265737360d01b60648201526084016101c0565b61081681610842565b50565b6000826108268584610892565b14949350505050565b600061083b8284610a75565b9392505050565b600080546001600160a01b038381166001600160a01b0319831681178455604051919092169283917f8be0079c531659141344cd1fd0a4f28419497f9722a3daafe3b4186f6b6457e09190a35050565b600081815b84518110156108fe5760008582815181106108b4576108b4610a8d565b602002602001015190508083116108da57600083815260208290526040902092506108eb565b600081815260208490526040902092505b50806108f681610aa3565b915050610897565b509392505050565b60006020828403121561091857600080fd5b5035919050565b6000806000806060858703121561093557600080fd5b84359350602085013567ffffffffffffffff8082111561095457600080fd5b818701915087601f83011261096857600080fd5b81358181111561097757600080fd5b8860208260051b850101111561098c57600080fd5b95986020929092019750949560400135945092505050565b600080604083850312156109b757600080fd5b50508035926020909101359150565b6000602082840312156109d857600080fd5b81356001600160a01b038116811461083b57600080fd5b6020808252818101527f4f776e61626c653a2063616c6c6572206973206e6f7420746865206f776e6572604082015260600190565b600060208284031215610a3657600080fd5b5051919050565b600060208284031215610a4f57600080fd5b8151801515811461083b57600080fd5b634e487b7160e01b600052601160045260246000fd5b60008219821115610a8857610a88610a5f565b500190565b634e487b7160e01b600052603260045260246000fd5b6000600019821415610ab757610ab7610a5f565b506001019056fea2646970667358221220c79393c5f7efae60c2d0f7b07cc2eb81cbd67450b6fa0bd60ff2d22f5abd6ced64736f6c634300080b0033",
  "immutableReferences": {},
  "source": "// SPDX-License-Identifier: AGPL-3.0\npragma solidity ^0.8.11;\n\nimport \"@openzeppelin/contracts/token/ERC20/IERC20.sol\";\nimport \"@openzeppelin/contracts/utils/math/SafeMath.sol\";\nimport \"@openzeppelin/contracts/token/ERC20/ERC20.sol\";\nimport \"@openzeppelin/contracts/security/Pausable.sol\";\nimport \"@openzeppelin/contracts/access/Ownable.sol\";\nimport \"@openzeppelin/contracts/utils/cryptography/MerkleProof.sol\";\n\n/**\n * @title Vesting\n * @dev A token holder contract that can release its token balance gradually like a\n * typical vesting scheme, vesting period. Optionally revocable by the\n * creator.\n */\ncontract VestingBase is Ownable, Pausable {\n    using SafeMath for uint256;\n\n    /// @notice The sum total amount of tokens withdrawn from all allocations.\n    uint256 public totalWithdrawn;\n\n    /// @notice The ERC20 contract of the coin being vested.\n    ERC20 public vestingCoin;\n\n    mapping(uint256 => mapping(address => bool)) vestingClaimed;\n    mapping(uint256 => bytes32) private RootToRounds;\n\n    /// Events;\n    event FundRemoved(address indexed _address, uint256 _amount);\n    event Withdrawn(address indexed _address, uint256 _amount);\n\n    /**\n     * @notice Constructs this contract\n     * @param _vestingCoin The ERC20 contract of the coin being vested.\n     */\n    constructor(ERC20 _vestingCoin) {\n        vestingCoin = _vestingCoin;\n    }\n\n    /**\n     * @notice The Vesting Token balance of this smart contract.\n     * @return Returns the closing balance of vesting coin held by this contract.\n     */\n    function getAvailableFunds() public view returns (uint256) {\n        return vestingCoin.balanceOf(address(this));\n    }\n\n    /**\n     * @notice Gets the markle tree of each vesting Rounds.\n     * @param _round The round of which markleTree to be viewed.\n     * @return Returns Total vested balance.\n     */\n    function getMerkleRoot(uint256 _round)\n        public\n        view\n        onlyOwner\n        returns (bytes32)\n    {\n        return RootToRounds[_round];\n    }\n\n    /**\n     * @notice Allows you to withdraw the surplus balance of the vesting coin from this contract.\n     * Please note that this action is restricted to administrators only\n     * and you may only withdraw amounts above the sum total allocation balances.\n     * @param _amount The amount desired to withdraw.\n     * @return Returns true if the withdrawal was successful.\n     */\n    function removeFunds(uint256 _amount) external onlyOwner returns (bool) {\n        uint256 balance = vestingCoin.balanceOf(address(this));\n\n        require(balance >= _amount, \"amount is grater than balanace\");\n\n        require(vestingCoin.transfer(msg.sender, _amount));\n\n        emit FundRemoved(msg.sender, _amount);\n        return true;\n    }\n\n    /**\n     * @notice This action enables admin to set newMarkelRoot.\n     */\n    function setMerkleRoot(bytes32 _newMerkleRoot, uint256 _round)\n        external\n        onlyOwner\n    {\n        require(\n            _newMerkleRoot != 0x00,\n            \"VestingBase: Invalid new merkle root value!\"\n        );\n\n        RootToRounds[_round] = _newMerkleRoot;\n    }\n\n    /**\n     * @notice This action enables the beneficiaries to withdraw a desired amount from this contract.\n     * @param _amount The amount in vesting coin desired to withdraw.\n     */\n    function withdraw(\n        uint256 _amount,\n        bytes32[] calldata _proof,\n        uint256 _round\n    ) external whenNotPaused returns (bool) {\n        require(\n            !vestingClaimed[_round][msg.sender],\n            \"VestingBase: Vesting has been claimed!\"\n        );\n        bytes32 merkleRoot = RootToRounds[_round];\n        bytes32 leaf = keccak256(abi.encodePacked(msg.sender, _amount));\n        bool isValidLeaf = MerkleProof.verify(_proof, merkleRoot, leaf);\n        require(isValidLeaf, \"VestingBase: Address has no Vesting allocation!\");\n\n        // Set address to claimed\n        vestingClaimed[_round][msg.sender] = true;\n        totalWithdrawn = totalWithdrawn.add(_amount);\n\n        require(vestingCoin.transfer(msg.sender, _amount));\n        emit Withdrawn(msg.sender, _amount);\n\n        return true;\n    }\n}\n",
  "sourcePath": "/Users/yosephks/Documents/GitHub/alpsfinance-smart-contracts/contracts/vesting/VestingBase.sol",
  "compiler": {
    "name": "solc",
    "version": "0.8.11+commit.d7f03943.Emscripten.clang"
  },
  "schemaVersion": "3.4.6",
  "updatedAt": "2022-04-15T05:51:10.923Z",
  "devdoc": {
    "details": "A token holder contract that can release its token balance gradually like a typical vesting scheme, vesting period. Optionally revocable by the creator.",
    "kind": "dev",
    "methods": {
      "constructor": {
        "params": {
          "_vestingCoin": "The ERC20 contract of the coin being vested."
        }
      },
      "getAvailableFunds()": {
        "returns": {
          "_0": "Returns the closing balance of vesting coin held by this contract."
        }
      },
      "getMerkleRoot(uint256)": {
        "params": {
          "_round": "The round of which markleTree to be viewed."
        },
        "returns": {
          "_0": "Returns Total vested balance."
        }
      },
      "owner()": {
        "details": "Returns the address of the current owner."
      },
      "paused()": {
        "details": "Returns true if the contract is paused, and false otherwise."
      },
      "removeFunds(uint256)": {
        "params": {
          "_amount": "The amount desired to withdraw."
        },
        "returns": {
          "_0": "Returns true if the withdrawal was successful."
        }
      },
      "renounceOwnership()": {
        "details": "Leaves the contract without owner. It will not be possible to call `onlyOwner` functions anymore. Can only be called by the current owner. NOTE: Renouncing ownership will leave the contract without an owner, thereby removing any functionality that is only available to the owner."
      },
      "transferOwnership(address)": {
        "details": "Transfers ownership of the contract to a new account (`newOwner`). Can only be called by the current owner."
      },
      "withdraw(uint256,bytes32[],uint256)": {
        "params": {
          "_amount": "The amount in vesting coin desired to withdraw."
        }
      }
    },
    "title": "Vesting",
    "version": 1
  },
  "userdoc": {
    "events": {
      "FundRemoved(address,uint256)": {
        "notice": "Events;"
      }
    },
    "kind": "user",
    "methods": {
      "constructor": {
        "notice": "Constructs this contract"
      },
      "getAvailableFunds()": {
        "notice": "The Vesting Token balance of this smart contract."
      },
      "getMerkleRoot(uint256)": {
        "notice": "Gets the markle tree of each vesting Rounds."
      },
      "removeFunds(uint256)": {
        "notice": "Allows you to withdraw the surplus balance of the vesting coin from this contract. Please note that this action is restricted to administrators only and you may only withdraw amounts above the sum total allocation balances."
      },
      "setMerkleRoot(bytes32,uint256)": {
        "notice": "This action enables admin to set newMarkelRoot."
      },
      "totalWithdrawn()": {
        "notice": "The sum total amount of tokens withdrawn from all allocations."
      },
      "vestingCoin()": {
        "notice": "The ERC20 contract of the coin being vested."
      },
      "withdraw(uint256,bytes32[],uint256)": {
        "notice": "This action enables the beneficiaries to withdraw a desired amount from this contract."
      }
    },
    "version": 1
  }
}