{
  "contractName": "WETHHandler",
  "abi": [
    {
      "inputs": [
        {
          "internalType": "address",
          "name": "wethAddress",
          "type": "address"
        }
      ],
      "stateMutability": "nonpayable",
      "type": "constructor"
    },
    {
      "inputs": [],
      "name": "InvalidZeroAmount",
      "type": "error"
    },
    {
      "anonymous": false,
      "inputs": [
        {
          "indexed": false,
          "internalType": "address",
          "name": "user",
          "type": "address"
        },
        {
          "indexed": false,
          "internalType": "uint256",
          "name": "depositAmount",
          "type": "uint256"
        },
        {
          "indexed": false,
          "internalType": "uint256",
          "name": "depositFee",
          "type": "uint256"
        }
      ],
      "name": "DepositWrapped",
      "type": "event"
    },
    {
      "anonymous": false,
      "inputs": [
        {
          "indexed": false,
          "internalType": "address",
          "name": "user",
          "type": "address"
        },
        {
          "indexed": false,
          "internalType": "uint256",
          "name": "withdrawalAmount",
          "type": "uint256"
        },
        {
          "indexed": false,
          "internalType": "uint256",
          "name": "withdrawalFee",
          "type": "uint256"
        }
      ],
      "name": "WithdrawWrapped",
      "type": "event"
    },
    {
      "inputs": [],
      "name": "WETH",
      "outputs": [
        {
          "internalType": "contract IWETH",
          "name": "",
          "type": "address"
        }
      ],
      "stateMutability": "view",
      "type": "function"
    },
    {
      "inputs": [],
      "name": "deposit",
      "outputs": [],
      "stateMutability": "payable",
      "type": "function"
    },
    {
      "inputs": [
        {
          "internalType": "uint256",
          "name": "amount",
          "type": "uint256"
        }
      ],
      "name": "withdraw",
      "outputs": [],
      "stateMutability": "nonpayable",
      "type": "function"
    }
  ],
  "bytecode": "0x60a060405234801561001057600080fd5b5060405161063f38038061063f83398101604081905261002f91610045565b60016000556001600160a01b0316608052610075565b60006020828403121561005757600080fd5b81516001600160a01b038116811461006e57600080fd5b9392505050565b6080516105946100ab60003960008181606d01528181610150015281816101dc0152818161036e01526103f901526105946000f3fe6080604052600436106100345760003560e01c80632e1a7d4d14610039578063ad5c46481461005b578063d0e30db0146100ab575b600080fd5b34801561004557600080fd5b506100596100543660046104dc565b6100b3565b005b34801561006757600080fd5b5061008f7f000000000000000000000000000000000000000000000000000000000000000081565b6040516001600160a01b03909116815260200160405180910390f35b6100596102d8565b6002600054141561010b5760405162461bcd60e51b815260206004820152601f60248201527f5265656e7472616e637947756172643a207265656e7472616e742063616c6c0060448201526064015b60405180910390fd5b60026000558061012e57604051630dd484e760e41b815260040160405180910390fd5b6040516323b872dd60e01b8152336004820152306024820152604481018290527f00000000000000000000000000000000000000000000000000000000000000006001600160a01b0316906323b872dd906064016020604051808303816000875af11580156101a1573d6000803e3d6000fd5b505050506040513d601f19601f820116820180604052508101906101c591906104f5565b50604051632e1a7d4d60e01b8152600481018290527f00000000000000000000000000000000000000000000000000000000000000006001600160a01b031690632e1a7d4d90602401600060405180830381600087803b15801561022857600080fd5b505af115801561023c573d6000803e3d6000fd5b50505050600061024e826103e86104bd565b9050600061025c83836104d0565b604051909150339082156108fc029083906000818181858888f1935050505015801561028c573d6000803e3d6000fd5b5060408051338152602081018390529081018390527f2bde3c0f91f1bc40b330d4f2498b936e87f21b879a7db68668c2193abae21f989060600160405180910390a15050600160005550565b6002600054141561032b5760405162461bcd60e51b815260206004820152601f60248201527f5265656e7472616e637947756172643a207265656e7472616e742063616c6c006044820152606401610102565b60026000553461034e57604051630dd484e760e41b815260040160405180910390fd5b600061035c346103e86104bd565b9050600061036a34836104d0565b90507f00000000000000000000000000000000000000000000000000000000000000006001600160a01b031663d0e30db0826040518263ffffffff1660e01b81526004016000604051808303818588803b1580156103c757600080fd5b505af11580156103db573d6000803e3d6000fd5b505060405163a9059cbb60e01b8152336004820152602481018590527f00000000000000000000000000000000000000000000000000000000000000006001600160a01b0316935063a9059cbb925060440190506020604051808303816000875af115801561044e573d6000803e3d6000fd5b505050506040513d601f19601f8201168201806040525081019061047291906104f5565b5060408051338152602081018390529081018390527f28c6c733ac50059fd7785800ebf326287a710ef90e9d6f641c46f4c9ef6204cc9060600160405180910390a150506001600055565b60006104c98284610517565b9392505050565b60006104c98284610539565b6000602082840312156104ee57600080fd5b5035919050565b60006020828403121561050757600080fd5b815180151581146104c957600080fd5b60008261053457634e487b7160e01b600052601260045260246000fd5b500490565b60008282101561055957634e487b7160e01b600052601160045260246000fd5b50039056fea2646970667358221220de558100f1ea9967c03fec8aab1683aed609367df83613e96914b2b5ac0cb59f64736f6c634300080b0033",
  "immutableReferences": {
    "8050": [
      {
        "length": 32,
        "start": 109
      },
      {
        "length": 32,
        "start": 336
      },
      {
        "length": 32,
        "start": 476
      },
      {
        "length": 32,
        "start": 878
      },
      {
        "length": 32,
        "start": 1017
      }
    ]
  },
  "source": "// SPDX-License-Identifier: AGPL-3.0\n\npragma solidity ^0.8.11;\n\nimport {SafeMath} from '@openzeppelin/contracts/utils/math/SafeMath.sol';\nimport {ReentrancyGuard} from '@openzeppelin/contracts/security/ReentrancyGuard.sol';\nimport {IWETH} from './interfaces/IWETH.sol';\n\ncontract WETHHandler is ReentrancyGuard {\n  using SafeMath for uint256;\n\n  IWETH public immutable WETH;\n\n  constructor(address wethAddress) {\n    WETH = IWETH(wethAddress);\n  }\n\n  // ============== EVENT ==============\n  event DepositWrapped(address user, uint256 depositAmount, uint256 depositFee);\n  event WithdrawWrapped(\n    address user,\n    uint256 withdrawalAmount,\n    uint256 withdrawalFee\n  );\n\n  // ============== ERROR ==============\n  error InvalidZeroAmount();\n\n  /**\n   * @dev Deposit ETH for WETH (or native for Wrapped Native token in general)\n   */\n  function deposit() external payable nonReentrant {\n    if (msg.value <= 0) revert InvalidZeroAmount();\n    uint256 depositFee = SafeMath.div(msg.value, 1000); // 0.1% fee\n    // SEND Fee to MULTISIG\n    uint256 depositValue = SafeMath.sub(msg.value, depositFee);\n    WETH.deposit{value: depositValue}();\n    WETH.transfer(msg.sender, depositValue);\n\n    emit DepositWrapped(msg.sender, depositValue, depositFee);\n  }\n\n  /**\n   * @dev Withdraw WETH for ETH (or Wrapped Native token for Native token in general)\n   * @param amount (uint256) - amount of WETH to be burnt and withdraw ETH\n   */\n  function withdraw(uint256 amount) external nonReentrant {\n    if (amount <= 0) revert InvalidZeroAmount();\n    WETH.transferFrom(msg.sender, address(this), amount);\n    WETH.withdraw(amount);\n    uint256 withdrawalFee = SafeMath.div(amount, 1000); // 0.1% fee\n    uint256 withdrawalValue = SafeMath.sub(amount, withdrawalFee);\n    // SEND Fee to MULTISIG\n    payable(msg.sender).transfer(withdrawalValue);\n\n    emit WithdrawWrapped(msg.sender, withdrawalValue, withdrawalFee);\n  }\n}\n",
  "sourcePath": "/Users/yosephks/Documents/GitHub/alpsfinance-smart-contracts/contracts/defi/weth/WETHHandler.sol",
  "compiler": {
    "name": "solc",
    "version": "0.8.11+commit.d7f03943.Emscripten.clang"
  },
  "schemaVersion": "3.4.6",
  "updatedAt": "2022-05-15T17:40:25.533Z",
  "devdoc": {
    "kind": "dev",
    "methods": {
      "deposit()": {
        "details": "Deposit ETH for WETH (or native for Wrapped Native token in general)"
      },
      "withdraw(uint256)": {
        "details": "Withdraw WETH for ETH (or Wrapped Native token for Native token in general)",
        "params": {
          "amount": "(uint256) - amount of WETH to be burnt and withdraw ETH"
        }
      }
    },
    "version": 1
  },
  "userdoc": {
    "kind": "user",
    "methods": {},
    "version": 1
  }
}