{
  "contractName": "WETHHandler",
  "abi": [
    {
      "inputs": [
        {
          "internalType": "address",
          "name": "wethAddress",
          "type": "address"
        }
      ],
      "stateMutability": "nonpayable",
      "type": "constructor"
    },
    {
      "inputs": [],
      "name": "WETH",
      "outputs": [
        {
          "internalType": "contract IWETH",
          "name": "",
          "type": "address"
        }
      ],
      "stateMutability": "view",
      "type": "function"
    },
    {
      "inputs": [],
      "name": "deposit",
      "outputs": [],
      "stateMutability": "payable",
      "type": "function"
    },
    {
      "inputs": [],
      "name": "withdraw",
      "outputs": [],
      "stateMutability": "nonpayable",
      "type": "function"
    }
  ],
  "bytecode": "0x608060405234801561001057600080fd5b506040516103a83803806103a883398101604081905261002f91610059565b6001600081905580546001600160a01b0319166001600160a01b0392909216919091179055610089565b60006020828403121561006b57600080fd5b81516001600160a01b038116811461008257600080fd5b9392505050565b610310806100986000396000f3fe6080604052600436106100345760003560e01c80633ccfd60b14610039578063ad5c464814610050578063d0e30db01461008c575b600080fd5b34801561004557600080fd5b5061004e610094565b005b34801561005c57600080fd5b50600154610070906001600160a01b031681565b6040516001600160a01b03909116815260200160405180910390f35b61004e6100f3565b600260005414156100ec5760405162461bcd60e51b815260206004820152601f60248201527f5265656e7472616e637947756172643a207265656e7472616e742063616c6c0060448201526064015b60405180910390fd5b6001600055565b600260005414156101465760405162461bcd60e51b815260206004820152601f60248201527f5265656e7472616e637947756172643a207265656e7472616e742063616c6c0060448201526064016100e3565b60026000908155610159346103e8610252565b905060006101673483610265565b9050600160009054906101000a90046001600160a01b03166001600160a01b031663d0e30db0826040518263ffffffff1660e01b81526004016000604051808303818588803b1580156101b957600080fd5b505af11580156101cd573d6000803e3d6000fd5b505060015460405163a9059cbb60e01b8152336004820152602481018690526001600160a01b03909116935063a9059cbb925060440190506020604051808303816000875af1158015610224573d6000803e3d6000fd5b505050506040513d601f19601f820116820180604052508101906102489190610271565b5050600160005550565b600061025e8284610293565b9392505050565b600061025e82846102b5565b60006020828403121561028357600080fd5b8151801515811461025e57600080fd5b6000826102b057634e487b7160e01b600052601260045260246000fd5b500490565b6000828210156102d557634e487b7160e01b600052601160045260246000fd5b50039056fea2646970667358221220d80c9dc397a016693133ff19b98e3ba32955a34cf233a0807e86878388cbdffb64736f6c634300080b0033",
  "immutableReferences": {},
  "source": "// SPDX-License-Identifier: AGPL-3.0\n\npragma solidity ^0.8.11;\n\nimport {SafeMath} from '@openzeppelin/contracts/utils/math/SafeMath.sol';\nimport {ReentrancyGuard} from '@openzeppelin/contracts/security/ReentrancyGuard.sol';\nimport {IWETH} from './interfaces/IWETH.sol';\n\ncontract WETHHandler is ReentrancyGuard {\n  using SafeMath for uint256;\n\n  IWETH public WETH;\n\n  constructor(address wethAddress) {\n    WETH = IWETH(wethAddress);\n  }\n\n  function deposit() external payable nonReentrant {\n    uint256 fee = SafeMath.div(msg.value, 1000); // 0.1% fee\n    // SEND Fee to MULTISIG\n    uint256 depositValue = SafeMath.sub(msg.value, fee);\n    WETH.deposit{value: depositValue}();\n    WETH.transfer(msg.sender, depositValue);\n  }\n\n  function withdraw() external nonReentrant {}\n}\n",
  "sourcePath": "/Users/yosephks/Documents/GitHub/alpsfinance-smart-contracts/contracts/defi/weth/WETHHandler.sol",
  "compiler": {
    "name": "solc",
    "version": "0.8.11+commit.d7f03943.Emscripten.clang"
  },
  "schemaVersion": "3.4.6",
  "updatedAt": "2022-05-15T10:29:05.320Z",
  "devdoc": {
    "kind": "dev",
    "methods": {},
    "version": 1
  },
  "userdoc": {
    "kind": "user",
    "methods": {},
    "version": 1
  }
}